:1000000000100020F50A0000A14B0000A54B0000E5
:10001000D9C10200A94B0000B14B0000D9C10200B8
:10002000D9C10200D9C10200D9C10200D9C1020060
:10003000B54B000080510300D9C10200D9C10200B4
:10004000D9C1020091F40000C14C0000D9C10200E6
:10005000D1EC0000F5FF0200F1FF0200B1F4000056
:10006000E9FF020061110000D9C10200D9C10200FC
:100070003998000061EE0200D9C10200D9C1020026
:10008000D9C10200D9C10200D9C10200D9C1020000
:10009000D9C10200D9C10200D9C10200D9C10200F0
:1000A000D9C10200D9C10200D9C10200D9C10200E0
:1000B000E5F40000EDFF0200CD68000021F500002E
:1000C000D9C10200C1180100D9C10200D9C1020082
:1000D000D9C10200D9C10200D9C10200D9C10200B0
:1000E000D9C10200D9C10200D9C10200D9C10200A0
:1000F000D9C10200D9C10200D9C10200D9C1020090
:10010000D9C10200D9C10200D9C10200000000001B
:100110002DE9F04F93B0CDE90A329DED1C7BDDE96E
:100120001E530E9353EC172BCDE9080110461946C8
:100130008DED067B209E09F0EFFF80B1DDE9060121
:10014000C94B4FF0FF320AF00FF840B9DDE9060164
:100150004FF0FF326FF4801309F0E8FF80B10E9B7F
:100160002096CDE91E539DED067BDDE90A32DDE9DF
:1001700008018DED1C7B13B0BDE8F04F00F08CB989
:10018000DDE906010022002309F0D0FF002800F07D
:100190003681DDE906A303F1004BCBF30A5016F4D8
:1001A0008063A0F2FF3008BF06250F9309F0E2FC40
:1001B0009DA3D3E9002309F047FD9DA3D3E90023C4
:1001C00009F08CFBCBF31304894644F07F51804641
:1001D000A64B0022504641F4401109F07DFB96A346
:1001E000D3E9002309F030FD02460B46404649465C
:1001F00009F074FB09F0C2FF044609F0BBFC90A3B0
:10020000D3E900238046894609F01EFD984B002261
:1002100009F064FB09F0B2FF8BA3D3E90023074682
:100220004946404609F010FD80463846894609F0A7
:10023000A1FC87A3D3E9002309F006FD02460B4683
:100240004046494609F048FB02460B46CDE90C23DF
:1002500009F0FAFCDDE90C23804689461046194670
:1002600009F03CFB834BCDE9100100224046494692
:1002700009F014FE804B002209F030FB02460B46C9
:100280004046494609F00AFE7C4B002209F026FB55
:1002900002460B464046494609F000FEDDE90C23C4
:1002A0008046894600204FF0804109F015FB024648
:1002B0000B464046494609F011FB02460B46DDE974
:1002C000100109F0EBFD07F2FF376D4B002209F03A
:1002D00005FB00223B0509F0B7FC52465B46804611
:1002E000894609F041FF002840F08C80CDE90C8957
:1002F00004F16303C72B34BF0427052731051ED53E
:1003000055A3D3E900235046594609F023FF00289E
:1003100000F0828052A3D3E900235046594609F0E9
:1003200005FF002878D0A542C8BF2C1B4FF000075E
:10033000CCBF04F1FF35002546F480663C460E9B99
:100340009F4234BFA3EB07084FF0000816F00209E4
:1003500003D0002F18BF4FF000083CB1504659465B
:10036000DDE90C2309F09AFD82468B46DDE90601A2
:100370000022002309F0DAFE10B10BF100439B4686
:1003800026F40063CDE90383CDE900ABDDE90A3251
:10039000DDE90801029500F07FF802465FB316F030
:1003A000200F00F10105DDE909130CBF6520452090
:1003B000089EB0470523059300220A23002CCDE9AF
:1003C000023207F1FF374FEAD473B8BF644201939A
:1003D0002A46DDE908010A9B049700942EF04AFCA6
:1003E0000246B9F1000F06D00B9BC41A0B9B1A19D9
:1003F0000E9BA34246D8104613B0BDE8F08FDDE94E
:1004000006ABCAE61C4B00224046494609F046FDB1
:10041000013CCDE90C016BE7002D90D00F9B002B28
:100420008DD0013D8BE700BFFB799F501344D33F34
:10043000B3C8608B288AC63F61436F63A787D23FEA
:1004400071A379094F930A401655B5BBB16B0240B1
:10045000EF39FAFE422EE63F2D431CEBE2361A3FFF
:100460000000000080842E41FFFFEF7F0000F83F76
:100470000000E03F00002C40000024400000184035
:100480000000F03FDDE90913089D2020A847013452
:10049000ACE700BF000000002DE9F04F97B0DDE9A8
:1004A00020ABCDE90501CDE90723504652465B4616
:1004B0005946DDE92257249E09F02EFE70B9032328
:1004C000CDE922762193B44B2093DDE90501DDE9E6
:1004D000072317B0BDE8F04F2EF0ECBA4FF0FF3213
:1004E0006FF480135046594609F020FE28B10423CA
:1004F0002193CDE92276A94BE6E7A94B4FF0FF32D5
:100500005046594609F030FE68B1A64A06F0040389
:10051000002B08BF0322A44B1CBF13460422CDE9C5
:1005200022762192D0E798A3D3E90023504659467A
:1005300009F01AFE38B996A3D3E90023504659466C
:1005400009F0F4FD68B1DDE90723DDE90501CDE936
:100550002376CDE920AB229517B0BDE8F04FFFF729
:10056000D7BD002200235046594609F0DFFD002880
:1005700000F09A805B4652460020002109F0ACF959
:10058000012382468B46099316F4806400F08E8026
:10059000092D40F28E800EABA5F109020024302116
:1005A0000134202C03F8011BA5EB040901D094426F
:1005B000F6D15946504609F0E1FD7C4B03EBC903E7
:1005C00093ED007B05468DED0A7B09F0D3FA0246D8
:1005D0000B465046594609F07FF9DDE90A2309F038
:1005E00033FB02460B46CDE90C2309F0EFFD8046B4
:1005F00009F0B0FA02460B46DDE90C0109F06CF98E
:1006000002460B46CDE90C23694B002209F0ACFDF4
:10061000002851D008F10108404609F09BFA024633
:100620000B46DDE90A0109F08BFD10B101354FF0F1
:100630000008B9F1000F50D1284609F09BFA024694
:100640000B465046594609F047F9594B002280465F
:10065000894609F06BFD30B1554B002240464946B2
:1006600009F082FD10B1E80700D501350EAB1A196B
:100670000A21202C0AD095FBF1F001FB10553035F2
:1006800002F8015B013405460028F2D106F00302AE
:10069000012A5FD1002F5DD0099A12B916F00C0F14
:1006A00000D0013F302244E009906DE74FF0060989
:1006B0007FE7A94600247CE7DDE90C013C4B0022E2
:1006C00009F034FD0028B4D1B8F1000F02D018F0C1
:1006D000010FAED008F10108ABE70EAB23440A21AD
:1006E000202C0DD0B8FBF1F001FB10823032B8F1B4
:1006F000090F03F8012B09F1FF3904F1010411D8A6
:10070000A1440EAA3021202CB0D0A14504F1010350
:100710000AD11C4609F158030DEB03092E2309F8F1
:10072000203CA3E78046DBE7A1541C46EBE71A55C3
:100730000134A7420ED9202CF9D1CDE90034CDE9FE
:100740000276DDE90723DDE905012EF0B3F917B0E4
:10075000BDE8F08F202CF0D0099A3AB104F158028C
:100760006A442D2102F8201C0134E6E7710704D504
:1007700004F158026A442B21F4E73207DDD504F175
:1007800058026A442021EDE70000000065CDCD410C
:100790000000000065CDCDC141670300456703003F
:1007A000FFFFEF7F386703003D67030050670300DA
:1007B0000000E03F0000000070B58EB02C22002148
:1007C00003A82EF0BCFC64234FF00232CDE90523D0
:1007D00008930B238DF83430514B1B880121D80727
:1007E0008DF8101000F19680084615F0B7FA4D4BC1
:1007F0004D494E484E4C0A221A704FF42873ADF8FA
:10080000123010F01DFB206020B94A484FF41171DE
:1008100004F0C4F8206805212FF057FE20B14548A8
:100820004FF4157104F0BAF8206809F017F8424B3C
:10083000206819682FF09CF916F0C8F90C25684358
:10084000099016F0C3F9684307900DEB0501206885
:100850000BF062FC20B1374840F2692104F09EF8A9
:100860003649206800222FF00EFA20B1314840F2BC
:100870006B2104F093F8324E324D96F9000040F2AD
:1008800003532B807F284FF00503AB7001D115F087
:100890002FFC3378EB7016F099F900EB80008000A4
:1008A000A88016F093F90023C000E880AB604FF0F9
:1008B000FF3019A3D3E900234FF0FF3115F090FC6E
:1008C000214920682FF0D6FE206802A92FF0BAF93E
:1008D00020B118484FF4297104F060F80422206810
:1008E0000DEB02012FF0FBF8042804D0114840F270
:1008F000A72104F053F801A9012031F0A4F904F074
:1009000093F9012016F04AFC2BF097FE16F07EFCBE
:1009100015F0A8FA0EB070BD0A0020FF42030000D7
:1009200036680020DB6B0020855D01002C13002061
:100930005C5A0020FA84030000110020E96B0020BB
:1009400069160020505A0020255F01000348044B1F
:10095000834202D0034B03B118477047A820002000
:10096000A8200020000000000548064B1B1AD90FE4
:1009700001EBA301491002D0034B03B118477047A4
:10098000A8200020A82000200000000010B5064C80
:10099000237843B9FFF7DAFF044B13B10448AFF3F0
:1009A00000800123237010BDCA68002000000000F1
:1009B000208B030008B5054B1BB105490548AFF373
:1009C0000080BDE80840FFF7CFBF00BF0000000077
:1009D00008260020208B0300A3F5803A704700BF53
:1009E000174B002B08BF134B9D46FFF7F5FF002167
:1009F0008B460F461348144A121A2EF0A0FB0E4BDA
:100A0000002B00D098470D4B002B00D098470020BA
:100A1000002104000D000D48002802D00C48AFF35F
:100A2000008009F07DFD200029002EF03EFB09F03A
:100A300065FD00BF0000080000000000000000008D
:100A400000100020A8200020686C0020000000009A
:100A500000000000114A916A01F1704303F5F81398
:100A6000B3F5006F0CD2D2F82838A3F17E62A2F55C
:100A70008432B2F5104F03D20968094A914203D07B
:100A800000230370836070471968064A9142F7D1CA
:100A9000012202709A6842609B69F3E70000E10F4F
:100AA000AD1007B007B0CD5E0F4BD3F82838A3F1D7
:100AB0007E62A2F58432B2F5104F10B511D21968DA
:100AC0000A4A91420DD10A4C227812F0FD0F01D052
:100AD000002010BDDB6998470028FAD1012323705C
:100AE000F6E74FF48170F4E70000E10F07B0CD5E48
:100AF000CB68002008B500F083F8124B12498B42F6
:100B000012D3124B124900208B4218D3FFF768FF13
:100B1000186850F82240586840F82240013298681E
:100B20008242F5D30C33EAE70022F8E71C6844F868
:100B3000220001325C68A242F8D30833E4E70022C5
:100B4000F8E700BF288B0300348B0300348B0300CD
:100B5000348B03000048704700F04902104AD2F875
:100B6000943003F00703023B032B13D8DFE803F0B4
:100B70000C14020E0B4B1B68D2F80001C0F30420CA
:100B80000130B3FBF0F07047074BF4E7074B1B68ED
:100B90005B08F1E7054BEEE74FF40043ECE700BFDD
:100BA00000400E40A0100020A4100020981000204B
:100BB00008B5FFF7D3FF054BD3F80831C3F308237B
:100BC0000133B0FBF3F0024B186008BD00400E404B
:100BD0009C100020014B1868704700BFA410002033
:100BE000054B1860054BD3F8943003F00703022B34
:100BF00001D1FFF7DDBF7047A410002000400E4078
:100C0000044B054A9A60D3F8882042F47002C3F876
:100C10008820704700ED00E000000000014B1868DC
:100C2000704700BFA010002008B52948012100F03E
:100C3000B3FB012304220221052001F087FC0020E0
:100C400001F078FC234B0122C3F810281146042040
:100C500000F07CFE204800F0F1FC204BD3F8F0209F
:100C600042F00102C3F8F020D3F8FC2042F0807279
:100C7000C3F8FC20A3F55D43194A1A6000F5D5209E
:100C8000184B00F2FC40B0FBF3F0174B0138022286
:100C90001861C3F8F0204FF48072C3F804234FF0BA
:100CA0006043124AC3F8B02F114AC3F8802ED3F81C
:100CB000002E42F48072C3F8002EFF2283F8202019
:100CC000D3F8002E22F48072C3F8002E002008BD55
:100CD00000350A000080144206000E0000ED00E01E
:100CE000FF030040F8590D00000004E055CEACC5EC
:100CF000090001004FF0604330B5D3F8802ED207D1
:100D000015D501240B4D8440D5F8FC2042F08072AB
:100D1000C5F8FC20D3F8002E2243C3F8002E53F868
:100D20002020002AF0D003F82010002030BD112030
:100D3000FCE700BF00ED00E02DE9F04F9A46554B6F
:100D400085B01B78DDF83C909DF844B0DDF850800C
:100D500006460F461546002B00F09680072A00F243
:100D600095800E9B002B00F09180B9F1000F00F0F0
:100D70008D80129BB3F5006F00F38880012803D1AA
:100D8000109B002B00F08280434B03EB05131B7B71
:100D9000002B7DD0414C1022002168462EF0CFF967
:100DA00004EB451410229FBB394620462EF0C7F9AC
:100DB00043F210036380BBF1000F03D1E37843F0EB
:100DC0000303E370354A0E9BCDF800A002EB451CEF
:100DD000CCE90193129B581E9DF84C30690103F039
:100DE0000303C0F30A009B0643EA001E53582C4835
:100DF00018404EEA0003012E535017D0B8F1000FEF
:100E00002ED19CF8023068F304138CF8023027E0EE
:100E1000002120462EF093F94FF444736380BBF118
:100E2000000FCFD1E37843F03003CAE71323CCF8A7
:100E30000C309CE80F000CF1100E8EE80F00DCF86F
:100E40001C20109BCCF814306FF0030161F39F025B
:100E5000012FCCF81C2003D1CCF81890CCF804302A
:100E60000D4A290102EB051342F80180159A5A60D8
:100E700000272846224669469F605E7301F0EAFB20
:100E8000384605B0BDE8F08F0648FAE70648F8E7AF
:100E90000648F6E7CC680020202700202026002006
:100EA0000F80FFF3028000F0018000F0078000F067
:100EB00038B5124B1B780546DBB1E0B12BF0FDF9DC
:100EC0000F4A00231146147B54B92B601A0101EB21
:100ED000031301258C501D732BF0F5F9204638BD06
:100EE0000133082B02F11002EDD12BF0ECF905488B
:100EF000F5E70548F3E70548F1E700BFCC680020B7
:100F000020270020048000F0028000F0018000F023
:100F100038B52BF0D2F90C4A05460023147B6CB986
:100F20000133082B02F11002F8D101F049FB074B05
:100F300028461C702BF0C7F9204603E028462BF00A
:100F4000C2F9034838BD00BF20270020CC6800202C
:100F5000058000F00D4B1B7810B5044693B10728AF
:100F600012D82BF0AAF90A4B03EB04131A7B2AB10F
:100F700000241C732BF0A7F9204610BD2BF0A3F919
:100F80000448FAE70448F8E70448F6E7CC6800208C
:100F900020270020068000F0028000F0018000F091
:100FA00013B5164B1868019000238DF804302BF010
:100FB00084F9134B1C7824B12BF085F9114802B049
:100FC00010BD01221A702BF07EF90F4B1C731C7799
:100FD00083F82C4083F83C4083F84C4083F85C4015
:100FE00083F86C4083F87C4004230DEB03008DF8FC
:100FF000073001F005FB2046E1E700BFD0510300B8
:10100000CC680020038000F0202700200A4A1278D4
:1010100008B55AB107280BD8084A02EB00131B7B0E
:1010200043B1002101F0E2FA002008BD0448FCE7CA
:101030000448FAE70448F8E7CC680020202700209D
:10104000028000F0018000F0078000F00A4A127868
:1010500008B55AB107280BD8084A02EB00131B7BCE
:1010600043B1012101F0C2FA002008BD0448FCE7A9
:101070000448FAE70448F8E7CC680020202700205D
:10108000028000F0018000F0078000F00A4A127828
:1010900008B552B107280AD8084A02EB00131B7B97
:1010A0003BB101F027FB002008BD0548FCE70548DF
:1010B000FAE70548F8E700BFCC68002020270020A9
:1010C000028000F0018000F0078000F00D4B1B78DB
:1010D00093B1072812D889B10B4B03EB00131B7B8C
:1010E00073B10A4B1A6E01238340134214BF0123CC
:1010F00000230B7000207047054870470548704773
:1011000005487047CC6800202027002000200E40B2
:10111000028000F0018000F0078000F00B4A127896
:1011200010B50C4662B107280CD859B1084A02EB39
:1011300000131B7B43B101F0F3FA2070002010BDB7
:101140000448FCE70448FAE70448F8E7CC680020C4
:1011500020270020028000F0018000F0078000F0CE
:101160002DE9F041DFF86480D8F86070D8F86C3071
:101170001F4000D5FEE7134C01260025374218D04A
:101180002368C8F86860A3B1A16862680131A160F2
:1011900028469847637B012B0BD150B90A4B03EBD0
:1011A00045131A7B60F341021A731A7F60F3410200
:1011B0001A770135082D4FEA460604F11004DDD1F7
:1011C000BDE8F081202700202026002000200E40CE
:1011D000024B1968024B18680AF03ABBA8100020AD
:1011E000C810002070B59400224605460E462BF02C
:1011F00094F9431C0AD058B92246314628462DF0AE
:1012000074FF0028034808BF002070BD0248FCE7B7
:101210000248FAE710E000F021E000F024E000F0DE
:1012200010B5044601F02CFB431C10D088B901F026
:101230001DFC20F0030023462044984201D10020E9
:1012400010BD53F8042B0132F7D00348F8E70348E8
:10125000F6E70348F4E700BF0EE000F021E000F0FD
:1012600024E000F008B52BF019F8014B186008BD18
:10127000902E0020014B18682BF014B8902E0020FF
:101280000C4B984205D90C4B984210D801220123EF
:1012900001E00022134609490B640949D1F80031E5
:1012A00023F0807343EA0263C1F8003170470222E1
:1012B000EDE700BF0048E8010090D0030000C843FC
:1012C00000400E400F4B5B680F4B30B500221C46B0
:1012D000C9B21D798D4202D11D6885420DD20132FD
:1012E000052A03F10803F4D10321064A536823F0C9
:1012F000407343EA0163536030BD04EBC20461797B
:10130000F3E700BF00000E401452030038B5074C4D
:1013100041F67133256C2364FFF71CFCADB200214C
:10132000FFF7D0FF0DB10023236438BD00000E404D
:10133000044BDB6B5B0604D4034AD2F8C830002BA5
:10134000FBD1704700300E400000C64308B5FFF7E0
:10135000EFFF024B5868C0F3014008BD00300E405B
:10136000044BD3F84421D20703D4D3F840211042D0
:10137000FBD1704700400E4038B5064C256C41F655
:1013800071332364ADB2FFF79DFF0DB100232364D9
:1013900038BD00BF00000E4038B5C0F30323013B49
:1013A000092B11D8DFE803F0052710102B221D10A0
:1013B0001511154DC0F3043405F1424505F58015AE
:1013C00004EBC5008000016038BD104DC0F304344B
:1013D000F2E70F4DC0F304344FF48030FFF7C0FF45
:1013E000EAE7C0F304340B4D1020F7E7C0F30434F0
:1013F000094D0120F2E7094DC0F30434DCE7084D44
:10140000C0F30434D8E700BF00400E4050410E4006
:10141000F0400E40E8400E40E0400E40C0400E401C
:10142000B0400E40C0F30313013B092B2AD8DFE87C
:1014300003F0050B0F1929291F23374B274BD3F82E
:101440000001C0F304207047244BD3F81401F8E7DF
:10145000224BD3F80031C3F30063013301209840DD
:10146000013870471D4BD3F80C01C0F308207047BA
:101470001A4BD3F80801F8E7194B984204D0194BDE
:10148000984207D000207047144BD3F8203103F066
:101490000F03E3E7114BD3F82031C3F30113DDE76A
:1014A000114B98420CD003F5B01303F580539842CA
:1014B000E8D10A4BD3F82831C3F301230433CDE735
:1014C000064BD3F82831E8E7084B9842DAD1034BB2
:1014D000D3F8300100F00300704700BF00400E4019
:1014E0008006160080162E0090171A00A00914001E
:1014F00000F00F000138072850D8DFE800F004158D
:10150000244F34384F402B4BD3F8943003F007036B
:10151000023B052B06D8DFE803F049243F030543CF
:101520000B20704705207047224BD3F8800000F055
:10153000070002283DD0042836D0012808BF032028
:1015400018BF012070471B4BD3F8843003F007030A
:10155000013B032B03D8DFE803F0041F25270120FC
:10156000704703207047134BD3F88800DFE7114B17
:101570001B6F13F0010F0CBF0720092070470D4BA4
:10158000D3F85C3103F03003202B0FD0302B0FD079
:10159000102B08BF0720D3E70220704700207047B8
:1015A0000C207047062070470A20704704207047BF
:1015B0000820704700400E4008B50146FFF798FF2D
:1015C0001A4B994211D01A4B994212D0194B994299
:1015D00004D1194BD3F8800000F00700013803282C
:1015E00021D8DFE800F00A0E1612134BD3F884005E
:1015F000F2E7114BD3F88800EEE7BDE808402AF087
:10160000ECBDBDE80840FFF709BBBDE808402AF083
:10161000E7BDFFF7A3FA084BD3F80031C3F300632B
:101620000133D84008BD0020FCE700BF03002000C4
:101630000500240002001E0000400E4000F4781354
:10164000B3F5B01F10B5044674D025D8B3F5402FBC
:101650005ED010D8B3F5802F49D005D83BB1B3F593
:10166000003F4FD0002010BDB3F5202FFAD1BDE8C8
:101670001040FFF773BAB3F5801F00F08480B3F514
:10168000A01F4DD0B3F5602FECD14A48FFF730FFD3
:10169000072878D00928E9E7B3F5381F53D013D8C5
:1016A000B3F5001F58D00AD8B3F5D01F56D0B3F504
:1016B000F01FD7D14048BDE81040FFF77DBFB3F51C
:1016C000101FCFD13D48F6E7B3F5481F4DD0B3F515
:1016D000781F65D0B3F5401FC4D13948FFF76CFFC0
:1016E000384BD3F82831C3F30123043320E0FFF74C
:1016F00035FA344BD3F80C31C3F308230133B0FB74
:10170000F3F0B0E7FFF72AFA2E4BD3F80831F3E7EE
:10171000FFF724FA2B4BD3F81431C3F30423EDE77E
:101720002648FFF749FF274BD3F8303103F0030376
:10173000D84098E72048FFF73FFF224BD3F82031ED
:1017400003F00F03F4E71C48FFF736FF1D4BD3F8F7
:101750002031C3F30113EBE71948ACE71848FFF752
:101760002BFF184BD3F82831F3E71748FFF7C0FEDB
:10177000072808D0082809D004287FF473AFBDE8F3
:101780001040FFF727BA114B18686CE7FFF7E6F92E
:101790000C4BD3F80031C3F3042303FB000062E7D2
:1017A000FFF7DCF9014620462AF073FDB1FBF0F0AB
:1017B00059E700BF06000E0002001E0005002400CD
:1017C0000300200000400E40B8003200CC10002082
:1017D00010B5FFF79BFD094B07225A67FFF7BEF9CB
:1017E000FFF74EFDFFF7E4F90446FFF7AFFD0146B2
:1017F0002046BDE81040FFF7BFBD00BF00400E40CF
:10180000014B1880704700BFF2150020014B188073
:10181000704700BFF015002010B5042813D8DFE88A
:1018200000F047032F132100294AC1F30801D2F821
:101830006838002BFBD1274A136A23F4FF7323F087
:1018400001030B43136210BD214A01F07F01D2F85E
:101850006038002BFBD11F4A136923F07F030B4331
:101860001361F0E71A4A01F07F01D2F86438002BC7
:10187000FBD1184A936923F07F030B439361E2E79E
:10188000144AD2F89030536A23F0300343F0100327
:101890005362146B104BC1F3C31003300F2803EADB
:1018A000040328BF0F200B4343EA00731363CAE706
:1018B0004F29074A28BF4F21D2F87438002BFBD19B
:1018C000044A936B23F07F030B439363BBE700BF92
:1018D0000020C84300400E4000F8FF0F104A536A32
:1018E00013F0300F18D0202913D0302914D000293C
:1018F0000C4B08BF4FF44003D2F8901033EA0101BB
:10190000FAD15B0246BFD2F8A000C0F380200120CC
:1019100070474FF40003EFE74FF44003ECE700BFDC
:1019200000400E40FF33E10702280AD129B1064BDF
:101930004FF48060C3F8A800596612B10220FFF787
:10194000CDBF0120704700BF00400E400428F8B50D
:1019500048D8304B13F800C02F4B1D5C2F4B33F889
:1019600010702F4B33F810402E4B002940D0022826
:1019700039D15C6A14F0300F35D12B4CE46B5C6AC2
:10198000E40705D55E6A26F0300646F010065E6272
:10199000264C244B25441F66AD002B68002BFCD041
:1019A00002B36444A4002368002BFCD0022819D1A0
:1019B000C1B11C4D696A11F0010116D0012220212C
:1019C000FFF7B2FFD5F89C60012200210220FFF74B
:1019D000BDFFC6F30A010220FFF71EFF2F66236832
:1019E000002BFCD0F8BD0021D2E7FFF777FFE9E735
:1019F00001211C66A940D3F890000842FBD1002ABF
:101A0000F0D00123074903FA0CF3D1F890201A42D1
:101A1000FBD1E7E70F5203000A5203000052030014
:101A2000F651030000400E4000300E408004F210DA
:101A300010B50246B8B901221146FFF787FFFFF73C
:101A400065FC0F4B04225A67FFF788F8FFF718FC74
:101A5000FFF7AEF80446FFF779FC01462046BDE8E3
:101A60001040FFF789BC012807D10146FFF76EFF40
:101A7000FFF74CFC024B0322E5E7FFF747FCE3E7E7
:101A800000400E4038B5FFF7A5F80021044600F0ED
:101A9000F9FA1248FFF7F4FB012211460220FFF782
:101AA00055FFFFF733FC0CB1FFF742FC0C4B022251
:101AB0005A67FFF753F8FFF7E3FBFFF779F805469E
:101AC000FFF744FC01462846FFF756FC2CB9204698
:101AD0000121BDE8384000F0D5BA38BD0148E80121
:101AE00000400E401C4B70B51C681C4B9C4221D81A
:101AF0001B48FFF7C5FB012211460320FFF726FF15
:101B0000FFF704FC0024174B01265E67FFF726F859
:101B1000FFF7B6FBFFF74CF80546FFF717FC014649
:101B20002846FFF729FCB4B931462046BDE870408D
:101B300000F0A8BA0021204600F0A4FA0848FFF7F8
:101B40009FFB012211460320FFF700FFFFF7DEFB9A
:101B5000FFF7EEFBD7E770BD98100020002D310194
:101B60000148E80100400E40012210B51146032053
:101B7000FFF7ECFEFFF7CAFB084B05225A67FEF79A
:101B8000EDFFFFF77DFBFFF713F80446FFF7DEFBE1
:101B900001462046BDE81040FFF7EEBB00400E4076
:101BA00010B504461120FFF7A3FC002101220220FA
:101BB000FFF7CCFE184A217C536A23F00103022967
:101BC00008BF43F001035362144B2178C3F8A014FB
:101BD000637AA18843EAC123D362136BA07A217A86
:101BE00003F07F630343E08843EAC02343EAC11361
:101BF00003310F2928BF0F2143EA01731363A37B2D
:101C0000617B1B0143EA0133E17B0B43217B43EA08
:101C10000143536310BD00BF00400E400000C843A5
:101C200038B50E4D0E4C01461120FFF761FCAA6B32
:101C30004B7814400A78144344EAC3248B7844EA6E
:101C40000364CB7844EA0324AB6BA34205D00021A4
:101C500001220846FFF77AFEAC6338BD00400E4013
:101C600080E4FFF8034BD86B80F04000C0F3801095
:101C7000704700BF00300E4042EA0322B2F5007FF9
:101C800010B5194C29D00AD8B2F5807F22D040F285
:101C900001139A4215D062B9D4F81C320BE0B2F5A8
:101CA000407F1DD040F201339A4210D0D4F8283240
:101CB00001E0D4F82432C3F30722DBB203600A60E8
:101CC00010BDD4F824321A0EC3F30743F6E7D4F854
:101CD0002832F8E7D4F81C32F5E7D4F82032EAE7E6
:101CE000D4F82032EFE700BF0081E00F08B5FFF71E
:101CF000B9FF20B1024AD2F8C830002BFBD108BD91
:101D00000000C64308B5FFF7ADFF80B1FFF7EEFF57
:101D1000074B19685A68C1F30121C2F3014291428D
:101D20001A688CBF42F0100222F010021A6008BD3F
:101D300000300E40064B1B68DB0608D5054B1B69BF
:101D4000C3F30443082B02BF034B044A1A607047D5
:101D500000300E4000400E4098100020C0EA2101E3
:101D600070B5FFF77FFF38B12D4B1A781023C2F101
:101D7000020293402B4A13612B492C4DD1F880412C
:101D800045F60E03C1F880312B6823F0AA03DB056A
:101D9000DB0D0B66FFF7AAFF224B1B68D80604F089
:101DA000010415D5D1F84031DA01FBD4204B1B6872
:101DB0000B61204B1B78052B0AD11F4B1E68FFF7C8
:101DC00095FF184B59683046C1F30141FFF7D4FA2B
:101DD000184B1B78023B0A2B0AD8DFE803F00615E4
:101DE000170909090909091A1D000020FFF720FE3B
:101DF0002B68DB075EBF0C4B02221A661CB10A4B34
:101E00000022C3F8802170BD0120EFE7FFF73AFE02
:101E1000EEE7FFF7A9FEEBE7FFF7DAFCE8E700BF24
:101E2000CD68002000300E4000400E40982E00206B
:101E3000942E0020CE6800209810002010B50B4C86
:101E40000B4BD4F890201A601120FFF751FB094B7F
:101E50001870FFF74BFF084B084A5B68C3F3014358
:101E60001370074B22691A6010BD00BF00400E407E
:101E7000982E0020CE68002000300E40CD68002053
:101E8000942E0020064942780B6823F4407343EAFD
:101E90000223022A0B6004BF024B5B6A704700BF3B
:101EA00000300E4000400E4038B5054608B1FFF73F
:101EB000C5FFFFF727FF1A4A136943F004031361B4
:101EC0002AF015FB2AF014FB164B174AC3F82424FA
:101ED00003F559231B68DB0614D52AF0DFF933F02C
:101EE0003BF92AF0DFF92AF004FB104C04F0D4F897
:101EF00055B1FFF735FFD4F84C3123F00043C4F857
:101F00004C3138BD30BFEEE7FFF714FFD4F84C3149
:101F100023F00043C4F84C31BDE83840FEF748BE1A
:101F200000ED00E000A000400000FFFF00300E4088
:101F300038B5054608B1FFF781FFFFF7E3FE1F4BF9
:101F40001F4CD3F8802145F60E01D207C3F880114B
:101F500048BF00224FF42071196648BFC3F88021A2
:101F6000184A136943F004031361174B174AC3F867
:101F700024242AF0BCFA2368DB0611D52AF08EF956
:101F800033F0EAF82AF08EF904F086F855B1FFF73D
:101F9000E7FED4F84C3123F00043C4F84C3138BD8F
:101FA00030BFF1E7FFF7C6FED4F84C3123F0004311
:101FB000C4F84C31BDE83840FEF7FABD00400E4091
:101FC00000300E4000ED00E000A000400000FFFFE8
:101FD0000E4A0379916921F03F010B43017843EAEE
:101FE0008103417843EA4103817843EAC103C17820
:101FF000012908BF43F0010393611368417923F479
:10200000403343EA01431360704700BF00300E4085
:102010002DE9F04104460D46FFF724FE60B3DFF8DA
:102020006080FFF763FED8F80430C3F301439C429D
:1020300022D0124BD3F80031FEF790FD022C074658
:102040004FF0100609D12146FFF796F9C8F8106045
:1020500095B1BDE8F041FFF749BEC4F102039E40CF
:10206000C8F810600DB1FFF741FE2CB92146384683
:10207000BDE8F041FFF780B9BDE8F08100400E40B7
:1020800000300E4038B505460C46FFF7EBFDB8B101
:1020900045B90C4BD3F80051FEF760FDC5F304259C
:1020A00005FB0005084B1B7821463BB1074B9D42C1
:1020B00004D80220BDE83840FFF7AABF0020F9E7A6
:1020C00038BD00BF00400E40CF680020002D310118
:1020D000034B02781A7001210020FFF7D3BF00BF25
:1020E000CF680020234B4AF6E85210B5596B5A636B
:1020F0009A6FD207FCD41B6C13F0030306D01E4A60
:1021000001249842C2F8B44A1AD110BDA0B1431EAE
:10211000012B17D8174A4FF40023D362936FDB07C4
:10212000FCD4136C23F0030343F001031364114A3E
:10213000536A1C03FCD505E00F4BC3F8B40AE4E76F
:10214000032BE4D00B4B9A6FD207FCD41A6C22F00D
:10215000030202431A649A6F12F00102FBD10038A5
:10216000054C18BF01200129C4F8B40A08BF5A63FE
:10217000CBE700BF00300E400000C6432DE9F04F12
:1021800000238BB0CDE90433CDE90633CDE9083324
:10219000A0F5E163B3F5966F05460191934603D927
:1021A00000200BB0BDE8F08F624BDFF88C81D3F8D4
:1021B0001842B0F5E16F15BF4FEA146AC4F3072A5D
:1021C000C4F30744E4B20694CDF824A0D8F84C60D8
:1021D000C6F301768CBF01220022334607A904A86A
:1021E00015BF4FF4E1674FF496674FF496694FF4CB
:1021F00016790392FFF740FDD8F8EC30039AC3F349
:10220000012308A905A80293FFF736FDA5EB070CEB
:10221000AAEB04020CFB02F2B2FBF9F2144454459F
:10222000079F0498089A0599BAD8A2EB010E0CFBF7
:102230000EFEBEFBF9FE11EB0E012CBF4FF0010E9E
:102240004FF0000E8A42ABD3BEF1000FA8D13A1A6C
:102250000CFB02F2B2FBF9F280182CBF0122002223
:1022600087429DD3002A9BD1029BBBF1000F0FD068
:10227000D8F85C20B5F5E16722F4FE4218BF0127CB
:1022800022F0020242EA470242EA0422C8F85C2035
:10229000019A0AB9012084E7264A022ED2F8302298
:1022A0003ED0032E3FD0012E14BFD2B2C2F307227C
:1022B000120312F4702F7FF473AF1F4EF46E24F4E8
:1022C00070442243F2661B4A022BD2F830222CD0F3
:1022D000032B2DD0012B14BFD2B2C2F3072212035D
:1022E00012F4702F7FF45CAF134CD4F8EC3023F46D
:1022F00070431343C4F8EC30636E884238BF08461D
:1023000023F4FF73E72823F0010328BFE720B5F586
:10231000E16F18BF43F0010343EA40036366B9E786
:10232000C2F30742C4E7120EC2E7C2F30742D6E780
:10233000120ED4E70081E00F00300E402F4B1A6FD1
:10234000D96C11F0010F02F0060242D0002A40D0F1
:1023500013284FD9143813288CBF1023082327497A
:10236000013BCA6C180322F47F4240EA0323134363
:10237000CB64234BCA6C1B88C2F30322283301327F
:1023800002EB820003EB5303B3FBF0F3C86C013B99
:10239000072B28BF072320F0EE6040EA036343F4D5
:1023A0008013CB64174BB3F90030002B10DB2833BC
:1023B000500800EB420203EB5303B3FBF2F30A6D48
:1023C000072B28BF072322F0700242EA03130B6594
:1023D0007047D96C01F00101114304D1092809D9D2
:1023E0000A380928B8E7DB6C13F00103B7D01AB933
:1023F0002728B1E70423B2E70023B0E700300E40FE
:10240000745C0020705C0020064A074BD3F88039CA
:10241000136F23F0070303431367044B1888FFF778
:102420008DBF00BF00300E400000C643725C00202C
:10243000394B02222DE9F0419A639B6B03F00F03A5
:102440009342044603D000252846BDE8F081C288A7
:10245000B0F808808588B0F90C6047784A2A4ED9D0
:10246000B2F5FA7F4DD340F6C3139A428CBF4FF0BA
:1024700040524FF000522849CB6C23F0405323F0D8
:102480000103002EA8BF43F001031343CB64D1F82E
:10249000EC3043F44073C1F8EC30204B1D80CB6E20
:1024A00043F08073CB661E4BD3F8800900B1042043
:1024B000FFF7AAFF1B4BA3F800801B4B28461E808A
:1024C000FFF73CFFA37BFBB1012B21D001226088E9
:1024D0001146FFF753FE05460028B4D00E4AD36BD1
:1024E00043F48063D3633846FFF7FCFDA37AA3F17E
:1024F0002002534253410A4AC2F89437A4E700220B
:10250000B9E74FF08052B6E7034B084A9A65DDE71A
:10251000014B074AFAE700BF00300E40725C002012
:102520000000C643745C0020705C00207740205798
:10253000372110B7044AD2F8443423F0030303438D
:10254000C2F84434704700BF00A0004000EB4000D8
:10255000F8B50D461F46040116463AB11548012349
:102560008B402044C7B100F1C0600360072D4FF0DD
:102570000F0114D8AB00104806FA03F2994020442A
:1025800029F0BCFF3EB90B4A0123AB40224477B18E
:1025900002F1C0621360F8BD00F18060E5E7A5F1CB
:1025A00008039B00054806FA03F29940E7E702F1A9
:1025B0008062EFE70CA0004004A0004008A00040AB
:1025C000084B4FF40072C3F88020BFF34F8FBFF366
:1025D0006F8F054B0021D9664FF4AA401962FEF7B0
:1025E000DBBE00BF00E100E000200E40034B0344CF
:1025F0009B0081F001011960704700BFA001F1103C
:1026000010B5044601214FF4AA40FEF7C5FEB4F808
:10261000013022785BBA9BB243EA02630B4A136033
:1026200000231362D36253634FF00043D3664FF02D
:10263000FF339366064A4FF40071C2F88011E378C5
:102640005B01DBB282F80933116010BD00200E403F
:1026500000E100E0F8B5254D8F7AD1F800C0C3B293
:1026600001269E404FF0300ECB7A0EFB00500C46F8
:102670001B05097BAE6643EA0743C0F880C094F8A7
:102680000DC0C0F888C043EA415322F00302C0F8ED
:102690008430C0F8982029F010FEEB6E3343EB66CF
:1026A000237A13B16B6B33436B63637A13B1EB6AB9
:1026B0003343EB6223792A6823B1DB431B0263F4C3
:1026C0007F431A4063790BB142EA0322A3790BB12D
:1026D00022EA0302E3791343044A1360044B9E6227
:1026E000D663BDE8F84029F0EEBD00BF00200E40E3
:1026F00000200E4410B5C0B20124844029F0DDFD55
:10270000054AD36E23EA0403D366044B1C62BDE87A
:10271000104029F0D8BD00BF00200E4000200E441C
:1027200010B5C0B20124844029F0C7FD074B1A6AD6
:10273000224208D19B6A9C430CBF0124002429F04B
:10274000C2FD204610BD0024F9E700BF00200E4066
:10275000054B5A685B68054B41F671321A649A68FA
:1027600022F001029A60704700300E4000000E40D7
:10277000034B9A6822F001029A6000221A647047A3
:1027800000000E40094A0A4BD969C90705D512B99C
:102790006FF002007047013AF6E7002AF8D00122F4
:1027A0001861DA60D86940F380007047809698001D
:1027B00000000E4070B509B9002070BD0E4A00231C
:1027C000082550F8234094610C4CD5600133D6693C
:1027D000F60705D514B96FF00200EEE7013CF6E705
:1027E000002CF8D0D469A40702D49942E9D1E3E7D8
:1027F0006FF00100E1E700BF00000E4080969800F6
:102800002DE9F8431C4B0D4641F671311E6C1964DD
:102810001A49804648684968996841F00101B6B292
:10282000996097084FF00009B94501D3002005E0F1
:1028300008EB89042046FFF7A5FF48B10E4B9A68C4
:1028400022F001029A600EB100221A64BDE8F883FA
:10285000C4F30A01C1F500618908A7EB0903994295
:1028600028BF19462846FFF7A5FF0028E6D189446E
:1028700005EB8105D8E700BF00000E4000300E4098
:10288000234B41F671311A6C10B5196421494C681B
:102890004968996841F00101996001211861D96086
:1028A000D9694C0792B209D5996821F00101996064
:1028B0000AB100221A644FF0FF3010BD0221D96026
:1028C0001549D869C00700D569B9D86910F0020068
:1028D0000BD0996821F0010199600AB100221A64B5
:1028E0006FF00100E9E70139EBE741B9986820F0A2
:1028F0000100986002B119646FF00200DDE7996889
:1029000021F0010199600AB90020D6E71864FBE7BD
:1029100000000E4000300E408096980010B590FAEE
:10292000A0F2054C2368B2FA82F223EA000091403B
:102930000843206010BD00BF00500E40014B012233
:102940009A60704700500E40134B1449F0B50022B6
:102950005D68134E1046D6F8E8714C680B687F0727
:102960000BD4B3F5006F06D012D8B3F5007F02D0B8
:10297000B3F5806F01D144F480742B4202D02C4215
:1029800008BF18430132092A01F10801E3D1F0BD63
:10299000B3F5803FEEE700BF00500E403C5203000D
:1029A0000040E00F8B784A789B0143EA82030A7863
:1029B0001343CA7843EA02130A7943EAC2234A79E5
:1029C00043EA02338A79043043EA42430001014A70
:1029D0001350704700200440014B1860704700BF3F
:1029E00000008442437882789B0043EA0213027815
:1029F0001343C27843EA4213027943EA022342793D
:102A000043EA0233827943EAC233C27943EA02439A
:102A1000027A43EA4243014A1360704700200440AF
:102A20000D4AD2F8E430D2F8E0109B0003F03C03EA
:102A3000C1F381110B438370D2F8E03003F03F0300
:102A40004370D2F8E830D2F8EC2003F0F003C2F380
:102A5000031213430370704700FF0FE0024BD3F8DB
:102A6000FC00000E704700BF0081E00F044BD3F85C
:102A7000E4301B0E0A3303F01F0301209840704717
:102A80000081E00F70B5054616461C4619B914487A
:102A9000FEF7D4FD0146402C1BD003D8DCB1202C1E
:102AA0001BD070BD602CFCD1042303FB06F253083D
:102AB00003EB4113B3FBF2F30A4A203B02EAC303E0
:102AC0002A6822F060022A602A6814432C606B6135
:102AD000E7E70623E9E71023E7E70823E5E700BF78
:102AE00040410500F8FF7F0040F6AA63C36041F251
:102AF0000502002303604260104A83604361C3649F
:102B000082640F4A0366904243678367C3670DD0B0
:102B100002F5806290420BD002F58062904205D0AF
:102B200002F58062904203D0836570470365FBE73E
:102B3000036583650023C365704700BFF9FF01008B
:102B40000000014070B51648164E174D174C012174
:102B5000FEF722FC01214FF48A40FEF71DFC002302
:102B600004220A210320FFF7F1FC45F203137366E8
:102B70004FF47F436B612022002363610B21A2602D
:102B800003200422FFF7E2FC094BB3664FF47F03F6
:102B90006B614FF4502363614023A36070BD00BF9D
:102BA00000350A0000600E4000600E4400600E46D2
:102BB0000451000838B504462CF0EBFF0FCC044D4F
:102BC0000FC594E80F0085E80F00002038BD00BF56
:102BD0009C2E002047F6FF739A42F0B572D006296A
:102BE00072D83A4B5B5C022B6ED8394D05EBC304AF
:102BF000DF00A17815F83330012938BF0121012BFE
:102C000013D1E0780025401AA84202D80844C0B287
:102C1000F0BD431BA0EB5303666836F91360964280
:102C2000CCBF03F1FF301D46EEE760680028EFD00F
:102C3000B0F90040944204DBB0F902409442B8BFBE
:102C400014468388FF2B04BFB0F90620B0F908C0F2
:102C50003D440FBF01260026C8224FF0280C131B4D
:102C600093FBFCF333446E781BB29E4201DD002BD4
:102C700001DA731E1BB201339BB24FF47A7C071D3D
:102C80005D1E2DB24FEAC50E00EBC5059E42EA88D7
:102C9000AD6814FB025222EAE27202F15C02B2FB5E
:102CA000FCF205DD37F83350954203F10103E7D21A
:102CB00000EB0E039888904228BF1046884238BF28
:102CC0000846A4E7FF20A3E70020A1E78452030001
:102CD0009C2E00200629F0B561D8324B595C0229A0
:102CE0005DD8314B13F83100012816D103EBC10335
:102CF0009C78D8785B68012C214638BF012190422E
:102D000094BFC1EB0001C1EB0201CAB2001B8242B9
:102D1000C8BF002233F91200F0BD002A3DD003EBFA
:102D2000C103596800293AD09878904202D3B1F98A
:102D30000200F1E7DC78B1F900009442ECD95C784C
:102D40008B88A3F1FF06013C734201F10405E4B254
:102D5000734101F10C07DEB2B44216D805EBC30390
:102D60004FF47A75B3F902405B686A43D21A04EBF8
:102D7000D47302EB630292FBF4F29042CCDBB1F924
:102D800002009042C8DC10B2C6E737F833C0944561
:102D900003F10106E2D33346DDE70448BCE704480B
:102DA000BAE700BF845203009C2E00200CFEFFFFF8
:102DB0000080FFFF08B50448FFF7FCFEBDE80840AF
:102DC00001202CF00CBF00BFEC6703007FB514227C
:102DD000002101A82CF0B3F9044B029301A94FF094
:102DE000FF302CF03CFF07B05DF804FB006A1800D0
:102DF000024B03480122C3F8002670470010C84365
:102E000000000F40094B98420ED003F580639842B2
:102E100009D10122064B03EBC2035A68054B134448
:102E20009B0000221A6070470022F3E700000F4069
:102E30008C5203008005F21010B504462369DB07AD
:102E4000FCD404F1800029F085FA014B236510BD04
:102E5000510545012DE9F043064689B017469846CD
:102E60000C4600294DD1FFF7C3FF0146044630460A
:102E700029F00BFC4FF0010996F86C5006F15C014B
:102E8000C5F10F06C5F10E03F6B22A460DF1010099
:102E900001358DF800302CF01AF9324600210DEB87
:102EA00005002CF04CF9C6F1100001233246002138
:102EB00068448DF80F302CF042F929F0EFF904F155
:102EC000800605466946304629F044FA0E4B2365D4
:102ED0002369DB07FCD404A9304629F058FA2846B8
:102EE00029F0E0F9424604A938462CF0F0F8B9F18F
:102EF000000F02D02046FFF785FF002009B0BDE893
:102F0000F0834FF00009B7E7055101002DE9F04FBC
:102F100089B00546DDF8489016461F460C4639BB79
:102F2000FFF766FF01460446284629F0AEFB4FF046
:102F3000010B6B6C33446B6429F0B0F98246D6B94F
:102F4000504629F0AFF9BBF1000F0ED029F0A6F9D9
:102F500005F14C01064604F1840029F018FA3046C8
:102F600029F0A0F92046FFF74DFF09B0BDE8F08F2A
:102F70004FF0000BDDE72B79102EB04628BF4FF045
:102F80001008012B0DD11022002168462CF0D7F833
:102F90003946424668462CF09AF869462046FFF7C3
:102FA0004BFF394604F18C0029F0D4F9124B23650C
:102FB000012363652369DB07FCD404A904F18000C5
:102FC00029F0E5F904A9424648462CF080F8297911
:102FD00061B9102268462CF0B2F84946424668466C
:102FE0002CF075F869462046FFF726FFC144474498
:102FF000A6EB0806A3E700BF4805590370B504888F
:1030000004F4E043B3F5005F05461ED1C4F3022388
:10301000042B1AD181F0AA6383F4807333F47E13F6
:10302000204821F47E1618D081F0AA6383F400733F
:1030300033F47E1311D0864230D1B4F5105F0CBF4B
:103040006FF086006FF0850070BDB4F5105F25D17C
:10305000144B21F47E119942F1E786424FEA114365
:10306000C1F305411AD1B4F5105F17D104390C2909
:1030700011D813F001000ED1073A062A0BD86B883D
:10308000C02B0BD0B3F5807FDED0802B0CBF00208F
:103090006FF08600D8E76FF08600D5E76FF0850007
:1030A000D2E700BF000140052DE9F04FA7B0DDE9F0
:1030B0003475DDF8D880DDF8EC90089206461C46A1
:1030C0008A4629B96FF08602104627B0BDE8F08F16
:1030D0000028F7D0309B002BF4D0329B13B9339BE0
:1030E000002BEFD1002F7DD1002DEBD1389B002B91
:1030F000E8D0B9F1000FE5D03A9B002BE2D0399B24
:10310000002BDFD0338803F4E042B2F5005F74D1C6
:10311000C3F30222042A70D184F0AA6383F480737B
:1031200033F47E1306D084F0AA6383F4007333F47F
:103130007E136BD1C4F30543319AC9F800302146A0
:1031400030460993FFF75AFF02460028BCD1728827
:10315000089BB3EBD20F4FEAD20BB3D3379B9D4200
:103160005FD83A9A099B93425BD8474508D27B19AE
:10317000984505D239462A4640462BF0C6FF4746B9
:10318000702200210AA82BF0DAFF5A4651460DF1B1
:103190002D00CDF850B02BF09AFF234B24F47E1471
:1031A0009C423BD13388B3F5105F37D1D9F800305A
:1031B0000693399B0397CDE90483339B0293329B9B
:1031C0000193319B00932A46309B01210AA829F0E4
:1031D00077FB0246E0B9389B1D6070210AA829F0F0
:1031E00067FB71E7002D81D0B8F1000F3FF46AAFA3
:1031F000379B002B7FF47AAF64E742F204029342DC
:1032000004D184F0052383F4801390E7002393E72F
:10321000389900230B60C9F80030DEE76FF08502B3
:10322000DBE76FF089024FE7000140052DE9F04F21
:10323000ABB0DDE938A4DDE93B65894609929846E3
:103240000746002800F0A280002900F09F80349BF0
:10325000002B00F09B80369B1BB9379B002B40F066
:103260009580BAF1000F02D1002C40F08F801DB97B
:103270003D9B002B40F08A803E9B002B00F0868017
:103280003A9B002B00F08280359A41463846FFF782
:10329000B5FE0246002866D17A88099BB3EBD20FAF
:1032A0004FEAD20B72D33D9B9C4272D8AA4509D2F9
:1032B0000AEB0402954205D25146224628462BF0DD
:1032C00024FFAA46702200210EA82BF038FF5A4690
:1032D00049460DF13D00CDF860B02BF0F8FE2E4AC6
:1032E00028F47E1800219045CDE90A11CDE90C1192
:1032F00049D13A88B2F5105F45D1379B0293369B8E
:1033000001930AAF359B00932246CDE90457349BC5
:103310000696CDF80CA00EA829F0D2FA0246C8B93C
:103320003A9B384603EB060C90469C451FD11EB1D4
:103330003146384629F0BCFAB8F1000F20D03E9A49
:10334000002313601CB12146284629F0B1FA6FF022
:10335000940204E01EB13146384629F0A9FA7021E2
:103360000EA829F0A5FA10462BB0BDE8F08F10F892
:10337000011B13F801EB81EA0E0148EA0108D4E7CA
:103380003E9B1C60EBE76FF08502E8E76FF086027A
:10339000E9E76FF08902E6E7000140052DE9F04F0B
:1033A0008FB09846DDF86CA0049093460023B8F1E6
:1033B000000F16D0D8F800401029CDE90633CDE92A
:1033C00008330CBF08231023029300255D450AD360
:1033D000B8F1000F01D0C8F8004000200FB0BDE8E0
:1033E000F08F4446E8E75CB1199B1A9A1B5D525D69
:1033F000013453400AF8053004F00F040135E5E7C5
:10340000FFF7F6FC4FF4404344600360064628F0A3
:1034100045FF029A04990746304628F0EDFF06F171
:10342000840318461899019328F094FF3846ABEBB3
:10343000050728F037FF27F00F0706F1A0032F44F8
:103440000593AAF11009BD4234D11A9B3B440AAD41
:1034500003F1100C186859682A4603C20833634503
:103460001546F7D10F2F0ED90AEB070306AD103B17
:103470000DF1280C2A4603CA6245186059601546AA
:1034800003F10803F6D106F1800357440AEB0B0958
:1034900003934F4536D128F001FF1899054601984E
:1034A00028F075FF284628F0FDFE3046FFF7AAFCFD
:1034B0005D468BE728F0F2FE224B039033653369BB
:1034C000DA07FCD41A9B0598591928F043FF0F2DF1
:1034D0000ED90DF1180C09EB05020DF1280E63460B
:1034E00003CB7345106051609C4602F10802F6D18F
:1034F00006A906F1800028F04AFF039828F0D2FEC2
:103500001035A0E774B928F0C9FE0E4B33650546A7
:103510003369DB07FCD40398199928F038FF284653
:1035200028F0C0FE04F138030DEB0302199B12F8DA
:10353000102C1B5D0134534007F8013B04F00F04CD
:10354000A7E700BF480503012DE9F74FDDF848A0C4
:10355000DDE90E74DDE9106883461D46894621B910
:103560006FF0860003B0BDE8F08F002AF8D00FB9E5
:10357000002CF5D116B9B8F1000FF1D1BAF1000F56
:10358000EED02E4B9D4215D00BD82D4B25F48071DB
:1035900099420FD003F580639D420BD06FF08500F8
:1035A000E0E7284B9D4205D025F40071A3F5807318
:1035B0009942F2E7BBF80030B3F5105FEED1BBF8EB
:1035C0000230B2EBD30FE9D3802B02D0B3F5807F6A
:1035D000E4D124B3B7420AD23B199E4207D24445F4
:1035E000BED83946224630462BF08FFD3746164B63
:1035F000BBF802B09D424FEADB0BCFD14445AFD8B8
:1036000014F00F05ACD17319009301227B195946B0
:10361000484629F08EF930B91035AC42F3D8CAF8D3
:10362000004000209EE74246002130462BF087FDF7
:103630000023CAF800306FF0920093E70010C00436
:10364000004040040012C004004440042DE9F04F43
:1036500091B0DDE91A4ADDE91C56DDF8789007469D
:103660009B46884629B96FF08608404611B0BDE8F0
:10367000F08F002AF7D014B9BAF1000FF3D10DB9C9
:10368000002EF0D1B9F1000FEDD0574B9B4515D06E
:103690000BD8564B2BF4807199420FD003F5806301
:1036A0009B450BD06FF08508DFE7514B9B4505D05C
:1036B0002BF40071A3F580739942F2E73B88B3F5D0
:1036C000105FEFD17B88B2EBD30FEBD3802B02D00E
:1036D000B3F5807FE6D1BAF1000F04D1C9F800A09C
:1036E0004FF00008C1E7AC420BD204EB0A039D4245
:1036F00007D2B245B7D82146524628462BF005FDE1
:103700002C46394B7F889B454FEAD70758D003F5A5
:1037100040739B4521D0374B9B45C3D1B245A2D8BE
:103720001AF00F0B9FD140463B4608AA394629F0B4
:103730003AF98046002898D105EB0B03009300224C
:1037400004EB0B03394608A829F0F3F8804670BB58
:103750000BF1100BDA45EFD8C0E7AAF10D0AB2451C
:103760003FD801238DF810300DF11102234604F1EA
:103770000C0153F8040B42F8040B8B42F9D11B786F
:1037800013704FF48073ADF81E300D3404ABCDE9E7
:1037900000334046CDE90245002352463946FFF743
:1037A000FDFDC9F800A0804600283FF45EAF324618
:1037B000002128462BF0C3FC0023C9F8003054E751
:1037C000AAF1100AB2453FF64EAF04AA04F1100C5C
:1037D00020686168134603C3083464451A46F7D16C
:1037E000D4E76FF0890840E70010C00400404004AF
:1037F0000012C004004440047FB5094B6A4603F13F
:103800001006154618685968144603C40833B342B5
:103810002246F7D12846FEF70BFE002004B070BD0B
:103820009C52030070B5194B86B001AA03F1100633
:10383000154618685968144603C40833B342224633
:10384000F7D11B882380124BD3F8B420120317D56D
:10385000A3F500434FF6FF721B88934208BF4FF455
:103860008D730C48ADF80A30FDF7BAF92846FEF71B
:1038700097F94FF4FA70FDF7C9FF002006B070BD4C
:10388000D3F8B830C3F30803EBE700BFAC52030032
:103890000081E00F00F0490207B5084B186801905D
:1038A000202301A88DF80430FEF7BAF96420FDF753
:1038B000A7FF002003B05DF804FB00BFBE52030069
:1038C00010B50C480C4C6FF00403A02113F0800FCE
:1038D00003F1010207D12344332A83F8001313466E
:1038E000F4D1002010BD03F00F03043B034419760C
:1038F0001346EBE700ED00E000E100E010B5044600
:1039000028F0CCFC024B1C6028F0CCFC002010BD41
:10391000BC2E002010B528F0C1FC034B1C6828F019
:10392000C1FC204610BD00BFBC2E002038B50C469F
:103930001546014610B9FFF7EDFF01462B4622461A
:10394000034805F0EDFD0028D4BF3720002038BD26
:103950009DCA020010B500F025F80448044B4360EE
:1039600000248460FFF7CAFF204610BDC02E00204F
:103970007539000013B5064C23780093054B1B885E
:1039800029F0A9F810B923780133237002B010BDD3
:10399000D0680020F4150020014B188000207047EB
:1039A000F415002008B5074B1A6842B90122082017
:1039B0001A6028F018FC0449044802F0A1F900201C
:1039C00008BD00BFD42E0020E4100020CC2E002023
:1039D00030B5144687B00546104629F0D5F863691E
:1039E00083423CBFD4E903315B181B1A02467BB10A
:1039F0000F4903910021CDE9013101230494009383
:103A0000D4E90013284628F0F9FB002007B030BDA8
:103A10000122627694F82D20002AF6D084F8353001
:103A20001321E36920469847636A20469847ECE7EC
:103A3000D13900002DE9F04788B004460F461646FC
:103A4000984628F03AFC8146002E7BD0237E03F076
:103A5000FF02002B00F0A380204629F095F865694D
:103A6000A84205D1637ED4E9033213445D1B01E013
:103A7000F9D9451BB54228BF354628F01EFC94F8FD
:103A80002D308246002B6ED161692A4638462BF0D4
:103A90001EFB63692B4463612E4621E0037803F02B
:103AA000FD0111295CD1216B814205D1A3F11101E6
:103AB0004B424B4184F83430013E6369216B8B42A9
:103AC00003F1010308BF236363610132954260691A
:103AD000E4D1D4E90323216B1344994200D122633A
:103AE000D4E903236169207A134499424FF0000519
:103AF00008BF62616576FDF789FA204629F044F82F
:103B00006369834232D194F82D302576E56865618A
:103B100003B12563636A20469847224B0393002331
:103B2000049402932369019301230093636821683D
:103B3000207A2A4628F062FB207AFDF787FA504661
:103B400028F0C1FB4846C8F8006028F0BCFBD8F854
:103B50000030002B0CBF1B20002008B0BDE8F08710
:103B600007F8013BA9E72E460022AFE701232376A1
:103B7000207A0DF11E01FDF7D1FA9DF81E30002BC1
:103B8000DAD00DF11F01207AFDF7A0FA9DF81F1081
:103B90000029D1D1207A2246FFF71AFFCCE716463A
:103BA000D0E700BFD1390000002807DB044A4109F3
:103BB000012300F01F00834042F82130704700BF0E
:103BC00000E100E0002808DB4309044900F01F0081
:103BD00001226033824041F82320704700E100E079
:103BE00070B504460568FFF795FE844202D10020B7
:103BF000FFF784FE95F936603046FFF7E3FF002EAD
:103C00000CDB7309194906F01F0620330122B2406C
:103C100041F82320BFF34F8FBFF36F8F95F93760C3
:103C20003046FFF7CFFF002E0CDB73090F4906F07B
:103C30001F0620330122B24041F82320BFF34F8FEB
:103C4000BFF36F8F287AFDF721FA287AFDF782F902
:103C5000FDF75EF90023C4E90033C4E90433A3602F
:103C60002846AB6ABDE87040184700BF00E100E09D
:103C70002DE9F0430C461546064687B04022002148
:103C800020461F462BF05BFA002395E803002A69C3
:103C90002376EB68E360C4E904232A7D84F82C20B2
:103CA000AA7D2363012384F8343084F835300E9BD9
:103CB000236284E803000F9B6362109B84F82D202D
:103CC000E761A3622B7A84F836306B7A84F8373058
:103CD0002D4B73602D4BB3602D4B33612D4B3460F6
:103CE00073612D4BF360FDF75BF938B12B4B9842B4
:103CF00004D01024204607B0BDE8F083002104F171
:103D00000800FDF7D5F807460028F2D1244B3362AE
:103D10004FF00108234B84F83C80B361224BF361E0
:103D20009DF8483084F83B309DF8443084F83A30B0
:103D3000697D84F8390084F83880204628F035FF02
:103D400095F909904846FFF73DFF4846FFF72CFFDD
:103D5000164B0494CDE902732369CDE900836368AF
:103D6000E2682168207A28F049FA04460028C0D188
:103D700095F908502846FFF725FF2846FFF714FF5E
:103D80003046FFF7BBFDB5E7FBCB0200353A00003C
:103D900077CB02007DCB0200E13B0000038000F006
:103DA00051CB0200ABCB020083CB0200D139000023
:103DB0002DE9F04186B01C46524B0C9D0293524BAC
:103DC00001930126514B0093CDE90366504B904679
:103DD0000A462946FFF74CFF0746002856D12368BC
:103DE0002B6463686B64637A85F84930237A85F8BD
:103DF0004830E37A85F84B30A37A85F84A30637B04
:103E000085F84D30237B85F84C30E37B85F84F30C7
:103E1000A37B85F84E303F483146FDF7BDFA3E485A
:103E20003146FDF7B9FA617A207A33460422FEF76B
:103E30008DFB33460222E17AA07AFEF787FB6068A9
:103E40003146FDF7A9FA88F800704146206828F04D
:103E50006DFB2268536F43F003035367936F617CDC
:103E600023F4F85323F01F0343EA0123A17C0B43FF
:103E700093670323536785F8507098F81920202A18
:103E800028D007D8E2B1102A38D02327384606B008
:103E9000BDE8F081302AF8D185F8503002220023A5
:103EA000617B207BFEF752FB2368E27CDA675A6E67
:103EB00042F004025A665A6F42F010025A6766B91D
:103EC0002A6C2068D36C43F00403D364052128F0E6
:103ED00026FBDBE7022385F85030E17BA07B002343
:103EE0000422FEF733FB2368217DDA6F42EA0122C8
:103EF000DA675A6F42F020025A67E1E733463E46DE
:103F0000CAE700BF27CD02001BCD0200B3CD0200DF
:103F1000A7CD02004041050000350A0010B51C463F
:103F2000044B18682AF053FF002820600CBF1B20A8
:103F3000002010BDEC10002013B5064C2378009330
:103F4000112328F0C8FD10B923780133237002B083
:103F500010BD00BFD168002010B5FFF723FD0F4C46
:103F600020602AF042FF20220D490E48012305F06F
:103F70005DFB0D4B18600D4B636020460C4BA3603E
:103F8000FFF7BCFC28F08AF901210446084601F03D
:103F90003DFE204628F086F9002010BDD82E0020D6
:103FA000D2680020C8520300EC100020393F000006
:103FB0001D3F00001A2812D8102814D9A0F11102B0
:103FC000D2B240F28523D340DB070CD5064B012249
:103FD0001A70064B80F0200018707D2003E0A0F1DD
:103FE0007D03012BF2D97047F9680020F8680020A2
:103FF000F8B5214B0E46144600B3204A20491070F4
:1040000000221A701F4B22700A704FF6FF721A803E
:104010001B4D2B78EBB91B4F3046398828F083FFB6
:10402000164A38801378013BDBB213706BB9012359
:104030002B703046BDE8F840FFF7BCBF1A78002A65
:10404000E6D01870104B1878F8BD23780133237030
:10405000EFE7012B05D102232B700A4B1888000AC9
:10406000E8E7022B04D103232B70064B1878E1E715
:10407000FF2323707E20E7E7F9680020F668002020
:10408000F7680020785C0020F86800202DE9F047F0
:10409000394E3378884617465BB9384A1370384A28
:1040A0001370384A1370384A1370384B4FF6FF724A
:1040B0001A807D2850D02DD8182851D01A2852D0D7
:1040C000314B2E4D1A78DFF8BC9080EA02040022B2
:1040D0001A702B78CD2B9CBF01332B702B78022BC1
:1040E00012D9DFF8A8A099F80000BAF8001028F05B
:1040F0001AFF2B78AAF80000CD2B9FBF99F800205B
:1041000088F80020023B3B701D4B1A7889F800208C
:104110001C7006E07E28D3D1184B1B781BB91A4AB5
:104120001370202011E0FF2B1FD0184A1188154A68
:104130001078134A127802EB0022914217D1022B19
:1041400017D9CE2B34BF00207A20A0F12002534291
:1041500053413370BDE8F0870B4B20221A70E0E723
:10416000064BFF22FAE77420EFE77720EDE7762091
:10417000EBE77920E9E700BFFA680020F568002046
:10418000F3680020F2680020F4680020765C0020CC
:1041900008B528F079FE044A4FF6FF73002818BFCF
:1041A0000346138008BD00BF7C5C002010B5074C9F
:1041B000208850B128F068FE2388C01A044B1B8861
:1041C00000B29842B4BF0020012010BD7C5C0020EA
:1041D0007A5C00204FF07E622DE9F041B2F84C701D
:1041E000B2F84A60164DDFF85C802C884FF6FF73FA
:1041F0009F4208BF4FF448679E4208BF4FF4C876FD
:1042000050B164002C802B88BB4215D92F8000232D
:10421000A8F80030BDE8F081B8F80030002BF2D0EB
:1042200028F032FEB8F80030C01AC4EBC40480B2E3
:1042300004EB8004E408E5E7B34238BF2E80E6E7EC
:104240007A5C00207C5C002008B528F01DFE4FF051
:104250007E634FF6FF72B3F85A30934208BF4FF4B3
:104260007A730344C3F3071213F47F6F024B08BF42
:10427000FF221A7008BD00BFFB68002010B5084C73
:10428000237843B128F000FE2378C3EB10131B06FC
:104290005CBF002323702078B0FA80F0400910BD85
:1042A000FB68002007B502F01DF96A4602F080F9AC
:1042B00018B10448522100F071FBDDE9000103B0A0
:1042C0005DF804FBDE52030008B502F03FF818B1B8
:1042D00002487A2100F062FB002008BDDE52030094
:1042E00008B500F089FA0E4A536A43F4E02353629A
:1042F000EFF308830B4A043B4FF0CD3193420BD2CE
:10430000094B01221A6100F0E1FCFFF7DDFFBDE877
:1043100008400648FEF74EBC43F80419EEE700BF1C
:1043200000ED00E00000002000300E40EC670300CC
:1043300007B504220DEB020100202BF0D0FB04286E
:1043400004D0054840F2671100F028FB019800F006
:104350006BFC03B05DF804FBDE520300102870B55F
:10436000034635D020D8032815D9002070BD03227C
:1043700002231A491A4D0C680021C8B28442F4D9AC
:1043800055F8200028B1067A9E4202D1467A96421C
:10439000ECD00131F1E7421E022A19D8DFE802F021
:1043A000021B16000022E3E7A0F12002032ADCD85A
:1043B000213B022BF6D801A252F823F0C94300009A
:1043C000CD4300006F4300000122D1E70222CFE776
:1043D00000220323CDE70122CBE700BFBC67030027
:1043E0001011002010B5FFF7B9FF044630B1037A71
:1043F000022B03D103680BB11B6823B9074840F2B5
:10440000332100F0CBFA23681B681B6C186900F499
:104410004830A0F500535842584110BDDE52030009
:1044200010B50A0A41400748C9B2082301F0010447
:10443000490804B14140013B13F0FF03F6D181EA82
:10444000020010BD2083B8ED2DE9F843134C144E43
:10445000DFF85480134FDFF85490002523780BB910
:10446000BDE8F88356F8043B22464146002028F078
:104470001EFB227823460134002AFAD15B7853B11F
:1044800005F00303032B0CBF39464946002028F0F2
:104490000EFB0135E2E73946F8E700BF4A58030052
:1044A00000100020B35603002453030021530300DF
:1044B0006B4B1B8840F6052293422DE9F0410ED844
:1044C000B3F5206F0DD840F20252934218D040F25B
:1044D0000172934220D040F2015293420AD0BDE8CB
:1044E000F081A3F602235F4C032B1ED8DFE803F014
:1044F000376396B25C490020BDE8F04128F0D7BA96
:104500005A49002028F0D3FA564B1A6C5849BDE896
:10451000F041002028F0CBBA524A5649BDE8F0419C
:10452000D2E92423002028F0C2BA5349002028F001
:10453000BEFA94F868309E0703D55049002028F051
:10454000B6FA94F86B305D0603D54D49002028F08B
:10455000AEFA94F96B30002BC1DA4A49CBE74A49ED
:10456000002028F0A4FA94F86430980704D0226C54
:104570003F49002028F09BFA94F96430002B04DABC
:10458000226F4249002028F092FA414FDFF80C8157
:1045900000250126626E06FA05F3134207D057F88C
:1045A000252013781BB14146002028F080FA013500
:1045B000082DEFD193E73749002028F078FA2C49ED
:1045C000226C002028F073FA94F86530590703D55F
:1045D0003149002028F06BFA94F96530002B04DA99
:1045E000226F2A49002028F062FA294E2B4F082515
:1045F000636EEB40DA0707D556F8252013781BB118
:104600003946002028F053FA0135102DF0D194F8E6
:10461000640000287FF463AF21496DE721491C4EF7
:104620001E4F002028F043FA226C1149002028F088
:104630003EFA1025636EEB40DB0707D556F82520C0
:1046400013781BB13946002028F031FA01351A2DB4
:10465000F0D144E71449002028F029FA226C55E7EC
:104660007E5C0020001000202E5303006C530300DA
:104670009D530300B8530300D4530300ED530300CC
:10468000285403005C54030099540300BF540300F2
:10469000A45F0300E6540300FE540300DD5403004E
:1046A0004555030076550300905503002DE9F04F62
:1046B000424CD4E90D32D4E9121B580748BF0026FA
:1046C000D4F83CA05DBFD4F850803D4EDFF81C917B
:1046D000DFF81C915ABF8B469246B04613F0080F84
:1046E000384B394A394918BF1A46B6EB080718BF84
:1046F0007D0885B01BBF642303FB0B553D46B5FB0E
:10470000F7F54B4618BFADB2CDE9016ACDF8008090
:104710000020BFB228F0CBF9CDE900972C492B46F9
:104720001FFA8BF2002028F0C2F9B24501D8C24529
:1047300004D228494A46002028F0B9F9D4E91703E1
:10474000184338D02449254FDFF8A880002028F0EE
:10475000AEF900250126E26D06FA05F3134207D0F3
:1047600057F8252013781BB14146002028F09FF907
:104770000135202DEFD11A4FDFF878800025012672
:10478000226E06FA05F3134207D057F82520137856
:104790001BB14146002028F08AF90135122DEFD1D6
:1047A0001049002028F083F90E49002005B0BDE82B
:1047B000F04F28F07CB90C49F4E700BF001000204E
:1047C00000100020BF550300C6550300CE5503005E
:1047D000005603003A56030059560300DC5E0300FE
:1047E0005C5F0300B45603008D560300BA55030006
:1047F000B25503008956030010B5FEF7A5F804462C
:10480000FEF79CF8E30721D401221046114600FA76
:1048100001F3234002F101021AD0214B33F8113089
:104820002049062B19D040F20722934212D14FF0B3
:1048300000524FF20F00548884420BD110889842E6
:1048400008D14CF23C335380088010BD0021E4E7CE
:10485000112ADBD1134A138012E04FF000534FF2BC
:104860000F025888904218D11B88B3F5406F28BFBB
:104870004FF4C0630B804FF000534CF23C325A802F
:10488000084B1A8840F201739A4201BF064A074B4F
:10489000D2E90001C3E90001D7E74FF4C063E9E7BB
:1048A000285803007E5C002090100020E42E002099
:1048B000014B1888704700BF7E5C0020014B1888B0
:1048C000000A70477E5C0020164B1888020A10F020
:1048D000FF00134604D1012A23D143F08000704722
:1048E000072BFAD801A252F823F000BF11490000AB
:1048F000DB4800000D49000021490000214900006B
:1049000015490000194900001D49000009207047A1
:1049100018467047032070470B20704706207047E9
:10492000022070477E5C0020044B05481B881A0A51
:10493000B3F5406F38BF00EB820070477E5C00200B
:10494000F8570300044B1888044B020AC0B253F80E
:10495000223003EB800070477E5C0020C8570300C4
:1049600010B5044627F0A1FC4FF000534FF20F02A0
:104970001C805A80BFF35F8FBFF34F8F0549064BF2
:10498000CA6802F4E0621343CB60BFF34F8F00BFED
:10499000FDE700BF00ED00E00400FA0538B504466D
:1049A0000D462DF0E2F800F0CFF927F07EFC064925
:1049B0002B462246002028F07AF829462046BDE8FA
:1049C000384028F0BFBA00BFA35603006B4A6C4BB7
:1049D0002DE9F04155685D65516A996569496A4CF0
:1049E000D1F80002D865D1F804121966916A5966A7
:1049F000D16A9966116BD966516B1967D26B586B86
:104A00005A67D3E90E1210F0040F18BF11465F4A1F
:104A10001A6500209142D8645DD301F12000A042C4
:104A200059D888691864C5F30805CE695E64062DF7
:104A300055D1574DA84252D3564DA8424FD2058862
:104A40004DF6426085424AD11868C3F89000586814
:104A5000C3F8940040F20170A242154605D22E68B8
:104A6000B6F1CD3F02F10402F6D00022C3E91E22C6
:104A7000C3E92022C3E92222641BDFF814C1424D9E
:104A8000DFF810E19C648D422CD8D3E91EC7D3E92E
:104A90002065D3E922414FF0000E013AD2B2FF2A3D
:104AA0003BD1BEF1000F05D0C3E91EC7C3E92065A5
:104AB000C3E92241B3F85430C3F30803DA1E0F2AC6
:104AC00052D8DFE802F03458414451515151514E0F
:104AD0005151515151380021C3E910112B494FF464
:104AE0002060B9E755F8044D6445CCD37445CAD26B
:104AF000E607C8D5284F002657F8048FA045C2D036
:104B00000136062EF8D132B1013AD2B202F11E06B8
:104B100043F82640B7E70522F8E7E0464FF0010EDC
:104B2000BC4637462E4625460C464146B5E740F67C
:104B30000120BDE8F081194BDB6913F0020F40F250
:104B4000025318BF1846F4E740F60320F1E740F29D
:104B5000017240F60423B0F5206F14BF10461846CA
:104B6000E7E740F60520E4E7013B40F60722412B4A
:104B700098BF1046DDE740F60220DAE700ED00E0DE
:104B80000010002000E100E00010002000000020E4
:104B90000C0100004051030074100020002005406B
:104BA00000F00CB800F00AB800F008B800F006B841
:104BB00000F004B800F002B800F000B872B61EF0C1
:104BC000080F09D01EF0040F0DD0DFF850E0AEE85A
:104BD000FF1F6FF002000CE0DFF840E0AEE8FF1FBF
:104BE0006FF00E0005E0DFF834E0AEE8FF1F6FF075
:104BF00006006946EFF309828EE8070086460848FA
:104C0000084C854501D3A54501D384F30888FFF7F7
:104C1000DDFE84F30888FFF7A3FE000000100020EB
:104C2000400000200010002083B24BF6EF62002B02
:104C300008BF1346044A000C13804FF6CE2308BF6A
:104C40001846024B18807047F8150020F615002012
:104C50000B4BB3F900201888002AB8BF80F062001F
:104C600042001A80074AB2F9001013880029BCBF1D
:104C700083F4805383F00B03590011805840704730
:104C8000F8150020F615002008B501F07DFE60B192
:104C90000A4B0344072B0DD8072B0BD8DFE803F092
:104CA0000C060A080A0A0A04C12008BDC320FCE752
:104CB000C420FAE7C520F8E7C220F6E7FF1FFF0F80
:104CC000014BDA695A627047002005407FB51A48E7
:104CD0000121FCF761FB012211461046FCF736FE6C
:104CE00004210720FDF71AFE144B6A4603F108065B
:104CF000154618685968144603C40833B34222465F
:104D0000F7D118681B79206023710D4C0D238DF8A5
:104D100009302946032320468DF80A3027F055FC38
:104D2000084B04220221C3F8802161621A60A36A41
:104D30000B43A36204B070BD30253E001260030037
:104D40000020054000E100E0014827F032BC00BF30
:104D50000020054010B5094A137813F002040CD165
:104D60000749084809780078884206D00648048038
:104D7000064863F07D030170137010BDC9690020FF
:104D8000D0690020CE6900207C5C0020CD69002025
:104D9000054B064A19881288914202BF044A012134
:104DA000117000221A8070478A5C0020885C002005
:104DB000C769002007B503460091022203493D2040
:104DC0002BF080FD03B05DF804FB00BF26600300FC
:104DD00007B5064B06491B780093022281233D202C
:104DE0002BF070FD03B05DF804FB00BFD369002019
:104DF0002660030038B50C4D0C4C2A7823789A4273
:104E000000D138BD0A4800212DF049F9094B1B8813
:104E1000834202BF084B01221A702378013303F04A
:104E200007032370E9E700BFD0690020CB690020A9
:104E3000825C0020885C0020C7690020074B93F942
:104E40000030002B08DB064A137803F041014029AB
:104E500004BF43F005031370704700BFD3690020FF
:104E6000C969002007B5064A06492823CDE9003262
:104E70003D20702302222BF025FD03B05DF804FBDA
:104E80003E00E00F1F600300702807B5034604D101
:104E900003B05DF804EBFFF7E5BF074A0749127856
:104EA0000192074A127800923D2002222BF00AFD5F
:104EB00003B05DF804FB00BFC86900202560030053
:104EC000D369002008B50A4813F09CFB094813F089
:104ED00099FB094813F096FB084813F093FB084828
:104EE00013F090FBBDE80840064813F08BBB00BFF1
:104EF0008A5C0020865C0020845C0020825C0020AC
:104F0000885C0020805C002008B5CA22002104488B
:104F10002DF021F8034B1880034B01221A7008BDB5
:104F2000FD680020885C0020C769002030B585B08E
:104F3000FFF7EAFFFFF708FF4FF07E63234DB3F85A
:104F40005230234C4FF6FF72934208BF4FF47A73EE
:104F50002B8000232380FFF71BF9FFF727F9002898
:104F6000FBD04FF07E634FF6FF72B3F848309342A8
:104F700008BF4FF4C8632B8000232380FFF7A4FCF5
:104F8000431E144D144C2870DBB20A2B18D840F283
:104F9000035222FA03F3DB0712D50222C123CDE923
:104FA000003202900D4984233D202BF08BFCFF231F
:104FB0002B70D023237005B0BDE83040FFF752BFFF
:104FC000FFF750FFA023237005B030BD7A5C0020AE
:104FD0007C5C0020D1690020C969002024600300A6
:104FE00037B504460D4613F003FD022825D81C48AA
:104FF00040F21711FFF7D2FC1A4B197801F1400368
:10500000DBB2022B1FD901F0A003A02B04D00B06AA
:1050100019D57E20FFF7CEFE4FF07E63B3F8463001
:1050200013B1204627F0A8FFB5B10F480022214652
:1050300003B0BDE830402CF0C6BF204613F0D8FCCA
:10504000CA28D4D8D8E7CDE900148423074902221E
:105050003D202BF037FCDFE705482A462146E7E7ED
:105060002A600300D5690020865C00206860030088
:10507000845C00202DE9F84FFFF798F8A84C48B35E
:105080002378580626D599074CBFA64BA64BA74AAE
:105090001B7812789A4232D00120FFF79BF87320D8
:1050A000FFF7F2FEA24A13780133DBB213704FF020
:1050B0007E624FF6FF71B2F84E208A4208BF03228B
:1050C000934219DD9B4B512272201A70FFF7DCFED0
:1050D00020232370984D994E94F900202378002ABC
:1050E00018DA13F030030ED01A2027F064FF23786B
:1050F00003F07F032370EFE7FFF72CFEEAE7904B06
:1051000000221A80E6E72A78022AF0D18C4A2B7016
:105110001380E9E72A78012A00F0F2800DD9931E66
:10512000012BD9D83178FF2900F01E81002940F0E9
:10513000EF80844B19783246E8E09A0719D579490F
:105140007A4A794892F800C007780A78ACEB0200F6
:10515000BA1A02F0070200F00700904298BF81F8E7
:1051600000C00A78BA4204D123F002032370FFF78B
:1051700041FE237813F0300F1ED013F0200F714F33
:1051800015D0C2233B706B4B1878B87002237B702C
:10519000237823F03C032370032001232B70694BF9
:1051A00019783246FEF724FF27F005FF94E7C12364
:1051B0003B70FFF789FBE8E713F00C081FD0624F44
:1051C00013F0040F39785F4B0FD06039C9B28020DB
:1051D0001970FFF7EFFD237803F0F30323705B4BA7
:1051E0003A781A7001231846D8E781F080017E20B2
:1051F0001970FFF7DFFD237803F0F703EEE79B0755
:1052000032D5DFF820A1524B9AF800701B78DFF8F6
:1052100044B1FF1A27F051F8414681464D482CF021
:10522000CCFE07F007078046B7B9484627F04BF891
:10523000494B4046A3F8008013F0DAFB424B9AF842
:1052400000201B7843EA02133E4A43F00803013072
:105250001370C0B20323A1E7414658462CF003FF68
:10526000013F8046FFB2DFE7304B2F4F19783A7885
:10527000DFF8D4804FF07E634FF6FF70B3F8443010
:10528000834208BF05230B44013B521A5B1A02F00C
:10529000070203F007039A4228DC30482CF088FE0E
:1052A000E0B92E482CF084FE2C4B01462C480029F6
:1052B00008BF18462B4B002118602CF07EFE264BB1
:1052C000188013F095FB3A7898F8003043EA0213FF
:1052D0001C4A01301370C0B202235FE720482CF053
:1052E00067FE18B9FEF7CAFF0028DAD1174B1A7803
:1052F00098F800309A425DD0237843F00803F9E62D
:105300003378FF2B4CD00F49C95C3246002049E767
:10531000114B0139C9B2188813F06EFD01460AE736
:10532000C9690020CD690020CE690020D069002025
:10533000CA690020D1690020D2690020FC680020E1
:105340007C5C0020D5690020CC690020CF6900205A
:10535000CB690020825C0020805C0020865C0020FD
:10536000845C0020EC2E0020022A1CD1124A137803
:10537000013303F007031370104B002118682CF061
:105380008EFE0F4B0F48198800222CF01CFE0E4B8E
:105390001B880BB9FEF7FCFE0C4B1A780C4B1A70ED
:1053A00000232B7098E60B4A1378013303F00703B0
:1053B0001370ECE7BDE8F88FCE690020EC2E0020DA
:1053C000805C0020825C00207C5C0020CC69002096
:1053D000CF690020CD6900202DE9F04FA44F85B0A2
:1053E00080460023DFF8B892A8F8003099F8003022
:1053F00013B93B70FFF7CCFCDFF8A8A29D4E0DF16E
:105400000E0027F0DCFD272800F0A0819DF80E009B
:105410003D783A460DF10F01FEF738FE202804468C
:1054200030D070B1FFF7B4FC7A2804D8732878D84C
:10543000272C00F08B81904840F25511FFF7AEFA0F
:10544000D4E73B789D4205D0022B3FD88B4B9DF88B
:105450000F205A55DFF824923B7899F80010884CB9
:10546000C02940F08380012B40F0CB80FFF7B0FCD7
:10547000FFF7AEFC27F01DFDFFF78AFC23785806E6
:10548000AFD4BBE03B789D42B9D0022B04D87B4B14
:105490009DF80F205A55B2E7032B1FD0754B188883
:1054A000784B1B888342AAD113F0A2FADFF8C4B16B
:1054B000C5B2691CC9B258462CF09CFE9DF80F205D
:1054C000BBF80000294613F0ABFC20E0032B05D00D
:1054D0006C4B30881B888342BCD1E5E79AF80030DA
:1054E000684D83B133882B804FF0000B0121284693
:1054F0008AF800B02CF07EFE0123009329886248D0
:105500005A4613F037FC30882B888342CCD0202CAD
:105510003FF475AF7A2C8ED8732C02D8002C87D12B
:1055200098E7743C062C86D801A353F824F000BFFA
:105530004D550000375400005555000061550000DE
:105540003754000065550000695500007420FFF7CE
:105550009BFC4BE77620FFF797FCFFF76FFC45E7D6
:105560007720F8E77920F6E77A20F4E70E0607D4EB
:10557000032B46D92678730645D4FFF709FC3DE096
:1055800001F0E002802A23D1012B3AD17D20FFF7E0
:1055900011FCFFF7FDFB267871062FD50225DFF8F9
:1055A00008C13A4A99F800309CF80000117803F0DD
:1055B000070BABEB000E091A0EF0070E01F0070106
:1055C0008E4529D97820FFF75FFCFFF737FC08E705
:1055D000A02A0BD1012B14D17F20FFF7EBFBFFF7A3
:1055E000D7FB2678720609D50325D8E77B20FFF77D
:1055F0004BFCFFF7CDFB23785D06E6D42023237018
:10560000EFE67C20F3E7224B1B78B3EB111F01D0B0
:10561000FFF7BEFB0125C2E7A5F1020A83451FFA89
:105620008AFA0DD01B488CF800B00021017016F0EA
:1056300002004DD0184A1180184A12785A4535D1C7
:10564000BAF1010F39D9124999F800200B78C2F349
:10565000021098426FD10B4D2888002846D1262091
:10566000FFF7ECFBFFF710FC262005B0BDE8F08F3C
:10567000C8690020885C00202A600300D3690020EC
:10568000C96900208A5C0020D4690020CE6900200E
:10569000CC690020CA6900207C5C0020CD69002014
:1056A000FA680020C7690020D0690020FEF770FD6D
:1056B000BAF1010FC7D899F8003013F0080312D1DE
:1056C000234A1370032D7FF48CAEFFF743FB88E66B
:1056D000FEF780FD1F4A13785B4501D0FEF758FDA9
:1056E000FFF788FBE4E7FEF7AFFDEBE7160742BFE5
:1056F000227842F0080222702278013303F0070377
:105700000B7022F005024FF07E632270B3F8463032
:105710000BB127F031FC2B88019399F800300093EE
:105720003D2085230C4902222BF0CCF82B88A8F8C9
:105730000030002099E71207237802D543F00803D0
:105740005DE7DB073FF541AF75203CE727208CE79D
:10575000FB680020CE6900206860030008B5114B8B
:105760001B781BB1002000F0010008BD0E4B1A7819
:105770000E4B1B789A42F5D10FF0B0F80028F1D10A
:105780000B482CF015FC0028ECD00A482CF010FC3B
:105790000028E7D0084B1B78002BE3D10120FEF74F
:1057A00021FEE0E7FA680020CF690020CC690020E4
:1057B000845C0020865C0020D2690020F0B551B1E5
:1057C000002807DA2D23B0F1004F137000D04042BB
:1057D000012100E0002100250E4F2C4657F8046BF4
:1057E000002301E0801B6346864203F1010CF9D9D6
:1057F00013F0FF0300D125B14D1C30335354E9B2EF
:1058000001250134E4B2092CE8D130305054481C51
:10581000C0B2F0BD706003002DE9F04F002495B0D8
:1058200021468046164603A8442202949A4629F04F
:1058300086FCA146274602AC2546317859B9641B3F
:10584000E4B2224629460020C047002840F08F805D
:105850003819C0B28CE0252918D0B9F1000F19D140
:1058600004F8011B12AB9C42C0F0D380641BE4B26D
:10587000294622460020C0470146002877D13C44F3
:1058800048222846E7B229F05AFCC1E0B9F1000FDE
:1058900000D101363278622A47D021D8252A3ED05D
:1058A00004D8002ACBD04FF00009DBE7392A15D8FD
:1058B0002F2AF8D9717801F0DF01582940F0D880FB
:1058C000322A06F1010940F0C08020463AF8041B54
:1058D000042227F085FB04464E46E4E7582A15E0EB
:1058E000632A6BD0A2F1640C5FFA8CFCBCF1140F3C
:1058F000D9D8614B012101FA0CF010EA030940F0FC
:105900008A8010F4104060D1BCF1140FCBD1204636
:105910001AF8041B022227F063FB0446C3E7214662
:1059200001F8022B62700C46BDE7DAF800300193F3
:10593000DAF8043000934FF000090DF1480B009B9A
:10594000994502D10AF1080AADE7019B204613F8F8
:105950000910022227F044FB5845044612D3441B89
:10596000E4B2294622460020C047014618B1002073
:1059700015B0BDE8F08F4822284629F0E0FB3C44F2
:10598000E7B22C46009B5A1E4A4584BF202204F8E9
:10599000012B5C450FD3641BE4B22946224600204C
:1059A000C04701460028E2D14822284629F0C7FB1B
:1059B0003C44E7B22C4609F10109C0E7534653F8CD
:1059C000042B04F8012B9A466DE7641BE4B22246CF
:1059D000294648465AF804BBC0470028C7D13C4472
:1059E000482249462846E4B229F0A9FB5FFA89F328
:1059F0004F461BF8030009F101090028F6D1FFB258
:105A00003A465946C0470028B1D13C44E7B28146E6
:105A10002C46013611E76C2ADAF800000AF1040975
:105A20000FD17378752B01D0642B04D1B3F17501BC
:105A300018BF012101362246FFF7C0FECA460444C2
:105A400031E7752A08BF0021F5E7342A10D1564600
:105A5000042256F804AB20464FEA1A4127F0C0FA58
:105A60001FFA8AF1042227F0BBFAB246044633E754
:105A70004FF00109F6E600BF01010200054B1A785C
:105A80002AB95B78002B0CBF03200220704701204D
:105A9000704700BFE16900200329F8B598BF134B98
:105AA000054698BF5C5C0E4688BF0024032805D8D5
:105AB000DFE800F002080B0E44F002040C4B1F68F4
:105AC0004FB9F8BD44F00804F8E744F02004F5E7C6
:105AD00044F08004F2E77B681A68144203D05B68E4
