S02800004D474D323130504133324A49415F6E63702D756172742D73775F362E392E315F322E73333702
S3150000400080410020C1340300C1A20000C5A2000007
S31500004010A70A0A010042000004180FAC1069D60076
S31500004020000000000000000000000000000000008A
S31500004030000000002C8203000000000000000000C9
S315000040400000000000000000FFFFFFFFFFFFFFFF72
S31500004050FFFFFFFF00600F000000000000000000EF
S31500004060FFFFFFFFFFFFFFFF010000000000000051
S31500004070000000000000000000000000000000003A
S315000040800000000000000000DC650020DC65002068
S3150000409080410020ACB60300908103002038002048
S311000040A0F137002000E00F0000000000D7
S3150000420080410020C1340300C1A20000C5A2000005
S3150000421089AB0000C9A20000D1A20000BD34030092
S31500004220BD340300BD340300BD340300BD340300B8
S31500004230D5A20000BD340300BD340300BD34030025
S3150000424050A4000050A4000050A4000050A4000098
S3150000425050A40000955B0000DD69000050A400003A
S3150000426050A4000050A4000099590000B9C40000F1
S3150000427050A4000050A4000050A4000050A4000068
S3150000428050A4000050A4000050A40000BD34030058
S3150000429050A400001151000050A4000050A40000DA
S315000042A050A4000011520000E951000050A4000083
S315000042B050A4000050A4000050A400005148010082
S315000042C0F1470100ED470100513F01004D48010053
S315000042D0F547010015480100F9470100A92C010026
S315000042E08D48010050A4000050A40000ADA60000B7
S315000042F050A40000E1BA000050A40000BD34030041
S3150000430050A4000050A4000050A4000050A40000D7
S3150000431050A4000050A4000050A4000050A40000C7
S3150000432050A4000050A4000050A4000050A40000B7
S3090000433050A400008F
S31500004334F8B500BFF8BC08BC9E467047F8B500BF88
S31500004344F8BC08BC9E46704710B5054C237833B9B3
S31500004354044B13B1044800E000BF0123237010BDD1
S31500004364884900200000000050AF030008B5034B45
S315000043741BB10349034800E000BF08BD000000006C
S315000043848C49002050AF0300154B002B08BF134B7C
S315000043949D46A3F5803A00218B460F461348144ADE
S315000043A4121A33F0BEFE0F4B002B00D098470E4B6B
S315000043B4002B00D098470020002104000D000D4872
S315000043C4002802D00C4800E000BF33F053FE200062
S315000043D4290013F02BFA33F039FE00BF0000080061
S315000043E4804100200000000000000000D4480020A6
S315000043F4DC6500200000000000000000002307B573
S31500004404CDE90033012369464FF0FF308DF80230C1
S315000044140AF0F6FA003018BF012003B05DF804FB79
S3150000442400207047002814BF022000207047012096
S31500004434704701207047012814BF022000207047EE
S31500004444012070472DE9F74F07460D461446994655
S315000044544FF0010BDFF8708003F10C0A15B903B0B5
S31500004464BDE8F08F102D2E4628BF10264946154A62
S31500004474F3B251F8040B514542F8040BF9D10193F8
S315000044849AF8001010481170002288F80F4088F836
S315000044940E2088F800B026F011FC3A4601340B4889
S315000044A4019BE4B212F8011B10F801CF81EA0C015A
S315000044B402F8011CD11BC9B29942F3D3AD1BADB2AC
S315000044C41746CBE74D5D00204C5D00204B5D002078
S315000044D42DE9F04F85B002930F9B80460193034666
S315000044E41646BDF83890344A0D4600F10C0153F8CF
S315000044F4040B8B4242F8040BF9D11B784FF0020AE5
S31500004504137049232D4C237020464FEA1923A373B5
S3150000451484F80F90A34626F0D1FB5246237883EA0B
S315000045241623237063787340637000271EE0C2F17C
S315000045341001F31B89B29BB28B4228BF0B46294656
S31500004544501B03900398A1EB050C1FFA8CFC08186A
S315000045549C45C0B21AD31A44D2B21F44102A1D4431
S31500004564BFB203D1204626F0A9FB0022B742DED310
S3150000457412B1584626F0A2FBBAF1010F4FF0000221
S31500004584029D4E460BD04FF0010ACEE711F801CB3F
S315000045941BF800E08CEA0E0C0BF800C0D2E7074BC0
S315000045A401991B6801980B604346042105B0BDE8D8
S315000045B4F04FFFF747BF00BF4D5D00204C5D002064
S315000045C4F7B5099FBDF820400646CDE900471D46CC
S315000045D4FFF77EFF2CB13346012221462846FFF71A
S315000045E431FF002003B0F0BD2DE9F7431E46054612
S315000045F488469146BDF828700D4C03463946304628
S315000046040122FFF71FFF33464A4641462846CDE9B5
S315000046140074FFF75DFF042221460B9833F04EFD2C
S31500004624002814BF7E20002003B0BDE8F08300BF3D
S315000046340E5D002073B51C46044D8B181E59CDE93A
S3150000464400452E60FFF7D0FF02B070BDED5D00207F
S3150000465400207047012070470120704700207047F2
S3150000466401207047002070470020704701207047E2
S31500004674002070470120704770477047002814BF18
S31500004684022000207047002070470000032310B565
S315000046940F4C1022C4E904330E4B0F49E361002387
S315000046A4A16121660D49E01DC4E919120C49A362F2
S315000046B46362E3622367E3666367226233F043FD62
S315000046C40849204633F03FFD2023A37110BD00BFE7
S315000046D400600020EE5C002090810300DE5C002078
S315000046E4998103009D8103002DE9F84F1F4B16465F
S315000046F41A7881468A4698460AB9FFF7C7FF1827EB
S3150000470407FB09873D6FD7F86CB05D452BD9BC6EA6
S31500004714796E641BB44228BF344629445046224667
S3150000472433F0DBFCBB6E2544AB4208BF0025A24434
S31500004734361BABEB050B5E4528BF5E4656B1182308
S3150000474403FB0983596E32462944504633F0C5FCAF
S315000047543444354424B1182303FB0988C8F870503F
S315000047642046BDE8F88F0024E3E700BF0060002080
S31500004774F8B504460E46174602F0B9FD3A46054614
S3150000478431462046FFF7B0FF0446284602F0B5FD41
S315000047942046F8BD2DE9F843124D1E462B78814676
S315000047A4884617460BB9FFF771FF02F0A0FD0024F7
S315000047B44FF0180C69690CFB04535A6E2AB1013484
S315000047C4A142F8DC4FF0FF3407E0A142FADDC3E969
S315000047D418989F661A67DA665E6702F08EFD2046B1
S315000047E4BDE8F88300600020FFF750BF70B54FF0B6
S315000047F460441A4B00261A68194D42F001021A60E9
S31500004804DA680C2042F08072DA60164BC4F8B03FC6
S315000048140223C4F8006EC4F8806EC5F8F03002F0C6
S315000048246FFA114B00F5D52000F2FC40B0FBF3F013
S315000048340E4A0F4B01382861C4F8406E1A600D4BBE
S31500004844C4F8803E4FF48073C5F80433D4F8003EB0
S3150000485443F48073C4F8003E70BD00BFF0ED00E081
S31500004864000004E055CEACC5F8590D00FF03004026
S31500004874001000E00D00010010B501240F4B0020CC
S315000048841C6002F0D2FD234604220321002002F01C
S3150000489427FE204631F0C6FEFFF7A8FF31F0F8FEEA
S315000048A4074B1C70FFF7A0FF234640220549064824
S315000048B4FFF770FF054B1860C00F10BD44D40340CA
S315000048C42B5D0020A85D0020A48103004C47002036
S315000048D4024B1868003018BF01207047F0ED00E065
S315000048E4D123054A037013784170090A8170591C53
S315000048F4C370117004207047F55D00202DE9F74F51
S315000049040E788346042E0F4661D92EF0D7FEDFF8C3
S31500004914C48082464FF6FF710024C146751DEDB270
S31500004924D8F800305BB1A54209D901912EF0C6FE34
S31500004934A0EB0A0080B2B0F5FA7F019907D9281BCB
S3150000494418BF012004233B7003B0BDE8F08FB4B355
S31500004954012C37D0EA1E631C9442DBB21CD1CCB2C4
S315000049644FF06042D2F8800EC00713D51046D9F82E
S315000049740CC04CF0807CC9F80CC0D0F800CE4CF4C6
S31500004984807CC0F800CED0F820C0BCF1000FEED079
S3150000499482F820401C46C3E7AA1E944202D1C1F302
S315000049A40724DDE76A1E94420FD05C4414F8024CD7
S315000049B40193204605F018FC019B0146D0E75B24D1
S315000049C40123CDE734460223CAE75D24C8E7002065
S315000049D4B8E700BFF0ED00E000B5084B91B0402207
S315000049E469461868FFF7C4FE20B1C2B269461220B0
S315000049F409F03AFB11B05DF804FB00BF4C470020F8
S31500004A0470B5164685180AB9304470BD01F00F0317
S31500004A140A2B34BF30243724013A2344090905F804
S31500004A24013DD2B2EFE70000F0B5F9B100281CDA77
S31500004A342D23B0F1004F137000D04042012115E040
S31500004A44801B8642ECB205F10105F9D904B927B1F8
S31500004A5401274D1C30345454E9B20133092B09D1D2
S31500004A64303050540131C8B2F0BD002100231F4636
S31500004A74DFF808C05CF823600025E2E7B481030090
S31500004A842DE9F04F4FF0000B95B002AC81468A46F3
S31500004A9417461D465E46A0463B7863B902ABE41A48
S31500004AA4E4B2224619465046C847002840F093808F
S31500004AB43444E0B290E0252B13D0BBF1000F14D19F
S31500004AC42370013412AB9C426DD3A4EB0804E4B208
S31500004AD4224641465046C84700287CD12644F6B2B1
S31500004AE460E0BBF1000F00D101373B78632B00F087
S31500004AF492801BD8392B09D8302B80F09E80002B4E
S31500004B04CCD0252B51D04FF0000BDBE7582B00F00F
S31500004B148B80622BF7D14FF0000B2B6801936B68E7
S31500004B240093009B9B4543D10835ECE7702B1ED0C0
S31500004B3417D8642B01D06C2BE5D16C2B05F1040B33
S31500004B4428686CD17B78752B14BF0121002101D014
S31500004B54642B00D101372246FFF766FF04445D4605
S31500004B64D1E7752BE9D0782B5ED0732BCBD1A4EB90
S31500004B740804E4B2224602A9504605F1040B2D6846
S31500004B84C84740BB2644F6B2C4B22B5D0130002BA5
S31500004B94FAD1224629465046C847E0B95D468346BF
S31500004BA42644F6B24446013776E723700134AAE771
S31500004BB4019B204613F80B100222FFF721FF12ABCC
S31500004BC4984204460ED3A0EB0804E4B222464146BA
S31500004BD45046C84718B1002015B0BDE8F08F2644EA
S31500004BE44446F6B2009B013B5B4582BF20232370FB
S31500004BF4013412AB9C420BD3A4EB0804E4B2224664
S31500004C0441465046C8470028E5D126444446F6B2F4
S31500004C140BF1010B85E72B6804352370C6E7752B6A
S31500004C240CBF0021012196E7204602222978FFF7CE
S31500004C34E7FE05F1040B044691E77A7802F0DF02F9
S31500004C44582A19D1322B07F1010B09D10422204627
S31500004C5429882F1DFFF7D4FE3D4604465F4652E7DA
S31500004C64342B09D12F1D2D680422290C2046FFF769
S31500004C74C7FE0422A9B2EDE74FF0010B22E70000BC
S31500004C842DE9F04F9B46584B85B01B78064689465E
S31500004C941546109F9DF844A0DDF85080002B00F0C7
S31500004CA49280072A00F291800E9B002B00F08D80E3
S31500004CB40F9B002B00F08980129BB3F5006F00F365
S31500004CC48480012801D1002F7FD0484B03EB0513C4
S31500004CD41B7B002B7BD0464C10220021684633F008
S31500004CE420FA04EB45141022B9F1000F5CD14946B1
S31500004CF4204633F016FAA37843F01003A370E37842
S31500004D0443F03003E370BAF1000F03D1DBB243F092
S31500004D140303E37036496A01129B885A013B63F325
S31500004D240E100E9B01EB020C8852CCF808300F9B38
S31500004D349DF84C10CCF804309CF80330012E61F336
S31500004D448303CDF800B08CF8033042D113230CF161
S31500004D54100ECCF80C309CE80F008EE80F006FF0B4
S31500004D640301DCF81C20B9F1010F61F39F02CCF8B2
S31500004D741C20CCF8147004D10F9BCCF80470CCF82A
S31500004D841830002719492A018B1841F80280159A10
S31500004D9428465A609F605E732246694602F030FCDC
S31500004DA4384605B0BDE8F08F0021204633F0B9F946
S31500004DB41023A3700323E370BAF1000FAAD1DBB268
S31500004DC443F03003A5E70B48EBE70B48E9E70B484C
S31500004DD4E7E7B8F1000FD4D19CF8023068F3041366
S31500004DE48CF80230CDE700BF705D00205C4B0020DC
S31500004DF4D0520020028000F0018000F0078000F00D
S31500004E0438B5104B05461B78BBB1C0B102F06FFA3A
S31500004E1400230D4901EB0312147B3CB92B600123DB
S31500004E241460137302F069FA204638BD0133082B67
S31500004E34F0D102F062FA0548F7E70548F5E70548B8
S31500004E44F3E700BF705D00205C4B0020048000F097
S31500004E54028000F0018000F038B502F048FA002321
S31500004E6405460A4AD1180C7B5CB91033802BF9D15C
S31500004E7402F078FB064B28461C7002F03EFA2046E8
S31500004E8438BD284602F039FA0248F9E75C4B00209F
S31500004E94705D0020058000F00D4B10B51B780446AC
S31500004EA493B1072812D802F022FA0A4B03EB041333
S31500004EB41A7B2AB100241C7302F01FFA204610BD87
S31500004EC402F01BFA0448FAE70448F8E70448F6E750
S31500004ED4705D00205C4B0020068000F0028000F02C
S31500004EE4018000F0164B13B51868002301908DF865
S31500004EF4043002F0FCF9134B1C7824B102F0FDF9DE
S31500004F04114802B010BD01221A7002F0F6F90F4BD7
S31500004F141C731C7783F82C4083F83C4083F84C4080
S31500004F2483F85C4083F86C4083F87C4004230DEBE3
S31500004F3403008DF8073002F039FB2046E1E700BF95
S31500004F44D8810300705D0020038000F05C4B0020D4
S31500004F5410B588B00E9C009207940D9C02460694E8
S31500004F649DF8304005940B9C04949DF828400394C6
S31500004F740024CDE9013420460B462146FFF780FE86
S31500004F8408B010BD10B588B00E9C009207940D9C15
S31500004F94024606949DF8304005940B9C04949DF8B3
S31500004FA4284003940024CDE9013420460B46012110
S31500004FB4FFF766FE08B010BD08B50A4B1B785BB157
S31500004FC407280BD8084B03EB00131B7B43B10021C6
S31500004FD402F0DCFA002008BD0448FCE70448FAE7BE
S31500004FE40448F8E7705D00205C4B0020028000F066
S31500004FF4018000F0078000F008B50A4B1B785BB10E
S3150000500407280BD8084B03EB00131B7B43B1012184
S3150000501402F0BCFA002008BD0448FCE70448FAE79D
S315000050240448F8E7705D00205C4B0020028000F025
S31500005034018000F0078000F008B50A4B1B7853B1D5
S3150000504407280AD8084B03EB00131B7B3BB102F07D
S3150000505427FB002008BD0548FCE70548FAE7054894
S31500005064F8E700BF705D00205C4B0020028000F072
S31500005074018000F0078000F00D4B1B7893B10728E0
S3150000508412D889B10B4B03EB00131B7B73B10A4B8C
S31500005094DA6A012303FA00F010401ABF00200B70ED
S315000050A408707047054870470548704705487047BB
S315000050B4705D00205C4B002000000440028000F07C
S315000050C4018000F0078000F00B4B10B51B780C46EE
S315000050D463B107280CD859B1084B03EB00131B7BAB
S315000050E443B102F0EFFA2060002010BD0448FCE74B
S315000050F40448FAE70448F8E7705D00205C4B00209A
S31500005104028000F0018000F0078000F02DE9F843EA
S31500005114174B1F6D5B6D1F4000D5FEE7012600256A
S31500005124144CDFF85480DFF85490374217D02368C4
S31500005134C8F800609BB1A16862680131A160284685
S315000051449847637B012B0AD148B909EB4513197BB0
S315000051541A7F60F3410160F3410219731A7701352E
S31500005164082D4FEA460604F11004DED1BDE8F883A3
S31500005174000004405C4B002050200440D052002024
S3150000518470B504460125084E04B970BD94FAA4F01E
S31500005194B0FA80F005FA00F324EA030456F8203046
S315000051A4002BF1D09847EFE70C5400204FF0007223
S315000051B4044BC3F880211A604FF08062C3F8802143
S315000051C41A60704700E100E038B504460D4602F067
S315000051D48EF8034B43F82450BDE8384002F08DB8EE
S315000051E40C540020084BD3F82404D3F82024104090
S315000051F442F2204220F42A5020F02A004004400CB7
S315000052049850FFF7BDBF00BF00C00340084BD3F85A
S315000052142404D3F82024104042F2204220F4AA4069
S3150000522420F055000004000C9850FFF7A9BF00BFFA
S3150000523400C00340104A30B5136841611546ABB946
S315000052441060836011E0091B9C6841611A467CB1B9
S3150000525423465C698C42F6D9002CF4D052B1906096
S31500005264836013B15A69511A596130BD0022F0E7BF
S315000052742346F4E72860F3E79057002010B500F0C2
S3150000528421FB094B094A196831B11368C41A4B69E1
S31500005294A34203D31B1B4B61106003E0C01A002317
S315000052A410604B6110BD00BF90570020AC54002025
S315000052B438B50F4D02202B685C690E4B1B681C44E5
S315000052C400F034FB204600F005FB00230A492A6857
S315000052D40B70D088800702D501230B7038BD926805
S315000052E4002AFBD050690344012BF2D9F6E700BF2C
S315000052F490570020AC540020945D002070B59DF8B2
S315000053041450164605710025049A8560BDF8185098
S315000053140446C5800260C0E903360D4629B96161B9
S315000053240BB11146984796B1354601F0E0FF0646A3
S31500005334FFF7A4FF29462046FFF77CFF054B1B68B1
S31500005344A34201D1FFF7B4FF304601F0D6FF002097
S3150000535470BD00BF9057002000210C4A13687BB132
S3150000536483420AD1836879B18B6083681BB15A6919
S3150000537441690A445A610020704719469B68EEE762
S315000053840028EFD0022070471360EEE79057002004
S3150000539470B501F0ACFF144E05463478FCB9134BD6
S315000053A41C60134B1C60134B1C8000F051FA012047
S315000053B400F0BCFA00F008FB0F4B0246186020B957
S315000053C4284601F09AFF232070BD23460B4840F27D
S315000053D4E73132F0B1FC0A4B1860012333702846DA
S315000053E401F08BFF0020EFE7765D00209057002048
S315000053F4AC540020865A00208C57002018FCFFFF6E
S31500005404B45400202DE9F0410546F8B101F06FFFD0
S315000054140F4F0646FFF732FF2846D7F80080FFF7FE
S315000054249BFF044628B1304601F067FF2046BDE8DD
S31500005434F081A8453B6803D123B1FFF739FFF2E7B2
S31500005444002BF0D1022000F07DFAECE72224EDE7F0
S3150000545490570020F0B50D4685B016461F46044603
S3150000546480B1FFF7CFFFBDF82C30002202939DF8E0
S3150000547428302946CDE9007320463346FFF73EFF20
S3150000548405B0F0BD2220FBE738B50C46054698B1B9
S3150000549491B100230B7001F02AFF0121074B1B6811
S315000054A40BB122781AB101F028FF002038BD9D42C5
S315000054B40CBF21709B68F3E72220F7E79057002082
S315000054C4F0B51F46002387B00D4616468DF81730F3
S315000054D40446A0B10DF11701FFF7D6FF9DF817207A
S315000054E47AB9BDF83430294602939DF83030204607
S315000054F4CDE900733346FFF701FF07B0F0BD222064
S31500005504FBE70320F9E70000F8B50C460646C8B1E8
S31500005514C1B101F0ECFE0546FFF7B0FE73692360E6
S31500005524134B1B68B3420FD023B9284601F0E5FE9E
S3150000553403201CE0596922689B680A442260F1E74B
S3150000554400230FE0222012E0276800F0BBF9094E81
S315000055543368C01A8742F3D900F0B4F93368C01A25
S3150000556423681B1A2846236001F0C7FE0020F8BDF5
S3150000557490570020AC540020F8B507460E4601F0BB
S31500005584B6FE00240546114B1B6823B9284601F0D4
S31500005594B4FE1B2015E05A691444DA88BA4213D1C2
S315000055A400F090F90A4F3B68C01AA0420AD200F0F4
S315000055B489F93B68C01A201A3060284601F09DFE1E
S315000055C40020F8BD0020F7E79B68DEE7905700202F
S315000055D4AC540020014B1878704700BF945D00203E
S315000055E438B501F084FE054600F06CF904462846F9
S315000055F401F083FE204638BD70B501F078FE0646FC
S3150000560400F060F9094B05461C880120A4B200F09D
S31500005614B1F918B100F056F905460134304601F0E7
S315000056246CFE0022214642EA050070BD865A00201F
S31500005634014B1868704700BF8C5700200A4B10B501
S315000056441B680C4683420CD3084B4FF47A721968D4
S315000056540023A0FB010132F06FFB01302060002023
S3150000566410BD2120FCE700BFB45400208C57002055
S31500005674104B10B51A684FF47A73A0FB0301A2B15C
S31500005684531E134211D1B2FA82F2C2F11F02C2F1C1
S315000056942004A2F1200301FA04F420FA02F22243C0
S315000056A421FA03F342EA030010BD002332F044FB5F
S315000056B4FAE700BF8C57002000000000F8B5164634
S315000056C41BA3D3E900238B4208BF82422AD3174B7C
S315000056D41A684FF47A73A0FB034503FB0155C2B164
S315000056E4531E13EA020014D1B2FA82F2C2F11F0267
S315000056F4C2F12007A2F1200124FA02F305FA07F702
S315000057043B4325FA01F10B4325FA02F2C6E90032BE
S31500005714F8BD00232046294632F00EFBC6E90001F7
S315000057240020F5E72120F3E7AFF300808C57002033
S31500005734EFA7C64B37894100C2072DE9F84F044647
S315000057440BD53F4A138801339BB21380FFF796FDAE
S315000057543C4B1B680BB1FFF7ABFDA3076DD500F0FF
S31500005764B1F8394F00263D688046451B01F0BFFD60
S31500005774B24683463246334B1C6814B16369AB4266
S3150000578414D9012E314B51D1D288022A4ED11E7022
S31500005794002C4ED06369C7F800805D1B6561FFF776
S315000057A487FD5846BDE8F84F01F0A7BD23462A46B3
S315000057B4C7F800805969914209D8187994F804C049
S315000057C4521A844588BF1C469B68002BF2D1584662
S315000057D401F093FDD4F814B0C4F814A001F087FDC9
S315000057E481462046FFF7B8FD484601F086FD236949
S315000057F44BB101F07CFD814621692046FFF71AFD75
S31500005804484601F07AFDE36813B1216820469847BB
S3150000581400F058F8D844A5EB08058146054401F084
S3150000582466FD013683462246C846A4E700221A705E
S31500005834AEE7022000F086F8B3E7BDE8F88F00BFB4
S31500005844865A002090570020AC540020FC5D0020AE
S315000058541FB50024184B18689A88029053F8060F4F
S31500005864ADF80C201B79009002A88DF804308DF851
S3150000587408408DF80C4001F0AFFF694601208DF811
S31500005884004001F06DFF4FF090431F219A6922F00A
S315000058941F029A61094A11609A6A12F00802FBD142
S315000058A41A62012001F076FF4FF48062044BC3F8BC
S315000058B480211A6004B010BDDC8103001420004866
S315000058C400E100E04FF090439A6A1207FCD4186A8C
S315000058D4704700004FF09042936A1907FCD4136A8C
S315000058E4116C5269120704D4CA1A022A01D89942C1
S315000058F40ED1C21A012A98BF981CB0F1FF3F28BFE7
S3150000590401304FF0904318649A6942F008029A6194
S31500005914054A13783BB14FF09041CB6B43F0020339
S31500005924CB630023137070477748002082074FF03B
S31500005934904200F00103916948BF43F008030B430A
S3150000594493617047830700F001020AD50121084BD1
S3150000595442F0080219704FF09041CB6B23F0030319
S31500005964CB634FF090418B6923EA02038B61704746
S31500005974774800204FF0904301285B6904D0022841
S3150000598405D1C3F3C000704703F00100704700203F
S315000059947047000010B501F0AAFC4FF0904304468E
S315000059A45B691A07074A03F0010003F00D0348BFB9
S315000059B440F002001360FFF7BFFE2046BDE810402A
S315000059C401F09BBC142000481C2001F099B900008A
S315000059D4002211462D48F0B503682D4D54592CB1BB
S315000059E41E68AC18002E3DD1234601210832282A10
S315000059F4F4D101B10360002214462649264E0B68F1
S31500005A0495592DB11F68B518002F32D12B460124A4
S31500005A140832282AF4D104B10B6000680368002B0D
S31500005A242FD04FF04022936F007923F0FF7323F4B5
S31500005A34803343EA00439367184B4FF000420968EA
S31500005A441A600B68FBB14FF04022936F097923F477
S31500005A54FF7323F001030B439367104B4FF080420F
S31500005A641A60F0BD1E792779B74284BF2346012107
S31500005A74BCE71F7995F804C0BC453CBF2B460124FE
S31500005A84C6E7074BD9E7064BE8E700BF8854002072
S31500005A9438570020B054002060570020685000405A
S31500005AA46860004010B5012228240F4B00211A70AB
S31500005AB40E48224632F035FB224600210C4832F0CD
S31500005AC430FB0C4B0C4A13600C4A13604FF04043F6
S31500005AD40B4A1360536020220A4BC3F880211A60D4
S31500005AE4FFF776FF002010BDDD5C0020385700204C
S31500005AF460570020E054002088540020B054002051
S31500005B046460004000E100E04FF04022D2F88800D3
S31500005B14D2F88830C0F38800C3F388039842F5D1DD
S31500005B246FF48873184440B2704700004FF0402267
S31500005B34936E526E10B5134013F0804211D0114B80
S31500005B441B681C682CB1002119605960FFF7DCFF43
S31500005B54A0474FF080420C4B1A60BDE81040FFF797
S31500005B6437BF002BF9DA094B1B681C682CB11A6085
S31500005B745A60FFF7C9FF0121A047034B4FF00042CB
S31500005B84EAE700BFB0540020646000408854002057
S31500005B94FFF7CCBF042203685A619A699207FCD5C1
S31500005BA441F2AC52102103795B0103F1804303F502
S31500005BB4703399507047012203685A619A69D20773
S31500005BC4FCD541F2AC52042103795B0103F1804315
S31500005BD403F570339950704738B141B1013AB2F5C3
S31500005BE4006F044838BF00207047034870470148D7
S31500005BF4704700BF037000F0027000F038B5044629
S31500005C040D4601F074FBA28892B222B92A6001F013
S31500005C1474FB064838BD1422638802FB0343083329
S31500005C242B6001F06AFB0020F4E700BF0B7000F064
S31500005C3438B504460D4601F05AFBA3889BB223B936
S31500005C442B6001F05AFB0C4838BD14226388E188A6
S31500005C5402FB034308332B6063885A1C92FBF1F35F
S31500005C6401FB13239BB26380A388013B9BB2A380F1
S31500005C7401F043FB0020E7E70B7000F0F8B504469B
S31500005C8417460D4601F033FBA388E28806469A427E
S31500005C9405D800233B6001F030FB1648F8BD1422FA
S31500005CA4238805F1100C02FB034308332A4603CA72
S31500005CB4624518605960154603F10803F6D1106869
S31500005CC4142218602388E18802FB034308333B60EF
S31500005CD4238830465A1C92FBF1F301FB13239BB233
S31500005CE42380A38801339BB2A38001F006FB002026
S31500005CF4D4E700BF0A7000F090F83130022B0BD1C4
S31500005D043022437F90F821005A43044B9B5823FAD0
S31500005D1400F000F0010070470020704714C00340F3
S31500005D24002313B51C4A52F8234094F821108142EB
S31500005D340ED00133042BF6D102B010BD0028FBD1DE
S31500005D449DF80730002BF7D0A068FFF735F9F3E785
S31500005D5494F83130022BEFD12046FFF7CDFF637E56
S31500005D642076022BE8D194F82E3003F0FF02002BA4
S31500005D74E2D102A901F8012DA068FFF77DF9237E7F
S31500005D841BB194F82F30002BD8D00023A06884F8D8
S31500005D942F30FFF731F9CFE79C57002038B504467A
S31500005DA401F0A5FA616B05460139616319B9044A24
S31500005DB4012004F08BFF2846BDE8384001F09DBA67
S31500005DC40482030038B5044601F091FA636B054674
S31500005DD423B90121054A084604F078FF636B284677
S31500005DE401336363BDE8384001F087BA04820300D7
S31500005DF4012230B590F8324087B080F82C207CB967
S31500005E04094D0368CDE9024504904C682433CDE975
S31500005E1400240A684169C068FFF7B4F807B030BDCA
S31500005E24002380F82C30F9E7896700000123F0B5D8
S31500005E3480F82D3090F8323089B004460E4663BBA4
S31500005E44056801F054FA0DF11F01074615483C3563
S31500005E54FFF71AFB40B99DF81F302BB11148FFF725
S31500005E64D1FA2046FFF79AFF3846012701F045FA92
S31500005E74204684F83870FFF7A5FF0B4B0494039370
S31500005E840023029373682A46CDE9007321693368B7
S31500005E94A068FFF75DF809B0F0BD002380F82D3047
S31500005EA4F9E700BFF8600020B15E0000F0B585B0E8
S31500005EB403A9906A1446FFF7A1FE0646206801F07E
S31500005EC479FE0546FFF7B4FB24214143B1FBF5F106
S31500005ED400252346CDE90055164A01311648FFF739
S31500005EE4EFFA164B9E421FD0039B1D619D6001F085
S31500005EF4FEF9039A0746D66826B1D2E90023294655
S31500005F042046B04703A9A06AFFF792FEA06A8388D9
S31500005F149BB263B103A9FFF771FE03992046FFF70D
S31500005F2485FF384601F0E9F9012005B0F0BD84F893
S31500005F342D30F6E7455F0000F86000200B7000F096
S31500005F4473B508680D46846914F0200407D0084622
S31500005F54FFF724FF022385F8383002B070BD01F044
S31500005F6429FE0646FFF764FB24225043B0FBF6F0F5
S31500005F74CDE90044411C2B46024A0348FFF7A0FA28
S31500005F84EBE700BF455F0000F86000202DE9F34110
S31500005F940D460446002800F0868001F0A8F9012D7C
S31500005FA4064637D1A36A9B889BB2002B39D0A068DA
S31500005FB4FFF742F80023A06A84F82D3083889BB249
S31500005FC4002B34D1226893699B04FCD5023D012D34
S31500005FD41BD8E068FFF730F80023606A84F82C3099
S31500005FE483889BB2002B41D194F83130032B0CD01B
S31500005FF442F2AC52042123795B0103F1804303F599
S3150000600470339950022223685A61304601F075F9BB
S31500006014002009E0022D48D1636A9B889BB2002BBD
S31500006024D4D101F06AF9264802B0BDE8F08101A98D
S31500006034FFF7E4FD0199A0680831FFF745F8214F01
S31500006044019B1F61A06A83889BB2002BBAD001A969
S31500006054FFF7EEFD019BD3F80C80B8F1000FF1D0E9
S315000060649B68002239462046C047EBE76946FFF79E
S31500006074C5FD0099E0680831FFF726F8114F009B2B
S315000060841F61606A83889BB2002BADD06946FFF717
S31500006094CFFD009BDD68002DF3D09B6800223946B6
S315000060A42046A847EDE70848BEE7032D8ED1A36A2C
S315000060B49B889BB2002B7FF47AAF636A73E700BFB9
S315000060C4087000F0097000F0027000F00368986927
S315000060D47047436A9888C0B270472DE9F3419846E1
S315000060E400230546406A0E4684881746A4B2CDE9C5
S315000060F400333CB16946FFF781FD01A90446E8680F
S31500006104FEF7E2FF009969B164B94868019BC01AB9
S315000061143860C8F800300B6833602B68986902B0A1
S31500006124BDE8F0810021C8F8001039603160F4E759
S31500006134836A9888C0B270472DE9F34198460023D4
S315000061440546806A0E4684881746A4B2CDE9003314
S315000061543CB16946FFF752FD01A90446A868FEF75B
S31500006164B3FF009969B164B94868019BC01A3860E5
S31500006174C8F800300B6833602B68986902B0BDE834
S31500006184F0810021C8F8001039603160F4E7007E20
S3150000619470472DE9F04104460F461546FFF71CFDEE
S315000061A4064678BB152001F0C7F88046A26A938894
S315000061B49BB213B194F82E303BB323689B6913F05A
S315000061C4020802D12046FFF7E5FC012384F83030AB
S315000061D494F8323033B93D44AF4220681BD1836909
S315000061E49B06FCD5B8F1000F0CD142F2AC5210213B
S315000061F423795B0103F1804303F570339950082238
S3150000620423685A613046BDE8F081B8F1000FCED05C
S31500006214FEF77CFFCAE717F8011B01F09FFDDBE7D9
S3150000622410B5044680B190F82E302BB9FFF764FD03
S3150000623410B9A068FEF7C0FE002094F82E30013392
S31500006244DBB284F82E3010BD0048FCE7027000F083
S3150000625410B50446A0B190F82E309BB190F82E30BC
S31500006264012B05D1FFF748FD10B9A068FEF7C4FE5F
S31500006274002094F82E30013BDBB284F82E3010BD9A
S315000062840148FCE70148FAE7027000F0057000F0E7
S3150000629437B590F831500446022D1ED1012190F8ED
S315000062A42220457E837F01FA02F23020154925B962
S315000062B400FB031342F2100105E0012D07D100FB98
S315000062C4031341F210015A50002003B030BD247E5E
S315000062D400FB0313002CF4D1ECE7012DF4D1037E6B
S315000062E473B911238DF80730FFF79AFF2A460DF18B
S315000062F407012046FFF74DFF2046FFF7A9FFE3E716
S315000063041323EFE700C00340F0B504468BB0A24F59
S3150000631403AE0D460FCF0FC697E8070086E80700C1
S315000063241CB99E4C20460BB0F0BD0DB99C4CF9E748
S315000063343C220021204631F0F4FE9A499A4B0A7811
S315000063442AB9C3E90022C3E9022201220A70002203
S3150000635453F822108C420AD00132042AF8D10022C2
S3150000636453F82210002940F0D08043F822402B7DB8
S31500006374286884F831300023206084F832302B7B7F
S315000063842371012384F83830884B984240F0C28048
S31500006394212384F82330864B23614FF4802300267F
S315000063A46361D5E90723626216805680968084F875
S315000063B42C60A3621E805E809E806B6803A9059391
S315000063C4EB8984F82D60ADF81C302B8A84F82F6095
S315000063D4ADF81A30AB7C8DF80C608DF81830EB7C78
S315000063E48DF81E3005238DF8193001F039FC14217F
S315000063F42A7B704B287A03EB4217C7F8AC15A97AA7
S315000064042E3240EA014C03EB4213C3F804C06A7A05
S31500006414EB7A42EA034CC7F8BCC5E17784F820302E
S315000064246B7DE07622776377AB7D042284F8213096
S31500006434EB7DA3772B7E84F82230012301F050F8FC
S315000064440123022294F82010207F01F049F894F8E1
S315000064543130022B75D13346012294F82110607F26
S3150000646401F03EF83346042294F82210A07F01F08E
S3150000647437F8012394F82120607F1146CDE90033D3
S3150000648400F0D4FF00F033FF2E7D0746032E69D1BA
S3150000649441F2AC5202212B7B04205B0103F18043C1
S315000064A403F57033995041F25C0229688850297EBD
S315000064B4EA7D42EA014241F2B8515A50A97D6A7D09
S315000064C442EA014241F2B4515A504FF0FF3242F2CD
S315000064D448032868C2502B7D032B0CBF05210421D9
S315000064E401F078FB4FF440622B685A61FEF7FAFC20
S315000064F4002104F10800FEF783FC0146002842D07F
S315000065042D4C384600F0F9FE0CE70132042A7FF4DC
S3150000651427AF06E7294B984207D1222384F8233074
S31500006524274B23614FF4A02339E7264B98427FF487
S31500006534FDAE232384F82330234B23614FF4C02379
S315000065442DE7032B9ED1334694F82110607F012258
S3150000655400F0C6FF3346042294F82210A07F00F010
S31500006564BFFF8FE7022EB0D194F821001749FEF73A
S315000065742BFEFEF71BFE00236676A37623762046C3
S31500006584FFF786FEA1E704F10C00FEF739FC04468A
S315000065940028B6D0B4E700BFE8810300027000F01B
S315000065A4037000F0F35E00209C5700200080054035
S315000065B40200040000C003400E7000F000C0054055
S315000065C4020005000000064002000600255D0000EA
S315000065D490F83130032B05D00229417618BF017695
S315000065E4FFF756BE00487047057000F030B5044604
S315000065F485B0002800F08F80484B1B7843B10023F8
S31500006604474A52F823108C4270D1002142F82310D5
S3150000661403212046FFF7BAFC00212046FFF7D8FFE6
S315000066240023E17F1A46E07E00F05AFF002394F827
S3150000663420101A46207F00F053FF94F83130022BC5
S3150000664458D1002394F821101A46607F00F048FFC1
S31500006654002394F822101A46A07F00F041FF00217F
S31500006664012394F82120607FCDE90031114600F022
S31500006674DDFE94F8323013B90A2223685A6194F87D
S315000066843130022B04D1002194F82100FEF79CFD41
S31500006694A068FEF701FCE068FEF7FEFBFEF7DCFBF4
S315000066A40023626A138053809380A26A1380538006
S315000066B4938000F01CFE0DF10F0105461948FEF704
S315000066C4E3FE28B99DF80F3013B11648FEF79AFE7B
S315000066D4284600F012FE636B002B04DD01232046DE
S315000066E46363FFF75BFB002005B030BD0133042B69
S315000066F487D18DE7032BBCD1002394F821101A46C9
S31500006704607F00F0EDFE002394F822101A46A07F65
S3150000671400F0E6FEADE70448E6E700BFF35E0020BE
S315000067249C570020F8600020027000F0F0B587B096
S3150000673404461646FFF750FA0546E8B90493104B8B
S31500006744CDE901166A4601A9606A03960593FFF727
S3150000675495FA054680B994F82C306BB92046FFF7B4
S315000067642AFA0099FFF744FB94F83130032B03D03F
S3150000677425762046FFF78CFD284607B0F0BD00BFFE
S31500006784017000F073B5506A01A91446FFF736FA92
S315000067942F4B984230D094F83200019B002839D10F
S315000067A42268916C11F4007129D02A499860196104
S315000067B442F248034FF40071D15000F098FD01995C
S315000067C40646CD6835B14A688B682046D31A0A68EE
S315000067D40969A84701A9606AFFF72AFA606A8588E9
S315000067E4ADB2DDB101A9FFF709FA01992046FFF719
S315000067F4FFFA304600F081FD012002B070BD906CB6
S31500006804C00507D51448996018614FF4807142F2A7
S315000068144803D1E700221A619A60CEE70123204695
S315000068242376FFF735FD94F8313084F82C50032B8A
S31500006834DFD042F2AC52042123795B0103F1804399
S3150000684403F570339950022223685A61D1E700BFD9
S315000068540B7000F00D7000F00C7000F090F8312011
S3150000686410B5012A034610D102290ED0827E8A422F
S3150000687401D1002010BD997611B9FFF7E9FCF8E7BC
S315000068840129F6D1FFF7CCFCF3E70148F2E700BF94
S31500006894057000F0F0B587B004461646FFF79CF97C
S315000068A4054638BB0493154B039605932368CDE937
S315000068B401169B699B0702D42046FFF76BF96A46CB
S315000068C401A9A06AFFF7DAF9054698B994F82D30BC
S315000068D483B900F00CFDA36A06469B889BB233B1CC
S315000068E400992046FFF7A2FA012384F83030304697
S315000068F400F003FD284607B0F0BD00BF017000F0AC
S3150000690470B588B00E22002104A831F00AFC0123D8
S315000069140D22002168468DF8103031F002FC022366
S31500006924244C6A46002120468DF8063001F078F89A
S31500006934236B4FF6FF73204EE36100233546ADF813
S31500006944123004A9204601F01EF8062000F0D8F9FA
S31500006954BDF812300133B0FBF3F09BB2B3F5806F90
S315000069643060ADF8123002D2144B9842E9D80F20A9
S3150000697400F0C6F91249134CB1FBF0F12868002562
S31500006984E1FB0045104A00232046294631F0D4F99C
S315000069940E4B084A186000200D4B1870936923F0BB
S315000069A41003936140220B4BC3F880211A6008B090
S315000069B470BD00BF008004400854002080841E007F
S315000069C400B0710B20A1070040420F00B85400200C
S315000069D4E95E002000E100E0054B5A69D20606D5BF
S315000069E442F21402102199500122024B1A70704788
S315000069F400800440E95E002038B5124B0546D3F802
S31500006A0420310C4603F00703013B032B17D8DFE8BC
S31500006A1403F0020A0E1201F015FA042305B12860E8
S31500006A2404B1237038BD01F043FA0323F6E701F0FD
S31500006A345BFA0523F2E701F053FA0223EEE700239B
S31500006A441846EBE70080004037B50C460021114B91
S31500006A540191D3F88031054603F00303022B0ED0CF
S31500006A64032B11D0012B03D101A8FFF7C5FF0D217C
S31500006A740DB1019B2B6004B1217003B030BD01F050
S31500006A8433FA05210190F3E701F02AFA0221019075
S31500006A94EEE700BF0080004038B5104B0546D3F83A
S31500006AA440310C4603F00303022B0BD0032B0DD00D
S31500006AB4012B0FD101F05CFA082305B1286004B15B
S31500006AC4237038BD01F05AFA0723F6E701F053FAAA
S31500006AD40923F2E700231846EFE700BF00800040D1
S31500006AE438B5104B0546D3F860310C4603F0030362
S31500006AF4022B0BD0032B0DD0012B0FD101F038FA4A
S31500006B04082305B1286004B1237038BD01F036FAB4
S31500006B140723F6E701F02FFA0923F2E700231846C4
S31500006B24EFE700BF0080004038B5134B0546D3F8A5
S31500006B3400320C4603F00703013B032B18D8DFE8A9
S31500006B4403F0020A0E1201F013FA082305B12860B5
S31500006B5404B1237038BD01F011FA0723F6E701F0FA
S31500006B640AFA0923F2E701F08DF90C23800AEDE70E
S31500006B7400231846EAE700BF0080004038B5134BEF
S31500006B840546D3F808320C4603F00703013B032BF2
S31500006B9418D8DFE803F0020A0E1201F0E9F9082317
S31500006BA405B1286004B1237038BD01F0E7F9072365
S31500006BB4F6E701F0E0F90923F2E701F063F90C23A3
S31500006BC4800AEDE700231846EAE700BF008000408C
S31500006BD438B5104B0546D3F840320C4603F0030390
S31500006BE4022B0BD0032B0DD0012B0FD101F0C0F9D2
S31500006BF4082305B1286004B1237038BD01F0BEF93D
S31500006C040723F6E701F0B7F90923F2E7002318464C
S31500006C14EFE700BF0080004038B5104B0546D3F8B7
S31500006C2400310C4603F00303022B0BD0032B0DD0CB
S31500006C34012B0FD101F03CF9032305B1286004B1FF
S31500006C44237038BD01F09AF90723F6E701F046F9F7
S31500006C540623F2E701230020EFE700BF008000408F
S31500006C6441F671320F4B10B5D969DA639A680E4C46
S31500006C7422F44012A04288BF42F480129A600B4A62
S31500006C840B4CD2F81832A04223F0020388BF43F01B
S31500006C94020301F48031C2F8183211B10022014B0B
S31500006CA4DA6310BD00000340C017530200C007405A
S31500006CB480F0FA0208B501F0F7F8BDE80840FFF7DE
S31500006CC4CFBF000002280CD007D8012814D10B4BE3
S31500006CD4186FC0F3013001307047032807D00F281E
S31500006CE4F4E7064BD3F89000C0F30460F3E7034BD4
S31500006CF4186FC0F38020EEE70020ECE70080004028
S31500006D04002307B50193252817D8DFE800F0131AE6
S31500006D141D262B353A3F44494E535866161A3F16DC
S31500006D2416441A262B26351A3F26663A3A3A3A2646
S31500006D342626494E01F08CF80190019803B05DF8BF
S31500006D4404FB01F09FF8F7E701F082F802460220FF
S31500006D54FFF7B8FFB2FBF0F0EEE701F093F8024656
S31500006D640320F5E701F08EF802460320FFF7AAFF99
S31500006D74B2FBF0F04008DFE7002101A8FFF764FE4C
S31500006D84DBE7002101A8FFF737FED6E7002101A8BB
S31500006D94FFF782FED1E7002101A8FFF7A1FECCE7A9
S31500006DA4002101A8FFF7C0FEC7E7002101A8FFF7ED
S31500006DB4E5FEC2E7002101A8FFF72EFFBDE7094B58
S31500006DC4D3F8803003F00303022BBAD0032B01D08F
S31500006DD40020B1E701F088F8AEE7002101A8FFF72B
S31500006DE4F7FEAAE70080004002280AD002D801284C
S31500006DF404D0704703280FD00F2815D1084600F099
S31500006E042BB80A4A0139D2F8903023F0F85343EAF2
S31500006E140161C2F890107047044A0139136F23F4D4
S31500006E24806343EA81211167704700BF00800040F8
S31500006E3402210320FFF7D8BF08B50120FFF760FF42
S31500006E44BDE80840034988428CBF02210121032082
S31500006E54FFF7CABF80F0FA0210B50446FFF72AFF0F
S31500006E64FFF7E6FF074A013C106F20F4405040EA62
S31500006E740430106701F006F8FFF7F2FEBDE8104093
S31500006E84FFF7DABF00800040002307B58DF807300E
S31500006E94252822D8DFE800F013212121212C3238BD
S31500006EA43E444A50566921213821213E212121217F
S31500006EB42C2138216932323232212121444A2E4B87
S31500006EC41B6F03F00703013B032B06D8DFE803F02F
S31500006ED40E020A0C04238DF807309DF8070003B050
S31500006EE45DF804FB0323F6E70623F4E70223F2E73F
S31500006EF40DF107010020FFF7A7FDEEE70DF10701ED
S31500006F040020FFF779FDE8E70DF107010020FFF700
S31500006F14C3FDE2E70DF107010020FFF7E1FDDCE721
S31500006F240DF107010020FFF7FFFDD6E70DF107017C
S31500006F340020FFF723FED0E70DF107010020FFF73D
S31500006F446BFECAE70C4BD3F8803003F00303022B25
S31500006F5403D0032B05D00023BDE700F093FF0B23DA
S31500006F64B9E700F0C1FF0523B5E70DF107010020DD
S31500006F74FFF72EFEB1E700BF0080004070B50C4657
S31500006F84252849D8DFE810F02600480048004800C4
S31500006F9448005C006D007E008F00A000B100C200B6
S31500006FA4D300E400480048007E00480048008F00F3
S31500006FB448004800480048005C0048007E0048003D
S31500006FC4E4006D006D006D006D0048004800480047
S31500006FD4A000B1008B1E042B2FD8DFE803F02B1E74
S31500006FE4032E280000250226FFF764FEFFF720FF84
S31500006FF4604A136F23F007033343136700F042FF1D
S31500007004FFF72EFEFFF718FF35B9032C04D142F221
S3150000701428030121584AD15070BD41F228020121AA
S31500007024554B03269D6A9950C5F34005DCE70025B8
S315000070340426D9E700250126D6E700252E46D3E700
S315000070448C1EE4B20B2C8CBF00214C4B494A98BFD2
S31500007054195DD2F8803123F003030B43C2F8803163
S31500007064DAE78C1EE4B2032C8CBF0021444B414A60
S3150000707498BF195DD2F8203123F007030B43C2F8F9
S315000070842031C9E7CC1FE4B2022C8CBF00213D4B52
S31500007094384A98BF195DD2F8403123F003030B43F5
S315000070A4C2F84031B8E7CC1FE4B2022C8CBF0021F1
S315000070B4354B304A98BF195DD2F8603123F003038B
S315000070C40B43C2F86031A7E7CC1FE4B2052C8CBF92
S315000070D400212E4B274A98BF195DD2F8003223F0BF
S315000070E407030B43C2F8003296E7CC1FE4B2052C23
S315000070F48CBF0021264B1F4A98BF195DD2F808326F
S3150000710423F007030B43C2F8083285E7CC1EE4B22A
S31500007114042C8CBF00211F4B164A98BF195DD2F868
S31500007124003123F003030B43C2F8003174E7052949
S315000071340CD00B290CBF022100210E4AD2F8803054
S3150000714423F003030B43C2F8803065E70321F4E719
S31500007154CC1FE4B2022C8CBF00210F4B054A98BF0A
S31500007164195DD2F8403223F003030B43C2F84032D0
S3150000717452E700BF0080004000C000400C820300BC
S31500007184188203001C8203001C8203001F82030072
S315000071941F820300258203001C82030070B5044687
S315000071A40020FFF771FE03287DD045F60E03434AFF
S315000071B40221C2F8803041F22803D15042F228035A
S315000071C40121D150916D11F48031FBD1637820787F
S315000071D41B0543EA0063A079657C0343E07843EA30
S315000071E40043207943EA0033607943EA801313614C
S315000071F49369E07A03F000430343E07943EA80634A
S31500007204207A43EA0063607A43EA0043A07A43EAB9
S3150000721400239361637B126A002B18BF0821207B2D
S3150000722422F00D0243EA020343EA800341EA030122
S31500007234A27B224B4FEA42161962207C34D1996A0A
S31500007244E27B21F0330141F00101314341EA0211AD
S31500007254996219461A4A9E6D32EA0606FBD141F234
S31500007264280202269E508B6D5B00FCD40B69A27823
S3150000727423F4700343EA02530B614FF0004241F2D8
S315000072841803CA5018B942F228030222CA5025B973
S3150000729442F228030121094AD150A37C1BB1074BB2
S315000072A4084AC3F8802070BD9A6A22F033022A4342
S315000072B4324342EA40029A62EFE700BF00C0004050
S315000072C403000140F1A7FFFF72B6704762B670472C
S315000072D4EFF3108072B6704700B962B67047302378
S315000072E483F311887047002383F311887047EFF303
S315000072F41180302383F31188704780F31188704717
S31500007304EFF31083DB0706D4EFF311802F2894BF25
S31500007314002001207047012070470000054A4109FA
S3150000732400F01F0352F82100D840C04300F00100CA
S31500007334704700BF00E100E010B50446EFF3108388
S31500007344DB0733D4FFF7EAFF00282ED1002CABBFAE
S3150000735404F16044164B04F5614404F00F04ACBF19
S3150000736494F800231A5D1209EFF3118313B1B2EBFB
S31500007374131F1BD20F4C6368C3F30803ABB1103B56
S31500007384DBB259B20029B5BF03F00F0301F1604324
S31500007394043B03F56143B6BF1B1993F80003187E3B
S315000073A40009824234BF0020012010BD0120FCE701
S315000073B414ED00E000ED00E0084A10B51369044638
S315000073C443F00403136103F043FE30BF03F054FE9D
S315000073D41CB9BDE8104000F055BD10BD00ED00E03D
S315000073E4FFF7EABF704770474FF040234AF6E8506C
S315000073F4DA6ED96E22F0030242F0020241F0030172
S315000074041866DA66D966DA66D966DA66D966DA6637
S31500007414D966DA66704770474FF04022D36E017919
S3150000742423F030030B43D36670477047072A2DE9D0
S31500007434F84305460C46174698461ED803264FEAD7
S315000074448209FFF745FF1F4B05FA09F51A6806FA84
S3150000745409F65540354055401D60FFF73DFFFFF7DF
S3150000746437FF194B04F003041A6804FA09F454406C
S31500007474344054401C60FFF72FFF144B144A9DF808
S315000074842010B8F1000F14BF98469046012202FA64
S3150000749407F7104A0433002908BF1346C8F80070DA
S315000074A41F6042F220430C4A9DF82410D7500B4B20
S315000074B402F510522432002908BF13461F60BDE8A6
S315000074C4F88300BF00C4034008C4034010D403403B
S315000074D410E4034014E4034000C0034024D40340F2
S315000074E4F0B54AB1012530241D4E8D4004FB0064DD
S315000074F40BB341F21006A55130244443072904F185
S31500007504804404F5703419D80F2765688E00B74097
S3150000751425EA070502FA06F63543656052B90122E3
S3150000752402FA01F130220E4C02FB0040A3B141F2F3
S315000075341003C150F0BD42F21006DCE70F2701F13B
S315000075448045083DE668AD00AF4026EA070602FA24
S3150000755405F53543E560E1E742F21003E9E700BFCC
S3150000756400C003404FF40012064BC3F88020BFF35B
S315000075744F8FBFF36F8F0022FF21034B5A65996229
S315000075845A60704700E100E000000440054B064ADB
S3150000759400290CBF19461146012303FA00F00860BE
S315000075A4704700BF401004404020044030B50478C2
S315000075B445788178C27801200F4B41EA05412406BB
S315000075C458609C609961FF2199620021996319644E
S315000075D44FF000414FF0FF30596542F250015850C8
S315000075E44FF4001005491301DBB2C1F8800181F89C
S315000075F41533086030BD00BF0000044000E100E020
S315000076042DE9F0410C4601264FF0300EC3B29E40E0
S31500007614204D23688F7A91F80B8094F80DC0097B6E
S3150000762445F82030A5F580450EFB00504FEA085377
S3150000763443EA074343EA4153C0F860C0C36542F2D4
S31500007644500322F003020267EE50FFF750FE6B6D03
S3150000765433436B65237A13B12B6C33432B64637A00
S3150000766413B1AB6B3343AB6342F218012379A279AE
S3150000767442EA0342084B5A506179E27942EA0142EE
S3150000768441F218015A50054A16609E64BDE8F0415D
S31500007694FFF733BE00400440000004403420044099
S315000076A410B50124C0B28440FFF721FE044B5A6D85
S315000076B422EA04025A659C62BDE81040FFF71DBE2B
S315000076C400000440F8B50125C3B29D400446FFF707
S315000076D40EFE3022094B02FB04341E6D5F6B646E92
S315000076E4FFF70BFE3D4206D1C4F30A1008B9354232
S315000076F400D10130F8BD0020FCE700BF00000440C3
S3150000770441F67132034B0121DA6342F20C029950BD
S31500007714704700BF0000034041F67132044B01215B
S31500007724DA6342F20C0299500022DA63704700BF12
S31500007734000003404FF40032014B1A60704700BF4B
S31500007744705000404FF04023D3F8940070474FF038
S3150000775490435A6812B19A6A002AFAD17047000017
S31500007764CB784A7810B55B010C7843EA82030A7930
S31500007774234343EA02130C22424302F19042136369
S31500007784012C02BF8A78024B43F8202010BD00BFAB
S31500007794D080034008B54FF090435A6802B960B1EF
S315000077A45B680BB1FFF7D3FF4FF0904130B1012076
S315000077B4074B1860FFF7CBFFC86008BDFFF7C7FF8C
S315000077C40223CB60FFF7C3FF0122024B1A60F4E7E2
S315000077D404100048042000484FF090435B6870B5DD
S315000077E40BB1FFF7B4FF0121104B067919608378BA
S315000077F44578002BC37814BF02240024002B14BF41
S31500007804042200224379DB0043EA06132B43234375
S3150000781413434FF090429360054B19600378002B95
S3150000782414BF0B460223D36070BD00BF042000487A
S31500007834041000484FF098435A6CD202FCD5586D98
S3150000784400F470207047436813B9416070475B6861
S315000078545A68012AFBD159607047836813B981605D
S3150000786470475B685A68012AFBD159607047C3693F
S31500007874032B9FBF00EB83020133D160C3617047C2
S31500007884C369042B15D84FF09842116CC902FCD574
S3150000789404339B0013650168103B116041680C308A
S315000078A4116050F8041C034411604FF0984298424A
S315000078B400D1704750F8041B1160F8E770B58CB01E
S315000078C4144605461C220E4605A8002130F029FC64
S315000078D40D4B01960493012301A9029304A844F0D5
S315000078E400530393FFF7AFFF294604A8FFF7BFFF32
S315000078F4214604A8FFF7BBFF04A8FFF7C1FFFFF763
S3150000790499FF0CB070BD00BF00000943054B5B69CD
S31500007914C3F38512827003F03F021B0B427003709F
S31500007924704700BF00C0074030B5114CA04216D0C6
S3150000793404F58044A04214D004F58044A04212D039
S3150000794404F58044A0420CBF03204FF0FF30094CDD
S31500007954062553B105FB001044F8202030BD002055
S31500007964F5E70120F3E70220F1E71202F2E700BF90
S31500007974008004401C810340036BDA0702D50369C7
S315000079845B06F9D4704710B50446FFF7F5FF0122EC
S3150000799442F23003C2500B7948881B0243EA804303
S315000079A4487A03434878002814BF40200020034344
S315000079B4887A002814BF802000200343C87A002850
S315000079C414BF202000200343087B002814BF102086
S315000079D400200343487B002814BF082000200343EB
S315000079E48879002814BF4FF4803000200343636075
S315000079F441F23003E2500A780AB90223E360002315
S31500007A04C87963620B7A497943EA8003002914BF73
S31500007A14102100210B43A3600AB10123E36010BDCA
S31500007A2470B515460646FFF7A7FF42F2300301225A
S31500007A34C250EA79EC7A002A6A7A14BF4FF48010AD
S31500007A440020002A14BF10220022AB7943EAC44363
S31500007A540343134306EB411423662B7A33B32B7B80
S31500007A64226E304642EA4342226613F1FF3318BFC0
S31500007A740123AA78FFF758FF41F230030122F2509E
S31500007A846B782A781B0643EA8263EA7843EA023370
S31500007A942A7943EA82236A7943EA0223AA7A002AE4
S31500007AA414BF042200221343636670BD236E23664B
S31500007AB4E2E700000D4B984208D1A3F50033C3F862
S31500007AC48411C36D43F08003C3657047084B984225
S31500007AD404D1A3F51033C3F89411F2E7054B984289
S31500007AE404BFA3F52033C3F8A411EAE700800540D8
S31500007AF400C005400000064070B5054616461C4603
S31500007B0419B90320FFF7FCF80146202C08D001D848
S31500007B14ECB170BD402C18D0602CFAD1042200E0E0
S31500007B24082206FB02F35A0802EB4112B2FBF3F2F7
S31500007B34084B203A03EAC202AB6823F06003AB6049
S31500007B44AB681C43AC60EA61E3E70622E9E710226E
S31500007B54E7E700BFF8FF7F00F8B5154F14460F405E
S31500007B641ABB202B07D0402B07D0002B0CBF1025A7
S31500007B744025012603E01D46FBE780250326002356
S31500007B8407F580777E431946324630F0D5F85443DC
S31500007B9400FB05F705FB0344A2FB05010023214472
S31500007BA4324630F0C9F83844F8BD80250024E0E7B1
S31500007BB4F8FF7F0070B5044685680320FFF7A0F838
S31500007BC4A36805F00102E16903F06003BDE87040B3
S31500007BD4FFF7C2BF012241F20403C250CB439340D4
S31500007BE403F00A034361416111B942F20403C2502E
S31500007BF47047000041F204030122C25040F6AA6312
S31500007C0441F20502436100238360C365C26042F208
S31500007C14480210490361C361C36481500E4A8365F7
S31500007C24904206D00D49884203D001F5804188422E
S31500007C340BD19042036506D0084B984203D003F556
S31500007C448043984201D10023436542F20403012292
S31500007C54C2507047FFFF01000080054000C0054088
S31500007C6438B50D460446FFF7C5FF41F20403012269
S31500007C74C250AB7C1BB1836843F080438360EB7CCA
S31500007C841BB1297D2046FFF715FF2A8A6B7B204608
S31500007C941343EA891343E360D5E901122B7BFFF70B
S31500007CA42BFF6B7D1BB1A36843F48033A360AB7DCC
S31500007CB4EA7D1B07120502F4E00203F0E043297E85
S31500007CC41343A3658B1E012B1E4A1F4B21D89442D6
S31500007CD41BD002F58042944219D002F580429442A8
S31500007CE40CBF02224FF0FF3203EB4213022041F293
S31500007CF4AC52032998500CBF41F25C0342F25C0378
S31500007D040422E2502B78636138BD0022ECE701229D
S31500007D14EAE7944211D00D4A944210D002F580420B
S31500007D2494420CBF02224FF0FF3203EB42130220AF
S31500007D3442F2AC5201299850DDE70022F5E7012210
S31500007D44F3E700BF0080054000C0034000C00540C3
S31500007D5483691B06FCD5406AC0B2704783695B061B
S31500007D64FCD5C16370474369002B07DB39B9436A05
S31500007D74DB07FCD442F204030122C250704741F2ED
S31500007D840403F9E7436810B5DA0704460AD5FFF792
S31500007D94AEFA636ADB075CBF0123E360BDE810400B
S31500007DA4FFF7ABBA10BDF8B5436805460C4633B1C8
S31500007DB46B6A002BFCD142F204030122EA50637879
S31500007DC4227A002BA37814BF4FF0100C4FF0000C4E
S31500007DD4002BE37814BF02270027002B237914BF56
S31500007DE404260026002B637A14BF08200020002BEB
S31500007DF414BF4FF480710021E379120742EA03624B
S31500007E04A37942EA034343EA0C033B433343034364
S31500007E140B43AB6021782846FFF7A5FF63790BB1C6
S31500007E2400232B62F8BD0000044B054A9A60D3F880
S31500007E34882042F47002C3F88820704700ED00E001
S31500007E4400420000014B1868704700BF50430020F1
S31500007E54084B1B6F03F00703022B04D0032B05D03A
S31500007E64012B05D0FEE7044B18687047034BFBE76C
S31500007E7403487047008000405043002054430020CC
S31500007E84002D310108B5FFF7E3FF054B1B6FC3F364
S31500007E9401330133B0FBF3F0024B186008BD00BF99
S31500007EA4008000404C4300200048704700B4C404DE
S31500007EB4014B1868704700BF54430020054B1860F7
S31500007EC4054B1B6F03F00703032B01D1FFF7DABF42
S31500007ED4704700BF544300200080004000207047D4
S31500007EE400487047002D3101174B9868C0F30440D1
S31500007EF40C2826D8DFE800F0092525252525071BAB
S31500007F041D251F212300114870479B6803F0407309
S31500007F14B3F1807F07D0B3F1007F06D00C4A002B63
S31500007F2408BF104670470B4870470B4870470B480C
S31500007F3470470B4870470B4870470B4870470B480F
S31500007F4470470020704700BF0040014A405DC600EC
S31500007F5400093D0080841E0040420F000024F40006
S31500007F64C0EA210180BA8C010048E801005A620285
S31500007F744FF4004070474FF47A707047014B18680D
S31500007F84704700BF5843002008B528231B689B6927
S31500007F94DB0205D5012803D840F202202BF046FB6C
S31500007FA4012008BD28231B689868C0F30343C0F367
S31500007FB403621B0243EA0233C0B21843704700004F
S31500007FC470B50438C6B0FB2801F25D87DFE810F00F
S31500007FD42C025B0F5B0F5B0F35025B0F5B0F5B0FB6
S31500007FE45B0F5B0F5B0F5B0FDD03CB035B0F5B0F5D
S31500007FF49D0A3B0446049403A3035B0F87045B0FAB
S315000080045B0F9F044401F1021B031C01AE035B0FCB
S315000080145B0F57085B0F5B0FFF013E02F20C620D0C
S31500008024110DFE0CDF0C3E0D8F0D5B0F5B0F4F0524
S315000080340A07A601F30588053906D206660607036C
S31500008044FC00B301E8015B0F1A0423065B055B0F12
S315000080545B0F5B0F5B0F5B0F5B0F5B0F53019701AE
S315000080647E015B0F5B0F5B0FD407B4065B0F5B0FE0
S315000080745B0F5B0F5B0F5B0F5B0F5B0FC107AA0404
S3150000808439075307BC04D10439051F055B0F0805DE
S3150000809490075B0F4909B30ACD0AC409DA098F09A7
S315000080A4150B440A5B0F280B990C0A0AF20A690B92
S315000080B45D0BAA0994094C0B5B0FBC0189038E0264
S315000080C45B0F5B0F7207F2045B0F5B0FC105010EBA
S315000080D49E0D200E380E140E2C0EC20DD80DAA0DB0
S315000080E4EB0DB60D5B0F5B0F5B0F5B0F5B0F5B0F4F
S315000080F45B0F5B0F9E065B0F5B0F630451045B0F04
S3150000810400015B0F5B0F440E5B0F7E0E400FBA0E31
S31500008114F00E120FA40E5B0F7A0B9C0B5B0F5B0F1A
S315000081245B0F5B0FA7076809D50E83097508CC0892
S31500008134300900095B0F5B0F5B0F29045C085B0FBA
S315000081446808C3081D08EF08160CC402DB02E60221
S315000081545B0F5B0FC80B5B0FFF0B260C5B0F5B0FF4
S315000081645B0F5B0F6F0A12097504B9025B0F3001CE
S31500008174F408350829088F08B208050811084108CB
S315000081844C08820C9E0CBA0CAE0C720C6D0C5B0F78
S315000081945B0F5B0F5B0F5B0F060F5B0F610E5B0FD5
S315000081A4230F340F910E62075B0F5B0F5B0FE30423
S315000081B48507D10CBE08C003540377033F03260387
S315000081C45B0F5E02F20753020124204646B070BDDF
S315000081D412AB01930AAB00930CAA24ABBB49012052
S315000081E411F028F8BDF848309DF828202499BDF8E8
S315000081F4300022F017FA46AA02F8EC0DB449002022
S3150000820411F018F80124E0E724AB0CAAB1490120C7
S3150000821411F010F824999DF8300004F03BFF46AAAB
S3150000822402F8D00DAA49002011F004F80124CCE785
S315000082340CAB24AAA849012010F0FCFF9DF83010CD
S31500008244249817F013FE46AA02F8D00DA049002080
S3150000825410F0F0FF0124B8E724A810F0C1FD24A80B
S315000082641AF032FE46AA02F8D00D9949002010F001
S31500008274E1FF0124A9E70CAA9549012010F0DAFFD1
S3150000828424A99DF8300004F003FF46AA02F8D00D95
S315000082948F49002010F0CEFF24A9082010F08AFD93
S315000082A49DF8980010F04EFDBDF89A0010F05AFDA6
S315000082B49DF89C0010F046FD9DF89D0010F042FDCF
S315000082C49DF89E0010F03EFD01247EE786230BAA4E
S315000082D47F4901208DF8483010F0ACFF24A99DF8A1
S315000082E42C0004F0DEFE46AA12AB02F8E80D7B4928
S315000082F40093002024AB10F09DFF012465E724A819
S3150000830422F01EFE46AA02F8D00D7149002010F094
S3150000831491FF24A810F057FF012456E724A822F061
S315000083240BFE46AA02F8D00D24AB6D49002010F0CE
S3150000833481FF012449E7012446AA02F8884D6449CD
S31500008344002010F077FF40E70CAA6149012010F0E5
S3150000835471FF24A99DF8300024F006FA46AA02F813
S31500008364D00D5B49002010F065FFBDF8900010F0B9
S31500008374F9FC9DF8920010F0E5FC9DF8930010F0CE
S31500008384E1FC9DF8940010F0DDFC9DF8950010F0DA
S31500008394D9FC0DF19601082010F00CFD012414E718
S315000083A4082246AB03F8EC2D4E4924AA012010F00E
S315000083B441FF12A924A824F063FE46AA02F8E80D98
S315000083C412AB4449002010F035FF0124FDE624A930
S315000083D412A804F025FE46AA02F8E80D12AB40499D
S315000083E4002010F027FF24A9082010F0E3FCBDF8B4
S315000083F4980010F0B7FC9DF89A0010F0A3FC9DF8C5
S315000084049B0010F09FFC9DF89C0010F09BFCBDF8AF
S315000084149E0010F0A7FC9DF8A00010F093FC29988C
S3150000842410F0B4FC0124D0E6012446AA02F8884DD3
S315000084342749002010F0FEFEC7E6002046AA02F8EF
S31500008444880D234910F0F6FE0124BEE6082312AC7B
S31500008454214624A88DF8303004F009FE46AA0CAB58
S3150000846402F8EC0D204901940093002024AB10F08F
S31500008474E1FE0124A9E617F098FE46AA02F8880D43
S315000084841349002010F0D6FE01249EE60CAA1049DA
S31500008494012010F0CFFE24A99DF8300017F00AFE43
S315000084A446AA02F8D00D0A49002010F0C3FE9DF832
S315000084B4900010F047FC9DF8910010F043FC9DF8E5
S315000084C4920010F03FFC01247FE600BF6C8203009B
S315000084D4BC820300718203008B8203002DA5030076
S315000084E4AB82030090A80300748203000CAABE4961
S315000084F4012010F09FFE24A99DF8300022F0E6FF2B
S3150000850446AA02F8D00DB849002010F093FEBDF833
S31500008514900010F027FCBDF8920010F023FC9DF8A3
S31500008524940010F00FFC9DF8950010F00BFC9DF8DC
S31500008534960010F007FC9DF8970010F003FC012448
S3150000854443E604F00FFD46AA02F8880DA64900206A
S3150000855410F070FE012438E612AC0BAAA2490120E1
S3150000856410F068FE224624A99DF82C0004F0FCFCB9
S3150000857446AA02F8E80D24AB00949C49002010F0AA
S3150000858459FE012421E604F0F3FC46AA02F8880DFC
S315000085949549002010F04EFE012416E604F0E6FC90
S315000085A446AA02F8880D9049002010F043FE0124E3
S315000085B40BE60CAA8C49012010F03CFE24A810F00E
S315000085C40FFC24A99DF830001AF046FD46AA02F8CD
S315000085D4D00D8549002010F02DFE0124F5E5012477
S315000085E40BAA8149012010F025FE0CAA12AB804982
S315000085F4012010F01FFE46AA02F8884D7A49002091
S3150000860410F018FEE1E51CF0EFF946AA02F8880D11
S315000086147549002010F00EFE0124D6E512AB009336
S315000086240BAA0CAB7349012010F004FE9DF84820F8
S315000086349DF830109DF82C0027F0E2F846AA02F8BF
S31500008644880D6949002010F0F5FD0124BDE512AB43
S315000086540CAA6949012010F0EDFD9DF948109DF81A
S31500008664300027F0CBF846AA02F8880D5E490020B0
S3150000867410F0E0FD0124A8E512AB02930CAB0193C4
S315000086840BAB00930DF126020AAB5C49012010F0F6
S31500008694D1FD9DF848409DF930309DF82C209DF879
S315000086A4281000949DF8260027F0A4F846AA02F89C
S315000086B4880D4D49002010F0BDFD012485E512AA60
S315000086C44949012010F0B6FD9DF8480027F094F8BA
S315000086D446AA02F8880D4449002010F0ABFD012497
S315000086E473E524F02FF846AA02F8880D3E490020C7
S315000086F410F0A0FD012468E524A810F0F1FB24A8DD
S315000087041AF012FD46AA02F8D00D3749002010F0DF
S3150000871491FD012459E517F075FC46AA02F8880D67
S315000087243149002010F086FD01244EE512AA2E4997
S31500008734012010F07FFD9DF8480019F003FF46AABA
S3150000874402F8880D2849002010F074FD01243CE548
S315000087540FF069F846AA02F8880D2349002010F0A4
S3150000876469FD012431E512AA1F49012010F062FDBA
S315000087749DF8480005F0BEF846AA02F8880D1A4985
S31500008784002010F057FD01241FE50AAB04930DF1F8
S315000087942603039309AB029324AB019312AB009314
S315000087A40DF122020CAB1649012010F043FD9DF891
S315000087B42840BDF8903002949DF82640BDF8482024
S315000087C401949DF82440BDF8301000949DF82200D1
S315000087D405F092F846AA02F8EC0D0349002010F0C1
S315000087E429FD0124F1E400BFBC8203007882030062
S315000087F47F82030086820300698503007C8203006E
S315000088048282030024A810F0EBFC24A822F096FB35
S3150000881446AA02F8D00DA949002010F00BFD012448
S31500008824D3E412AAA549012010F004FD9DF84800DE
S315000088341AF0F0F846AA02F8880DA049002010F0B4
S31500008844F9FC0124C1E424AA9D49012010F0F2FC9C
S315000088549C4BBDF8902001241A80B6E424AA9849BA
S31500008864012010F0E7FC984BBDF8902001241A80F3
S31500008874ABE412AA9149012010F0DCFC9DF84800F3
S315000088841AF094F846AA02F8880D8C49002010F0D4
S31500008894D1FC012499E412AA8C49012010F0CAFCE7
S315000088A49DF9480017F058FC46AA02F8880D83493A
S315000088B4002010F0BFFC012487E412AA7F4901209E
S315000088C410F0B8FC9DF8480004F04AFB46AA02F8EA
S315000088D4880D7A49002010F0ADFC012475E40CAB38
S315000088E400930BAA24AB7A49012010F0A3FC9DF84F
S315000088F4302024999DF82C0017F016FA46AA02F89F
S31500008904D00D6E49002010F095FC01245DE417F0AB
S315000089149FFA46AA02F8880D6849002010F08AFCDE
S31500008924012452E412AA6549012010F083FC9DF843
S31500008934480021F0FAF946AA02F8880D5F4900209A
S3150000894410F078FC012440E408230CAA5B490120BA
S315000089548DF8483010F06EFC24A99DF8300021F003
S31500008964D3FF12AB24AA5B49002010F063FC012458
S315000089742BE412AA5149012010F05CFC9DF8480032
S3150000898421F0DAFF46AA22F8880D4D49002010F09E
S3150000899451FC012419E424A81BF0E0F846AA02F8C5
S315000089A4D00D4649002010F045FC24A810F05FFACB
S315000089B401240AE4082246AB03F8E82D454924AA13
S315000089C4012010F037FC24A822F0B8F846AA02F8D1
S315000089D4D00D3A49002010F02DFC0124FFF7F5BB19
S315000089E40CAA3649012010F025FC24A99DF8300074
S315000089F404F0E4FA46AA02F8D00D3049002010F03B
S31500008A0419FC24A810F020FA0124FFF7DEBB082382
S31500008A1412AA2B4901208DF8303010F00BFC24A942
S31500008A24BDF8480017F0A0FD46AA0CAB02F8EC0D01
S31500008A3429490093002024AB10F0FCFB0124FFF726
S31500008A44C4BB082246AB03F8E82D224924AA012018
S31500008A5410F0F0FB24A817F055FD46AA22F8D00D15
S31500008A641749002010F0E6FB0124FFF7AEBB1FF008
S31500008A745DFE46AA02F8880D1049002010F0DAFBC4
S31500008A840124FFF7A2BB0CAB009324AA0BAB13493A
S31500008A94012010F0CFFB9DF830209DF82C10BDF876
S31500008AA4900004F07DF846AA02F8D00D0349002090
S31500008AB410F0C0FB0124FFF788BB00BFBC82030093
S31500008AC4768203003E4800204448002075A5030032
S31500008AD48A82030090A803002DA503008E8203005A
S31500008AE408AB0BAAB449009301200CAB10F0A2FB0F
S31500008AF424A810F091F909AB12AACDE90032029329
S31500008B040DF121020DF12203AC49012010F092FB74
S31500008B14129B0AAC03939DF824309DF820200293FF
S31500008B249DF82230BDF8301001939DF8213004944D
S31500008B340093BDF82C0024AB04F0ACF946AA02F865
S31500008B44F20D23469E49002010F074FB0124FFF722
S31500008B543CBB08238DF821308DF826300DF1220315
S31500008B6402930BAB01930DF1210324AC009308AAE5
S31500008B7412AB944901200AAE0CAD10F05BFB9DF8D4
S31500008B842230BDF82C20009412A99DF820000296EC
S31500008B94019504F0EFF946AA0DF1260302F8F40D47
S31500008BA488490093CDE901562346002010F042FB84
S31500008BB40124FFF70ABB0CAA8349012010F03AFBF3
S31500008BC424A810F029F90DF1260312AACDE90032E2
S31500008BD402930DF1220209AB7849012010F02AFB19
S31500008BE412990BAC01919DF826109DF824309DF83E
S31500008BF4222002940091BDF8300024A904F0D6F88E
S31500008C0446AA02F8F00D23466D49002010F012FB27
S31500008C140124FFF7DABA0CAB24AA6C49012010F040
S31500008C2409FB9DF83010BDF890001CF0B3FA46AA73
S31500008C3402F8D00D6649002010F0FCFA0124FFF773
S31500008C44C4BA24A810F0E8F80AAB12AACDE9013296
S31500008C5403930DF1260300930DF1220209AB5D493E
S31500008C64012010F0E7FA12980CAC01909DF8280048
S31500008C749DF826309DF824209DF822100294009039
S31500008C8424A804F09FF846AA02F8EC0D23464C49A2
S31500008C94002010F0CFFA0124FFF797BA24A810F0A9
S31500008CA4BBF80DF1260312AACDE90332059309ABED
S31500008CB402930DF1220301930CAB009308AA0DF164
S31500008CC421034549012010F0B5FA12980BAC039024
S31500008CD49DF82600BDF8303002909DF824009DF8DA
S31500008CE4212001909DF822009DF820100494009004
S31500008CF424A804F095F846AA02F8F00D2346304954
S31500008D04002010F097FA0124FFF75FBA0CAA00922C
S31500008D1424AB3249012010F08DFA24999DF83000D5
S31500008D2404F05BF846AA02F8D00D2949002010F099
S31500008D3481FA0124FFF749BA0CAB0AAA02930BABDA
S31500008D44CDE90023264924AB012010F073FA9DF8DF
S31500008D5430309DF82C2024999DF8280004F04AF818
S31500008D6446AA02F8D00D1A49002010F063FA01242D
S31500008D74FFF72BBA0CAA1449012010F05BFA24A8B9
S31500008D8410F04AF80AAA009212AB1449012010F016
S31500008D9451FA129B9DF8282024A9BDF8300004F04E
S31500008DA4B3F846AA02F8EC0D0949002010F042FA7D
S31500008DB40124FFF70ABA00BF928203009C820300D3
S31500008DC4AB82030096820300768203009882030036
S31500008DD4BC8203009B820300A182030032A5030028
S31500008DE4A98203000CAB0DF12202C749012010F041
S31500008DF421FA24A810F010F80DF1260312AA019303
S31500008E040092C24909AA012010F014FA129A0BAC76
S31500008E1401929DF826209DF82430BDF83010029466
S31500008E2400929DF8220024AA03F0B8FF46AA02F88D
S31500008E34F00D2346B649002010F0FCF90124FFF793
S31500008E44C4B908238DF830300CAB0BAA0093B14992
S31500008E5424AB012010F0EEF924A99DF82C0021F092
S31500008E6491FE46AA02F8D00DAB49002010F0E2F9B3
S31500008E740124FFF7AAB924AB12AAA349012010F0D2
S31500008E84D9F9BDF890109DF8480021F00BFD012496
S31500008E94FFF79BB924A81AF08DFE46AA02F8D00D56
S31500008EA49D49002010F0C6F924A80FF0E0FF012424
S31500008EB4FFF78BB9082246AB03F8E82D12AA0092F5
S31500008EC4964924AA012010F0B5F99DF8481024A863
S31500008ED421F09CFE0124FFF778B924AA90490120C9
S31500008EE410F0A8F924981DF0A1FC0124FFF76DB930
S31500008EF40CAA8949012010F09DF924A80FF0AEFFB1
S31500008F0424A99DF8300004F071F846AA02F8D00DA1
S31500008F148149002010F08EF90124FFF756B90BABF6
S31500008F2424AA019300927F4912AA012010F082F923
S31500008F34249A9DF82C10BDF848002AF09AFC46AAFB
S31500008F4402F8E80D7449002010F074F90124FFF7C3
S31500008F543CB912AA7049012010F06CF99DF848003A
S31500008F6404F09DF846AA42F8880D6D49002010F0D9
S31500008F7461F90124FFF729B908238DF8283012ABCB
S31500008F8401930AAB00930CAA24AB6749012010F0A5
S31500008F9451F9BDF8482024A9BDF8300004F07DF845
S31500008FA446AA02F8EC0D5C49002010F043F90124AE
S31500008FB4FFF70BB912AA5849012010F03BF99DF8A6
S31500008FC4480019F0D5FC46AA02F8880D524900203B
S31500008FD410F030F90124FFF7F8B82BF0B5FA46AAD9
S31500008FE442F8880D4E49002010F024F90124FFF7B9
S31500008FF4ECB82BF0AFFA46AA42F8880D484900208F
S3150000900410F018F90124FFF7E0B82BF074FA46AA19
S3150000901402F8880D4049002010F00CF90124FFF7EE
S31500009024D4B824AA4149012010F004F9BDF89000EF
S315000090342BF07EFA0124FFF7C8B824AA364901208A
S3150000904410F0F8F89DF890002AF0DCFD0124FFF7F3
S31500009054BCB824AA3249012010F0ECF824982BF06D
S315000090647FFA0124FFF7B1B824AA2D49012010F094
S31500009074E1F824982BF07AFA0124FFF7A6B82BF02E
S31500009084E7F90124FFF7A1B82AF0C9FE46AA02F8B7
S31500009094880D2149002010F0CDF80124FFF795B87A
S315000090A424A912A82BF018FA12A80FF04FFF24A82F
S315000090B40FF07DFF0124FFF788B824A80FF022FFE4
S315000090C40CAB0BAA1A49012010F0B4F89DF9302014
S315000090D49DF82C1024A805F065F846AA02F8D00DD0
S315000090E40D49002010F0A6F80124FFF76EB82AF007
S315000090F491FC46AA02F8880D0749002010F09AF858
S315000091040124FFF762B800BFC58203009D820300F5
S31500009114AB8203002DA50300BC820300BB820300BF
S3150000912472820300AE820300B282030076820300D9
S31500009134698503002AF0F6FD46AA02F8880DC1499E
S31500009144002010F077F80124FFF73FB82AF0DEFD7F
S315000091540124FFF73AB824A80FF011FF24A82BF036
S31500009164C4F90124FFF731B812A910200FF0DCFD71
S315000091740FF016FE24900FF0CFFD0DF195018DF83A
S31500009184940010200FF0D0FD0DF1A50110200FF072
S31500009194CBFD24A912A82AF0BEFC46AA02F8E80DC3
S315000091A4A849002010F046F80124FFF70EB82CF069
S315000091B486F90124FFF709B824AAA249012010F070
S315000091C439F89DF890002AF01DFE0124FEF7FDBF34
S315000091D424AA9D49012010F02DF824982AF0D4FDE4
S315000091E446AA02F8D00D9749002010F023F801246E
S315000091F4FEF7EBBF0FF0D4FD24900FF08DFD0DF1BB
S3150000920495018DF8940010200FF08EFD0DF1A50147
S3150000921410200FF089FD24A82AF078FC46AA02F84B
S31500009224D00D8849002010F005F80124FEF7CDBFC3
S315000092340CAB009324AA0BAB844901200FF0FAFF70
S315000092449DF830209DF92C1024982AF0E1FC46AABA
S3150000925402F8D00D7B4900200FF0ECFF0124FEF745
S31500009264B4BF082246AB03F8F02D0BAA0092784946
S3150000927412AA01200FF0DEFF24A910200FF054FDDE
S3150000928424AA9DF82C1012A80BF042FE46AA02F856
S31500009294E80D6C4900200FF0CDFF0124FEF795BFC1
S315000092A4082246AB03F8EC2D6A4912AA01200FF0F6
S315000092B4C1FF24A910200FF037FD24A912A82CF011
S315000092C4BBFF46AA02F8E80D5E4900200FF0B2FF84
S315000092D40124FEF77ABF0BF07FFE46AA02F8880D3A
S315000092E4584900200FF0A6FF0124FEF76EBF0CF0CC
S315000092F413F90124FEF769BF12AA524901200FF09F
S3150000930499FF00239DF848101A4601200BF08AFDA8
S3150000931446AA02F8880D4B4900200FF08BFF012462
S31500009324FEF753BF082246AB03F8EC2D0CAA0092B5
S31500009334474924AA01200FF07DFF9DF8301024A888
S315000093440BF06AFD46AA02F8D00D3E4900200FF044
S3150000935471FF0124FEF739BF24A826F09BFA46AA1A
S3150000936402F8D00D374900200FF064FFBDF89000D5
S315000093740FF0F8FC0DF1920108200FF01BFD0124FB
S31500009384FEF723BF0CAA2F4901200FF053FF24A98F
S315000093949DF8300027F03AFB46AA02F8D00D294979
S315000093A400200FF047FFBDF890000FF0DBFC9DF89E
S315000093B492000FF0C7FC0DF1930110200FF0FAFC98
S315000093C429980FF0E3FC2A980FF0E0FC9DF8AC0016
S315000093D40FF0B8FC0DF1AD0108200FF0EBFC0124F1
S315000093E4FEF7F3BE0CAA174901200FF023FF24A9A8
S315000093F49DF830000BF006FD46AA02F8D00D11497F
S3150000940400200FF017FFBDF890000FF0ABFC9DF89D
S3150000941492000FF097FC0DF1930110200FF0CAFC97
S3150000942429980FF0B3FC2A980FF0B0FC9DF8AC0015
S315000094340FF088FC0DF1AD0108200FF0BBFC0124F0
S31500009444FEF7C3BEBC82030072820300B682030029
S31500009454BB82030090A803000CAABB4901200FF0AD
S31500009464E9FE24A99DF830000CF02CF846AA02F86F
S31500009474D00DB54900200FF0DDFE24A908200FF019
S3150000948499FC26A910200FF095FC2A980FF07EFC73
S31500009494BDF8AC000FF066FCBDF8AE000FF062FC40
S315000094A49DF8B0000FF04EFC0124FEF78EBE082492
S315000094B446AB03F8EC4D12AAA44901200FF0BAFEFC
S315000094C424A912A82CF0BDFE46AA02F8E80D9E496E
S315000094D400200FF0AFFE204624A90FF06BFC26A94E
S315000094E410200FF067FC2A980FF050FCBDF8AC0072
S315000094F40FF038FCBDF8AE000FF034FC9DF8B00058
S315000095040FF020FC0124FEF760BE082246AB03F8E8
S31500009514E82D8E4924AA01200FF08CFE24A827F0FA
S315000095241BFC46AA02F8D00D874900200FF082FEE4
S315000095340124FEF74ABE08238DF82C300BAB12AA81
S315000095440093834924AB01200FF074FE24A9BDF8CF
S31500009554480028F0A1FE46AA02F8E80D7A49002040
S315000095640FF068FE0124FEF730BE0FF005FC46AC92
S3150000957424F8880D0DF1920110200FF0D5FB0DF1A2
S31500009584A20110200FF0D0FB0FF0C6FB0DF1B301C2
S315000095948DF8B20008200FF0C7FB204626F090FA9B
S315000095A446AA02F8D00D684900200FF043FE0124B4
S315000095B4FEF70BBE08238DF828300BAB01930AABDC
S315000095C40DF126020093634912AB01200FF032FE1F
S315000095D424A910200FF0A8FB24AB12AA9DF826108C
S315000095E400200BF01FFC46AA02F8E80D564900209D
S315000095F40FF020FE0124FEF7E8BD12AA524901200D
S315000096040FF018FE9DF8480027F098FC46AA02F8C9
S31500009614880D4D4900200FF00DFE0124FEF7D5BD3F
S3150000962412A80FF053FC0AAB0CAA24AC01930092C7
S3150000963449490DF1260201200FF0FCFD0C9B9DF813
