:10000000C041002071F90200297B00002D7B000017
:10001000A70A02020002000004180FAC306A29018E
:1000200000000000000000000000000000000000D0
:1000300000000000385C0300000000000000000029
:100040000000000000000000FFFFFFFFFFFFFFFFB8
:10005000FFFFFFFFFFFFFFFFFFFFFFFFFFFFFFFFB0
:1000600000700F000000000000000000FFFFFFFF15
:10007000FFFFFFFF01000000000000000000000083
:1000800000000000000000007E5F00207E5F002076
:10009000C0410020008E0300205B03006038002078
:0C00A000313800200000100000000000BB
:10020000C041002071F90200297B00002D7B000015
:10021000B1830000317B0000397B00006DF90200E2
:100220006DF902006DF902006DF902006DF902002E
:100230003D7B00006DF902006DF902006DF90200CE
:10024000F91C00006D010100817E0000B47C0000FB
:1002500031FA0000C501010079010100910101009E
:1002600071010100E1110000C91200008D3400008D
:1002700035980000B47C0000B47C00003904000014
:10028000B47C0000B47C0000E5120000B47C0000E7
:10029000B47C0000B47C0000B47C0000B47C00009E
:1002A000B47C0000B47C0000B47C0000B47C00008E
:1002B000C901010075010100951A00000502010045
:1002C000B47C000005EB0000B47C0000B47C0000AE
:1002D000B47C0000B47C0000B47C0000B47C00005E
:1002E000B47C0000B47C0000B47C0000B47C00004E
:1002F000B47C0000B47C0000B47C0000B47C00003E
:0C030000B47C0000B47C00006DF9020029
:10030C00F8B500BFF8BC08BC9E467047F8B500BFF6
:10031C00F8BC08BC9E46704710B5054C237833B921
:10032C00044B13B10448AFF300800123237010BDBC
:10033C0060480020000000000888030008B5034B4B
:10034C001BB103490348AFF3008008BD0000000057
:10035C006448002008880300154B002B08BF134B82
:10036C009D46A3F5803A00218B460F461348144A4C
:10037C00121A35F0A2FB0F4B002B00D098470E4BF6
:10038C00002B00D098470020002104000D000D48E0
:10039C00002802D00C48AFF3008035F037FB20006A
:1003AC00290030F0ABFE35F01DFB00BF000008004B
:1003BC00C04100200000000000000000B0470020F9
:1003CC007E5F0020000000000000000070B5134CA0
:1003DC008A00A31822449B781D09062D98BF104E45
:1003EC0003F00F0394BF755DFF25062B05719ABFB3
:1003FC000C4DEB5CFF234371FF3B18BF0123837152
:10040C00D37014F82130084C437053788370014634
:10041C00204603F0ABF80123A36070BD41580020C7
:10042C00275B0300205B0300002000407FB52249BE
:10043C0022480022FF23CDE901228DF809300378F0
:10044C004C6C8D6B03922C40E407DBB228D5022B4D
:10045C0026D88C6C1A4901EB8301A5B2CE781949C8
:10046C0006B326041ED521F813201749012202FADF
:10047C0003F30A781343154A0B701378CBB100239E
:10048C001478DC40E407D9B20FD501701078012440
:10049C0004FA03F34340DBB201A81370FFF796FF95
:1004AC0004B070BD21F81350DFE70133032BE7D103
:1004BC00F6E703230370F3E7002000404D580020BB
:1004CC0041580020BA5100204F5800204E580020AF
:1004DC0000207047002814BF022000207047012024
:1004EC00704701207047012814BF0220002070477C
:1004FC00012070472DE9F74FDFF87C8007460D4649
:10050C001446994603F10C0A4FF0010B15B903B0D0
:10051C00BDE8F08F102D2E46164A28BF1026F3B2D8
:10052C00494651F8040B42F8040B5145F9D101939B
:10053C009AF800101170104888F80F40002288F8C3
:10054C000E2088F800B0013425F004FE0B48019B06
:10055C00E4B23A4612F8011B10F801CF81EA0C0103
:10056C0002F8011CD11BC9B29942F3D3AD1BADB239
:10057C001746CBE7BC580020BB580020BA580020C7
:10058C002DE9F04F85B016460293BDF838900F9BBD
:10059C00354A01930D468046034600F10C0153F891
:1005AC00040B42F8040B8B42F9D1304C1B781370BE
:1005BC004923237020464FEA1923A37384F80F9024
:1005CC0025F0C8FD237883EA1623237063784FF057
:1005DC00020A734063705246A34600271FE0C2F123
:1005EC001001F31B89B29BB28B42A2EB050028BF12
:1005FC000B46039029460398A1EB050C1FFA8CFCC3
:10060C0008189C45C0B21AD31A44D2B21F44102AFF
:10061C001D44BFB203D1204625F09CFD0022B742F9
:10062C00DDD312B1584625F095FDBAF1010F4FF00C
:10063C000002029D4E460BD04FF0010ACDE711F897
:10064C0001CB1BF800E08CEA0E0C0BF800C0D2E7D3
:10065C00064B01991B6801980B604346042105B0B9
:10066C00BDE8F04FFFF746BFBC580020BB58002038
:10067C00F7B5099FBDF82040CDE9004706461D4659
:10068C00FFF77EFF2CB13346012221462846FFF7A7
:10069C0031FF002003B0F0BD2DE9F743BDF8287001
:1006AC000F4C1E4605468846914603463946304651
:1006BC000122FFF71FFF33464A4641462846CDE943
:1006CC000074FFF75DFF042221460B9835F0C2F948
:1006DC00002814BF7E20002003B0BDE8F08300BFCB
:1006EC006858002073B51C46044D8B181E592E609B
:1006FC00CDE90045FFF7D0FF02B070BD5D59002079
:10070C00002070470120704701207047002070477F
:10071C00012070470020704700207047012070476F
:10072C00002070470120704770477047002814BFA5
:10073C0002200020704700207047000010B5104CBC
:10074C001049A161032321660F491022C4E9043327
:10075C000E4BE361C4E9191200230D49A362E01D9D
:10076C006362E3622367E3666367226235F0B7F97D
:10077C000849204635F0B3F92023A37110BD00BF02
:10078C00005C00202E5B03001E5800202E58002019
:10079C00375B03003B5B03002DE9F84F1F4B1646FC
:1007AC001A7881468A4698460AB9FFF7C7FF182778
:1007BC0007FB09873D6FD7F86CB05D452BD9BC6E34
:1007CC00796E641BB44228BF3446294450462246F5
:1007DC0035F04FF9BB6E2544A244361BAB4208BF23
:1007EC000025ABEB050B5E4528BF5E4656B11823C2
:1007FC0003FB09833246596E5046294435F039F9CA
:10080C003444354424B1182303FB0988C8F87050CC
:10081C002046BDE8F88F0024E3E700BF005C002011
:10082C00F8B504460E46174603F0ADFB3A460546AE
:10083C0031462046FFF7B0FF0446284603F0A9FBDB
:10084C002046F8BD2DE9F843124D1E462B78814603
:10085C00884617460BB9FFF771FF03F094FB6969E3
:10086C0000244FF0180C0CFB04535A6E2AB10134BF
:10087C00A142F8DC4FF0FF3407E0A142FADDC3E9F6
:10088C0018989F661A67DA665E6703F082FB20464B
:10089C00BDE8F883005C0020FFF750BF012270B563
:1008AC001146042003F0AAF91A4B1B4D1A681B4879
:1008BC0042F001021A60DA684FF0604442F0807234
:1008CC00DA60174BC4F8B03F00260223C4F8006E60
:1008DC00C4F8806EC5F8F03003F08CF800F5D52024
:1008EC00104B114A00F2FC40B0FBF3F00F4B0138F7
:1008FC002861C4F8406E1A600D4BC4F8803E4FF46A
:10090C008073C5F80433D4F8003E43F48073C4F804
:10091C00003E70BDF0ED00E0000004E006000E00AB
:10092C0055CEACC5F8590D00FF030040001000E097
:10093C000D00010010B50121114802F00FFF114B01
:10094C0001241C60002004F039F823460422022103
:10095C00052004F085F820462FF06AFEFFF79EFF75
:10096C002FF09CFE084B1C70FFF796FF234640228D
:10097C0006490748FFF766FF064B1860C00F10BD0D
:10098C0000350A00108814428558002018590020A0
:10099C00425B030008460020024B1868003018BF69
:1009AC0001207047F0ED00E0054A4170D12303703F
:1009BC001378C370090A8170591C11700420704798
:1009CC00655900202DE9F74F0E78042E83460F460B
:1009DC0061D92FF0FDF8DFF8C480751DEDB28246A9
:1009EC004FF6FF710024C146D8F800305BB1A54228
:1009FC0009D901912FF0ECF8A0EB0A0080B2B0F508
:100A0C00FA7F019907D9281B18BF012004233B70DA
:100A1C0003B0BDE8F08FB4B3012C37D0EA1E631CD1
:100A2C009442DBB21CD1CCB24FF06042D2F8800EB3
:100A3C00C00713D51046D9F80CC04CF0807CC9F80F
:100A4C000CC0D0F800CE4CF4807CC0F800CED0F8AE
:100A5C0020C0BCF1000FEED082F820401C46C3E74A
:100A6C00AA1E944202D1C1F30724DDE76A1E944208
:100A7C000FD05C44019314F8024C204606F0E4FFBE
:100A8C00019B0146D0E75B240123CDE734460223CA
:100A9C00CAE75D24C8E70020B8E700BFF0ED00E02E
:100AAC0000B5084B91B0402269461868FFF7B8FEB4
:100ABC0020B1C2B2694612202DF064FC11B05DF871
:100ACC0004FB00BF0846002070B5164685180AB90D
:100ADC00304470BD01F00F030A2B34BF302437248F
:100AEC002344013A090905F8013DD2B2EFE70000B1
:100AFC00F0B5F9B100281CDA2D23B0F1004F1370BA
:100B0C0000D04042012115E0801B8642ECB205F179
:100B1C000105F9D904B927B14D1C303454540127BF
:100B2C00E9B20133092B09D1303050540131C8B22C
:100B3C00F0BD00210023DFF80CC01F465CF82360D9
:100B4C000025E2E7545B03002DE9F04F95B04FF020
:100B5C00000B02AC81468A4617461D465E46A046EF
:100B6C003B7863B902ABE41AE4B22246194650460C
:100B7C00C847002840F093803444E0B290E0252B25
:100B8C0013D0BBF1000F14D12370013412AB9C4273
:100B9C006DD3A4EB0804E4B2224641465046C84744
:100BAC0000287CD12644F6B260E0BBF1000F00D1E6
:100BBC0001373B78632B00F092801BD8392B09D876
:100BCC00302B80F09E80002BCCD0252B51D04FF0B9
:100BDC00000BDBE7582B00F08B80622BF7D12B68D6
:100BEC0001936B6800934FF0000B009B9B4543D126
:100BFC000835ECE7702B1ED017D8642B01D06C2B6A
:100C0C00E5D16C2B05F1040B28686CD17B78752B26
:100C1C0014BF0121002101D0642B00D101372246E1
:100C2C00FFF766FF04445D46D1E7752BE9D0782BBE
:100C3C005ED0732BCBD1A4EB0804E4B2224602A9FC
:100C4C00504605F1040B2D68C84740BB2644F6B24C
:100C5C00C4B201302B5D002BFAD1224629465046F6
:100C6C00C847E0B926445D46F6B283464446013790
:100C7C0076E723700134AAE7019B204613F80B108A
:100C8C000222FFF721FF12AB984204460ED3A0EBD1
:100C9C000804E4B2224641465046C84718B1002029
:100CAC0015B0BDE8F08F2644F6B24446009B013BDC
:100CBC005B4582BF20232370013412AB9C420BD3C3
:100CCC00A4EB0804E4B2224641465046C84700282B
:100CDC00E5D12644F6B244460BF1010B85E72B68AF
:100CEC0023700435C6E7752B0CBF0021012196E754
:100CFC00204602222978FFF7E7FE05F1040B044693
:100D0C0091E77A7802F0DF02582A19D1322B07F1D9
:100D1C00010B09D129882F1D04222046FFF7D4FE90
:100D2C003D4604465F4652E7342B09D12F1D2D68F2
:100D3C000422290C2046FFF7C7FE0422A9B2EDE7D6
:100D4C004FF0010B22E700002DE9F04F9B46584B6A
:100D5C0085B01B78109F9DF844A0DDF850800646A6
:100D6C0089461546002B00F09280072A00F29180EC
:100D7C000E9B002B00F08D800F9B002B00F08980C8
:100D8C00129BB3F5006F00F38480012801D1002F72
:100D9C007FD0484B03EB05131B7B002B7BD0464CC1
:100DAC0010220021684634F088FE04EB4514102212
:100DBC00B9F1000F5CD14946204634F07EFEA37891
:100DCC0043F01003A370E37843F03003E370BAF1FF
:100DDC00000F03D1DBB243F00303E3703649129BDF
:100DEC00CDF800B06A01013B885A01EB020C63F3A9
:100DFC000E1088520E9BCCF808300F9BCCF80430A8
:100E0C009DF84C109CF80330012E61F383038CF891
:100E1C00033042D11323CCF80C309CE80F000CF1BA
:100E2C00100E8EE80F00DCF81C20CCF814706FF05C
:100E3C00030161F39F02B9F1010FCCF81C2004D11E
:100E4C000F9BCCF81830CCF804701A492A018B1877
:100E5C0041F802800027159A5A6028469F605E73FD
:100E6C002246694603F088FE384605B0BDE8F08F8F
:100E7C000021204634F021FE1023A3700323E370DD
:100E8C00BAF1000FAAD1DBB243F03003A5E70B484F
:100E9C00EBE70B48E9E70B48E7E7B8F1000FD4D1D3
:100EAC009CF8023068F304138CF80230CDE700BFD5
:100EBC00DB580020F0490020204B0020028000F07D
:100ECC00018000F0078000F038B5104B1B78054608
:100EDC00BBB1C0B103F057F80D49002301EB03126D
:100EEC00147B3CB92B6001231373146003F051F88D
:100EFC00204638BD0133082BF0D103F04AF80548E1
:100F0C00F7E70548F5E70548F3E700BFDB58002095
:100F1C00F0490020048000F0028000F0018000F015
:100F2C0038B503F030F80B4A05460023D1180C7B7A
:100F3C005CB91033802BF9D103F0D4FD064B284655
:100F4C001C7003F026F8204638BD284603F021F823
:100F5C000248F9E7F0490020DB580020058000F03A
:100F6C000D4B1B7810B5044693B1072812D803F02B
:100F7C000AF80A4B03EB04131A7B2AB100241C73E6
:100F8C0003F007F8204610BD03F003F80448FAE715
:100F9C000448F8E70448F6E7DB580020F049002045
:100FAC00068000F0028000F0018000F013B5164BB3
:100FBC001868019000238DF8043002F0E4FF134B05
:100FCC001C7824B102F0E5FF114802B010BD0122DB
:100FDC001A7002F0DEFF0F4B1C731C7783F82C4049
:100FEC0083F83C4083F84C4083F85C4083F86C40B9
:100FFC0083F87C4004230DEB03008DF8073003F0DD
:10100C0091FD2046E1E700BF785B0300DB58002030
:10101C00038000F0F049002010B588B00E9C0794B6
:10102C000D9C06949DF8304005940B9C04949DF8FF
:10103C00284003940024CDE9013400920B4602466B
:10104C0021462046FFF780FE08B010BD10B588B0D1
:10105C000E9C07940D9C06949DF8304005940B9CB7
:10106C0004949DF8284003940024CDE901340092A7
:10107C000B46024601212046FFF766FE08B010BD64
:10108C0008B50A4B1B785BB107280BD8084B03EB50
:10109C0000131B7B43B1002103F03AFD002008BD77
:1010AC000448FCE70448FAE70448F8E7DB5800205A
:1010BC00F0490020028000F0018000F0078000F071
:1010CC0008B50A4B1B785BB107280BD8084B03EB10
:1010DC0000131B7B43B1012103F01AFD002008BD56
:1010EC000448FCE70448FAE70448F8E7DB5800201A
:1010FC00F0490020028000F0018000F0078000F031
:10110C0008B50A4B1B7853B107280AD8084B03EBD8
:10111C0000131B7B3BB103F081FD002008BD05488B
:10112C00FCE70548FAE70548F8E700BFDB58002064
:10113C00F0490020028000F0018000F0078000F0F0
:10114C000D4B1B7893B1072812D889B10B4B03EBCD
:10115C0000131B7B73B10A4B1A6A012303FA00F0CC
:10116C0010401ABF00200B7008707047054870477C
:10117C000548704705487047DB580020F0490020AF
:10118C0000200E40028000F0018000F0078000F08B
:10119C000B4B1B7810B50C4663B107280CD859B112
:1011AC00084B03EB00131B7B43B103F04DFD206098
:1011BC00002010BD0448FCE70448FAE70448F8E7AF
:1011CC00DB580020F0490020028000F0018000F084
:1011DC00078000F02DE9F843174E326EF36E12EAD9
:1011EC00030800D5FEE7154CDFF8549001270025C5
:1011FC0018EA070F16D02368B7669BB1A16862681E
:10120C000131A16028469847637B012B0AD148B96C
:10121C0009EB4513197B1A7F60F3410160F341021E
:10122C0019731A770135082D4FEA470704F110049A
:10123C00DED1BDE8F88300BF00200E40F04900204D
:10124C00204B002070B5094E0446012504B970BD31
:10125C0094FAA4F0B0FA80F005FA00F324EA03043F
:10126C0056F82030002BF1D09847EFE75C4D00206A
:10127C0008B5122002F09EFE28B1084B4FF48022D4
:10128C00C3F880211A600A2002F094FE28B1034BA7
:10129C004FF48062C3F880211A6008BD00E100E0C1
:1012AC0038B504460D4602F06EFE034B43F824504D
:1012BC00BDE8384002F06DBE5C4D0020054BD3F804
:1012CC002804D3F81C24104000F05530C3F8240433
:1012DC00FFF7B8BF00A00040054BD3F82804D3F8A3
:1012EC001C24104000F0AA30C3F82404FFF7AABF56
:1012FC0000A0004038B500F063FB0A4C0A4B1A689A
:10130C0023680025C31A02B10BB9206038BD51699E
:10131C00994225BFCB1A53615561002338BF5B1A24
:10132C009268F0E7104E002020510020C38870B561
:10133C0004460D463BB907F03FF98542064602D2FA
:10134C0007F054F93546104A656113681046ABB97D
:10135C001460A36011E06D1A996865611A4679B141
:10136C000B465969A942F6D90029F4D052B19460C0
:10137C00A36013B15969491B596170BD0022F0E794
:10138C000B46F4E70460F3E72051002038B50F4B0F
:10139C000F4D1C682B685B6902201C4400F03EFB5F
:1013AC00204600F013FB0B492A6800230B70D088F1
:1013BC00800702D501230B7038BD9268002AFBD040
:1013CC0050690344012BF2D9F6E700BF104E002000
:1013DC00205100200159002070B516469DF81420AC
:1013EC000271049A0260C0E903360022BDF818307D
:1013FC008260C38004460D4600F0E2FA3044A061DE
:10140C003DB9E368656113B121682046984796B1F0
:10141C00354602F0B8FD0646FFF76CFF294620461C
:10142C00FFF784FF054B1B68A34201D1FFF7AEFF0A
:10143C00304602F0AEFD002070BD00BF20510020F0
:10144C000C4A136800217BB183420AD1836879B1BD
:10145C008B6083681BB15A6941690A445A61002048
:10146C00704719469B68EEE70028EFD002207047C2
:10147C001360EEE72051002070B5154E02F083FD8D
:10148C0034780546FCB9134B1C60134B1C60134B92
:10149C001C8000F053FA012000F0C0FA00F00CFBA5
:1014AC000F4B0246186020B9284602F072FD23202B
:1014BC0070BD23460B4840F2E73134F013F90A4B68
:1014CC00186001233370284602F063FD0020EFE71B
:1014DC00E358002020510020104E0020BC55002065
:1014EC001C51002018FCFFFF1C4E00202DE9F04180
:1014FC000546F8B102F047FD0F4F0646FFF7FAFE1E
:10150C002846D7F80080FFF79BFF044628B13046E9
:10151C0002F03FFD2046BDE8F081A8453B6803D1B1
:10152C0023B1FFF733FFF2E7002BF0D1022000F0DC
:10153C0083FAECE72224EDE720510020F0B50D46AC
:10154C0085B016461F46044680B1FFF7CFFFBDF8A5
:10155C002C3002939DF828300022CDE900732946E7
:10156C0033462046FFF738FF05B0F0BD2220FBE7DD
:10157C0038B50C46054698B191B100230B7002F0BA
:10158C0002FD084B1B6801210BB122781AB102F045
:10159C0000FD002038BD9D420CBF21709B68F3E715
:1015AC002220F7E720510020F0B587B01F4600231A
:1015BC000D4616468DF817300446A0B10DF11701F3
:1015CC00FFF7D6FF9DF817207AB9BDF83430029397
:1015DC009DF830302946CDE9007320463346FFF79D
:1015EC00FBFE07B0F0BD2220FBE70320F9E700006B
:1015FC00F8B50C460646C8B1C1B102F0C4FC0546AC
:10160C00FFF778FE73692360134B1B68B3420FD04E
:10161C0023B9284602F0BDFC03201CE0596922685E
:10162C009B680A442260F1E700230FE0222012E0BD
:10163C000A4E276800F0C4F93368C01A8742F3D900
:10164C0000F0BEF93368C01A23681B1A28462360C1
:10165C0002F09FFC0020F8BD20510020104E00200D
:10166C00F8B507460E4602F08EFC124B1B68054679
:10167C00002423B9284602F08CFC1B2015E05A6983
:10168C001444DA88BA4213D10B4F00F099F93B6835
:10169C00C01AA0420AD200F093F93B68C01A201A73
:1016AC003060284602F075FC0020F8BD0020F7E7FA
:1016BC009B68DEE720510020104E0020014B18786B
:1016CC00704700BF0159002038B502F05CFC05469C
:1016DC0000F076F90446284602F05BFC204638BD43
:1016EC0070B502F050FC064600F06AF9094B1C88F4
:1016FC0005460120A4B200F0B7F918B100F060F96A
:10170C0001340546304602F044FC002242EA050052
:10171C00214670BDBC550020014B1868704700BFB6
:10172C001C5100200A4B1B68834210B50C460CD38D
:10173C00084B19684FF47A720023A0FB010133F0B7
:10174C00D1FF01302060002010BD2120FCE700BF3C
:10175C001C4E00201C510020104B1A6810B5B2B161
:10176C004FF47A73A0FB0301531E134211D1B2FA4A
:10177C0082F2C2F11F02C2F12004A2F1200301FA8D
:10178C0004F420FA02F2224321FA03F31A4310461E
:10179C0010BD002333F0A6FF0246F8E71C510020D1
:1017AC0000000000F8B516461BA3D3E900238B42BA
:1017BC0008BF82422AD3174B1A683AB34FF47A7394
:1017CC00A0FB034503FB0155531E13EA020014D181
:1017DC00B2FA82F2C2F11F02C2F12007A2F120017B
:1017EC0024FA02F305FA07F73B4325FA01F10B4300
:1017FC0025FA02F2C6E90032F8BD0023204629463C
:10180C0033F070FFC6E900010020F5E72120F3E773
:10181C00AFF300801C510020EFA7C64B3789410065
:10182C00C2072DE9F04704460BD5414A1388013312
:10183C009BB21380FFF75EFD3E4B1B680BB1FFF7AD
:10184C00A5FDA30771D502F09EFB0546FFF752FDDF
:10185C000026DFF8E090B046D9F800400CB163697F
:10186C0093B1354B0022B8F1010F1A7003D1022E3F
:10187C0008BF83F80080002C46D0FFF787FD284670
:10188C00BDE8F04702F085BB23465A693AB91A798C
:10189C002179914288BF1C469B68002BF5D12846C4
:1018AC0002F077FB25699DB300231F4600F088F8F2
:1018BC00A1692E46451AEB17AE4277EB030329DAE2
:1018CC0023690B44A361012322697AB173B9761B96
:1018DC0002F059FB314605462046FFF727FDA36968
:1018EC0022691344A361284602F053FBE368E6889F
:1018FC0008F1010813B121682046984702F043FB18
:10190C000546FFF7F7FCA7E7022000F095F8B6E7CD
:10191C000022164602F037FB82462046FFF790FD68
:10192C00504602F036FB0023CEE7BDE8F08700BF3F
:10193C00BC550020205100207059002010B51C4BC4
:10194C0086B05968186803AA03C2197A53F8090FAC
:10195C00117001909A8817489B79ADF808200121E5
:10196C008DF80A30002401F0F9FE03A88DF80C4024
:10197C008DF8104003F022FB01A901208DF80440E2
:10198C0003F0FCFA0C4A536A23F4FF6323F00703B9
:10199C00536240F2FF7313620120946003F008FB62
:1019AC00064B4FF08042C3F880211A6006B010BD80
:1019BC007C5B0300A00914000020044000E100E05F
:1019CC00014B9868704700BF00200440114A93688F
:1019DC00516D9269520704D4CA1A032A01D899424C
:1019EC000DD1C21A022A98BFD81C0A4BB0F1FF3F86
:1019FC0038BF013858655A6A42F004025A62064AE6
:101A0C00137833B103490B6D43F002030B650023CC
:101A1C001370704700200440544700208207054A89
:101A2C0000F00103516A48BF43F004030B435362B7
:101A3C00704700BF00200440830700F0010209D565
:101A4C00074B0121197007490B6D23F0030342F07A
:101A5C0004020B6503494B6A23EA02034B6270478D
:101A6C005447002000200440064B01289B6904D0F9
:101A7C00022805D1C3F38000704703F001007047C2
:101A8C00002070470020044010B502F07CFA094A8F
:101A9C0093690446590703F0010003F0070348BF9C
:101AAC0040F002001362FFF7BBFE2046BDE8104079
:101ABC0002F06FBA00200440014801F09BBF00BF48
:101ACC00A0091400044B4FF04042DA621A6B22F06A
:101ADC0040421A63704700BF00300E402C48F0B5EE
:101AEC00002203682B4D114654592CB11E68AC18BA
:101AFC00002E36D1234601210832282AF4D101B117
:101B0C0003602549254E0B680022144695592DB1CA
:101B1C001F68B518002F2BD12B4601240832282A18
:101B2C00F4D104B10B6000681D4B026842B3DA6952
:101B3C00007922F0FF020243DA611A6B42F0804214
:101B4C0009681A630A68164BF2B1DA69097922F44A
:101B5C007F4242EA0122DA611A6B42F000421A63B8
:101B6C00F0BD1E792779B74284BF23460121C3E714
:101B7C001F7995F804C0BC453CBF2B460124CDE72A
:101B8C001A6B22F08042DBE71A6B22F00042E6E788
:101B9C00EC4D0020C8500020184E0020F0500020C2
:101BAC0000300E4008B5174B174801221A7000215F
:101BBC00282233F082FF28220021144833F07DFFC5
:101BCC00134A144B1360144A1360144A1368526D71
:101BDC00C3F30743FF2B02D0D2B2FF2A01D19022CC
:101BEC00192303EB830302EBD3030D4A1360FFF7B6
:101BFC0069FF0C4B0122C3F880211A60FFF76EFFBE
:101C0C00002008BD1D580020C8500020F0500020B6
:101C1C00EC4D00204C4E0020184E0020B081E00FFF
:101C2C00EC49002000E100E008B502F087FE9FEDD2
:101C3C00137A07EE900AF4EEC77AF1EE10FA19D483
:101C4C009FED0F7AF4EE477AF1EE10FAC8BFF0EE82
:101C5C00477A17EE900A33F0C5FC0022094B33F09B
:101C6C0063FB0022084B33F05FFB33F013FD80382D
:101C7C0040B208BDF0EE477AEBE700BF000000C3AE
:101C8C000000FE420000E03F0000604070B5144CC4
:101C9C00226B616A0A4011D5124B1B681E6836B163
:101CAC0000251D605D60FFF7BFFF2946B0474FF070
:101CBC000043E362BDE87040FFF710BF5300F9D555
:101CCC00094B1B681C6834B100221A605A60FFF77C
:101CDC00ABFF0121A047024B4FF08042DA62E9E7EB
:101CEC0000300E40184E0020EC4D0020FFF7CEBF08
:101CFC0038B141B1013AB2F5006F044838BF002049
:101D0C007047034870470148704700BF037000F0EC
:101D1C00027000F038B504460D4602F034F9A28882
:101D2C0092B222B92A6002F034F9064838BD6388B1
:101D3C00142202FB034308332B6002F02AF9002023
:101D4C00F4E700BF0B7000F038B504460D4602F006
:101D5C001AF9A3889BB223B92B6002F01AF90C482C
:101D6C0038BD6388E188142202FB034308332B60DF
:101D7C0063885A1C92FBF1F301FB13239BB2638023
:101D8C00A388013B9BB2A38002F003F90020E7E794
:101D9C000B7000F0F8B5044617460D4602F0F3F848
:101DAC00A388E2889A42064605D800233B6002F0DD
:101DBC00F0F81648F8BD2388142202FB03430833BD
:101DCC0005F1100C2A4603CA624518605960154685
:101DDC0003F10803F6D1106818602388E1881422F7
:101DEC0002FB034308333B6023885A1C92FBF1F33C
:101DFC0001FB13239BB22380A38801339BB2304693
:101E0C00A38002F0C6F80020D4E700BF0A7000F0EF
:101E1C00034610B593F832300068012B0CD102F058
:101E2C0049FF044630B1FFF777FC24235843B0FB3D
:101E3C00F4F40134204610BD03F0F6F9F1E700008C
:101E4C00427E30235343044A1A44437F03EBC203BC
:101E5C009B001868C0B270471CA0104213B51D4AF5
:101E6C00002352F82340617F81420ED00133042BB2
:101E7C00F7D102B010BD0028FBD19DF80730002B24
:101E8C00F7D06068FFF7FCF8F3E794F83130022BD9
:101E9C00EFD12046FFF7D4FF637D2075022BE8D1EC
:101EAC0094F82E3003F0FF02002BE2D102A96068F7
:101EBC0001F8012DFFF744F9237D1BB194F82F3065
:101ECC00002BD8D0002384F82F306068FFF7F8F887
:101EDC00CFE700BF2C51002090F8323053B9036883
:101EEC000422DA601A699007FCD55A6F42F002029C
:101EFC005A677047012B0CD103685A6C9107FCD4BC
:101F0C0004225A609A689207FCD55A6D42F002027C
:101F1C005A65704790F8323053B903680122DA6081
:101F2C001A69D007FCD55A6F42F001025A67704704
:101F3C00012B0CD103685A6C9107FCD401225A6016
:101F4C009A68D207FCD55A6D42F001025A65704767
:101F5C0090F832303BB903685A6F22F001025A678D
:101F6C000222DA607047012B09D103685A6C920780
:101F7C00FCD45A6D22F001025A6502225A60704755
:101F8C000F49104B0A782AB9C3E90022C3E902228F
:101F9C0001220A70002253F82210814208D001322B
:101FAC00042AF8D1002153F821201AB943F8210052
:101FBC000020704701310429F5D10348704700BF58
:101FCC00695A00202C510020027000F010B5044614
:101FDC00FEF7ECFF0021201DFEF776FF014608B14D
:101FEC00044810BD04F10800FEF76EFF0028F8D07D
:101FFC00F6E700BF0E7000F070B5054601F0C3FFA8
:10200C006C6B013C06466C634CB901F0ADFF21468C
:10201C000546012006F072FA284601F0A9FF304669
:10202C00BDE8704001F0B5BF37B591F832200B68B0
:10203C00012A0BBF9C681C69C4F3C004C4F3401490
:10204C000D46084634B1FFF7D7FF022385F8383028
:10205C0003B030BDFFF7DCFECDE9004401462B4652
:10206C00024A05F13C00FFF79FFAF1E7352000002A
:10207C0070B5044601F087FF636B05464BB901F060
:10208C0073FF01210646084606F038FA304601F087
:10209C006FFF636B013363632846BDE8704001F04A
:1020AC0078BF00007FB5012380F82C3090F83230D7
:1020BC0093B90C4A036803920022049002924A6876
:1020CC000192012200920A68016980681C33FEF7B4
:1020DC00BDFF07B05DF804FB012BEAD0002380F8AC
:1020EC002C30F6E7512800002DE9F041012380F84F
:1020FC002D3090F8323088B004460F466BBB056823
:10210C00343501F040FF04F13C0680460DF11F010F
:10211C003046FFF72DFA40B99DF81F302BB13046F1
:10212C00FFF7E4F92046FFF767FF4046012601F070
:10213C0030FF204684F83860FFF79AFF0E4B03936C
:10214C000023049402937B68E1686068CDE9006326
:10215C002A463B68FEF760FF0BE0012B06D10568B1
:10216C002B6843F4005345F8283BCAE7002380F85A
:10217C002D3008B0BDE8F08189210000F0B585B0A4
:10218C0003A9906A1446FFF7C5FD06462046FFF7E3
:10219C003FFE002523460146CDE900551B4A04F1BC
:1021AC003C00FFF701FA1A4B9E421FD0039B1D61A6
:1021BC009D6001F0E8FE039AD768064627B1D2E984
:1021CC00002329462046B84703A9A06AFFF7BCFDA7
:1021DC00A06A83889BB263B103A9FFF79BFD0399A7
:1021EC002046FFF781FF304601F0D3FE012005B0F9
:1021FC00F0BD84F82D3094F83230012B01BF2268E9
:10220C00136823F400531360EDE700BF3520000082
:10221C000B7000F073B504460D46C07DE67E0029B8
:10222C0034D001230422314602F01AFC012302228D
:10223C00217F207E02F014FC94F83130022B16D151
:10224C0000230122617F607E02F00AFC002304223D
:10225C00A07EA17F02F004FC0123627F607E0193CB
:10226C000093114602F0B6FB002002B070BD032BA8
:10227C00FAD100230122617F607E02F0F1FB002382
:10228C000422A17FA07E02F0EBFBEDE70B460A4691
:10229C00314602F0E5FB2B462A46217F207E02F0D8
:1022AC00DFFB94F83130022B10D12B462A46617F8C
:1022BC00607E02F0D5FB2B462A46A07EA17F02F061
:1022CC00CFFB627F607E01950123C9E7032BCBD145
:1022DC002B462A46617F607E02F0C2FB2B462A46C3
:1022EC00CFE790F8323013B9036818697047012BA7
:1022FC001CD103689B6803F00200DA0748BF40F06A
:10230C000100590748BF40F008001A0748BF40F0C9
:10231C002000D90648BF40F040009A0648BF40F064
:10232C0080005B0603D540F40050704700207047D6
:10233C002DE9F3410D46044600287FD001F023FE21
:10234C00012D064641D1A36A9B889BB2002B43D03A
:10235C006068FEF7D5FE0023A06A84F82D308388D0
:10236C009BB273B101A9FFF7D5FC01996068394F95
:10237C000831FEF70DFF019B1F61A06A83889BB299
:10238C0083BB2046FFF7ADFF8304FAD5023D012D38
:10239C0010D8A068FEF7B4FE0023606A84F82C30D5
:1023AC0083889BB26BBB94F83130032B02D0204650
:1023BC00FFF7CEFD636B002B02DD2046FFF71CFE02
:1023CC00304601F0E6FD002009E0022D38D1636AA9
:1023DC009B889BB2002BD9D101F0DBFD1E4802B0CB
:1023EC00BDE8F08101A9FFF7AFFC019BD3F80C808D
:1023FC00B8F1000FC1D09B68002239462046C04777
:10240C00BBE76946FFF786FC0099A068114F0831BD
:10241C00FEF7BEFE009B1F61606A83889BB2002B97
:10242C00C1D06946FFF790FC009BDD68002DF3D00E
:10243C009B68002239462046A847EDE70748CEE7BF
:10244C00032DA3D1A36A9B889BB2002B80D1636A16
:10245C007AE700BF097000F0087000F0027000F01D
:10246C00436A9888C0B270472DE9F3410546406A2B
:10247C0084889846A4B200230E461746CDE9003353
:10248C003CB16946FFF746FC01A90446A868FEF773
:10249C007FFE009971B16CB94868019BC01A386015
:1024AC00C8F800300B6833602846FFF71AFF02B0FB
:1024BC00BDE8F0810021C8F8001039603160F3E705
:1024CC00836A9888C0B270472DE9F3410546806A4B
:1024DC0084889846A4B200230E461746CDE90033F3
:1024EC003CB16946FFF716FC01A904466868FEF783
:1024FC004FFE009971B16CB94868019BC01A3860E5
:10250C00C8F800300B6833602846FFF7EAFE02B0CB
:10251C00BDE8F0810021C8F8001039603160F3E7A4
:10252C00007D70472DE9F04104460E461746FFF733
:10253C00DFFB804670BB092001F04AFD0546A26A0C
:10254C0093889BB213B194F82E3033B394F8323095
:10255C0043BB23681D6905F002051DB92046FFF732
:10256C00BBFC0025012384F8303094F832301BBBBF
:10257C003744BE4220681AD103699E06FCD54DB97A
:10258C0094F832303BBB23685A6F22F002025A6730
:10259C000822DA604046BDE8F081002DD0D0FEF76D
:1025AC0019FECCE7012BD9D123689D68D3E716F827
:1025BC00011B02F0C3FEDCE7012BEBD13744B74221
:1025CC00206803D183681907FCD5D8E716F8011BDE
:1025DC0002F0A4FBF3E7012BDCD123685A6C9207C1
:1025EC00FCD45A6D22F002025A6508225A60D1E7D7
:1025FC0010B50446B0B190F82E3033B990F83130A4
:10260C00022B0AD06068FEF73BFD94F82E300133A4
:10261C00DBB284F82E30002010BDFFF711FC00282F
:10262C00F3D1EFE70048F7E7027000F010B504466D
:10263C00D0B190F82E30CBB190F82E30012B06D1C2
:10264C0090F83130022B0AD06068FEF739FD94F80F
:10265C002E30013BDBB284F82E30002010BDFFF78A
:10266C00EFFB0028F3D1EFE70148F7E70148F5E766
:10267C00027000F0057000F037B590F83150022D63
:10268C00044618D1A37F407D01229A40A37E3021BD
:10269C005943134B0B4410B903F1806303E0012839
:1026AC0005D103F1C0631A60002003B030BD217D59
:1026BC000029F6D1F0E7012DF6D1037D73B9112372
:1026CC008DF80730FFF794FF2A460DF107012046DD
:1026DC00FFF728FF2046FFF7A9FFE5E71323EFE7F5
:1026EC000CA0004090F83130032B05D00229417525
:1026FC0018BF0175FFF7C0BF00487047057000F0A8
:10270C0073B50446002869D00321FFF711FE0021A0
:10271C002046FFF7E7FF00212046FFF77BFD304BFB
:10272C001B7843B12F4A002352F823108C4245D119
:10273C00002142F8231094F83230002B42D1236848
:10274C000A22DA600021206A01F008F894F831308E
:10275C00022B03D10021607FFEF7A2FD6068FEF71B
:10276C00FFFBA068FEF7FCFBFEF7DAFB626A0023B6
:10277C00138053809380A26A13805380938001F05E
:10278C0002FC04F13C0506460DF107012846FEF754
:10279C00EFFE28B99DF8073013B12846FEF7A6FEC8
:1027AC00304601F0F6FB636B002B04DD0123636301
:1027BC002046FFF721FC002002B070BD0133042B32
:1027CC00B2D1B8E7012BBDD1206802F093FA23688F
:1027DC005A6C9207FCD40A225A60B3E70248EBE722
:1027EC00695A00202C510020027000F0F0B587B01F
:1027FC0004461646FFF77CFA0546F0B9CDE90116FA
:10280C0004936A460E4B606A039601A90593FFF781
:10281C00C1FA054688B994F82C3073B92046FFF7F5
:10282C0079FB00992046FFF73DFC94F83130032BDF
:10283C0003D025752046FFF71FFF284607B0F0BDD3
:10284C00017000F073B5506A01A91446FFF762FAE3
:10285C00334B98422FD094F83200019B002836D18C
:10286C002268116C11F4007128D02E4919619860FE
:10287C004FF40073936401F086FB0199CD68064612
:10288C0035B14A688B682046D31A0A680969A8478B
:10289C0001A9606AFFF758FA606A8588ADB2002D0D
:1028AC002FD001A9FFF736FA01992046FFF7FAFB62
:1028BC00304601F06EFB012002B070BD106CC505F6
:1028CC001BD51948186199604FF48073D2E7012821
:1028DC0013D12268D16A11F0800106D01149196117
:1028EC000021996080235363C5E7D06A400604D564
:1028FC000D48186199604023F5E700221A619A602F
:10290C00B9E7012323752046FFF7B6FE94F8313062
:10291C0084F82C50032BCBD02046FFF719FBC7E7CC
:10292C000B7000F00D7000F00C7000F02DE9F04110
:10293C00094F04460D460FCF88B001AE0FC697E87D
:10294C00070086E80700002C00F0C68445B9034E4A
:10295C00304608B0BDE8F0819C5B0300037000F0CA
:10296C0058220021204633F0A8F82046FFF708FB38
:10297C0006460028ECD12B7C84F8313001222B68E0
:10298C0084F83820CC4A2360934284F8320040F01B
:10299C007F81CA4B2362CA4BE3604FF4402323610F
:1029AC00D5E906230026626216805680968084F84C
:1029BC002C60A3621E805E809E806B6803936B8983
:1029CC00ADF81430AB89ADF81230AB7B8DF810300C
:1029DC000121EB7BBB4884F82D6084F82F60052720
:1029EC008DF816308DF8117000F0B8FE0121B64844
:1029FC0000F0B4FE0121206A00F0B0FE01A92868A5
:102A0C008DF8046002F05CFCD5F800C06A7ADCF842
:102A1C0078002B7A20F4F85020F01F00104340EA85
:102A2C0003200321CCF87800CCF874102068DFF870
:102A3C0088C2604540F06181BB4240F27981981FA9
:102A4C00042840F27781A3F10B00B84240F2748164
:102A5C00A3F11100062808D9A3F11801062940F2A8
:102A6C006D811F2B14BFFF213946042AE17540F2FA
:102A7C006781511F042940F26581A2F10A010529E1
:102A8C0040F26281A2F11001062940F25F81A2F1AD
:102A9C001701072940F25C811F2A14BFFF21002176
:102AAC002176002B58D0012B56D0022B54D0032B5F
:102ABC0052D0042B50D0052B4ED0062B00F0528157
:102ACC00072B00F05181082B00F05081092B00F0EE
:102ADC004F810A2B00F04E810B2B00F059810C2BEF
:102AEC0000F038810D2B00F037810E2B00F0368171
:102AFC000F2B00F03581102B00F03481112B00F0DE
:102B0C002D81122B00F02C81132B00F02B81142B18
:102B1C0000F02A81152B00F02981162B00F028815A
:102B2C00172B00F02781182B00F02681192B00F0B1
:102B3C0025811A2B00F024811B2B00F023811C2BE8
:102B4C0000F022811D2B00F021811E2B00F0208132
:102B5C001F2B0CBF0723FF23E376002A00F0A8836A
:102B6C00012A00F0A783022A00F09083032A00F0C8
:102B7C008F83042A00F08E83052A00F08D83062AA9
:102B8C0000F08C83072A00F08B83082A00F08A83DC
:102B9C00092A00F089830A2A00F06E830B2A00F0C0
:102BAC006D830C2A00F06C830D2A00F06B830E2AC7
:102BBC0000F06A830F2A00F06F83102A00F0628302
:102BCC00112A00F06183122A00F06683132A00F0A8
:102BDC006583142A00F06483152A00F06383162A97
:102BEC0000F06283172A00F06183182A00F06083DA
:102BFC00192A00F05F831A2A00F048831B2A00F080
:102C0C0047831C2A00F046831D2A00F035831E2AB8
:102C1C0000F034831F2A14BFFF23002323776B7C1F
:102C2C006376AB7C6377EB7CA3762B7DA37701215A
:102C3C002046FFF7EFFA064600287FF489AE01F034
:102C4C00A2F92F7C032F804640F036832B682A8C08
:102C5C00DA675A6E42F004025A665A6F42F030023A
:102C6C005A6728684FF0FF3383642B7C032B0CBF0F
:102C7C000521042102F0EAFA2B684FF44062DA6075
:102C8C002046FFF7A3F90646404601F082F95FE6BD
:102C9C000E4A934206D10E4B23620E4BE3604FF467
:102CAC0050237CE60C4A93421CD10C4B23620C4BF8
:102CBC00E3604FF4602372E6000001400042040020
:102CCC0001000C004041050000350A0000040140E1
:102CDC000052040001000D000008014000620400D5
:102CEC0001000E00C54A93427FF431AEC44B2362FF
:102CFC00C44BE3604FF4702351E6DFF80CC360451E
:102D0C0048D1052B14D9981F042813D9A3F10B0013
:102D1C00052811D9A3F1110006287FF6A6AEA3F160
:102D2C00180106290AD91F2B14BFFF2105219CE687
:102D3C0031469AE6012198E6022196E6394694E658
:102D4C000021ADE60121ABE60221A9E60321A7E6AD
:102D5C000521A5E60723FFE60823FDE60923FBE68C
:102D6C000A23F9E60B23F7E60C23F5E60D23F3E62D
:102D7C000E23F1E60F23EFE60023EDE60123EBE64D
:102D8C000223E9E60323E7E60423E5E60523E3E66D
:102D9C000623E1E6DFF874C2604540F03981042B6C
:102DAC0040F2F880591F032940F2F680A3F1090183
:102DBC00042940F2F380A3F10E010E2940F2F080B9
:102DCC00A3F11D01012940F2ED801F2B14BFFF213F
:102DDC000A21032AE17540F2E780111F032940F212
:102DEC00E580A2F10801042940F2E280A2F10D0174
:102DFC000E2940F2DF80A2F11C01022940F2DC8096
:102E0C001F2A14BFFF2100212176002B00F0DC804B
:102E1C00012B00F0DB80022B00F0DA80032B00F09A
:102E2C00D980042B00F0D880052B00F0E380062B12
:102E3C0000F0E280072B00F0C180082B00F0C0806E
:102E4C00092B00F0C3800A2B00F0C2800B2B00F082
:102E5C00C1800C2B00F0C0800D2B00F0BF800E2B1E
:102E6C0000F0C8800F2B00F0C780102B00F0A8805A
:102E7C00112B00F0A780122B00F0A680132B00F072
:102E8C00A580142B00F0A480152B00F0A380162B2A
:102E9C0000F0A280172B00F0A180182B00F0A0806E
:102EAC00192B00F09F801A2B00F09E801B2B00F03A
:102EBC009D801C2B00F09C801D2B00F09B801E2BFA
:102ECC0000F09A801F2B0CBF0223FF23E376002A0D
:102EDC0000F0D281012A00F0D181022A00F0D081C9
:102EEC00032A00F0CF81042A00F0E081052A00F0CB
:102EFC00DF81062A00F0DE81072A00F0C781082A4C
:102F0C0000F0BA81092A00F0B9810A2A00F0B881D0
:102F1C000B2A00F0B7810C2A00F0B6810D2A00F0C4
:102F2C00C5810E2A00F0C4810F2A00F0AF81102A4F
:102F3C0000F0AE81112A00F0AD81122A00F09C81C4
:102F4C00132A00F09B81142A00F09A81152A00F0B4
:102F5C009981162A00F09881172A00F09D81182A71
:102F6C0000F09C81192A00F09B811A2A00F09A81AA
:102F7C001B2A00F099811C2A00F098811D2A00F070
:102F8C0097811E2A00F096811F2A08BF052318BFBF
:102F9C00FF2343E631461CE708211AE7012118E715
:102FAC00394616E70A2114E700212DE708212BE703
:102FBC00012129E7052127E70A2125E7022385E7D7
:102FCC00032383E7042381E705237FE706237DE7BB
:102FDC0007237BE7082379E7092377E70A2375E7BB
:102FEC000B2373E70C2371E70D236FE70E236DE7BB
:102FFC000F236BE7002369E7012367E7000C01400F
:10300C000072040001000F000004014000080140A0
:10301C00B34EB0427FF49BAC072B21D9A3F108012E
:10302C00012940F2EF80A3F10A01052940F2EC805E
:10303C00A3F11001012940F2E980A3F11201052945
:10304C0040F2E680A3F11801042940F2E380A3F1D9
:10305C001D01012940F2E0801F2B14BFFF210A2122
:10306C00062AE17540F2DA80D11F012940F2D8809E
:10307C00A2F10901052940F2D580A2F10F01012925
:10308C0040F2D280A2F11101052940F2CF80A2F1C9
:10309C001701042940F2CC80A2F11C01022940F254
:1030AC00C9801F2A14BFFF2103212176002B00F0B9
:1030BC00C780012B00F0C680022B00F0C580032BCB
:1030CC0000F0CC80042B00F0CB80052B00F0CA80E4
:1030DC00062B00F0C980072B00F0C880082B00F0ED
:1030EC00B580092B00F0B4800A2B00F0A5800B2BC7
:1030FC0000F0A4800C2B00F0A3800D2B00F0A2801C
:10310C000E2B00F0A1800F2B00F0A880102B00F0EC
:10311C00AB80112B00F0AA80122B00F0A980132B8E
:10312C0000F0A880142B00F09180152B00F09080FB
:10313C00162B00F08F80172B00F08E80182B00F0D0
:10314C008D80192B00F08C801A2B00F08B801B2BA0
:10315C0000F08A801C2B00F089801D2B00F08880E9
:10316C001E2B00F087801F2B0CBF0223FF23E3765E
:10317C00002A00F08780012A00F08680022A00F0E5
:10318C008B80032A00F08A80042A00F08980052AAB
:10319C0000F08880062A00F08780072A00F08A80D9
:1031AC00082A73D0092A67D00A2A67D00B2A67D05D
:1031BC000C2A67D00D2A67D00E2A6DD00F2A71D039
:1031CC00102A71D0112A71D0122A71D0132A71D001
:1031DC00142A5BD0152A5BD0162A5BD0172A5BD039
:1031EC00182A5BD0192A5BD01A2A5BD01B2A5BD019
:1031FC001C2A5BD01D2A5BD01E2A5BD01F2A08BF5D
:10320C000823C4E608212BE7012129E7092127E738
:10321C00022125E7052123E70A2121E7032144E7C1
:10322C00082142E7012140E709213EE702213CE762
:10323C0005213AE70A2138E7062398E7072396E7A2
:10324C00082394E7092392E70A2390E702238EE7E9
:10325C0003238CE704238AE7052388E70B2386E7FF
:10326C000C2384E70D2382E70E2380E70F237EE7F0
:10327C0000237CE701237AE70623CFE40723CDE480
:10328C000823CBE40923C9E40A23C7E40323C5E4D8
:10329C000423C3E40523C1E40B23BFE40C23BDE4E6
:1032AC000D23BBE40E23B9E40F23B7E40023B5E4EC
:1032BC000123B3E40223B1E4022F7FF4D2AC607F8C
:1032CC000849FDF7EDFFFDF7D3FFA6752675677569
:1032DC002046FFF7D1F9C4E4034EFFF739BB00BF1A
:1032EC00000C0140691E0000027000F090F83120C3
:1032FC00012A10B5034610D102290ED0827D8A42D4
:10330C0001D1002010BD997511B9FFF78FF9F8E7BD
:10331C000129F6D1FFF76CF9F3E70148F2E700BF9A
:10332C00057000F0F0B587B004461646FEF7E0FCD9
:10333C00054658BB0493194B059394F83230039609
:10334C00CDE901162BBB23681B6903F0020313B9EB
:10335C002046FEF7C1FD6A4601A9A06AFEF71AFDD8
:10336C00054698B994F82D3083B900F00CFEA36A89
:10337C009B889BB2064633B100992046FEF7B4FEFB
:10338C00012384F83030304600F003FE284607B0A5
:10339C00F0BD012BDCD123689B68D6E7017000F0EF
:1033AC0070B588B00D220021294C2A4E04A832F0A9
:1033BC0084FB00250223012127488DF81010CDE94C
:1033CC00015503958DF80A3000F0C8F9294601AA79
:1033DC00204601F094FE4FF6FF73E3618DF8125016
:1033EC00354604A9204601F037FE1C4800F002FBCC
:1033FC009DF81230D8400133DBB20A2B30608DF8C7
:10340C00123002D8164B9842EBD81648164C00F0E6
:10341C00F1FA1649B1FBF0F12868154A0025E1FBD9
:10342C00004500232046294632F05CF9114B084A2E
:10343C001860114B00201870936923F010039361EE
:10344C000E4B4FF40062C3F880211A6008B070BDB7
:10345C0000800140584D002000020400404105004E
:10346C0080841E007000020020A1070000B0710BC8
:10347C0040420F00204E00205F5A002000E100E087
:10348C00044BDA68D20604D510225A61024B012291
:10349C001A707047008001405F5A00202D4B002AA3
:1034AC0070B52D4D446B08BF1D462C4B14BF102618
:1034BC00002698423AD102293FD004D8B9B101294B
:1034CC0021D000232DE0062931D0812935D00329C4
:1034DC00F7D1234B1A6819681B68120C1B0C03F0EC
:1034EC00F00302F4FE421A43C1F3034318E01D49F2
:1034FC000B680A6803F4FE4302F00F021A430B68D0
:10350C0003F0F0030CE0174A1368116812681B0CE7
:10351C00120C02F0F00203F4FE431343C1F3034216
:10352C001343B3402C400D4A2343536370BD0E4BE1
:10353C001A681B6802F00F02E2E7094A1368116867
:10354C00126803F4FE4301F00F010B4302F0F0028A
:10355C00E6E700BF0080FFFFFFFF00800020004077
:10356C001482E00F1082E00F1882E00F38B50C4681
:10357C0002238360002289780546FFF78FFF2079AC
:10358C0061786279030243EA016343EA0243E27819
:10359C0043EAC203E2790AB143F00053227A0AB13A
:1035AC0043F00403A2790AB143F00203627A0AB130
:1035BC0043F00103F328A27806D12AB903299CBF52
:1035CC0023F0706343F0806351B20029ACBF43EA2F
:1035DC00421343F0E0032B616B69002923F4F213CF
:1035EC0023F00703BCBF22F080021343227843EA86
:1035FC004243E27A0AB143F480436B616B0103F1FD
:10360C008443A27A9A60EB6FD5F88030EB6838BDB2
:10361C000C4B984210D90C4B984210D90222012322
:10362C000A490B600A49D1F8003123F0807343EA50
:10363C000263C1F80031704700221346F0E7012203
:10364C00FBE700BF0048E8010090D0034000C843EE
:10365C0000400E400E4B30B50E4C5B68C9B20023D7
:10366C0004EBC30215798D4203D154F833508542D3
:10367C000BD20133052BF3D1032205494B6823F000
:10368C00407343EA02634B6030BD5279F5E700BFEB
:10369C0000000E40C85B030038B5074C41F671338F
:1036AC00256C236401F0C0FE0021FFF7D3FF0DB1A0
:1036BC000023236438BD00BF00000E40044B1B6880
:1036CC005B0603D4034A1368002BFCD1704700BF80
:1036DC003C300E40C800C64308B5FFF7EFFF024B65
:1036EC005868C0F3014008BD00300E40044BD3F8BD
:1036FC004421D20703D4D3F840211042FBD17047A8
:10370C0000400E400C4AD2F89030516A0B4B21F01D
:10371C00300141F0100110B55162146BC0F3C311AC
:10372C0003310F2903EA040328BF0F21034343EAA3
:10373C000173136310BD00BF00400E4000F8FF0F73
:10374C0038B5054C41F67133256C2364FFF782FFC5
:10375C000DB10023236438BD00000E40C0F30322DA
:10376C00013A38B50546092A13D8DFE802F02313CD
:10377C001212051619121C20104C0020C5F304352A
:10378C0008B1FFF7B3FF04F1047405EBC404A40003
:10379C00216038BD00200A4CF0E70120094CEDE710
:1037AC001020094CEAE74FF48030084CE6E7002083
:1037BC00074CE3E70020074CE0E700BFB0400E40A9
:1037CC00C0400E40E0400E40E8400E40F0400E403D
:1037DC0050410E4000400E40C0F30313013B092B37
:1037EC002AD8DFE803F0050B0F1929291F23374BC3
:1037FC00274BD3F80001C0F304207047244BD3F8B7
:10380C001401F8E7224BD3F80001C0F30060431C0D
:10381C0001209840013870471D4BD3F80C01C0F3C0
:10382C00082070471A4BD3F80801F8E7194B984257
:10383C0004D0194B984207D000207047144BD3F892
:10384C00203103F00F03E3E7114BD3F82031C3F31E
:10385C000113DDE7114B98420CD003F5B01303F5BF
:10386C0080539842E8D10A4BD3F82801C0F30120C9
:10387C00031DCDE7064BD3F82831E8E7084B9842F7
:10388C00DAD1034BD3F8300100F00300704700BFCE
:10389C0000400E408006160080162E0090171A006D
:1038AC00A009140008B5FFF797FF013008BD000010
:1038BC0000F00F000138072848D8DFE800F0040FAB
:1038CC001947232D4735244BD3F8943003F00703C5
:1038DC00023B052B3CD8214AD05C70471E4BD3F8D9
:1038EC00803003F00703013B032B33D81C4AF3E76A
:1038FC00194BD3F8843003F00703013B032B29D871
:10390C00184AE9E7144BD3F8883003F00703013B5E
:10391C00032B1FD8144ADFE70F4B1B6F13F0010F5B
:10392C0014BF0920072070470B4BD3F85C3103F010
:10393C003003202B06D0302B06D0102B0CBF0720C9
:10394C000120704704207047082070470020704702
:10395C00052070470120704700400E40B85B030003
:10396C00BE5B0300C25B0300BE5B030008B50146EF
:10397C00FFF79EFF1B4B994211D01B4B994212D063
:10398C001A4B994204D11A4BD3F8800000F007006F
:10399C000138032824D8DFE800F00A0E1612144B65
:1039AC00D3F88400F2E7124BD3F88800EEE7BDE8B9
:1039BC00084001F09DBDBDE8084001F09FBDBDE889
:1039CC00084001F098BD01F033FD094BD3F80031EC
:1039DC00C3F300635A1C01239340B0FBF3F008BD02
:1039EC000020FCE7030020000500240002001E005C
:1039FC0000400E4000F47813B3F5B01F10B5044628
:103A0C007DD029D8B3F5202F07D00AD8B3F5003FC5
:103A1C0062D0B3F5802F54D05BB9BDE8104001F0F3
:103A2C0007BDB3F5602F00F0838004D8B3F5402FA9
:103A3C0058D0002010BDB3F5801F00F09080B3F576
:103A4C00A01FF6D14C48FFF791FF4C4BD3F8303107
:103A5C0003F00303D840EDE7B3F5101F66D011D87F
:103A6C00B3F5F01F46D0B3F5001F53D0B3F5D01FFC
:103A7C00DFD14348FFF77AFF404BD3F82821C2F33C
:103A8C00011244E0B3F5401F46D00BD8B3F5381FF4
:103A9C00CFD13C48FFF76AFF384BD3F82031C3F342
:103AAC000113D7E7B3F5481F4BD0B3F5781FC0D13E
:103ABC0001F0BEFC01462046FFF7F4FEB1FBF0F02E
:103ACC00B8E701F0B5FC2D4BD3F80C31C3F3082348
:103ADC000133B0FBF3F0ADE701F0AAFC274BD3F8B0
:103AEC000831F3E701F0A4FC244BD3F81431C3F3F1
:103AFC000423EDE72348BDE81040FFF737BF21480A
:103B0C00FFF734FF1D4BD3F8202102F00F020123E5
:103B1C009340DEE71A48EEE71948FFF727FF174BEB
:103B2C00D3F82831C3F301231A1DF0E71248E2E75A
:103B3C001548FFF7BDFE072811D009287FF479AF8F
:103B4C006BE71248FFF7B4FE072808D0082809D005
:103B5C0004287FF46EAFBDE8104001F0A5BC0C4BFF
:103B6C00186867E701F064FC044BD3F80031C3F329
:103B7C00042303FB00005DE70500240000400E4019
:103B8C000300200002001E0006000E00B8003200E8
:103B9C005C4200200E4B5A6A12F0300F04D02029E0
:103BAC0013D0302900D011B94FF4400200E0094A7B
:103BBC00D3F8901032EA0101FAD1520246BFD3F881
:103BCC00A000C0F38020012070474FF40002EFE703
:103BDC0000400E40FF33E10702280AD129B1064B01
:103BEC004FF48060C3F8A800596612B10220FFF7A9
:103BFC00D1BF0120704700BF00400E40F8B504282B
:103C0C0050D8DFE800F00A03116F740080264024BE
:103C1C0006230725002951D048E04FF400764FF4D5
:103C2C00807408230925F5E7002944D0324C636AD7
:103C3C0013F0300F37D1314BDB6B636ADB0705D5E3
:103C4C00636A23F0300343F01003636204240223FD
:103C5C000325294E34662A4E33449B001F68002FDF
:103C6C00FCD0FAB13544AD002B68002BFCD00228F7
:103C7C0018D1B9B1204E716A11F0010118D001228E
:103C8C002021FFF7A9FFD6F89C7001220021022009
:103C9C00FFF7B4FFC7F30A00FFF734FD34662B6857
:103CAC00002BFCD0F8BD0424022303250021D0E70F
:103CBC00FFF770FFE7E70826022303250E490120D2
:103CCC000E6600FA03F3D1F890001842FBD1002ADB
:103CDC00E8D00123084A03FA05F5D2F890302B42BC
:103CEC00FBD1DFE7012402260023254692E720269C
:103CFC001024042305258DE700400E4000300E40B3
:103D0C008004F210112870B506460C4626D1042901
:103D1C0012D101F0C9FB0546A8B10021284600F0DC
:103D2C00A9FB06F00F06013E072E6FD8DFE806F060
:103D3C0023186A6E68886E93052904D1614B1D683F
:103D4C00614B9D42E9D8023C0A2C5FD8DFE804F0B5
:103D5C001E4E40475E5E5E5E5E52B5000025E0E79B
:103D6C005A4D013C092C51D8DFE804F068515850E9
:103D7C00505F5050504E023C0A2C47D8DFE804F0FC
:103D8C000737293046464646463B3E000025002074
:103D9C00042401221146FFF731FFFFF77DFC0DB122
:103DAC00FFF78CFC4A4B5C6701F06CFB044601F09E
:103DBC003FFBFFF72DFCFFF78FFC01462046FFF77A
:103DCC00BFFC1DBB28460121BDE8704000F052BB72
:103DDC0000254048FFF71CFC02200446D9E70025CB
:103DEC003C48FFF715FC01240320D2E700250120F5
:103DFC000324CEE7002503200524CAE70724CCE7DB
:103E0C00354DAEE7354DACE704232B6070BD012278
:103E1C0011460020FFF7F2FE0223F6E701221146BD
:103E2C001046FFF7EBFE0123EFE701F001FBFFF774
:103E3C00EFFB2B4B01221A600323E6E70023E4E798
:103E4C00072C04D0092CE1D1214B012201E0204B9D
:103E5C0000221A67DAE7013C072CD7D801A353F8E4
:103E6C0024F000BFC33E0000193E0000193E0000C4
:103E7C00B53E0000193E0000193E0000A73E0000B0
:103E8C00913E000003221249D1F85C3123F030033B
:103E9C0043EA0213C1F85C31B8E701221146042051
:103EAC00FFF7ACFE0122EEE7012211460220FFF7DC
:103EBC00A5FE0222E7E70022E5E7FFF7EDFB002570
:103ECC0007246FE754420020002D310180400E4042
:103EDC0000400E400148E80188400E4084400E40EE
:103EEC000816C84310B504461120FFF7E1FC012267
:103EFC0000210220FFF782FE174A217C536A23F02F
:103F0C000103022908BF43F001035362134B2178CC
:103F1C001960637AA18843EAC123D362136BA07A38
:103F2C00217A03F07F630343E08843EAC02343EA2A
:103F3C00C11303310F2928BF0F2143EA0173136307
:103F4C00A37B617B1B0143EA0133E17B0B43217BA8
:103F5C0043EA0143536310BD00400E40A004C84324
:103F6C0072B6704762B67047EFF3108072B6704746
:103F7C0000B962B67047602383F311887047002341
:103F8C0083F311887047EFF31180602383F311885A
:103F9C00704780F311887047EFF31083DB0706D46A
:103FAC00EFF311805F2894BF00200120704701209F
:103FBC00704700004109054A00F01F0352F8210028
:103FCC00D840C04300F00100704700BF00E100E0A2
:103FDC0010B50446EFF31083DB0733D4FFF7EAFF89
:103FEC0000282ED1002CA7BF04F1604404F56144D5
:103FFC0004F00F04144BACBF94F800231A5D520963
:10400C00EFF3118313B1B2EB531F1BD20F4C636848
:10401C00C3F30803ABB1103BDBB259B20029B5BFF7
:10402C0003F00F0301F16043043B03F56143B6BF9A
:10403C001B1993F80003187E4009824234BF0020FC
:10404C00012010BD0120FCE714ED00E000ED00E0C4
:10405C00034B186880F04000C0F38010704700BF1D
:10406C003C300E4042EA032340F2011293422BD023
:10407C00B3F5817F08D2012B1DD030D3B3F5807FEF
:10408C0031D0002213461CE040F20122934222D090
:10409C0006D8B3F5007FF4D1174BD3F870310DE08F
:1040AC00B3F5407F23D040F201329342E9D1124B59
:1040BC00D3F878310BE0104BD3F87431C3F30722EB
:1040CC00DBB203600A6070470B4BD3F874311A0EE5
:1040DC00C3F30743F5E7084BD3F87831EEE7064B0B
:1040EC00D3F86C31EAE7044BD3F86C31EFE7024BB1
:1040FC00D3F87031EBE700BFB081E00F08B5FFF7E4
:10410C00A7FF18B1024A1368002BFCD108BD00BFF1
:10411C00C800C64308B5FFF79BFF80B1FFF7EEFF61
:10412C00074B19685A68C1F30121C2F3014291424D
:10413C001A688CBF42F0100222F010021A6008BDFF
:10414C0000300E40064B1B68DB0608D5054B1B697F
:10415C00C3F30443082B02BF034B044A1A60704795
:10416C0000300E4000400E4054420020C0EA2101B5
:10417C00154B0228D3F8803113D0032814D0012812
:10418C0014BFDBB2C3F307231B0323F47042B1B992
:10419C00BAB90E49CA6E22F470421343CB660120A1
:1041AC007047C3F30743EFE71B0EEDE70749D1F860
:1041BC00EC2022F470421343C1F8EC30EFE7002AF4
:1041CC00F4D00020704700BFB081E00F00300E40EB
:1041DC0070B5FFF73DFF38B1234B1B78C3F10202DA
:1041EC0010239340214A13612149224CD1F880516C
:1041FC0045F60E03C1F88031236823F0AA03DB05D2
:10420C00DB0D0B66FFF77AFF184B1B68D80605F021
:10421C00010515D5D1F84031DA01FBD4164B1B68DA
:10422C000B61164B197805290ED1154B1E68FFF73B
:10423C0065FF0E4B59683046C1F30141FFF780FA18
:10424C000E4B1978052902D01120FFF75BFD23686E
:10425C00DB075EBF064B02221A661DB1044B00221F
:10426C00C3F8802170BD00BF6F5A002000300E4093
:10427C0000400E409C4A0020E44D0020D8580020FD
:10428C005442002010B50B4C0B4BD4F890201A6004
:10429C001120FFF70DFB094B1870FFF72FFF084B90
:1042AC00084A5B68C3F301431370074B22691A6019
:1042BC0010BD00BF00400E409C4A0020D858002082
:1042CC0000300E406F5A0020E44D002070477047BC
:1042DC007047000010B5044608B1FFF7D3FFFFF795
:1042EC0019FF154A136943F004031361FFF7EEFF3E
:1042FC00FFF7EDFF114B1B68DB0616D5FFF734FEFD
:10430C0031F004FCFFF734FEFFF7E2FF04F018FB7A
:10431C006CB1FFF75DFF0A4A136823F0004313608A
:10432C0044B9BDE8104001F0ADB830BFECE7FFF781
:10433C0009FFF0E710BD00BF00ED00E000300E40BB
:10434C004C310E4010B5044608B1FFF79BFFFFF748
:10435C00E1FE1B4BD3F8802145F60E01D207C3F8C2
:10436C00801148BF00224FF42071196648BFC3F872
:10437C008021144A136943F004031361FFF7A6FF6D
:10438C00114B1B68DB0614D5FFF7EEFD31F0BEFBBD
:10439C00FFF7EEFD04F0D4FA6CB1FFF719FF0B4AEE
:1043AC00136823F00043136044B9BDE8104001F0DA
:1043BC0069B830BFEEE7FFF7C5FEF0E710BD00BFF0
:1043CC0000400E4000ED00E000300E404C310E403D
:1043DC00FFF758BFFFF7FCBE7047704770B50D4C28
:1043EC00A569A6694AF6E85325F4403545F400352D
:1043FC0046F44036A360FFF7EFFFFFF7EEFFA56131
:10440C00A661A561A661A561A661A561A661A5616C
:10441C0070BD00BF00300E4070B504460E46FFF76D
:10442C0017FE10B3FFF76AFE104B5B68C3F3014332
:10443C009C421AD00E4BD3F8003100F0F9FF022C3D
:10444C00054602D12146FFF77BF9C4F10202102385
:10445C009340064A13610EB1FFF750FE2CB921466A
:10446C002846BDE87040FFF76BB970BD00300E40B8
:10447C0000400E4038B502460D46FFF7E9FDB8B1D5
:10448C0042B90C4BD3F8004100F0D2FFC4F3042224
:10449C0002FB0002084B1B7829463BB1074B9A42A2
:1044AC0004D80220BDE83840FFF7B6BF0020F9E77A
:1044BC0038BD00BF00400E406E5A0020002D310167
:1044CC00034B02781A7001210020FFF7D3BF00BF05
:1044DC006E5A0020064942780B6823F4407343EA75
:1044EC000223022A0B6004BF024B5B6A704700BFB9
:1044FC0000300E4000400E400378134A002B4378E6
:10450C0070B514BF04260026002B8378946914BF61
:10451C0002250025002B037924F03F0443EA040311
:10452C00C47814BF08210021012C08BF43F00103FB
:10453C0033432B430B4393611368417923F440338A
:10454C0043EA0143136070BD00300E40224B4AF623
:10455C00E85210B5596B5A639A6FD407FCD41B6C94
:10456C0013F003031EBF1D4A01241460834203D1C0
:10457C0008B91A4B186010BD032B17D0B3B1164AEB
:10458C001446936FDB07FCD4136C23F00303034333
:10459C001364A36F13F00103FBD100300F4A18BF53
:1045AC0001200129106008BF6363E4E7431E012B5F
:1045BC00E5D8094B4FF40022DA629A6FD207FCD48B
:1045CC001A6C22F0030242F001021A64024A536A86
:1045DC001C03FCD5D3E700BF00300E40B40AC64321
:1045EC002DE9F04F002389B0CDE90233CDE9043336
:1045FC00CDE90633A0F5E163B3F5966F054601915D
:10460C00934603D9002009B0BDE8F08F4D4BB0F5AF
:10461C00E16F8CBF4FF0010A4FF0000AD3F86831FC
:10462C0000F083801A0EC3F30743079204934FF4F0
:10463C0096694FF4E164DFF81081D8F84C70C7F339
:10464C0001773B46524605A902A8FFF70BFDD8F8A7
:10465C00EC60C6F301263346524606A903A8FFF7C1
:10466C0001FD0798049A2C1B811A6143B1FBF9F3E5
:10467C00D1182CBF012300238842C3D3002BC1D1F6
:10468C00069A0398131A6343B3FBF9F310EB030A6E
:10469C002CBF012300235245B4D3002BB2D1059B70
:1046AC00029A981A4443B4FBF9F912EB09092CBF8E
:1046BC00012000204B45A5D30028A3D1BBF1000F4E
:1046CC000ED0D8F85C3023F4FE4323F00203B5F58A
:1046DC00E16F43EA012318BF02200343C8F85C30A2
:1046EC00019B63B300213846FFF742FD002889D0B7
:1046FC0001213046FFF73CFD002883D0124A536E4F
:10470C00D14538BFD14623F4FF73B9F1E70F23F03D
:10471C00010328BF4FF0E709B5F5E16F18BF43F06F
:10472C00010343EA490353666DE7C3F30722DBB287
:10473C00079204934FF416794FF496647BE70120AB
:10474C0061E700BFB081E00F00300E40304B1A6FB4
:10475C00D96CC90702F0070242D5012A40D91328A7
:10476C0051D9143813288CBF102308232849013B36
:10477C00CA6C180322F47F4240EA03231343CB6430
:10478C00244BCA6C1B88C2F303222833013202EB80
:10479C00820003EB5303B3FBF0F3C86C013B072B14
:1047AC0020F0EE6028BF072340F4801040EA03633A
:1047BC00CB64194BB3F90030002B10DB28335008B5
:1047CC0000EB420203EB5303B3FBF2F30A6D072B2E
:1047DC0028BF072322F0700242EA03130B657047CF
:1047EC00DB6CD90706D4012A04D809280BD90A385E
:1047FC000928B8E7064BDB6C13F00103B6D0012A8D
:10480C0003D82728AFE70423B0E70023AEE700BFA7
:10481C0000300E40D4530020D6530020054A064BDE
:10482C001B68136F23F007031843044B1067188899
:10483C00FFF78CBF00300E408009C643D2530020D6
:10484C00364B022270B59A639B6B03F00F039342B5
:10485C00044602D00025284670BDC1888588B0F971
:10486C000C604A294ED9B1F5FA7F4DD340F6C313EB
:10487C00994294BF4FF000514FF040512748C36C00
:10488C0023F0405323F00103002EA8BF43F0010393
:10489C000B43C364D0F8EC3043F44073C0F8EC30F5
:1048AC001F4B1D80C36E43F08073C3661D4B18688D
:1048BC0000B10420FFF7B2FF1B4B218919801B4B61
:1048CC00B4F90C20A0881A80FFF740FFA37BF3B14A
:1048DC00012B20D0012211466088FFF781FE05468E
:1048EC000028B7D00D4A6078D36B43F48063D36350
:1048FC00FFF72CFEA37AA3F12002534253410C4A3A
:10490C001360A8E70021B9E74FF08051B6E7034BDD
:10491C00084A9A65DEE7014B074AFAE700300E4079
:10492C00D25300208009C643D4530020D653002014
:10493C009407C64377402057372110B7134A1448C1
:10494C001368C3F3074307EE103A536DDBB207EE5F
:10495C00903AB8EEE76ADFED0F7AC6EE276ADFED24
:10496C000E7A76EEA76A026A016AD2B2C9B28A429C
:10497C00F9D19B1A07EE903AB8EEC77AF8EEE77ABF
:10498C00A7EEA67A17EE100A704700BFB081E00FB1
:10499C0000300E400000C842A8C68B3E70B50546DC
:1049AC000E461446FFF7E0FA2A68544004EA060162
:1049BC0051402960BDE87040FFF7DABA044AD2F8DA
:1049CC00443423F003031843C2F84404704700BF77
:1049DC0000A00040072AF8B501F0030615461F4653
:1049EC004FF00F0120D8940000FA04F2A1401648B1
:1049FC00FFF7D4FF0321154806FA04F2A140FFF794
:104A0C00CDFF134B9DF818202B449B001F60C3F85F
:104A1C008020012202FA05F50E4AC2F824549DF8B2
:104A2C001C20C3F80023F8BDA2F10804A40000FA6E
:104A3C0004F2A1400848FFF7B1FF032106FA04F283
:104A4C00A1400648DBE700BF00A4004008A40040DA
:104A5C008020851000A0004004A400400CA400405D
:104A6C00F0B54AB130261E4C012546438D403444E6
:104A7C000BB304F1C06425603024444304F180443A
:104A8C00072904F5204419D865688E000F27B74014
:104A9C0025EA070502FA06F63543656052B901228C
:104AAC0002FA01F1302250430D4A0244A3B102F143
:104ABC00C0621160F0BD04F18064DCE701F1804557
:104ACC00083DA668AD000F27AF4026EA070602FA9C
:104ADC0005F53543A560E1E702F18062E9E700BF27
:104AEC000CA00040084B4FF40072C3F88020BFF3B9
:104AFC004F8FBFF36F8F054B0021D9664FF4AA403F
:104B0C001962FEF72BBE00BF00E100E000200E4052
:104B1C00034B03449B0081F001011960704700BFF7
:104B2C00A001F11010B5044601214FF4AA40FEF784
:104B3C0015FEB4F8013022785BBA9BB243EA0263EB
:104B4C000B4A136000231362D36253634FF000438C
:104B5C00D3664FF0FF339366064A4FF40071C2F8E8
:104B6C008011E3785B01DBB282F80933116010BD70
:104B7C0000200E4000E100E02DE9F041C3B2254DCC
:104B8C0091F80AC00F7B01260C469E404FF030086E
:104B9C00CB7A497B08FB00504FEA035E2368C0F8D0
:104BAC0080304EEA0C4343EA475322F00302C0F82C
:104BBC008810C0F88430C0F89820AE66FFF7E3F98F
:104BCC00EB6E3343EB66237A13B16B6B33436B633E
:104BDC00637A13B1EB6A3343EB6222792B6822B10F
:104BEC00D243120262F47F42134062790AB143EA63
:104BFC000223A2790AB123EA0203E27902B1134338
:104C0C00044A1360044B1E60D663BDE8F041FFF705
:104C1C00C0B900BF00200E4028200E4410B5C0B211
:104C2C0001248440FFF7AFF9054AD36E23EA04034D
:104C3C00D366044B1C60BDE81040FFF7AAB900BF57
:104C4C0000200E4020200E44F8B5C3B201259D4033
:104C5C000446FFF798F90A4B30221E6E9F6A02FB3E
:104C6C000434D4F88C40FFF794F93D4206D1C4F3D8
:104C7C000A1008B9354200D10130F8BD0020FCE71C
:104C8C0000200E40036CDB0702D4436C0B42FCD1BA
:104C9C0070470000064B0B4003F58073B0FBF3F23A
:104CAC0003FB12000002B0FBF3F000EB0220704794
:104CBC00F8FF0100074B984210B5044607D106488F
:104CCC00FEF798FEE168BDE81040FFF7E3BF002057
:104CDC0010BD00BF00A0044090171A00CB435B002E
:104CEC0003F00A0310B541EA03020221FFF7CAFFE1
:104CFC00426010BD436C002BFCD101220264EA22FD
:104D0C00426040F2F9720360C360036143618363E4
:104D1C004263C363436583650364704710B5024601
:104D2C000C469368DB06FCD540211046FFF7AAFF22
:104D3C00946210BD054B5A685B68054B41F67132A5
:104D4C001A649A6822F001029A60704700300E4093
:104D5C0000000E40034B9A6822F001029A60002278
:104D6C001A64704700000E40094A0A4BD969C907FA
:104D7C0005D512B96FF002007047013AF6E7002A28
:104D8C00F8D001221861DA60D86940F380007047CE
:104D9C008096980000000E4070B509B9002070BDD7
:104DAC000E4A0023082550F8234094610C4CD56022
:104DBC000133D669F60705D514B96FF00200EEE79A
:104DCC00013CF6E7002CF8D0D469A40702D4994230
:104DDC00E9D1E3E76FF00100E1E700BF00000E400E
:104DEC00809698002DE9F8431C4B884641F67131AA
:104DFC001D6C19641A49074648684968996841F05E
:104E0C000101ADB2996096084FF00009B14501D38C
:104E1C00002005E007EB89042046FFF7A5FF48B109
:104E2C000E4B9A6822F001029A600DB100221A64AE
:104E3C00BDE8F883C4F30A04C4F50064A408A6EB27
:104E4C0009039C4228BF1C4621464046FFF7A4FF9D
:104E5C000028E5D1A14408EB8408D7E700000E40F8
:104E6C0000300E40204B41F671311A6C10B51964AC
:104E7C001E494C684968996841F00101996001210B
:104E8C001861D960D9694C0792B209D5996821F09B
:104E9C00010199600AB100221A644FF0FF301FE043
:104EAC000221134CD9601946D869C00700D56CB9DA
:104EBC00C8698B6810F0020023F001038B6007D0E7
:104ECC000AB100230B646FF0010009E0013CEBE731
:104EDC0024B902B10C646FF0020001E00AB108645D
:104EEC0010BD1046FCE700BF00000E4000300E4025
:104EFC0080969800FFF776BF10B590FAA0F2054C9B
:104F0C002368B2FA82F223EA000091400143216047
:104F1C0010BD00BF00500E40014B01229A6070473B
:104F2C0000500E40124BF0B55C68124D124E00232F
:104F3C0018463768EA187F0751685A5908D4B2F5F1
:104F4C00806F03D00DD8B2F5007F01D141F4807190
:104F5C00144202D0214208BF10430833482BE8D139
:104F6C00F0BDB2F5006FF1D0B2F5803FEDE700BFB8
:104F7C0000500E40F05B0300E841E00F8B784A785C
:104F8C009B0143EA82030A781343CA7843EA02136B
:104F9C000A7943EAC2234A7943EA02338A79043014
:104FAC0043EA42430001014A135070470020044079
:104FBC00014B1860704700BF0000844242780179B1
:104FCC000378002A827870B514BF04260026002AC4
:104FDC00C27814BF10250025002A42794FEA02320C
:104FEC0042EA012242EA0302837914BF20240024FE
:104FFC00002BC37942EA034343EA0603027A43EAED
:10500C00050314BF4FF4004100212343002A14BFB1
:10501C004FF4003200220B431343014A136070BD5E
:10502C00002004400B4A536911699B0003F03C03B8
:10503C00C1F381110B438370136903F03F03437079
:10504C009369D26903F0F003C2F3031213430370A4
:10505C00704700BFD0FF0FE02DE9F04F0C780CB972
:10506C0002234360002343624B78CA7891F802B064
:10507C008D7A91F808A091F8069091F80780002B92
:10508C004B7A4FEA024214BF4FF0400E4FF0000E25
:10509C0042EA0B62002B14BF8023002342EA0A026F
:1050AC00002DCD7A42EA892214BF4FF0200C4FF02C
:1050BC00000C42EA0822002D0D7B42EA0E0214BFBE
:1050CC00102700271343002D0D79497943EA0C036F
:1050DC0014BF082600263B43002D14BF4FF4005587
:1050EC0000253343002914BF4FF0805100212B437E
:1050FC000B4303600CB101234360BDE8F08FF0B5A6
:10510C00537814781B0643EA846394792343947888
:10511C0043EA0443D47843EA0433147943EA8423FE
:10512C00547943EA0423D479002C147A14BF4FF039
:10513C0080470027002C547A14BF4FF000560026ED
:10514C00002C947AD27A43EA027343EA070314BF21
:10515C00102500253343002C01F1060114BF042453
:10516C0000242B43090123434350F0BD70B5054681
:10517C0016461C4619B91348FEF73CFC0146202C78
:10518C0008D001D8E4B170BD402C17D0602CFAD1F6
:10519C00042300E0082373435A0802EB4112B2FBCC
:1051AC00F3F2094B203A03EAC2022B6823F06003A6
:1051BC002B602B681C432C606A61E4E70623EAE74A
:1051CC001023E8E740410500F8FF7F00F8B5154FC4
:1051DC0014460F401ABB202B07D0402B07D0002BB6
:1051EC000CBF10254025012603E01D46FBE780255A
:1051FC00032607F580777E4300233246194630F0AC
:10520C0071FA544300FB05F705FB0344A2FB0501AF
:10521C0021443246002330F065FA3844F8BD80252D
:10522C000024E0E7F8FF7F0070B5044605680648E7
:10523C00FEF7E0FB2368616905F0010203F06003EF
:10524C00BDE87040FFF7C2BF40410500CB435B0097
:10525C0003F00A03C360C1607047000040F6AA6304
:10526C00C36041F20502002303604260104A836070
:10527C004361C3648264036643678367C3670D4BF2
:10528C000D4A984209D0904207D003F5006398422A
:10529C0003D003F58063984201D1002303650023FA
:1052AC009042836502D0054A904200D1C365704795
:1052BC00F9FF01000000014000040140000C014016
:1052CC0038B505460C46FFF7C9FF8B7C1BB103684C
:1052DC0043F080430360E37C1BB1237D43F08003E8
:1052EC00AB65228A637B1343E28913436B60D4E979
:1052FC000112237B2846FFF739FF637D1BB12B6816
:10530C0043F480332B60A37DE27D1B07120502F46E
:10531C00E00203F0E04313432B666B6F23F0300382
:10532C006B676A6F237E13436B672378EB6038BD22
:10533C0003691B06FCD5C069C0B2704703695B06E4
:10534C00FCD5416370470368DB060FD447F2315339
:10535C008268D20701D5013BFAD1036803F001033F
:10536C008B421EBF00F1047040010160704703685E
:10537C00D90707D583689A0704D48368DB07FCD464
:10538C000123436070474B78CA78002B8B782DE94A
:10539C00F04114BF4FF0020E4FF0000E002B14BF63
:1053AC0004230023002A0A7991F807800C7814BF93
:1053BC004FF0080C4FF0000C002A4A7914BF20273C
:1053CC000027002A8A7914BF40260026002A0A7A70
:1053DC004FEA022242EA083291F8098042EA0402BA
:1053EC00CC7A897A42EA084242EA016242EA0E0227
:1053FC0043EA020343EA0C0343EA070314BF1025F4
:10540C0000253343002C14BF4FF0004400242B43E1
:10541C00234347F231528168C90701D5013AFAD1C9
:10542C000360BDE8F08100000048704700F04902BD
:10543C00104AD2F8943003F00703023B032B13D825
:10544C00DFE803F00C14020E0B4B1B68D2F80001C2
:10545C00C0F304200130B3FBF0F07047074BF4E7C6
:10546C00074B1B685B08F1E7054BEEE74FF4004375
:10547C00ECE700BF00400E40584200205042002094
:10548C005442002008B5FFF7D3FF054BD3F8083181
:10549C00C3F308230133B0FBF3F0024B186008BDD3
:1054AC0000400E404C420020014B1868704700BF72
:1054BC0050420020054B1860054BD3F8943003F094
:1054CC000703022B01D1FFF7DDBF704750420020CC
:1054DC0000400E40044B054A9A60D3F8882042F4F1
:1054EC007002C3F88820704700ED00E00002000055
:1054FC004FF4004070474FF47A707047014B1868B6
:10550C00704700BF5842002008B5064B1B689B69CA
:10551C00DB0205D5012803D840F202202AF010FB4B
:10552C00012008BD2808E10F064B1B689868C0F3E2
:10553C000343C0F303621B0243EA0233C0B21843B5
:10554C00704700BF2808E10F70B50438C6B0FB28BF
:10555C0002F24380DFE810F07C0241104110411050
:10556C00C202411041104110411041104110411034
:10557C00BC04AA0441104110810B0C0518057304DE
:10558C00820441105D0541104110760545016F0301
:10559C00F0031D018D04411041104E0941104110C2
:1055AC004102CD02D40D450E050EF20DC10D320E89
:1055BC00720E411041104006E707A701D10666069E
:1055CC001707C6075A078503FC00B4012A024110CD
:1055DC00EA0401074C0641104110411041104110E2
:1055EC0041104110540198017F01411041104110AC
:1055FC00B108A80741104110411041104110411051
:10560C00411041109E088205160830089505C0050A
:10561C002A0610064110F9056D084110290A970B4E
:10562C00B10BB20AC80A6F0AF90B280B41100C0C0B
:10563C007B0DF80AD60B580C410C8A0A740A300CF4
:10564C004110FE0168040C03411041104F08E305A2
:10565C00411041109F06E40E810E030F1B0FF70E35
:10566C000F0FA50EBB0E8D0ECE0E990E41104110D4
:10567C00411041104110411041104110920741104E
:10568C004110370524054110010141104110270F2D
:10569C004110610F2610AA0FE00FF80F940F411064
:1056AC00690C8B0C41104110411041108408480AC0
:1056BC00C50F630A6C09AC09100AE00941104110CE
:1056CC004110F904530941105F09A3091409CF09CA
:1056DC00F80C42035903640341104110AA0C411009
:1056EC00E10C080D4110411041104110530BF2090F
:1056FC004A05370341103101D4092C0920098609C8
:10570C009209E208080938094309640D800D9C0DC3
:10571C00900D540D4F0D411041104110411041108E
:10572C00EC0F4110440F411009101A10740F3F0870
:10573C00411041104110D3056208B30D9E099F041E
:10574C00330456041E04FB034110ED02CF08E202A1
:10575C0019F0AAFA012046B070BD12AB01930AAB46
:10576C0000930CAA24ABB34901202DF051FABDF8DB
:10577C0048309DF828202499BDF8300020F076F9A7
:10578C0046AAAD4902F8EC0D00202DF041FA01209B
:10579C00E1E724AB0CAAA94901202DF039FA249990
:1057AC009DF830002DF077FF46AAA34902F8D00DE2
:1057BC0000202DF02DFA0120CDE70CAB24AAA04936
:1057CC0001202DF025FA9DF83010249815F0FCFAE4
:1057DC0046AA994902F8D00D00202DF019FA0120A3
:1057EC00B9E724A82CF0E8FF24A818F089FB46AAF6
:1057FC00914902F8D00D00202DF00AFA0120AAE7F9
:10580C000CAA8D4901202DF003FA24A99DF8300033
:10581C002DF03FFF46AA884902F8D00D00202DF04C
:10582C00F7F924A908202CF0B1FF9DF898002CF072
:10583C0075FFBDF89A002CF081FF9DF89C002CF0B0
:10584C006DFF9DF89D002CF069FF9DF89E002CF0DB
:10585C0065FF01207FE786230BAA77498DF8483036
:10586C0001202DF0D5F924A99DF82C002DF01AFF5C
:10587C0046AA12AB02F8E80D72490093002024AB43
:10588C002DF0C6F9012066E724A820F09BFD46AA5E
:10589C00694902F8D00D00202DF0BAF924A82DF09A
:1058AC007EF9012057E724A820F088FD46AA24ABF6
:1058BC0002F8D00D644900202DF0AAF901204AE726
:1058CC0024A819F005FA46AA5B4902F8D00D00206D
:1058DC002DF09EF99DF890002CF020FF9DF8910082
:1058EC002CF01CFF9DF892002CF018FF9DF89300F3
:1058FC002CF014FF9DF894002CF010FF9DF89500EF
:10590C002CF00CFF9DF896002CF008FF9DF89700EA
:10591C0000F001002CF002FF9DF89700C0F340004E
:10592C002CF0FCFE9DF89700C0F380002CF0F6FEE6
:10593C00BDF898002CF002FFBDF89A002CF0FEFE8A
:10594C0027A908202CF022FF9DF8A4002CF0E6FEDD
:10595C00012000E70CAA384901202DF059F924A99F
:10596C009DF8300022F086F946AA334902F8D00D92
:10597C0000202DF04DF9BDF890002CF0DFFE9DF8C5
:10598C0092002CF0CBFE9DF893002CF0C7FE9DF8F6
:10599C0094002CF0C3FE9DF895002CF0BFFE08205F
:1059AC000DF196012CF0F2FE0120D4E646AB082254
:1059BC0003F8EC2D254924AA01202DF029F912A970
:1059CC0024A822F0FDFD46AA12AB02F8E80D1B49F3
:1059DC0000202DF01DF90120BDE624A912A82DF000
:1059EC0023FE46AA12AB02F8E80D174900202DF051
:1059FC000FF924A908202CF0C9FEBDF898002CF052
:105A0C009DFE9DF89A002CF089FE9DF89B002CF0D1
:105A1C0085FE9DF89C002CF081FEBDF89E002CF0BC
:105A2C008DFE9DF8A0002CF079FE29982CF09AFEA2
:105A3C00012090E6785C0300CB5C03007D5C0300E6
:105A4C009A5C0300BA860300BA5C0300228603004A
:105A5C0024A819F05FF946AAC94902F8D00D002014
:105A6C002DF0D6F89DF890002CF058FE9DF8910082
:105A7C002CF054FE9DF892002CF050FE9DF89300F3
:105A8C002CF04CFE9DF894002CF048FE9DF89500EF
:105A9C002CF044FE9DF896002CF040FE9DF89700EB
:105AAC0000F001002CF03AFE9DF89700C0F3400086
:105ABC002CF034FE9DF89700C0F380002CF02EFEE5
:105ACC00BDF898002CF03AFEBDF89A002CF036FE8A
:105ADC00082027A92CF05AFE01203CE619F048F9C1
:105AEC0046AAA74902F8880D00202DF091F8012054
:105AFC0031E612AC0823214624A88DF830302DF065
:105B0C00B7FD46AA0CAB02F8EC0D9E4900930020A1
:105B1C00019424AB2DF07CF801201CE615F0FCFA66
:105B2C0046AA974902F8880D00202DF071F8012043
:105B3C0011E60CAA924901202DF06AF824A99DF8CF
:105B4C00300015F06FFA46AA8D4902F8D00D0020EE
:105B5C002DF05EF89DF890002CF0E0FD9DF8910082
:105B6C002CF0DCFD9DF892002CF0D8FD0120F2E524
:105B7C000CAA834901202DF04BF824A99DF8300084
:105B8C0020F0E8FE46AA7E4902F8D00D00202DF048
:105B9C003FF8BDF890002CF0D1FDBDF892002CF030
:105BAC00CDFD9DF894002CF0B9FD9DF895002CF0DE
:105BBC00B5FD9DF896002CF0B1FD9DF897002CF0EA
:105BCC00ADFD0120C7E52DF0CFFC46AA6C4902F8CB
:105BDC00880D00202DF01CF80120BCE50BAA6849AB
:105BEC00012012AC2DF014F8224624A99DF82C00AB
:105BFC002DF0BCFC46AA24AB02F8E80D62490094D7
:105C0C0000202DF005F80120A5E52DF0B3FC46AAE7
:105C1C005B4902F8880D00202CF0FAFF01209AE570
