:020000040800F2
:1060000000100020516E0008B5B10008B9B10008B9
:10601000293B0308BDB10008C5B10008293B0308AE
:10602000293B0308293B0308293B0308293B0308B4
:10603000C9B10008A0C80308293B0308293B03088D
:10604000996D0008293B0308293B0308293B0308F5
:10605000293B0308293B0308293B0308293B030884
:10606000293B0308E90101082B670308293B0308C2
:10607000293B0308293B0308293B0308293B030864
:10608000293B0308293B0308293B0308293B030854
:10609000293B0308CD750008293B0308293B030869
:1060A000293B0308293B0308293B0308293B030834
:1060B000293B0308A9860108419101081D7D0308B9
:1060C000197D0308E9880108297D0308217D03085B
:1060D00019910108257D030881910108ED910108BE
:1060E000293B0308293B0308D5B20008293B0308D4
:1060F000C1420308293B0308293B0308293B030845
:10610000293B0308293B0308293B0308293B0308D3
:10611000293B0308293B0308293B0308293B0308C3
:10612000293B0308293B0308293B0308293B0308B3
:10613000293B0308293B0308293B0308293B0308A3
:10614000293B0308293B0308293B03089D49030811
:10615000B1740108293B0308D1790308D7790308F2
:10616000293B0308293B0308293B0308293B030873
:106170002DE9F04F93B0CDE90A32DDE91C530E93BF
:1061800053EC102BCDE90801104619468DED060B96
:106190001E9E0AF099FC80B1DDE906014FF0FF3246
:1061A000C54B0AF0B9FC40B9DDE906014FF0FF32FA
:1061B0006FF480130AF092FC70B1DDE908019DEDE7
:1061C000060B0E9B1E96CDE91C53DDE90A3213B077
:1061D000BDE8F04F00F088B90022DDE90601002398
:1061E0000AF07CFC002800F03381DDE906A303F10E
:1061F000004BCBF30A5016F48063A0F2FF3008BFC7
:1062000006250F930AF08EF99BA3D3E900230AF029
:10621000F3F99BA3D3E900230AF038F8CBF3130476
:10622000894644F07F5180460022A44B504641F4F9
:1062300040110AF029F894A3D3E900230AF0DCF90D
:1062400002460B46404649460AF020F80AF06EFC2A
:1062500004460AF067F98EA3D3E9002380468946F5
:106260000AF0CAF90022964B0AF010F80AF05EFC18
:1062700089A3D3E900230746494640460AF0BCF902
:106280008046384689460AF04DF985A3D3E90023B4
:106290000AF0B2F902460B464046494609F0F4FFBF
:1062A00002460B46CDE90C230AF0A6F9DDE90C23E2
:1062B000804689461046194609F0E8FF0022CDE9DC
:1062C0001001804B404649460AF0C0FA00227E4B3E
:1062D00009F0DCFF02460B46404649460AF0B6FA92
:1062E00000227A4B09F0D2FF02460B46404649464F
:1062F0000AF0ACFADDE90C238046894600204FF015
:10630000804109F0C1FF02460B464046494609F06C
:10631000BDFF02460B46DDE910010AF097FA07F2CD
:10632000FF3700226A4B09F0B1FF00223B050AF05B
:1063300063F952465B46804689460AF0EDFB002829
:1063400040F08980CDE90C8904F16303C72B34BF89
:106350000427052731051BD553A3D3E90023504655
:1063600059460AF0CFFB00287FD051A3D3E9002380
:10637000504659460AF0B2FB002876D00027A542C5
:10638000C6BF2C1B04F1FF3500253C4646F4806651
:106390000E9B9F422CBF4FF00008A3EB070816F09E
:1063A000020903D0002F18BF4FF000083CB1DDE90F
:1063B0000C23504659460AF049FA82468B46DDE9DD
:1063C0000601002200230AF089FB10B10BF1004303
:1063D0009B46DDE9080126F40063CDE90183DDE990
:1063E0000A324BEC10AB009500F07EF802465FB32A
:1063F000DDE9091316F0200F00F10105089E0CBF1E
:1064000065204520B047DDE90801052300220593FA
:106410000A23002CCDE9023207F1FF374FEAD4738B
:10642000B8BF64422A46019304970A9B009430F057
:1064300084F80246B9F1000F06D00B9BC41A0B9BDF
:106440001A190E9BA34245D8104613B0BDE8F08F31
:10645000DDE906ABCDE60022404649461A4B0AF07C
:10646000F5F9013CCDE90C016EE7002D90D00F9BB2
:10647000002B8DD0013D8BE7FB799F501344D33F18
:10648000B3C8608B288AC63F61436F63A787D23F3A
:1064900071A379094F930A401655B5BBB16B024001
:1064A000EF39FAFE422EE63F2D431CEBE2361A3F4F
:1064B0000000000080842E41FFFFEF7F0000F83FC6
:1064C0000000E03F00002C40000024400000184085
:1064D0000000F03F2020DDE90913089DA8470134A2
:1064E000ADE700BF000000002DE9F04F5BEC10AB02
:1064F00097B0CDE90501DDE92057CDE907235046E6
:1065000052465B465946229E0AF0DEFA70B90323D2
:10651000CDE902760193B04B0093DDE90501DDE999
:1065200007232FF02AFF17B0BDE8F08F4FF0FF329E
:106530006FF48013504659460AF0D0FA28B104236C
:10654000CDE902760193A54BE6E74FF0FF325046C6
:106550005946A34B0AF0E0FA68B1A24A06F00403D8
:10656000002B08BF0322A04B1CBF13460422CDE919
:1065700002760192D0E7504693A3D3E9002359460F
:106580000AF0CAFA38B992A3D3E900235046594613
:106590000AF0A4FA68B1DDE90723DDE905014BEC57
:1065A00010ABCDE92176209517B0BDE8F04FFFF78D
:1065B000DFBD00220023504659460AF08FFA00281A
:1065C00000F09A805B4652460020002109F05CFEF4
:1065D000012382468B46099316F4806400F08E8076
:1065E000092D40F28E80002430210EABA5F1090266
:1065F0000134202C03F8011BA5EB040901D09442BF
:10660000F6D1594650460AF091FA784B054603EB0D
:10661000C90393ED007B8DED0A7B09F083FF0246F1
:106620000B465046594609F02FFEDDE90A2309F0D2
:10663000E3FF02460B46CDE90C230AF09FFA8046A1
:1066400009F060FF02460B46DDE90C0109F01CFE73
:1066500002460B46CDE90C230022654B0AF05CFA9A
:10666000002851D008F10108404609F04BFF0246CE
:106670000B46DDE90A010AF03BFA10B14FF00008C1
:106680000135B9F1000F50D1284609F04BFF024601
:106690000B465046594609F0F7FD0022544B804600
:1066A00089460AF01BFA30B1002240464946504B59
:1066B0000AF032FA10B1E80700D501350A210EAB15
:1066C0001A19202C0AD095FBF1F001FB105530353A
:1066D00002F8015B013405460028F2D106F00302FE
:1066E000012A57D1002F55D0099A12B916F00C0F74
:1066F00000D0013F302245E009906DE74FF00609D8
:106700007FE7A94600247CE70022DDE90C01384B35
:106710000AF0E4F90028B4D1B8F1000F02D018F063
:10672000010FAED008F10108ABE70A210EAB2344FC
:10673000202C0ED0B8FBF1F001FB1082B8F1090F4C
:1067400002F1300209F1FF3904F1010403F8012BD1
:1067500011D83021A1440EAA202CAFD0A14504F1BC
:1067600001030AD11C4609F158030DEB03092E233E
:1067700009F8203CA2E78046DAE7A1541C46EBE783
:106780001A550134A74205D9202CF9D1CDE902765A
:106790000194C1E6202CF9D0099A3AB12D2104F1D7
:1067A00058026A4402F8201C0134EFE7710704D54F
:1067B00004F158022B216A44F4E73207E6D504F1CC
:1067C000580220216A44EDE70000000065CDCD416C
:1067D0000000000065CDCDC155DF030859DF030877
:1067E000FFFFEF7F4CDF030851DF030860DF030882
:1067F0000000E03F0000000070B58EB02C220021A8
:1068000003A830F000F964234FF002320893CDE979
:1068100005230B2301218DF83430514B8DF81010D6
:106820001B88D80700F19580084616F06DFE0A22F5
:106830004C4B4D491A704FF428734C48ADF8123048
:1068400012F092FD4A4C206020B94FF41171494872
:1068500004F0AEFB0521206830F0B3FD20B14FF409
:106860001571444804F0A4FB206809F0CFFC424BAA
:106870002068196830F052FE0C2517F07DFD684342
:10688000099017F079FD68430DEB0501079020682A
:106890000CF092FB20B140F26921364804F088FBED
:1068A00000223649206830F0C2FE20B140F26B2150
:1068B000304804F07DFB40F20353314D314E2B80C4
:1068C000052396F90000AB707F2801D116F0E6FF92
:1068D0003378EB7017F050FD00EB80008000A8804B
:1068E00017F04AFD0023C0004FF0FF31E880AB6095
:1068F0004FF0FF3018A3D3E9002317F047F82249DF
:10690000206831F0B6FA206802A930F06FFE20B19D
:106910004FF42971174804F04BFB042220680DEB5B
:10692000020130F0B2FD042804D040F2A721114842
:1069300004F03EFB01A9012032F00BFD04F07EFCC7
:10694000012018F001F82DF098FA18F035F816F03B
:106950005FFE0EB070BD00BF0A0020FF42030000C2
:10696000346D0020E070002031D50108381300207C
:10697000485F00205620040804110020EE7000201B
:106980003C5F002075160020D1D601080348044B57
:10699000834202D0034B03B118477047A82400205C
:1069A000A824002000000000064B0749C91A8910DE
:1069B00048BF0131491003D0044B0BB101481847BF
:1069C000704700BFA8240020A82400200000000079
:1069D00010B5064C237843B9FFF7D8FF044B13B129
:1069E0000448AFF300800123237010BDC86D002060
:1069F000000000005029040808B5054B1BB10549EB
:106A00000548AFF30080BDE80840FFF7CDBF00BFE9
:106A100000000000582A002050290408A3F5803AFD
:106A2000704700BF174B002B08BF134B9D46FFF765
:106A3000F5FF00218B460F461348144A121A2FF017
:106A4000E2FF0E4B002B00D098470D4B002B00D0DF
:106A500098470020002104000D000D48002802D0B6
:106A60000C48AFF300800AF04BFA200029002FF009
:106A700081FF0AF033FA00BF0000080000000000A8
:106A80000000000000100020A82400206C710020ED
:106A90000000000000000000BFF34F8F0549064BC7
:106AA000CA6802F4E0621343CB60BFF34F8F00BFAC
:106AB000FDE700BF00ED00E00400FA054FF00063C1
:106AC0009B6A03F17842B2F5C04F03D21968064AB7
:106AD000914203D00023037083607047012202704B
:106AE0009A689B694260F7E707B0CD5E73B54F4B7C
:106AF00004461A781AB102221A7002B070BDCDE9AC
:106B000000220028F9D001261E702DF0BDF8484D56
:106B1000484B18600FF0CCFA2B785BB900F090FD71
:106B200040B945480823454A454900680BF0A4FC94
:106B300000B92E70434B5A6E62619B6E424AA3614C
:106B40004FF480439366414B5968E1614049996035
:106B5000196E2160596E6160D3F87011A160196CD3
:106B6000E160596C21613B49086C1864496C5964B7
:106B7000012151661B6E9C0441D5374AD368D80762
:106B8000FCD4364B1A68531C3ED04FF4801393400C
:106B9000334A13664FF400730426314C266623668D
:106BA0002CF08AFF01300DD02CF086FF40F201134B
:106BB000984207D04FF4005323664FF48043236676
:106BC000C4F870610823264C684623664FF480534E
:106BD00023664FF0006323664FF4002301A9636628
:106BE0002CF04EFF009B2366019B63662B78002BE5
:106BF00083D0124B1A6822665B6863667DE7194A88
:106C0000D368D907FCD4BCE7174B1B78002BC1D144
:106C10004FF400720C4B5A6603F5A6235B68002BF9
:106C2000B8D14FF480120E4B1A66B3E7CA6D00203C
:106C3000CB6D0020902A0020D0100020942A002044
:106C40000071080000800050009000500080004457
:106C500055CEAC0000C00054000004409C10002041
:106C60000090004400000450C96D002070B5224D12
:106C700004462E78012E02D001232B7070BD00280F
:106C8000FCD02CF019FF01300BD02CF015FF40F296
:106C90000113984205D0194B194A5E66D368DE0786
:106CA000FCD42268174B1A6662685A66A268C3F859
:106CB0007021E2681A6422695A64E269D00744BF0D
:106CC00000229A60104B1A68013207D10F4A1278DD
:106CD00022B90F494968C90748BF1A6062690D4B5C
:106CE0005A66A2699A660FF0EBF90B4B18682CF004
:106CF000D1FF0023C1E700BFCA6D00200090004013
:106D000000000440008000449C100020C96D002059
:106D100000C0055000800050902A002070B54FF050
:106D20000064A36A03F17842B2F5C04F24D21A6816
:106D3000134B9A4220D1134E337813F0FD0F02D03B
:106D40000024204670BD1048FFF7D0FE01254FF407
:106D500080330E4A0E49C2F88051CB6015600D4A4F
:106D60001361A36ADB69984704460748FFF77EFF73
:106D7000002CE6D13570E3E74FF48174E1E700BF02
:106D800007B0CD5EC96D0020702A002000E100E050
:106D900000A000440090004413B5204B1B7803B9B9
:106DA000FEE700231E4CCDE900336A4608231D4947
:106DB00020680BF061FBF0B91B4AD2F84031D2F8E1
:106DC00040211F2B4FF0010310D9203A9340019A24
:106DD0001A43019208236A46124920680BF002FB0D
:106DE0004FF00053114A1A60FFF756FE9340009A85
:106DF0001A430092EEE70E4B9842F1D10A4AD2F8BC
:106E00004031D2F840211F2B4FF0010385BF203ABB
:106E100093409340019398BF0093DBE7CA6D002035
:106E2000D010002000710800008000440B020FF019
:106E30000BE000F00348044A0449121A92102CF0A7
:106E400074BE00BF703D0408703D04086C710020E2
:106E500008B500F02FF8FFF7EDFF124B12498B42F7
:106E600012D30020114B12498B4218D3FFF7DAFDE1
:106E7000186850F82240586840F82240013298685B
:106E80008242F5D30C33EAE70022F8E71C6844F8A5
:106E9000220001325C68A242F8D30833E4E7002202
:106EA000F8E700BF58290408642904086429040885
:106EB000642904084FF480414FF0FF30114B124A0F
:106EC00010B59A60D3F8882042F47002C3F8882085
:106ED0000E4A91660E4901F5005210660D48506643
:106EE0000220C3F8D000BFF34F8FBFF36F8F012490
:106EF0004FF440330848C0F88041D36004600B6110
:106F000010BD00BF00ED00E00060000800900050E0
:106F100000800044F7FF370000E100E0014B1868F3
:106F2000704700BFA4100020084B1B6F03F007033D
:106F3000022B04D0032B05D0012B05D0FEE7044B18
:106F400018687047034BFBE7034870470080005008
:106F5000A4100020AC100020002D310108B5FFF76F
:106F6000E3FF054B1B6FC3F303330133B0FBF3F0B7
:106F7000024B186008BD00BF00800050A010002028
:106F80000048704700B4C404014B1868704700BF44
:106F9000AC100020054B1860054B1B6F03F0070376
:106FA000032B01D1FFF7DABF704700BFAC10002000
:106FB0000080005000487047002D31014FF0B4436D
:106FC0009868C0F304400C280AD8DFE800F00B09E9
:106FD00009090909072119091B1D1F000F487047DE
:106FE000002070479B6803F04073B3F1807F11D09D
:106FF000B3F1007F10D00A4A002B08BF104670473B
:107000000848704708487047084870470848704764
:10701000084870470848704708487047405DC600F8
:1070200000093D00C0EA210180BA8C010048E80156
:10703000005A62020024F40080841E0040420F00C7
:10704000014B1868704700BFA810002008B5012147
:107050003A2000F0BBFD012304220321002001F0AF
:1070600083FB00202CF02DFE0122354B3549C3F85F
:1070700044244FF40022A3F550335A66324BD3F820
:10708000FC20D20146D4D1F8803023F0030343F032
:107090000203C1F880304FF4607000F0B1FD2A4B5C
:1070A00000F5D520D3F8F02000F2FC4042F00102B8
:1070B000C3F8F020D3F8FC2042F08072C3F8FC2023
:1070C000224AA3F55D431A60214B0222B0FBF3F084
:1070D000204B01381861C3F8F0204FF48072C3F8D8
:1070E00004234FF060431C4A0020C3F8B02F1B4A12
:1070F000C3F8802ED3F8002E42F48072C3F8002E1D
:10710000FF2283F82020D3F8002E22F48072C3F8E7
:10711000002E08BDD3F8FC2022F08072C3F8FC20BA
:10712000D1F8802022F0030242F00202C1F8802050
:10713000D3F8FC2042F08072C3F8FC20ABE700BF1C
:1071400000D003500080005000ED00E0FF0300403D
:10715000F8590D00000004E055CEACC5090001004F
:107160004FF06043D3F8802E30B5D20715D50124F7
:107170000B4D8440D5F8FC2042F08072C5F8FC200D
:10718000D3F8002E2243C3F8002E53F82020002A03
:10719000F0D003F82010002030BD1120FCE700BF24
:1071A00000ED00E02DE9F04F9A46564B85B01B7874
:1071B00006460F461546DDF83C909DF844B0DDF8D4
:1071C0005080002B00F09780072A00F296800E9BDB
:1071D000002B00F09280B9F1000F00F08E80129B1E
:1071E000B3F5006F00F38980012803D1109B002BB9
:1071F00000F08380444B03EB05131B7B002B7ED0F8
:10720000424C1022002168462FF0FDFB04EB451490
:107210001022A7BB394620462FF0F5FB43F210039E
:107220006380BBF1000F03D1E37843F00303E37005
:10723000364A0E9B02EB451CCCE90193129B690177
:10724000581E9DF84C30C0F30A0003F003039B0660
:1072500043EA001E53582E48012E00EA03004EEA6E
:107260000003CDF800A0535017D0B8F1000F2ED175
:107270009CF8023068F304138CF8023027E00021F8
:1072800020462FF0C0FB4FF444736380BBF1000F26
:10729000CED1E37843F03003C9E713230CF1100E8D
:1072A000CCF80C309CE80F008EE80F006FF0030163
:1072B000DCF81C20109B61F39F02012FCCF81C20EE
:1072C000CCF8143003D1CCF81890CCF80430002757
:1072D0000D4A290102EB051342F80180159A284650
:1072E0005A60694622469F605E7301F0DBFA3846B9
:1072F00005B0BDE8F08F0748FAE70748F8E7074808
:10730000F6E700BFCC6D00209C2B00209C2A0020BB
:107310000F80FFF3028000F0018000F0078000F092
:1073200038B5124B05461B78DBB1E0B12CF0ACFC54
:107330000F4A00231146147B54B92B6001251A0112
:1073400001EB03131D738C502CF0A4FC204638BDB8
:107350000133082B02F11002EDD12CF09BFC054803
:10736000F5E70548F3E70548F1E700BFCC6D0020DD
:107370009C2B0020048000F0028000F0018000F0CF
:1073800038B52CF081FC002305460B4A147B6CB900
:107390000133082B02F11002F8D101F025FA074B56
:1073A00028461C702CF076FC204603E028462CF082
:1073B00071FC034838BD00BF9C2B0020CC6D002021
:1073C000058000F00D4B10B51B78044693B10728DB
:1073D00012D82CF059FC0A4B03EB04131A7B2AB188
:1073E00000241C732CF056FC204610BD2CF052FCDF
:1073F0000448FAE70448F8E70448F6E7CC6D0020B3
:107400009C2B0020068000F0028000F0018000F03C
:10741000154B13B51868002301908DF804302CF03B
:1074200033FC124B1C7824B12CF034FC104802B011
:1074300010BD01221A702CF02DFC0E4B01A81C73FC
:107440001C7783F82C4083F83C4083F84C4083F849
:107450005C4083F86C4083F87C4008238DF807304B
:1074600001F0EEF92046E2E7F0C80308CC6D0020F9
:10747000038000F09C2B00200A4A08B512785AB10C
:1074800007280BD8084A02EB00131B7B43B10021ED
:1074900001F0C8F9002008BD0448FCE70448FAE7F9
:1074A0000448F8E7CC6D00209C2B0020028000F0FF
:1074B000018000F0078000F00A4A08B512785AB13E
:1074C00007280BD8084A02EB00131B7B43B10121AC
:1074D00001F0A8F9002008BD0448FCE70448FAE7D9
:1074E0000448F8E7CC6D00209C2B0020028000F0BF
:1074F000018000F0078000F00A4A08B5127852B106
:1075000007280AD8084A02EB00131B7B3BB101F0A5
:1075100015FA002008BD0548FCE70548FAE70548CC
:10752000F8E700BFCC6D00209C2B0020028000F00B
:10753000018000F0078000F00D4B1B7893B1072805
:1075400012D889B10B4B03EB00131B7B73B10A4BB1
:107550001A6D01238340134214BF0123002300202E
:107560000B707047054870470548704705487047DD
:10757000CC6D00209C2B002000000450028000F005
:10758000018000F0078000F00B4A10B512780C461D
:1075900062B107280CD859B1084A02EB00131B7BD3
:1075A00043B101F0DDF92070002010BD0448FCE774
:1075B0000448FAE70448F8E7CC6D00209C2B002033
:1075C000028000F0018000F0078000F0184B2DE9E8
:1075D000F0411F6D5B6D1F4000D5FEE701260025C1
:1075E000144CDFF85880374218D02368C8F8506030
:1075F000A3B1A168284601316268A1609847637B06
:10760000012B0BD150B90C4B03EB45131A7B60F3E4
:1076100041021A731A7F60F341021A770135082D6F
:107620004FEA460604F11004DDD1BDE8F08100BF49
:10763000000004509C2B00209C2A002000200450B5
:10764000024B1968024B18680AF0F2BDB010002016
:10765000D010002070B59400224605460E4635F045
:10766000FBF8431C0AD058B92246314628462FF071
:10767000A0F90028034808BF002070BD0248FCE7BD
:107680000248FAE710E000F021E000F024E000F00A
:1076900010B5044635F0E4F8431C10D088B901F069
:1076A000D9F9234620F003002044984201D100205C
:1076B00010BD53F8042B0132F7D00348F8E7034814
:1076C000F6E70348F4E700BF0EE000F021E000F029
:1076D00024E000F008B52CF0C8FA014B186008BD92
:1076E0000C330020014B18682CF0C3BA0C33002077
:1076F000044BD3F88420D206FBD4D3F88400C0F323
:10770000811070470040005038B5104B0546D3F843
:1077100080300C4603F00303022B0BD0032B0DD05B
:10772000012B0FD1FFF700FC0E2305B1286004B137
:10773000236038BDFFF742FC0723F6E7FFF7EEFBB7
:107740000623F2E700231846EFE700BF0080005051
:1077500038B5184B0546D3F820010C4600F0070059
:10776000062823D8DFE800F0040A0E16121A1E00BD
:10777000012305B1286004B1236038BDFFF7CEFBBB
:107780000523F6E7FFF700FC0323F2E7FFF716FCFB
:107790000723EEE7FFF70EFC0223EAE7FFF7BEFB45
:1077A0000623E6E7FFF7F0FB0423E2E70023184691
:1077B000DFE700BF0080005038B5174B0546D3F80F
:1077C00028310C4603F00703013B052B20D8DFE8E6
:1077D00003F003131B0F0B17FFF7A0FB052305B1E5
:1077E000286004B1236038BDFFF798FB0623F6E755
:1077F000FFF7E4FB0723F2E7FFF7C6FB0323EEE7FF
:10780000FFF7C2FB0423EAE7FFF7D4FB0223E6E716
:1078100000231846E3E700BF0080005073B50D4613
:107820000021114B0191D3F88041064604F0030476
:10783000022C13D0032C0CD0012C13D101A8FFF77C
:1078400087FF10240EB1019B336005B12C6002B09C
:1078500070BDFFF7B3FB07240190F3E7FFF7AAFB26
:107860000190EFE70C46EDE700800050002337B5AC
:107870000193164B0546D3F820320C4603F007035C
:10788000042B21D8DFE803F0030B11161B000123A2
:107890000DB1019A2A6004B1236003B030BD00210C
:1078A00001A8FFF789FF1223F2E7FFF787FB072301
:1078B0000190EDE72CF046F90A230190E8E7FFF785
:1078C000BFFB09230190E3E70023E1E700800050BC
:1078D00038B5104B0546D3F840310C4603F003038E
:1078E000022B0BD0032B0DD0012B0FD12CF02AF93A
:1078F0000A2305B1286004B1236038BDFFF7A0FB5F
:107900000923F6E72CF021F90C23F2E701230020EC
:10791000EFE700BF00800050002337B50193164BFE
:107920000546D3F860320C4603F00703013B032BF6
:107930001FD8DFE803F0020E1914002101A8FFF799
:1079400007FF10230DB1019A2A6004B1236003B030
:1079500030BD002101A8FFF7BBFF1123F2E7FFF7BD
:107960002DFB07230190EDE7FFF724FB0223019095
:10797000E8E70023E6E700BF00800050002337B5AA
:107980000193164B0546D3F894320C4603F00703D7
:10799000013B032B1FD8DFE803F0020E191400216E
:1079A00001A8FFF7D5FE10230DB1019A2A6004B19A
:1079B000236003B030BD002101A8FFF789FF112328
:1079C000F2E7FFF7FBFA07230190EDE7FFF7F2FA82
:1079D00002230190E8E70023E6E700BF00800050A3
:1079E00038B5144B0546D3F800020C4600F00700EA
:1079F00004281BD8DFE800F003090D11150001234E
:107A000005B1286004B1236038BD2CF09BF80A232F
:107A1000F6E7FFF715FB0923F2E72CF096F80C23A5
:107A2000EEE7FFF79BFA0F23800AE9E700231846E9
:107A3000E6E700BF0080005038B5144B0546D3F888
:107A400008020C4600F0070004281BD8DFE800F00D
:107A500003090D111500012305B1286004B123604D
:107A600038BD2CF06FF80A23F6E7FFF7E9FA09238F
:107A7000F2E72CF06AF80C23EEE7FFF76FFA0F231A
:107A8000800AE9E700231846E6E700BF00800050BF
:107A900038B5104B0546D3F840320C4603F00303CB
:107AA000022B0BD0032B0DD0012B0FD12CF04AF859
:107AB0000A2305B1286004B1236038BDFFF7C0FA7E
:107AC0000923F6E72CF041F80C23F2E7012300200C
:107AD000EFE700BF0080005038B5104B0546D3F8E3
:107AE00060310C4603F00303022B0BD0032B0DD0A7
:107AF000012B0FD12CF026F80A2305B1286004B120
:107B0000236038BDFFF79CFA0923F6E72CF01DF837
:107B10000C23F2E701230020EFE700BF00800050B4
:107B2000B0F5207F1FD009D8B0F5007F15D003D85D
:107B300068B1B0F5C07F0AD000200CE0B0F5607FDE
:107B4000FAD10B4BD3F88000C0F3011003E0084BCF
:107B5000186FC0F3033001307047054BD3F8900025
:107B6000C0F30460F7E7024B186FC0F38020F2E720
:107B70000080005002464FF48030104B10B59866DC
:107B80000020FFF7CDFF504341F671320C4BDC690A
:107B9000DA635A6804F4803422F4401259B909496E
:107BA000884294BF00200120000502435A600CB1B6
:107BB0000022DA6310BD0449F2E700BF00900050D4
:107BC00000000350005A6202002D3101430905D024
:107BD000012B0CD0022B084B18BF002300F01F0014
:107BE00039B103F58053012282401A607047034B7C
:107BF000F4E703F50053F6E7688000506480005016
:107C00001FB5002180280446CDE9001100F09980BD
:107C100029D8002800F09980A0F120043D2C35D807
:107C20003D2C33D8DFE804F091999199A9A9A9A92D
:107C3000A999B33CC9603C999999323232323232B7
:107C4000323299999968D3993232323232323232A1
:107C50003232323232A9919191CE3C3CD8774DAE3E
:107C6000323232323288B0F5B06F00F090802DD8C9
:107C7000B0F5207F71D00CD8B0F5C07F65D0B0F5DD
:107C8000007F65D0B0F5807F00F08680009804B05A
:107C900010BDB0F5607F6BD00DD8B0F5407FF5D149
:107CA000FFF75CF902464FF42070FFF739FFB2FB93
:107CB000F0F252085AE0B0F5806F5ED0B0F5A06FD8
:107CC000E4D100216846FFF7D1FDDFE7B0F5106F82
:107CD00078D016D8B0F5E06F79D00AD8B0F5C06F7B
:107CE0006BD0B0F5D06FD1D100216846FFF778FE98
:107CF000CCE7B0F5F06FC9D100216846FFF7ECFE84
:107D0000C4E7B0F5406F3DD013D8B0F5206F63D015
:107D1000B0F5286FBAD10021324B0391D3F87032FD
:107D200003F00303012B02D103A8FFF7D1FD039B4E
:107D30003CE0B0F5486FA9D100216846FFF71EFE70
:107D4000A4E7FFF7F1F80090A0E7FFF707F9FAE7DB
:107D5000FFF7EAF80246204604E0FFF7FFF8024684
:107D60004FF42070FFF7DCFEB2FBF0F200928DE7DB
:107D700001A8FFF7C9FC019AEDE700216846FFF76B
:107D8000E7FC83E700216846FFF716FD7EE7002148
:107D90006846FFF743FD79E74FF0E02302911B6946
:107DA0005B0705D5FFF7DAF80290029B00936DE7B9
:107DB00003A902A8FFF78CFDF7E700216846FFF74B
:107DC00087FD63E700216846FFF736FE5EE7002186
:107DD0006846FFF75DFE59E700216846FFF79CFD06
:107DE00054E700BF0080005008B58020FFF708FF6F
:107DF000034B98429EBF4FF48032024B1A6708BD76
:107E0000005A620200A000501FB503460020B3F5DF
:107E1000807F019000F0C18064D85D2B55D84C2B39
:107E200007D82D2B48D8232B2CD8019805B05DF806
:107E300004FB4D3B102BF8D801A252F823F000BFF1
:107E4000917F00082B7E00082B7E00082B7E000807
:107E5000477F00082B7E00082B7E00081580000855
:107E6000657F00080B7F00080B8000082B7E000850
:107E70002B7E00082B7E00082B7E00082B7E00083E
:107E80001F800008243B092BCFD801A252F823F011
:107E9000917F0008917F0008917F0008917F000882
:107EA000917F00082B7E0008877F00082B7E00084A
:107EB000277F0008C77F00083D2B7FD03E2BB4D121
:107EC000002001A9FFF7E4FDAFE7802BADD1594BAE
:107ED0001B6F03F00703013B032BA6D8DFE803F079
:107EE000514E858DB3F5F06F68D021D8B3F5B06FE2
:107EF00049D00FD8B3F5607F00F0838095D3B3F5F8
:107F0000806F45D0B3F5A06F8FD1002001A9FFF796
:107F1000ADFC8AE7B3F5D06F55D0B3F5E06FCFD0A5
:107F2000B3F5C06F81D1002001A9FFF7D1FC7CE738
:107F3000B3F5206F6ED00BD8B3F5086F48D0B3F50A
:107F4000106F7FF472AF002001A9FFF775FD6CE799
:107F5000B3F5406F59D0B3F5486F60D0B3F5286FD3
:107F60007FF463AF334BD3F8703203F00303012B7C
:107F70005AD0022B0CBF1523002300E005230193E8
:107F800053E70223FBE7002001A9FFF747FC4CE77A
:107F9000002001A9FFF7DCFB47E74FF0E023029048
:107FA0001B695B0705D5FEF7D9FF0D230393039BE0
:107FB000E5E703A902A8FFF78BFCF8E7002001A979
:107FC000FFF78AFD31E7002001A9FFF709FD2CE743
:107FD000184BD3F8003103F00303022B07D0032B17
:107FE00009D0012B0BD1FEF7CFFF0323C7E7FFF723
:107FF00027F80923C3E72BF0A3FD0823BFE70123DC
:10800000BDE701A9FFF780FB0FE7002001A9FFF7FB
:10801000D3FB0AE7002001A9FFF77EFC05E700205B
:1080200001A9FFF7ABFC00E7002103A8FFF750FC14
:108030001123A4E7008000504FF48012034B5A66CE
:108040004FF48032024B9A62704700BF009000509C
:108050000050005A38B504468020FFF7D5FE0328AB
:1080600000F083804FF48012524B4FF0A0615A66AB
:1080700045F60E02504BC3F88020504A91624FF4EF
:10808000803102F5805291629A6DD203FCD4996DD1
:1080900011F08041FBD1D4E90002120542EA0062EE
:1080A000E07B0243207B42EA0042607B42EA0032EE
:1080B000A07B42EA80121A619869D4E90452120640
:1080C00042EA856200F000400243A07EE57E024362
:1080D000207E42EA0042607E42EA00229A611A6AE9
:1080E000E06922F00F0242EA8502354D00283DD1B9
:1080F0001A6294F82420996A94F82000D20029404A
:1081000042EA40120A4394F8211042EA011242F472
:1081100080329A622B49284A936D31EA0303FBD1DE
:108120004FF08071254881621369A56823F47003BC
:1081300043EA055313614FF00043836194F8223002
:108140000BB9214B996294F823303BB94FF480323C
:108150001D4B9A62184A936D5B00FCD494F825304D
:108160001BB1154B194AC3F8802038BD024342F0B9
:10817000080202281A6208D119614FF40852996165
:1081800013484FF47F412BF039FD0B4994F822300E
:108190008A6A94F820001B062A4043EA40131343DE
:1081A00094F8242043EAC20394F8232043EA0243CC
:1081B0008B62D3E7009000500040005A0050005AF4
:1081C000C7FFFEFE030001000060005AF1A7FFFF99
:1081D0003440005A70B5194CFF28A66A2BD8A36DFD
:1081E0004FF0807113F4803F18BF4FF48032144B6E
:1081F00018BF9A629962134AA36992F9005023F456
:108200007F03054423F47F4343EA002385F30805F5
:1082100043EA0543A36132460B482BF0EFFCA36D04
:10822000DB0301D4002070BD32464FF48031064894
:108230002BF0E4FCF6E72120F5E700BF0040005AF0
:108240000050005A3E1600202840005A70B5104CCD
:108250004FF08071A66AA36D0E4813F4803F18BFDB
:108260004FF480320C4B18BF9A6299623246A5696E
:108270002BF0C4FCA36DC5F30725DB0305D53246FF
:108280004FF4803103482BF0B9FC284670BD00BF85
:108290000040005A2840005A0050005A014B93F900
:1082A000000070473E1600204FF4803311481249F9
:1082B000826A8B62836D03F00303032BFAD14FF0C4
:1082C00080730E488B620B4B996D30EA0101FBD134
:1082D000012009490865996D8907FCD4054B996D02
:1082E0008807FCD5996D8907FCD5054905482BF011
:1082F00085BC00BF0040005A0050005A0300010036
:10830000000001012840005A014B1880704700BF4F
:10831000FC150020B0F5207F10B50C465DD008D8C4
:10832000B0F5007F4ED003D8C0B1B0F5C07F15D0F6
:1083300010BDB0F5607FFBD12C4B4C1ED3F8FC2058
:108340002B4912F0807F4FEA041427D1D1F88030F6
:1083500023F030032343C1F88030E9E72BF05DFCC4
:108360002BF069FC4FF48031224B214A1967136FBF
:10837000013C23F4704343EA04331367FEF7EEFD38
:108380000446FFF7B5F9C0F1020120462BF04DFC81
:1083900000F042F8BDE81040FFF726BDD3F8FC20FE
:1083A00022F08072C3F8FC20D1F8802022F0300245
:1083B0002243C1F88020D3F8FC2042F08072C3F839
:1083C000FC20B5E70A4A4C1ED2F8903023F0F8534F
:1083D00043EA0463C2F89030AAE7054A4C1E136FC3
:1083E00023F4806343EA84231367A1E700ED00E0F0
:1083F000008000500090005008B50121022000F0DC
:1084000067F82BF00AFC2BF016FC4FF48032014B7E
:108410001A6708BD0090005008B54FF4C070FFF710
:10842000EFFBBDE808400449884294BF01210221C6
:108430004FF42070FFF76EBF80F0FA02024A536BD0
:108440000342FCD1704700BF00400950044A417804
:10845000536F23F4407343EA01235367704700BF0F
:10846000004000500A4A10B51369044643F0040363
:10847000136104F0AFF92BF010FC30BF2BF00EFCB1
:1084800004F0E2F91CB9BDE81040FEF767BD10BD6D
:1084900000ED00E0084A10B51369044643F00403F8
:1084A000136104F097F930BF04F0CEF91CB9BDE8B0
:1084B0001040FEF753BD10BD00ED00E0034A017906
:1084C000D36E23F030030B43D36670470040005057
:1084D000F8B504461C4BD3F88420D106FBD4D3F85E
:1084E0008430C3F381139C422CD0FEF71DFD012C78
:1084F000064602D121462BF098FB2BF0B6FB4FF03D
:108500000072124B07465A6620462BF0CAFB4FF406
:1085100080630D4D621E93402B676B6E9A0103D4EE
:10852000D5F884309B060AD538462BF0A2FB022CE6
:1085300008D13046BDE8F84000212BF076BBD5F8D5
:108540008430EAE7F8BD00BF0040005000600050F2
:1085500010B50C4608B9FEF7E7FC074B21461B781F
:108560003BB1064B984204D80120BDE81040FFF70C
:10857000AFBF0220F9E700BFCD6D0020005A6202B4
:108580000278034B012100201A70FFF7E1BF00BF02
:10859000CD6D00204FF0004238B5244B244C5A6674
:1085A0004AF6CD33656C014605F00105236428BB0E
:1085B0000120FFF743FF6368DB0715D51D4B5860AB
:1085C00008461D4B226BD2070CD4984208D10724D1
:1085D00015B1174B194A1A642EF055FF204638BDC5
:1085E0000130EFE79842F2D00024F1E70132236B2B
:1085F00013F0080305D08A42F8D1E8E700220E49BB
:10860000F5E78A42E3D020210A4A91620121A2F5CE
:10861000805251600649084A886A800603D4934212
:10862000D5D00133F8E79342DDE700BF009000505A
:10863000004009500060095040420F003254FFFFD3
:108640004FF0004238B5164B01465A664AF6CD3314
:10865000144C154A656C236443780B205B0043F08F
:108660000103D363FFF7EAFE63688A7823F4F873A3
:1086700043EA02136360CA784B7943EA0223A3609A
:108680000A798B7943EA022323610878FFF782FF96
:10869000EB0744BF054B23642EF0F5FE012038BDE7
:1086A0000090005000400950004000503254FFFF3D
:1086B0004FF00042124B70B55D6E03F580535A6661
:1086C0004AF6CD3304460F4980204E6C0B64FFF709
:1086D000B5FE0B6A23F00F030F2C94BF234343F026
:1086E0000F030B62F30744BF074B0B64002DA2BFBF
:1086F0004FF00042054B5A662EF0C5FE70BD00BF1C
:1087000000800050004009503254FFFF00A000508C
:108710004FF00042104B70B55D6E03F580535A6602
:108720004AF6CD3304460D4980204E6C0B64FFF7AA
:1087300085FE0B6A23F4F85343EA04230B62F30724
:1087400044BF074B0B64002DA2BF4FF00042054B06
:108750005A662EF098FE70BD00800050004009500F
:108760003254FFFF00A000502DE9F04105460F46AE
:108770001E4690464AB101233022194C8B4002FB21
:10878000004436B304F5825423600F21072F05EB14
:10879000450388BFA7F108044FEA0313114895BFAA
:1087A000BC00A40004330C3308FA04F2A1401844BE
:1087B0002BF078FAB8F1000F09D101233021084AD3
:1087C000BB4001FB05223EB102F582521360BDE8B9
:1087D000F08104F50154D7E702F50152F6E700BF36
:1087E00000C0035030C003504FF400120B4B10B5C3
:1087F000C3F88020BFF34F8FBFF36F8F0024FF2299
:10880000074B21465C6520209A625C60FFF7DEF929
:108810002146BDE810402120FFF7D8B900E100E073
:1088200000000450044A054B002908BF13460122EA
:1088300082401A60704700BF40100450402004502E
:1088400010B5012104462020FFF7C0F901212120A5
:10885000FFF7BCF90122114B5A60227812069A6088
:108860006178A27842EA01429A61FF229A6200226C
:108870009A631A644FF000425A654FF0FF324FF48A
:10888000001103F500531A65054AC2F88011E37818
:108890001B01DBB282F81533116010BD00000450DB
:1088A00000E100E0F8B50125C3B2D1F800E091F88D
:1088B0000AC00F7B0C469D40CB7A1D491D4E0D65AD
:1088C000810001F1A04101F58821C1F804E04FF0D9
:1088D000300E0EFB00601B05617B43EA0C4343EA4C
:1088E000475322F003020166C36502672BF0CCF9FF
:1088F000736D2B437365237A13B1336C2B4333644D
:10890000637A13B1B36B2B43B3632279A37943EA40
:108910000243074A93616179E37943EA01430649D7
:108920008B61044B55639D64BDE8F8402BF0B2B9F0
:1089300000200450000004500010045010B5012421
:10894000C0B284402BF0A0F9044B5A6D22EA040215
:108950005A659C62BDE810402BF09CB900000450A1
:1089600010B50124C0B284402BF08EF9074BDA6AAF
:10897000224208D15B6B9C430CBF012400242BF0E6
:1089800089F9204610BD0024F9E700BF000004501B
:108990004FF48032054B9A6641F6713203F51C3371
:1089A000DA63012203F50053DA607047009000504B
:1089B00041F671320121064BDA6303F50052D160B2
:1089C0000022DA634FF48032A3F518339A667047B9
:1089D00000000350013831289ABF024B185C002078
:1089E000704700BF15C9030838B5C2F30625044611
:1089F00002F0070241B942EA052242F4402206345D
:108A0000074B43F8242038BD114628462BF05AF96D
:108A100002462846FFF7DEFF163442EA0022EFE75F
:108A200000800350014BD3F8940070470040005081
:108A30004FF48032064B5A6603F5E6239B69C3F375
:108A40008512827003F03F021B0B42700370704767
:108A5000009000500120034B9B680A3303F01F0372
:108A6000984070470080E00F70B5054616461C46DA
:108A700021B94FF42070FFF7C3F80146402C1BD0FA
:108A800003D8DCB1202C1BD070BD602CFCD104239A
:108A900003FB06F2530803EB4113B3FBF2F3094A5D
:108AA000203B02EAC303AA6822F06002AA60AA6817
:108AB0001443AC60EB61E7E70623E9E71023E7E73F
:108AC0000823E5E7F8FF7F00012100F5805310B58A
:108AD000596040F6AA6341F2050243610023094C44
:108AE0008360C365C26000F500520361C361C36463
:108AF0009464054C8365A04204BF036543655160DF
:108B000010BD00BFFFFF010000C0055070B50D464D
:108B1000FFF7DAFF012300F580567360AB7C044653
:108B20001BB1836843F080438360EB7C5BB1244BD3
:108B30009C4202BF2A7DA3F51033C3F8C821E36D20
:108B400043F08003E3652A8A6B7B20461343EA895E
:108B50001343E3602B7BD5E90112FFF785FF6B7DA3
:108B60001BB1A36843F48033A360AB7D1BB1A36842
:108B700043F40043A360EB7D2A7E1B07120502F439
:108B8000E00203F0E0431343A3656B7E9A1E012AC3
:108B90004FF0020209D80B49032BC1F8202709D155
:108BA0000423F3652B78636170BD0749012BC1F87D
:108BB0002027F4E7042204F50053DA65F2E700BF4A
:108BC00000C0055000D0035000E00350034B5A682A
:108BD000D20702D5DA69002AF9D1704700800A501D
:108BE000054B9A689107FCD45A689207F9D4DA6960
:108BF000002AF6D1704700BF00800A5008B5FFF781
:108C0000E5FF0222014B1A6108BD00BF00800A5037
:108C100008B5FFF7E5FF0122024B03F580514A60DA
:108C20001A6108BD00800A5008B5044B5968012933
:108C300003D1FFF7E3FF024B596008BD00800A50E3
:108C400000A00A5010B5064CFFF7CAFF6368012B5D
:108C500003D1FFF7E9FFFFF7C3FF0378E36010BD1F
:108C600000800A50B8B94A680B7812B1127843EA0A
:108C7000C2034A7843EA42038A6812B1127843EA8F
:108C800082138A7843EA8203CA6812B1127843EAEF
:108C90004223014A9364704700800A5008B9014B8F
:108CA0005964704700900A5008B9014B59647047E5
:108CB00000A00A5008B9014B1964704700A00A507F
:108CC00010B9024B186C70470020704700800A50A2
:108CD00048B911B1012903D07047044BD86C7047D3
:108CE000024B186D70470020704700BF00800A508B
:108CF00040B911B1012903D07047034BDA647047C2
:108D0000014B1A65704700BF00800A5010B9024B32
:108D1000586D70470020704700800A5038B50446EF
:108D2000054D2EF00CFC0FCC0FC594E8030085E830
:108D30000300002038BD00BF1033002047F6FF734A
:108D40009A42F0B56FD002296FD8394B5B5C012B8A
:108D50006BD8384DDF0005EBC30415F83330A1782C
:108D6000012B13D10025E078401AA84202D808440C
:108D7000C0B2F0BD431B6668A0EB530336F9136025
:108D80009642D4BF1D4603F1FF30EEE7606800282D
:108D9000EFD0B0F90040944204DBB0F902409442B5
:108DA000B8BF144683883D44FF2B19BFC8224FF03B
:108DB000280CB0F90620B0F908C0A2EB04030CBFE0
:108DC0000126002693FBFCF333446E781BB29E42CF
:108DD00001DD002B01DA731E1BB24FF47A7C0133E4
:108DE0009BB2071D5D1E2DB24FEAC50E00EBC505F7
:108DF000EA88AD689E4214FB025222EAE27202F156
:108E00005C02B2FBFCF204DD37F8335001339542CB
:108E1000E8D200EB0E039888904228BF10468842A3
:108E200038BF0846A4E7FF20A3E70020A1E700BF62
:108E300047C90308103300200229F0B555D82C4B40
:108E4000585C012851D82B4C04EBC00114F83000B9
:108E50004B6801280FD1C8788C78904294BFC4EB3E
:108E60000001C4EB0201001BCAB28242C8BF00224B
:108E700033F91200F0BD002B37D08878904202D32E
:108E8000B3F90200F6E7CC78B3F900009442F1D9C7
:108E90004C789988013CA1F1FF06714203F1040569
:108EA000E4B2714103F10C07CEB2B44216D805EB1F
:108EB000C1014FF47A756A43B1F902404968521A08
:108EC00004EBD47102EB610292FBF4F29042D1DB2D
:108ED000B3F902009042CDDC10B2CBE737F831C0D5
:108EE0004E1C9445E3D33146DEE70348C2E700BF9A
:108EF00047C90308103300200080FFFF0148FFF737
:108F00000DBF00BFFCDF03087FB50222084B0949F3
:108F1000CDE901234FF00073CDE90313052301A927
:108F20004FF0FF3005932EF06EFB07B05DF804FBA9
:108F3000006A18000002040008B5B0B14FF4806266
:108F40000B4B9A662AF0FEFE4FF098435A6CD20201
:108F5000FCD54FF48062586D064B10F470209A6671
:108F600004D0BDE808402AF0B6BF212008BD00BFEC
:108F70000090005000A000502DE9F0418CB08846D0
:108F8000DDE912761D460446002847D0002945D069
:108F9000002F43D0002E41D013F00F033ED12048C4
:108FA0002049A360002A08BF0146E361C4E9001319
:108FB000404609A92BF01AF868BB204609992AF007
:108FC000B8FE294620462AF0B4FE694640462BF0FA
:108FD000BBF800BB694620462AF097FE404603A92D
:108FE0002BF0BDF8B8B9204603A92AF08EFE0697EB
:108FF0000127204645F0005506A9079708952AF055
:1090000084FE204609A909960A970B952AF087FE47
:109010002046FFF791FF0CB0BDE8F0812120FAE770
:1090200000010004000101042DE9F04F97B08946CA
:1090300090461F460546DDF880A0002800F0BB8062
:10904000002900F0B8803AB1229B002B00F0B380D9
:10905000239B002B00F0AF80BAF1000F00F0AB8033
:10906000219B002B00F0A78067B13C680026229B63
:1090700043440293464507D307B13C60002017B034
:10908000BDE8F08F3C46F1E75CB1229B219A9B5DE5
:10909000125D01345340239A04F00F0493550136B6
:1090A000E8E7A8EB060BBBF10F0F58D9434B484636
:1090B000C5E90034AC60EC6113A92AF097FF0028E1
:1090C000DDD1284613992BF00F0B2AF032FE5946BA
:1090D00028462AF02EFE484604A92BF035F8002831
:1090E000CDD1284604A92AF010FE484607A92BF046
:1090F00036F80028C3D1284607A92AF006FE012326
:1091000022992F4ACDF828A00B930C928A190D9220
:1091100028464BF000520AA90E9303920F922AF0B0
:10912000F4FD28460DA92AF0F0FD239B039A991916
:109130000123109111931292214A284610A9CDF8CB
:109140004CA0149315922AF0EAFD284613A92AF0A0
:10915000E6FD2846FFF7F0FE5E4400288FD1229BF3
:1091600003EB060B239B1E44029B5B4501D1464645
:1091700080E7ACB9219B2246CDE900A349461023E4
:109180002846FFF7F9FE00287FF479AF0AF11002B4
:1091900012F8013D0133DBB213700BB95245F7D120
:1091A000219A1BF8013B125D0134534006F8013B44
:1091B00004F00F04D8E7212061E700BF0303000497
:1091C000100000202DE9F04F97B0894615469A46C9
:1091D0000446209FDDF88880DDF890B0269E0028A8
:1091E00000F09D80002900F09A80002E40F08A80D7
:1091F000002B00F09480B8F1000F0AD0219B002BC7
:1092000000F08D80002A40F09F80F10700F18780F8
:1092100002E0002A40F08580FB1F062B7FD8524BCE
:109220000BEB05029A427AD80023504A4846C4E91B
:109230000023A360E36113A92AF0D8FE00285ED1C1
:10924000204613992AF075FD204646EA07412AF088
:1092500070FD414620462AF06CFD294620462AF042
:1092600068FD484601A92AF06FFF002847D1204633
:1092700001A92AF04AFD484604A92AF070FF0028F7
:109280003DD14FF00109204604A92AF03EFD239B61
:1092900045F000550793219BCDF820902046099575
:1092A0000DA90A9347F0005748F00053CDF82C90D1
:1092B0000C93CDF834A0CDF838900F972AF025FD07
:1092C00020460AA92AF021FD204607A92AF01DFD03
:1092D000259B204610A946F00056CDF840B0CDF8A9
:1092E000449012951393CDF8509015962AF017FDDF
:1092F000204613A92AF013FD2046FFF71DFE17B0E4
:10930000BDE8F08F259B53B1BAF1000F07D0B8F13B
:10931000000F01D0219B13B1B5B9022E20D121201D
:10932000EDE7239B002BFAD0BBF1000FF7D0C7F17C
:109330000F03DBB2032B3FF668AF0122DB0002FA1A
:1093400003F3AB42EBD9E8E7239B002BE7D0BBF15B
:10935000000FE4D0C7F10F03DBB2032BDDD8ECE73D
:10936000102E7FF652AFDAE7FFFF0320000005045E
:109370002DE9F04F99B0884615469B460446229F3A
:10938000DDF89890289E60B159B1279B4BB1BBF195
:10939000000F06D0249B0BB1239B13B11DB9022EE5
:1093A00013D121239AE0259B002BFAD0B9F1000FAD
:1093B000F7D0C7F10F03DBB2032BF0D80122DB009B
:1093C00002FA03F3AB42ECD9E9E7731E0F2BE8D89E
:1093D00016F0010AE5D1FB1F062BE2D8414B09EB41
:1093E00005029A42DDD8404B4046C4E9003AC4F831
:1093F00008A0C4F81CA015A92AF0F8FD034600280F
:109400006CD1204615992AF094FC204646EA074183
:109410002AF08FFC204624992AF08BFC294620460E
:109420002AF087FC404603A92AF08EFE0346002856
:1094300054D1204603A92AF068FC404606A92AF028
:109440008EFE0346002849D14FF00108204606A9A8
:109450002AF05BFC259B2046099345F00053CDF88C
:10946000288001930B93239B0FA90C93249B47F017
:10947000005743F00052CDF834800E92CDF83CB046
:10948000CDF8408011972AF040FC20460CA92AF024
:109490003CFC204609A92AF038FC019B204612A971
:1094A000CDF84890CDF84C8014932AF038FC279BD7
:1094B000204615A946F000561593CDF8588017960A
:1094C0002AF023FC2046FFF737FD034630B1019018
:1094D0002A46514648462DF096FA019B184619B087
:1094E000BDE8F08FFFFF03200000060430B50488BC
:1094F00004F4E043B3F5005F2ED1C4F30223042B40
:109500002AD181F0AA6383F4807333F47E132AD0C6
:1095100081F0AA6383F4007333F47E1323D0002315
:10952000144D21F47E11A9421AD1B4F5105F17D160
:10953000418821F04000802802D0B1F5807F15D10C
:10954000191F0C2912D8DB0710D4073A072A34BF99
:1095500000206FF0860030BD42F204039C42DED151
:109560006FF08500F7E7C1F30543D9E76FF0860098
:10957000F1E700BF000140052DE9F04F9BB08146A7
:10958000DDE928761D468B46DDF8A880DDF8BCA015
:10959000099241B138B1249B2BB1269B0BB9279B73
:1095A0000BB91FB94EB16FF086047FE02EB1B8F150
:1095B000000FF8D02B9B002BF5D02C9B002BF2D06A
:1095C000BAF1000FEFD02E9B002BECD02D9B002B7F
:1095D000E9D0B9F8003003F4E042B2F5005F69D198
:1095E000C3F30222042A65D185F0AA6383F4807351
:1095F00033F47E1306D085F0AA6383F4007333F44A
:109600007E1360D1C5F3054329464846259ACAF81A
:109610000030FFF76BFF0446002847D101462022A7
:109620000AA82DF0F0F92022214612A82DF0EBF91E
:109630000AA82AF07EFC002855D159464846099AC6
:1096400012AB2AF0F5FD044600282FD12B9B9E4239
:109650004CD8DAF800302E9A934247D8474508D2C2
:10966000BB19984505D23946324640462DF0B1F92E
:109670004746204B25F47E159D4226D1DAF800306E
:10968000324606932D9B0397CDE90483279B12A9AD
:109690000293269B0AA80193259B0093249BFFF726
:1096A00091FD212819D0D8B92C9B1E6020461BB0F3
:1096B000BDE8F08F42F20402934204D185F0052305
:1096C00083F480139BE700239EE76FF08804002358
:1096D0002C9A1360CAF80030E8E76FF08604F6E7CA
:1096E0006FF09204F3E76FF09204DFE76FF0890404
:1096F000DCE700BF000140052DE9F04F99B08A4634
:10970000DDE926659346984681462A9F28B96FF081
:109710008604204619B0BDE8F08F0029F7D0229BBF
:10972000002BF4D0249B13B9259B002BEFD10EB94D
:10973000002DECD117B92B9B002BE8D12C9B002BD3
:10974000E5D0289B002BE2D041464846239AFFF7FC
:10975000CDFE04460028DCD1202201460DEB02009C
:109760002DF051F92022214610A82DF04CF908A81F
:109770002AF0DFFB10B16FF09204CAE75A46514657
:10978000484610AB2AF054FD04460028C1D12B9B5B
:109790009D422AD8BE4208D273199F4205D2314653
:1097A0002A4638462DF015F93E46144B28F47E180B
:1097B00098451DD1299B2A460693289B0396CDE9FF
:1097C0000473259B10A90293249B08A80193239B53
:1097D0000093229BFFF7CCFD212898D02C280AD09B
:1097E0000028C8D12C9B1D6093E76FF0890490E797
:1097F0006FF088048DE76FF094048AE7000140055C
:10980000084B984202D0084B984207D10B88B3F519
:10981000105F0CBF00206FF0850070476FF085006F
:10982000704700BF004440040013C0042DE9F04F0E
:1098300099460023A3B09346DDE92E74DDE9306834
:10984000CDE90633CDE90833CDE90A33CDE90C3350
:10985000DDF8C8A00490059129B96FF08605284667
:1098600023B0BDE8F08F002AF7D00FB9002CF4D157
:109870002C9B13B92D9B002BEFD116B9B8F1000F1B
:10988000EBD1BAF1000FE8D048460499FFF7B8FFD2
:1098900005460028E3D10146202212A82DF0B3F896
:1098A000202229461AA82DF0AEF812A82AF041FB72
:1098B000002878D1DDE904015A461AAB2AF0B8FC39
:1098C00005460028CBD11A982AF06FFC05460028DF
:1098D000C5D114B9CAF80000C1E7B7420AD23B1992
:1098E0009E4207D24445B8D83946224630462DF02C
:1098F00070F837464E4B994558D003F5407399455B
:1099000015D04C4B994540F08C804445A5D814F0B7
:109910000F02A2D12346CDE900761AA912A8FFF7BB
:109920002BFB0746002834D1CAF8004097E70023F4
:109930004445CDE90E33CDE910338ED82D9B0D2B48
:109940008BD101238DF838302C9B0DF1390203F1B6
:109950000C0153F8040B8B4242F8040BF9D11B782D
:10996000137001238DF8473014F00F0933D10F2CF9
:10997000DAD906AB01930EABCDE90276009324F061
:109980000F0200231AA912A8FFF74EFB0746002872
:1099900043D04246002130462DF035F80023012FF8
:1099A000CAF8003040D06FF0920558E744453FF6C2
:1099B00054AF2D9B102B7FF450AF2C9B0DF1380C26
:1099C00003F1100E624618685968083303C27345E4
:1099D0009446F7D1C8E724F00F033B440DF1280C5F
:1099E00003F1100E624618685968083303C27345C4
:1099F0009446F7D10F2CBCD824F00F0333440393C3
:109A00000AAB029306AB01930EAB00934A460023C8
:109A10001AA912A8FFF708FB83E7B9F1000F83D05A
:109A2000EAE76FF085051AE76FF08B0517E700BFCF
:109A30000010C004004440042DE9F04F9946002373
:109A40009FB09346DDE92865DDE92A788A46CDE9AD
:109A50000633CDE90833CDE90A33CDE90C3305905F
:109A600029B96FF0860420461FB0BDE8F08F002AA8
:109A7000F7D00EB9002DF4D117B9B8F1000FF0D11D
:109A80002C9B002BEDD048460599FFF7B9FE044604
:109A90000028E8D1014620220EA82CF0B4FF202295
:109AA000214616A82CF0AFFF0EA82AF042FA002893
:109AB00044D15A465146059816AB2AF0B9FB0446E4
:109AC0000028D0D116982AF070FB04460028CAD18D
:109AD00015B92C9B1860C6E7BE420AD273199F4283
:109AE00007D24545BDD831462A4638462CF071FF8D
:109AF0003E46344B994549D003F54073994520D0F3
:109B0000314B994554D1454555D82B07A9D12B4602
:109B10000122CDE9006716A90EA8FFF72DFA2C9BAC
:109B200006461D6000289ED04246002138462CF093
:109B30006AFF00232C9A012E13603FD06FF092042D
:109B400091E70D3D454536D801238DF82830334641
:109B50000DF1290206F10C0153F8040B8B4242F877
:109B6000040BF9D11B780D3613704FF48073ADF8E8
:109B7000363006AB01930AAB00932A460023CDE9A9
:109B8000026716A90EA8FFF74FFAC8E7103D454532
:109B900011D833460DF1280C06F1100E62461868F4
:109BA0005968083303C273459446F7D11036E0E78D
:109BB0006FF0850457E76FF0890454E76FF08B046A
:109BC00051E700BF0010C0040044400407B5094B32
:109BD00018689A889B7900906846ADF804208DF843
:109BE0000630FEF72DFD0320FEF762FD002003B0D6
:109BF0005DF804FB4AC9030813B50024064A684609
:109C0000536F43F00103536700948DF80440FEF74F
:109C100055FC204602B010BD0040005030B58BB05E
:109C20006C461C4D0FCD0FC40FCD0FC495E803003B
:109C300084E80300184BD3F84C2112031DD54FF6CE
:109C4000FF72A3F5FE431B88934221D18C248DF82B
:109C50001940FEF723FB044484F308040F488DF8F1
:109C60001840FDF797F96846FEF7F4F94FF4FA70DB
:109C7000FEF74AFB00200BB030BDD3F8504114F082
:109C8000FF04E4D14FF6FF72054B1B889342DED0F0
:109C90001C46DCE754C903080080E00FC0175302DC
:109CA0000001E00F6FF00403502110B50A480B4C7F
:109CB00013F0800F03F1010207D123444C2A83F8EB
:109CC00000131346F4D1002010BD03F00F03043B32
:109CD000034419761346EBE700ED00E000E100E0F5
:109CE00038B502F06BFF0446F0B903F0C5F903F094
:109CF0004DF84FF4167343430C4A03F5742303F2F3
:109D00003F23B3FBF2F30A21094A0A4813600A4DC4
:109D10000268013911F0FF0145F8043BF9D11A44FA
:109D200003EBC30313440360204638BD40420F00D9
:109D30005C3300202C33002030330020012208B592
:109D4000034B1A702AF0FCFD024B186008BD00BFDF
:109D5000CE6D00202833002010B503F017F804461C
:109D600029F0F3FE844207D92AF0F6FD20B1012242
:109D7000024B1860024B1A7010BD00BF2833002040
:109D8000CE6D0020F8B51C4C2378D3B12AF0D8FD55
:109D90001A4B1B4D1B68C01A012838BF01202860D0
:109DA00002F0F4FF4FF416735843164B00F574207D
:109DB00000F23F20B0FBF3F02968814202D9002372
:109DC0002370F8BD104D114E2B78114F56F82320FB
:109DD00046F82310501A0A213A680133121A3A60E1
:109DE0000932B2FBF1F20B48DBB20260B3FBF1F2D5
:109DF00001FB12332B70E2E7CE6D002028330020E8
:109E00005833002040420F00CF6D00203033002037
:109E10002C3300205C330020014B1868704700BFD2
:109E20005C33002020234FF48012042110B50F4C26
:109E30000F4884F82C330F4B5A660F4B03F5005232
:109E400050675167106711674FF48052C4F884213E
:109E500062609A18506751679A6A22F000729A629B
:109E60009A6A42F480529A6210BD00BF00E100E09D
:109E7000010000A0009000500040005A044B9A6D71
:109E800012F0050F02D10028F9D170470120704768
:109E90000040005A154B10B51C6F14F004020FD08F
:109EA00003F500531A6708229A62FFF755FF02F084
:109EB000BDFB02F09DFB012003F08CF82AF04EFD63
:109EC000E30706D501220A4B1A67FFF75BFF02F092
:109ED0008FFB14F000521CBF054B1A67002CBEBF4D
:109EE0004FF00042024B1A6710BD00BF0040005AFD
:109EF0000060005A10B5044629F0B7FE024B1C6002
:109F000029F0B7FE002010BD6033002010B529F005
:109F1000ACFE034B1C6829F0ACFE204610BD00BF10
:109F20006033002038B50C461546014610B9FFF7DE
:109F3000EDFF01462B462246034805F087FF002827
:109F4000D4BF3720002038BD2D43030810B50024AE
:109F500000F024F80348044B84604360FFF7CAFF15
:109F6000204610BD643300206D9F000813B5064CD9
:109F700023780093054B1B882AF0F5F910B9237854
:109F80000133237002B010BDD06D0020FE150020FB
:109F9000014B188000207047FE15002008B5074BC4
:109FA0001A6842B9012208201A6029F0D1FD04493B
:109FB000044802F0C3F9002008BD00BF7833002038
:109FC000E81000207033002030B51446054687B0F5
:109FD00010462AF021FA6369024683423CBFD4E965
:109FE00003315B181B1A7BB10F49049403910021C4
:109FF000CDE90131012300932846D4E9001329F06B
:10A00000B2FD002007B030BD0122627694F82D2009
:10A01000002AF6D084F835301321E36920469847AA
:10A020002046636A9847ECE7C99F00082DE9F0478E
:10A0300088B004460F461646984629F025FE81460C
:10A04000002E7AD0237E03F0FF02002B00F0A280C6
:10A0500020462AF0E1F96569A84205D1637ED4E97A
:10A06000033213445D1B01E0F9D9451BB54228BFFB
:10A07000354629F009FE94F82D308246002B6DD12B
:10A080002A46384661692CF087FC63692E462B44CA
:10A09000636121E0037803F0FD0111295BD1216B9D
:10A0A000814205D1A3F111014B424B4184F8343078
:10A0B000013E6369216B01328B4203F1010308BF4A
:10A0C0002363636195426069E4D1D4E90323216B82
:10A0D0001344994200D122630025D4E90323616926
:10A0E0001344994208BF6261207A6576FDF7C4F98E
:10A0F00020462AF091F96369834232D1257694F89B
:10A100002D30E568656103B125632046636A984791
:10A11000214B049403930023029323692A4601935D
:10A120000123009363682168207A29F01CFD207ABE
:10A13000FDF7C2F9504629F0ADFD4846C8F8006069
:10A1400029F0A8FDD8F80030002B0CBF1B20002000
:10A1500008B0BDE8F08707F8013BAAE72E460022C9
:10A16000B0E70123207A23760DF11E01FDF70CFAEA
:10A170009DF81E30002BDAD00DF11F01207AFDF77B
:10A18000DBF99DF81F100029D1D12246207AFFF774
:10A190001BFFCCE71646D0E7C99F0008002807DB65
:10A1A00001234109034A00F01F00834042F8213097
:10A1B000704700BF00E100E0002808DB01224309EE
:10A1C000034900F01F008240603341F823207047AC
:10A1D00000E100E070B504460568FFF797FE844291
:10A1E00002D10020FFF786FE95F936603046FFF772
:10A1F000E3FF002E0CDB01221949730906F01F064C
:10A20000B240203341F82320BFF34F8FBFF36F8F4D
:10A2100095F937603046FFF7CFFF002E0CDB0122A7
:10A220000F49730906F01F06B240203341F823207E
:10A23000BFF34F8FBFF36F8F287AFDF75DF9287A50
:10A24000FDF7C0F8FDF79CF800232846C4E9003369
:10A25000C4E90433A360AB6ABDE87040184700BF8F
:10A2600000E100E02DE9F0430C461546064687B0B4
:10A270004022002120461F462CF0C5FB95E8030034
:10A2800000232A692376EB6884E80300C4E90423E9
:10A290002A7DE36084F82C20AA7D2363012384F8BF
:10A2A000343084F835300E9B84F82D2023620F9BC8
:10A2B000E7616362109BA3622B7A84F836306B7A75
:10A2C00084F837302D4B346073602D4BB3602D4BC9
:10A2D00033612D4B73612D4BF360FDF799F838B165
:10A2E0002B4B984204D01024204607B0BDE8F083E1
:10A2F000002104F10800FDF713F807460028F2D109
:10A300004FF00108234B3362234B84F83C80B36148
:10A31000224BF3619DF8483084F8390084F83B30D3
:10A320009DF84430204684F83A30697D84F83880BE
:10A330002AF082F895F909904846FFF73DFF484614
:10A34000FFF72CFF164B0494CDE902732369CDE986
:10A3500000836368E2682168207A29F004FC0446DF
:10A360000028C0D195F908502846FFF725FF284658
:10A37000FFF714FF3046FFF7BDFDB5E7894403083A
:10A380002DA00008074403080D440308D5A10008C8
:10A39000038000F0E1430308394403081344030831
:10A3A000C99F00082DE9F04101271C465B4B86B090
:10A3B00002935B4B0C9D01935A4B904600930A46C7
:10A3C000CDE903772946584BFFF74CFF0646002896
:10A3D00040F09B80236839462B6463683A206B64A5
:10A3E000637A85F84930237A85F84830E37A85F82E
:10A3F0004B30A37A85F84A30637B85F84D30237B58
:10A4000085F84C30E37B85F84F30A37B85F84E30E0
:10A41000FDF7DCFB3B460422617A207AFEF7A4F9C3
:10A420003B460222E17AA07AFEF79EF9394660683F
:10A43000FDF7CCFB88F8006041462068FEF766FB1C
:10A440001420617C394B01F1390252019850607A35
:10A45000227A03EB411342EA0042C3F83827E17A3B
:10A46000A27A42EA0142C3F8302785F8506098F892
:10A470001930032B4FD8DFE803F0394C021C0223BC
:10A4800085F8503000230422E17BA07BFEF76CF9B5
:10A490000220617C254B01F1B9025201985003EB77
:10A4A000411341F22C71E07BA27B42EA00425A50F8
:10A4B0001CE0012785F8503002220023617B207BBD
:10A4C000FEF752F9617B227B637C42EA014241F252
:10A4D00028715B0103F1A04303F570335A50042245
:10A4E000236803F58053DA65002FCBD1237A2A6CD9
:10A4F00085F84830637A052185F84930D36C2068A7
:10A5000043F00403D36429F03AFC304606B0BDE8BA
:10A51000F0810027CEE72326F7E700BFB745030801
:10A52000AB450308434603083746030800C0035001
:10A5300010B51C46044B18682CF0ACF800282060BD
:10A540000CBF1B20002010BDF010002013B5064CDE
:10A5500023780093112329F006FF10B923780133E3
:10A56000237002B010BD00BFD16D002010B5FFF701
:10A5700015FD0F4C20602CF09BF820220D49012383
:10A580000D4805F0E9FC0D4B18600D4B204663604B
:10A590000C4BA360FFF7AEFC29F067FB01210446DA
:10A5A000084601F037FE204629F063FB002010BD6D
:10A5B0007C330020D26D002082C90308F0100020F7
:10A5C0004DA5000831A500081A2812D8102814D962
:10A5D00040F28523A0F11102D2B2D340DB070CD5A3
:10A5E0000122064B80F020001A70054B18707D2068
:10A5F00003E0A0F17D03012BF2D97047F96D002033
:10A60000F86D0020F8B50E461446204B00B3204AE2
:10A610002049107000221A7022700A704FF6FF72E3
:10A620001D4B1A801B4D2B78EBB91B4F30463988D8
:10A630002AF0C4F8164A38801378013BDBB2137055
:10A640006BB901232B703046BDE8F840FFF7BCBF63
:10A650001A78002AE6D01870104B1878F8BD2378C5
:10A6600001332370EFE7012B05D102232B700A4B36
:10A670001888000AE8E7022B04D103232B70064B4D
:10A680001878E1E7FF237E202370E7E7F96D0020CB
:10A69000F66D0020F76D00205E610020F86D00204F
:10A6A0002DE9F047394E8846337817465BB9384A6A
:10A6B0001370384A1370384A1370384A13704FF6C3
:10A6C000FF72374B1A807D2850D02DD8182851D0D2
:10A6D0001A2852D0314B2E4D1A78DFF8BC9080EA00
:10A6E000020400221A702B78CD2B9CBF01332B70F3
:10A6F0002B78022B12D9DFF8A8A099F80000BAF83D
:10A7000000102AF05BF82B78AAF80000CD2B9FBF31
:10A7100099F80020023B88F800203B701D4B1A7806
:10A720001C7089F8002006E07E28D3D1184B1B78D6
:10A730001BB91A4A1370202011E0FF2B1FD0184AB2
:10A740001188154A1078134A127802EB00229142C0
:10A7500017D1022B17D9CE2B34BF00207A20A0F1BD
:10A760002002534253413370BDE8F08720220B4B47
:10A770001A70E0E7FF22064BFAE77420EFE7772034
:10A78000EDE77620EBE77920E9E700BFFA6D0020DE
:10A79000F56D0020F36D0020F26D0020F46D0020B7
:10A7A0005C61002008B529F0BAFF4FF6FF7300285E
:10A7B00018BF0346014A138008BD00BF6261002034
:10A7C00010B5074C208850B129F0A9FF2388C01A82
:10A7D000044B00B21B889842B4BF0020012010BD7A
:10A7E00062610020606100204FF07E624FF6FF73CF
:10A7F0002DE9F041B2F84670B2F84460154D9F4221
:10A8000008BF4FF448679E4208BF4FF4C8762C88B3
:10A81000DFF8448050B164002C802B88BB4215D9EE
:10A820002F800023A8F80030BDE8F081B8F8003090
:10A83000002BF2D029F073FFB8F80030C4EBC40449
:10A84000C01A80B204EB8004E408E5E7B34238BFE5
:10A850002E80E6E7606100206261002008B529F0E3
:10A860005EFF4FF07E634FF6FF72B3F854309342B1
:10A8700008BF4FF47A73034413F47F6FC3F30712D6
:10A8800008BFFF22014B1A7008BD00BFFB6D0020FE
:10A8900010B5084C237843B129F041FF2378C3EB6E
:10A8A00010131B065CBF002323702078B0FA80F0E1
:10A8B000400910BDFB6D002007B502F04DFA6A4655
:10A8C00002F0B0FA18B15221034800F071FBDDE943
:10A8D000000103B05DF804FB98C9030808B502F055
:10A8E0006DF918B17A21024800F062FB002008BD22
:10A8F00098C9030808B500F089FA0E4A536A43F470
:10A9000070235362EFF308834FF0CD310A4A043BC2
:10A9100093420BD20222094B1A6700F0E3FCFFF7C7
:10A92000DDFFBDE808400648FEF7F8B943F8041912
:10A93000EEE700BF00ED00E0000000200040005006
:10A94000FCDF030807B5042200200DEB02012CF008
:10A950009CFD042804D040F26711044800F028FB55
:10A96000019800F06BFC03B05DF804FB98C9030884
:10A970001028034670B535D020D8032815D90020FB
:10A9800070BD032202231A491A4D0C680021C8B277
:10A990008442F4D955F8200028B1067A9E4202D1AB
:10A9A000467A9642ECD00131F1E7421E022A19D8CC
:10A9B000DFE802F0021B16000022E3E7A0F120020C
:10A9C000032ADCD8213B022BF6D801A252F823F04F
:10A9D000DDA90008E1A9000883A900080122D1E748
:10A9E0000222CFE700220323CDE70122CBE700BFFD
:10A9F000CCDF03081411002010B5FFF7B9FF04469F
:10AA000030B1037A022B03D103680BB11B6823B961
:10AA100040F23321064800F0CBFA23681B681B6C18
:10AA2000986900F44830A0F500535842584110BDD1
:10AA300098C90308082310B50A0A41400648C9B25C
:10AA400001F00104490804B14140013B13F0FF0348
:10AA5000F6D181EA020010BD2083B8ED2DE9F8435C
:10AA60000025134C134EDFF85480134FDFF850903D
:10AA700023780BB9BDE8F88322464146002056F8FA
:10AA8000043B29F05CFC227823460134002AFAD1E9
:10AA90005B7853B105F00303032B0CBF39464946DD
:10AAA000002029F04CFC0135E2E73946F8E700BF09
:10AAB00000CF0308001000206DCD0308DEC9030895
:10AAC000DBC9030840F605226A4B2DE9F0411B88DB
:10AAD00093420ED8B3F5206F0DD840F20252934244
:10AAE00018D040F20172934220D040F201529342BA
:10AAF0000AD0BDE8F081A3F602235F4C032B1ED8D9
:10AB0000DFE803F0376396B25C490020BDE8F0410E
:10AB100029F015BC00205A4929F011FC564B1A6C3B
:10AB20000020BDE8F041574929F009BC524A0020F5
:10AB3000D2E92523BDE8F041534929F000BC0020AB
:10AB4000524929F0FCFB94F86C309E0703D5002095
:10AB50004F4929F0F4FB94F86F305D0603D50020CF
:10AB60004C4929F0ECFB94F96F30002BC1DA4A49CB
:10AB7000CBE70020494929F0E2FB94F868309807B8
:10AB800004D00020226C3F4929F0D9FB94F96830A9
:10AB9000002B04DA0020626F414929F0D0FB002528
:10ABA0000126404FDFF80881A26E06FA05F3134232
:10ABB00007D057F8252013781BB14146002029F013
:10ABC000BEFB0135082DEFD193E73749002029F06E
:10ABD000B6FB2C490020226C29F0B1FB94F86930B7
:10ABE000590703D50020314929F0A9FB94F96930B0
:10ABF000002B04DA0020626F294929F0A0FB082508
:10AC0000284E2B4FA36EEB40DA0707D556F82520C8
:10AC100013781BB13946002029F091FB0135102D26
:10AC2000F0D194F8680000287FF463AF21496DE704
:10AC30002149002029F083FB0020226C114929F0D2
:10AC40007EFB1025174E1A4FA36EEB40DB0707D58E
:10AC500056F8252013781BB13946002029F06FFBE8
:10AC600001351A2DF0D144E70020144929F067FB83
:10AC7000226C55E76461002000100020E8C9030839
:10AC800026CA030857CA030872CA03088ECA0308F3
:10AC9000A7CA0308E2CA030816CB030853CB03086C
:10ACA00079CB0308D8D70308A0CB0308B8CB030897
:10ACB00097CB0308FFCB030830CC03084ACC03082A
:10ACC0002DE9F04F424C85B0D4E90D32580748BF0A
:10ACD0000026D4E9121B48BFB046D4F83CA05FBFA1
:10ACE000D4F850808B4692463A4E54BFDFF810910C
:10ACF000DFF8109113F0080F374B384A18BF1A4687
:10AD0000B6EB08071FBF64237D0803FB0B55B5FB9B
:10AD1000F7F50CBF3D46ADB24B4631490020CDE9B9
:10AD2000016ACDF80080BFB229F009FB2B46002054
:10AD3000CDE900972B491FFA8BF229F000FBB245B1
:10AD400001D8C24504D24A460020274929F0F7FA23
:10AD5000D4E91703184338D00020244929F0EFFA2A
:10AD600000250126224FDFF8A080E26D06FA05F3E8
:10AD7000134207D057F8252013781BB14146002015
:10AD800029F0DDFA0135202DEFD100250126194FDC
:10AD9000DFF87480226E06FA05F3134207D057F8E5
:10ADA000252013781BB14146002029F0C8FA01354F
:10ADB0002A2DEFD10020104929F0C1FA00200E49B8
:10ADC00005B0BDE8F04F29F0BABA0C49F4E700BF6E
:10ADD000001000200010002079CC030880CC03086C
:10ADE00088CC0308BACC0308F4CC030813CD0308BD
:10ADF000B0D6030830D703086ECD030847CD03084B
:10AE000074CC03086CCC030843CD030810B5FDF7E0
:10AE100009FE044628F073FFE30721D401221046FF
:10AE2000114600FA01F3234002F101021AD0214B2E
:10AE300033F811302049062B19D040F207229342F3
:10AE400012D14FF000524FF20F00548884420BD1C0
:10AE50001088984208D14CF23C335380088010BDD2
:10AE60000021E4E7102ADBD1134A138012E04FF0EF
:10AE700000534FF20F025888904218D11B88B3F547
:10AE8000406F28BF4FF4C0630B804CF23C324FF050
:10AE900000535A80084B1A8840F201739A4201BF4E
:10AEA000064B074AD2E90001C3E90001D7E74FF496
:10AEB000C063E9E7E0CE0308646100208833002026
:10AEC00094100020014B1888704700BF6461002077
:10AED000014B1888000A704764610020164B1888DF
:10AEE000020A10F0FF00134604D1012A23D143F0D7
:10AEF00080007047072BFAD801A252F823F000BF58
:10AF000025AF0008EFAE000821AF000835AF0008FC
:10AF100035AF000829AF00082DAF000831AF000899
:10AF20000920704718467047032070470B20704770
:10AF3000062070470220704764610020044B0548DA
:10AF40001B881A0AB3F5406F38BF00EB82007047C8
:10AF500064610020B0CE0308044B1888044B020A39
:10AF600053F82230C0B203EB8000704764610020C8
:10AF700080CE030810B5044628F07EFE4FF0005343
:10AF80004FF20F021C805A80BFF35F8FBFF34F8FC9
:10AF90000549064BCA6802F4E0621343CB60BFF375
:10AFA0004F8F00BFFDE700BF00ED00E00400FA0591
:10AFB00038B504460D4600F0CDF928F05DFE2B466D
:10AFC00022460549002029F0BAF929462046BDE865
:10AFD000384029F002BC00BF5DCD03086C4A2DE962
:10AFE000F0416C4B55686C4C5D65516A99656B49D5
:10AFF000D1F80002D865D1F80412586B1966916A2D
:10B0000010F0040F9966D16A4FF00000D966116BF9
:10B010001967516B5967D26BD8649A67D3E90E12DE
:10B0200018BF11465E4A91421A655DD301F12000B6
:10B03000A04259D88869C5F308051864CE69062D61
:10B040005E6455D1574DA84252D3574DA8424FD2B6
:10B0500005884DF6426085424AD11868C3F89400CD
:10B060005868C3F8980040F20170A242154604D215
:10B070002E680432B6F1CD3FF7D00022C3E91F227B
:10B08000C3E92122C3E92322641BDFF818C1424D22
:10B09000DFF814E19C648D422DD8D3E91FC7D3E9B2
:10B0A0002165D3E923414FF0000E013AD2B2FF2AC5
:10B0B0003BD1BEF1000F05D0C3E91FC7C3E921652D
:10B0C000C3E92341B3F85430C3F308030C2B3AD837
:10B0D000022B53D9DA1E092A50D8DFE802F0305685
:10B0E0003F424F4F4F4F4F4C0021C3E910112C49A5
:10B0F0004FF42060B9E755F8044D6445CBD374454F
:10B10000C9D2E607C7D50026284F57F8048FA045B7
:10B11000C1D00136062EF8D12AB1013AD2B203EBE2
:10B120008206F467B7E70522F9E7E0464FF0010E23
:10B13000BC4637462E4625460C464146B5E740F606
:10B140000120BDE8F0813A2B18D1194B9B6913F00F
:10B15000020F40F2025318BF1846F2E740F60320F0
:10B16000EFE740F2017240F60423B0F5206F14BF00
:10B1700010461846E5E740F60520E2E740F60722CC
:10B18000013B5A2B98BF1046DBE740F60220D8E778
:10B1900000ED00E0001000200010002000E100E0C1
:10B1A000000000207061000840C8030878100020EB
:10B1B0000040005B00F00CB800F00AB800F008B8DE
:10B1C00000F006B800F004B800F002B800F000B8D3
:10B1D00072B61EF0080F09D01EF0040F0DD0DFF874
:10B1E00050E0AEE8FF1F6FF002000CE0DFF840E037
:10B1F000AEE8FF1F6FF00E0005E0DFF834E0AEE8C8
:10B20000FF1F6FF006006946EFF309828EE8070022
:10B2100086460848084C854501D3A54501D384F3EB
:10B220000888FFF7DBFE84F30888FFF7A3FE000021
:10B230000010002040000020001000204BF6EF62BC
:10B2400083B2002B08BF1346044A000C13804FF64C
:10B25000CE2308BF1846024B188070470216002004
:10B26000001600200B4BB3F900201888002AB8BF45
:10B2700080F0620042001A80074AB2F90010138879
:10B280000029BCBF83F4805383F00B035900118065
:10B2900058407047021600200016002008B501F043
:10B2A000E1FF60B10A4B0344072B0DD8072B0BD8E5
:10B2B000DFE803F00C060A080A0A0A04C12008BDE8
:10B2C000C320FCE7C420FAE7C520F8E7C220F6E770
:10B2D000FF1FFF0F024B9A6903F500539A617047F5
:10B2E0000040005B1FB50D2401212D20FCF76EFCF2
:10B2F000224600210DF101002BF085FB01238DF882
:10B3000000300323104A8DF80A408DF80B30D2F834
:10B3100000320E4C23F0070343F001036946204638
:10B32000C2F8003228F064FD4FF480610223084A1D
:10B3300004F50050C2F884118361516004F5805413
:10B34000E36104B010BD00BF008000500040005B0E
:10B3500000E100E0014828F03ABD00BF0040005B7A
:10B3600010B5094A137813F002040CD107490848B4
:10B3700009780078884206D0064863F07D0304808F
:10B3800005481370017010BDC96E0020D06E0020FA
:10B39000CE6E002062610020CD6E0020054B064A73
:10B3A00019881288914202BF0121044A11700022BB
:10B3B0001A807047706100206E610020C76E002007
:10B3C00007B50346009102223D2003492CF000FE00
:10B3D00003B05DF804FB00BF4DD8030807B5064B6A
:10B3E00002221B783D200093044981232CF0F0FDBC
:10B3F00003B05DF804FB00BFD36E00204DD80308F6
:10B4000038B50C4D0C4C2A7823789A4200D138BDBF
:10B4100000210A482EF0C9F9094B1B88834202BF5C
:10B420000122084B1A702378013303F007032370BD
:10B43000E9E700BFD06E0020CB6E002068610020DD
:10B440006E610020C76E0020074B93F90030002B7F
:10B4500008DB064A137803F04101402904BF43F09A
:10B4600005031370704700BFD36E0020C96E002023
:10B47000282307B5054A3D20CDE900320449702351
:10B4800002222CF0A5FD03B05DF804FB3800E00FAC
:10B4900046D803087028034607B504D103B05DF809
:10B4A00004EBFFF7E5BF074A3D20127806490192F9
:10B4B000064A1278009202222CF08AFD03B05DF851
:10B4C00004FB00BFC86E00204CD80308D36E0020D8
:10B4D00008B50A4814F068FC094814F065FC0948EE
:10B4E00014F062FC084814F05FFC084814F05CFC9F
:10B4F000BDE80840064814F057BC00BF706100204A
:10B500006C6100206A610020686100206E6100208B
:10B510006661002008B5CA22002104482EF0A1F877
:10B520000122034B1880034B1A7008BDFD6D0020EB
:10B530006E610020C76E002030B585B0FFF7EAFFCE
:10B54000FFF708FF4FF07E634FF6FF72B3F84C3001
:10B55000214D934208BF4FF47A732B8000231F4C78
:10B560002380FFF71FF9FFF72BF90028FBD04FF0DE
:10B570007E634FF6FF72B3F84230934208BF4FF438
:10B58000C8632B8000232380FFF7A8FC431E144DC3
:10B59000DBB20A2B134C287018D840F2035222FA5F
:10B5A00003F3DB0712D50222C1230290CDE900325A
:10B5B0003D2084230C492CF00BFDFF232B70D0235E
:10B5C000237005B0BDE83040FFF752BFFFF750FFD2
:10B5D000A023237005B030BD6061002062610020AF
:10B5E000D16E0020C96E00204BD8030837B5044641
:10B5F0000D4614F0CFFD022825D840F217111B4844
:10B60000FFF7D6FC1A4B197801F14003DBB2022B8D
:10B610001FD901F0A003A02B04D00B0619D57E2062
:10B62000FFF7CEFE4FF07E63B3F8403013B12046F3
:10B6300029F0EDF8B5B1002221460E4803B0BDE86F
:10B6400030402EF046B8204614F0A4FDCA28D4D8C5
:10B65000D8E7CDE90014842302223D2006492CF0CE
:10B66000B7FCDFE72A4621460448E7E751D803083C
:10B67000D56E00206C6100208FD803086A6100201D
:10B680002DE9F84FFFF79CF8A84C48B323785806EB
:10B6900026D599074CBFA64BA64BA74A1B78127814
:10B6A0009A4232D00120FFF79FF87320FFF7F2FE95
:10B6B000A24A4FF6FF7113780133DBB213704FF0DB
:10B6C0007E62B2F848208A4208BF0322934219DD05
:10B6D00051229B4B72201A70FFF7DCFE202323704F
:10B6E000984D994E94F900202378002A18DA13F027
:10B6F00030030ED01A2029F0A9F8237803F07F0335
:10B700002370EFE7FFF72CFEEAE700228F4B1A8049
:10B71000E6E72A78022AF0D18C4A2B701380E9E7F9
:10B720002A78012A00F0F1800DD9931E012BD9D877
:10B730003178FF2900F01E81002940F0EE80844B13
:10B7400019783246E7E09A0719D579497A4A794853
:10B7500092F800C007780A78ACEB0200BA1A02F03F
:10B76000070200F00700904298BF81F800C00A78F5
:10B77000BA4204D123F002032370FFF741FE23787D
:10B7800013F0300F1ED013F0200F714F15D0C223CD
:10B790003B706B4B187802237B702378B87023F0D2
:10B7A0003C0323700320012332462B70684B197829
:10B7B000FEF728FF29F04AF894E7C1233B70FFF712
:10B7C0008DFBE8E713F00C081FD0624F13F0040F55
:10B7D00039785F4B0FD06039C9B280201970FFF7FC
:10B7E000EFFD237803F0F3033A7823705A4B1A7075
:10B7F00001231846D8E781F080017E201970FFF7F9
:10B80000DFFD237803F0F703EEE79B0732D5DFF87F
:10B8100020A1524B9AF800701B78DFF844B1FF1A50
:10B8200028F032FA414681464D482DF04CFF8046C3
:10B8300007F00707B7B9484628F02CFA494B4046AD
:10B84000A3F8008014F0A6FC424B9AF800201B7865
:10B85000013043EA02133E4A43F008031370C0B2BA
:10B860000323A1E7414658462DF083FF013F804660
:10B87000FFB2DFE7304B4FF6FF7019784FF07E6371
:10B88000DB8F2C4F834208BF05233A780B44013BE2
:10B89000521A5B1A02F0070203F007039A42DFF81C
:10B8A000B48028DC30482DF009FFE0B92E482DF097
:10B8B00005FF01462C4B2D48002908BF18462C4B8C
:10B8C000002118602DF0FFFE264B188014F062FC5A
:10B8D0003A7898F80030013043EA02131C4AC0B2AB
:10B8E0001370022360E721482DF0E8FE18B9FEF737
:10B8F000CFFF0028DAD1184B1A7898F800309A4216
:10B900005ED0237843F00803FAE63378FF2B4DD05E
:10B9100032460F49C95C00204AE7124B0139C9B2CF
:10B92000188814F03BFE01460BE700BFC96E0020EB
:10B93000CD6E0020CE6E0020D06E0020CA6E00209A
:10B94000D16E0020D26E0020FC6D002062610020CC
:10B95000D56E0020CC6E0020CF6E0020CB6E002074
:10B9600068610020666100206C6100206A6100202F
:10B9700090330020022A1CD1124A0021137801338F
:10B9800003F007031370104B18682DF00EFF0F4BD8
:10B99000002219880E482DF09CFE0E4B1B880BB917
:10B9A000FEF700FF0C4B1A780C4B1A7000232B701B
:10B9B00098E60B4A1378013303F007031370ECE7A2
:10B9C000BDE8F88FCE6E0020903300206661002025
:10B9D0006861002062610020CC6E0020CF6E0020E4
:10B9E000CD6E00202DE9F04F8046A44F85B0002396
:10B9F000DFF8B892A8F8003099F8003013B93B701E
:10BA0000FFF7CCFCDFF8A8A29D4E0DF10E0028F048
:10BA100021FF272800F0A0813A469DF80E000DF185
:10BA20000F013D78FEF73CFE2028044630D070B16F
:10BA3000FFF7B4FC7A2804D8732878D8272C00F0B4
:10BA40008B8140F255118F48FFF7B2FAD4E73B786B
:10BA50009D4205D0022B3FD89DF80F208A4B5A55A6
:10BA6000DFF824923B7899F80010884CC02940F008
:10BA70008380012B40F0CB80FFF7B0FCFFF7AEFCDA
:10BA800028F062FEFFF78AFC23785806AFD4BBE0AB
:10BA90003B789D42B9D0022B04D89DF80F207A4BF9
:10BAA0005A55B2E7032B1FD0754B1888784B1B886B
:10BAB0008342AAD114F06EFBDFF8C4B1C5B2691C91
:10BAC0005846C9B22DF01CFF29469DF80F20BBF83F
:10BAD000000014F077FD20E0032B05D06C4B30887C
