:1000000000300220B9540200B9700200B970020039
:10001000B9700200B9700200B9700200B970020034
:10002000B9700200B9700200B9700200B970020024
:0C003000B9700200B970020041F7000036
:10003C002DE9F04F99B0054680780224532800F240
:10004C00D185DFE810F05400DC0235025A03750349
:10005C008D02EA020C03A003CF0592036D019C02F2
:10006C00CF05CF05CF05CF05CF05CF05CF05CF05E4
:10007C00CF05CF05CF05CF05CF05CF05CF05CF05D4
:10008C00CF05CF05CF05F401350128033403E50373
:10009C00AF03F60019021A040E01CF05CF05CF05E8
:1000AC00CF05CF05CF05DE015701A80241015D0444
:1000BC004C0499014402CF05CF05CF05CF05CF05E0
:1000CC00CF05460379027B04CF058E01C903720468
:1000DC00D6008603C600BB00BE01BE02F403990025
:1000EC00E3001B03690387043E03B700A200EC1C6A
:1000FC00E97A2A7B002320461DF07AFD8DF8180042
:10010C0006AB65200021012222F048FCDFF8280B09
:10011C000078012800F26585204629F001FF0028AF
:10012C0000F05F8505460079012840F05A8529F0DA
:10013C0067FC00274FF400018DF84B008DF844004C
:10014C00000ACDF846108DF84D708DF84A708DF878
:10015C004C008DF8450011AE214606F10A0029F03D
:10016C0063FF2978152233460170697887704170D6
:10017C004520FF2100F033BD28F084FD8DF84400AC
:10018C0011AB65204C2100F029BD00208DF84400F6
:10019C00E87841B2B1F1FF3F07DC10F07F00DFF8E7
:1001AC00941A18BF012081F8680011AB6520532107
:1001BC0000F014BD20F01CFD00F013BDE878002405
:1001CC008DF8444024F044F911AB6520472100F030
:1001DC006FBCEC7829F0D1FE0146204622F0FEFDE2
:1001EC00B0FA80F0472140098DF8440011AB00F0C3
:1001FC006FBC29F0CBFE6979AA790EF011FD8DF850
:10020C00440011AB6520452100F0E8BCE878297961
:10021C008DF8441011A9032800F0C884022800F0BE
:10022C00BF84012840F0C984522022F0D9F800F094
:10023C00C7BCE81C042126F081FBE97929F067FF93
:10024C00DFF8101A8DF84400022028F08BFFDFF83D
:10025C00081A032028F086FF11AB6520262100F038
:10026C00BDBC0226E81C8DF84C6029F02EFF29F04D
:10027C0091FDED79044611A8002321462A4628F069
:10028C00C7F929F01DFC0ED1DFF8A8098DF84C60D8
:10029C0021462A460023C08AADF8440011A828F054
:1002AC00B7F98DF8180006AB6520292100F096BC33
:1002BC0029F0DCFB29F0CFFA29F094F940F0768391
:1002CC0006A829F0B1FE76E329F0D0FB29F03AFD1F
:1002DC00332201238DF838000EA8CDE90004DFF895
:1002EC006C0911A921F0E6FA8DF8180006AB65200F
:1002FC003321DDE329F0BAFB29F024FD312201235F
:10030C008DF838000EA8CDE90004DFF8400911A9DA
:10031C0021F0D0FA8DF8180006AB65203121C7E327
:10032C0002208DF8200029F031FEADF81800681D70
:10033C0029F0CBFEEA79064605F108018DF8442038
:10034C0011AF781C29F05EF906A831463A46002315
:10035C00002420F00BFD8DF838000EAB65200B212E
:10036C00A6E329F013FE29F0F2FC8DF8440011AB42
:10037C006520422100F032BC2C4614F8030B0428F3
:10038C001ABFE8782C1D02208DF84C00204629F06D
:10039C009CFEDFF8B468A5780121E278ADF8440042
:1003AC0000230024317011A829461FF0C5F88DF8E0
:1003BC0018002846347027F0E5FD06AB6520362181
:1003CC0076E3E87811AC214627F0B0F907464000F7
:1003DC000130C6B2304629F07CFE002800F0738351
:1003EC00054607700020874200F0D88214F81010E0
:1003FC0005EB4002517004EB4001013049789170DB
:10040C00F1E729F033FBADF84400681D042126F018
:10041C0095FA6A7AAB7A00240146009411A826F06A
:10042C000FF88DF8180006AB6520302140E3002052
:10043C00DFF82C4829F001FAADF83800681DA04708
:10044C00814695F80FA005F11000A04795F812B061
:10045C00074605F11304BBF10F0F00F2BA8211AE7F
:10046C005D46002D00F0B882204629F02EFE26F8BD
:10047C00020B013D0234F4E729F07FFD044605F13F
:10048C000E0029F022FE297C6A7C0346E878CDE92F
:10049C000012AA1D214625F0A7FFDFF8B4178DF82E
:1004AC004400042028F05EFE11AB6520272195E363
:1004BC0029F0DCFA29F06EFC014611A8022229F081
:1004CC0002FD8DF8180006AB65200221F0E229F040
:1004DC005DFDADF84400687904218DF84C00A81D31
:1004EC0026F02CFA0446AE7AEF7A05F10C0029F0CE
:1004FC00ECFDDFF840870546214632463B4629F0A5
:10050C0087F911A821F0B2F929F0DAFA10D10220FA
:10051C00214632463B468DF84C00B8F81600ADF833
:10052C00440029F075F911A821F0A0F98DF81800F4
:10053C0006AB6520372151E36C7829F027FD014685
:10054C00DFF80007007821F007FF8DF8440004F075
:10055C00E000202840F0458311AB65203F213DE3AE
:10056C0029F084FA29F016FC014611A8052229F07D
:10057C00AAFC8DF8180006AB6520052198E229F03D
:10058C0005FD0021002422F089FB8DF8440011ABFD
:10059C0065200C218CE229F069FA29F0D3FB322278
:1005AC0001238DF838000EA8CDE90004DFF89C0675
:1005BC0011A921F07FF98DF8180006AB65203221C6
:1005CC0076E211AC1321204629F08AFCEE7829F052
:1005DC00D4FC0146304626F065FC002800F07A82F7
:1005EC000021231D8DF844100188ADF84510C11C65
:1005FC00827818468DF8472029F004F86DE229F02E
:10060C00C5FC6979AA790023002425F03BFA8DF802
:10061C00440011AB652001214AE20020DFF840467E
:10062C0029F00BF9ADF83800681DA0478046E81D8D
:10063C00A04795F809A0814605F10A07BAF1100FF9
:10064C0000F2F78111AC5546002D00F0F5813846CB
:10065C0029F03BFD24F8020B013D0237F4E729F0A9
:10066C0005FA29F097FB014611A8102229F02BFC62
:10067C008DF8180006AB6520072119E229F086FCDD
:10068C0069790246A81D1BF0FDFA8DF8440011ABE8
:10069C0065204E21A2E229F0E9F929F0DCF828F0D6
:1006AC00A1FF40F0F38106A829F0BEFCF3E129F08C
:1006BC006DFC29F04CFB8DF8440011AB6520232117
:1006CC008CE2DFF874050078002800F00B82122011
:1006DC0014E26C7829F05AFC0146DFF868050078C2
:1006EC0020F01EFB8DF8440004F0E000202840F0C0
:1006FC00788211AB65203E2170E229F0B7F929F020
:10070C0049FB014611A8032229F0DDFB8DF81800E6
:10071C0006AB65200321CBE129F038FC0146687952
:10072C0019F0D8FD8DF8440011AB65204F2155E22E
:10073C0029F09CF929F02EFBEA79014611A8002337
:10074C00002426F0BDFF8DF8180006AB65200421AF
:10075C00AEE129F01BFC6979AA791AF081FD8DF8BC
:10076C00440011AB6520462138E229F00FFC6A7B6E
:10077C00691D0023002422F0C5FF8DF8440011AB45
:10078C0065200A2194E129F071F929F003FB014657
:10079C0011A8112229F097FB8DF8180006AB6520E3
:1007AC00082185E16879EE1CFE280BD1A879FF2879
:1007BC0008D12878082805D3304629F086FC314624
:1007CC0025F088FB11A9304628F080F8002800F0AD
:1007DC009B8105460024A9E1002006908DF8490074
:1007EC00CDF84500E81C06A926F07CFF8DF84400E6
:1007FC00069840B10188ADF845104188ADF8471016
:10080C0000798DF8490011AB652043210622E6E101
:10081C00DFF82414C8208DF81800E81C097800298A
:10082C0000F0928128F069FB8DF81800B4E10020EB
:10083C00EC78CDF85200CDF84E00CDF84A00CDF84A
:10084C00460029F09AFBADF84400A8790F2802461F
:10085C0028BF0F228DF8462020B111A8E91D0330C6
:10086C0028F0D0FE11A9204601221DF0F3F98DF8D5
:10087C00180006AB65204B21B0E14FF00208E81CD4
:10088C008DF84C8029F021FCADF8440068798DF886
:10089C003800A81D29F019FC2E7A044600270935CA
:1008AC00CDE900570EA811A92246334621F002F8D3
:1008BC0029F006F90FD1DF488DF84C80CDE90057AF
:1008CC0022463346C08AADF844000EA811A920F088
:1008DC00F1FF8DF8180006AB652028217EE129F088
:1008EC00C5F86A7BADF84400691D11A800230024EB
:1008FC0026F088FA8DF8180006AB65203521D7E074
:10090C0029F0B4F8ADF84400687B0024691D00940C
:10091C00C0F3400200F0010311A822F011FF8DF882
:10092C00180006AB65203421C2E0E81C28F0E5FA7B
:10093C008DF8440011AB652044214FE100206C7808
:10094C008DF84400BC480078411E022980F0B48028
:10095C000220B5E0B74D0822E88A05F13901ADF85F
:10096C004400B64800788DF84600A88CADF84700D6
:10097C00688BADF8490011ACE01D28F043FE04F182
:10098C000F0005F11C01082228F03CFE287E5021A6
:10099C00182223468DF85B00652020E16520492153
:1009AC0032462B4621F0FAFF28463EE1084629F054
:1009BC008CFBADF81800687E06A928F01BFE11A967
:1009CC0021201CF0DDF98DF838000EAB65202121BB
:1009DC006EE080208DF8430026780F2E10D80597F6
:1009EC00671C75004FF0000806AC45450AD007EBB4
:1009FC00080029F06AFB24F8080008F10208F4E763
:100A0C0080200FE0BBF10F0F0ED811A90020CDE90B
:100A1C0002645246CDE900B104900EA8059B4946EC
:100A2C0015F0DEFA8DF843000DF14303652020210B
:100A3C00D4E080208DF8430097F800B0BBF1100F84
:100A4C000CD87E1C4FEA4B05002406AFA54207D0FC
:100A5C00301929F03AFB38530234F7E780200EE0C6
:100A6C00BAF1100F0DD811A900204A465346CDE912
:100A7C00001BCDE902700EA8414615F009FB8DF85C
:100A8C0043000DF1430365200621A7E0084629F039
:100A9C001CFBADF81800687E06A928F0ABFD11A967
:100AAC0022201CF06DF98DF838000EAB6520222148
:100ABC00012221F073FF95E0002840F0858004208E
:100ACC0009F082F983E0002049218DF8180006AB6B
:100ADC00652083E001208DF8440011AB65204A218C
:100AEC0013227CE029F052FA044605F10D0029F09E
:100AFC00ECFA0246691D204625F0B8FC8DF844003E
:100B0C0011AB6520512169E0182029F0E2FA002888
:100B1C0000F08E800446BDF84400002118222346C4
:100B2C0028F006FC0546002818BFC825192029F016
:100B3C00D0FA002872D007460130002D56D018216B
:100B4C00FF2229F077F95BE00EA911AD2A4618F0C7
:100B5C0067FE04469DF83800F0B1404904EB4400B0
:100B6C00002641F8206001EB800046609DF957009B
:100B7C00B0F1FF3F03DC05F1130023F0E9F811ADF0
:100B8C001421284629F0ACF90420214614222B46C6
:100B9C0025F03AFE8DF8186006AB652024211DE087
:100BAC00522021F01DFC2648012104E0522021F0A6
:100BBC0017FC23480021017002E0522026F05EF958
:100BCC0011AB65204D2109E001208DF8440004F0A3
:100BDC00E000202805D111AB65204021012221F035
:100BEC00DDFE0024204619B0BDE8F08F3146082206
:100BFC0028F008FD07F109002146102228F002FD1B
:100C0C006520252119223B463D7021F0C7FE384650
:100C1C00192129F065F9384629F059FA002CE0D051
:100C2C002046182129F05CF9204629F050FAD8E723
:100C3C00C825CFE5C0750020F4250020A026002093
:100C4C00B4270020E48200207327002058260020BF
:100C5C00316C0200CF710200AD590100703E0020D2
:100C6C00D7A002002DE9F04F99B080466FF0070035
:100C7C00DFF8DCA80630ADF852009AF80000022824
:100C8C0014D1DFF8C808007880B9B8F8080010B1A2
:100C9C001020012101E0302000210AF0C3FE0020C9
:100CAC008DF81C0007A9522021F09AFB0DF11C09AC
:100CBC0098F80810D8F804004A4610F05DFBE8B12B
:100CCC009DF81E609DF81F409DF82050BDF82670C1
:100CDC0028F090FE844211D127F003004FF6F871F2
:100CEC0080B288420AD0012D08D8022E06D29AF87A
:100CFC000000022808D19DF84D0028B1D32018F02F
:100D0C00E6FA19B0BDE8F08FB8F82800ADF8480045
:100D1C00B8F83200ADF82A009DF82200D0B1D8F80E
:100D2C0004109DF81D209DF83830012027F01CFC84
:100D3C0008B1CF20E3E7DFF81C08C078012809D1FF
:100D4C00B8F8280029F08FF820B1417901F0E701BB
:100D5C00083141719DF8210068B1BDF82610FF20C3
:100D6C0026F0A0F89DF82110E0B141F001012C26ED
:100D7C008DF8211017E09DF83900002800F0EB8069
:100D8C009DF83D10FF2902D0002940F02681DFF8A4
:100D9C00C807BDF82620C18A8A4240F0278101206D
:100DAC00222607E0082601F00300012808BF46F0C0
:100DBC00110601209AF800104FF6F877012908D88F
:100DCC00B207344658BF64F07F04002808BF34468D
:100DDC0000E034469DF82200DFF87C575FFA84FB74
:100DEC0030B9E87A20B10BF02200222840F0808044
:100DFC001BF0400004901CD0012903D8A87B80076D
:100E0C0000F1D880119801780C2900F2DB800122C6
:100E1C0041F298438A401A4200F0D480032902D14F
:100E2C0040780D2805D007A822F0E6FA01283FF4F7
:100E3C0068AFA88CB8F8441081420AD198F84620C3
:100E4C00B8F84210B8F8280000230093002307F0EC
:100E5C00DBFE9DF82200F8B1B8F84210B8F8280073
:100E6C0022F0D6FD002800F08F800646D8F804004A
:100E7C009DF81D10F2780844417B8A421EBF002267
:100E8C007260F1700130042125F058FD71688842C0
:100E9C00FFF437AF013070609AF80000022834D2AA
:100EAC00A87B80077FF52DAF9DF84D004FF6F876A7
:100EBC0060B1BDF8280027F095FD002800F00781EF
:100ECC00D8F80400417801F0DF0141709DF82E0044
:100EDC00002800F0DF80D8F8040081790139817195
:100EEC008DF82E1004F07F00090640F0D680D3E078
:100EFC000BF0420042287FF41CAF1198007800F0F0
:100F0C00FE0006287FF415AF72E77FF4FAAE95F871
:100F1C002600092802D004287FF4F3AE5FEA8B6028
:100F2C0000F19E80049800283FF4EBAE11989DF8D8
:100F3C0038100078042808BF022900F045810728E2
:100F4C0008BF042900F009810C2840F04D8107A846
:100F5C0015F058FCD5E6BDF8260022F0D9FF023872
:100F6C00DFF8F415B0FA80F0CA8A4109BDF8260002
:100F7C00904208BF023100293FD09DF81E20002A64
:100F8C0056D001F1400455E09DF84D00B8B3042053
:100F9C0026F076FA00283FF4B4AE01464FF4B27056
:100FAC000880B8F828004880DFF8B00500781EF0FB
:100FBC00BBF9A6E611980178A1F10C0212F10C0F05
:100FCC003FF62CAFE88ABDF8262082427FF496AE1D
:100FDC00BDF8280024F0D6FB90E6109A9DF83C0052
:100FEC0021F010F930B101200026E3E690F826003C
:100FFC000428F8D100260020DCE600241AE095F83D
:10100C006C0001287FF448AF11980078062803D1B2
:10101C00049800287FF440AFF81DBDF82A1080B268
:10102C0081423FF46EAE07A841461EF011FC68E603
:10103C0001F1200422F06CFF0138B0FA80F0400975
:10104C0044EA00069DF81E0000283FF4B2AE119849
:10105C00007827F01BFD012818BF04F07E06A8E6D7
:10106C0098F8460028F0B1FB9DF82E00012840F0BE
:10107C00B480B8F82800BDF82810814240F0AD804B
:10108C00BDF8260022F044FF022804BF00208DF892
:10109C002E00A2E004F07F000446210702D44FF09A
:1010AC00000A34E0E1B24A0722D4C9069DF82110A7
:1010BC0028D5C1F3820212B1072A18BF013A002ABF
:1010CC0008BF044601F0E30040EA820118E0D32097
:1010DC0018F0FDF8DFF888040078002800F09F80F5
:1010EC00DFF8801451F82000C0EB0010810098E06C
:1010FC009DF8210000F0E00100F0E30040EAD1018E
:10110C008DF82110D8F804004FF4805A017295F82C
:10111C002600092801D0042823D1E98ABDF826002D
:10112C0088420AD022F0F4FE022806D09DF8210055
:10113C0000F0030001287FF4E4AD9DF81E000028A8
:10114C0047D011989DF838100078042808BF022960
:10115C003AD0072848D1042946D107A818F0FCF842
:10116C00CFE5E7B214F0610F46D0F80709D0B8F814
:10117C00281007A8A94615F08DFD002864D004F0AE
:10118C009F040025E7B2A00609D598F84600D8F8C8
:10119C003C2028F01AFB07A815A905F059FD780684
:1011AC0040F12681B8F8281007A80DF152022B4601
:1011BC0010F05EF900286FD00546119800780128D0
:1011CC0008BF4AF0100A13E107A9002010F0E4FF51
:1011DC0097E598F8460028F0F8FAD8F83C2007A8CC
:1011EC0015A905F035FD8CE503287FF48AAD07A819
:1011FC0000210FF0CBFD84E59DF81E0001285AD18B
:10120C0011980078032849D0052854D1B8F8281033
:10121C0007A80DF15202002310F02AF971E5D1480C
:10122C000168D1480268BDF82800904701287FF476
:10123C0068ADCE480168BDF828008847CC480168E5
:10124C00BDF8280088475CE526F0ECFC9DF82E10D4
:10125C000546BDF8280019B9B8F82810884291D075
:10126C00B9F81610814204D1BA48807800283FF4AE
:10127C0089AFB8F8281007A82A460AF097F9002871
:10128C0000F09B8038074AF0040ABDF8260048BFDE
:10129C00F01DADF8520075E70025A9E0BDF8260059
:1012AC0027F0A0FB38B1B8F8281007A80DF15202AE
:1012BC00002310F0DDF89DF82E0088B323F0F2FF28
:1012CC0000287FF41EAD9DF83900A0B3109A9DF84C
:1012DC003C009DF83D1020F095FF002870D09DF843
:1012EC003D00002875D0109928F081FD9DF8243020
:1012FC00ADF8520011209DF823209DF821104AF0E2
:10130C00400A002B08BF0920002A18BF083000290A
:10131C0018BF0130D8F804100A5C013A0A5462E094
:10132C009DF81E0001287FF47EAE119800780328EA
:10133C003FF4E7AC77E69DF82010BDF826000029B5
:10134C00ADF8520000F0D3804020BDF8261009F112
:10135C001D0200EAC4059DF820002B4618F03AFF48
:10136C0038B1D8F804004AF0200A017801F03F01A6
:10137C0001709DF8390048B1BDF8261009F1200024
:10138C0022F01CF84AF0400AADF852009DF81E00FD
:10139C00012806D0BDF82810BDF82600002215F053
:1013AC00D9F8BDF82810BDF826002A4612F012FD17
:1013BC00002818BF4AF0200A15E004F0DF04E0E62C
:1013CC00BDF82610BDF828000B2200231AF0F0FD02
:1013DC0097E4BDF82600ADF8520028F044FD002833
:1013EC0008BF4AF0400A26F01DFC05464FF6F87679
:1013FC00B01DBDF8521080B20F1A5E4818BF2F46B0
:10140C000078012805D1F01DB8F8321080B2814265
:10141C002FD160B2B0F1FF3F3FF773AC002F3FF418
:10142C0070ACB8F8080028F054FE00283FF469AC02
:10143C00B8F80820D8F80410054628F0E3F89DF811
:10144C001E10002098F80830B8F8282016908DF857
:10145C005410BDF8521015ACCDE9007ACDE9020458
:10146C00284610F025FE70B3284628F030FEFFF712
:10147C0048BCB8F828108142CBD0701CBDF826208F
:10148C0080B28242C5D2BDF828008142C1D028F07A
:10149C00EAFC0028BDD0017901390129B9D840886E
:1014AC0001218DF85410ADF8600015AD28461EF0E2
:1014BC0093FE0028ADD0281D1DF002FE0028A8D0F8
:1014CC0022F0C6F8A5E72348407800283FF419AC71
:1014DC0000208DF81870ADF81900DDF826004FEAE1
:1014EC003040059005A827F019FFFFF70ABC390713
:1014FC003FF52AAF9DF81E1001293FF425AF0021BE
:10150C0018F028FE20B1407901380228FFF41CAFF6
:10151C00B8F84410BDF8520022F07AFA30B1807855
:10152C0026F0F0FD01380728FFF40EAFBDF82800B7
:10153C0027F058FA18B104208DF8200004E7BDF804
:10154C002610BDF8280002223FE700BFB427002078
:10155C00F4250020C4250020C0750020E682002060
:10156C00A627002068B60200402300204823002054
:10157C0044230020B22700202DE9F0438DB005460E
:10158C0080780224252800F27380DFE810F0260012
:10159C004F011301ED0030016F01AD00BE02BE0220
:1015AC003E01C700BE02BE02BE02BE02BE02A800C1
:1015BC002701BE02BE02DF000A01E300BE02BE022A
:1015CC00BE02BE02BE02BE02BE02BE02BE02C4000B
:1015DC007D01800101018301A500DFF8EC75002479
:1015EC000E258DF804403878012807D801A81DF085
:1015FC00FFF904469DF8040005EB4005EEB23046B9
:10160C0028F067FD002800F08F824FF00008054697
:10161C00431C0021082280F80080012027F088FE5E
:10162C0028F0EEF96872000A0721A872DFF89C0511
:10163C00E972007828733878012800F26A829DF8E4
:10164C000420002A6A7300F0668205F10E00002166
:10165C002346914280F05F8213F8022B013100F88F
:10166C00022B13F8012C00F8012C9DF80420F0E754
:10167C00A0F140010D2920D8DFE811F00E002F0158
:10168C0047024702130148014702470224013D016A
:10169C006C0181014702550101ACE91C0822201D97
:1016AC0027F0B0FF20461AF0E3F8BDF806000DF164
:1016BC002A034021ADF82A0070E0632800F07C81F9
:1016CC00642800F06C81E02840F01F820024472041
:1016DC00E0210022002316E2F52025215BE015F81D
:1016EC00032B67201021F6E000208DF80400E81C85
:1016FC0028F0EBFC6A7900F4F851002A00F0AA817A
:10170C00B1F5A06F04D04FF6FF71884240F0AC8168
:10171C004FF0FF30A6E1F5202021BDE0DFF8946406
:10172C002D79306840B901AC204628F039F80120F9
:10173C0021460EF079FC3060052D00F0D881002D8B
:10174C0000F0D881642122F073FBD5E100246720DE
:10175C00142129E000246720162109228DF80C4061
:10176C00CDE9014401ABCEE1E81C042125F0E6F8FB
:10177C000190842028F0C0FB014601AA842028F0A7
:10178C0071FA8DF82A000DF12A03672003216EE10E
:10179C004FF6F5702321ADF8040001AB672002224F
:1017AC0066E1002467201521ADF80840019401ABD7
:1017BC000622A8E1E81C28F088FCADF80400832080
:1017CC0028F09AFB014601AA832028F04BFA8DF8E9
:1017DC002A000DF12A036720022148E1E87824F061
:1017EC0049F88DF8040001AB672011213FE161201D
:1017FC0028F082FB0146EA1C612028F033FA8DF8B0
:10180C00040001AB6720042131E128F034FC0446CC
:10181C0028F02FFCEA49604301ACB0FBF1F1204603
:10182C0028F0C0FB672009210422A6E0202028F024
:10183C0050FC002800F01E812021FF22044628F0D5
:10184C00F9FA631C01200021082227F071FD0546DE
:10185C0001AB84200021042227F06AFD002800F04F
:10186C006581002D18BF0125023566E1622028F044
:10187C0043FB0146EA1C622028F0F4F98DF80400C1
:10188C0001AB67200521F2E0F520212104E0F520D1
:10189C00222101E0F52024218DF8040001AB672002
:1018AC00E5E0E81C0DF12A0127F010F800288DF86E
:1018BC00040000F0E18001A81821FF22013028F07B
:1018CC00B9FA06E115F8030F697822F079FA288045
:1018DC006720482102222B46CAE0E81C28F0F5FBC1
:1018EC00ADF8060001AC204617F0F2FC231D672072
:1018FC0041210822BCE0E87825F044F901AC01460E
:10190C00204618F067FE6720492135E0E81C0DF1F0
:10191C002A0126F0DBFF00288DF8040000F0DE80A1
:10192C004FF0FF30DCE04FF0FF3095F80380691D7D
:10193C000190ADF81000CDE90200FE208DF80600F4
:10194C00287903288DF8320047D10DF12A0028F0B0
:10195C006BFB47E0EC1C204626F092FC002818BFDD
:10196C002046B5F80B1019F04FFB01AC0146204690
:10197C0018F030FE67204A212422234678E001AC7F
:10198C00E91C0822204627F03DFE204627F0FEFBEE
:10199C008DF82A000DF12A0367204B2167E0B5F87A
:1019AC000B006A7B0024E91C8DF804400AF0F6F861
:1019BC0001AB67206421A5E00024E91C08228DF806
:1019CC002A4001AD284627F01DFE28461DF078FB65
:1019DC000DF12A036720632194E0084628F075FB7B
:1019EC00ADF82A00AF7B002F00F0DE807E0095F86A
:1019FC000D90304628F06DFB002800F0D58005F1E5
:101A0C000F013246044627F0FDFD0DF12A01404638
:101A1C004A463B4600940DF051FB002800F0BA807A
:101A2C0083780178427805798DF806308DF80410AA
:101A3C008DF805204279C1788DF808508DF8092071
:101A4C0052008DF8071001A98B1D811D184627F037
:101A5C00D9FDA6E0B1F5A06F03D04FF6FF71884217
:101A6C0002D100205749086001AB672006210122F2
:101A7C0020F094FF002448E0182028F02AFB40B303
:101A8C00BDF82A100446009006200022182324F0EA
:101A9C00A5FEB8B9BDF82A5001AE21461022701C23
:101AAC0027F0B0FD454F05EB450506F1110057F841
:101ABC00251028F077FA07EB8500416806F1150030
:101ACC0028F070FA2046182128F00AFA204628F04F
:101ADC00FEFA01AB672044211922C9E7BDF82A00A0
:101AEC00ADF8050001AB672045210322C0E7324960
:101AFC0001220A7021F051FB002467200A218DF885
:101B0C00044001AB012220F049FF20460DB0BDE896
:101B1C00F08385F80D806720002132462B4620F09B
:101B2C003DFF284628F0D3FA84BBA3E70198002D8B
:101B3C0000BAC4F8090018BF01250DF12A0383204F
:101B4C000021022227F0F4FB08B1043503E0BDF8B4
:101B5C002A00A4F80D0004F10F03612000210122DA
:101B6C0027F0E6FB002804F1100318BF08356220AB
:101B7C000021102227F0DCFB0028234618BF10356B
:101B8C00672001212022257020F008FF204628F034
:101B9C009EFA6FE74FF6FF70ADF808006FF48030D7
:101BAC000190204628F093FA01AB67204D210E22BC
:101BBC005EE700BF7482002070270020807D00202B
:101BCC0040420F0054820020F4250020A026002063
:101BDC002DE9F04F85B084780226362C00F2C882AD
:101BEC000546DFE814F0660191014D017D015201BB
:101BFC00C502C5025B0137005F00E8004101FB0034
:101C0C00C502E0009901C502C502A301D201C201BF
:101C1C00C502C502C502C502C502C502C502370010
:101C2C005F00C502C502C502C502C502C502C502D8
:101C3C00C502C502C502C502C502C502C502C50260
:101C4C00C502C502C50270002D01E0019E004900CD
:101C5C0049006E0128F08BF9242840F07A8102AB00
:101C6C00352000210422002427F062FB002800F01C
:101C7C0004820222012006E2DFF85485D8F8000025
:101C8C00F8B1406AE8B102A928F07DF90646342C77
:101C9C0040F0E981304628F018FA002800F03B8229
:101CAC0004205CE200208DF8100028F060F9064654
:101CBC00092C40F09B8095F8059095F8068007203C
:101CCC009DE003204BE2DFF8086501208DF8100041
:101CDC003068002800F077810069002800F07381DB
:101CEC0002A928F050F9042124F028FE002800F065
:101CFC000E82044628F0EDF9002800F06781214699
:101D0C00054628F0EDF83068BDF80C1022462B463D
:101D1C0006690298B0478DF81000284628F0D7F9CC
:101D2C0054E1DFF8AC743868002800F05381C069C6
:101D3C00002800F04F8102A928F025F99DF80850E1
:101D4C00BDF80AB0BDF80C90044628F0BEF9A67890
:101D5C008046F72E28BFF726B01C5FFA80FA504653
:101D6C0028F0B7F9002800F0D481012D044608BFF3
:101D7C00BBF1000F00F002823868A11C42463346CA
:101D8C00C569029800914946A8470746002840F0CB
:101D9C00FB81002761203321524623466670277051
:101DAC0020F0FCFDF0E1002661200E2101228DF8CF
:101DBC00086002ABF6E1E878032800F22381281DC5
:101DCC0028F083F90246E878DFF80C1431F810108B
:101DDC00DFF80804007828F0E2F814E127F0FDFFA2
:101DEC00ADF8080002AB61200C21DAE0681D28F088
:101DFC006CF98146E81D28F068F98046092002AF8D
:101E0C00242E18BF2F1809EB080508BF35263046BD
:101E1C0028F072F8854201D90220A0E1B9F1000F37
:101E2C0004D1304641463A4623F026FB3046414623
:101E3C003A4627F017FF002800F018810A208EE19F
:101E4C00DFF88C432068002800F0C68080690028E9
:101E5C0000F0C28002A928F096F82068BDF80C109A
:101E6C00826902989047B8E0E878032800F2CF80A6
:101E7C00D94931F81010D94800781DF093FEC7E00D
:101E8C00D74B612002210A226FE102ACE2202146ED
:101E9C0024F0F4FF612004210822B1E028F067F857
:101EAC000446681D28F011F9242C40F0B580002060
:101EBC0022E1E878012802D0002840F0588127F070
:101ECC0009FCC34C2068002800F08D80C0680028F5
:101EDC0000F0898028F04BF82168C968884783E0B6
:101EEC000120EC1C8DF80800E220214620F078FA45
:101EFC0030B901200821224627F0B4FE8DF80800E5
:101F0C0002AB612003212FE140F259600121ADF8B1
:101F1C00080002AB612044E0E878291D012800F09C
:101F2C00D980002840F0DD80E020D7E028F01FF8B1
:101F3C000446681D28F0C9F8242C0FBF0020014668
:101F4C00204627F081FF8DF8080002AB612012219A
:101F5C000AE183466938002680B2032838BF01267F
:101F6C00681D082C6ED105786FE0E8788DF80800B4
:101F7C0098488068D0F8302402A9E02090478DF86A
:101F8C00100004AB61201421EEE027F0F0FF2428B0
:101F9C000CBF002027F0B0FFADF8080002AB6120A9
:101FAC0013210222E1E08A4C206808B3806AF8B160
:101FBC0002A927F0E8FF2068BDF80C10826A02988D
:101FCC009047014615E003208DF8100004AB61200A
:101FDC003021C9E00327DCE003208DF8100004ABAE
:101FEC0061203121C0E0032027F0CFFE3621BBE079
:101FFC00002102AC204627F0D5FF612032210422BB
:10200C002346B2E0022027F0C0FE0A21ACE00220F9
:10201C0027F0BBFE0B21A7E005F10806ED79014680
:10202C00A84265D92046002227F016FE09288DF813
:10203C00080063D1002D61D020462946324627F096
:10204C0011FE5BE028F041F80546584627F054FF96
:10205C000227A84288BF7700EFB100268DF80870E0
:10206C00612021469AE006F1010957E0012E78D152
:10207C00E220394620F0B4F971E0029804220224DF
:10208C00ADF8120000208DF810008DF8114004AB53
:10209C006120082169E0401B87B2F72F28BFF72782
:1020AC00B81C5FFA80F8404628F013F8002863D07B
:1020BC0000F1020A81463946504627F011FF584676
:1020CC0029463A46534627F033F9054600286CD08A
:1020DC000A2775E00878022814D2522020F080F9E3
:1020EC0000E002208DF8080002AB61200F213BE0DC
:1020FC002046324627F0B0FD8DF8080002AB612077
:10210C00072131E002A9522024F0B8FEECE70520AB
:10211C005AE710273DE006F1030902369DF8080046
:10212C003678012811D1BDF80A0070B9BDF80C70D1
:10213C0031464A46384623F09FF9012F07D1E22059
:10214C00494620F04DF9012701E0BDF80C70D8F894
:10215C000000394632464B46456A0298A8478DF82E
:10216C00100004AB61202146012220F017FC002650
:10217C00304605B0BDE8F08F10276EE7A9F1690075
:10218C000328BFF4F9AD0227204627F0A0FF002F4B
:10219C00EDD000268DF80870612033218DF8096090
:1021AC0002AB022220F0FAFBE2E789F8017000276B
:1021BC006120214642464B4689F8007020F0EEFB28
:1021CC00484627F084FF002D7FF447AFCFE700BFD0
:1021DC00382700200C0100202CBC0200E4820020D7
:1021EC00C8BB02002DE9F04F9FB00446DFF8940500
:1021FC00406818B18047002800F05182DFF888054C
:10220C00DFF888B50F940DF1400A4FF0F80800780C
:10221C000BF11807411E002C0C9118BF01219BF8E3
:10222C000290002400258BF80F109BF801100E91E2
:10223C0084421FD2A14517D0E6B200215246042396
:10224C00304627F0A7F9109810F4403F40F00400F6
:10225C00C0B218BF01357C2806D130460621F822C1
:10226C0026F012F987F80080DFF81C050C370134D2
:10227C000078DDE7E9B201380024884204D19BF8EC
:10228C000500002800F07A820F9DCDF83490DFF81D
:10229C00F4840DF15C09C5F50050002D0190284621
:1022AC0008BF1020C0F500500490002003900E9E33
:1022BC000C9F0024380400F0F4819BF80F0010B937
:1022CC0001208BF80F00F0B2002110AA042327F094
:1022DC0061F91098D5B110F4403F1AD04FF400506A
:1022EC00DFF8A4140134013FABF810009BF80F0089
:1022FC00097801388BF80F00012050FA86F0B0FBFA
:10230C00F1F202FB11068BF80D60D3E70021069168
:10231C0002E00E960C970694C0B20E9F0024702813
:10232C0003D0F8B2702122F063FC0D98002110AAA2
:10233C0004235FFA80FA504627F02CF99DF84000F0
:10234C00FE2803D05046FE2122F052FC50460621B6
:10235C00FE2226F099F84FF400500D9B0BF116015C
:10236C005A468BF80D70ABF8144088F80040ABF867
:10237C001000FF20D67B8BF80E00F8B28BF80C30D7
:10238C00400050FA87F001EB8000B0F806B04FEA3D
:10239C004A0050FA83F001EB8001FE20A2F812B043
:1023AC000D4605F8020F31F8060F0890DFF8D80338
:1023BC000591047816A821F06FFE56FA87F0CDF837
:1023CC002CA0013890FBF4F101FB1400029016983C
:1023DC0009900E97FFB2574500F05B81A7EB0A00FE
:1023EC00B0FA80F040090A90002007900F9EC007B9
:1023FC0040F09F801FFA8BF4162C70D998F80000CF
:10240C00002840F06E81ABF10706384611AAB1B234
:10241C0018F0E0F9BDF8528008F11000A0420FD876
:10242C009DF84E0096280BD1A6EB08049DF84D2084
:10243C0041463B461FFA84FA50461BF07DFF08B319
:10244C00ABF1010BDFF83C835C46A0B2172864D3D8
:10245C003628A4F1160638464A4688BF2026A41B07
:10246C00B3B2A1B227F096F83004EED019FA86F088
:10247C0010F8010C962801D0013EF5E706EB040B91
:10248C000020B3E79DF84F00C10701D1800704D4A9
:10249C000020A346DFF8EC82A8E708F1070083B21E
:1024AC00089813FA80F6B6F5005F01D90120F1E720
:1024BC0080B2B94918440A1A3846514627F06AF8CE
:1024CC0007980130B6F5005F079004D101204FF456
:1024DC0000510891DDE70020A3460896DAE707983B
:1024EC0010B1AA4927F0A2F90298C0B2874200F0B5
:1024FC00D4800E990120DDF82CA050FA81F0A2496D
:10250C000978B0FBF1F202FB1107A04907EB470079
:10251C0001EB8000B0F81CB05BE79D48099900689E
:10252C0042689C48904700200A900E980D900F9E90
:10253C0008E0079810B1954927F078F900200A9027
:10254C000E980D9098F80000002840F0CA80089C66
:10255C0010210E95A4F11000C4F5005283B20B9813
:10256C00C1F2001221F0B4FD98F80010084309994B
:10257C0088F80000864800684268864890470A98A8
:10258C0088B1814800783918013991FBF0F202FBCF
:10259C001011C8B20D91400050FA81F07B4901EB4B
:1025AC008000B0F81CB079480123A0F814B0834621
:1025BC0004820D98BBF912209BF80D108BF80E00BD
:1025CC00059804800B9C204623F05EFEBBF914207A
:1025DC009BF80E102046022323F056FEBBF8100089
:1025EC00354656B10199DDF80CA0069E8142A2BF7A
:1025FC004FF0010A0121039102E0069E4FF0000A00
:10260C00049981424FF07C01B8BF78210B9C204685
:10261C0022F0EEFA0EF0B4F907469BF80F000621F3
:10262C00FC22C01B8BF80F00204625F02DFF0E99C5
:10263C00FC209BF80E3008709BF8021017FA86F0FD
:10264C000E93014450480078B1FBF0F202FB1011DC
:10265C008BF802100D910131CAB2B2FBF0F202FB01
:10266C0010118BF8011003EB43010BEB8101898BEB
:10267C00102906D10E990131B1FBF0F202FB1010BA
:10268C000E900C98C01B0C905FEACA703FF40FAE12
:10269C0007E0012057460A9049E7029851E70024C9
:1026AC006CE07C2022F0BEFA0446FF284FD17E203D
:1026BC0022F0B8FA0446FF2849D19BF8014004EBFC
:1026CC0044000BEB8000807DFF283CD02E489BF80B
:1026DC00021000780144013991FBF0F202FB101456
:1026EC0035E02B480999006842682A489047274EE4
:1026FC00002525480078854214D2ECB2204615F00E
:10270C003DFA98F80010084388F8000045B11E48BF
:10271C0000780138854203D020467E2122F068FAE9
:10272C000135E6E7B18B01380024B070C0B2F4700B
:10273C007470F180FE2122F05BFA00207C2122F0E3
:10274C0057FA74711AE020467E2122F051FAE0B259
:10275C00FE218BF80340400050FA84F00BEB800014
:10276C00808BABF806009BF8020022F041FA0020A7
:10277C008BF80500BBF81000C0F5005420B21FB058
:10278C00BDE8F08F4C230020E5820020D07A002099
:10279C00D801001000400340002000112DE9F04F3B
:1027AC0089B021F051FFDFF810158122DFF8148574
:1027BC00DFF814A5DFF82045DFF814E50A70DFF820
:1027CC00FC140860DFF8F804FF2101700020DFF82A
:1027DC000415A8F800008AF80000DFF8F004096876
:1027EC00007891F808B04FF6FE718EF8000059444D
:1027FC008AB2A168D1F80031DB899A4200F2678174
:10280C000422DFF8DC54A8F80020DFF8D02412688A
:10281C009668330ECEF80C60C6F301592B706FF02E
:10282C00FF0303EA1627B3B2D1F8B86047EA1327BF
:10283C00AEF8047036781EB9B9F1020F00F047817A
:10284C00B9F1030F00F043811B0A03F0070316B123
:10285C00002B00F03C81DFF88CC4042B9CF800C0EA
:10286C0008BFBCF1000F00F032813EB1DFF8786494
:10287C003678862E02D1022B40F02981BB0416D467
:10288C00BBB203F00703022B08BFBCF1000F20D032
:10289C00DFF854140978862909D10020764621F0F6
:1028AC0027FFDFF84004B64690F800C030780028C7
:1028BC004ED0BCF1000F4BD1012800F00881032849
:1028CC003FD0022844D1BEF80400400740F0FF80FE
:1028DC003EE0D1F8D40090F88300022800F080800C
:1028EC0027460520147BF246A946A8F8000027F0DD
:1028FC0051F80546DFF8F003007886286DD1B868EA
:10290C00016C096811B9D0F84C05804760B2002100
:10291C00002627F025FCB9680A6C12685077086C01
:10292C0000688677086C0068C477284627F001FB9E
:10293C00BAF8041099F8000001F010011DF000FB2A
:10294C004EE0BEF8040000F00700032840F0BF8002
:10295C00BEF80400010700F1BA80810402D481059D
:10296C0000F1B5809EF80E20C2F38107012F00F014
:10297C00AE809609012E00F0AA80B9F1010F11D892
:10298C0040F0020101F0070103290BD117B93F2ACE
:10299C0040F29D8037B9A168D1F8AC1009780029B4
:1029AC0000F095804FF6FB71B9F1020F0BEB010CA7
:1029BC0019D1CF4BD95D9B5D03EB01090023402A54
:1029CC00B7FA87F238BF012352091A40430616D4CE
:1029DC00002A08BF09F1020915E0284627F0A9FAD8
:1029EC0025F004FF75E0C14B402AD95D9B5D03EBDC
:1029FC00010908D3420648BFA9F1020903E0002AE5
:102A0C0018BF4FF00209C0F300205FFA89F11FFADA
:102A1C008CF30A1A8EF801009A4258DC6044039138
:102A2C00B346401AA168AEF806007430D1F85012C3
:102A3C0080B28847A6490028886048D07421CDE927
:102A4C00019727F04DFAA24F0020B870A5480078E6
:102A5C0020B9387900F020008AF8000078789AF8CC
:102A6C000010DFF878C24FF000092E4600299A4971
:102A7C003DD000284FF000003AD1B88800F0070094
:102A8C00032807D0012832D18868D0F8D40090F8F8
:102A9C00820060B3C8684069007818B126F0EAFA81
:102AAC00FE280DD08C488068D0F84C02804738B98D
:102ABC0089488068D0F844028047002800F0F780ED
:102ACC00834F0120B870DFF814C22E4610E026F0B8
:102ADC0039F926F05FFF814900240A6813681C71DC
:102AEC0012680A6027F025FA09B0BDE8F08F0020C3
:102AFC00BC6804F1740184F830B06160A165797828
:102B0C00BB88FA880029A381029B228184F83A3081
:102B1C00337808BF994697F80EB084F84990019D18
:102B2C00A4F85C20FF22B8F80030A273CBF3011993
:102B3C005E1A797BA8F8006001F0780160F38201DD
:102B4C0001EB09002074280600F0AE80DCF80000D0
:102B5C0004AF039A10FA86F000F10801384627F00A
:102B6C00DFFA56FA85F0CBF38105A8F80000207C3B
:102B7C0000F04008CDB3B9F1020F06D1B8F1000F47
:102B8C0003D0B4F8440004AF06E0BDF810000237DF
:102B9C00A4F84400A4F84200564EF189884203D0B0
:102BAC004FF6FF7188425ED1032D11D104F1320032
:102BBC00394627F039FA464CF11CA068323024F023
:102BCC007FFF454900284ED094F80EB008370EE030
:102BDC0037F8020BB1898842608606D04FF6FF7138
:102BEC003B4C88423C493ED101E03B49384CBBF15F
:102BFC00400F20D3B9F1020F06D16DB9B8F1000F17
:102C0C000AD13348806803E0A068017C490603D4EC
:102C1C0039880237A0F84210BBF1C00F06D32C4CF8
:102C2C003946A068283027F0FFF903E0284C388893
:102C3C00A168088528498968A088D1F8AC20127849
:102C4C00B2B1B9F1020F13D200F00700012802D083
:102C5C0003282FD11E4C6DB9264AA368D289B3F82C
:102C6C004230934206D023F068FE19F07BFC30E72B
:102C7C0000F00700032806D0012815D1D1F8D400A4
:102C8C0090F8820080B1A068D1F848128847104AA9
:102C9C0050B90020D17B9070907BC1F3011100F0F2
:102CAC00780008449168087406F0B2FF11E7084FE9
:102CBC00B87808E7064CDDE7FA8200208482002011
:102CCC00FF8200200E810020FD820020FC8200206B
:102CDC0004250020C48200200C0100201C8200204E
:102CEC000D8300200C8300200283002020BC0200F6
:102CFC001CBC0200508100202DE9F04F8DB00C4619
:102D0C0048070FD4200441D4E00400F17E81200652
:102D1C0000F1A581A00700F1B981200500F1DC814B
:102D2C000020D3E1DFF8F0040178062900F2948149
:102D3C00DFE811F007008201920192017B01920100
:102D4C008701DFF8E054DFF8D4142A7891F82B309F
:102D5C00022A02D19E0600F17F815E0700F182817A
:102D6C009B0740F179810423037091F82C30DB0729
:102D7C0000F0728191F82E30002B00F03B8225F090
:102D8C0021F90420012101F005FD3FE2DFF8980450
:102D9C00DFF88C54DFF88094DFF880B4DFF884A47B
:102DAC0048F202080088019028781CF091FA00285B
:102DBC0000F0288106460078D3282DD1F0894045B3
:102DCC0040F00681DFF868040078002800F00081EC
:102DDC0099F80000012840F0FB8026F05BFB0028EE
:102DEC0040F0F6807088002840F0F28002AF12218B
:102DFC00384627F075F826F091FF3046394618F022
:102E0C0011F8BDF81400B0F5285FC0F086800120E1
:102E1C0002211EF027FEDBE099F80010884218D141
:102E2C00012833D0032840F0D3809AF800000138F1
:102E3C00012800F2CD80B078012850D0002840F055
:102E4C00C7807078002800F0B38000201DF0B4FA21
:102E5C00BEE00A2806F102070BD19BF82B0030715B
:102E6C00DBF8181009B138468847384624F0AAFE1A
:102E7C00AEE0092840F0AC809AF80000002840F041
:102E8C00A780DBF8081038468847A1E09AF80000C4
:102E9C000138012800F29C80707860B19BF83300F7
:102EAC009BF8341001308BF83300C0B2884202D941
:102EBC000120002153E099F80100032863D0022877
:102ECC0050D0012840F08480DFF86403007800289B
:102EDC0040D026F0DFFA00287ED001203BE070784D
:102EEC0000286BD026F08CFD4FF6FE71D14F884236
:102EFC0002D1F88A884206D0F982ADF8201053200E
:102F0C0008A91FF06DFA1EF045F924F0BBFE002055
:102F1C0087F826001CF0C0FF5AE0C748006807A9D4
:102F2C0008AA16F07DFC07460198874212D29DF83C
:102F3C00300010B1FD208DF83000042039461422E9
:102F4C0008AB23F061FCBD4907EB470001EB8000A7
:102F5C000121417200208BF832000120012101F087
:102F6C0019FC35E001208BF804004FF48060ADF8BB
:102F7C00200008A818F042FC26F0D0FEAB484FF415
:102F8C008051026821E008AFAB2000213A461CF0CA
:102F9C006BF8042002978DF80C0002A80FF058FA79
:102FAC0026F0BCFE28784FF4805141F288320DE0B7
:102FBC000FF0BAFEDBF8140050B9ABE702204FF467
:102FCC00805140F6B83289F80200287826F0E7FFE5
:102FDC00304625F073F9E7E69BF8350028B1DBF8AD
:102FEC001C000028F4D08047F2E7002000210222C8
:102FFC000023ADF8200002208DF8280008A825F049
:10300C0007FBCDE748F204005EE086480078013803
:10301C00012857D88048017803294BD0012951D178
:10302C00417800201EF01EFD4CE024F0CBFF042064
:10303C00012101F0AFFB0FE0012001211EF012FD78
:10304C000AE0002132220170744880F82A1074487A
:10305C000421007826F0A3FF24F0040036E049F2A6
:10306C00840031E00522027091F82C20920730D5B3
:10307C0091F82E206ABB05220260012048700020C6
:10308C001BF0B0FE022023F021FFE5E76548007835
:10309C00013801280BD80020CDE9080008A811F050
:1030AC00B7FE20B15E48022100781BF075F949F299
:1030BC00860009E08178022904D101218170002069
:1030CC001EF0ACFC49F2040024EA00000DB0BDE88F
:1030DC00F08F05200021ACE752480078002840F022
:1030EC008680DFF838A1DAF80C50002D79D002A8D0
:1030FC000DF1200B01300BF104060190002D6DD069
:10310C00A87A18B10138A872000646D19AF8318015
:10311C00B8F1000F11D00020A91C08228DF8200056
:10312C00304626F06FFA584618F0A2FB28B12A88D0
:10313C00BDF82200314623F099F9AF1C0DF11F01A7
:10314C005A46384616F06CFB8146384607A922F0E1
:10315C00D8FEB8F1000F05D09DF8300040F0020009
:10316C0002281CD1DAF80800A0B1019839460822CF
:10317C0026F048FA022000220C238DF80800BDF836
:10318C001C00ADF812002648007802A90091092114
:10319C0020F041F828461DF081FEED68AEE7384678
:1031AC0023F00BFC9DF81F000128DBD1584614219D
:1031BC0026F096FE214A09EB490000215B4642F8B5
:1031CC00201002EB8000142241604172FF2049461E
:1031DC008DF83000042023F017FBC3E7DAF80C005D
:1031EC0028B90F484FF4006100781CF0DBFC49F65D
:1031FC00860069E7013A012A08D8032202600120FF
:10320C0048701BF0EFFD012023F060FE28780028A9
:10321C007FF422AF04205DE7588200208422002036
:10322C00ED820020F425002098BC020040270020ED
:10323C0089270020C07500202C820020703E0020C1
:10324C002DE9F04F97B0DFF8DC640546DFF8D87451
:10325C0030780328387040F03C8100203070387092
:10326C000DAC204626F0ECFE2046002125F06FFB2D
:10327C00DFF8B894B8603A21484626F031FE4FF09A
:10328C00FF30A9F81400C9F81000C9F80C0023F09D
:10329C0011F8002029461EF05DF907F11001F860C5
:1032AC0026F059FED7E90502DFF884B4B0FBF2F141
:1032BC00C9B2032928BF0321B2F5005F89F80010B9
:1032CC008BF8001040F00381B0EB413FC0F0FF8061
:1032DC00F868002800F0FB804FF40050FF224FF0FC
:1032EC00000845F201174FF08855A9F80600FF2099
:1032FC0089F8032089F8058005900020CDE90800A5
:10330C00CDE90600CDE90A000C90FF200490CDE930
:10331C000200CCB2A04580F0DF805FFA88F6002175
:10332C0016AA0423304626F035F9DFF80C44304653
:10333C00002115AAA0473046012114AAA047304607
:10334C00022113AAA04716996FF06F0050FA81F270
:10335C00C8B20E2A04D8012303FA02F23A4203D16E
:10336C00A0F1FE02022A04D242F28352B2EB914F38
:10337C001ED0304614F002FCDFF8AC1300280870A5
:10338C0040F0CB803046002116AA042326F002F927
:10339C00DFF8A4433046002115AAA047304601218E
:1033AC0014AAA0473046022113AAA0471699C8B206
:1033BC0008EB4802CA4609EB8204C1F30142090A30
:1033CC00E1759DF8561004F11609FD28627689F80E
:1033DC000000217601D9102135E0BDF854104FF6CC
:1033EC00FF7291422FD10EA820F056FE30460021DC
:1033FC004FF088524FF400534FF4005726F0CAF8A0
:10340C006FF0030313FA87F7B8B241594A1C01D184
:10341C000328F7D801220126D3B2042B06D8CBB24D
:10342C00FF2B18BF16460132090AF5E74151C34874
:10343C000E9900684268C248904799F8000057FA04
:10344C0086F145F20117A1839DF852107028A176E0
:10345C00BDF85010E1839DF84E10E176BDF84C108C
:10346C0021842BD07828D14624D07C280BD07E28E0
:10347C0015D0FE280DD0FF2818D10898CDF80C8057
:10348C00013008901EE00798CDF8108001300790AD
:10349C0018E00B98CDF8148001300B9012E00998CD
:1034AC00013009901FFA88F002900BE00C98013063
:1034BC000C9007E006980130069003E00A98D1467C
:1034CC0001300A909BF8001008F1010821E7012057
:1034DC00307017B0BDE8F08F0C98934E00060BD1EE
:1034EC000B98C0B2012807D80A98C0B2012803D89B
:1034FC000998C0B2012812D98E4804220024027007
:10350C00CAB2E0B2904211D214F038FB31780134D7
:10351C0008439BF800103070F2E7834E18E0089ACD
:10352C00D0B2A04216D1834800220270002089F844
:10353C00030089F80100481E7E2189F80200B9F8C1
:10354C001C00A9F80600002021F052FB26F013FC09
:10355C003078BEE70A98000624D00B98059B00062D
:10356C0003D1039B100600F0858072480222DDB265
:10357C0089F802300270581C82B2B2FBF4F202FBE2
:10358C00110089F80100284614F0F8FA307028462A
:10359C00FE2121F02DFB012089F805000020FEF70B
:1035AC0021FED5E70B98000605981DD0034661480F
:1035BC00012289F802300270C8B2591C89B2B1FBE1
:1035CC00F0F202FB1010049A91B289F80100FF2965
:1035DC001ED10299FF2940F0978081B289F803002F
:1035EC00490011FA80F093E0DDE906201043000653
:1035FC003FF482AF22F032FEA0423FD3089800067F
:10360C0000F08C8026F0B7FB9BF80010039BCEE7F4
:10361C00480089F8032010FA82F009EB8000818BB6
:10362C001829A9F8061093D30739D0B20EAA89B27B
:10363C0017F0D0F89DF843004007AFD5B9F8061045
:10364C00BDF84620002399F8030000930323891A40
:10365C000EAA073989B207F0ABF800287FF478AFCF
:10366C00BDF8441000293FF473AF9DF848001DF0DD
:10367C00DBF96DE722F0F2FDA0424FD22D48032179
:10368C00017022F0EBFD044689F80C0000EB4000C1
:10369C0009EB8000408BA9F80D000DF071F99BF837
:1036AC0000102044B0FBF1F202FB110089F802007B
:1036BC000130C2B2B2FBF1F202FB110089F8010039
:1036CC007C2021F0AFFAFF2812D17E2021F0AAFA3B
:1036DC00FF280DD1FF2021F0A5FAFF2808D1782072
:1036EC0021F0A0FA014699F80100FF2918BF0846FD
:1036FC00C1B289F80300490051FA80F009EB80004F
:10370C00808BA9F8060021E701EB410089F8031032
:10371C0009EB8000808BA9F8060019E70548062103
:10372C000170FEE7662700204C230020D07A002091
:10373C00E5820020F1820020559A0200D801001089
:10374C00004003402DE9F84305460C46480413D4C9
:10375C00A00024D4A0075CD460057ED4200500F121
:10376C000681200700F13B81600040F1F6801AF0E1
:10377C0045F924F08044F0E026F00CF9DFF81C1435
:10378C000F6D3FB1D7E90A1202F0E04201F00A01D5
:10379C00891849D026F0CDFB24F48044DDE0BB48E9
:1037AC00DFF8FC73016841F080010160B8780128F2
:1037BC0004D1042021F09EFA0020B87026F0EAF81B
:1037CC000646042026F08EF9DFF8D8130A689042DA
:1037DC0019D12A7EBAB1FA68AAB1DFF8C003806C9D
:1037EC00002800F09780C16840F6030209889142D6
:1037FC0006D0C06840F604010088884240F08A80F8
:10380C0005F1140088E040F6C4120860C5E90422F2
:10381C0084E009F09BFCDFF88403006C002840F086
:10382C009D8024F0020498E0D7E90A65D7E90A12D2
:10383C00AA43B143C7E90A1226F07BFBB8680028FB
:10384C00AAD056EA0500A7D0D7F808C03869B7F94E
:10385C00301032462B46E0479EE726F09BF8054693
:10386C0023F0B0FE002800F0B780CC48876B002F07
:10387C0000F0B280DFF828830420CB49002288F8BE
:10388C001800C64825F0ECFA26F083FBC74826F052
:10389C004AFBC7480068006B8047C8F81000012538
:1038AC00042088F8025022F015F8386990F8281096
:1038BC00C8F80400490703D5436A0421002298473D
:1038CC0001201BF05DFDD8F80400457613F090F94B
:1038DC00D8F8040081680B461A465B684BB11E8809
:1038EC00A6F60306072EF7D805FA06F616F0830F90
:1038FC00F2D0537B03F0F003013353730023FD68C4
:10390C0053602D88A5F60305012D00F28A80C8F8B6
:10391C0010309FE005F110001EF052FC304626F0EE
:10392C0008FB21F0EFFF78B12E6A28466FF4807106
:10393C0000224FF00073B0479848806B10B11AF01A
:10394C005DF801E044F00204EE69284600210022F3
:10395C004FF08063B04724F0005434B197482146AF
:10396C002830BDE8F84326F0CABBBDE8F8838C4E7E
:10397C00B078012804D1042021F0BCF90020B070EB
:10398C0021F0C0FF38B170686FF4807100224FF0E5
:10399C000073056AA847306950B185480068006B10
:1039AC00804732697168801A000BC8600020306152
:1039BC007A4D81490022284625F052FA02203076B1
:1039CC00286C20B17D480221283026F098FB1AF093
:1039DC0015F824F40064C0E726F0DBFA41E025F08A
:1039EC00D9FF054623F0EEFDA0B1DFF8B48198F8BD
:1039FC00000000070ED498F9000000280AD468468D
:103A0C0013F0D6FB08B1009820B1DFF8B49199F807
:103A1C00610048B326F0BDFA19F0F0FF24F0080459
:103A2C009BE7034633F8385FA5B190F8445090F803
:103A3C00456005F0F00580F8445006F0F0050135BE
:103A4C0080F8455000255360C5634587507B00F0D6
:103A5C00F000507357480022C2610160012024F02D
:103A6C0011FA24F4806478E700260127602E0FD029
:103A7C0009EB0600817A31B18772407A07FA00F0BF
:103A8C00C0B221F051F92036F0E700BFCC2108403C
:103A9C00032088F81800454826F045FA26F079FAF4
:103AAC00444F3E4D0022786900207861F968F86037
:103ABC002846444925F0D4F93D480068006B8047FE
:103ACC00D8F80C10D8F82020411A02EB1130B0EBCA
:103ADC00113F38BF4FF0FF3098F82410C8F8200081
:103AEC0021B1D8F80810B0EBC12F20D924F0DAF9A5
:103AFC00B8B140F60900414621F83C0F002048803F
:103B0C004A7B02F0F00201324A730A7B02F0F002A7
:103B1C000A734860F8613960B8F83E0010F4406FE1
:103B2C00FAD00020C8F82000012088F824001DF0ED
:103B3C00C9FC2548002101600220002124F0A2F9D3
:103B4C00022021F0D7F8102012F058FC98F8010050
:103B5C0020B9D8F80400503026F0CDFA1B488078F4
:103B6C0010B90D2012F04AFC98F8250028B100205D
:103B7C0088F82500052021F0BDF8002088F81800F1
:103B8C001348C8F81C000220B5F85610B5F854209C
:103B9C00914208BF072018F0E5FF3DE708210020FF
:103BAC00101F0020B0260020AD75020050790020B7
:103BBC008C01001000100440990F010048200020D7
:103BCC00387600206DDA01000000046074BB02003E
:103BDC006D0501002DE9F04F8DB084780226142C70
:103BEC0000F214820546DFE814F0360015001500CB
:103BFC008900C700110211021102110211021102F7
:103C0C001102110211021102110228006600790042
:103C1C00E100D000012095F80180022C8DF83100D4
:103C2C0039D1E878291D03288DF82C0040F0E38069
:103C3C0009A8082225F0E6FCE2E0E978032900F265
:103C4C00C281281DDFE811F00400BB01AA01B201FA
:103C5C0019F02AF8D1E110208DF8240026F039FA59
:103C6C0098B10446DFF8B00321466060E81C10F000
:103C7C003DFC8DF8240028B9204623F045FD8DF835
:103C8C00240010B1204626F022FA002609AB64204D
:103C9C0000210122ABE1E81C02218DF82C1026F04A
:103CAC0014FAADF824000020AE1DADF82E00687992
:103CBC008DF82D00AFE0E81C26F007FAD54C6668AD
:103CCC00002E00F00E816A79002A00F041813368E1
:103CDC00A91D184425F096FC002003E1CD4EEC1CE8
:103CEC0004212046376822F029FE002F00F0818045
:103CFC00B968814200F0CD803F68F6E701208DF86D
:103D0C0032000020CDF82A00ADF82E00CDF82600A8
:103D1C0002208DF82C00E81C26F0D7F9ADF8240011
:103D2C006979A8798DF82D1025F0FCFC8346E81DE7
:103D3C0026F0CBF995F80C908046687AAC7A95F819
:103D4C000BA04FEA49078DF83100384626F0C1F92F
:103D5C00002800F0CA80CDE9074806464FF000085D
:103D6C0005EB080047452FD00D3026F0AEF926F8AC
:103D7C00080008F10208F3E7E87821F0BFF88DF8A5
:103D8C00240009AB642004213CE10026E878ADF85E
:103D9C00246009A923F050FEBDF824000DF1320374
:103DAC0014210222ADF83200642020E1A888ADF87D
:103DBC002400E87809A924F055FC8DF832000DF1A7
:103DCC003203642013211DE1BBF1000F00F0DB80F6
:103DDC00437B0DF131010E30CDE90496CDE90001A4
:103DEC0007985946CDE9020A09A8089A1EF00CF862
:103DFC00CAE00120F4E0084626F067F9ADF824008B
:103E0C00287B8DF82D0005F10D0026F05EF9ADF83C
:103E1C002E0005F10F06307825F084FC0546701C49
:103E2C0026F053F98146F07896F804A096F805B080
:103E3C00022C8DF8320008D1B01D26F046F9074649
:103E4C0006F1080007F1140103E0B779F01D07F142
:103E5C000A0135B189B2FB2905D36E4E7068002872
:103E6C0047D0022009E00DF132018DE8030C09A8BE
:103E7C004A463B46294603F01BFD8DF8310008F0FD
:103E8C00E000202840F0C1800DF131036420214670
:103E9C00B8E0EC1D204626F018F96D7A002D00F0E4
:103EAC00948005F102098246484626F012F9002852
:103EBC0000F095800026457080462A46067078688A
:103ECC0000EB0A0108F1020025F09CFB5FFA89F275
:103EDC006420122143461EF061FD404626F0F7F89F
:103EEC0094E010208DF8240049E010208DF8320069
:103EFC004FE007F11C0026F0ECF80028706079D038
:103F0C0000F11C010C22016000208DF8310070685A
:103F1C0009A9043025F076FB70680F214FF47A72F2
:103F2C000561C1769DF832103B4DC782A0F8149004
:103F3C0080F81AB080F819A001762878082126F0AC
:103F4C002EF800289BD0287808211AF025FA96E73D
:103F5C00D6F800C0F38AB28A3169757EB77E06F155
:103F6C001800CDE900C0301DCDE9025703F0A0FCCC
:103F7C008DF82400606826F0AAF80020606009AB78
:103F8C00642011213EE002208DF83200304626F0EC
:103F9C009EF80DF132036420032133E0007825F004
:103FAC00C1FB48B325F0ACF8002026E026F08DF8D4
:103FBC00A97925F0C7FDB0FA80F040091DE0007822
:103FCC001AF058FE19E0022017E03068B84201D10F
:103FDC0038683060384626F07AF8002000E010206F
:103FEC0000262070642012210222234666701EF0E7
:103FFC00D5FC0BE0102040E701208DF8240009AB24
:10400C006420102101221EF0C9FC002630460DB0A0
:10401C00BDE8F08F38260020E48200202DE9F04F17
:10402C008FB00C4608040CD4A00426D4DFF88853B7
:10403C00287802282DD1E10740F00381A10641D553
:10404C0058E0DFF86C0300781BF042F990B101786E
:10405C00DFF8602305460020602808D0135C083088
:10406C008B42F9D1104450F8041C28468847284646
:10407C0024F024F984F4004595E11DF0A7FD28B146
:10408C000546FCF7EFFD284624F018F984F400559A
:10409C0089E1A1062ED4012814D8E10600F117817C
:1040AC00610600F12F81210600F13D81E10500F14F
:1040BC003F81210500F14181E10400F1548161044B
:1040CC0000F15B81A10700F1E280A10500F1FA800B
:1040DC00210700F11181610500F11981E0034FF016
:1040EC00000540F160811CF09FF8B648C57084F45F
:1040FC00803558E1AE4F202138781FF04FFADFF8A9
:10410C00C4824FF00109D8F80810084317D025F0E5
:10411C00B2FF054625F0ADFF68434FF47A71B0FB52
:10412C00F1F0D8F80810401A4FEA500938BF6FF078
:10413C0000490025002964D0B9F1000F61D000209E
:10414C000421002222F062FF06464FF0060A4FF0CF
:10415C00FF0B4FF6FF7802AD002E4ED030460421F7
:10416C000022374622F052FF06463889B0EB090090
:10417C0038BF002038810004EED1B87BD0B30128C1
:10418C000AD17889400707D4386887F80DA0B72181
:10419C00407B1DF0D3FCDFE739682A468DF806B06A
:1041AC00ADF80480086AC97F0DF0E6F801281BD130
:1041BC00B87BB97A8DF838000907788A40F080020C
:1041CC00ADF8362006D540F4C070ADF83600387B1B
:1041DC008DF83A00786910B1007BADF818002846CC
:1041EC0001A9002202F034FD387B87F80DA016F0EF
:1041FC00B1F9B1E701207873AEE7DFF8C8816C4FF5
:10420C004D4623F050F800200121002222F0FEFE42
:10421C0018B1387820211AF0BFF8002004210022B0
:10422C00002622F0F3FE002847D006890421002244
:10423C0022F0ECFEA0B1B1B20689B14238BF0E46F5
:10424C00F4E7644890F82C100F2906D190F826005A
:10425C00022802D3002021F00DFB84F00105A2E01E
:10426C00A8B2B1B2814223D9D6FA55F0202180B23E
:10427C004200387825F093FE25F0FDFE054625F02A
:10428C00F8FE68434FF47A71B0FBF1F615E0524832
:10429C00007808B302AD284625F0E9FD25F09EFB19
:1042AC004E490B784E490A7829461AF0B9FF20E09E
:1042BC00387820211AF070F80026C8F8086084F0CD
:1042CC00200570E015F082FD84F400756BE008F0B9
:1042DC00A1FA84F0100566E03E48418B012025F0E0
:1042EC00EEFE2878022804D13148012100781BF019
:1042FC0059FC84F0020556E03248012184F008058F
:10430C00817050E00CF0B0F984F040054BE00228CD
:10431C0008BF16F01FF82F480121808C25F0C1FE34
:10432C0084F480653FE024F0BDFB84F080053AE026
:10433C0022F0A0FC84F4807535E01BF087FC20484B
:10434C00007801280CD11D48007848B14FF47A71DF
:10435C0000FB01F216484FF40061007825F01CFEBA
:10436C0084F400651FE01748017819B10021017031
:10437C001BF06CFC84F4805515E01448006880B187
:10438C001149097801290CD180471148006800B106
:10439C00804707484FF480414FF47A72007825F03B
:1043AC00FBFD84F4804528460FB0BDE8F08F00BFBC
:1043BC00E682002094B40200F42500209B27002004
:1043CC009C270020C42500209927002030230020A2
:1043DC003C230020C0750020752700209F2700205B
:1043EC00A12700202DE9FE4F8846080426D45FEA59
:1043FC00C87004BF0020BDE8FE8FE548056825F0B5
:10440C003AFE044625F035FE60434FF47A714FF6C0
:10441C00FF72B0FBF1F14FF6FF70002D00F01A8126
:10442C002B886C88CB1A9BB29C4240F21C81E31AFD
:10443C0094B2A342B8BF1A46ED68EEE7DFF840A38A
:10444C00CDF804809AF800001AF042FF002800F022
:10445C00FC8006460078012840F0EC80DAF8041065
:10446C0096F83390D6F814B096F8138021B14846DC
:10447C008847002840F0DE80718896F831000222CF
:10448C0022F044FB0546002842D0287A297CA0F172
:10449C000108FF2900F0BB80707F4F46C00718BF92
:1044AC000027E97C287D0144B94204D8E974FF2136
:1044BC0001FA00F06874A969A87C96F83020896A22
:1044CC0010FB0710F16A25F09DF8287D697CB7FB7D
:1044DC00F0F202FB107001228240D2B20A436A74DD
:1044EC00C8457CD196F83010AB7C13FB0713A96937
:1044FC008B844FF4FF7303FA00F0C0B21043FF2813
:10450C0068746CD1287C1AF00FFFFF2028747FE0B0
:10451C00707FC00700F08E80B07F25F003F9002873
:10452C0000F0888004461C2025F0D3FD002800F004
:10453C0081801C21054625F0D3FCB07F02A923F015
:10454C007BFA9DF8090002212875284623F0DAFA37
:10455C00708896F8312096F8301096F83330A88091
:10456C00287DEA71FF2202FA00F068746068007816
:10457C00A9742874302013FB010080B222F080FF54
:10458C000028A8615DD004461A20B11C2060708CF4
:10459C00A080A01D24F074F8F27F04F13000B17FEC
:1045AC0096F82830C4F81CB084F81980A062307CCE
:1045BC00E273744A217563750121A075928C228275
:1045CC00F28EA285F28C6282B6F81100A4F8170064
:1045DC009AF8000085F8089019F0DEFE55E725F0F2
:1045EC004AFD044625F045FD60434FF47A71B0FB5B
:1045FC00F1F06549288063480978007948436421C3
:10460C0048436249097800FB0100688000E04F468E
:10461C00E87C297D6A7C01440139B94218BFFF2A24
:10462C000CD186F83300708806F11C0186F8342012
:10463C0017F0A9F8304623F041FE03E7C845F9D13D
:10464C00EFE7284623F06EFAF4E7019880F4004077
:10465C00BDE8FE8F92B282424BD0494801210078CE
:10466C0025F09DFC45E0A879022806D1287CFF287E
:10467C0037D0A86923F022FE33E025F0FCFC044679
:10468C0025F0F7FC60434FF47A71B0FBF1F03F4931
:10469C00288095F83800097888421BD295F8362086
:1046AC00FF2A06D195F83720013085F8380085F8B7
:1046BC00362095F8351095F8394082F0FF0300202C
:1046CC000126C7B2A7421DD206FA07F71F4214D122
:1046DC000130F6E7EA8BA87E95F82A10E9231FF043
:1046EC00A7F8284623F01EFA25480121007819F076
:1046FC0053FE88F00100BDE8FE8FFBB201441A4363
:10470C0085F83620AB8F95F83440C8B204FB1033D3
:10471C009EB2A64203D2FF2285F8362002E0FF2A81
:10472C0008D12346184A174E1278367972436426FC
:10473C00724302E095F83A2023466A802A8D0E06D1
:10474C0006D022F0200244432A852A6C224404E03D
:10475C0042F020012A6C2985297A85F82E10E979F6
:10476C006A6285F82D10D9B269840549496811B17E
:10477C0088470028B8D105F1100004F019FCB3E704
:10478C0018260020C07500208F27002095270020B8
:10479C00347600207FB50138072800F24E810C4694
:1047AC00DFE810F0080050009F00B900D4004B0166
:1047BC002C007800CC4800780138012800F23D81AB
:1047CC00002C00F04A810020032100241FF04CFA39
:1047DC00C74DC84E0420042132222870307825F0B1
:1047EC00DEFB0820002107F01DF930786C704FF4C7
:1047FC00805104B0BDE870401BF0D4B9BA4D002014
:10480C008DF80E00002C287800F0BD8018B9092016
:10481C0023F088FB2878022806D10820002107F015
:10482C0001F9042023F07EFB11F082FBB04800213B
:10483C00C8220170AD480D2180F82A10AD4825F032
:10484C0032FBB9E00020002524F074FFAA480121B6
:10485C00017004208DF80E0074B1A448A24C45855B
:10486C002078012803D1072023F05CFB2078022854
:10487C0002D1062023F056FB9D48042132220570FC
:10488C009C48007825F08BFB984890F82B1001F091
:10489C00FE01D0E005208DF80E0093480078022828
:1048AC0040F0CB80002C00F0F28091480022C178BF
:1048BC00C270017042F20800002107F0B3F88B4877
:1048CC000D2190F82B2080F82A10C17802F0DF021D
:1048DC00002980F82B200CBF04200D2023F022FB94
:1048EC00ABE0814800780138012800F2A6808148AD
:1048FC0004213222007825F052FB002C00F0D080ED
:10490C007A4C7B48012101702069002800F0A480BA
:10491C001FF0BAFDF8E70120002C8DF80E0051D0E5
:10492C0072480021764A80F82A10744825F0B6F8AF
:10493C006D4C2078012803D1072023F0F3FA20785E
:10494C00022846D1062023F0EDFA42E002208DF831
:10495C000E006648002C49D00021694A80F82A10C4
:10496C00664825F09BF8002003211FF07DF95E4C72
:10497C002078012803D1072023F0D4FA20780028CE
:10498C004DD1092049E0594C022812D194F82E003F
:10499C0078B194F82B00002140F0200084F82B0013
:1049AC0005208DF80E00082007F03CF80A2023F0B3
:1049BC00B9FA022084F82A004C4890F82B1001F028
:1049CC00EF0138E04848007818B94848022180F8CF
:1049DC002A104748002132220170464825F063FA1C
:1049EC00424890F82B1001F0FD0124E0082180F8DA
:1049FC002A103D490978012911D890F82E0070B978
:104A0C0000200DF10B018DF80B0052201DF0E8FC7D
:104A1C0024F00CFC1EF02CFD002023F083FA34480B
:104A2C00002132220170334825F03DFA2F4890F8CE
:104A3C002B1001F0FB0180F82B102C480DF10D010F
:104A4C000022032390F82A008DF80D0029480078E5
:104A5C0000910A211EF0DFFB7FBD244C0720254D61
:104A6C004FF4805184F82A0001208DF80E0028782C
:104A7C001BF098F80020002622F03CFA287802213E
:104A8C0041F2883284F82B6025F089FAD5E7174873
:104A9C00022180F82A1090F82B1041F02001CAE76F
:104AAC00124C022000218DF80C1084F82A001048BA
:104ABC00017094F82B0000F0FD0084F82B0001200D
:104ACC008DF80E0003A952201DF08AFC24F0AEFBD9
:104ADC001EF0CEFC002023F025FA20690028ACD073
:104AEC001FF0D2FCF9E700BFF4250020842200203F
:104AFC0058820020ED8200208C270020C0750020F9
:104B0C005E27002092B0DFF8EC92D9F8000010B1CB
:104B1C00002180F84510483021F0A4F824F03AFF29
:104B2C008046072011F0ACF918F052F810B1B248D9
:104B3C0025F0DAF81AF07CFC01AD284624F0D2FD01
:104B4C000427002029468DF8047024F0D3FDAB4CCB
:104B5C00206024F02BFA0AAD284624F073FC0020C8
:104B6C0029468DF8287024F075FCA54E306024F091
:104B7C0027FA06AD284624F075FC002029468DF84E
:104B8C00187024F077FC31689E4D286019B99E4846
:104B9C0025F0AAF8286810B99C4825F0A5F82068DB
:104BAC0010B99B4825F0A0F81CF0CCFED9F80000F9
:104BBC004FF0FF3438B1CDE9104410A9082223F08E
:104BCC0071FC01281BD1CDE91044082025F081FA95
:104BDC00002846D005460026052E04D825F0FDF801
:104BEC00A8530236F8E74FF6300029460822E88031
:104BFC00884824F007FD284625F069FA09E0D9F821
:104C0C000010CDE910440029DFD08248082224F09E
:104C1C00F9FC10AA0120082125F01EF8092800D063
:104C2C00D8B921F05DFF800712D4CDE91044CDE94D
:104C3C000E440EAB01200021082224F079FB60B950
:104C4C000EA810A9082223F02DFC002800F0CB8020
:104C5C00704A0120082125F005F86E49E2201DF06C
:104C6C00BFFB12F073FD282025F033FA6A4E0028A2
:104C7C00306055D0694F6A4C07F10C0525F00FF9DF
:104C8C0024F050FC3068056007F1100525F007F999
:104C9C0064498968D1F84C1388473068456007F13E
:104CAC00140525F0FCF81CF09BFA3068856007F1C0
:104CBC00180525F0F4F819F06DFE3068C56007F1A1
:104CCC001C0525F0ECF81FF041FE3068056107F17A
:104CDC00200525F0E4F81EF09DFC3068456107F1D5
:104CEC00240525F0DCF81DF0F3FA3068856107F136
:104CFC00280525F0D4F823F059FF3068C56107F179
:104D0C002C0525F0CCF820F035FF3068056207F152
:104D1C00300525F0C4F8387024F056FA3068456236
:104D2C0019F060F8404841494FF00009CDF8409027
:104D3C0001603F480321119010A820F083FD24F05E
:104D4C00BBFD404625F0F5F817F0D4FB25F06DF8C7
:104D5C0001201EF023F81AF017F8374800780228C3
:104D6C0008D134480078012804D14FF400400121C7
:104D7C0006F058FE294F4FF48041387824F0A6FEF7
:104D8C002E484FF0FF3100680DF02AFDDFF8B0809F
:104D9C0078684FF0FF310DF023FD3068002550F896
:104DAC002510096821B9691C092D0D46F7D3EFE7C9
:104DBC0025F00EF8316851F825100C68C1F80090F8
:104DCC0025F0F6F858F82520002021469047044697
:104DDC0024F0FEFF316851F825100A6822430A605E
:104DEC0025F0E6F8D4E70B480EA9082224F00AFCBB
:104DFC0033E700BF382700208CB802004082002027
:104E0C00448200204882002053BA020040BA0200BB
:104E1C008ABA0200FA810020BC82002060210020A6
:104E2C00994C02000C0100204823002099CA010073
:104E3C00008D1500B4270020F42500209882002056
:104E4C007CB702002DE9F04F89B08A4608040DD4D6
:104E5C005FEACA7040F01E815FEA8A7000F12C8113
:104E6C005FEA0A7000F13481002045E1A44F3878E4
:104E7C001AF02EFADFF89092A74DA24C06464FF08E
:104E8C00000B48F21508002E00F001813078312813
:104E9C0052D0322838D0D32840F0B480F089404525
:104EAC0074D0382840F0AE80CDF820B0CDE906BBE8
:104EBC00304606A920F0B6FD9DF81C10052969D8CE
:104ECC00307B002840F09E809DF81D00002800F0EB
:104EDC009980052800F29680069823F0E2FF0028BE
:104EEC0040F09080707C8949AC467870708808805E
:104EFC009DF81D00214601388DF81D0006A890E88C
:104F0C002C002CC165467DE06079FF2827D000205D
:104F1C0016F086FB0246B9F8701078783346CDF857
:104F2C0000B012F05BFF607900286BD03878082154
:104F3C00322225F034F865E0B878032862D899F865
:104F4C002E10284623F0ADFF00285BD1FF207149BD
:104F5C00607170880880B0886D49088052E099F8BB
:104F6C001810706820FA01F2D2071ABF3144097A7E
:104F7C00002100221B2A43D020FA02F3DB0703D0C6
:104F8C00B3181B7A99421ED80132F3E7304621F050
:104F9C0011FF37E0FF293DD0FE2956D199F8721048
:104FAC009DF81E00884202D860BBFF292AD11CF054
:104FBC00F7FF069900201B2859D021FA00F2D207DE
:104FCC0056D10130F7E7B9F86E00504933460880E6
:104FDC004F4802884F48018810200090002012F0A2
:104FEC00FDFE0120F870B87840B93C2002214EF645
:104FFC006022B880387824F0D2FFB8780130B870CD
:10500C0084F805B0304623F059F938781AF060F975
:10501C00064638E799F872109DF81E00884203D8AE
:10502C000028EFD1FF29EDD11CF0BAFF069838B15A
:10503C00D9F82810814203D0C9F8280022F082FF49
:10504C00BDF8200023F0E2FDDCE7307B0028D9D14D
:10505C0070882E49802200230880707CCDE900BB2B
:10506C00CDE902BBCDE904BB11F020FCCAE71B2043
:10507C0099F81820C1B28A42C4D02849087099F80E
:10508C000700642100FB01F23878012151E72AF472
:10509C00004031E021491C4C08782076E1201DF0BD
:1050AC009FF922F04FFF0020A4F87000012016F0A9
:1050BC00B7FA48F201001DE011488188B1B10139FD
:1050CC004EF6602281800078022124F068FF0FE008
:1050DC000C4C607938B12179206823F0E2FE10B9CC
:1050EC0060790138607148F20B0003E00021817097
:1050FC0048F203002AEA000009B0BDE8F08F00BFB7
:10510C009C2400209C810020C0750020D6810020AA
:10511C00C67E0020427B002000F8FF07E9820020B9
:10512C002DE9F04F85B08846080418D4AA480078B9
:10513C00012802D85FEAC87156D15FEA88714DD454
:10514C00022807D1A5480078012803D15FEA4870EE
:10515C0000F18A805FEA087059D400202DE1DFF855
:10516C0060A29AF800001AF0B3F8002800F023812E
:10517C000546807FD0B9688C132817D1DFF844928C
:10518C006E880021D9F81C000F1D002908BF09F1F9
:10519C001C0758B101884468B14204D13C6024F02A
:1051AC0096FF2046F5E701462046EDE7A87A05F183
:1051BC00020B022840F0E580DFF8089295F8317078
:1051CC00BBF8006009F11C000068A0B10188B14275
:1051DC0002D18178B94243D00430F5E779480121F6
:1051EC00017088F00200E8E07648406900B1804721
:1051FC0088F00100E1E0D9F81C00002858D0012209
:10520C0004464068114601320028F9D152E070483A
:10521C00DFF8B091807BD9F81C60000760D424F0D3
:10522C002AFF044624F025FF6A4A60434FF47A7142
:10523C00B0FBF1F0D9F818101288411A91427AD3C8
:10524C00B1FBF2FB0BFB02F2511A08445E49C9F8A0
:10525C0018001FFA8BF00978884288BF8B4641E012
:10526C0059490978C170A3E05E495D4800224FF6A8
:10527C00FE7300240978023079B130F8025C9D424B
:10528C0008D04588013D45802D0406BF027020F8EA
:10529C00023C012401390630EEE734B148480421C0
:1052AC004FF4FA72007824F07AFE88F0040084E05F
:1052BC0000240021454889B20088814261D208202F
:1052CC0024F007FF00285CD0002106808770416025
:1052DC003D490978C170D9F81C1079B360603FE082
:1052EC004FF0010B00205FFA8BF44FF0000A071D02
:1052FC00002808BF09F11C0796B1F078C0FA5BF1E1
:10530C00A042F17006D8756830463D6024F0DFFE8F
:10531C002E46F1E7716830460AF1010A0E46E6E7BF
:10532C005FEA0A4007D100200821C9F81800244878
:10533C0000781AF037FC88F008003EE0C9F81C0031
:10534C002348807B00070BD424F095FE044624F000
:10535C0090FE60434FF47A71B0FBF1F0C9F818007D
:10536C001B48807B00070CD59AF8000008211EF022
:10537C0015F930B91748082102889AF8000024F072
:10538C000BFE2878022810D0012811D1297EAA8979
:10539C00EB7C05F11C006C696E7E8DE85A0005F102
:1053AC001003594605F0B4FE02E0284615F078FDCE
:1053BC00284622F083FF88F4004005B0BDE8F08F4A
:1053CC00E3820020FC230020942700205827002093
:1053DC00C07500205C270020F4250020B427002095
:1053EC004C6700206F2700202DE9FE4F0746086808
:1053FC000024B0B1D7E9018A0E4624F0CBFA8146DD
:10540C00D8F8E800082888BF0124B068204202D1EF
:10541C007068204208D003203074484624F089FD7F
:10542C0000242046BDE8FE8FD8F8C01069B198F86A
:10543C00F8100029EFD006213174D8F8C410C8F840
:10544C00C4604E6198F8FC100DE000210522C8E9FB
:10545C003066C8E93411C8E9361198F8FC100029F7
:10546C0008BF0122327400220129726109D1022085
:10547C004FF4E02188F8FC0098F8FB0020F022F9AA
:10548C00706889490138884205D8042020F022FA36
:10549C00062020F01FFA022020F01CFA98F8F800E1
:1054AC0040B9DAF83C003168814203D298F8FC002C
:1054BC0000286CD0D8E9361009B118B900E028B32F
:1054CC0024F0F5FCDAF80000416941F0010141617A
:1054DC00484624F02EFD98F8F80008B10124A0E706
:1054EC0008F16C05D8F8EC10284624F08AFC00284A
:1054FC00F4D0D8F8C00003210174384613F0A4F995
:10550C0028460021002424F07CFC8AE79AF8040049
:10551C0024F0BDFD654CDAF810100222206991FAD6
:10552C00A1F1B1FA81F14368D8F8CC004068006869
:10553C0098472069DAF8141002224368D8F8CC0096
:10554C0091FAA1F1B1FA81F14068006898479AF894
:10555C00040022F027FB9AF8040024F09AFD24F0B2
:10556C00A6FC0020C8F8E000D8F8C0000068B0F530
:10557C00806F01D924F09BFC98F8FE000028A1D183
:10558C00DAF80000416841F0020141609AE798F8AE
:10559C00F90020B1D8F8EC0001307FF48BAF48460D
:1055AC0024F0C7FCB2683AB1D8F8E8000221092807
:1055BC0038BF0121009103E008F1F40200200090B3
:1055CC00746834B1D8F8E8000227092838BF0127DD
:1055DC0002E008F1F6040027DAF80000334D4168C8
:1055EC0041F002014160D6F800B0D946BBF1000F82
:1055FC0040D0D8F8E800019209284FF0010011D2F0
:10560C002A68B9F1000F1FD0C0071DD02178DAF835
:10561C0000009268904700281EBF3C44A9F1010984
:10562C000120EDE72A68B9F1000F16D0C00714D09D
:10563C002188DAF800009268904700281EBF3C448D
:10564C00A9F101090120EDE7DAF80000D26802A9FE
:10565C009047DDE90120107007E0DAF80000D2680D
:10566C0002A99047DDE9012010800098ABF1010BF5
:10567C000244BBE7D8F8F000DAF80010CA68024020
:10568C00102802D1002AF9D101E0002AF6D0706866
:10569C0022F012F9D8F8C0100020C8F8C400C8F8DD
:1056AC00C00008741AE700BFFEFFFF0FC401001012
:1056BC002DE9F04F87B0851C8346284624F030FC3A
:1056CC0001AC06461821204624F00AFC9BF801A0E8
:1056DC0004F10B002946009524F0A6FC6FF00100A4
:1056EC009BF80A1002240122ADF8180000208DF856
:1056FC001A408DF80C0001F00800C1F3C0078907AF
:10570C0082EAD00507D40028B946A84608BF012470
:10571C000027002507E004244FF000094FF0000893
:10572C00002808BF03248548007850EA0A000BD0F3
:10573C00834890F82600082809D123F0ABFE0028F6
:10574C005AD0BAF1010F57D14FF0C30901E04FF015
:10575C00C2090025BAF1000F10D07F48007890B92B
:10576C00BAF1010F0FD1002E63D000202146012287
:10577C008DF81A0001A814F0EDFB0AE001A81BF04B
:10578C001BFB86B91CE001A82146524614F0E2FB33
:10579C00B6B17179BAF1020F41F04002727104BFD7
:1057AC0041F0600171719BF80A10490603D57179BB
:1057BC0041F080017171B17900240131B17100E0C7
:1057CC000124B0FA80F149090D423AD107D1002DDC
:1057DC0018BF814641F20100494623F0EAF814B99A
:1057EC00009819F06DFCBDF818004FF6FE71884258
:1057FC0018BF24F078FC24E0DEB33279A24218BF43
:10580C00BAF1020F20D1D01EC0B2012802D857EA3B
:10581C00050006D1501EC0B2012822D859EA080151
:10582C001FD0308821F0CAFB20BB3088ADF818009F
:10583C0022E00220214601228DF81A0001A814F062
:10584C0089FB07B0BDE8F08F4FF000090099534673
:10585C008DF81A903088ADF8180024F024FC01253E
:10586C0078E7012802D8308824F03DFC009819F024
:10587C0027FC0026BDF818004FF6FE7188421ED199
:10588C0021F06CF910B1BDF8180011E0BAF1000F5D
:10589C0004D02C4D288821F091FB30B19BF80A00E4
:1058AC0000F0020020F046F800E02888ADF818005F
:1058BC004FF6FE71884202D14FF0C70949E79BF8B9
:1058CC000A200099534624F0EEFB10B14FF0010969
:1058DC003FE71D48016811B1BDF818008847BDF8B5
:1058EC0018000099224606F059F90646174818493F
:1058FC000A6800784FF4803124F051FB01211548DF
:10590C00C17096B1AAF10100C0B2012807D81020CD
:10591C00BAF1020F08BF08207179084370714FF07B
:10592C00000901258DF81A9014E74FF6FE7000253A
:10593C004FF001090026ADF818000BE7D424002025
:10594C00C07500204E27002044230020E682002052
:10595C0084BC0200C4250020F42500202DE9F04F62
:10596C008DB0044600209A4616460F46CDE90B0032
:10597C00CDE909008A488568804617F045FF1C2848
:10598C0003D017F041FF1B281BD1308840F60201D1
:10599C00884218BFB0F5C15F03D1F07B022810D943
:1059AC003EE043F6070188420BD196F82400032809
:1059BC0007D330697B4940F0806020F0604088421A
:1059CC002ED100206FB366B3387825FA00F0C007EB
:1059DC0026D03046002124F076FB7348C4E90176CA
:1059EC00006880B109A800900CA90BAA0AAB30463C
:1059FC0009F04CFF0B980B214FF6FF72502322F04D
:105A0C0071F9FF280CD023F0C5FF684F0646787853
:105A1C00012802D840B1012070E0304624F089FA08
:105A2C0000200DB0BDE8F08F09F0A4FE60480DF128
:105A3C000409016841F0020101605E48C8F80000E9
:105A4C00484623F03FFEDFF870B15D494A469BF8AB
:105A5C0001009BF800500390584828301EF00BFFB3
:105A6C00584859494A461EF006FF484623F03AFD6D
:105A7C00DFF85881564A19214B46029540461DF0D5
:105A8C0061FC544A08F11C001A214B461DF05AFCCB
:105A9C005148524924F01BFA5148524924F017FA44
:105AAC005148006810F4402F06D0504A07F12800E6
:105ABC000421002321F050FD9BF8020010B10D20B1
:105ACC0010F0DEF908F1400023F0D5F908F13800A8
