S02B000032303233303231395F4D474D31326E63702D756172742D73775F372E322E315F323032322E733337D8
S21400000000100020810C00007143000075430000C2
S214000010B9B002007943000081430000B9B0020085
S214000020B9B00200B9B00200B9B00200B9B002001F
S2140000308543000070320300B9B00200B9B0020078
S214000040B9B0020069D9000091440000B9B00200BE
S214000050B9D1000049E6020045E6020089D9000051
S2140000603DE6020059130000B9B00200B9B0020024
S214000070390C00006BAE0200B9B00200B9B0020045
S214000080B9B00200B9B00200B9B00200B9B00200BF
S214000090B9B00200B9B00200B9B00200B9B00200AF
S2140000A0B9B00200B9B00200B9B00200B9B002009F
S2140000B0BDD9000041E60200FD5F0000F9D900004E
S2140000C0B9B0020079C10000B9B00200B9B00200B0
S2140000D0B9B00200B9B00200B9B00200B9B002006F
S2140000E0B9B00200B9B00200B9B00200B9B002005F
S2140000F0B9B00200B9B00200B9B00200B9B002004F
S214000100B9B00200B9B00200B9B0020000000000A9
S2140001102DE9F04F2DED088B8DB009EE903ADDE914
S21400012020439DED1E7B0A93229B079209EE100A40
S214000130B0EE478AF0EE678A8A46069351EC170BB4
S21400014053EC172B2AF010FB80B1D14B51EC180B57
S2140001504FF0FF322AF030FB40B951EC180B4FF04D
S214000160FF326FF480132AF009FB98B1069B2293A6
S2140001700A9B079ACDE9204319EE100A19EE903A29
S21400018051468DED1E8B0DB0BDEC088BBDE8F04FD3
S21400019000F0A2B951EC180B002200232AF0EEFA68
S2140001A0002800F0458118EE903A18EE108A03F108
S2140001B00049069BC9F30A5013F48063A0F2FF308F
S2140001C008BF06240B9329F0FDFFA1A3D3E9002363
S2140001D02AF062F8A0A3D3E9002329F0A7FEC9F30A
S2140001E013050F4645F07F510646AA4B00224046AF
S2140001F041F4401129F098FE99A3D3E900232AF090
S2140002004BF802460B463046394629F08FFE2AF058
S214000210DDFA834629F0D6FF93A3D3E900230646EA
S2140002200F462AF039F89C4B002229F07FFE2AF070
S214000230CDFA8FA3D3E900230546394630462AF087
S2140002402BF8064628460F4629F0BCFF8AA3D3E9BA
S21400025000232AF021F802460B463046394629F09C
S21400026063FE02460B4606460F462AF015F832464F
S21400027041EC1A0B3B463046394629F057FE874B71
S21400028041EC1B0B002251EC1A0B2AF02FF9844B81
S214000290002229F04BFE02460B4651EC1A0B2AF0C0
S2140002A025F9804B002229F041FE02460B4651EC10
S2140002B01A0B2AF01BF9324641EC1A0B3B4600207B
S2140002C04FF0804129F030FE02460B4651EC1A0BE7
S2140002D029F02CFE02460B4651EC1B0B2AF006F9C1
S2140002E005F2FF35704B002229F020FE00222B0578
S2140002F029F0D2FF42464B4606460F462AF05CFAE5
S214000300002840F09880CDE908670BF16303C72BFF
S214000310069B34BF04250525190522D558A3D3E925
S2140003200023404649462AF03DFA002800F0BE80E9
S21400033055A3D3E90023404649462AF01FFA002871
S21400034000F0B480069B5C45C8BFA4EB0B0043F4EA
S21400035080634FF00005CCBF00F1FF340024069305
S214000360AB460A9B9D4238BF5E1B069B28BF0026F5
S21400037013F0020702D0002D18BF0026BBF1000FB5
S21400038007D040464946DDE908232AF0AFF8804604
S214000390894651EC180B002200232AF0EFF910B121
S2140003A009F100439946069B079A029423F40063DA
S2140003B0CDE90363CDE9008919EE903A19EE100AEB
S2140003C0514600F089F875B3069B13F0200F00F134
S2140003D00106024619EE903A14BF452065205146A4
S2140003E019EE104AA0470523002205938BEAEB700E
S2140003F00A23CDE90232A0EBEB704FEADB73013D36
S2140004000193009019EE903A19EE100A04953246C0
S21400041051462DF088F837B1079BC51A079B581927
S2140004200A9BAB424BD80DB0BDEC088BBDE8F08FF5
S21400043059EC188BBDE61A4B0022304639462AF096
S21400044055F80BF1FF3BCDE908015EE7AFF30080FE
S214000450FB799F501344D33FB3C8608B288AC63FAE
S21400046061436F63A787D23F71A379094F930A4010
S2140004701655B5BBB16B0240EF39FAFE422EE63F89
S2140004802D431CEBE2361A3F0000000080842E410C
S214000490FFFFEF7F0000F83F0000E03F00002C4029
S2140004A000002440000018400000F03F002C3FF4FD
S2140004B058AF0B9B002B3FF454AF013C51E702466C
S2140004C019EE903A19EE104A51462020A047013501
S2140004D0A4E700BF000000002DE9F04F2DED088BCB
S2140004E08FB0DDE920AB09EE103ADDE9225308EEC5
S2140004F0100A08EE902A0F46049352465B46504672
S2140005005946249E2AF030F9A0B9049B229303236F
S2140005102193B94B2396209318EE902A19EE103AA1
S21400052018EE100A39460FB0BDEC088BBDE8F04F48
S2140005302CF031BF4FF0FF326FF48013504659460F
S2140005402AF01CF930B1049B2293042321932396AE
S214000550AA4BE0E7AA4B4FF0FF32504659462AF026
S2140005602BF970B1A74A0499239606F00403002BD2
S21400057008BF0322A44B1CBF13460422CDE9212149
S214000580C9E799A3D3E90023504659462AF014F93F
S21400059038B997A3D3E90023504659462AF0EEF817
S2140005A098B1049B2496CDE9225318EE902A19EEB2
S2140005B0103A18EE100A3946CDE920AB0FB0BDEC64
S2140005C0088BBDE8F04FFFF7A3BD0022002350467E
S2140005D059462AF0D3F8002800F081805B46524640
S2140005E00020002129F0A0FC012382468B460593BB
S2140005F016F4806F08BF062506ABA5F12002A946B3
S2140006003021B9F1090FA5EB090406D909F1FF3924
S2140006104A4503F8011BF4D12024594650462AF0D7
S214000620D5F87A4B03EBC90393ED007B0546B0EE95
S21400063047AAF0EE67AA29F0C5FD02460B465046CB
S214000640594629F071FC53EC1A2B29F025FE024678
S2140006500B4643EC1B2B2AF0E1F8804629F0A2FD5E
S21400066002460B4651EC1B0B29F05EFC02460B467D
S21400067043EC1B2B664B00222AF09EF888B308F149
S2140006800108404629F08EFD02460B4651EC1A0B37
S2140006902AF07EF810B101354FF00008B9F1000FCE
S2140006A050D1284629F08EFD02460B465046594644
S2140006B029F03AFC564B0022804689462AF05EF81E
S2140006C030B1534B0022404649462AF075F810B127
S2140006D0E80700D5013506AB23440A2259E0059009
S2140006E086E74B4B51EC1B0B00222AF047F80028FC
S2140006F0D4D1B8F1000F02D018F0010FCED008F117
S2140007000108CBE7B8FBF1F001FB10823032B8F1FC
S214000710090F03F8012B09F1FF3904F1010428D869
S214000720A14406AA3021202C11D04C4504F1010327
S21400073021D104F138020DEB02042E2204F8202CFD
S2140007401C46C8E706AB23440A21202CDAD106F063
S2140007500303012B06AB39D1049A002A36D0059A3A
S21400076012B916F00C0F02D0049A013A0492302205
S21400077014E08046E9E7A1541C46D4E795FBF2F165
S21400078002FB1155303503F8015B01340D46002994
S214000790DDD0202CF2D1DAE71A5501340499A142B3
S2140007A014D9202CF8D1049A0093CDE9014219EE11
S2140007B0103A18EE902A18EE100A039639462CF0D6
S2140007C0EAFD0FB0BDEC088BBDE8F08F202CEAD018
S2140007D0059AFAB104F138026A442D2102F8201C69
S2140007E00134E0E7AFF300800000000065CDCD41A6
S2140007F00000000065CDCDC17C3C0300803C0300BA
S214000800FFFFEF7F773C0300733C0300883C030048
S2140008100000E03F710704D504F138026A442B213A
S214000820DCE73207BFD504F138026A442021D5E759
S21400083070B58EB02C22002103A832F0C5FC6423CC
S2140008404FF00232CDE9052308930B238DF83430A0
S214000850514B1B880121D8078DF8101000F19680A7
S214000860084616F0BFF94D4B4D494E484E4C0A22ED
S2140008701A704FF42873ADF8123009F001FD2060AD
S21400088020B94A4840F2222103F072FC2068052174
S2140008902DF0EEFB20B1454840F2292103F068FC1C
S2140008A0206800F0DBF9424B206819682DF064FCE4
S2140008B017F074F80C256843099017F06FF8684332
S2140008C007900DEB050120680AF002F820B13748C2
S2140008D040F23E2103F04CFC3649206800222DF001
S2140008E0D1FC20B131484FF4107103F041FC324E78
S2140008F0324D96F9000040F203532B807F284FF0CC
S2140009000503AB7001D116F067FA3378EB7017F079
S21400091045F800EB80008000A88017F03FF8002321
S214000920C000E880AB604FF0FF3019A3D3E9002386
S2140009304FF0FF3116F028FB214920682EF0ABF867
S214000940206802A92DF07DFC20B1184840F27321E2
S21400095003F00EFC042220680DEB020109F0C6FC31
S214000960042804D0114840F2762103F001FC01A9C6
S21400097001202FF059FA03F03FFD012017F082FA0C
S2140009802AF0ACFD17F0B6FA16F098FA0EB070BD65
S2140009900A0020FF4203000006630020B66800201D
S2140009A0116C0100981200207C570020825A030028
S2140009B02C110020C5680020711600206857002002
S2140009C0F16C010010B5054C237833B9044B13B114
S2140009D00448AFF300800123237010BDF0250020EB
S2140009E0000000007060030008B5034B1BB103490C
S2140009F00348AFF3008008BD00000000F425002087
S214000A0070600300A3F5803A704700BF174B002BB9
S214000A1008BF134B9D46FFF7F5FF00218B460F4698
S214000A201348144A121A32F0CFFB0E4B002B00D09C
S214000A3098470D4B002B00D098470020002104005B
S214000A400D000D48002802D00C48AFF300802AF0B5
S214000A50A3F8200029002AF0CCF92AF089F800BF74
S214000A600000080000000000000000000010002049
S214000A70A8200020346900200000000000000000CC
S214000A8038B501F003F90E480E4C012100F0AAFD1E
S214000A9001221146002001F05DF8022501221146D0
S214000AA0C4F88050002001F055F80122C4F88450A4
S214000AB01146002001F04EF8C4F88850002038BDDA
S214000AC030253E0000400E4008B5244B01225A64F3
S214000AD0234BD3F8FC20234B120E12D14AF6E851D2
S214000AE0C3F89011D3F8981141F00401C3F8981197
S214000AF0C3F89021D3F8642142F40052C3F864216D
S214000B0001E0012AF6D0184A136A23F4441343F48A
S214000B1088131362A2F58042136843F4807313604F
S214000B2002F54052D2F8A43143F4F843C2F8A43197
S214000B3002F0EEFB02F08CFB02F0A0FB02F0D4FB0E
S214000B40FFF79EFF2AF063FD00F034F903F07EF90C
S214000B5000F03CFCBDE8084004F0FCBB00000E4082
S214000B600081E00F00300E4000400E4030B51D4DB5
S214000B700FCD97B00FAC0FC495E8070084E80700C8
S214000B801022002105A832F01FFB174A174B01243C
S214000B90CDE9032300211F2310220BA88DF81E3059
S214000BA08DF815408DF81D4032F00EFB104B1148A5
S214000BB08DF839404FF44021CDE909130C238DF808
S214000BC02C300D238DF82D300B4B0C9340230D93BA
S214000BD00A4B00930FAA03AB09A902F0A5FE17B0B3
S214000BE030BD00BF54320300000001400042040044
S214000BF01C00014068260020A66300200C2600206A
S214000C00012906D8034B1A68034B10685B6A01215A
S214000C1018477047BC1000200C26002008B5044971
S214000C20044804F03FFCBDE80840FFF79FBF00BF44
S214000C30A41000206026002001482AF042BE00BF13
S214000C4068260020014B1A6A18681047682600209C
S214000C50014B1878704700BFE663002038B505469C
S214000C602AF04DFC044628B9284609F067FE034BD7
S214000C701C7038BD04240220F9E700BFE66300209C
S214000C8008B500F083F8124B12498B4212D3124B70
S214000C90124900208B4218D3FFF7B8FE186850F8A8
S214000CA02240586840F82240013298688242F5D3C4
S214000CB00C33EAE70022F8E71C6844F82200013209
S214000CC05C68A242F8D30833E4E70022F8E700BFE6
S214000CD0786003008460030084600300846003007F
S214000CE00048704700F04902104AD2F8943003F0EA
S214000CF00703023B032B13D8DFE803F00C14020EA5
S214000D000B4B1B68D2F80001C0F304200130B3FB84
S214000D10F0F07047074BF4E7074B1B685B08F1E7FA
S214000D20054BEEE74FF40043ECE700BF00400E40F3
S214000D30CC100020C4100020C810002008B5FFF713
S214000D40D3FF054BD3F80831C3F308230133B0FBB8
S214000D50F3F0024B186008BD00400E40C0100020A3
S214000D60014B1868704700BFC4100020054B186080
S214000D70054BD3F8943003F00703022B01D1FFF79D
S214000D80DDBF7047C410002000400E40044B054AEB
S214000D909A60D3F8882042F47002C3F8882070471F
S214000DA000ED00E000000000014B1868704700BF2F
S214000DB0CC1000200F4BD3F82838A3F17E62A2F5A2
S214000DC08432B2F5104F10B50ED219680A4A914215
S214000DD00AD10A4C227812F0FD0F08D1DB69984739
S214000DE008B90123237010BD4FF48170FBE7002083
S214000DF0F9E700BF0000E10F07B0CD5EE763002013
S214000E0005490A681318054883428CBF4FF0FF3225
S214000E100B601046704700BFD01000200000042072
S214000E2008B52948012100F0DDFB01230422022138
S214000E30052001F089FC002001F07AFC234B0122FA
S214000E40C3F810281146042000F084FE204800F065
S214000E500FFD204BD3F8F02042F00102C3F8F0203B
S214000E60D3F8FC2042F08072C3F8FC20A3F55D4363
S214000E70194A1A6000F5D520184B00F2FC40B0FB6A
S214000E80F3F0174B013802221861C3F8F0204FF434
S214000E908072C3F804234FF06043124AC3F8B02FA1
S214000EA0114AC3F8802ED3F8002E42F48072C3F89D
S214000EB0002EFF2283F82020D3F8002E22F4807222
S214000EC0C3F8002E002008BD00350A00008014423A
S214000ED006000E0000ED00E0FF030040F8590D008C
S214000EE0000004E055CEACC5090001004FF0604399
S214000EF030B5D3F8802ED20715D501240B4D84408B
S214000F00D5F8FC2042F08072C5F8FC20D3F8002EFD
S214000F102243C3F8002E53F82020002AF0D003F80E
S214000F202010002030BD1120FCE700BF00ED00E0DF
S214000F302DE9F04F9A46554B85B01B78DDF83C906E
S214000F409DF844B0DDF8508006460F461546002B47
S214000F5000F08B80072A00F28A800E9B002B00F0A0
S214000F608680B9F1000F00F08280129BB3F5006F07
S214000F707DDC012802D1109B002B78D0444B03EB7C
S214000F8005131B7B002B74D0424C102200216846B0
S214000F9032F01AF904EB45141022002F57D13946C7
S214000FA0204632F011F943F210036380BBF1000FC4
S214000FB003D1E37843F00303E370364A0E9BCDF883
S214000FC000A002EB451CCCE90193129B013BC3F346
S214000FD00A009DF84C30690103F003039B0643EAC0
S214000FE0001E53582C4818404EEA0003012E53505A
S214000FF041D11323CCF80C309CE80F000CF1100EF6
S2140010008EE80F00DCF81C20109BCCF814306FF034
S214001010030161F39F02012FCCF81C2003D1CCF80A
S2140010201890CCF804301A4A290102EB051342F84E
S21400103001800027159A5A6028469F605E732246F4
S214001040694601F007FC384605B0BDE8F08F002180
S214001050204632F0B9F84FF444736380BBF1000FBA
S214001060ABD1E37843F03003A6E70C48ECE70C4836
S214001070EAE70C48E8E7B8F1000FD4D19CF8023054
S21400108068F304138CF80230CDE700BFE863002055
S2140010908C2600200C2700200F80FFF3028000F033
S2140010A0018000F0078000F038B5124B1B7805462B
S2140010B0DBB1E0B12AF068F80F4A00231146147B32
S2140010C054B92B601A0101EB031301258C501D73D4
S2140010D02AF060F8204638BD0133082B02F11002D2
S2140010E0EDD12AF057F80548F5E70548F3E7054837
S2140010F0F1E700BFE86300208C260020048000F0A3
S214001100028000F0018000F013B52AF03DF80C4A8A
S2140011100023147B7CB90133082B02F11002F8D1AE
S214001120019001F04DFB074B01981C702AF032F835
S214001130204602B010BD2AF02DF80348F9E700BF9C
S2140011408C260020E8630020058000F00D4B1B78FD
S21400115010B5044693B1072812D82AF015F80A4BA2
S21400116003EB04131A7B2AB100241C732AF012F82E
S214001170204610BD2AF00EF80448FAE70448F8E7BF
S2140011800448F6E7E86300208C260020068000F07E
S214001190028000F0018000F013B5164B186801902D
S2140011A000238DF8043029F0EFFF134B1C7824B190
S2140011B029F0F0FF114802B010BD01221A7029F084
S2140011C0E9FF0F4B1C731C7783F82C4083F83C40D8
S2140011D083F84C4083F85C4083F86C4083F87C408E
S2140011E004230DEB03008DF8073001F009FB2046C1
S2140011F0E1E700BFC0320300E8630020038000F090
S2140012008C2600200A4A127808B55AB107280BD84F
S214001210084A02EB00131B7B43B1002101F0E6FAFB
S214001220002008BD0448FCE70448FAE70448F8E74D
S214001230E86300208C260020028000F0018000F089
S214001240078000F00A4A127808B55AB107280BD86A
S214001250084A02EB00131B7B43B1012101F0C6FADA
S214001260002008BD0448FCE70448FAE70448F8E70D
S214001270E86300208C260020028000F0018000F049
S214001280078000F00A4A127808B552B107280AD833
S214001290084A02EB00131B7B3BB101F02DFB00203C
S2140012A008BD0548FCE70548FAE70548F8E700BF2B
S2140012B0E86300208C260020028000F0018000F009
S2140012C0078000F00D4B1B7893B1072812D889B120
S2140012D00B4B03EB00131B7B73B10A4B1A6E0123F7
S2140012E003FA00F010401ABF00200B700870704719
S2140012F0054870470548704705487047E863002072
S2140013008C26002000200E40028000F0018000F0B5
S214001310078000F00B4A127810B50C4662B1072819
S2140013200CD859B1084A02EB00131B7B43B101F0FD
S214001330F9FA2070002010BD0448FCE70448FAE7DC
S2140013400448F8E7E86300208C260020028000F0BE
S214001350018000F0078000F02DE9F843DFF8648094
S214001360D8F86070D8F86C301F4000D5FEE7144CF3
S214001370DFF8549001260025374217D02368C8F8B6
S21400138068609BB1A16862680131A16028469847F1
S214001390637B012B0AD148B909EB45131A7B60F32E
S2140013A041021A731A7F60F341021A770135082D3D
S2140013B04FEA460604F11004DED1BDE8F88300BF0C
S2140013C08C26002000200E400C270020024B1968B7
S2140013D0024B186808F032BBD8100020D41000204A
S2140013E037B5920004460D46019229F0BCFF431C17
S2140013F00BD060B9019A2946204631F0ADFE002890
S214001400044808BF002003B030BD0348FBE703488C
S214001410F9E700BF10E000F021E000F024E000F063
S21400142013B5044601A801F011FC9DF80630238090
S21400143040F201136380074BD3F8E4301B0E0A33E7
S214001440012203F01F0302FA03F30020636002B0D8
S21400145010BD00BF0081E00F10B5044601F010FB80
S214001460431C17D0C0B90D4BD3F8E4301B0E0A331B
S21400147003F01F020123934023F003032046234476
S214001480984201D1002010BD50F8042B0132F7D04D
S2140014900348F8E70348F6E70348F4E70081E00F5F
S2140014A00EE000F021E000F024E000F008B529F09E
S2140014B05CFE014B186008BD4C2E0020014B1868DE
S2140014C029F057BE4C2E00200C4B984210D90C4BDE
S2140014D0984210D9022201230A490B640A49D1F81E
S2140014E0003123F0807343EA0263C1F8003170478D
S2140014F000221346F0E70122FBE700BF0048E801A0
S2140015000090D0030000C84300400E400F4B5B68BD
S2140015100F4B30B500221C46C9B21D798D4202D150
S2140015201D6885420DD20132052A03F10803F4D165
S214001530032206494B6823F0407343EA02634B607C
S21400154030BD04EBC2025279F3E700BF00000E4044
S2140015501433030070B5084C41F67136256C2664CA
S214001560FFF7BEFB0021FFF7D1FFADB2B5421CBFAF
S2140015700023236470BD00BF00000E40044BDB6BED
S2140015805B0604D4034AD2F8C830002BFBD1704760
S21400159000300E400000C64308B5FFF7EFFF024BD1
S2140015A05868C0F3014008BD00300E40044BD3F825
S2140015B04421D20703D4D3F840211042FBD1704710
S2140015C000400E4070B5064C41F67136256C266418
S2140015D0FFF79CFFADB2B5421CBF0023236470BD6D
S2140015E000000E4038B5C0F30323013B092B16D884
S2140015F0DFE803F02616151505191C151F23124CD7
S2140016000023C0F3043513B11846FFF7CFFF04F1EB
S214001610424404F5801405EBC404A400216038BDE0
S2140016200A4C0023EDE70A4C0123EAE7094C102395
S214001630E7E7094C4FF48033E3E7084C0023E0E784
S214001640074C0023DDE700BFB0400E40C0400E4010
S214001650E0400E40E8400E40F0400E4050410E4044
S21400166000400E40C0F30313013B092B2AD8DFE8E5
S21400167003F0050B0F1929291F23374B274BD3F8E7
S2140016800001C0F304207047244BD3F81401F8E798
S214001690224BD3F80001C0F30060431C01209840A1
S2140016A0013870471D4BD3F80C01C0F30820704773
S2140016B01A4BD3F80801F8E7194B984204D0194B97
S2140016C0984207D000207047144BD3F8203103F01F
S2140016D00F03E3E7114BD3F82031C3F30113DDE723
S2140016E0114B98420CD003F5B01303F58053984283
S2140016F0E8D10A4BD3F82801C0F30120031DCDE73B
S214001700064BD3F82831E8E7084B9842DAD1034B6A
S214001710D3F8300100F00300704700BF00400E40D1
S2140017208006160080162E0090171A00A0091400D6
S21400173000F00F000138072844D8DFE800F0040F57
S2140017401943232D4335244BD3F8943003F0070375
S214001750023B052B38D8214AD05C70471E4BD3F885
S214001760803003F00703013B032B2FD81C4AF3E716
S214001770194BD3F8843003F00703013B032B25D81D
S214001780184AE9E7144BD3F8883003F00703013B07
S214001790032B1BD8144ADFE70F4B1B6F13F0010F08
S2140017A00CBF0720092070470B4BD3F85C3103F0C1
S2140017B03003202B0CD0302B0CD0102B14BF012064
S2140017C007207047002070470520704701207047AB
S2140017D0042070470820704700400E40E83203009F
S2140017E0EE320300F2320300EE32030008B5014683
S2140017F0FFF79EFF1A4B994211D01A4B994212D00E
S214001800194B994204D1194BD3F8800000F0070019
S2140018100138032821D8DFE800F00A0E1612134B11
S214001820D3F88400F2E7114BD3F88800EEE7BDE862
S214001830084029F042BCBDE80840FFF7B5BABDE84D
S214001840084029F03DBCFFF74FFA084BD3F80031AB
S214001850C3F300630133D84008BD0020FCE700BF97
S214001860030020000500240002001E0000400E4079
S21400187000F47813B3F5B01F10B5044674D025D81D
S214001880B3F5402F5ED010D8B3F5802F49D005D8D9
S2140018903BB1B3F5003F4FD0002010BDB3F5202F6D
S2140018A0FAD1BDE81040FFF71FBAB3F5801F00F06D
S2140018B08480B3F5A01F4DD0B3F5602FECD14A4815
S2140018C0FFF736FF072878D00928E9E7B3F5381F71
S2140018D053D013D8B3F5001F58D00AD8B3F5D01F8D
S2140018E056D0B3F5F01FD7D14048BDE81040FFF7FB
S2140018F07DBFB3F5101FCFD13D48F6E7B3F5481FBF
S2140019004DD0B3F5781F65D0B3F5401FC4D1394824
S214001910FFF76CFF384BD3F82831C3F301230433A9
S21400192020E0FFF7E1F9344BD3F80C31C3F308237A
S2140019300133B0FBF3F0B0E7FFF7D6F92E4BD3F840
S2140019400831F3E7FFF7D0F92B4BD3F81431C3F384
S2140019500423EDE72648FFF749FF274BD3F830313D
S21400196003F00303D84098E72048FFF73FFF224BD9
S214001970D3F8203103F00F03F4E71C48FFF736FFD7
S2140019801D4BD3F82031C3F30113EBE71948ACE73E
S2140019901848FFF72BFF184BD3F82831F3E7174802
S2140019A0FFF7C6FE072808D0082809D004287FF4C9
S2140019B073AFBDE81040FFF7D3B9114B18686CE75A
S2140019C0FFF792F90C4BD3F80031C3F3042303FB63
S2140019D0000062E7FFF788F90146204629F0C0FBC1
S2140019E0B1FBF0F059E700BF06000E0002001E0033
S2140019F0050024000300200000400E40B80032001E
S214001A00F810002010B5FFF7A5FD094B07225A670E
S214001A10FFF76AF9FFF758FDFFF790F90446FFF75E
S214001A20BBFD01462046BDE81040FFF7CBBD00BF1A
S214001A3000400E40014B1880704700BFF415002090
S214001A40013810B5032812D8DFE800F0022E122065
S214001A50214AC1F30801D2F86838002BFBD11F4A8F
S214001A60136A23F4FF7323F001031943116210BDB8
S214001A70194A01F07F01D2F86038002BFBD1174AD3
S214001A80136923F07F0319431161F0E7124A01F04E
S214001A907F01D2F86438002BFBD1104A936923F0FB
S214001AA07F0319439161E2E70C4AD2F89030536AFB
S214001AB023F0300343F010035362146B084BC1F35A
S214001AC0C31003300F2803EA040328BF0F2019436E
S214001AD041EA00711163CAE70020C84300400E4087
S214001AE000F8FF0F104A536A13F0300F18D0202961
S214001AF013D0302914D000290C4B08BF4FF44003F4
S214001B00D2F8901033EA0101FAD15B0246BFD2F850
S214001B10A000C0F38020012070474FF40003EFE7D9
S214001B204FF44003ECE700BF00400E40FF33E107F0
S214001B3002280AD129B1064B4FF48060C3F8A800EA
S214001B40596612B10220FFF7CDBF0120704700BFD3
S214001B5000400E400428F8B545D8314B314F13F8F5
S214001B6000C0314B1B5C002943D0304C022834F8AF
S214001B70106039D17C6A14F0300F35D12C4CE46BF0
S214001B807C6AE40705D57D6A25F0300545F010052A
S214001B907D62244C2666274C23449B001D68002D3E
S214001BA0FCD002B36444A4002368002BFCD00228B7
S214001BB019D1C1B11B4D696A11F0010116D001227D
S214001BC02021FFF7B5FFD5F89C70012200210220E6
S214001BD0FFF7C0FFC7F30A010220FFF731FF2E66AA
S214001BE02368002BFCD0F8BD0021D2E7FFF77AFF70
S214001BF0E9E7114931F810103966012101FA03F3BB
S214001C00D7F890101942FBD1002AECD00124054ADF
S214001C1004FA0CF4D2F890302342FBD1E3E700BF7D
S214001C20F632030000400E40FB3203000033030090
S214001C3000300E408004F2100A33030010B504464C
S214001C40C0B901221146FFF785FFFFF783FCB4B940
S214001C500D4B04225A67FFF747F8FFF735FCFFF7EE
S214001C606DF80446FFF798FC01462046BDE8104094
S214001C70FFF7A8BC0128E8D102460146E3E7012C9D
S214001C80E9D1014B0322E5E700400E4038B5FFF7E7
S214001C9067F80021044600F0E9FA1248FFF714FC42
S214001CA0012211460220FFF755FFFFF753FC0CB147
S214001CB0FFF764FC0C4B02225A67FFF715F8FFF794
S214001CC003FCFFF73BF80546FFF766FC014628468F
S214001CD0FFF778FC2CB920460121BDE8384000F01B
S214001CE0C5BA38BD0148E80100400E40184B70B533
S214001CF01C68184B9C4227D90021204600F0B6FAF3
S214001D001548FFF7E1FB012211460320FFF722FFEB
S214001D10FFF720FC0CB1FFF731FC104B01265E6785
S214001D20FEF7E2FFFFF7D0FBFFF708F80546FFF7E0
S214001D3033FC01462846FFF745FC3CB931462046B1
S214001D40BDE8704000F092BA0024D9E770BD00BF2D
S214001D50C8100020002D31010148E80100400E4067
S214001D60012210B511460320FFF7F4FEFFF7F2FB41
S214001D70084B05225A67FEF7B7FFFFF7A5FBFEF7ED
S214001D80DDFF0446FFF708FC01462046BDE810408C
S214001D90FFF718BC00400E4010B504461120FFF7B0
S214001DA0C7FC002101220220FFF7D4FE184A217C3E
S214001DB0536A23F00103022908BF43F0010353626C
S214001DC0144B2178C3F8A014637AA18843EAC12390
S214001DD0D362136BA07A217A03F07F630343E08813
S214001DE043EAC02343EAC11303310F2928BF0F215A
S214001DF043EA01731363A37B617B1B0143EA013350
S214001E00E17B0B43217B43EA0143536310BD00BFD4
S214001E1000400E400000C84338B50E4D0146112064
S214001E20FFF786FCAA6B0C4B0C7813401C434B78D0
S214001E3044EAC3248B7844EA0364CB7844EA032458
S214001E40AB6BA34205D0002101220846FFF782FEB5
S214001E50AC6338BD00400E4080E4FFF8034BD86BFF
S214001E6080F04000C0F38010704700BF00300E4086
S214001E7042EA0323B3F5007F39D016D8B3F5807F46
S214001E8031D007D85BB3012B1ED000221346036067
S214001E900A60704740F201129342F6D1184BD3F80D
S214001EA024321A0EC3F30743F1E7B3F5407F22D07E
S214001EB040F2013293420ED040F201229342E4D126
S214001EC00F4BD3F8283202E00D4BD3F82432C3F37D
S214001ED00722DBB2DBE70A4BD3F82832E1E7084BF0
S214001EE0D3F81C32F3E7064BD3F81C32D9E7044B81
S214001EF0D3F82032EBE7024BD3F82032D1E700BF0D
S214001F000081E00F08B5FFF7A9FF20B1024AD2F81A
S214001F10C830002BFBD108BD0000C64308B5FFF74C
S214001F209DFF80B1FFF7EEFF074B19685A68C1F3B3
S214001F300121C2F3014291421A688CBF42F010029E
S214001F4022F010021A6008BD00300E40064B1B68D7
S214001F50DB0608D5054B1B69C3F30443082B02BFF9
S214001F60034B044A1A60704700300E4000400E4093
S214001F70C8100020C0EA210137B5FFF76FFF38B15F
S214001F802E4B1B78C3F10202102393402C4A136198
S214001F902C492D4DD1F8804145F60E03C1F880310D
S214001FA02B6823F0AA03DB05DB0D0B66FFF7AAFF01
S214001FB0234B1B68D80604F0010416D5D1F840312F
S214001FC0DA01FBD4214B1B680B61214B1B78052BD8
S214001FD00BD1204B18680190FFF794FF184B01981F
S214001FE05968C1F30141FFF7EDFA194B1B78023B24
S214001FF00A2B0AD8DFE803F00616180909090909AA
S214002000091B1E000020FFF719FE2B68DB075EBFCA
S2140020100C4B02221A661CB10A4B0022C3F8802120
S21400202003B030BD0120EEE7FFF730FEEDE7FFF727
S21400203097FEEAE7FFF7E6FCE7E700BFEB63002062
S21400204000300E4000400E40002F0020042F0020DD
S214002050E9630020C810002010B50B4C0B4BD4F8D9
S21400206090201A601120FFF763FB094B1870FFF7EA
S21400207049FF084B084A5B68C3F301431370074BDC
S21400208022691A6010BD00BF00400E40002F0020DD
S214002090E963002000300E40EB630020042F002090
S2140020A0064942780B6823F4407343EA0223022A67
S2140020B00B6004BF024B5B6A704700BF00300E40E7
S2140020C000400E4010B5044608B1FFF7C5FFFFF705
S2140020D025FF164A136943F00403136129F02BF910
S2140020E029F02AF9124B1B68DB0618D529F03DF8B3
S2140020F031F0A6F829F03DF829F01FF903F082FB2D
S2140021007CB1FFF739FF0A4AD2F84C3123F000437E
S214002110C2F84C3144B9BDE81040FEF70FBE30BFE0
S214002120EAE7FFF713FFEEE710BD00BF00ED00E0A3
S21400213000300E4038B5044608B1FFF78DFFFFF7B4
S214002140EDFE1B4B1B4DD3F8802145F60E01D20742
S214002150C3F8801148BF00224FF42071196648BFAB
S214002160C3F88021144A136943F00403136129F06D
S214002170E2F82B68DB0615D528F0F7FF31F060F89B
S21400218028F0F7FF03F03EFB74B1FFF7F5FED5F835
S2140021904C3123F00043C5F84C3144B9BDE8384013
S2140021A0FEF7CCBD30BFEDE7FFF7D0FEEFE738BD5A
S2140021B000400E4000300E4000ED00E00378134A69
S2140021C0002B437870B514BF04260026002B8378B6
S2140021D0946914BF02250025002B037924F03F04E0
S2140021E043EA0403C47814BF08210021012C08BF69
S2140021F043F0010333432B430B4393611368417948
S21400220023F4403343EA0143136070BD00300E40B0
S21400221070B504460E46FFF721FE10B3FFF772FEB8
S214002220104B5B68C3F301439C421AD00E4BD3F8A5
S2140022300031FEF759FD022C054602D12146FFF774
S214002240C1F9C4F1020210239340064A13610EB18D
S214002250FFF758FE2CB921462846BDE87040FFF728
S214002260B1B970BD00300E4000400E4013B50246B6
S214002270FFF7F4FDC8B152B90D4B0191D3F80041F8
S214002280FEF732FDC4F30422019902FB0002094B5B
S2140022901B7843B1084B9A4205D8022002B0BDE82D
S2140022A01040FFF7B5BF0020F8E702B010BD00BF32
S2140022B000400E40EA630020002D3101034B0278F7
S2140022C01A7001210020FFF7D1BF00BFEA6300208B
S2140022D0224B4AF6E85210B5596B5A639A6FD207EA
S2140022E0FCD41B6C13F003031EBF1D4A0124C2F866
S2140022F0B44A834204D110B9194BC3F8B40A10BDCE
S214002300032B00D09BB9431E012B10D8134A4FF461
S2140023100023D362936FDB07FCD4136C23F0030314
S21400232043F0010313640D4A536A1C03FCD50B4BA0
S2140023309A6FD207FCD41A6C22F0030202431A6486
S2140023409A6F12F00102FBD10038054C18BF01202D
S2140023500129C4F8B40A08BF5A63D0E700300E401B
S2140023600000C6432DE9F04F002389B0CDE90233C3
S214002370CDE90433CDE90633A0F5E163B3F5966FF6
S21400238004460D46914604D90025284609B0BDE806
S214002390F08FB0F5E16F674B8CBF0122002240F052
S2140023A0BC80D3F81832C3F30721DBB2079104933D
S2140023B04FF4167A4FF4966BDFF87C81D8F84C70A1
S2140023C00192C7F301773B4605A902A8FFF750FD27
S2140023D0D8F8EC60019AC6F30126334606A903A88E
S2140023E0FFF746FD049B0799A4EB0B0EA1EB030C2D
S2140023F00EFB0CFCBCFBFAF213EB020C2CBF012309
S21400240000236145C0D3002BBED1069A0398131A49
S2140024100EFB03F3B3FBFAF3C0182CBF0123002313
S2140024208242B1D3002BAFD1059B02995A1A0EFBFC
S21400243002FEBEFBFAFA11EB0A012CBF4FF0010EAA
S2140024404FF0000E8B429FD3BEF1000F9CD1B9F126
S214002450000F10D0D8F85C2022F4FE4222F00202D0
S214002460B4F5E16F42EA0C2218BF4FF0020E42EAC2
S2140024700E02C8F85C20002D4DD02E4B022FD3F84C
S21400248030223ED0032F3FD0012F14BFD2B2C2F36A
S2140024900722120312F4702F7FF476AF264FFB6EDE
S2140024A023F470431A43234BFA66022ED3F83022E5
S2140024B02CD0032E2DD0012E14BFD2B2C2F3072289
S2140024C0120312F4702F7FF45FAF1B4ED6F8EC3079
S2140024D023F470431A43C6F8EC20736E814238BF6B
S2140024E0014623F4FF73E72923F0010328BFE72101
S2140024F0B4F5E16F18BF43F0010343EA4103736686
S21400250043E7C2F30742C4E7120EC2E7C2F307422C
S214002510D6E7120ED4E7012537E7D3F81832190E9E
S214002520C3F30743079104934FF4966A4FF4E16BA5
S21400253042E700BF0081E00F00300E40304B1A6FBC
S214002540D96C11F0010F02F0060244D0002A42D0E6
S214002550132851D9143813288CBF10230823284970
S214002560013BCA6C180322F47F4240EA032313435C
S214002570CB64244BCA6C1B88C2F303222833013277
S21400258002EB820003EB5303B3FBF0F3C86C013B92
S214002590072B28BF072320F0EE6040EA036343F4CE
S2140025A08013CB64184BB3F90030002B12DB03F119
S2140025B02800C0F34E030344500800EB4202B3FB6E
S2140025C0F2F20B6D072A28BF072223F0700343EAB6
S2140025D002120A657047D96C01F00101114304D15B
S2140025E0092809D90A380928B6E7DB6C13F0010375
S2140025F0B5D01AB92728AFE70423B0E70023AEE723
S21400260000300E406658002068580020064A074BE7
S214002610D3F88039136F23F007031843044B106771
S2140026201888FFF78BBF00BF00300E400000C6437F
S21400263064580020374A38B502239363936B03F03F
S2140026400F03022B044602D00025284638BDE38837
S2140026508088B4F90C504A2B4FD9B3F5FA7F4ED385
S21400266040F6C3118B4294BF4FF000514FF04051DB
S214002670D36C23F0405323F00103002DA8BF43F092
S21400268001030B43D364D2F8EC3043F44073C2F832
S214002690EC30214B1880D36E43F08073D3661F4B0B
S2140026A0D3F8800900B10420FFF7B0FF1C4B218946
S2140026B019801C4BB4F90C20A0881A80FFF73EFF47
S2140026C0A37BFBB1012B21D0012260881146FFF7C6
S2140026D049FE05460028B7D00E4AD36B43F4806304
S2140026E0D3636078FFF7F4FDA37AA3F12002534288
S2140026F053410A4AC2F89437A7E70021B8E74FF0DB
S2140027008051B5E7034B084A9A65DDE7014B074A57
S214002710FAE700BF00300E40645800200000C643B1
S214002720665800206858002077402057372110B799
S214002730044AD2F8443423F003031843C2F844048E
S214002740704700BF00A0004000EB4000F8B50D4603
S2140027501F46040116463AB1164801238B40204412
S214002760CFB100F1C0600360072D4FF00F0115D800
S214002770AB00114806FA03F29940204428F0E2FD27
S21400278046B90C4A012101FA05F5224477B102F157
S214002790C0621560F8BD00F18060E4E7A5F10803AB
S2140027A09B00064806FA03F29940E6E702F18062CB
S2140027B0EFE700BF0CA0004004A0004008A00040C7
S2140027C0084B4FF40072C3F88020BFF34F8FBFF35F
S2140027D06F8F054B0021D9664FF4AA401962FEF7A9
S2140027E001BF00BF00E100E000200E40034B0344A1
S2140027F09B0081F001011960704700BFA001F11035
S21400280010B5044601214FF4AA40FEF7EBFEB4F8DB
S214002810013022785BBA9BB243EA02630B4A13602C
S21400282000231362D36253634FF00043D3664FF026
S214002830FF339366064A4FF40071C2F88011E378BE
S2140028405B01DBB282F80933116010BD00200E4038
S21400285000E100E02DE9F041C3B201259D40CB7AAE
S2140028608F7A234ED1F800E00C464FF03008097BF3
S21400287094F80DC0B5661B0508FB006043EA0743E5
S21400288043EA415322F00302C0F880E0C0F888C053
S214002890C0F88430C0F8982028F076FCF36E2B43FE
S2140028A0F366237A13B1736B2B437363637A13B1A6
S2140028B0F36A2B43F3620E4B1A68237923B1DB438A
S2140028C01B0263F47F431A4063790BB142EA03228A
S2140028D0A3790BB122EA0302E3791A43044B1A6088
S2140028E0044A9562DD63BDE8F04128F053BC00BFA2
S2140028F000200E4000200E4410B5C0B201248440D3
S21400290028F042FC054AD36E23EA0403D366044B40
S2140029101C62BDE8104028F03DBC00BF00200E4001
S21400292000200E4410B5C0B20124844028F02CFCD0
S214002930074B1A6A224209D19B6A34EA03030CBF8A
S2140029400124002428F026FC204610BD0024F9E7C8
S21400295000200E40054B5A685B68054B41F6713205
S2140029601A649A6822F001029A60704700300E409E
S21400297000000E40034B9A6822F001029A60002283
S2140029801A64704700000E40094A0A4BD969C90705
S21400299005D512B96FF002007047013AF6E7002A33
S2140029A0F8D001221861DA60D86940F380007047D9
S2140029B08096980000000E4070B5C1B10E4A002304
S2140029C0082550F8234094610C4CD5600133D66935
S2140029D0F60705D514B96FF0020009E0013CF6E7EA
S2140029E0002CF8D0D469A40703D49942E9D100207A
S2140029F070BD6FF00100FBE700000E408096980067
S214002A002DE9F8431C4B884641F671311D6C19645C
S214002A101A49074648684968996841F00101ADB20D
S214002A20996096084FF00009B14501D3002005E0F3
S214002A3007EB89042046FFF7A7FF48B10E4B9A68BC
S214002A4022F001029A600DB100221A64BDE8F883F4
S214002A50C4F30A04C4F50064A408A6EB0901A14265
S214002A6028BF21464046FFF7A7FF0028E6D1894445
S214002A7008EB8108D8E700BF00000E4000300E408B
S214002A80234B41F671311A6C10B5196421494C6814
S214002A904968996841F00101996001211861D9607F
S214002AA0D9694C0792B209D5996821F0010199605D
S214002AB00AB100221A644FF0FF3026E00221D960E6
S214002AC01549D869C00700D569B9D86910F0020061
S214002AD00BD0996821F0010199600AB100221A64AE
S214002AE06FF0010011E00139EBE741B9986820F07A
S214002AF00100986002B119646FF0020005E0996861
S214002B0021F0010199600AB1186410BD1046FCE777
S214002B1000000E4000300E408096980010B590FAE7
S214002B20A0F2054C2368B2FA82F223EA0000914034
S214002B300143216010BD00BF00500E40014B012232
S214002B409A60704700500E40134B1449F0B50022AF
S214002B505D68134E1046D6F8E8714C680B687F0720
S214002B600BD4B3F5006F06D012D8B3F5007F02D0B1
S214002B70B3F5806F01D144F480742B4202D02C420E
S214002B8008BF18430132092A01F10801E3D1F0BD5C
S214002B90B3F5803FEEE700BF00500E403C33030025
S214002BA00040E00F8B784A789B0143EA82030A785C
S214002BB01343CA7843EA02130A7943EAC2234A79DE
S214002BC043EA02338A79043043EA42430001014A69
S214002BD01350704700200440014B1860704700BF38
S214002BE000008442427801790378002A827870B522
S214002BF014BF04260026002AC27814BF102500251C
S214002C00002A42794FEA023242EA012242EA0302ED
S214002C10837914BF20240024002BC37942EA03439F
S214002C2043EA0603027A43EA050314BF4FF4004161
S214002C3000212343002A14BF4FF4003200220B4326
S214002C401343014A136070BD002004400D4AD2F8B9
S214002C50E430D2F8E0109B0003F03C03C1F381118E
S214002C600B438370D2F8E03003F03F034370D2F892
S214002C70E830D2F8EC2003F0F003C2F3031213435B
S214002C800370704700FF0FE070B5054616461C46F9
S214002C9019B91448FEF7ECFD0146402C1BD003D8AA
S214002CA0DCB1202C1BD070BD602CFCD1042303FBB0
S214002CB006F2560806EB4113B3FBF2F30A4A203B32
S214002CC002EAC3032A6822F060022A602A681443D4
S214002CD02C606B61E7E70623E9E71023E7E70823A4
S214002CE0E5E700BF40410500F8FF7F0040F6AA6315
S214002CF0C36041F20502002303604260104A83600D
S214002D004361C3648264036643678367C3670D4B8E
S214002D100D4A984209D0904207D003F500639842C6
S214002D2003D003F58063984201D100230365002396
S214002D309042836502D0054A904200D1C365704731
S214002D40F9FF01000000014000040140000C0140B2
S214002D5070B51648164E174D174C0121FEF742FC6B
S214002D6001214FF48A40FEF73DFC002304220A218D
S214002D700320FFF7E9FC45F2031373664FF47F4325
S214002D806B612022002363610B21A26003200422D2
S214002D90FFF7DAFC094BB3664FF47F036B614FF421
S214002DA0502363614023A36070BD00BF00350A0056
S214002DB000600E4000600E4400600E46045100089D
S214002DC038B504462BF0E9F90FCC044D0FC594E84E
S214002DD00F0085E80F00002038BD00BF082F002038
S214002DE047F6FF739A42F0B56BD002296BD8374D81
S214002DF005EBC10615F83130B078012838BF012040
S214002E00012B4FEAC107044613D1F3781B1A0020A2
S214002E10984202D3E018C0B2F0BD191AA3EB5101D4
S214002E20756835F911509542CCBF01F1FF3308465D
S214002E30EEE770680028EFD0B0F90030934204DB6C
S214002E40B0F902309342B8BF13468288FF2A04BF07
S214002E50B0F90610B0F908C03D440FBF01260026A1
S214002E60C8214FF0280C6D78CA1A92FBFCF2324447
S214002E7012B2954201DD002A01DA6A1E12B24FF440
S214002E807A7700EBC2060132F188B66812B213FBFD
S214002E90016121EAE171954201F5FA71B1FBF7F1A2
S214002EA004DD00EBC206B6888E42EAD200EBC20210
S214002EB032F8040C884228BF0846A04238BF204695
S214002EC0A9E7FF20A8E70020A6E700BF082F0020FC
S214002ED00229F0B55FD8314B13F83100012816D11E
S214002EE003EBC1018C78C878012C234638BF012338
S214002EF0904294BFC3EB0003C3EB0203DBB2001B9C
S214002F004A688342C8BF002332F91300F0BD002A86
S214002F103FD003EBC1014B68002B3CD08878904231
S214002F2002D3B3F90200F1E7CC78B3F9000094427B
S214002F30ECD94C789988A1F1FF06013C714203F167
S214002F400405E4B2714103F10C071FFA82FCCEB20D
S214002F50B44216D805EBC1014FF47A75B1F90240B8
S214002F6049686A43521A04EBD47102EB610292FB81
S214002F70F4F29042CADBB3F902009042C6DC10B20B
S214002F80C4E737F831E0E64501F10106E2D3314601
S214002F90DDE70348BAE70348B8E700BF082F00207C
S214002FA00CFEFFFF0080FFFF08B50448FFF708FF90
S214002FB0BDE8084001202BF014B900BF943D030083
S214002FC07FB51422002101A830F0FEF8044B0293CE
S214002FD001A94FF0FF302BF041F907B05DF804FB74
S214002FE0006A1800024B03480122C3F80026704707
S214002FF00010C84300000F40094B98420ED003F55E
S2140030008063984209D10122064B03EBC2035A683B
S214003010054B13449B0000221A6070470022F3E71A
S21400302000000F40843303008005F2102DE9F74FAF
S214003030DDF84880DDE90E64DDE9105983461F4659
S2140030408A4621B96FF0860003B0BDE8F08F002AEB
S214003050F8D00EB9002CF5D115B9B9F1000FF1D1A1
S214003060B8F1000FEED02F4B9F4209D010D82E4B50
S2140030709F4205D027F48071A3F58063994204D15E
S214003080BBF80030B3F5105F0AD06FF08500DBE7C1
S214003090264B9F42F4D027F40071A3F58073EDE72A
S2140030A0BBF80230B2EBD30FEFD3802B02D0B3F5D0
S2140030B0807FEAD11CB9C8F800402046C4E7AE427B
S2140030C00AD233199D4207D24C45BBD83146224618
S2140030D0284630F05FF82E46134BBBF802B09F42EE
S2140030E04FEADB0BD1D14C45ACD814F00F07A9D171
S2140030F0EB1900930122F3195946504628F014FAAA
S21400310028B91037BC42F3D8C8F800409CE74A46B6
S2140031100021284630F058F80023C8F800306FF039
S214003120920091E70010C004004440040012C0045E
S2140031302DE9F04F8BB0DDE91475DDE9166ADDF890
S2140031406090834698460C4629B96FF08604204660
S2140031500BB0BDE8F08F002AF7D00FB9002DF4D1E0
S21400316016B9BAF1000FF0D1B9F1000FEDD0354B1A
S214003170984509D010D8344B984505D028F480716E
S214003180A3F58063994204D1BBF80030B3F5105F15
S2140031900AD06FF08504DAE72C4B9845F4D028F473
S2140031A00071A3F58073EDE7BBF80230B2EBD30FE6
S2140031B0EFD3802B02D0B3F5807FEAD11DB9C9F8D2
S2140031C000502C46C3E7B7420AD27B199E4207D26C
S2140031D05545BAD839462A4630462FF0DBFF3746E3
S2140031E0194BBBF802B098454FEADB0BD1D15545D9
S2140031F0ABD815F00F08A8D120465B4602AA594660
S21400320028F0CCF904460028A1D106EB0803009369
S214003210002207EB0803594602A828F085F9044661
S21400322030B908F110084545EFD8C9F800508EE7C8
S2140032305246002130462FF0C7FF0023C9F8003061
S21400324085E700BF0010C004004440040012C0041C
S2140032507FB5094B6A4603F110061546186859688B
S214003260144603C40833B3422246F7D12846FFF774
S214003270E1F9002004B070BD9433030070B5164B1E
S21400328086B001AA03F11006154618685968144658
S21400329003C40833B3422246F7D11B8823800F4B62
S2140032A0D3F8B42012030ED4D3F8B830C3F308030F
S2140032B00B48ADF80A30FDF759FD2846FEF76CFDC1
S2140032C0002006B070BD074B1B884FF6FF72934276
S2140032D008BF4FF48D73EBE7A43303000081E00FC3
S2140032E000F049020001E00F07B5084B186801908E
S2140032F0202301A88DF80430FEF78EFD6420FEF72B
S21400330099FB002003B05DF804FB00BFB633030052
S21400331010B50C480C4C6FF00402A02112F0800F80
S214003320D3B21BBF03F00F03043BA3181B1802F114
S21400333001020CBF83F800131976332AEED1002061
S21400334010BD00BF00ED00E000E100E010B504464F
S21400335027F00BFF024B1C6027F00BFF002010BD70
S214003360282F002010B527F000FF034B1C6827F01D
S21400337000FF204610BD00BF282F002013B51346BF
S2140033800C4618B90192FFF7EDFF019B0146224655
S214003390044805F087F90028D4BF3720002002B083
S2140033A010BD00BF9BB6020010B500F025F804481B
S2140033B0044B436000248460FFF7C8FF204610BD1E
S2140033C02C2F0020C933000013B5064C2378009339
S2140033D0054B1B8828F07EF910B92378013323703B
S2140033E002B010BDEC630020F6150020014B1880DB
S2140033F000207047F615002008B5074B1A6842B93A
S214003400012208201A6027F065FE0449044802F0ED
S21400341049F8002008BD00BF402F002010110020F2
S214003420382F002030B5137A14463022534303F168
S214003430804303F5622387B0D3F89420D4E90313BE
S2140034400B44934208BF0A46616991422CBF8B1A0F
S214003450D31A73B10F4903910021CDE9013101233D
S21400346000930494D4E9001327F040FE002007B030
S21400347030BD94F82D2001256576002AF6D084F814
S21400348035301321E36920469847636A294620466B
S2140034909847EBE7253400002DE9F04389B0044651
S2140034A00F461646984627F06FFE8146002E00F01F
S2140034B08580237E03F0FF02002B00F0AB80207A8D
S2140034C03023434303F1804303F56223D3F894503B
S2140034D063699D4203D10DF11D01FDF71BFF616974
S2140034E094F82D308D429CBFD4E90352AD186D1A66
S2140034F0B54228BF3546002B71D12A4638462FF0F4
S2140035003BFE63692B4463612E4621E060690378C5
S21400351003F0FD0111295FD1216B884205D1A3F18B
S21400352011014B424B4184F83430013E6369216BF4
S2140035308B4203F1010308BF2363636101329542A6
S214003540E4D1D4E90323216B1344994200D12263CA
S2140035500025207A6576FDF755FE207A62693023CD
S214003560434303F1804303F56223D3F894309A4231
S21400357038D194F82D302576E568656103B125636A
S214003580636A012120469847234B03930023029346
S214003590236901930123009321686368207A0494C9
S2140035A02A4627F0A3FD207AFDF74CFE04F10C0115
S2140035B00EC90A44934228BF0B4663614846C8F8C2
S2140035C0006027F0E7FDD8F80030002B0CBF1B206A
S2140035D0002009B0BDE8F08307F8013BA6E72E46B9
S2140035E00022ACE7012323760DF11E01FDF792FEC3
S2140035F09DF81E30002BD6D00DF11F01207AFDF766
S21400360061FE9DF81F100029CDD1207A2246FFF7D3
S21400361009FFC8E71646D1E725340000002808DB76
S2140036200123420900F01F0003FA00F0014B43F8A3
S2140036302200704700E100E0002809DB4309012270
S21400364000F01F0002FA00F06033024A42F823003E
S214003650704700BF00E100E070B504460568FFF75C
S21400366081FE844202D10020FFF770FE95F93600F5
S214003670FFF7E2FF95F93630002B0DDB5A090121E2
S21400368003F01F0301FA03F32032184941F82230F1
S214003690BFF34F8FBFF36F8F95F93700FFF7CCFF5F
S2140036A095F93730002B0DDB5A09012103F01F0373
S2140036B001FA03F320320D4941F82230BFF34F8F51
S2140036C0BFF36F8F287AFDF7DDFD287AFDF73EFD04
S2140036D0FDF71AFD0023C4E90033C4E90433A360F0
S2140036E02846AB6ABDE87040184700BF00E100E01E
S2140036F02DE9F8430446164690F82C700D4627F040
S21400370043FD94F8382003469AB127F043FD94F819
S2140037103B9027F02AFD01218046484601F04AFEEC
S214003720404627F026FD27F02FFD0022034684F8AA
S2140037303820184627F02EFDDFF8A8802E444FF0DC
S2140037403009B54204D1236A0121204698473EE05D
S21400375094F82D3043B327F017FD237E13B3237A56
S214003760E168D4F830C009FB0383D3F89420013A0B
S2140037708A423EBF226902F1FF32521813469C4528
S2140037800FD013F801E9BEF1110F02D0BEF1130FEE
S21400379020D1AEF11103D3F1000E4EEB030E84F8E8
S2140037A034E0226327F0F6FC94F83430002BC8D0BF
S2140037B037B12B780A2B03D1E3690D2120469847B1
S2140037C0E36915F8011B204698470028B9D0002069
S2140037D0BDE8F883994282BF236903F1FF335B1883
S2140037E0CDE700BF00200E402DE9F0410C461546FF
S2140037F0064686B04022002120461F462FF0E4FCF5
S214003800002395E803002A692376EB68E360C4E9A1
S21400381004232A7D84F82C20AA7D2363012384F8C0
S214003820343084F835300C9B236284E803000D9B0B
S21400383063620E9B84F82D20E761A3622B7A84F8DE
S21400384036306B7A84F837302D4B73602D4BB3606F
S2140038502D4B33612D4B346073612D4BF360FDF7B8
S2140038609BFC38B12B4B984204D01024204606B05F
S214003870BDE8F081002104F10800FDF715FC0746BD
S2140038800028F2D1244B33624FF00108234B84F812
S2140038903C80B361224BF3619DF8403084F83B30A6
S2140038A09DF83C3084F83A3084F83900697D84F815
S2140038B03880204627F06AFF95F90900FFF7BCFE1E
S2140038C095F90900FFF7AAFE164B0494CDE902739A
S2140038D02369CDE900836368E2682168207A27F0CF
S2140038E005FC04460028C0D195F90800FFF7A4FEA1
S2140038F095F90800FFF792FE3046FFF727FDB5E77B
S214003900F1360000993400007BB7020081B7020050
S21400391059360000038000F057B702008DB702004A
S21400392087B70200253400002DE9F04186B01C461A
S214003930524B0C9D0293524B01930126514B009320
S214003940CDE90366504B90460A462946FFF74CFFE2
S2140039500746002856D123682B6463686B64637A35
S21400396085F84930237A85F84830E37A85F84B3075
S214003970A37A85F84A30637B85F84D30237B85F83B
S2140039804C30E37B85F84F30A37B85F84E303F48BC
S2140039903146FDF727FE3E483146FDF723FE617AA5
S2140039A0207A33460422FEF7CFFE33460222E17A1F
S2140039B0A07AFEF7C9FE60683146FDF713FE88F868
S2140039C000704146206827F0D7FC2268536F43F00A
S2140039D003035367936FA17C23F4F85323F01F036C
S2140039E00B43617C43EA012303219367516785F803
S2140039F0507098F81930202B2BD007D803B3102B13
S214003A0009D02327384606B0BDE8F081302BF8D120
S214003A1085F8501002E085F850603E4600230222EA
S214003A20617B207BFEF790FE2368E27CDA675A6EA5
S214003A3042F004025A665A6F42F010025A675EB9A4
S214003A402068C36C43F00403C364052127F08DFC93
S214003A50D8E7022385F85030E17BA07B00230422C0
S214003A60FEF772FE2368217DDA6F42EA0122DA67EA
S214003A705A6F42F020025A67E2E700BF19B8020008
S214003A8095B80200A9B8020089B8020040410500B6
S214003A9000350A0010B51C46044B186829F0E5FDF1
S214003AA0002820600CBF1B20002010BD181100202D
S214003AB013B5064C23780093112327F00BFE10B99C
S214003AC023780133237002B010BD00BF0D640020C0
S214003AD010B5FFF791FC0F4C206029F0D4FD202292
S214003AE00D490E48012304F05FFE0D4B18600D4B88
S214003AF0636020460C4BA360FFF728FC27F035FBDD
S214003B0001210446084601F055FC204627F031FB0B
S214003B10002010BD442F0020ED630020C0330300BA
S214003B2018110020B13A0000953A000000F0FD039D
S214003B30112B05D0182B03D0A0F17D03012B07D83D
S214003B40044B01221A70044B80F0200018707D2070
S214003B50704700BF1564002016640020F8B5214B9E
S214003B600E46144600B3204A2049107000221A70F0
S214003B701F4B22700A704FF6FF721A801B4D2B786F
S214003B80EBB91B4F3046398827F04BFF164A388072
S214003B901378013BDBB213706BB901232B703046F0
S214003BA0BDE8F840FFF7C2BF1A78002AE6D01870C2
S214003BB0104B1878F8BD237801332370EFE7012BFC
S214003BC005D102232B700A4B1888000AE8E7022B5F
S214003BD004D103232B70064B1878E1E7FF232370EC
S214003BE07E20E7E715640020146400201764002098
S214003BF070580020166400202DE9F047394E3378BF
S214003C00884617465BB9384A1370384A1370384AE4
S214003C101370384A1370384B4FF6FF721A807D289F
S214003C2050D02DD8182851D01A2853D0314B2E4DAD
S214003C301C78DFF8BC9000221A702B78DF2B9CBF14
S214003C4001332B702B78022B84EA000412D9DFF89C
S214003C50A8A099F80000BAF8001027F0E2FE2B782A
S214003C60AAF80000DF2B9FBF99F8002088F80020F4
S214003C70023B3B701D4B1A7889F800201C7006E04A
S214003C807E28D3D1184B1B781BB91A4A13702020F4
S214003C9011E0FF2B20D0184A1188154A1078134AD5
S214003CA0127802EB0022914218D1022B18D9DF2B92
S214003CB08CBF7A200020A0F120025342534133707B
S214003CC0BDE8F0870B4B20201870F4E7064BFF2268
S214003CD01A70DCE77420EEE77720ECE77620EAE758
S214003CE07920E8E70E6400201364002010640020AA
S214003CF011640020126400206E58002008B527F0DA
S214003D003EFE044B08B1188008BD4FF6FF721A80BD
S214003D10FAE700BF6C58002010B5074C208850B159
S214003D2027F02DFE2388C01A044B1B8800B2984249
S214003D30B4BF0020012010BD6C5800206A58002037
S214003D404FF07E622DE9F041B2F84C70B2F84A604E
S214003D50164DDFF85C802C884FF6FF739F4208BF35
S214003D604FF448679E4208BF4FF4C87650B16400CF
S214003D702C802B88BB4215D92F800023A8F8003052
S214003D80BDE8F081B8F80030002BF2D027F0F7FD40
S214003D90B8F80030C01AC4EBC40480B204EB800448
S214003DA0E408E5E7B34238BF2E80E6E76A5800200D
S214003DB06C58002008B527F0E2FD4FF07E634FF602
S214003DC0FF72B3F85A30934208BF4FF47A73184420
S214003DD010F47F6F034BC0F3071208BFFF221A7060
S214003DE008BD00BF0F64002010B5084C237843B10F
S214003DF027F0C5FD2378C3EB101003065CBF002335
S214003E0023702078B0FA80F0400910BD0F640020BF
S214003E1007B501F0F5FE6A4601F058FF18B10448F0
S214003E20522100F0A5F9DDE9000103B05DF804FBBE
S214003E30D633030008B501F02DFE18B102487A21EA
S214003E4000F096F9002008BDD633030008B500F050
S214003E50EBF80E4A536A43F4E0235362EFF3088309
S214003E600B4A043B4FF0CD3193420BD2094B012253
S214003E701A6100F013FBFFF7DDFFBDE808400648B7
S214003E80FEF79EBF43F80419EEE700BF00ED00E022
S214003E900000002000300E40943D030007B50422C9
S214003EA00DEB0201002006F021FA042804D0054894
S214003EB04FF4BF7100F05CF9019800F09DFA03B072
S214003EC05DF804FBD6330300102870B522D00DD859
S214003ED0032801D9002070BD013802281AD8DFE86F
S214003EE000F002172F000023022215E02038C3B28C
S214003EF0032BEFD80328EDD801A353F820F000BF1A
S214003F00E73E0000113F0000413F00003D3F00003B
S214003F100123E9E7002303220B490C4D0C6800211E
S214003F20C8B28442D6D955F8200028B1067A9642FF
S214003F3002D1467A9E42CED00131F1E70323D3E781
S214003F4002231A46E8E700BF483203009810002014
S214003F5010B5FFF7B9FF044630B1037A022B03D140
S214003F6003680BB11B6823B9074840F24A2100F0EA
S214003F70FFF823681B681B6C186900F44830A0F52E
S214003F8000535842584110BDD633030010B50446BE
S214003F90FDF7ACFE002211460220FDF7DBFD0B4AC2
S214003FA00B48136B23F47F2323F400631363116B16
S214003FB000EAC42008431063012211460220FDF7E0
S214003FC0C9FDBDE81040FDF761BE00BF00400E40D1
S214003FD000F80F00024B186BC0F3C820704700BFF4
S214003FE000400E4008B5074BD3F828389B69DB0223
S214003FF005D5012803D840F2022000F09BF80120E6
S21400400008BD00BF0000E10F064BD3F828389868BB
S214004010C0F30343C0F303621B0243EA0233C0B299
S214004020184370470000E10F10B5FEF78DFD0446FB
S214004030FEF784FD0022012101FA02F3234018D086
S214004040204B214933F81230062B18D040F20722B5
S214004050934211D14FF000524FF20F005488844221
S2140040600AD11088984207D14CF23C33538008801E
S21400407010BD0132112ADFD1134A138012E04FF02F
S21400408000534FF20F025888904218D11B88B3F5A0
S214004090406F28BF4FF4C0630B804FF000534CF2C4
S2140040A03C325A80084B1A8840F201739A4201BF8C
S2140040B0064A074BD2E90001C3E90001D8E74FF4EE
S2140040C0C063E9E74A3403007258002090100020CD
S2140040D0502F0020164B1B881A0A13F0FF031046B9
S2140040E004D1012A22D140F080007047072AFAD86E
S2140040F001A353F822F000BF2F410000E740000064
S214004100194100001D4100001D4100002141000032
S2140041102541000029410000092070470220704711
S214004120032070470B2070470620704718467047DC
S2140041307258002010B5044627F01EF84FF00053C2
S2140041404FF20F021C805A80BFF35F8FBFF34F8F72
S2140041500549064BCA6802F4E0621343CB60BFF31E
S2140041604F8F00BFFDE700BF00ED00E00400FA053A
S21400417038B504460D462CF026F800F0CDF926F0AA
S214004180FBFF06492B462246002027F08FFA2946D9
S2140041902046BDE8384027F052BC00BF3634030046
S2140041A06A4A6B4B2DE9F04155685D65516A996521
S2140041B06849694CD1F80002D865D1F8041219662E
S2140041C0916A5966D16A9966116BD966516B1967FF
S2140041D0D26B586B5A67D3E90E2110F0040F08BF54
S2140041E011465E4A1A6500209142D8645DD301F1FB
S2140041F02000A04259D888691864C5F30805CE691E
S2140042005E64062D55D1564DA84252D3554DA84250
S2140042104FD205884DF6426085424AD11868C3F8E9
S21400422090005868C3F8940040F20170A242154608
S21400423005D22E68B6F1CD3F02F10402F6D0002278
S214004240C3E91E22C3E92022C3E92222641B424E90
S214004250DFF80CC1DFF80CE19C648E422CD8D3E961
S2140042601EC7D3E92065D3E922414FF0000E013A7C
S214004270D2B2FF2A3CD1BEF1000F05D0C3E91EC75B
S214004280C3E92065C3E92241B3F85430C3F30803F9
S214004290DA1E0F2A50D8DFE802F0563542454F4F57
S2140042A04F4F4F4C4F4F4F4F4F390021C3E910111E
S2140042B02A494FF42060B9E756F8044D6445CCD33C
S2140042C07445CAD2E507C8D5274F062557F8048B8C
S2140042D0A045C2D0013D15F0FF05F7D10AB9052269
S2140042E001E0013AD2B202F11E0543F82540B4E7D8
S2140042F0E0464FF0010EBC4637462E4625460C4695
S2140043004146B4E740F60220BDE8F081174BDB6972
S21400431013F0020F40F2025318BF1846F4E740F6B7
S2140043200320F1E740F60423B0F5206F08BF1846D7
S214004330EAE740F60520E7E7013B40F60722412B77
S21400434098BF1046E0E740F60120DDE700ED00E00C
S2140043500010002000E100E0001000200000002017
S2140043600C010000263203007810002000200540D3
S21400437000F00CB800F00AB800F008B800F006B874
S21400438000F004B800F002B800F000B872B61EF0F4
S214004390080F09D01EF0040F0DD0DFF850E0AEE88D
S2140043A0FF1F6FF002000CE0DFF840E0AEE8FF1FF2
S2140043B06FF00E0005E0DFF834E0AEE8FF1F6FF0A8
S2140043C006006946EFF309828EE80700864608482D
S2140043D0084C854501D3A54501D384F30888FFF72B
S2140043E0DFFE84F30888FFF7A5FE0000001000201B
S2140043F0400000200010002082B2074B42B11A8015
S214004400000C064B0ABF4FF6CE2218801A80704763
S2140044104BF6EF62F3E700BFF8150020FA15002010
S2140044200B4BB3F900201888002AB8BF80F0620052
S21400443042001A80074AB2F9001013880029BCBF50
S21400444083F4805383F00B03590011805840704763
S214004450F8150020FA15002008B501F015FE60B129
S2140044600A4B0344072B0DD8072B0BD8DFE803F0C5
S21400447004060A080A0A0A0CC22008BDC320FCE784
S214004480C420FAE7C520F8E7C120F6E7FF1FFF0FB4
S214004490014BDA695A627047002005407FB51A481A
S2140044A00121FDF79FF8012211461046FDF752FB49
S2140044B004210720FEF732FB144B6A4603F1080678
S2140044C0154618685968144603C40833B342224692
S2140044D0F7D118681B79206023710D4C0D238DF8D9
S2140044E009302946032320468DF80A3026F093FF2C
S2140044F0084B04220221C3F8802161621A60A36A75
S2140045000B43A36204B070BD30253E007234030036
S2140045100020054000E100E0014826F070BF00BF23
S2140045200020054010B5094A137813F002040CD198
S2140045300749084809780078884206D0064804806B
S214004540064863F07D030170137010BD1B640020E5
S21400455018640020206400206C5800201D64002091
S214004560054B064A19881288914202BF044A012167
S214004570117000221A807047765800207858002064
S2140045802464002007B503460091022203493D201B
S2140045902AF0D9FB03B05DF804FB00BF86340300A5
S2140045A007B5064B06491B780093022281233D205F
S2140045B02AF0C9FB03B05DF804FB00BF22640020AC
S2140045C08634030038B50C4D0C4C2A7823789A4272
S2140045D000D138BD0A4800212CF096FA094B1B88FA
S2140045E0834202BF084B01221A702378013303F07E
S2140045F007032370E9E700BF186400201E6400204C
S214004600745800207858002024640020074B93F943
S2140046100030002B08DB064A137803F041014029DE
S21400462004BF43F005031370704700BF22640020E8
S2140046301B64002007B5064A06492823CDE9003248
S2140046403D20702302222AF07EFB03B05DF804FBB7
S2140046503E00E00F7F340300702807B504D103B096
S2140046605DF804EBFFF7E6BF074B08491B7801939C
S214004670074B1B780093022203463D202AF063FB7B
S21400468003B05DF804FB00BF2564002085340300FA
S2140046902264002008B50A4815F048F8094815F0C5
S2140046A045F8094815F042F8084815F03FF808485C
S2140046B015F03CF8BDE80840064815F037B800BFCE
S2140046C0765800207C5800207E5800207458002021
S2140046D0785800207A58002008B5DC2200210448CB
S2140046E02CF073F9034B1880034B01221A7008BD97
S2140046F027640020785800202464002030B585B058
S214004700FFF7EAFFFFF708FF4FF07E63244DB3F88C
S2140047105230244C4FF6FF72934208BF4FF47A7320
S2140047202B8000232380FFF7E9FAFFF7F5FA00282D
S214004730FBD04FF07E634FF6FF72B3F848309342DB
S21400474008BF4FF4C8632B8000232380FFF7C2FC0A
S214004750431E154D154C2870DBB20A2B19D80122C2
S21400476002FA03F340F20352134212D00222C1238C
S214004770CDE9003202900E4984233D202AF0E3FA68
S214004780FF232B70D023237005B0BDE83040FFF721
S21400479051BFFFF74FFFA023237005B030BD00BF09
S2140047A06A5800206C5800201A6400201B64002001
S2140047B08434030037B504460D4615F0A9F90228DF
S2140047C025D81C4840F21711FFF7D2FC1A4B19786F
S2140047D001F14003DBB2022B1FD901F0A003A02B8E
S2140047E004D00B0619D57E20FFF7CCFE4FF07E6373
S2140047F0B3F8463013B1204627F03BF9B5B10F4861
S2140048000022214603B0BDE830402CF016B9204601
S21400481015F07EF9DC28D4D8D8E7CDE90014842337
S214004820074902223D202AF08EFADFE705482A468D
S2140048302146E7E78A340300036500207C58002001
S214004840E53403007E5800202DE9F74FFFF764FAA1
S214004850AB4C48B32378580626D599074CBFA94BCE
S214004860A94BAA4A1B7812789A4232D00120FFF749
S21400487067FA7320FFF7F0FEA54A13780133DBB220
S21400488013704FF07E624FF6FF71B2F84E208A42E8
S21400489008BF0322934219DD9E4B512272201A70E4
S2140048A0FFF7DAFE202323709B4D9C4E94F90020E0
S2140048B02378002A18DA13F030030ED01A2027F0D7
S2140048C0F7F8237803F07F032370EFE7FFF72AFE5D
S2140048D0EAE7934B00221A80E6E72A78022AF0D10C
S2140048E08F4A2B701380E9E72A78012A00F0F880B7
S2140048F00DD9931E012BD9D83178FF2900F02481D9
S214004900002940F0F580874B19783246EEE09A078A
S21400491019D57C497D4A7C4892F800C007780A7809
S214004920ACEB0200BA1A02F0070200F00700904251
S21400493098BF81F800C00A78BA4204D123F0020377
S2140049402370FFF73FFE237813F0300F1FD013F0CD
S214004950200F744F15D0C2233B706E4B1B78BB7074
S21400496002237B70237823F03C03237001232B70F3
S21400497003206C4B19783246FFF7F0F827F098F8CA
S21400498094E7C1233B70FFF7A5FBB870E8E713F088
S2140049900C011FD0644F13F0040F3978614B0FD011
S2140049A06039C9B219708020FFF7ECFD237823F038
S2140049B00C0323705D4B3A781A7001202870D8E7F4
S2140049C081F0800119707E20FFF7DCFD237823F04C
S2140049D00803EEE79B0737D5DFF82881544A98F896
S2140049E00030127801919B1A03F0070A26F0CCFBE0
S2140049F00199DFF840B181464E482CF018F807467A
S214004A00BAF1000F16D1484626F0C4FB4A4B38468A
S214004A101F8015F07DF8444B98F800201B7843EA79
S214004A200213404A43F0080301301370C0B2032358
S214004A302B709EE7394658462CF04BF80AF1FF33A8
S214004A4007465FFA83FADBE7304B2F4F19783A7840
S214004A50DFF8D4804FF07E634FF6FF70B3F8443033
S214004A60834208BF05230B44013B521A5B1A02F02F
S214004A70070203F007039A4228DC30482BF0D2FFE7
S214004A80E0B92E482BF0CEFF2C4A2D4B002808BF4D
S214004A9013462C4A0021184613602BF0C8FF264BFD
S214004AA0188015F035F83A7898F8003043EA021383
S214004AB01C4A01301370C0B20223B9E720482BF01D
S214004AC0B1FF18B9FFF790F90028DAD1174B1A781A
S214004AD098F800309A425DD0237843F00803F3E656
S214004AE03378FF2B4CD00F49C95C3246002043E791
S214004AF0114B0139C9B2188815F008FA014604E7C7
S214004B001B6400201D640020206400201864002020
S214004B101C6400201A640020266400202164002003
S214004B206C580020036500201F64002019640020D4
S214004B301E640020745800207A5800207C580020FC
S214004B407E580020582F0020022A1CD1134A1378C2
S214004B50013303F007031370114B002118682BF084
S214004B60D3FF104B1048198800222BF066FF0F4B1E
S214004B701B880BB9FFF7C2F80D4B1A780D4B1A704D
S214004B8000232B7092E60C4A1378013303F00703D8
S214004B901370ECE703B0BDE8F08F00BF2064002080
S214004BA0582F00207A580020745800206C58002097
S214004BB01F640020196400201D6400202DE9F04FBA
S214004BC0DFF8FC9285B082460023DFF8F882AAF868
S214004BD0003098F800301BB989F80030FFF7C0FCA9
S214004BE0A94DAA4E0DF10E0026F066FF27280446B2
S214004BF016D09DF80E0099F800B04A460DF10F0148
S214004C00FEF7FAFF10F0DF0704461BD0FFF7A8FCFC
S214004C107A2827D8732807D82028DAD0272821D141
S214004C20204605B0BDE8F08FA0F17404062C19D814
S214004C30DFE804F00418444A184C4E007420FFF7CE
S214004C400BFDC6E799F800309B4506D0022B0FD81F
S214004C508F4B9DF80F2003F80B20202CC2D0002C81
S214004C6000F0FD808B4840F25511FFF781FAB0E75F
S214004C70032B10D1884B1A786AB12A881F7001213D
S214004C80304632802BF0EFFF0123009331888348B3
S214004C903A4615F0F5F82B8830889842DDD114F0A6
S214004CA037FFC7B2791CC9B228462BF0DCFF9DF847
S214004CB00F202888394615F03DF9CEE77620FFF715
S214004CC0CBFCFFF7A3FC84E77720F8E77920F6E72C
S214004CD07A20F4E70A060DD4032B2BD933785B062B
S214004CE004D56F4B1B78B3EB111F01D0FFF738FCD0
S214004CF0012519E001F0E002802A06D1012B19D126
S214004D007D20FFF73FFC02250CE0A02A06D1012BF0
S214004D1010D17F20FFF736FC032503E07B20FFF74A
S214004D209BFC0025FFF71CFC3078430604D42023A8
S214004D30337049E77C20F2E76B1E022B16D85949E0
S214004D40DFF884B198F800700A789BF8003007F016
S214004D500707A7EB020C9B1A0CF0070C03F00703DF
S214004D609C4515D97820FFF777FC0025AB1E012B54
S214004D702ED898F8003013F0080326D0FFF71AF85C
S214004D80032D69D0002D7FF41FAFFFF73FFC1BE714
S214004D909742EBD0444A0F70002310F002001370C5
S214004DA008D0424A1380424B1B78BB42DED0FEF747
S214004DB0A5FFDBE7FEF7C4FF9BF80030BB4201D03F
S214004DC0FEF79CFFFFF7FEFBD0E73A4A1370D7E7E3
S214004DD0012DD5D1324998F800200B78C2F3021085
S214004DE098422DD1294D288830B92620FFF70EFC91
S214004DF02624FFF731FC13E7170742BF327842F04C
S214004E00080232703278013303F007030B7022F089
S214004E1005024FF07E633270B3F846300BB126F0D1
S214004E2028FE2B88019398F80030009322498523AA
S214004E3002223D2029F087FF2B88AAF80030EFE6F3
S214004E401107337802D543F0080371E7DA079CD4DC
S214004E507520FFF701FC98E7FFF764FBB4E6DFF880
S214004E60308099F8003098F80010144EC0297FF46E
S214004E7031AF012B7FF45EAFFFF792FB0425FFF7FF
S214004E808FFB26F091FD4DE77858002076580020DD
S214004E90226400208A340300246400202364002057
S214004EA01F640020186400201C6400206C5800203A
S214004EB01D6400200F640020E53403001B640020FE
S214004EC0256400200E6400202064002008B5114BE5
S214004ED01B781BB1002000F0010008BD0E4B1A78AD
S214004EE00E4B1B789A42F5D10FF03AFF0028F1D10D
S214004EF00B482BF097FD0028ECD00A482BF092FDCB
S214004F000028E7D0084B1B78002BE3D10120FFF7E1
S214004F101FF8E0E70E640020196400201F640020DC
S214004F207E5800207C58002026640020F0B519B377
S214004F30002820DA2D23B0F1004F137000D0404235
S214004F40012119E0801B8642ECB205F10105F9D972
S214004F5014B9BCF1000F05D04D1C303454544FF03A
S214004F60010CE9B2013B13F0FF0309D13030505475
S214004F70481CC0B2F0BD0021034F09234FF0000CBF
S214004F8057F8046B0025DEE7EC3403002DE9F04FFC
S214004F90002495B021468046164603A84422029473
S214004FA09B462EF011F9A146274602AC25460DF188
S214004FB0480A317859B9641BE4B2224629460020D3
S214004FC0C047002840F0AF803C44E0B2ACE0252962
S214004FD01AD0B9F1000F1BD1204600F8011B044679
S214004FE05445C0F0F580641BE4B2294622460020F2
S214004FF0C0470146002840F09680274448222846AD
S214005000FFB22EF0E1F8E2E0B9F1000F00D1013670
S2140050103278782A06D8612A07D8252A5DD039D86A
S214005020002AC8D04FF00009DAE7A2F1620116297B
S214005030F8D801A353F821F0E7500000795100009A
S214005040D5510000255000002550000025500000D6
S2140050502550000025500000255000002550000077
S214005060D5510000255000002550000025500000B6
S2140050708B51000025500000255000008B51000089
S21400508025500000D5510000255000002550000096
S214005090CB500000392A16D82F2AC3D9717801F0D0
S2140050A0DF01582940F0C380322A06F1010940F09A
S2140050B0AB805BF8041B2046042289B226F00CFD68
S2140050C004464E46AEE7582AACD15BF8041B0222D3
S2140050D0C9B2204626F000FD55E0214601F8022B15
S2140050E062700C469EE7DBF800300193DBF8043074
S2140050F000934FF00009009B994502D10BF1080B75
S21400510090E7019B204613F80910022226F0E4FCE3
S2140051105045044612D3441BE4B2294622460020DA
S214005120C047014618B1002015B0BDE8F08F4822F0
S21400513028462EF049F82744FFB22C46009B5A1EFC
S2140051404A4581BF2046202200F8012B04465445DC
S2140051500FD3641BE4B2294622460020C04701460E
S2140051600028E0D1482228462EF02EF82744FFB229
S2140051702C4609F10109BEE75B46204653F8042B8E
S21400518000F8012B9B4604464CE7621BD2B2294628
S21400519000205BF8049B0092C04704460028C2D15A
S2140051A0009A0146174428464822FFB22EF00CF813
S2140051B0E2B2013419F802000028F9D149460092FB
S2140051C0C0470028AFD1009A1744FFB281462C464C
S2140051D00136EEE66C2ADBF800000BF104090ED16E
S2140051E07378752B14BF0121002101D0642B00D1E8
S2140051F001362246FFF79AFECB46044412E7752A8C
S2140052000CBF00210121F4E7342A10D15E460422A7
S21400521056F804BB20464FEA1B4126F05DFC1FFAF9
S2140052208BF1042226F058FCB346044649E74FF0BB
S2140052300109D5E6034B1B78002B14BF0120022082
S214005240704700BF0E6500200329F8B598BF134BC2
S214005250054698BF5C5C0E4688BF0024032805D828
S214005260DFE800F002080B0E44F002040C4B1F6847
S2140052704FB9F8BD44F00804F8E744F02004F5E719
S21400528044F08004F2E77B681A68144203D05B6837
S2140052903146284698473F68EAE700BF10350300C6
S2140052A0802F002038B5104D2B78ABB10F4C2378EB
S2140052B01BB126F033FC00232370002026F02FFCC1
S2140052C00B4C50B100F0BCFA002320782B70012163
S2140052D0FFF7BAFF0123237038BD064B01221A7070
S2140052E0054B22781A70F7E70D6500200865002048
S2140052F0066500200C6500201265002010B525F01C
S21400530034FF064B1B7804461BB1BDE8104025F061
S21400531030BFFFF7C7FF2046F7E700BF076500204E
S214005320094A0028137814BF0121FF210B4413708B
S21400533008D0064B1B78012B04D9054B1B780BB9FC
S214005340FFF7B0BF704700BF0E650020066500205F
S2140053500C65002070B5124E25F007FF3378054621
S2140053608BB900F097FB044620B1284625F001FFD4
S214005370204670BD0B4825F0A6FE0B4B1C6000F0C7
S21400538059FC0A4B186000F0D1F926F0CAFB084B0E
S2140053901860012328463370002425F0EAFEE7E76C
S2140053A009650020802F0020882F0020842F0020F1
S2140053B07C2F00202DE9F341274A01380029135C91
S2140053C014BF0121FF210B4413543AD0234E3278E8
S2140053D0012A36D9FFF72EFF0128044634D8204F7D
S2140053E025F0C3FE3B781BB31E4D2B781BB901225C
S2140053F02A701D4A1370DFF8748098F8003033B1B5
S214005400019026F08BFB0023019888F8003025F0E9
S214005410B0FE012026F083FB25F0A7FE2B782BB1EB
S214005420019000F00DFA002301982B7000233B70CA
S21400543025F09FFE3078A04203D02146FFF704FFF8
S214005440347002B0BDE8F081032AF3D10228F1D10E
S21400545000F042FAEEE700BF0E6500200665002069
S2140054600D650020076500200C65002008650020FB
S21400547068B525F07AFE094B1B78012B064604D842
S21400548025F077FE0025284668BD054B1D6800F010
S21400549015FA0544304625F06CFEF4E70665002054
S2140054A0882F002038B54160044625F05EFE214670
S2140054B00546044825F00AFE2846BDE8384025F093
S2140054C058BE00BF802F0020054B1B68584300F5D0
S2140054D07420044B00F23F20B0FBF3F0704700BF8F
S2140054E0842F002040420F002DE9F04385B0EFF3F3
S2140054F0108672B6AFF3008025F0BDFC002800F0E1
S2140055008980634D634F2B7823B10020FFF708FF97
S21400551000232B70FFF78EFE0446002800F08180E3
S214005520841EE4B2012C40F28380FFF783FE01283C
S214005530804604D9584B1B780BB926F0ECFA574C2A
S214005540DFF878912078404507D099F8003013B9F5
S2140055504146FFF779FE84F80080B8F1010F0FD9B5
S214005560DFF8348198F8003053B94D4B1B7823B9D7
S21400557026F0D3FA4B4B01221A70012388F800302C
S214005580207800F085F999F8003013B1464B1B7867
S2140055902370AFF3008006B962B6EFF3108672B6DA
S2140055A0424B1A7852B100221A703F4B20781B7873
S2140055B0984203D101212170FFF746FE384600F0DD
S2140055C0A3FA25F06DFC804600289CD1324F3B782C
S2140055D09BB189F80000DFF8CC9099F800301BB139
S2140055E026F09CFA89F80080002026F098FA002819
S2140055F044D000F025F900233B702B7823B100201F
S214005600FFF78EFE00232B7020780021FFF71CFE8C
S21400561000232370AFF3008006B962B605B0BDE87C
S214005620F0832B78002B80D0FFF77AFE2C707CE777
S21400563003A9002000F0ACFA044600287FF475AFFA
S2140056401B4B039A1B689A4205D80120FFF768FE99
S21400565001232B7069E7174BD3F8008000F02EF972
S214005660039940448842F0D20223CDE90043091A48
S214005670114A2346384626F058FA56E7012000F02D
S21400568007F906B962B6EFF3108672B6ACE700BF4C
S214005690116500205C2F00200D65002006650020A7
S2140056A01065002008650020126500200B650020AC
S2140056B07C2F0020882F0020FD5200000C65002063
S2140056C010B525F052FD054B00221C781A7025F007
S2140056D050FD00F0D1FB2043C0B210BD0A6500208B
S2140056E073B5104E33788342044611D000238DF8EC
S2140056F0043078B101A88DF805300B4DFCF7D0FCCE
S2140057001E204CB1FFF7E0FE2B68181A2860347094
S21400571002B070BD0223EDE7FFF7D6FE2B681844F3
S214005720F4E700BF36160020982F002073B52D4CE6
S214005730002501A8636A636A8DF80450FCF7BEFD75
S2140057402846FFF7CDFFD4F8903003F00403AB42B1
S214005750254B14BF01222A461A70D4F89030234CE9
S214005760C3F30033237005D04FF41670FFF7ACFE7A
S2140057701F4B186023781F4DEBB11120FCF778F80B
S214005780184BD3F80021C2F3042202FB000292B1A8
S2140057905C6C194EC4F30B44002301341946501EAA
S2140057A004EB8404E4FB060125F058F8FFF78CFEB2
S2140057B02B6818442860114B1B680120C3F3032391
S2140057C09840C0F1010000EB80006430FFF77CFEDB
S2140057D02B681844034B2860D3F89020084B1A60B7
S2140057E002B070BD00400E40156500201365002015
S2140057F0942F0020982F002040420F0000200440E5
S2140058008C2F002008B50B4B1B7893B1022000F0BC
S214005810E5FB70B100F0EEF958B10022012102203C
S214005820FCF798F926F0C1F9034B1860034B0122E8
S2140058301A7008BD15650020902F00201465002002
S21400584038B50E4C0E4D23782BB92B781BB126F0AD
S214005850ACF90C4B186025F073FD2B786BB10A4A37
S214005860D2F890301B07FBD526F09FF9054B1B6836
S214005870C01A064B18600023237038BD146500203C
S21400588015650020902F002000400E40942F002029
S21400589002280AD003280BD001280CD1064A136927
S2140058A023F00403136130BF70470020FCF70ABCE6
S2140058B00020FCF73FBC704700ED00E0044B1B687F
