:10000000A03F0020DD850100F9740000FD740000B0
:10001000A70A02020002000004180FAC80677501F5
:1000200000000000000000000000000000000000D0
:100030000000000068FA020000000000000000005C
:100040000000000000000000FFFFFFFFFFFFFFFFB8
:10005000FFFFFFFFFFFFFFFFFFFFFFFFFFFFFFFFB0
:1000600000700F000000000000000000FFFFFFFF15
:10007000FFFFFFFF01000000000000000000000083
:100080000000000000000000E4600020E4600020A8
:10009000A03F0020FC2A030050F902004036002057
:0C00A000013600200000100000000000ED
:10020000A03F0020DD850100F9740000FD740000AE
:10021000397E00000175000009750000DB850100D2
:10022000DB850100DB850100DB850100DB8501004A
:100230000D750000DB850100DB850100DB85010019
:10024000C51B0000592C01001D79000070760000CC
:10025000D1230100C52C0100652C01007D2C01007B
:100260005D2C0100E1110000B5120000E931000031
:10027000BD8C00007076000070760000390400002C
:100280007076000070760000D912000070760000D1
:1002900070760000707600007076000070760000C6
:1002A00070760000707600007076000070760000B6
:1002B000C92C0100612C010085190000092D0100E5
:1002C0007076000055120100707600007076000014
:1002D0007076000070760000707600007076000086
:1002E0007076000070760000707600007076000076
:1002F0007076000070760000707600007076000066
:0C0300007076000070760000DB850100C4
:10030C00F8B500BFF8BC08BC9E467047F8B500BFF6
:10031C00F8BC08BC9E46704710B5054C237833B921
:10032C00044B13B10448AFF300800123237010BDBC
:10033C000C450020000000008825030008B5034B85
:10034C001BB103490348AFF3008008BD0000000057
:10035C001045002088250300154B002B08BF134BBC
:10036C009D46A3F5803A00218B460F461348144A4C
:10037C00121A2FF0CCFA0F4B002B00D098470E4BD3
:10038C00002B00D098470020002104000D000D48E0
:10039C00002802D00C48AFF300802FF089FA20001F
:1003AC0029000AF0B3FD2FF06FFA00BF000008001F
:1003BC00A03F002000000000000000000C450020C1
:1003CC00E4600020000000000000000070B5134C39
:1003DC008A00A31822449B781D09062D98BF104E45
:1003EC0003F00F0394BF755DFF25062B05719ABFB3
:1003FC000C4DEB5CFF234371FF3B18BF0123837152
:10040C00D37014F82130084C437053788370014634
:10041C00204602F059FF0123A36070BD284500203F
:10042C0057F9020050F90200002000407FB5224924
:10043C0022480022FF23CDE901228DF809300378F0
:10044C004C6C8D6B03922C40E407DBB228D5022B4D
:10045C0026D88C6C1A4901EB8301A5B2CE781949C8
:10046C0006B326041ED521F813201749012202FADF
:10047C0003F30A781343154A0B701378CBB100239E
:10048C001478DC40E407D9B20FD501701078012440
:10049C0004FA03F34340DBB201A81370FFF796FF95
:1004AC0004B070BD21F81350DFE70133032BE7D103
:1004BC00F6E703230370F3E70020004034450020E7
:1004CC0028450020384500203645002035450020C1
:1004DC0000207047002814BF022000207047012024
:1004EC00704701207047012814BF0220002070477C
:1004FC00012070472DE9F84F184E80460D461446E2
:10050C00994606F1010A0DB9BDE8F88F102D4FF090
:10051C000D02494650462F4628BF102707F0A4F875
:10052C00012333700D48F4730023B373013426F0A8
:10053C0055FE0B495FFA87FBE4B2424612F8013BC9
:10054C0011F8010F434002F8013CA2EB0803DBB2A7
:10055C005B45F3D3ED1BADB29046D4E7424500208A
:10056C00414500202DE9F04F374D85B01746BDF8B9
:10057C003880019003930D220F9B02930E46014687
:10058C00681C07F071F849232B7028464FEA182392
:10059C00AB7385F80F8026F021FE2B7883EA1723A6
:1005AC002B706B784FF002097B406B704C46AA465F
:1005BC004FF0000B21E0C4F1100CA7EB0B031FFA5A
:1005CC008CFC9BB2634528BF63463046A11B00EBF5
:1005DC00010C5FFA8CF2A0EB060C1FFA8CFC9C450C
:1005EC001BD31C44E4B29B44102C1E441FFA8BFBFF
:1005FC0003D1284626F0F2FD0024BB45DBD314B111
:10060C00504626F0EBFDB9F1010F4FF00004039EAC
:10061C0047460BD04FF00109CAE710F801CB1AF886
:10062C0002E08CEA0E0C0AF802C0D0E702980649E8
:10063C00042207F019F8019B02982246042105B008
:10064C00BDE8F04FFFF756BF42450020F7B5099FB4
:10065C00BDF82040CDE9004706461D46FFF782FF56
:10066C002CB13346012221462846FFF743FF0020D8
:10067C0003B0F0BD2DE9F743BDF828700F4C1E46B2
:10068C000546884691460346394630460122FFF717
:10069C0031FF33464A4641462846CDE90074FFF700
:1006AC0061FF042221460B9807F041F8002814BF83
:1006BC007E20002003B0BDE8F08300BF3E45002043
:1006CC002DE9F3410A4F0C46991815461E468046F3
:1006DC0021443846042206F0C7FFCDE900676319B0
:1006EC002A4621464046FFF7C5FF02B0BDE8F0811F
:1006FC0052450020002070470120704701207047B0
:10070C000020704701207047002070470020704780
:10071C0001207047002070470120704770477047D8
:10072C00002814BF022000207047002070470000F2
:10073C0010B5104C1049A161032321660F494FF4E9
:10074C008062C4E904330E4BE361C4E9191200233F
:10075C000C49A362E01D6362E3622367E36663678F
:10076C0022622FF0DCF8084920462FF0D8F820231D
:10077C00A37110BDF05900205EF90200564500200F
:10078C005649002067F902006BF902002DE9F84F79
:10079C001F4B16461A7881468A4698460AB9FFF7C7
:1007AC00C7FF182707FB09873D6FD7F86CB05D456D
:1007BC002BD9BC6E796E641BB44228BF34462944D5
:1007CC00504622462FF098F8BB6E2544A244361BA7
:1007DC00AB4208BF0025ABEB050B5E4528BF5E4660
:1007EC0056B1182303FB09833246596E50462944EF
:1007FC002FF082F83444354424B1182303FB0988C4
:10080C00C8F870502046BDE8F88F0024E3E700BF1D
:10081C00F059002010B50B46EFF311844FF0200176
:10082C0081F311881946FFF7B1FF84F3118810BDCD
:10083C002DE9F84F144D9B462B78814688469246FD
:10084C000BB9FFF775FFEFF3118C4FF0200181F31B
:10085C0011886F690020182303FB0054666E2EB1BB
:10086C0001308742F8DC4FF0FF3009E08742FADDB7
:10087C00C4E91898C4F868A02667E666C4F874B092
:10088C008CF31188BDE8F88FF0590020FFF750BFAA
:10089C00012270B51146042003F05EF81A4B1B4D73
:1008AC001A681B4842F001021A60DA684FF0604483
:1008BC0042F08072DA60174BC4F8B03F0026022376
:1008CC00C4F8006EC4F8806EC5F8F03002F040FF3A
:1008DC0000F5D520104B114A00F2FC40B0FBF3F0B0
:1008EC000F4B01382861C4F8406E1A600D4BC4F8E8
:1008FC00803E4FF48073C5F80433D4F8003E43F4C3
:10090C008073C4F8003E70BDF0ED00E0000004E020
:10091C0006000E0055CEACC5F8590D00FF03004083
:10092C00001000E00D00010010B50121104802F08C
:10093C00C3FD104B01241C60002003F07BFE2346FA
:10094C0004220221052003F0CDFE204612F010FDFA
:10095C00FFF79EFF12F012FDFFF798FF234640228F
:10096C0005490648FFF764FF054B1860C00F10BD22
:10097C0000350A0010881442564D002072F902000E
:10098C0008400020024B1868003018BF0120704747
:10099C00F0ED00E0054A4170D12303701378C37069
:1009AC00090A8170591C117004207047964D002063
:1009BC002DE9F74F354E33681C5C032C074663D981
:1009CC0017F036FFDFF8C88001900534E4B24FF61B
:1009DC00FF7A0025C146D8F800204AB1AC4207D9AD
:1009EC0017F026FF019BC01A80B2B0F5FA7F05D92B
:1009FC00601B18BF012003B0BDE8F08F002D3DD067
:100A0C00012D1DD13268D55D4FF0020B4FF06042C5
:100A1C00D2F8801ECB0711D51146D9F80C0040F046
:100A2C008070C9F80C00D1F8000E40F48070C1F849
:100A3C00000E086A0028F0D082F820505D46CAE704
:100A4C00E21E05F1010B95425FFA8BFB02D15FFAB6
:100A5C008AF5DBE7A21E954202D1CAF30725D5E73A
:100A6C00621E95420ED0A91EC9B238461DF048FE32
:100A7C005146054606F0D0FC8246C7E75B254FF091
:100A8C00010BC3E75D25C1E70120B4E78C400020D2
:100A9C00F0ED00E010B50B4B90B0402269461868A1
:100AAC00FFF7B8FE58B1C1B268461DF0B3FD04465D
:100ABC000146122018F0A8FC20461DF04FFC10B087
:100ACC0010BD00BF0840002070B5164685180AB945
:100ADC00304470BD01F00F030A2B34BF302437248F
:100AEC002344013A090905F8013DD2B2EFE70000B1
:100AFC00F0B5F9B100281CDA2D23B0F1004F1370BA
:100B0C0000D04042012115E0801B8642ECB205F179
:100B1C000105F9D904B927B14D1C303454540127BF
:100B2C00E9B20133092B09D1303050540131C8B22C
:100B3C00F0BD00210023DFF80CC01F465CF82360D9
:100B4C000025E2E784F902002DE9F04F95B04FF053
:100B5C00000B02AC81468A4617461D465E46A046EF
:100B6C003B7863B902ABE41AE4B22246194650460C
:100B7C00C847002840F093803444E0B290E0252B25
:100B8C0013D0BBF1000F14D12370013412AB9C4273
:100B9C006DD3A4EB0804E4B2224641465046C84744
:100BAC0000287CD12644F6B260E0BBF1000F00D1E6
:100BBC0001373B78632B00F092801BD8392B09D876
:100BCC00302B80F09E80002BCCD0252B51D04FF0B9
:100BDC00000BDBE7582B00F08B80622BF7D12B68D6
:100BEC0001936B6800934FF0000B009B9B4543D126
:100BFC000835ECE7702B1ED017D8642B01D06C2B6A
:100C0C00E5D16C2B05F1040B28686CD17B78752B26
:100C1C0014BF0121002101D0642B00D101372246E1
:100C2C00FFF766FF04445D46D1E7752BE9D0782BBE
:100C3C005ED0732BCBD1A4EB0804E4B2224602A9FC
:100C4C00504605F1040B2D68C84740BB2644F6B24C
:100C5C00C4B201302B5D002BFAD1224629465046F6
:100C6C00C847E0B926445D46F6B283464446013790
:100C7C0076E723700134AAE7019B204613F80B108A
:100C8C000222FFF721FF12AB984204460ED3A0EBD1
:100C9C000804E4B2224641465046C84718B1002029
:100CAC0015B0BDE8F08F2644F6B24446009B013BDC
:100CBC005B4582BF20232370013412AB9C420BD3C3
:100CCC00A4EB0804E4B2224641465046C84700282B
:100CDC00E5D12644F6B244460BF1010B85E72B68AF
:100CEC0023700435C6E7752B0CBF0021012196E754
:100CFC00204602222978FFF7E7FE05F1040B044693
:100D0C0091E77A7802F0DF02582A19D1322B07F1D9
:100D1C00010B09D129882F1D04222046FFF7D4FE90
:100D2C003D4604465F4652E7342B09D12F1D2D68F2
:100D3C000422290C2046FFF7C7FE0422A9B2EDE7D6
:100D4C004FF0010B22E700002DE9F04F9B46584B6A
:100D5C0085B01B78109F9DF844A0DDF850800646A6
:100D6C0089461546002B00F09280072A00F29180EC
:100D7C000E9B002B00F08D800F9B002B00F08980C8
:100D8C00129BB3F5006F00F38480012801D1002F72
:100D9C007FD0484B03EB05131B7B002B7BD0464CC1
:100DAC001022002168462EF0B2FD04EB45141022EF
:100DBC00B9F1000F5CD1494620462EF0A8FDA3786E
:100DCC0043F01003A370E37843F03003E370BAF1FF
:100DDC00000F03D1DBB243F00303E3703649129BDF
:100DEC00CDF800B06A01013B885A01EB020C63F3A9
:100DFC000E1088520E9BCCF808300F9BCCF80430A8
:100E0C009DF84C109CF80330012E61F383038CF891
:100E1C00033042D11323CCF80C309CE80F000CF1BA
:100E2C00100E8EE80F00DCF81C20CCF814706FF05C
:100E3C00030161F39F02B9F1010FCCF81C2004D11E
:100E4C000F9BCCF81830CCF804701A492A018B1877
:100E5C0041F802800027159A5A6028469F605E73FD
:100E6C002246694603F0CAFC384605B0BDE8F08F4F
:100E7C00002120462EF04BFD1023A3700323E370BA
:100E8C00BAF1000FAAD1DBB243F03003A5E70B484F
:100E9C00EBE70B48E9E70B48E7E7B8F1000FD4D1D3
:100EAC009CF8023068F304138CF80230CDE700BFD5
:100EBC00184F0020984D0020184E0020028000F0A2
:100ECC00018000F0078000F038B5104B1B78054608
:100EDC00BBB1C0B102F001FF0D49002301EB0312BD
:100EEC00147B3CB92B6001231373146002F0FBFEDE
:100EFC00204638BD0133082BF0D102F0F4FE054832
:100F0C00F7E70548F5E70548F3E700BF184F002061
:100F1C00984D0020048000F0028000F0018000F069
:100F2C0038B502F0DAFE0B4A05460023D1180C7BCB
:100F3C005CB91033802BF9D103F016FC064B284614
:100F4C001C7002F0D0FE204638BD284602F0CBFEC5
:100F5C000248F9E7984D0020184F0020058000F05A
:100F6C000D4B1B7810B5044693B1072812D802F02C
:100F7C00B4FE0A4B03EB04131A7B2AB100241C7336
:100F8C0002F0B1FE204610BD02F0ADFE0448FAE7B7
:100F9C000448F8E70448F6E7184F0020984D002065
:100FAC00068000F0028000F0018000F013B5164BB3
:100FBC001868019000238DF8043002F08EFE134B5C
:100FCC001C7824B102F08FFE114802B010BD012232
:100FDC001A7002F088FE0F4B1C731C7783F82C40A0
:100FEC0083F83C4083F84C4083F85C4083F86C40B9
:100FFC0083F87C4004230DEB03008DF8073003F0DD
:10100C00D3FB2046E1E700BFA8F90200184F0020EF
:10101C00038000F0984D002010B588B00E9C07940A
:10102C000D9C06949DF8304005940B9C04949DF8FF
:10103C00284003940024CDE9013400920B4602466B
:10104C0021462046FFF780FE08B010BD10B588B0D1
:10105C000E9C07940D9C06949DF8304005940B9CB7
:10106C0004949DF8284003940024CDE901340092A7
:10107C000B46024601212046FFF766FE08B010BD64
:10108C0008B50A4B1B785BB107280BD8084B03EB50
:10109C0000131B7B43B1002103F07CFB002008BD37
:1010AC000448FCE70448FAE70448F8E7184F002026
:1010BC00984D0020028000F0018000F0078000F0C5
:1010CC0008B50A4B1B785BB107280BD8084B03EB10
:1010DC0000131B7B43B1012103F05CFB002008BD16
:1010EC000448FCE70448FAE70448F8E7184F0020E6
:1010FC00984D0020028000F0018000F0078000F085
:10110C0008B50A4B1B7853B107280AD8084B03EBD8
:10111C0000131B7B3BB103F0C3FB002008BD05484B
:10112C00FCE70548FAE70548F8E700BF184F002030
:10113C00984D0020028000F0018000F0078000F044
:10114C000D4B1B7893B1072812D889B10B4B03EBCD
:10115C0000131B7B73B10A4B1A6A012303FA00F0CC
:10116C0010401ABF00200B7008707047054870477C
:10117C000548704705487047184F0020984D0020CF
:10118C0000200E40028000F0018000F0078000F08B
:10119C000B4B1B7810B50C4663B107280CD859B112
:1011AC00084B03EB00131B7B43B103F08FFB206058
:1011BC00002010BD0448FCE70448FAE70448F8E7AF
:1011CC00184F0020984D0020028000F0018000F0A4
:1011DC00078000F02DE9F843174E326EF36E12EAD9
:1011EC00030800D5FEE7154CDFF8549001270025C5
:1011FC0018EA070F16D02368B7669BB1A16862681E
:10120C000131A16028469847637B012B0AD148B96C
:10121C0009EB4513197B1A7F60F3410160F341021E
:10122C0019731A770135082D4FEA470704F110049A
:10123C00DED1BDE8F88300BF00200E40984D0020A1
:10124C00184E002070B5094E0446012504B970BD36
:10125C0094FAA4F0B0FA80F005FA00F324EA03043F
:10126C0056F82030002BF1D09847EFE71C4F0020A8
:10127C00054B4FF48022C3F880211A604FF4806232
:10128C00C3F880211A60704700E100E038B50446CD
:10129C000D4602F022FD034B43F82450BDE83840C4
:1012AC0002F021BD1C4F0020074BD3F82804D3F8C3
:1012BC001C24104020F42A5020F02A004004400C3A
:1012CC00C3F82404FFF7BEBF00A00040074BD3F8BF
:1012DC002804D3F81C24104020F4AA4020F0550018
:1012EC000004000CC3F82404FFF7ACBF00A00040BE
:1012FC00104A4161136830B51546ABB91060836074
:10130C0011E0091B9C6841611A467CB123465C695B
:10131C008C42F6D9002CF4D052B19060836013B19A
:10132C005A69511A596130BD0022F0E72346F4E79F
:10133C002860F3E7704F002010B500F0B9FA094BA4
:10134C00094A196831B11368C41A4B69A34203D313
:10135C001B1B4B61106003E0C01A002310604B6133
:10136C0010BD00BF704F0020604F0020074B1B6862
:10137C0010B55C69064B1B6802201C4400F0C6FAD1
:10138C002046BDE8104000F099BA00BF704F002015
:10139C00604F002070B59DF814500571002516465D
:1013AC008560049ABDF81850C58004460260C0E9F7
:1013BC0003360D4629B961610BB11146984796B1B8
:1013CC00354602F08AFC0646FFF7B6FF2946204652
:1013DC00FFF78EFF054B1B68A34201D1FFF7C6FF39
:1013EC00304602F080FC002070BD00BF704F002022
:1013FC000C4A136800217BB183420AD1836879B10E
:10140C008B6083681BB15A6941690A445A61002098
:10141C00704719469B68EEE70028EFD00220704712
:10142C001360EEE7704F002070B5124D02F055FCC2
:10143C002C780646CCB9104B1C60104B1C60104B22
:10144C001C8000F0F3F9012000F060FA00F0ACFA17
:10145C000C4B0246186040F2E73123460A482EF046
:10146C0093F80A4B186001232B70304602F03BFCBA
:10147C00002070BD5C4F0020704F0020604F00209A
:10148C00684F00206C4F002018FCFFFF644F0020B9
:10149C002DE9F0410546F8B102F01FFC0F4F06464E
:1014AC00FFF74AFF2846D7F80080FFF7A1FF044654
:1014BC0028B1304602F017FC2046BDE8F081A84563
:1014CC003B6803D123B1FFF751FFF2E7002BF0D1BA
:1014DC00022000F029FAECE72224EDE7704F0020FF
:1014EC00F0B50D4685B016461F46044680B1FFF791
:1014FC00CFFFBDF82C3002939DF828300022CDE9A7
:10150C000073294633462046FFF744FF05B0F0BD73
:10151C002220FBE738B50C46054698B191B1002363
:10152C000B7002F0DAFB084B1B6801210BB122781F
:10153C001AB102F0D8FB002038BD9D420CBF2170BF
:10154C009B68F3E72220F7E7704F0020F0B587B0D7
:10155C001F4600230D4616468DF817300446A0B1E1
:10156C000DF11701FFF7D6FF9DF817207AB9BDF8DA
:10157C00343002939DF830302946CDE90073204673
:10158C003346FFF707FF07B0F0BD2220FBE703202F
:10159C00F9E70000F8B50C460646C8B1C1B102F037
:1015AC009CFB0546FFF7C8FE73692360134B1B6851
:1015BC00B3420FD023B9284602F095FB03201CE060
:1015CC00596922689B680A442260F1E700230FE006
:1015DC00222012E00A4E276800F06AF93368C01A1C
:1015EC008742F3D900F064F93368C01A23681B1AD8
:1015FC002846236002F077FB0020F8BD704F0020D6
:10160C00604F002070B502F068FB064600F050F900
:10161C00094B1C8805460120A4B200F09DF918B1B5
:10162C0000F046F901340546304602F05CFB00221E
:10163C0042EA0500214670BD684F00200A4B1B682A
:10164C00834210B50C460CD3084B19684FF47A72D0
:10165C000023A0FB01012DF097FF0130206000203A
:10166C0010BD2120FCE700BF644F00206C4F002010
:10167C00104B1A684FF47A7310B5A0FB0301A2B19A
:10168C00531E134211D1B2FA82F2C2F11F02C2F1FF
:10169C002004A2F1200301FA04F420FA02F22243FE
:1016AC0021FA03F342EA030010BD00232DF06CFF76
:1016BC00FAE700BF6C4F002000000000F8B516469A
:1016CC001BA3D3E900238B4208BF82422AD3174BBA
:1016DC001A684FF47A73A0FB034503FB0155C2B1A2
:1016EC00531E13EA020014D1B2FA82F2C2F11F02A5
:1016FC00C2F12007A2F1200124FA02F305FA07F740
:10170C003B4325FA01F10B4325FA02F2C6E90032FC
:10171C00F8BD0023204629462DF036FFC6E900010E
:10172C000020F5E72120F3E7AFF300806C4F002099
:10173C00EFA7C64B37894100C2072DE9F84F044685
:10174C000BD5374A138801339BB21380FFF7F4FD96
:10175C00344B1B680BB1FFF709FEA3075DD5324E66
:10176C00DFF8C09000F0A4F835680746451B02F07E
:10177C00B4FA4FF0000A8046D9F80040002C48D04B
:10178C006369AB4209D95D1B65613760FFF7EEFDFC
:10179C004046BDE8F84F02F0A6BA376023462A4609
:1017AC005969914209D8187994F804C0844588BFC6
:1017BC001C469B68521A002BF2D1404602F093FA59
:1017CC00D4F81480C4F814A002F087FA834620469B
:1017DC00FFF70EFE584602F086FA23694BB102F071
:1017EC007CFA216983462046FFF782FD584602F0B9
:1017FC007AFAE36813B121682046984700F058F84C
:10180C004744ED1B0446054402F067FA2746804620
:10181C00B2E7022000F088F8BAE7BDE8F88F00BF05
:10182C00684F0020704F0020604F002010B51C4BFB
:10183C0086B05968186803AA03C2197A53F8090FBD
:10184C00117001909A8817489B79ADF808200121F6
:10185C008DF80A30002401F02FFE03A88DF80C40FF
:10186C008DF8104003F0C8F901A901208DF804404F
:10187C0003F0A2F90C4A536A23F4FF6323F0070325
:10188C00536240F2FF7313620120946003F0AEF9CF
:10189C00064B4FF08042C3F880211A6006B010BD91
:1018AC00ACF90200A00914000020044000E100E0A3
:1018BC00014B9868704700BF00200440114A9368A0
:1018CC00516D9269520704D4CA1A022A01D899425E
:1018DC000DD1C21A012A98BF981C0A4BB0F1FF3FD8
:1018EC0028BF013058655A6A42F004025A62064A0F
:1018FC00137833B103490B6D43F002030B650023DE
:10190C0013707047002004400C4000208207054AE9
:10191C0000F00103516A48BF43F004030B435362C8
:10192C00704700BF00200440830700F0010209D576
:10193C00074B0121197007490B6D23F0030342F08B
:10194C0004020B6503494B6A23EA02034B6270479E
:10195C000C40002000200440064B01289B6904D059
:10196C00022805D1C3F38000704703F001007047D3
:10197C00002070470020044010B502F0AEF9094A6F
:10198C0093690446590703F0010003F0070348BFAD
:10199C0040F002001362FFF7CFFE2046BDE8104076
:1019AC0002F0A1B900200440014801F0D1BE00BFF3
:1019BC00A0091400044B4FF04042DA621A6B22F07B
:1019CC0040421A63704700BF00300E402C48F0B5FF
:1019DC00002203682B4D114654592CB11E68AC18CB
:1019EC00002E36D1234601210832282AF4D101B128
:1019FC0003602549254E0B680022144695592DB1DC
:101A0C001F68B518002F2BD12B4601240832282A29
:101A1C00F4D104B10B6000681D4B026842B3DA6963
:101A2C00007922F0FF020243DA611A6B42F0804225
:101A3C0009681A630A68164BF2B1DA69097922F45B
:101A4C007F4242EA0122DA611A6B42F000421A63C9
:101A5C00F0BD1E792779B74284BF23460121C3E725
:101A6C001F7995F804C0BC453CBF2B460124CDE73B
:101A7C001A6B22F08042DBE71A6B22F00042E6E799
:101A8C00804F0020904F0020844F0020B84F002042
:101A9C0000300E4008B51B4B1B4801221A70002168
:101AAC0028222DF034FF2822002118482DF02FFF7A
:101ABC00174A184B13601849184A13600A684B6D83
:101ACC00C2F30742FF2A02D0DBB2FF2B01D19023D5
:101ADC001922134802EB820103EBD1010160DB00F8
:101AEC000521B3FBF1F313440E4A1360FFF762FFB9
:101AFC000D4B0122C3F880211A60FFF767FF00200D
:101B0C0008BD00BF744F0020904F0020B84F00203C
:101B1C00804F0020884F0020B081E00F844F0020C0
:101B2C00784F00207C4F002000E100E008490B6A50
:101B3C000A6ADBB2D2B29342F9D1064A0520DB0025
:101B4C00B3FBF0F31068C31A03F3070040B27047FD
:101B5C0000300E407C4F002070B5144C226B616A33
:101B6C000A4011D5124B1B681E6836B100251D604A
:101B7C005D60FFF7DBFF2946B0474FF00043E3629F
:101B8C00BDE87040FFF722BF5300F9D5094B1B6825
:101B9C001C6834B100221A605A60FFF7C7FF01219C
:101BAC00A047024B4FF08042DA62E9E700300E406A
:101BBC00844F0020804F0020FFF7CEBF38B141B1D9
:101BCC00013AB2F5006F044838BF00207047034853
:101BDC0070470148704700BF037000F0027000F0BE
:101BEC000D490E4A0B7810B54BB9C2E90033C2E966
:101BFC00023301240C7042F82300002010BD002396
:101C0C0052F823100029F6D08142F4D00133042B72
:101C1C00F6D10348F2E700BFF04F0020E04F002060
:101C2C00027000F038B504460D4602F056F8A28852
:101C3C0092B222B92A6002F056F8064838BD638881
:101C4C00142202FB034308332B6002F04CF80020F3
:101C5C00F4E700BF0B7000F038B504460D4602F0F7
:101C6C003CF8A3889BB223B92B6002F03CF80C48DB
:101C7C0038BD6388E188142202FB034308332B60D0
:101C8C0063885A1C92FBF1F301FB13239BB2638014
:101C9C00A388013B9BB2A38002F025F80020E7E764
:101CAC000B7000F07FB5012380F82C3090F83230A7
:101CBC0093B90C4A036803920022049002924A687A
:101CCC000192012200920A68016980681C33FFF7B7
:101CDC00BDF907B05DF804FB012BEAD0002380F8B6
:101CEC002C30F6E7412500007FB5012380F82D301C
:101CFC0090F8323083B9026834320D4B03930023D1
:101D0C00049002934B680193012300930B68C16804
:101D1C004068FFF781F907E0012B02D102682832F5
:101D2C00EBE7002380F82D3007B05DF804FB00BF13
:101D3C00411D0000F7B5906A01A91446FFF772FF28
:101D4C00144B984220D0019B00251D619D6001F031
:101D5C00C4FF019AD668074626B1D2E9002329466A
:101D6C002046B04701A9A06AFFF776FFA06A8388D6
:101D7C009BB263B101A9FFF755FF01992046FFF70C
:101D8C00B3FF384601F0AFFF012003B0F0BD84F87B
:101D9C002D30F6E70B7000F0427E30235343044A9B
:101DAC001A44437F03EBC2039B001868C0B2704710
:101DBC001CA0104213B51D4A002352F82340617F2A
:101DCC0081420ED00133042BF7D102B010BD002894
:101DDC00FBD19DF80730002BF7D06068FFF750F966
:101DEC00F3E794F83130022BEFD12046FFF7D4FF04
:101DFC00637D2075022BE8D194F82E3003F0FF029E
:101E0C00002BE2D102A9606801F8012DFFF798F9C7
:101E1C00237D1BB194F82F30002BD8D0002384F8ED
:101E2C002F306068FFF74CF9CFE700BFE04F002080
:101E3C0090F8323053B903680122DA601A69D0077E
:101E4C00FCD55A6F42F001025A677047012B0CD136
:101E5C0003685A6C9107FCD401225A609A68D20725
:101E6C00FCD55A6D42F001025A65704790F8323039
:101E7C003BB903685A6F22F001025A670222DA60FA
:101E8C007047012B09D103685A6C9207FCD45A6D28
:101E9C0022F001025A6502225A60704710B50446BE
:101EAC00FFF784F80021201DFFF70EF8014608B15A
:101EBC00044810BD04F10800FFF706F80028F8D01C
:101ECC00F6E700BF0E7000F0F8B5044617460D4655
:101EDC0001F003FFA388E2889A42064605D8002346
:101EEC003B6001F000FF1648F8BD2388142202FB6A
:101EFC000343083305F1100C2A4603CA62451860E7
:101F0C005960154603F10803F6D110681860238850
:101F1C00E188142202FB034308333B6023885A1CDC
:101F2C0092FBF1F301FB13239BB22380A3880133B3
:101F3C009BB23046A38001F0D6FE0020D4E700BF50
:101F4C000A7000F073B504460D46C07DE67E00298C
:101F5C0034D001230422314602F0C4FB01230222B7
:101F6C00217F207E02F0BEFB94F83130022B16D17B
:101F7C0000230122617F607E02F0B4FB0023042267
:101F8C00A07EA17F02F0AEFB0123627F607E0193F5
:101F9C000093114602F05AFB002002B070BD032BD7
:101FAC00FAD100230122617F607E02F09BFB0023AB
:101FBC000422A17FA07E02F095FBEDE70B460A46BA
:101FCC00314602F08FFB2B462A46217F207E02F001
:101FDC0089FB94F83130022B10D12B462A46617FB5
:101FEC00607E02F07FFB2B462A46A07EA17F02F08A
:101FFC0079FB627F607E01950123C9E7032BCBD16E
:10200C002B462A46617F607E02F06CFB2B462A46EB
:10201C00CFE790F8323013B9036818697047012B79
:10202C001CD103689B6803F00200DA0748BF40F03C
:10203C000100590748BF40F008001A0748BF40F09C
:10204C002000D90648BF40F040009A0648BF40F037
:10205C0080005B0603D540F40050704700207047A9
:10206C002DE9F3410D460446002879D001F035FEE8
:10207C00012D06463BD1A36A9B889BB2002B3DD019
:10208C006068FFF73DF80023A06A84F82D30838840
:10209C009BB273B101A9FFF7C5FD01996068364F7A
:1020AC000831FFF775F8019B1F61A06A83889BB20A
:1020BC0053BB2046FFF7ADFF8304FAD5023D012D3B
:1020CC0010D8A068FFF71CF80023606A84F82C3045
:1020DC0083889BB23BBB94F83130032B02D0204653
:1020EC00FFF7C4FE304601F0FEFD002009E0022D92
:1020FC0038D1636A9B889BB2002BDFD101F0F3FDD2
:10210C001E4802B0BDE8F08101A9FFF7A5FD019BB7
:10211C00D3F80C80B8F1000FC7D09B680022394669
:10212C002046C047C1E76946FFF77CFD0099A068CF
:10213C00114F0831FFF72CF8009B1F61606A8388F0
:10214C009BB2002BC7D06946FFF786FD009BDD686C
:10215C00002DF3D09B68002239462046A847EDE7B6
:10216C000748CEE7032DA9D1A36A9B889BB2002B0D
:10217C0086D1636A80E700BF097000F0087000F038
:10218C00027000F0436A9888C0B270472DE9F341A1
:10219C000546406A84889846A4B200230E4617462A
:1021AC00CDE900333CB16946FFF73CFD01A904467B
:1021BC00A868FEF7EDFF009971B16CB94868019BF6
:1021CC00C01A3860C8F800300B6833602846FFF737
:1021DC0020FF02B0BDE8F0810021C8F80010396082
:1021EC003160F3E7836A9888C0B270472DE9F341F8
:1021FC000546806A84889846A4B200230E4617468A
:10220C00CDE900333CB16946FFF70CFD01A904464A
:10221C006868FEF7BDFF009971B16CB94868019B05
:10222C00C01A3860C8F800300B6833602846FFF7D6
:10223C00F0FE02B0BDE8F0810021C8F80010396052
:10224C003160F3E7007D70472DE9F04104460E46FE
:10225C001746FFF7B3FC804650BB092001F062FD26
:10226C000546A26A93889BB213B194F82E3013B32F
:10227C0094F8322022BB23681D6915F0020533D077
:10228C00012384F83030002A3FD13744BE42206805
:10229C0036D103699E06FCD555B994F83230002B23
:1022AC0042D123685A6F22F002025A670822DA6080
:1022BC004046BDE8F081002DD4D0FEF78BFFD0E76F
:1022CC00012A1BD123689D6815F00205D8D1596CE1
:1022DC008807FCD40421596099688907FCD5596D8D
:1022EC0041F002015965CBE70421D96019698907CE
:1022FC00FCD5596F41F002015967C1E70025BFE7D2
:10230C0016F8011B02F0FAFDC0E7012AD0D13744C0
:10231C00B742206803D183681907FCD5BCE716F8CF
:10232C00011B02F018FBF3E7012BC1D123685A6C97
:10233C009207FCD45A6D22F002025A6508225A60A8
:10234C00B6E7000010B50446B0B190F82E3033B9A2
:10235C0090F83130022B0AD06068FEF791FE94F8A9
:10236C002E300133DBB284F82E30002010BDFFF785
:10237C0013FD0028F3D1EFE70048F7E7027000F0F7
:10238C0010B50446D0B190F82E30CBB190F82E3069
:10239C00012B06D190F83130022B0AD06068FEF781
:1023AC008FFE94F82E30013BDBB284F82E300020E7
:1023BC0010BDFFF7F1FC0028F3D1EFE70148F7E778
:1023CC000148F5E7027000F0057000F037B590F8A1
:1023DC003150022D044618D1A37F407D01229A4032
:1023EC00A37E30215943134B0B4410B903F1806386
:1023FC0003E0012805D103F1C0631A60002003B08B
:10240C0030BD217D0029F6D1F0E7012DF6D1037DF9
:10241C0073B911238DF80730FFF794FF2A460DF19D
:10242C0007012046FFF710FF2046FFF7A9FFE5E75D
:10243C001323EFE70CA0004090F83130032B05D0AC
:10244C000229417518BF0175FFF7C0BF00487047DE
:10245C00057000F010B5044600283AD00321FFF7B0
:10246C00FFFD00212046FFF7E7FF00212046FFF784
:10247C0069FD94F8323003BB23680A22DA6000212C
:10248C00206A01F019F894F83130032B03D00021A5
:10249C00607FFEF7FBFE6068FEF762FDA068FEF74A
:1024AC005FFDFEF73DFD636A002018805880988020
:1024BC00A36A18805880988010BD012BDFD120684A
:1024CC0002F035FA23685A6C9207FCD40A225A603F
:1024DC00D5E70148F0E700BF027000F0F0B587B017
:1024EC0004461646FFF76AFB0546F0B9CDE901161E
:1024FC0004936A460E4B606A039601A90593FFF795
:10250C00E3FC054688B994F82C3073B92046FFF7E4
:10251C008FFC00992046FFF7C5FB94F83130032B54
:10252C0003D025752046FFF751FF284607B0F0BDB4
:10253C00017000F073B5506A01A91446FFF772FBE5
:10254C00334B98422FD094F83200019B002836D19F
:10255C002268116C11F4007128D02E491961986011
:10256C004FF40073936401F0B8FB0199CD680646F3
:10257C0035B14A688B682046D31A0A680969A8479E
:10258C0001A9606AFFF768FB606A8588ADB2002D0F
:10259C002FD001A9FFF746FB01992046FFF782FBDC
:1025AC00304601F0A0FB012002B070BD106CC505D7
:1025BC001BD51948186199604FF48073D2E7012834
:1025CC0013D12268D16A11F0800106D0114919612A
:1025DC000021996080235363C5E7D06A400604D577
:1025EC000D48186199604023F5E700221A619A6042
:1025FC00B9E7012323752046FFF7E8FE94F8313044
:10260C0084F82C50032BCBD02046FFF72FFCC7E7C8
:10261C000B7000F00D7000F00C7000F02DE9F04123
:10262C00094F04460D460FCF88B001AE0FC697E890
:10263C00070086E80700002C00F0C48445B9034E5F
:10264C00304608B0BDE8F081CCF90200037000F010
:10265C003822002120462DF05AF92046FFF7C0FA07
:10266C0006460028ECD12B7C84F83130CD4A2B68FF
:10267C002360934284F8320040F07F81CA4B23627E
:10268C00CA4BE3604FF440232361D5E906230026AF
:10269C00626216805680968084F82C60A3621E803D
:1026AC005E809E806B6803936B89ADF81430AB89A8
:1026BC00ADF81230AB7B8DF810300121EB7BBC48B0
:1026CC0084F82D6084F82F6005278DF816308DF86E
:1026DC00117000F0F1FE0121B64800F0EDFE012171
:1026EC00206A00F0E9FE01A928688DF8046002F068
:1026FC00C7FBD5F800C06A7ADCF878002B7A20F496
:10270C00F85020F01F00104340EA03200321CCF8BE
:10271C007800CCF874102068DFF888C2604540F06F
:10272C006281BB4240F27A81981F042840F2788182
:10273C00A3F10B00B84240F27581A3F111000628F9
:10274C0008D9A3F11801062940F26E811F2B14BF82
:10275C00FF213946042AE17540F26881511F042992
:10276C0040F26681A2F10A01052940F26381A2F1CF
:10277C001001062940F26081A2F11701072940F2ED
:10278C005D811F2A14BFFF2100212176002B58D018
:10279C00012B56D0022B54D0032B52D0042B50D0EB
:1027AC00052B4ED0062B00F05381072B00F05281E5
:1027BC00082B00F05181092B00F050810A2B00F0FE
:1027CC004F810B2B00F05A810C2B00F039810D2B13
:1027DC0000F038810E2B00F037810F2B00F0368182
:1027EC00102B00F03581112B00F02E81122B00F0F4
:1027FC002D81132B00F02C81142B00F02B81152B29
:10280C0000F02A81162B00F02981172B00F028816B
:10281C00182B00F02781192B00F026811A2B00F0C1
:10282C0025811B2B00F024811C2B00F023811D2BF8
:10283C0000F022811E2B00F021811F2B0CBF0723DF
:10284C00FF23E376002A00F0A983012A00F0A88375
:10285C00022A00F09183032A00F09083042A00F0EE
:10286C008F83052A00F08E83062A00F08D83072AB9
:10287C0000F08C83082A00F08B83092A00F08A83ED
:10288C000A2A00F06F830B2A00F06E830C2A00F0EA
:10289C006D830D2A00F06C830E2A00F06B830F2AD7
:1028AC0000F07083102A00F06383112A00F0628319
:1028BC00122A00F06783132A00F06683142A00F0B2
:1028CC006583152A00F06483162A00F06383172AA7
:1028DC0000F06283182A00F06183192A00F06083EB
:1028EC001A2A00F049831B2A00F048831C2A00F0A6
:1028FC0047831D2A00F036831E2A00F035831F2AD9
:10290C0014BFFF23002323776B7C6376AB7C637748
:10291C00EB7CA3762B7DA37701212046FFF712FBDE
:10292C00064600287FF48CAE01F0D7F92F7C032FDC
:10293C00804640F037832B682A8CDA675A6E42F057
:10294C0004025A665A6F42F030025A6728684FF0F8
:10295C00FF3383642B7C032B0CBF0521042102F075
:10296C0055FA2B684FF44062DA602046FFF796FA6E
:10297C000646404601F0B7F962E60F4A934206D18B
:10298C000E4B23620E4BE3604FF450237CE60D4A52
:10299C0093421DD10C4B23620C4BE3604FF460232C
:1029AC0072E600BF000001400042040001000C0070
:1029BC004041050000350A000004014000520400AB
:1029CC0001000D00000801400062040001000E002F
:1029DC00C54A93427FF433AEC44B2362C44BE360CD
:1029EC004FF4702350E6DFF80CC3604548D1052B3B
:1029FC0014D9981F042813D9A3F10B00052811D959
:102A0C00A3F1110006287FF6A5AEA3F11801062943
:102A1C000AD91F2B14BFFF2105219BE6314699E6ED
:102A2C00012197E6022195E6394693E60021ACE6B2
:102A3C000121AAE60221A8E60321A6E60521A4E6C7
:102A4C000723FEE60823FCE60923FAE60A23F8E648
:102A5C000B23F6E60C23F4E60D23F2E60E23F0E648
:102A6C000F23EEE60023ECE60123EAE60223E8E678
:102A7C000323E6E60423E4E60523E2E60623E0E688
:102A8C00DFF874C2604540F03981042B40F2F880C5
:102A9C00591F032940F2F680A3F10901042940F2E1
:102AAC00F380A3F10E010E2940F2F080A3F11D0179
:102ABC00012940F2ED801F2B14BFFF210A21032AAC
:102ACC00E17540F2E780111F032940F2E580A2F185
:102ADC000801042940F2E280A2F10D010E2940F216
:102AEC00DF80A2F11C01022940F2DC801F2A14BFF6
:102AFC00FF2100212176002B00F0DC80012B00F05F
:102B0C00DB80022B00F0DA80032B00F0D980042B41
:102B1C0000F0D880052B00F0E380062B00F0E2805B
:102B2C00072B00F0C180082B00F0C080092B00F0AF
:102B3C00C3800A2B00F0C2800B2B00F0C1800C2B41
:102B4C0000F0C0800D2B00F0BF800E2B00F0C88071
:102B5C000F2B00F0C780102B00F0A880112B00F079
:102B6C00A780122B00F0A680132B00F0A580142B4D
:102B7C0000F0A480152B00F0A380162B00F0A2808F
:102B8C00172B00F0A180182B00F0A080192B00F05F
:102B9C009F801A2B00F09E801B2B00F09D801C2B1D
:102BAC0000F09C801D2B00F09B801E2B00F09A8067
:102BBC001F2B0CBF0223FF23E376002A00F0D281E7
:102BCC00012A00F0D181022A00F0D081032A00F002
:102BDC00CF81042A00F0E081052A00F0DF81062A6B
:102BEC0000F0DE81072A00F0C781082A00F0BA81C4
:102BFC00092A00F0B9810A2A00F0B8810B2A00F0EA
:102C0C00B7810C2A00F0B6810D2A00F0C5810E2A7E
:102C1C0000F0C4810F2A00F0AF81102A00F0AE81C1
:102C2C00112A00F0AD81122A00F09C81132A00F0C9
:102C3C009B81142A00F09A81152A00F09981162A9A
:102C4C0000F09881172A00F09D81182A00F09C81D1
:102C5C00192A00F09B811A2A00F09A811B2A00F095
:102C6C0099811C2A00F098811D2A00F097811E2A58
:102C7C0000F096811F2A08BF052318BFFF2342E6E8
:102C8C0031461CE708211AE7012118E7394616E7F7
:102C9C000A2114E700212DE708212BE7012129E760
:102CAC00052127E70A2125E7022385E7032383E78C
:102CBC00042381E705237FE706237DE707237BE7D2
:102CCC00082379E7092377E70A2375E70B2373E7D2
:102CDC000C2371E70D236FE70E236DE70F236BE7D2
:102CEC00002369E7012367E7000C01400072040030
:102CFC0001000F000004014000080140B34EB04237
:102D0C007FF49DAC072B21D9A3F10801012940F2D6
:102D1C00EF80A3F10A01052940F2EC80A3F1100128
:102D2C00012940F2E980A3F11201052940F2E68065
:102D3C00A3F11801042940F2E380A3F11D0101293C
:102D4C0040F2E0801F2B14BFFF210A21062AE175F7
:102D5C0040F2DA80D11F012940F2D880A2F109019A
:102D6C00052940F2D580A2F10F01012940F2D28051
:102D7C00A2F11101052940F2CF80A2F1170104291B
:102D8C0040F2CC80A2F11C01022940F2C9801F2A1A
:102D9C0014BFFF2103212176002B00F0C780012BEB
:102DAC0000F0C680022B00F0C580032B00F0CC8015
:102DBC00042B00F0CB80052B00F0CA80062B00F012
:102DCC00C980072B00F0C880082B00F0B580092BB8
:102DDC0000F0B4800A2B00F0A5800B2B00F0A4802F
:102DEC000C2B00F0A3800D2B00F0A2800E2B00F01A
:102DFC00A1800F2B00F0A880102B00F0AB80112BC2
:102E0C0000F0AA80122B00F0A980132B00F0A880F0
:102E1C00142B00F09180152B00F09080162B00F0F5
:102E2C008F80172B00F08E80182B00F08D80192BC3
:102E3C0000F08C801A2B00F08B801B2B00F08A800A
:102E4C001C2B00F089801D2B00F088801E2B00F0BD
:102E5C0087801F2B0CBF0223FF23E376002A00F090
:102E6C008780012A00F08680022A00F08B80032ADA
:102E7C0000F08A80042A00F08980052A00F08880FE
:102E8C00062A00F08780072A00F08A80082A73D06F
:102E9C00092A67D00A2A67D00B2A67D00C2A67D078
:102EAC000D2A67D00E2A6DD00F2A71D0102A71D03E
:102EBC00112A71D0122A71D0132A71D0142A5BD026
:102ECC00152A5BD0162A5BD0172A5BD0182A5BD048
:102EDC00192A5BD01A2A5BD01B2A5BD01C2A5BD028
:102EEC001D2A5BD01E2A5BD01F2A08BF0823C4E60C
:102EFC0008212BE7012129E7092127E7022125E7F2
:102F0C00052123E70A2121E7032144E7082142E7B1
:102F1C00012140E709213EE702213CE705213AE780
:102F2C000A2138E7062398E7072396E7082394E756
:102F3C00092392E70A2390E702238EE703238CE709
:102F4C0004238AE7052388E70B2386E70C2384E711
:102F5C000D2382E70E2380E70F237EE700237CE717
:102F6C0001237AE70623CEE40723CCE40823CAE442
:102F7C000923C8E40A23C6E40323C4E40423C2E4FB
:102F8C000523C0E40B23BEE40C23BCE40D23BAE4FC
:102F9C000E23B8E40F23B6E40023B4E40123B2E417
:102FAC000223B0E4022F7FF4D1AC607F0849FEF716
:102FBC006DF9FEF75DF9A675267567752046FFF766
:102FCC0005FAC3E4034EFFF73BBB00BF000C014006
:102FDC00C11D0000027000F090F83120012A10B5DC
:102FEC00034610D102290ED0827D8A4201D10020E5
:102FFC0010BD997511B9FFF7C3F9F8E70129F6D19E
:10300C00FFF7A0F9F3E70148F2E700BF057000F005
:10301C00F0B587B004461646FEF7D0FD054600BB5A
:10302C00CDE9011604936A460F4BA06A039601A9D9
:10303C000593FEF749FF054698B994F82D3083B9EE
:10304C0000F04BFEA36A9B889BB2064633B10099F5
:10305C002046FEF749FE012384F83030304600F05C
:10306C0042FE284607B0F0BD017000F070B588B084
:10307C000D220021294C2A4E04A82CF048FC0025D6
:10308C000223012127488DF81010CDE90155039535
:10309C008DF80A3000F010FA294601AA204601F0FA
:1030AC004CFE4FF6FF73E3618DF81250354604A9C0
:1030BC00204601F0EFFD1C4800F04AFB9DF8123051
:1030CC00D8400133DBB20A2B30608DF8123002D8B5
:1030DC00164B9842EBD81648164C00F039FB1649A3
:1030EC00B1FBF0F12868154A0025E1FB00450023EF
:1030FC00204629462CF048FA114B084A1860114B0F
:10310C0000201870936923F0100393610E4B4FF459
:10311C000062C3F880211A6008B070BD00800140C5
:10312C00F44F0020000204004041050080841E0082
:10313C007000020020A1070000B0710B40420F008C
:10314C00F84F0020FC4F002000E100E01E4BF7B5CB
:10315C0019681E4C1E4A1F4E0025E0FB01452046F7
:10316C00294600232CF010FADFF86CC04FF6E85417
:10317C0000254FF6E75E4FF0FF378D4208BF8442C3
:10318C0011D380B260B1144A516A89B2536A9BB2AE
:10319C00ADF80630BDF806305B1A9BB29842F5D8F4
:1031AC00002003B0F0BDDCF8242092B2DCF824300F
:1031BC009BB2ADF80430BDF804309B1A9BB273453A
:1031CC00F4D980197941D8E7F44F002020A10700E9
:1031DC0040420F001802FFFF00800140044BDA68E8
:1031EC00D20604D510225A61024B01221A70704784
:1031FC0000800140FC4F00202D4B002A70B52D4D56
:10320C00446B08BF1D462C4B14BF10260026984259
:10321C003AD102293FD004D8B9B1012921D00023D9
:10322C002DE0062931D0812935D00329F7D1234B44
:10323C001A6819681B68120C1B0C03F0F00302F4DB
:10324C00FE421A43C1F3034318E01D490B680A6898
:10325C0003F4FE4302F00F021A430B6803F0F00371
:10326C000CE0174A1368116812681B0C120C02F060
:10327C00F00203F4FE431343C1F303421343B34080
:10328C002C400D4A2343536370BD0E4B1A681B68C8
:10329C0002F00F02E2E7094A13681168126803F49E
:1032AC00FE4301F00F010B4302F0F002E6E700BF12
:1032BC000080FFFFFFFF0080002000401482E00F21
:1032CC001082E00F1882E00F38B50C4602238360A1
:1032DC00002289780546FFF78FFF207961786279A3
:1032EC00030243EA016343EA0243E27843EAC2037E
:1032FC00E2790AB143F00053227A0AB143F0040395
:10330C00A2790AB143F00203627A0AB143F00103D5
:10331C00F328A27806D12AB903299CBF23F0706345
:10332C0043F0806351B20029ACBF43EA421343F02F
:10333C00E0032B616B69002923F4F21323F00703DC
:10334C00BCBF22F080021343227843EA4243E27A64
:10335C000AB143F480436B616B0103F18443A27A9D
:10336C009A60EB6FD5F88030EB6838BD0C4B984207
:10337C0010D90C4B984210D9022201230A490B6038
:10338C000A49D1F8003123F0807343EA0263C1F893
:10339C000031704700221346F0E70122FBE700BF23
:1033AC000048E8010090D0034000C84300400E40A4
:1033BC000E4B30B50E4C5B68C9B2002304EBC30254
:1033CC0015798D4203D154F8335085420BD2013319
:1033DC00052BF3D1032205494B6823F0407343EAD4
:1033EC0002634B6030BD5279F5E700BF00000E4020
:1033FC00F8F9020038B5074C41F67133256C23649B
:10340C0001F0F2FD0021FFF7D3FF0DB1002323647F
:10341C0038BD00BF00000E40044B1B685B0603D494
:10342C00034A1368002BFCD1704700BF3C300E40A0
:10343C00C800C64308B5FFF7EFFF024B5868C0F34E
:10344C00014008BD00300E40044BD3F84421D20794
:10345C0003D4D3F840211042FBD1704700400E40FA
:10346C000C4AD2F89030516A0B4B21F0300141F0EC
:10347C00100110B55162146BC0F3C31103310F2945
:10348C0003EA040328BF0F21034343EA01731363C8
:10349C0010BD00BF00400E4000F8FF0F38B5054CC2
:1034AC0041F67133256C2364FFF782FF0DB10023C5
:1034BC00236438BD00000E40C0F30322013A38B536
:1034CC000546092A13D8DFE802F023131212051659
:1034DC0019121C20104C0020C5F3043508B1FFF75D
:1034EC00B3FF04F1047405EBC404A400216038BDDF
:1034FC0000200A4CF0E70120094CEDE71020094CA4
:10350C00EAE74FF48030084CE6E70020074CE3E78D
:10351C000020074CE0E700BFB0400E40C0400E401A
:10352C00E0400E40E8400E40F0400E4050410E404E
:10353C0000400E40C0F30313013B092B2AD8DFE8EF
:10354C0003F0050B0F1929291F23374B274BD3F8F1
:10355C000001C0F304207047244BD3F81401F8E7A2
:10356C00224BD3F80001C0F30060431C01209840AB
:10357C00013870471D4BD3F80C01C0F3082070477D
:10358C001A4BD3F80801F8E7194B984204D0194BA1
:10359C00984207D000207047144BD3F8203103F029
:1035AC000F03E3E7114BD3F82031C3F30113DDE72D
:1035BC00114B98420CD003F5B01303F5805398428D
:1035CC00E8D10A4BD3F82801C0F30120031DCDE745
:1035DC00064BD3F82831E8E7084B9842DAD1034B75
:1035EC00D3F8300100F00300704700BF00400E40DC
:1035FC008006160080162E0090171A00A0091400E1
:10360C0008B5FFF797FF013008BD000000F00F0070
:10361C000138072848D8DFE800F0040F1947232D9C
:10362C004735244BD3F8943003F00703023B052BAA
:10363C003CD8214AD05C70471E4BD3F8803003F045
:10364C000703013B032B33D81C4AF3E7194BD3F880
:10365C00843003F00703013B032B29D8184AE9E710
:10366C00144BD3F8883003F00703013B032B1FD80E
:10367C00144ADFE70F4B1B6F13F0010F14BF092027
:10368C00072070470B4BD3F85C3103F03003202B31
:10369C0006D0302B06D0102B0CBF07200120704712
:1036AC0004207047082070470020704705207047A1
:1036BC000120704700400E40E8F90200EEF90200CC
:1036CC00F2F90200EEF9020008B50146FFF79EFF81
:1036DC001B4B994211D01B4B994212D01A4B994259
:1036EC0004D11A4BD3F8800000F0070001380328EE
:1036FC0024D8DFE800F00A0E1612144BD3F884001D
:10370C00F2E7124BD3F88800EEE7BDE8084001F071
:10371C00CFBCBDE8084001F0D1BCBDE8084001F0C9
:10372C00CABC01F065FC094BD3F80031C3F300634C
:10373C005A1C01239340B0FBF3F008BD0020FCE7BA
:10374C00030020000500240002001E0000400E4073
:10375C0000F47813B3F5B01F10B504467DD029D80A
:10376C00B3F5202F07D00AD8B3F5003F62D0B3F5DC
:10377C00802F54D05BB9BDE8104001F039BCB3F5D3
:10378C00602F00F0838004D8B3F5402F58D0002070
:10379C0010BDB3F5801F00F09080B3F5A01FF6D1DB
:1037AC004C48FFF791FF4C4BD3F8303103F0030337
:1037BC00D840EDE7B3F5101F66D011D8B3F5F01F64
:1037CC0046D0B3F5001F53D0B3F5D01FDFD143481B
:1037DC00FFF77AFF404BD3F82821C2F3011244E0E3
:1037EC00B3F5401F46D00BD8B3F5381FCFD13C48AA
:1037FC00FFF76AFF384BD3F82031C3F30113D7E737
:10380C00B3F5481F4BD0B3F5781FC0D101F0F0FBD6
:10381C0001462046FFF7F4FEB1FBF0F0B8E701F0EB
:10382C00E7FB2D4BD3F80C31C3F308230133B0FB6A
:10383C00F3F0ADE701F0DCFB274BD3F80831F3E7ED
:10384C0001F0D6FB244BD3F81431C3F30423EDE77A
:10385C002348BDE81040FFF737BF2148FFF734FF7E
:10386C001D4BD3F8202102F00F0201239340DEE719
:10387C001A48EEE71948FFF727FF174BD3F8283102
:10388C00C3F301231A1DF0E71248E2E71548FFF7CE
:10389C00BDFE072811D009287FF479AF6BE71248D9
:1038AC00FFF7B4FE072808D0082809D004287FF4B5
:1038BC006EAFBDE8104001F0D7BB0C4B186867E742
:1038CC0001F096FB044BD3F80031C3F3042303FB44
:1038DC0000005DE70500240000400E4003002000BE
:1038EC0002001E0006000E00B8003200104000203E
:1038FC000E4B5A6A12F0300F04D0202913D0302905
:10390C0000D011B94FF4400200E0094AD3F89010EE
:10391C0032EA0101FAD1520246BFD3F8A000C0F33B
:10392C008020012070474FF40002EFE700400E406A
:10393C00FF33E10702280AD129B1064B4FF480600E
:10394C00C3F8A800596612B10220FFF7D1BF0120BD
:10395C00704700BF00400E40F8B5042850D8DFE88F
:10396C0000F00A03116F74008026402406230725FB
:10397C00002951D048E04FF400764FF480740823AE
:10398C000925F5E7002944D0324C636A13F0300F57
:10399C0037D1314BDB6B636ADB0705D5636A23F0E8
:1039AC00300343F010036362042402230325294EE1
:1039BC0034662A4E33449B001F68002FFCD0FAB1AA
:1039CC003544AD002B68002BFCD0022818D1B9B1BE
:1039DC00204E716A11F0010118D001222021FFF74D
:1039EC00A9FFD6F89C70012200210220FFF7B4FF3A
:1039FC00C7F30A00FFF734FD34662B68002BFCD0AC
:103A0C00F8BD0424022303250021D0E7FFF770FF43
:103A1C00E7E70826022303250E4901200E6600FA6B
:103A2C0003F3D1F890001842FBD1002AE8D001230F
:103A3C00084A03FA05F5D2F890302B42FBD1DFE7A8
:103A4C00012402260023254692E720261024042375
:103A5C0005258DE700400E4000300E408004F2102A
:103A6C00112870B506460C4626D1042912D101F056
:103A7C00FBFA0546A8B10021284600F093FB06F09E
:103A8C000F06013E072E6FD8DFE806F023186A6E8A
:103A9C0068886E93052904D1614B1D68614B9D426A
:103AAC00E9D8023C0A2C5FD8DFE804F01E4E4047F0
:103ABC005E5E5E5E5E52B5000025E0E75A4D013C4D
:103ACC00092C51D8DFE804F068515850505F505021
:103ADC00504E023C0A2C47D8DFE804F00737293057
:103AEC0046464646463B3E00002500200424012263
:103AFC001146FFF731FFFFF77DFC0DB1FFF78CFC92
:103B0C004A4B5C6701F09EFA044601F071FAFFF72C
:103B1C002DFCFFF78FFC01462046FFF7BFFC1DBBB9
:103B2C0028460121BDE8704000F03CBB0025404810
:103B3C00FFF71CFC02200446D9E700253C48FFF7A0
:103B4C0015FC01240320D2E7002501200324CEE735
:103B5C00002503200524CAE70724CCE7354DAEE742
:103B6C00354DACE704232B6070BD012211460020BB
:103B7C00FFF7F2FE0223F6E7012211461046FFF78B
:103B8C00EBFE0123EFE701F033FAFFF7EFFB2B4BD2
:103B9C0001221A600323E6E70023E4E7072C04D094
:103BAC00092CE1D1214B012201E0204B00221A67A4
:103BBC00DAE7013C072CD7D801A353F824F000BF57
:103BCC001F3C0000753B0000753B0000113C0000E1
:103BDC00753B0000753B0000033C0000ED3B000012
:103BEC0003221249D1F85C3123F0300343EA02136B
:103BFC00C1F85C31B8E7012211460420FFF7ACFE96
:103C0C000122EEE7012211460220FFF7A5FE022257
:103C1C00E7E70022E5E7FFF7EDFB002507246FE758
:103C2C001C400020002D310180400E4000400E4011
:103C3C000148E80188400E4084400E400816C843F5
:103C4C0010B504461120FFF7E1FC012200210220EF
:103C5C00FFF782FE174A217C536A23F001030229E5
:103C6C0008BF43F001035362134B21781960637A48
:103C7C00A18843EAC123D362136BA07A217A03F0A3
:103C8C007F630343E08843EAC02343EAC113033153
:103C9C000F2928BF0F2143EA01731363A37B617BB8
:103CAC001B0143EA0133E17B0B43217B43EA0143D4
:103CBC00536310BD00400E40A004C843EFF31080C6
:103CCC0072B6704700B962B67047602383F31188EF
:103CDC007047002383F311887047EFF31180602342
:103CEC0083F31188704780F311887047EFF31083CA
:103CFC00DB0706D4EFF311805F2894BF002001206E
:103D0C0070470120704700004109054A00F01F036D
:103D1C0052F82100D840C04300F00100704700BFAA
:103D2C0000E100E010B50446EFF31083DB0733D459
:103D3C00FFF7EAFF00282ED1002CA7BF04F1604446
:103D4C0004F5614404F00F04144BACBF94F8002349
:103D5C001A5D5209EFF3118313B1B2EB531F1BD24F
:103D6C000F4C6368C3F30803ABB1103BDBB259B221
:103D7C000029B5BF03F00F0301F16043043B03F5C9
:103D8C006143B6BF1B1993F80003187E40098242A9
:103D9C0034BF0020012010BD0120FCE714ED00E031
:103DAC0000ED00E0034B186880F04000C0F3801079
:103DBC00704700BF3C300E4042EA032340F2011230
:103DCC0093422BD0B3F5817F08D2012B1DD030D379
:103DDC00B3F5807F31D0002213461CE040F2012263
:103DEC00934222D006D8B3F5007FF4D1174BD3F809
:103DFC0070310DE0B3F5407F23D040F20132934295
:103E0C00E9D1124BD3F878310BE0104BD3F8743165
:103E1C00C3F30722DBB203600A6070470B4BD3F885
:103E2C0074311A0EC3F30743F5E7084BD3F8783116
:103E3C00EEE7064BD3F86C31EAE7044BD3F86C3160
:103E4C00EFE7024BD3F87031EBE700BFB081E00F26
:103E5C0008B5FFF7A7FF18B1024A1368002BFCD175
:103E6C0008BD00BFC800C64308B5FFF79BFF80B173
:103E7C00FFF7EEFF074B19685A68C1F30121C2F333
:103E8C00014291421A688CBF42F0100222F01002DB
:103E9C001A6008BD00300E40064B1B68DB0608D5C7
:103EAC00054B1B69C3F30443082B02BF034B044AA5
:103EBC001A60704700300E4000400E401C4000203D
:103ECC00C0EA2101154B0228D3F8803113D0032806
:103EDC0014D0012814BFDBB2C3F307231B0323F454
:103EEC007042B1B9BAB90E49CA6E22F4704213438A
:103EFC00CB6601207047C3F30743EFE71B0EEDE7DA
:103F0C000749D1F8EC2022F470421343C1F8EC308D
:103F1C00EFE7002AF4D00020704700BFB081E00F1B
:103F2C0000300E4070B5FFF73DFF38B1234B1B78C6
:103F3C00C3F1020210239340214A13612149224C00
:103F4C00D1F8805145F60E03C1F88031236823F077
:103F5C00AA03DB05DB0D0B66FFF77AFF184B1B681A
:103F6C00D80605F0010515D5D1F84031DA01FBD49E
:103F7C00164B1B680B61164B197805290ED1154B86
:103F8C001E68FFF765FF0E4B59683046C1F30141BF
:103F9C00FFF784FA0E4B1978052902D01120FFF790
:103FAC005FFD2368DB075EBF064B02221A661DB15C
:103FBC00044B0022C3F8802170BD00BF11500020BB
:103FCC0000300E4000400E40005000200C500020ED
:103FDC000A5000201C40002010B50B4C0B4BD4F8A1
:103FEC0090201A601120FFF711FB094B1870FFF796
:103FFC002FFF084B084A5B68C3F301431370074B50
:10400C0022691A6010BD00BF00400E400050002015
:10401C000A50002000300E40115000200C5000209F
:10402C007047704710B5044608B1FFF7D5FFFFF78E
:10403C001BFF134A136943F004031361FFF7F0FFEE
:10404C00104B1B68DB0614D5FFF738FE2BF076FC03
:10405C00FFF738FEFFF7E5FF6CB1FFF763FF0A4A85
:10406C00136823F00043136044B9BDE8104000F01E
:10407C00E9BF30BFEEE7FFF70FFFF0E710BD00BF61
:10408C0000ED00E000300E404C310E4010B50446FF
:10409C0008B1FFF7A1FFFFF7E7FE1B4BD3F8802118
:1040AC0045F60E01D207C3F8801148BF00224FF429
:1040BC002071196648BFC3F88021144A136943F074
:1040CC0004031361FFF7ACFF114B1B68DB0614D51F
:1040DC00FFF7F4FD2BF032FCFFF7F4FDFFF7A1FF27
:1040EC006CB1FFF71FFF0B4A136823F000431360FA
:1040FC0044B9BDE8104000F0A5BF30BFEEE7FFF7B4
:10410C00CBFEF0E710BD00BF00400E4000ED00E01C
:10411C0000300E404C310E400A4B9A69996922F4DA
:10412C00403242F4003241F440314AF6E850986093
:10413C009A6199619A6199619A6199619A6199619F
:10414C009A61704700300E4070B504460E46FFF77A
:10415C0029FE10B3FFF77CFE104B5B68C3F30143E1
:10416C009C421AD00E4BD3F8003100F041FF022CC8
:10417C00054602D12146FFF791F9C4F10202102342
:10418C009340064A13610EB1FFF762FE2CB921462B
:10419C002846BDE87040FFF781B970BD00300E4075
:1041AC0000400E4038B502460D46FFF7FBFDB8B196
:1041BC0042B90C4BD3F8004100F01AFFC4F30422AF
:1041CC0002FB0002084B1B7829463BB1074B9A4275
:1041DC0004D80220BDE83840FFF7B6BF0020F9E74D
:1041EC0038BD00BF00400E4010500020002D3101A2
:1041FC000378134A002B437870B514BF04260026AD
:10420C00002B8378946914BF02250025002B0379B9
:10421C0024F03F0443EA0403C47814BF08210021AE
:10422C00012C08BF43F0010333432B430B43936131
:10423C001368417923F4403343EA0143136070BDA2
:10424C0000300E40224B4AF6E85210B5596B5A63B7
:10425C009A6FD407FCD41B6C13F003031EBF1D4ACA
:10426C0001241460834203D108B91A4B186010BDA5
:10427C00032B17D0B3B1164A1446936FDB07FCD44B
:10428C00136C23F0030303431364A36F13F00103B4
:10429C00FBD100300F4A18BF01200129106008BF64
:1042AC006363E4E7431E012BE5D8094B4FF400226E
:1042BC00DA629A6FD207FCD41A6C22F0030242F035
:1042CC0001021A64024A536A1C03FCD5D3E700BFEF
:1042DC0000300E40B40AC6432DE9F04F002389B0DC
:1042EC00CDE90233CDE90433CDE90633A0F5E16322
:1042FC00B3F5966F05460191934603D9002009B09A
:10430C00BDE8F08F4D4BB0F5E16F8CBF4FF0010A5B
:10431C004FF0000AD3F8683100F083801A0EC3F313
:10432C000743079204934FF496694FF4E164DFF866
:10433C001081D8F84C70C7F301773B46524605A95B
:10434C0002A8FFF739FDD8F8EC60C6F30126334616
:10435C00524606A903A8FFF72FFD0798049A2C1BB9
:10436C00811A6143B1FBF9F3D1182CBF012300234F
:10437C008842C3D3002BC1D1069A0398131A634306
:10438C00B3FBF9F310EB030A2CBF012300235245B6
:10439C00B4D3002BB2D1059B029A981A4443B4FBB8
:1043AC00F9F912EB09092CBF012000204B45A5D3CC
:1043BC000028A3D1BBF1000F0ED0D8F85C3023F449
:1043CC00FE4323F00203B5F5E16F43EA012318BF66
:1043DC0002200343C8F85C30019B63B300213846CC
:1043EC00FFF770FD002889D001213046FFF76AFDE8
:1043FC00002883D0124A536ED14538BFD14623F4DE
:10440C00FF73B9F1E70F23F0010328BF4FF0E70961
:10441C00B5F5E16F18BF43F0010343EA4903536656
:10442C006DE7C3F30722DBB2079204934FF41679BE
:10443C004FF496647BE7012061E700BFB081E00F89
:10444C0000300E40304B1A6FD96CC90702F00702CE
:10445C0042D5012A40D9132851D9143813288CBFBE
:10446C00102308232849013BCA6C180322F47F420D
:10447C0040EA03231343CB64244BCA6C1B88C2F35E
:10448C0003222833013202EB820003EB5303B3FB0C
:10449C00F0F3C86C013B072B20F0EE6028BF07231C
:1044AC0040F4801040EA0363CB64194BB3F900303D
:1044BC00002B10DB2833500800EB420203EB5303B4
:1044CC00B3FBF2F30A6D072B28BF072322F070020F
:1044DC0042EA03130B657047DB6CD90706D4012A3B
:1044EC0004D809280BD90A380928B8E7064BDB6C25
:1044FC0013F00103B6D0012A03D82728AFE7042311
:10450C00B0E70023AEE700BF00300E40065000209D
:10451C0008500020054A064B1B68136F23F0070355
:10452C001843044B10671888FFF78CBF00300E40FF
:10453C008009C64304500020364B022270B59A63A2
:10454C009B6B03F00F039342044602D000252846D0
:10455C0070BDC1888588B0F90C604A294ED9B1F577
:10456C00FA7F4DD340F6C313994294BF4FF00051DC
:10457C004FF040512748C36C23F0405323F0010304
:10458C00002EA8BF43F001030B43C364D0F8EC30FA
:10459C0043F44073C0F8EC301F4B1D80C36E43F0E6
:1045AC008073C3661D4B186800B10420FFF7B2FF7F
:1045BC001B4B218919801B4BB4F90C20A0881A8045
:1045CC00FFF740FFA37BF3B1012B20D00122114652
:1045DC006088FFF781FE05460028B7D00D4A607849
:1045EC00D36B43F48063D363FFF72CFEA37AA3F160
:1045FC002002534253410C4A1360A8E70021B9E74B
:10460C004FF08051B6E7034B084A9A65DEE7014B41
:10461C00074AFAE700300E40045000208009C643D8
:10462C0006500020085000209407C64377402057BE
:10463C00372110B7044AD2F8443423F0030318434B
:10464C00C2F84404704700BF00A00040072A70B5B0
:10465C0001F003014FF00F0523D896001A4CB5401A
:10466C00256004F10074B04020600320B04001FAD2
:10467C0006F61649086001F100710E6014491144E8
:10468C0089000B609DF81030C1F88030012303FACB
:10469C0002F2104BC3F824249DF81430C1F80033F7
:1046AC0070BDA2F10804A4000B4EA54035600B4D63
:1046BC00A04028600320A04001FA04F408490860D7
:1046CC0001F100710C60D9E700A4004408A4004477
:1046DC008020851000A0004004A4004404A40046DF
:1046EC000CA40044F0B54AB130261E4C01254643BB
:1046FC008D4034440BB304F1C06425603024444332
:10470C0004F18044072904F5204419D865688E000B
:10471C000F27B74025EA070502FA06F63543656010
:10472C0052B9012202FA01F1302250430D4A0244DF
:10473C00A3B102F1C0621160F0BD04F18064DCE74A
:10474C0001F18045083DA668AD000F27AF4026EA71
:10475C00070602FA05F53543A560E1E702F1806230
:10476C00E9E700BF0CA00040084B4FF40072C3F8FF
:10477C008020BFF34F8FBFF36F8F054B0021D9669D
:10478C004FF4AA401962FEF797BE00BF00E100E0AB
:10479C0000200E40034B03449B0081F00101196083
:1047AC00704700BFA001F11010B5044601214FF471
:1047BC00AA40FEF781FEB4F8013022785BBA9BB2B6
:1047CC0043EA02630B4A136000231362D362536300
:1047DC004FF00043D3664FF0FF339366064A4FF415
:1047EC000071C2F88011E3785B01DBB282F8093307
:1047FC00116010BD00200E4000E100E02DE9F041F9
:10480C00254D91F80BE091F80AC00F7B0C464FF048
:10481C003008C3B2012608FB00509E402368497B38
:10482C00C0F880304FEA0E5343EA0C4343EA475337
:10483C0022F00302C0F88810C0F88430C0F8982029
:10484C00AE66FFF74AFAEB6E3343EB66237A13B18D
:10485C006B6B33436B63637A13B1EB6A3343EB6279
:10486C0022792B6822B1D243120262F47F421340A8
:10487C0062790AB143EA0223A2790AB123EA02035C
:10488C00E27902B11343044A1360044B1E60D663F1
:10489C00BDE8F041FFF727BA00200E4028200E4457
:1048AC0010B5C0B201248440FFF717FA054AD36E45
:1048BC0023EA0403D366044B1C60BDE81040FFF7E9
:1048CC0012BA00BF00200E4020200E44F8B5C3B22F
:1048DC0001259D400446FFF700FA0A4B30221E6E5C
:1048EC009F6A02FB0434D4F88C40FFF7FCF93D427C
:1048FC0006D1C4F30A1008B9354200D10130F8BD15
:10490C000020FCE700200E40036CDB0702D4436C54
:10491C000B42FCD17047CB435B0003F00A0310B58C
:10492C0041EA03020221FFF7EFFF426010BD436C26
:10493C00002BFCD101220264EA22426040F2F9729F
:10494C000360C3600361436183634263C363436574
:10495C0083650364704710B502460C469368DB060A
:10496C00FCD540211046FFF7CFFF946210BD00002C
:10497C00054B5A685B68054B41F671321A649A68AC
:10498C0022F001029A60704700300E4000000E4089
:10499C00034B9A6822F001029A6000221A64704755
:1049AC0000000E40094A0A4BD969C90705D512B94E
:1049BC006FF002007047013AF6E7002AF8D00122A6
:1049CC001861DA60D86940F38000704780969800CF
:1049DC0000000E4070B509B9002070BD0E4A0023CE
:1049EC00082550F8234094610C4CD5600133D669EE
:1049FC00F60705D514B96FF00200EEE7013CF6E7B7
:104A0C00002CF8D0D469A40702D49942E9D1E3E789
:104A1C006FF00100E1E700BF00000E4080969800A7
:104A2C002DE9F8431C4B884641F671311D6C196415
:104A3C001A49074648684968996841F00101ADB2C6
:104A4C00996096084FF00009B14501D3002005E0AC
:104A5C0007EB89042046FFF7A5FF48B10E4B9A6877
:104A6C0022F001029A600DB100221A64BDE8F883AD
:104A7C00C4F30A04C4F50064A408A6EB09039C4221
:104A8C0028BF1C4621464046FFF7A4FF0028E5D16D
:104A9C00A14408EB8408D7E700000E4000300E401C
:104AAC00204B41F671311A6C10B519641E494C68D3
:104ABC004968996841F00101996001211861D96038
:104ACC00D9694C0792B209D5996821F00101996016
:104ADC000AB100221A644FF0FF301FE00221134C80
:104AEC00D9601946D869C00700D56CB9C8698B68FC
:104AFC0010F0020023F001038B6007D00AB10023F1
:104B0C000B646FF0010009E0013CEBE724B902B142
:104B1C000C646FF0020001E00AB1086410BD10468D
:104B2C00FCE700BF00000E4000300E40809698005D
:104B3C00FFF776BF10B590FAA0F2054C2368B2FAD5
:104B4C0082F223EA000091400143216010BD00BFB6
:104B5C0000500E40014B01229A60704700500E40ED
:104B6C00124BF0B55C68124D124E00231846376894
:104B7C00EA187F0751685A5908D4B2F5806F03D0F0
:104B8C000DD8B2F5007F01D141F48071144202D0EE
:104B9C00214208BF10430833482BE8D1F0BDB2F5D1
:104BAC00006FF1D0B2F5803FEDE700BF00500E4032
:104BBC0020FA0200E841E00F8B784A789B0143EA27
:104BCC0082030A781343CA7843EA02130A7943EA48
:104BDC00C2234A7943EA02338A79043043EA4243D6
:104BEC000001014A1350704700200440014B18602B
:104BFC00704700BF00008442427801790378002A94
:104C0C00827870B514BF04260026002AC27814BF1F
:104C1C0010250025002A42794FEA023242EA01228D
:104C2C0042EA0302837914BF20240024002BC379A9
:104C3C0042EA034343EA0603027A43EA050314BF3C
:104C4C004FF4004100212343002A14BF4FF40032DB
:104C5C0000220B431343014A136070BD0020044033
:104C6C000B4A536911699B0003F03C03C1F381119A
:104C7C000B438370136903F03F0343709369D2694C
:104C8C0003F0F003C2F3031213430370704700BF29
:104C9C00D0FF0FE02DE9F04F0C780CB902234360E4
:104CAC00002343624B78CA7891F802B08D7A91F860
:104CBC0008A091F8069091F80780002B4B7A4FEAE8
:104CCC00024214BF4FF0400E4FF0000E42EA0B624E
:104CDC00002B14BF8023002342EA0A02002DCD7A58
:104CEC0042EA892214BF4FF0200C4FF0000C42EA2C
:104CFC000822002D0D7B42EA0E0214BF102700275C
:104D0C001343002D0D79497943EA0C0314BF08268F
:104D1C0000263B43002D14BF4FF4005500253343B0
:104D2C00002914BF4FF0805100212B430B4303602B
:104D3C000CB101234360BDE8F08FF0B553781478C3
:104D4C001B0643EA846394792343947843EA04432F
:104D5C00D47843EA0433147943EA8423547943EA3C
:104D6C000423D479002C147A14BF4FF08047002709
:104D7C00002C547A14BF4FF000560026002C947A65
:104D8C00D27A43EA027343EA070314BF10250025C5
:104D9C003343002C01F1060114BF042400242B43DF
:104DAC00090123434350F0BD70B5054616461C4619
:104DBC0019B91448FEF7CCFC0146202C08D001D8B8
:104DCC00ECB170BD402C18D0602CFAD1042200E05C
:104DDC00082206FB02F35A0802EB4112B2FBF3F273
:104DEC00094B203A03EAC2022B6823F060032B60C4
:104DFC002B681C432C606A61E3E70622E9E710226A
:104E0C00E7E700BF40410500F8FF7F00CB435B00A4
:104E1C0003F00A03C360C1607047000040F6AA6348
:104E2C00C36041F20502002303604260104A8360B4
:104E3C004361C3648264036643678367C3670D4B36
:104E4C000D4A984209D0904207D003F5006398426E
:104E5C0003D003F58063984201D10023036500233E
:104E6C009042836502D0054A904200D1C3657047D9
:104E7C00F9FF01000000014000040140000C01405A
:104E8C0038B505460C46FFF7C9FF8B7C1BB1036890
:104E9C0043F080430360E37C1BB1237D43F080032C
:104EAC00AB65228A637B1343E28913436B60D4E9BD
:104EBC000112237B2846FFF777FF637D1BB12B681C
:104ECC0043F480332B60A37DE27D1B07120502F4B3
:104EDC00E00203F0E04313432B666B6F23F03003C7
:104EEC006B676A6F237E13436B672378EB6038BD67
:104EFC0003691B06FCD5C069C0B2704703695B0629
:104F0C00FCD5416370470368DB060FD447F231537D
:104F1C008268D20701D5013BFAD1036803F0010383
:104F2C008B421EBF00F104704001016070470368A2
:104F3C00D90707D583689A0704D48368DB07FCD4A8
:104F4C000123436070474B78CA78002B8B782DE98E
:104F5C00F04114BF4FF0020E4FF0000E002B14BFA7
:104F6C0004230023002A0A7991F807800C7814BFD7
:104F7C004FF0080C4FF0000C002A4A7914BF202780
:104F8C000027002A8A7914BF40260026002A0A7AB4
:104F9C004FEA022242EA083291F8098042EA0402FE
:104FAC00CC7A897A42EA084242EA016242EA0E026B
:104FBC0043EA020343EA0C0343EA070314BF102538
:104FCC0000253343002C14BF4FF0004400242B4326
:104FDC00234347F231528168C90701D5013AFAD10E
:104FEC000360BDE8F08100000048704700F0490202
:104FFC00104AD2F8943003F00703023B032B13D86A
:10500C00DFE803F00C14020E0B4B1B68D2F8000106
:10501C00C0F304200130B3FBF0F07047074BF4E70A
:10502C00074B1B685B08F1E7054BEEE74FF40043B9
:10503C00ECE700BF00400E4020400020184000204C
:10504C001C40002008B5FFF7D3FF054BD3F80831FF
:10505C00C3F308230133B0FBF3F0024B186008BD17
:10506C0000400E4014400020014B1868704700BFF0
:10507C0018400020054B1860054BD3F8943003F012
:10508C000703022B01D1FFF7DDBF7047184000204A
:10509C0000400E40044B054A9A60D3F8882042F435
:1050AC007002C3F88820704700ED00E00002000099
:1050BC004FF4004070474FF47A707047014B1868FA
:1050CC00704700BF2040002008B5064B1B689B6949
:1050DC00DB0205D5012803D840F2022013F060FB57
:1050EC00012008BD2808E10F064B1B689868C0F327
:1050FC000343C0F303621B0243EA0233C0B21843FA
:10510C00704700BF2808E10F70B50438C6B0FB2803
:10511C0001F25587DFE810F02C02530F530F530F99
:10512C003502530F530F530F530F530F530F530F8E
:10513C00DD03CB03530F530F950A3B044604940332
:10514C00A303530F8704530F530F9F044401F10221
:10515C001B031C01AE03530F530F5708530F530F70
:10516C00FF013E02EA0C5A0D090DF60CD70C360D58
:10517C00870D530F530F4F050A07A601F30588053A
:10518C003906D20666060703FC00B301E801530F8B
:10519C001A0423065B05530F530F530F530F530F72
:1051AC00530F530F530197017E01530F530F530F9E
:1051BC00D407B406530F530F530F530F530F530F02
:1051CC00530F530FC107AA0439075307BC04D1046A
:1051DC0039051F05530F08059007530F4909AB0AF2
:1051EC00C50AC409DA098F090D0B440A530F200BA9
:1051FC00910C0A0AEA0A610B550BAA099409440B93
:10520C00530FBC0189038E02530F530F7207F20424
:10521C00530F530FC105F90D960D180E300E0C0ED1
:10522C00240EBA0DD00DA20DE30DAE0D530F530F7E
:10523C00530F530F530F530F530F530F9E06530F10
:10524C00530F63045104530F0001530F530F3C0EC3
:10525C00530F760E380FB20EE80E0A0F9C0E530F3A
:10526C00720B940B530F530F530F530FA70768096F
:10527C00CD0E83097508CC0830090009530F530F64
:10528C00530F29045C08530F6808C3081D08EF0866
:10529C000E0CC402DB02E602530F530FC00B530F6C
:1052AC00F70B1E0C530F530F530F530F6B0A1209AE
:1052BC007504B902530F3001F408350829088F081A
:1052CC00B2080508110841084C087A0C960CB20C6F
:1052DC00A60C6A0C650C530F530F530F530F530F3F
:1052EC00FE0E530F590E530F1B0F2C0F890E620716
:1052FC00530F530F530FE3048507C90CBE08C003AB
:10530C00540377033F032603530F5E02F207530245
:10531C000124204646B070BD12AB01930AAB00933A
:10532C000CAA24ABBB49012007F0B0FBBDF84830F8
:10533C009DF828202499BDF8300021F019FC46AACC
:10534C00B54902F8EC0D002007F0A0FB0124E0E7C2
:10535C0024AB0CAAB149012007F098FB24999DF8C5
:10536C00300004F0C9FE46AAAB4902F8D00D00206B
:10537C0007F08CFB0124CCE70CAB24AAA849012034
:10538C0007F084FB9DF83010249818F06FFA46AAA9
:10539C00A14902F8D00D002007F078FB0124B8E7F2
:1053AC0024A807F049F924A81AF0F4FD46AA9A4952
:1053BC0002F8D00D002007F069FB0124A9E70CAA24
:1053CC009549012007F062FB24A99DF8300004F0F8
:1053DC0091FE46AA904902F8D00D002007F056FB2A
:1053EC0024A9082007F012F99DF8980007F0D6F8C8
:1053FC00BDF89A0007F0E2F89DF89C0007F0CEF893
:10540C009DF89D0007F0CAF89DF89E0007F0C6F8BD
:10541C0001247EE786230BAA7F498DF848300120B2
:10542C0007F034FB24A99DF82C0004F06CFE46AA6E
:10543C0012AB02F8E80D7B490093002024AB07F077
:10544C0025FB012465E724A822F00CF846AA724932
:10545C0002F8D00D002007F019FB24A807F0DFFAA2
:10546C00012456E724A821F0F9FF46AA24AB02F840
:10547C00D00D6D49002007F009FB012449E746AA2D
:10548C00012402F8884D6449002007F0FFFA40E738
:10549C000CAA6149012007F0F9FA24A99DF8300003
:1054AC0023F0BEFA46AA5C4902F8D00D002007F0A2
:1054BC00EDFABDF8900007F081F89DF8920007F026
:1054CC006DF89DF8930007F069F89DF8940007F0CB
:1054DC0065F89DF8950007F061F80DF1960108202C
:1054EC0007F094F8012414E746AB082203F8EC2DDE
:1054FC004E4924AA012007F0C9FA12A924A823F0C6
:10550C0039FE46AA12AB02F8E80D4449002007F018
:10551C00BDFA0124FDE624A912A804F0B1FD46AAA7
:10552C0012AB02F8E80D4049002007F0AFFA24A9AD
:10553C00082007F06BF8BDF8980007F03FF89DF8CD
:10554C009A0007F02BF89DF89B0007F027F89DF8C0
:10555C009C0007F023F8BDF89E0007F02FF89DF88B
:10556C00A00007F01BF8299807F03CF80124D0E6BE
:10557C0046AA012402F8884D2749002007F086FA34
:10558C00C7E646AA002002F8880D234907F07EFAE8
:10559C000124BEE612AC0823214624A88DF8303035
:1055AC0004F096FD46AA0CAB02F8EC0D20490194D0
:1055BC000093002024AB07F069FA0124A9E618F047
:1055CC005DFA46AA144902F8880D002007F05EFA2D
:1055DC0001249EE60CAA1049012007F057FA24A9D1
:1055EC009DF8300018F0FAF946AA0B4902F8D00DD4
:1055FC00002007F04BFA9DF8900006F0CFFF9DF8C5
:10560C00910006F0CBFF9DF8920006F0C7FF012435
:10561C007FE600BFA8FA0200FBFA0200ADFA020016
:10562C00CAFA0200A9040300EAFA0200AB1D030047
:10563C00B0FA02000CAABE49012007F027FA24A9EF
:10564C009DF8300022F08CF946AAB94902F8D00D29
:10565C00002007F01BFABDF8900006F0AFFFBDF874
:10566C00920006F0ABFF9DF8940006F097FF9DF8B2
:10567C00950006F093FF9DF8960006F08FFF9DF8BD
:10568C00970006F08BFF012443E604F09FFC46AA2A
:10569C00A74902F8880D002007F0F8F9012438E634
:1056AC0012AC0BAAA249012007F0F0F9224624A95A
:1056BC009DF82C0004F08CFC46AA24AB02F8E80DF3
:1056CC009C490094002007F0E1F9012421E604F044
:1056DC0083FC46AA964902F8880D002007F0D6F9FB
:1056EC00012416E604F076FC46AA914902F8880DCE
:1056FC00002007F0CBF901240BE60CAA8C49012001
:10570C0007F0C4F924A806F097FF24A99DF83000EF
:10571C001AF0ECFC46AA864902F8D00D002007F0DE
:10572C00B5F90124F5E50BAA8149012007F0AEF982
:10573C000CAA12AB8049012007F0A8F946AA012453
:10574C0002F8884D7A49002007F0A0F9E1E51CF039
:10575C0015F846AA764902F8880D002007F096F94C
:10576C000124D6E512AB00930BAA0CAB73490120B4
:10577C0007F08CF99DF848209DF830109DF82C000E
:10578C0025F050FC46AA6A4902F8880D002007F063
:10579C007DF90124BDE512AB0CAA6949012007F083
:1057AC0075F99DF948109DF8300025F039FC46AA92
:1057BC005F4902F8880D002007F068F90124A8E57C
:1057CC0012AB02930CAB01930BAB00930DF12602C1
:1057DC000AAB5C49012007F059F99DF848409DF946
:1057EC0030309DF82C209DF8281000949DF8260050
:1057FC0025F012FC46AA4E4902F8880D002007F04D
:10580C0045F9012485E512AA4949012007F03EF922
:10581C009DF8480025F002FC46AA454902F8880D7F
:10582C00002007F033F9012473E523F0EDF846AAC4
:10583C003F4902F8880D002007F028F9012468E59B
:10584C0024A806F079FF24A81AF0B8FC46AA384917
:10585C0002F8D00D002007F019F9012459E518F0D1
:10586C0085F846AA324902F8880D002007F00EF997
:10587C0001244EE512AA2E49012007F007F99DF8E4
:10588C00480019F0C5FF46AA294902F8880D0020E6
:10589C0007F0FCF801243CE529F0FFFA46AA24495C
:1058AC0002F8880D002007F0F1F8012431E512AA66
:1058BC001F49012007F0EAF89DF8480005F025F88B
:1058CC0046AA1B4902F8880D002007F0DFF80124D6
:1058DC001FE50AAB04930DF12603039309AB029366
:1058EC0024AB019312AB00930DF122020CAB1649C1
:1058FC00012007F0CBF89DF8284002949DF8264033
:10590C0001949DF82440BDF89030BDF84820BDF8B6
:10591C00301000949DF8220004F0F9FF46AA0449C7
:10592C0002F8EC0D002007F0B1F80124F1E400BFFF
:10593C00FBFA0200B4FA0200BEFA0200C5FA020039
:10594C00B8FA0200BBFA0200C1FA020024A807F060
:10595C0073F824A821F084FD46AAAA4902F8D00DB8
:10596C00002007F093F80124D3E412AAA5490120E2
:10597C0007F08CF89DF848001AF028F946AAA149BE
:10598C0002F8880D002007F081F80124C1E424AA54
:10599C009D49012007F07AF89C4BBDF890201A80A5
:1059AC000124B6E424AA9849012007F06FF8984B1B
:1059BC00BDF890201A800124ABE412AA9149012071
:1059CC0007F064F89DF848001AF0D4F846AA8D49FF
:1059DC0002F8880D002007F059F8012499E412AA66
:1059EC008C49012007F052F89DF9480018F032F864
:1059FC0046AA844902F8880D002007F047F80124D4
:105A0C0087E412AA7F49012007F040F89DF848006E
:105A1C0004F0DAFA46AA7B4902F8880D002007F058
:105A2C0035F8012475E40CAB00930BAA24AB7A492E
:105A3C00012007F02BF89DF8302024999DF82C00BC
:105A4C0017F0D8FB46AA6F4902F8D00D002007F0DA
:105A5C001DF801245DE417F09FFC46AA694902F881
:105A6C00880D002007F012F8012452E412AA6549AF
:105A7C00012007F00BF89DF8480020F02CFC46AAFA
:105A8C00604902F8880D002007F000F8012440E47A
:105A9C0008230CAA5B498DF84830012006F0F6FF6C
:105AAC0024A99DF8300021F0D5F912AB24AA5B494A
:105ABC00002006F0EBFF01242BE412AA514901202F
:105ACC0006F0E4FF9DF8480021F0DCF946AA4E49A7
:105ADC0022F8880D002006F0D9FF012419E424A82F
:105AEC001AF0D0FF46AA474902F8D00D002006F064
:105AFC00CDFF24A806F0E7FD01240AE446AB0822FA
:105B0C0003F8E82D454924AA012006F0BFFF24A87C
:105B1C0021F0A6FA46AA3B4902F8D00D002006F067
:105B2C00B5FF0124FFF7F5BB0CAA3649012006F09E
:105B3C00ADFF24A99DF8300004F074FA46AA31494F
:105B4C0002F8D00D002006F0A1FF24A806F0A8FD55
:105B5C000124FFF7DEBB082312AA2B498DF8303045
:105B6C00012006F093FF24A9BDF8480018F006F9AF
:105B7C0046AA0CAB02F8EC0D29490093002024AB8B
:105B8C0006F084FF0124FFF7C4BB46AB082203F8E0
:105B9C00E82D224924AA012006F078FF24A818F049
:105BAC00D1F846AA184922F8D00D002006F06EFF55
:105BBC000124FFF7AEBB1FF017F946AA114902F8F2
:105BCC00880D002006F062FF0124FFF7A2BB0CAB8E
:105BDC00009324AA0BAB1349012006F057FF9DF844
:105BEC0030209DF82C10BDF8900003F071FF46AAF0
:105BFC00044902F8D00D002006F048FF0124FFF7FD
:105C0C0088BB00BFFBFA0200B2FA02007A44002003
:105C1C0080440020F1040300C9FA0200AB1D03000C
