S02000006275696C642F72656C656173652F6E63702D756172742D68772E7333374F
S21400000000100020CD0A00006D4800007148000076
S214000010E7C50200754800007D480000E7C50200FD
S214000020E7C50200E7C50200E7C50200E7C5020013
S2140000308148000088530300E7C50200E7C50200B8
S214000040E7C5020059F000008D490000E7C5020030
S214000050A9E80000BD040300B904030079F000001D
S214000060B104030039110000E7C50200E7C502002D
S214000070419400003FF30200E7C50200E7C5020016
S214000080E7C50200E7C50200E7C50200E7C50200B3
S214000090E7C50200E7C50200E7C50200E7C50200A3
S2140000A0E7C50200E7C50200E7C50200E7C5020093
S2140000B0ADF00000B504030045650000E9F000005F
S2140000C0E7C50200E1140100E7C50200E7C502002B
S2140000D0E7C50200E7C50200E7C50200E7C5020063
S2140000E0E7C50200E7C50200E7C50200E7C5020053
S2140000F0E7C50200E7C50200E7C50200E7C5020043
S214000100E7C50200E7C50200E7C5020000000000E0
S2140001102DE9F04F2DED088B8DB009EE903ADDE914
S21400012020439DED1E7B0A93229B079209EE100A40
S214000130B0EE478AF0EE678A8A46069351EC170BB4
S21400014053EC172B09F0C4FD80B1D14B51EC180BC2
S2140001504FF0FF3209F0E4FD40B951EC180B4FF0B8
S214000160FF326FF4801309F0BDFD98B1069B229311
S2140001700A9B079ACDE9204319EE100A19EE903A29
S21400018051468DED1E8B0DB0BDEC088BBDE8F04FD3
S21400019000F0A2B951EC180B0022002309F0A2FDD2
S2140001A0002800F0458118EE903A18EE108A03F108
S2140001B00049069BC9F30A5013F48063A0F2FF308F
S2140001C008BF06240B9309F0B1FAA1A3D3E90023D4
S2140001D009F016FBA0A3D3E9002309F05BF9C9F3E5
S2140001E013050F4645F07F510646AA4B00224046AF
S2140001F041F4401109F04CF999A3D3E9002309F022
S214000200FFFA02460B463046394609F043F909F034
S21400021091FD834609F08AFA93A3D3E900230646A4
S2140002200F4609F0EDFA9C4B002209F033F909F06D
S21400023081FD8FA3D3E9002305463946304609F0F1
S214000240DFFA064628460F4609F070FA8AA3D3E975
S214000250002309F0D5FA02460B463046394609F027
S21400026017F902460B4606460F4609F0C9FA32460B
S21400027041EC1A0B3B463046394609F00BF9874BE2
S21400028041EC1B0B002251EC1A0B09F0E3FB844BEC
S214000290002209F0FFF802460B4651EC1A0B09F053
S2140002A0D9FB804B002209F0F5F802460B4651ECCC
S2140002B01A0B09F0CFFB324641EC1A0B3B460020E6
S2140002C04FF0804109F0E4F802460B4651EC1A0B59
S2140002D009F0E0F802460B4651EC1B0B09F0BAFB9E
S2140002E005F2FF35704B002209F0D4F800222B05EA
S2140002F009F086FA42464B4606460F4609F010FDC0
S214000300002840F09880CDE908670BF16303C72BFF
S214000310069B34BF04250525190522D558A3D3E925
S21400032000234046494609F0F1FC002800F0BE8054
S21400033055A3D3E900234046494609F0D3FC0028DC
S21400034000F0B480069B5C45C8BFA4EB0B0043F4EA
S21400035080634FF00005CCBF00F1FF340024069305
S214000360AB460A9B9D4238BF5E1B069B28BF0026F5
S21400037013F0020702D0002D18BF0026BBF1000FB5
S21400038007D040464946DDE9082309F063FB80466E
S214000390894651EC180B0022002309F0A3FC10B18B
S2140003A009F100439946069B079A029423F40063DA
S2140003B0CDE90363CDE9008919EE903A19EE100AEB
S2140003C0514600F089F875B3069B13F0200F00F134
S2140003D00106024619EE903A14BF452065205146A4
S2140003E019EE104AA0470523002205938BEAEB700E
S2140003F00A23CDE90232A0EBEB704FEADB73013D36
S2140004000193009019EE903A19EE100A04953246C0
S21400041051462EF0A9FE37B1079BC51A079B5819FF
S2140004200A9BAB424BD80DB0BDEC088BBDE8F08FF5
S21400043059EC188BBDE61A4B00223046394609F0B7
S21400044009FB0BF1FF3BCDE908015EE7AFF3008047
S214000450FB799F501344D33FB3C8608B288AC63FAE
S21400046061436F63A787D23F71A379094F930A4010
S2140004701655B5BBB16B0240EF39FAFE422EE63F89
S2140004802D431CEBE2361A3F0000000080842E410C
S214000490FFFFEF7F0000F83F0000E03F00002C4029
S2140004A000002440000018400000F03F002C3FF4FD
S2140004B058AF0B9B002B3FF454AF013C51E702466C
S2140004C019EE903A19EE104A51462020A047013501
S2140004D0A4E700BF000000002DE9F04F2DED088BCB
S2140004E08FB0DDE920AB09EE103ADDE9225308EEC5
S2140004F0100A08EE902A0F46049352465B46504672
S2140005005946249E09F0E4FBA0B9049B22930323DA
S2140005102193B94B2396209318EE902A19EE103AA1
S21400052018EE100A39460FB0BDEC088BBDE8F04F48
S2140005302EF052BD4FF0FF326FF4801350465946EE
S21400054009F0D0FB30B1049B229304232193239619
S214000550AA4BE0E7AA4B4FF0FF325046594609F047
S214000560DFFB70B1A74A0499239606F00403002B1C
S21400057008BF0322A44B1CBF13460422CDE9212149
S214000580C9E799A3D3E900235046594609F0C8FBAA
S21400059038B997A3D3E900235046594609F0A2FB81
S2140005A098B1049B2496CDE9225318EE902A19EEB2
S2140005B0103A18EE100A3946CDE920AB0FB0BDEC64
S2140005C0088BBDE8F04FFFF7A3BD0022002350467E
S2140005D0594609F087FB002800F081805B465246AA
S2140005E00020002108F054FF012382468B46059325
S2140005F016F4806F08BF062506ABA5F12002A946B3
S2140006003021B9F1090FA5EB090406D909F1FF3924
S2140006104A4503F8011BF4D120245946504609F0F8
S21400062089FB7A4B03EBC90393ED007B0546B0EEDE
S21400063047AAF0EE67AA09F079F802460B4650463C
S214000640594608F025FF53EC1A2B09F0D9F8024654
S2140006500B4643EC1B2B09F095FB804609F056F839
S21400066002460B4651EC1B0B08F012FF02460B46E7
S21400067043EC1B2B664B002209F052FB88B308F1B3
S2140006800108404609F042F802460B4651EC1A0BA8
S21400069009F032FB10B101354FF00008B9F1000F38
S2140006A050D1284609F042F802460B4650465946B5
S2140006B008F0EEFE564B00228046894609F012FBF3
S2140006C030B1534B00224046494609F029FB10B191
S2140006D0E80700D5013506AB23440A2259E0059009
S2140006E086E74B4B51EC1B0B002209F0FBFA002867
S2140006F0D4D1B8F1000F02D018F0010FCED008F117
S2140007000108CBE7B8FBF1F001FB10823032B8F1FC
S214000710090F03F8012B09F1FF3904F1010428D869
S214000720A14406AA3021202C11D04C4504F1010327
S21400073021D104F138020DEB02042E2204F8202CFD
S2140007401C46C8E706AB23440A21202CDAD106F063
S2140007500303012B06AB39D1049A002A36D0059A3A
S21400076012B916F00C0F02D0049A013A0492302205
S21400077014E08046E9E7A1541C46D4E795FBF2F165
S21400078002FB1155303503F8015B01340D46002994
S214000790DDD0202CF2D1DAE71A5501340499A142B3
S2140007A014D9202CF8D1049A0093CDE9014219EE11
S2140007B0103A18EE902A18EE100A039639462EF0D4
S2140007C00BFC0FB0BDEC088BBDE8F08F202CEAD0F8
S2140007D0059AFAB104F138026A442D2102F8201C69
S2140007E00134E0E7AFF300800000000065CDCD41A6
S2140007F00000000065CDCDC1615C0300655C0300B0
S214000800FFFFEF7F5C5C0300585C0300705C030036
S2140008100000E03F710704D504F138026A442B213A
S214000820DCE73207BFD504F138026A442021D5E759
S21400083070B58EB02C22002103A82EF0E4FE6423AF
S2140008404FF00232CDE9052308930B238DF83430A0
S214000850514B1B880121D8078DF8101000F19680A7
S214000860084618F079FA4D4B4D494E484E4C0A2230
S2140008701A704FF42873ADF8123010F089F8206023
S21400088020B94A4840F22A2103F0F0FE20680521EC
S21400089030F07CF820B1454840F2352103F0E6FE02
S2140008A0206808F0DFFD424B206819682FF0C4FB73
S2140008B019F034F90C256843099019F02FF96843AC
S2140008C007900DEB050120680BF016FA20B13748AB
S2140008D040F24A2103F0CAFE3649206800222FF073
S2140008E035FC20B131484FF4137103F0BFFE324E91
S2140008F0324D96F9000040F203532B807F284FF0CC
S2140009000503AB7001D118F087FB3378EB7019F054
S21400091005F900EB80008000A88019F0FFF800239E
S214000920C000E880AB604FF0FF3019A3D3E9002386
S2140009304FF0FF3118F0E8FB2149206830F0E8F866
S214000940206802A92FF0E1FB20B1184840F27F2171
S21400095003F08CFE042220680DEB02012FF022FB30
S214000960042804D0114840F2822103F07FFE01A93A
S214000970012031F084FA03F0BDFF012019F080FB5E
S2140009802CF08CF819F0B4FB18F06CFA0EB070BDB1
S2140009900A0020FF4203000032640020006A0020A4
S2140009A0858D0100D812002058580020877A030051
S2140009B000110020076A00209616002044580020E8
S2140009C0258F010010B5054C237833B9044B13B1BD
S2140009D00448AFF300800123237010BDF8250020E3
S2140009E0000000006C80030008B5034B1BB10349F0
S2140009F00348AFF3008008BD00000000FC2500207F
S214000A006C800300A3F5803A704700BF174B002B9D
S214000A1008BF134B9D46FFF7F5FF00218B460F4698
S214000A201348144A121A2EF0EEFD0E4B002B00D07F
S214000A3098470D4B002B00D098470020002104005B
S214000A400D000D48002802D00C48AFF3008009F0D6
S214000A504FFB200029002EF096FD09F035FB00BF65
S214000A600000080000000000000000000010002049
S214000A70A8200020786A0020000000000000000087
S214000A800F4BD3F82838A3F17E62A2F58432B2F574
S214000A90104F10B50ED219680A4A91420AD10A4C74
S214000AA0227812F0FD0F08D1DB69984708B90123B8
S214000AB0237010BD4FF48170FBE70020F9E700BFFC
S214000AC00000E10F07B0CD5ED664002008B500F048
S214000AD083F8124B12498B4212D3124B1249002054
S214000AE08B4218D3FFF792FF186850F822405868D8
S214000AF040F82240013298688242F5D30C33EAE788
S214000B000022F8E71C6844F8220001325C68A24222
S214000B10F8D30833E4E70022F8E700BF7480030048
S214000B2080800300808003008080030000487047B8
S214000B3000F04902104AD2F8943003F00703023B53
S214000B40032B13D8DFE803F00C14020E0B4B1B68C4
S214000B50D2F80001C0F304200130B3FBF0F0704778
S214000B60074BF4E7074B1B685B08F1E7054BEEE71E
S214000B704FF40043ECE700BF00400E40A4100020F6
S214000B809C100020A010002008B5FFF7D3FF054BEF
S214000B90D3F80831C3F308230133B0FBF3F0024B5C
S214000BA0186008BD00400E4098100020014B1868E1
S214000BB0704700BF9C100020054B1860054BD3F80B
S214000BC0943003F00703022B01D1FFF7DDBF704717
S214000BD09C10002000400E40044B054A9A60D3F853
S214000BE0882042F47002C3F88820704700ED00E0C9
S214000BF000000000014B1868704700BFA4100020DA
S214000C0008B52948012100F0B9FB0123042202217E
S214000C10052001F07BFC002001F06CFC234B012238
S214000C20C3F810281146042000F076FE204800F095
S214000C30EBFC204BD3F8F02042F00102C3F8F02082
S214000C40D3F8FC2042F08072C3F8FC20A3F55D4385
S214000C50194A1A6000F5D520184B00F2FC40B0FB8C
S214000C60F3F0174B013802221861C3F8F0204FF456
S214000C708072C3F804234FF06043124AC3F8B02FC3
S214000C80114AC3F8802ED3F8002E42F48072C3F8BF
S214000C90002EFF2283F82020D3F8002E22F4807244
S214000CA0C3F8002E002008BD00350A00008014425C
S214000CB006000E0000ED00E0FF030040F8590D00AE
S214000CC0000004E055CEACC5090001004FF06043BB
S214000CD030B5D3F8802ED20715D501240B4D8440AD
S214000CE0D5F8FC2042F08072C5F8FC20D3F8002E20
S214000CF02243C3F8002E53F82020002AF0D003F831
S214000D002010002030BD1120FCE700BF00ED00E001
S214000D102DE9F04F9A46554B85B01B78DDF83C9090
S214000D209DF844B0DDF8508006460F461546002B69
S214000D3000F08B80072A00F28A800E9B002B00F0C2
S214000D408680B9F1000F00F08280129BB3F5006F29
S214000D507DDC012802D1109B002B78D0444B03EB9E
S214000D6005131B7B002B74D0424C102200216846D2
S214000D702EF049FC04EB45141022002F57D13946BB
S214000D8020462EF040FC43F210036380BBF1000FB8
S214000D9003D1E37843F00303E370364A0E9BCDF8A5
S214000DA000A002EB451CCCE90193129B013BC3F368
S214000DB00A009DF84C30690103F003039B0643EAE2
S214000DC0001E53582C4818404EEA0003012E53507C
S214000DD041D11323CCF80C309CE80F000CF1100E18
S214000DE08EE80F00DCF81C20109BCCF814306FF057
S214000DF0030161F39F02012FCCF81C2003D1CCF82D
S214000E001890CCF804301A4A290102EB051342F870
S214000E1001800027159A5A6028469F605E73224616
S214000E20694601F0F9FB384605B0BDE8F08F0021B1
S214000E3020462EF0E8FB4FF444736380BBF1000FAE
S214000E40ABD1E37843F03003A6E70C48ECE70C4858
S214000E50EAE70C48E8E7B8F1000FD4D19CF8023076
S214000E6068F304138CF80230CDE700BFD764002087
S214000E7014260020942600200F80FFF3028000F046
S214000E80018000F0078000F038B5124B1B7805464D
S214000E90DBB1E0B12BF019FC0F4A00231146147B9E
S214000EA054B92B601A0101EB031301258C501D73F6
S214000EB02BF011FC204638BD0133082B02F110023E
S214000EC0EDD12BF008FC0548F5E70548F3E70548A3
S214000ED0F1E700BFD764002014260020048000F04D
S214000EE0028000F0018000F013B52BF0EEFB0C4AF8
S214000EF00023147B7CB90133082B02F11002F8D1D1
S214000F00019001F03FFB074B01981C702BF0E3FBB0
S214000F10204602B010BD2BF0DEFB0348F9E700BF09
S214000F2014260020D7640020058000F00D4B1B78A7
S214000F3010B5044693B1072812D82BF0C6FB0A4B0F
S214000F4003EB04131A7B2AB100241C732BF0C3FB9B
S214000F50204610BD2BF0BFFB0448FAE70448F8E72C
S214000F600448F6E7D764002014260020068000F028
S214000F70028000F0018000F013B5164B186801904F
S214000F8000238DF804302BF0A0FB134B1C7824B103
S214000F902BF0A1FB114802B010BD01221A702BF0F5
S214000FA09AFB0F4B1C731C7783F82C4083F83C404D
S214000FB083F84C4083F85C4083F86C4083F87C40B0
S214000FC004230DEB03008DF8073001F0FBFA2046F2
S214000FD0E1E700BFD8530300D7640020038000F089
S214000FE0142600200A4A127808B55AB107280BD8EA
S214000FF0084A02EB00131B7B43B1002101F0D8FA2C
S214001000002008BD0448FCE70448FAE70448F8E76F
S214001010D764002014260020028000F0018000F033
S214001020078000F00A4A127808B55AB107280BD88C
S214001030084A02EB00131B7B43B1012101F0B8FA0A
S214001040002008BD0448FCE70448FAE70448F8E72F
S214001050D764002014260020028000F0018000F0F3
S214001060078000F00A4A127808B552B107280AD855
S214001070084A02EB00131B7B3BB101F01FFB00206C
S21400108008BD0548FCE70548FAE70548F8E700BF4D
S214001090D764002014260020028000F0018000F0B3
S2140010A0078000F00D4B1B7893B1072812D889B142
S2140010B00B4B03EB00131B7B73B10A4B1A6E012319
S2140010C003FA00F010401ABF00200B70087070473B
S2140010D0054870470548704705487047D7640020A4
S2140010E01426002000200E40028000F0018000F050
S2140010F0078000F00B4A127810B50C4662B107283C
S2140011000CD859B1084A02EB00131B7B43B101F01F
S214001110EBFA2070002010BD0448FCE70448FAE70C
S2140011200448F8E7D764002014260020028000F068
S214001130018000F0078000F02DE9F843DFF86480B6
S214001140D8F86070D8F86C301F4000D5FEE7144C15
S214001150DFF8549001260025374217D02368C8F8D8
S21400116068609BB1A16862680131A1602846984713
S214001170637B012B0AD148B909EB45131A7B60F350
S21400118041021A731A7F60F341021A770135082D5F
S2140011904FEA460604F11004DED1BDE8F88300BF2E
S2140011A01426002000200E4094260020024B1968CA
S2140011B0024B18680AF03AB9AC100020A8100020BC
S2140011C037B5920004460D4601922BF0ACFB431C4B
S2140011D00BD060B9019A294620462EF0DCF900288B
S2140011E0044808BF002003B030BD0348FBE70348AF
S2140011F0F9E700BF10E000F021E000F024E000F086
S21400120010B5044601F01EFB431C10D088B901F04F
S21400121025FC20F0030023462044984201D10020FC
S21400122010BD53F8042B0132F7D00348F8E7034803
S214001230F6E70348F4E700BF0EE000F021E000F018
S21400124024E000F008B52BF031FA014B186008BD19
S214001250D42D0020014B18682BF02CBAD42D00207A
S2140012600C4B984210D90C4B984210D902220123FD
S2140012700A490B640A49D1F8003123F0807343EA27
S2140012800263C1F80031704700221346F0E70122DE
S214001290FBE700BF0048E8010090D0030000C84309
S2140012A000400E400F4B5B680F4B30B500221C46CB
S2140012B0C9B21D798D4202D11D6885420DD2013218
S2140012C0052A03F10803F4D1032206494B6823F0EC
S2140012D0407343EA02634B6030BD04EBC2025279AE
S2140012E0F3E700BF00000E402C54030070B5084C16
S2140012F041F67136256C2664FFF718FC0021FFF7CF
S214001300D1FFADB2B5421CBF0023236470BD00BF41
S21400131000000E40044BDB6B5B0604D4034AD2F895
S214001320C830002BFBD1704700300E400000C6438B
S21400133008B5FFF7EFFF024B5868C0F3014008BD41
S21400134000300E40044BD3F84421D20703D4D3F820
S21400135040211042FBD1704700400E4070B5064C4D
S21400136041F67136256C2664FFF79CFFADB2B54298
S2140013701CBF0023236470BD00000E4038B5C0F3C8
S2140013800323013B092B16D8DFE803F026161515B4
S21400139005191C151F23124C0023C0F3043513B186
S2140013A01846FFF7CFFF04F1424404F5801405EB1E
S2140013B0C404A400216038BD0A4C0023EDE70A4CA3
S2140013C00123EAE7094C1023E7E7094C4FF4803382
S2140013D0E3E7084C0023E0E7074C0023DDE700BF07
S2140013E0B0400E40C0400E40E0400E40E8400E4088
S2140013F0F0400E4050410E4000400E40C0F3031334
S214001400013B092B2AD8DFE803F0050B0F19292921
S2140014101F23374B274BD3F80001C0F30420704737
S214001420244BD3F81401F8E7224BD3F80001C0F39D
S2140014300060431C01209840013870471D4BD3F8CC
S2140014400C01C0F3082070471A4BD3F80801F8E7E0
S214001450194B984204D0194B984207D00020704789
S214001460144BD3F8203103F00F03E3E7114BD3F806
S2140014702031C3F30113DDE7114B98420CD003F57E
S214001480B01303F580539842E8D10A4BD3F82801ED
S214001490C0F30120031DCDE7064BD3F82831E8E75B
S2140014A0084B9842DAD1034BD3F8300100F0030022
S2140014B0704700BF00400E408006160080162E00C3
S2140014C090171A00A009140000F00F000138072832
S2140014D044D8DFE800F0040F1943232D4335244B8E
S2140014E0D3F8943003F00703023B052B38D8214A83
S2140014F0D05C70471E4BD3F8803003F00703013BE7
S214001500032B2FD81C4AF3E7194BD3F8843003F08B
S2140015100703013B032B25D8184AE9E7144BD3F8F9
S214001520883003F00703013B032B1BD8144ADFE780
S2140015300F4B1B6F13F0010F0CBF072009207047DD
S2140015400B4BD3F85C3103F03003202B0CD0302B40
S2140015500CD0102B14BF01200720704700207047C6
S2140015600520704701207047042070470820704708
S21400157000400E4000540300065403000A540300C3
S2140015800654030008B50146FFF79EFF1A4B994222
S21400159011D01A4B994212D0194B994204D1194BCB
S2140015A0D3F8800000F007000138032821D8DFE8D0
S2140015B000F00A0E1612134BD3F88400F2E7114B14
S2140015C0D3F88800EEE7BDE808402BF00DB8BDE87C
S2140015D00840FFF70FBBBDE808402BF008B8FFF740
S2140015E0A9FA084BD3F80031C3F300630133D8409F
S2140015F008BD0020FCE700BF030020000500240013
S21400160002001E0000400E4000F47813B3F5B01F31
S21400161010B5044674D025D8B3F5402F5ED010D848
S214001620B3F5802F49D005D83BB1B3F5003F4FD076
S214001630002010BDB3F5202FFAD1BDE81040FFF70B
S21400164079BAB3F5801F00F08480B3F5A01F4DD0A3
S214001650B3F5602FECD14A48FFF736FF072878D05D
S2140016600928E9E7B3F5381F53D013D8B3F5001FA0
S21400167058D00AD8B3F5D01F56D0B3F5F01FD7D13F
S2140016804048BDE81040FFF77DBFB3F5101FCFD12F
S2140016903D48F6E7B3F5481F4DD0B3F5781F65D043
S2140016A0B3F5401FC4D13948FFF76CFF384BD3F869
S2140016B02831C3F30123043320E0FFF73BFA344B11
S2140016C0D3F80C31C3F308230133B0FBF3F0B0E7D3
S2140016D0FFF730FA2E4BD3F80831F3E7FFF72AFA74
S2140016E02B4BD3F81431C3F30423EDE72648FFF75A
S2140016F049FF274BD3F8303103F00303D84098E76F
S2140017002048FFF73FFF224BD3F8203103F00F03AA
S214001710F4E71C48FFF736FF1D4BD3F82031C3F320
S2140017200113EBE71948ACE71848FFF72BFF184BF7
S214001730D3F82831F3E71748FFF7C6FE072808D086
S214001740082809D004287FF473AFBDE81040FFF7DF
S2140017502DBA114B18686CE7FFF7ECF90C4BD3F871
S2140017600031C3F3042303FB000062E7FFF7E2F94E
S214001770014620462AF095FFB1FBF0F059E700BF7E
S21400178006000E0002001E000500240003002000D4
S21400179000400E40B8003200CC10002010B5FFF715
S2140017A0A5FD094B07225A67FFF7C4F9FFF758FD56
S2140017B0FFF7EAF90446FFF7BBFD01462046BDE801
S2140017C01040FFF7CBBD00BF00400E40014B188015
S2140017D0704700BF12160020014B1880704700BFEC
S2140017E01016002010B5042813D8DFE800F04703D1
S2140017F02F132100294AC1F30801D2F86838002BBC
S214001800FBD1274A136A23F4FF7323F0010319431D
S214001810116210BD214A01F07F01D2F86038002B1A
S214001820FBD11F4A136923F07F0319431161F0E7C8
S2140018301A4A01F07F01D2F86438002BFBD1184A0F
S214001840936923F07F0319439161E2E7144AD2F8C3
S2140018509030536A23F0300343F010035362146B46
S214001860104BC1F3C31003300F2803EA040328BF4C
S2140018700F20194341EA00711163CAE74F29074A4E
S21400188028BF4F21D2F87438002BFBD1044A936B43
S21400189023F07F0319439163BBE700BF0020C843D2
S2140018A000400E4000F8FF0F104A536A13F0300F46
S2140018B018D0202913D0302914D000290C4B08BF8B
S2140018C04FF44003D2F8901033EA0101FAD15B02DC
S2140018D046BFD2F8A000C0F38020012070474FF426
S2140018E00003EFE74FF44003ECE700BF00400E4074
S2140018F0FF33E10702280AD129B1064B4FF4806076
S214001900C3F8A800596612B10220FFF7CDBF012028
S214001910704700BF00400E400428F8B545D8314B4C
S214001920314F13F800C0314B1B5C002943D0304CBC
S214001930022834F8106039D17C6A14F0300F35D1A3
S2140019402C4CE46B7C6AE40705D57D6A25F03005EF
S21400195045F010057D62244C2666274C23449B00E8
S2140019601D68002DFCD002B36444A4002368002B3D
S214001970FCD0022819D1C1B11B4D696A11F00101D2
S21400198016D001222021FFF7B5FFD5F89C70012262
S21400199000210220FFF7C0FFC7F30A010220FFF76D
S2140019A021FF2E662368002BFCD0F8BD0021D2E76D
S2140019B0FFF77AFFE9E7114931F81010396601217F
S2140019C001FA03F3D7F890101942FBD1002AECD0A5
S2140019D00124054A04FA0CF4D2F890302342FBD1D5
S2140019E0E3E700BF0E54030000400E40135403000C
S2140019F01854030000300E408004F21022540300F6
S214001A0010B50446C0B901221146FFF785FFFFF75F
S214001A106DFCB4B90D4B04225A67FFF78BF8FFF73D
S214001A201FFCFFF7B1F80446FFF782FC014620468C
S214001A30BDE81040FFF792BC0128E8D102460146F7
S214001A40E3E7012CE9D1014B0322E5E700400E4015
S214001A5038B5FFF7ABF80021044600F0E9FA124863
S214001A60FFF7FEFB012211460220FFF755FFFFF7A6
S214001A703DFC0CB1FFF74EFC0C4B02225A67FFF7F9
S214001A8059F8FFF7EDFBFFF77FF80546FFF750FC28
S214001A9001462846FFF762FC2CB920460121BDE826
S214001AA0384000F0C5BA38BD0148E80100400E4095
S214001AB0184B70B51C68184B9C4227D9002120464D
S214001AC000F0B6FA1548FFF7CBFB012211460320BB
S214001AD0FFF722FFFFF70AFC0CB1FFF71BFC104BC9
S214001AE001265E67FFF726F8FFF7BAFBFFF74CF80C
S214001AF00546FFF71DFC01462846FFF72FFC3CB9BC
S214001B0031462046BDE8704000F092BA0024D9E77E
S214001B1070BD00BFA0100020002D31010148E80173
S214001B2000400E40012210B511460320FFF7F4FED8
S214001B30FFF7DCFB084B05225A67FEF7FBFFFFF7B3
S214001B408FFBFFF721F80446FFF7F2FB014620461D
S214001B50BDE81040FFF702BC00400E4010B504463A
S214001B601120FFF7B1FC002101220220FFF7D4FE6E
S214001B70184A217C536A23F00103022908BF43F068
S214001B8001035362144B2178C3F8A014637AA1882A
S214001B9043EAC123D362136BA07A217A03F07F63F2
S214001BA00343E08843EAC02343EAC11303310F2905
S214001BB028BF0F2143EA01731363A37B617B1B01DC
S214001BC043EA0133E17B0B43217B43EA0143536342
S214001BD010BD00BF00400E400000C84338B50E4D93
S214001BE001461120FFF770FCAA6B0C4B0C781340D3
S214001BF01C434B7844EAC3248B7844EA0364CB78CE
S214001C0044EA0324AB6BA34205D000210122084618
S214001C10FFF782FEAC6338BD00400E4080E4FFF85C
S214001C20034BD86B80F04000C0F38010704700BFB5
S214001C3000300E4042EA0323B3F5007F39D016D8B1
S214001C40B3F5807F31D007D85BB3012B1ED00022BE
S214001C50134603600A60704740F201129342F6D1C1
S214001C60184BD3F824321A0EC3F30743F1E7B3F543
S214001C70407F22D040F2013293420ED040F2012241
S214001C809342E4D10F4BD3F8283202E00D4BD3F841
S214001C902432C3F30722DBB2DBE70A4BD3F8283241
S214001CA0E1E7084BD3F81C32F3E7064BD3F81C32B7
S214001CB0D9E7044BD3F82032EBE7024BD3F82032B7
S214001CC0D1E700BF0081E00F08B5FFF7A9FF20B1FC
S214001CD0024AD2F8C830002BFBD108BD0000C6432C
S214001CE008B5FFF79DFF80B1FFF7EEFF074B1968B9
S214001CF05A68C1F30121C2F3014291421A688CBFAF
S214001D0042F0100222F010021A6008BD00300E40A9
S214001D10064B1B68DB0608D5054B1B69C3F304435B
S214001D20082B02BF034B044A1A60704700300E406F
S214001D3000400E40A0100020C0EA210137B5FFF792
S214001D406FFF38B12E4B1B78C3F10202102393406D
S214001D502C4A13612C492D4DD1F8804145F60E03CF
S214001D60C1F880312B6823F0AA03DB05DB0D0B6678
S214001D70FFF7AAFF234B1B68D80604F0010416D50C
S214001D80D1F84031DA01FBD4214B1B680B61214BA3
S214001D901B78052B0BD1204B18680190FFF794FF9A
S214001DA0184B01985968C1F30141FFF7D7FA194B50
S214001DB01B78023B0A2B0AD8DFE803F00616180940
S214001DC009090909091B1E000020FFF719FE2B68E8
S214001DD0DB075EBF0C4B02221A661CB10A4B0022C0
S214001DE0C3F8802103B030BD0120EEE7FFF730FED8
S214001DF0EDE7FFF797FEEAE7FFF7D0FCE7E700BF5F
S214001E00DA64002000300E4000400E40882E00208D
S214001E108C2E0020D8640020A010002010B50B4C9B
S214001E200B4BD4F890201A601120FFF74DFB094B9E
S214001E301870FFF749FF084B084A5B68C3F3014375
S214001E401370074B22691A6010BD00BF00400E4099
S214001E50882E0020D864002000300E40DA6400206F
S214001E608C2E0020064942780B6823F4407343EA20
S214001E700223022A0B6004BF024B5B6A704700BF56
S214001E8000300E4000400E4010B5044608B1FFF783
S214001E90C5FFFFF725FF164A136943F004031361D5
S214001EA02AF029FD2AF028FD124B1B68DB0618D500
S214001EB02AF0FCFB33F064FA2AF0FCFB2AF01DFD46
S214001EC003F02CFF7CB1FFF739FF0A4AD2F84C31F9
S214001ED023F00043C2F84C3144B9BDE81040FEF789
S214001EE053BE30BFEAE7FFF713FFEEE710BD00BFB3
S214001EF000ED00E000300E4038B5044608B1FFF7AC
S214001F008DFFFFF7EDFE1B4B1B4DD3F8802145F6EA
S214001F100E01D207C3F8801148BF00224FF420718B
S214001F20196648BFC3F88021144A136943F00403B6
S214001F3013612AF0E0FC2B68DB0615D52AF0B6FB09
S214001F4033F01EFA2AF0B6FB03F0E8FE74B1FFF792
S214001F50F5FED5F84C3123F00043C5F84C3144B9B2
S214001F60BDE83840FEF710BE30BFEDE7FFF7D0FE05
S214001F70EFE738BD00400E4000300E4000ED00E0B8
S214001F800378134A002B437870B514BF0426002646
S214001F90002B8378946914BF02250025002B037953
S214001FA024F03F0443EA0403C47814BF0821002148
S214001FB0012C08BF43F0010333432B430B439361CB
S214001FC01368417923F4403343EA0143136070BD3C
S214001FD000300E4070B504460E46FFF721FE10B3E3
S214001FE0FFF772FE104B5B68C3F301439C421AD0A6
S214001FF00E4BD3F80031FEF79DFD022C054602D1AC
S2140020002146FFF7ABF9C4F1020210239340064ABB
S21400201013610EB1FFF758FE2CB921462846BDE8DD
S2140020207040FFF79BB970BD00300E4000400E4078
S21400203013B50246FFF7F4FDC8B152B90D4B019136
S214002040D3F80041FEF776FDC4F30422019902FBA3
S2140020500002094B1B7843B1084B9A4205D8022070
S21400206002B0BDE81040FFF7B5BF0020F8E702B0A9
S21400207010BD00BF00400E40D9640020002D310185
S214002080034B02781A7001210020FFF7D1BF00BF72
S214002090D9640020224B4AF6E85210B5596B5A63B1
S2140020A09A6FD207FCD41B6C13F003031EBF1D4AA5
S2140020B00124C2F8B44A834204D110B9194BC3F8BC
S2140020C0B40A10BD032B00D09BB9431E012B10D8B9
S2140020D0134A4FF40023D362936FDB07FCD4136CD0
S2140020E023F0030343F0010313640D4A536A1C03F1
S2140020F0FCD50B4B9A6FD207FCD41A6C22F0030265
S21400210002431A649A6F12F00102FBD10038054CA4
S21400211018BF01200129C4F8B40A08BF5A63D0E7E3
S21400212000300E400000C6432DE9F04F002389B072
S214002130CDE90233CDE90433CDE90633A0F5E163FA
S214002140B3F5966F04460D46914604D900252846F9
S21400215009B0BDE8F08FB0F5E16F674B8CBF012288
S214002160002240F0BC80D3F81832C3F30721DBB25C
S214002170079104934FF4167A4FF4966BDFF87C8140
S214002180D8F84C700192C7F301773B4605A902A820
S214002190FFF750FDD8F8EC60019AC6F301263346E7
S2140021A006A903A8FFF746FD049B0799A4EB0B0EB0
S2140021B0A1EB030C0EFB0CFCBCFBFAF213EB020CBF
S2140021C02CBF012300236145C0D3002BBED1069A45
S2140021D00398131A0EFB03F3B3FBFAF3C0182CBFD5
S2140021E0012300238242B1D3002BAFD1059B029975
S2140021F05A1A0EFB02FEBEFBFAFA11EB0A012CBFBE
S2140022004FF0010E4FF0000E8B429FD3BEF1000F31
S2140022109CD1B9F1000F10D0D8F85C2022F4FE4211
S21400222022F00202B4F5E16F42EA0C2218BF4FF02A
S214002230020E42EA0E02C8F85C20002D4DD02E4B4E
S214002240022FD3F830223ED0032F3FD0012F14BFE9
S214002250D2B2C2F30722120312F4702F7FF476AFC5
S214002260264FFB6E23F470431A43234BFA66022E66
S214002270D3F830222CD0032E2DD0012E14BFD2B28C
S214002280C2F30722120312F4702F7FF45FAF1B4EC7
S214002290D6F8EC3023F470431A43C6F8EC20736E7D
S2140022A0814238BF014623F4FF73E72923F0010378
S2140022B028BFE721B4F5E16F18BF43F0010343EAF6
S2140022C04103736643E7C2F30742C4E7120EC2E750
S2140022D0C2F30742D6E7120ED4E7012537E7D3F854
S2140022E01832190EC3F30743079104934FF4966A06
S2140022F04FF4E16B42E700BF0081E00F00300E4074
S214002300304B1A6FD96C11F0010F02F0060244D060
S214002310002A42D0132851D9143813288CBF102312
S21400232008232849013BCA6C180322F47F4240EA7E
S21400233003231343CB64244BCA6C1B88C2F30322CB
S2140023402833013202EB820003EB5303B3FBF0F3B6
S214002350C86C013B072B28BF072320F0EE6040EA3D
S214002360036343F48013CB64184BB3F90030002B9F
S21400237012DB03F12800C0F34E030344500800EBC1
S2140023804202B3FBF2F20B6D072A28BF072223F0A6
S214002390700343EA02120A657047D96C01F0010126
S2140023A0114304D1092809D90A380928B6E7DB6C95
S2140023B013F00103B5D01AB92728AFE70423B0E716
S2140023C00023AEE700300E4032590020345900207A
S2140023D0064A074BD3F88039136F23F007031843D8
S2140023E0044B10671888FFF78BBF00BF00300E4005
S2140023F00000C64330590020374A38B5022393639D
S214002400936B03F00F03022B044602D000252846E8
S21400241038BDE3888088B4F90C504A2B4FD9B3F501
S214002420FA7F4ED340F6C3118B4294BF4FF0005153
S2140024304FF04051D36C23F0405323F00103002D9E
S214002440A8BF43F001030B43D364D2F8EC3043F447
S2140024504073C2F8EC30214B1880D36E43F0807383
S214002460D3661F4BD3F8800900B10420FFF7B0FFF6
S2140024701C4B218919801C4BB4F90C20A0881A80AB
S214002480FFF73EFFA37BFBB1012B21D00122608822
S2140024901146FFF749FE05460028B7D00E4AD36B13
S2140024A043F48063D3636078FFF7F4FDA37AA3F167
S2140024B02002534253410A4AC2F89437A7E7002144
S2140024C0B8E74FF08051B5E7034B084A9A65DDE759
S2140024D0014B074AFAE700BF00300E403059002093
S2140024E00000C64332590020345900207740205758
S2140024F0372110B7044AD2F8443423F003031843B4
S214002500C2F84404704700BF00A0004000EB400043
S214002510F8B50D461F46040116463AB11648012383
S2140025208B402044CFB100F1C0600360072D4FF010
S2140025300F0115D8AB00114806FA03F29940204463
S2140025402AF0E0F946B90C4A012101FA05F52244C1
S21400255077B102F1C0621560F8BD00F18060E4E773
S214002560A5F108039B00064806FA03F29940E6E741
S21400257002F18062EFE700BF0CA0004004A000401C
S21400258008A00040084B4FF40072C3F88020BFF349
S2140025904F8FBFF36F8F054B0021D9664FF4AA40CB
S2140025A01962FEF7EBBE00BF00E100E000200E401F
S2140025B0034B03449B0081F001011960704700BF84
S2140025C0A001F11010B5044601214FF4AA40FEF711
S2140025D0D5FEB4F8013022785BBA9BB243EA0263B8
S2140025E00B4A136000231362D36253634FF0004319
S2140025F0D3664FF0FF339366064A4FF40071C2F875
S2140026008011E3785B01DBB282F80933116010BDFC
S21400261000200E4000E100E02DE9F041C3B20125A4
S2140026209D40CB7A8F7A234ED1F800E00C464FF0CF
S2140026303008097B94F80DC0B5661B0508FB0060E2
S21400264043EA074343EA415322F00302C0F880E01E
S214002650C0F888C0C0F88430C0F898202AF035F852
S214002660F36E2B43F366237A13B1736B2B437363BA
S214002670637A13B1F36A2B43F3620E4B1A6823791D
S21400268023B1DB431B0263F47F431A4063790BB12B
S21400269042EA0322A3790BB122EA0302E3791A4342
S2140026A0044B1A60044A9562DD63BDE8F0412AF0E7
S2140026B012B800BF00200E4000200E4410B5C0B275
S2140026C0012484402AF001F8054AD36E23EA040365
S2140026D0D366044B1C62BDE8104029F0FCBF00BF67
S2140026E000200E4000200E4410B5C0B201248440E5
S2140026F029F0EBFF074B1A6A224209D19B6A34EA9B
S21400270003030CBF0124002429F0E5FF204610BD7A
S2140027100024F9E700200E40054B5A685B68054B1D
S21400272041F671321A649A6822F001029A60704784
S21400273000300E4000000E40034B9A6822F0010263
S2140027409A6000221A64704700000E40094A0A4B3D
S214002750D969C90705D512B96FF002007047013A6A
S214002760F6E7002AF8D001221861DA60D86940F34B
S214002770800070478096980000000E4070B5C1B18A
S2140027800E4A0023082550F8234094610C4CD5606F
S2140027900133D669F60705D514B96FF0020009E0D3
S2140027A0013CF6E7002CF8D0D469A40703D499427C
S2140027B0E9D1002070BD6FF00100FBE700000E407D
S2140027C0809698002DE9F8431C4B884641F67131F7
S2140027D01D6C19641A49074648684968996841F0AB
S2140027E00101ADB2996096084FF00009B14501D3DA
S2140027F0002005E007EB89042046FFF7A7FF48B155
S2140028000E4B9A6822F001029A600DB100221A64FB
S214002810BDE8F883C4F30A04C4F50064A408A6EB74
S2140028200901A14228BF21464046FFF7A7FF00281E
S214002830E6D1894408EB8108D8E700BF00000E40C7
S21400284000300E40234B41F671311A6C10B51964F6
S21400285021494C684968996841F001019960012155
S2140028601861D960D9694C0792B209D5996821F0E8
S214002870010199600AB100221A644FF0FF3026E089
S2140028800221D9601549D869C00700D569B9D86949
S21400289010F002000BD0996821F0010199600AB18E
S2140028A000221A646FF0010011E00139EBE741B92C
S2140028B0986820F00100986002B119646FF0020079
S2140028C005E0996821F0010199600AB1186410BD0D
S2140028D01046FCE700000E4000300E408096980040
S2140028E010B590FAA0F2054C2368B2FA82F223EAF9
S2140028F0000091400143216010BD00BF00500E4013
S214002900014B01229A60704700500E40134B144949
S214002910F0B500225D68134E1046D6F8E8714C6894
S2140029200B687F070BD4B3F5006F06D012D8B3F54B
S214002930007F02D0B3F5806F01D144F480742B423F
S21400294002D02C4208BF18430132092A01F10801BF
S214002950E3D1F0BDB3F5803FEEE700BF00500E4078
S214002960545403000040E00F8B784A789B0143EAFA
S21400297082030A781343CA7843EA02130A7943EAC1
S214002980C2234A7943EA02338A79043043EA42434F
S2140029900001014A1350704700200440014B1860A4
S2140029A0704700BF00008442427801790378002A0D
S2140029B0827870B514BF04260026002AC27814BF99
S2140029C010250025002A42794FEA023242EA012207
S2140029D042EA0302837914BF20240024002BC37923
S2140029E042EA034343EA0603027A43EA050314BFB6
S2140029F04FF4004100212343002A14BF4FF4003255
S214002A0000220B431343014A136070BD00200440AC
S214002A100D4AD2F8E430D2F8E0109B0003F03C03F5
S214002A20C1F381110B438370D2F8E03003F03F030B
S214002A304370D2F8E830D2F8EC2003F0F003C2F38B
S214002A40031213430370704700FF0FE0024BD3F8E6
S214002A50FC00000E704700BF0081E00F044BD3F867
S214002A60E4301B0E0A3303F01F0301209840704722
S214002A700081E00F70B5054616461C4619B9144885
S214002A80FEF7C2FD0146402C1BD003D8DCB1202C3B
S214002A901BD070BD602CFCD1042303FB06F2560845
S214002AA006EB4113B3FBF2F30A4A203B02EAC303E8
S214002AB02A6822F060022A602A6814432C606B6140
S214002AC0E7E70623E9E71023E7E70823E5E700BF83
S214002AD040410500F8FF7F0040F6AA63C36041F25C
S214002AE00502002303604260104A83604361C364AA
S214002AF08264036643678367C3670D4B0D4A98423B
S214002B0009D0904207D003F50063984203D003F53E
S214002B108063984201D100230365002390428365B9
S214002B2002D0054A904200D1C3657047F9FF010004
S214002B300000014000040140000C014070B516483A
S214002B40164E174D174C0121FEF718FC01214FF4C5
S214002B508A40FEF713FC002304220A210320FFF715
S214002B60D5FC45F2031373664FF47F436B61202256
S214002B70002363610B21A26003200422FFF7C6FC3A
S214002B80094BB3664FF47F036B614FF450236361C8
S214002B904023A36070BD00BF00350A0000600E40F1
S214002BA000600E4400600E460451000838B5044626
S214002BB02DF053FA0FCC044D0FC594E80F0085E8AE
S214002BC00F00002038BD00BF902E002047F6FF7390
S214002BD09A42F0B56BD002296BD8374D05EBC1068B
S214002BE015F83130B078012838BF0120012B4FEAA4
S214002BF0C107044613D1F3781B1A0020984202D36B
S214002C00E018C0B2F0BD191AA3EB5101756835F98A
S214002C1011509542CCBF01F1FF330846EEE77068CD
S214002C200028EFD0B0F90030934204DBB0F9023050
S214002C309342B8BF13468288FF2A04BFB0F9061035
S214002C40B0F908C03D440FBF01260026C8214FF04A
S214002C50280C6D78CA1A92FBFCF2324412B29542E6
S214002C6001DD002A01DA6A1E12B24FF47A7700EB11
S214002C70C2060132F188B66812B213FB016121EA7E
S214002C80E171954201F15C01B1FBF7F104DD00EB67
S214002C90C206B6888E42EAD200EBC20232F8040CB4
S214002CA0884228BF0846A04238BF2046A9E7FF2032
S214002CB0A8E70020A6E700BF902E00200229F0B566
S214002CC05FD8314B13F83100012816D103EBC10150
S214002CD08C78C878012C234638BF0123904294BFD5
S214002CE0C3EB0003C3EB0203DBB2001B4A6883425C
S214002CF0C8BF002332F91300F0BD002A3FD003EB13
S214002D00C1014B68002B3CD08878904202D3B3F9BF
S214002D100200F1E7CC78B3F900009442ECD94C7885
S214002D209988A1F1FF06013C714203F10405E4B263
S214002D30714103F10C071FFA82FCCEB2B44216D8DA
S214002D4005EBC1014FF47A75B1F9024049686A4350
S214002D50521A04EBD47102EB610292FBF4F2904239
S214002D60CADBB3F902009042C6DC10B2C4E737F8FB
S214002D7031E0E64501F10106E2D33146DDE70348DE
S214002D80BAE70348B8E700BF902E00200CFEFFFF0E
S214002D900080FFFF08B50448FFF708FFBDE80840BD
S214002DA001202DF07EB900BFA85D03007FB5142278
S214002DB0002101A82CF027FC02238DF8043001A97D
S214002DC0044B02934FF0FF302DF0ACF907B05DF8DE
S214002DD004FB00BF006A1800024B03480122C3F838
S214002DE0002670470010C84300000F40094B984269
S214002DF00ED003F58063984209D10122064B03EBFF
S214002E00C2035A68054B13449B0000221A607047A1
S214002E100022F3E700000F409C5403008005F210E8
S214002E2010B504462369DB07FCD404F1800029F0C2
S214002E3099FC014B236510BD510545012DE9F04372
S214002E4081468BB016461F460C4600294FD1FFF729
S214002E50C3FF01460446484629F048FE4FF00108E5
S214002E6099F86C5009F15C01C5F10E032A460DF184
S214002E7009008DF808302CF09EFB05F10903C5F11A
S214002E800F01CAB20DEB0300002101922CF0BBFB30
S214002E90019A0123C2F110008DF8173002AB1844D6
S214002EA000212CF0B0FB29F001FC02A9054604F134
S214002EB08000019029F056FC0E4B0198236523698B
S214002EC0DB07FCD406A929F06AFC284629F0F2FBA9
S214002ED03A4606A930462CF06EFBB8F1000F02D039
S214002EE02046FFF783FF00200BB0BDE8F0834FF0CD
S214002EF00008B5E7055101002DE9F04F89B00546F9
S214002F00DDF8489016461F460C4639BBFFF764FFAF
S214002F1001460446284629F0E9FD4FF0010B6B6C8C
S214002F2033446B6429F0C2FB8246D6B9504629F07A
S214002F30C1FBBBF1000F0ED029F0B8FB05F14C0128
S214002F40064604F1840029F02AFC304629F0B2FB3C
S214002F502046FFF74BFF09B0BDE8F08F4FF0000B9F
S214002F60DDE72B79102EB04628BF4FF01008012B56
S214002F700DD11022002168462CF045FB394642460A
S214002F8068462CF018FB69462046FFF749FF39468D
S214002F9004F18C0029F0E6FB124B236501236365E0
S214002FA02369DB07FCD404A904F1800029F0F7FBB1
S214002FB004A9424648462CF0FEFA297961B9102247
S214002FC068462CF020FB4946424668462CF0F3FA49
S214002FD069462046FFF724FFC1444744A6EB08068F
S214002FE0A3E700BF4805590330B5048804F4E0435E
S214002FF0B3F5005F35D1C4F30223042B31D181F041
S214003000AA6383F4807333F47E1309D081F0AA6335
S21400301083F4007333F47E130CBF0123002300E017
S21400302001230BB1C1F30543174D21F47E11A942CC
S21400303025D1B4F5105F22D1191F0C291CD813F026
S214003040010319D1073A062A16D84288C02A16D094
S214003050B2F5807F16D0802A14BF6FF0860000205D
S21400306030BD42F204039C4204D181F0052383F470
S2140030708013CFE70023D4E76FF08600F0E76FF009
S2140030808500EDE71846EBE7000140052DE9F04F17
S214003090A7B01D46DDF8D880DDF8EC900992DDE992
S2140030A0343607468A4629B96FF08602104627B09E
S2140030B0BDE8F08F0028F7D0309A002AF4D0329A74
S2140030C012B9339A002AEFD143BB002EECD1389ABE
S2140030D0002AE9D0B9F1000FE6D03A9A002AE3D0E8
S2140030E0399A002AE0D03A8802F4E041B1F5005F50
S2140030F079D1C2F30221042975D185F0AA6282F43F
S214003100807232F47E1212D085F0AA6282F40072C7
S21400311032F47E120CBF0124002409E0002ED6D023
S214003120B8F1000FC0D0379A002AD0D1BCE70124EE
S2140031300CB1C5F30544319AC9F800402946384613
S2140031403493FFF751FF02460028AFD17A88099BD7
S214003150B3EBD20F4FEAD20BA6D3379B9E4256D87C
S2140031603A9B9C4253D8349B434508D29A199045C3
S21400317005D21946324640462CF02BFA43467022BA
S21400318000210AA834932CF03EFA5A4651460DF117
S2140031902D00CDF850B02CF00EFA1E4A25F47E1500
S2140031A0954231D13A88349BB2F5105F2CD1D9F8CC
S2140031B000200393339B06920293399A329B019325
S2140031C0319B0093CDE90482309B324601210AA848
S2140031D029F0A8FD024688B9389B1E6070210AA80F
S2140031E029F098FD62E742F204018A4204D185F094
S2140031F0052282F480128BE7002499E73899002391
S2140032000B60C9F80030E9E76FF08502E6E76FF07B
S21400321089024BE7000140052DE9F04FABB0DDE930
S21400322038A4DDE93B65894609929846074600289A
S21400323000F0A280002900F09F80349B002B00F055
S2140032409B80369B1BB9379B002B40F09580BAF1CC
S214003250000F02D1002C40F08F801DB93D9B002B43
S21400326040F08A803E9B002B00F086803A9B002B25
S21400327000F08280359A41463846FFF7B5FE024692
S214003280002866D17A88099BB3EBD20F4FEAD20B9F
S21400329072D33D9B9C4272D8AA4509D20AEB04021F
S2140032A0954205D25146224628462CF092F9AA4667
S2140032B0702200210EA82CF0A6F95A4649460DF1B8
S2140032C03D00CDF860B02CF076F92E4A28F47E1832
S2140032D000219045CDE90A11CDE90C1149D13A8873
S2140032E0B2F5105F45D1379B0293369B01930AAF28
S2140032F0359B00932246CDE90457349B0696CDF8BD
S2140033000CA00EA829F00EFD0246C8B93A9B384616
S21400331003EB060C90469C451FD11EB1314638463D
S21400332029F0F8FCB8F1000F20D03E9A0023136075
S2140033301CB12146284629F0EDFC6FF0940204E00B
S2140033401EB13146384629F0E5FC70210EA829F05A
S214003350E1FC10462BB0BDE8F08F10F8011B13F807
S21400336001EB81EA0E0148EA0108D4E73E9B1C60A7
S214003370EBE76FF08502E8E76FF08602E9E76FF0AB
S2140033808902E6E7000140052DE9F04F2DED048B9C
S214003390984609EE100A8BB092460023B8F1000F4B
S2140033A019D0D8F800401029CDE90233CDE904330E
S2140033B00CBF0823102308EE903A002555450CD381
S2140033C0B8F1000F01D0C8F8004000200BB0BDECEB
S2140033D0048BBDE8F08F4446E5E75CB1199B1A9A6A
S2140033E01B5D525D53401B9A0134535504F00F0485
S2140033F00135E3E7FFF7F0FC4FF440434460036019
S214003400064629F053F918EE902A074619EE101AC8
S214003410304629F0F9F906F184031846189908EEA3
S214003420103A29F09FF9384629F044F91B9BAAEB7D
S214003430050727F00F07103B2F4406F1A00B01935A
S214003440BD4235D11A9B3B4406AD03F1100C1868FB
S21400345059682A4603C2083363451546F7D10F2F2D
S2140034600ED91B9B3B4402AD103B0DF1180C2A46AF
S21400347003CA624518605960154603F10803F6D181
S2140034801B9B06F180091F4403EB0A05AF4237D1A8
S21400349029F00CF91899054618EE100A29F07FF95C
S2140034A0284629F007F93046FFF7A0FC554685E781
S2140034B029F0FCF8224B336581463369DA07FCD4E1
S2140034C01A9B5846591929F04DF90F2D0ED9019B14
S2140034D00DF1080C5A190DF1180E634603CB73450F
S2140034E0106051609C4602F10802F6D102A906F16E
S2140034F0800029F054F9484629F0DCF810359FE79B
S21400350074B929F0D3F80E4B336583463369DB076D
S214003510FCD44846199929F042F9584629F0CAF8C9
S21400352004F128030DEB0302199B12F8102C1B5D07
S2140035300134534007F8013B04F00F04A6E700BF30
S214003540480503012DE9F04F8DB0DDE91864DDE98B
S2140035501A57DDF870A081469B468846002900F081
S214003560B580002A00F0B28016B9002C40F0AE807C
S21400357015B9002F40F0AA80BAF1000F00F0A6801F
S21400358054498B4509D01ED853498B4505D02BF49A
S2140035908070A1F5806188425FD1B9F80010B1F55E
S2140035A0105F5AD1B9F80210B2EBD10F55D380296B
S2140035B002D0B1F5807F50D16CB9CAF80040002027
S2140035C00DB0BDE8F08F45498B45E6D02BF4007072
S2140035D0A1F58071DFE7AE420AD23219954207D2D2
S2140035E0BC4273D83146224628462BF0F2FF2E46C0
S2140035F0384AB9F8029093454FEAD90964D002F5E3
S214003600407293452CD0344A934526D1BC425DD8AF
S21400361014F00F0B5AD105EB0B030093012206EBB7
S2140036200B034946404629F0B7FB002841D10BF171
S214003630100B5C45EFD8C0E7179B102B46D1169BA6
S2140036400DF1100C03F1100E18685968624603C29B
S214003650083373459446F7D11DE06FF08500AFE759
S214003660BC4233D8179B0D2B30D101238DF8103078
S214003670169B0DF1110203F10C0153F8040B42F8EE
S214003680040B8B42F9D11B78137000238DF81E3083
S21400369001238DF81F3008AB019304AB0093CDE9EE
S2140036A002650023224649464046FFF76DFE002885
S2140036B083D03A46002128462BF0A5FF0023CAF8FF
S2140036C000306FF092007BE7BC42B5D96FF0860001
S2140036D076E700BF0010C004004440040012C00497
S2140036E02DE9F04F91B0DDE91A4ADDE91C56DDF808
S2140036F0788007469B46894629B96FF08609484672
S21400370011B0BDE8F08F002AF7D014B9BAF1000F57
S214003710F3D10DB9002EF0D1B8F1000FEDD0584B13
S2140037209B4514D00BD8574B9B4510D02BF480717B
S214003730A3F5806399420AD06FF08509DFE7524B04
S2140037409B4504D02BF40071A3F58073F2E73B8809
S214003750B3F5105FF0D17B88B2EBD30FECD3802BA0
S21400376002D0B3F5807FE7D1BAF1000F03D1C8F8D5
S21400377000A0D146C3E7AC420BD204EB0A039D423D
S21400378007D2B245B9D82146524628462BF021FF2B
S2140037902C463B4B7F889B454FEAD7075CD003F50A
S2140037A040739B4523D0374B9B45C5D1B245A4D823
S2140037B01AF00F0BA1D148463B4608AA394629F015
S2140037C025FB814600289AD105EB0B0300930022C7
S2140037D004EB0B03394608A829F0DEFA814690BBB5
S2140037E00BF1100BDA45EFD8C8F800A087E7AAF16E
S2140037F00D0AB24541D801238DF810300DF11102A3
S214003800234604F10C0153F8040B42F8040B8B42D8
S214003810F9D11B78137000238DF81E3001238DF824
S2140038201F300D3404ABCDE900334846CDE90245E0
S214003830002352463946FFF7A7FDC8F800A0814688
S21400384000283FF45CAF3246002128462BF0DBFE12
S2140038500023C8F8003052E7AAF1100AB2453FF636
S2140038604CAF04AA04F1100C20686168134603C329
S214003870083464451A46F7D1D4E76FF089093EE765
S2140038800010C004004440040012C0047FB5094B79
S2140038906A4603F11006154618685968144603C4AC
S2140038A00833B3422246F7D12846FEF7A5FD00208E
S2140038B004B070BDAC54030070B5184B86B001AAB6
S2140038C003F11006154618685968144603C40833F1
S2140038D0B3422246F7D11B882380114BD3F8B4207D
S2140038E0120312D4D3F8B830C3F308030D48ADF86A
S2140038F00A30FDF761F92846FEF730F94FF4FA7002
S214003900FDF76AFF002006B070BD074B1B884FF618
S214003910FF72934208BF4FF48D73E7E7BC54030071
S2140039200081E00F00F049020001E00F07B5084BE8
S21400393018680190202301A88DF80430FEF74EF990
S2140039406420FDF743FF002003B05DF804FB00BFD2
S214003950CE54030010B50C480C4C6FF00402A021A6
S21400396012F0800FD3B21BBF03F00F03043BA31863
S2140039701B1802F101020CBF83F800131976332AD4
S214003980EED1002010BD00BF00ED00E000E100E039
S21400399010B5044628F08AFE024B1C6028F08AFE0A
S2140039A0002010BDB02E002010B528F07FFE034B7F
S2140039B01C6828F07FFE204610BD00BFB02E0020F9
S2140039C013B513460C4618B90192FFF7EDFF019B9D
S2140039D001462246044805F0A7FB0028D4BF37203E
S2140039E0002002B010BD00BF0BCF020010B500F0E3
S2140039F025F80448044B436000248460FFF7C8FFA2
S214003A00204610BDB42E00200D3A000013B5064C1B
S214003A1023780093054B1B8829F094FA10B9237875
S214003A200133237002B010BDDB64002014160020A2
S214003A30014B1880002070471416002008B5074B6D
S214003A401A6842B9012208201A6028F0D3FD0449FA
S214003A50044801F0ABFF002008BD00BFC82E0020C0
S214003A60E4100020C02E002030B5144687B005466E
S214003A70104629F0C6FA636983423CBFD4E9033195
S214003A805B181B1A02467BB10F4903910021CDE952
S214003A900131012300930494D4E90013284628F04A
S214003AA0B5FD002007B030BD0122627694F82D20C7
S214003AB0002AF6D084F835301321E369204698476B
S214003AC0636A20469847ECE7693A00002DE9F0471C
S214003AD088B0044688461746994628F0F6FD824682
S214003AE0002F7BD0237E03F0FF02002B00F0A38084
S214003AF0204629F086FA6669B04205D1637ED4E98D
S214003B0003521544AD1B01E0F9D9851BBD4228BF01
S214003B103D4628F0DAFD94F82D300646002B6ED18F
S214003B2061692A4640462BF046FD63692B44636173
S214003B302F4621E0037803F0FD0111295CD1216BAB
S214003B40814205D1A3F111014B424B4184F8343038
S214003B50013F6369216B8B4203F1010308BF2363B6
S214003B606361013295426069E4D1D4E90323216B95
S214003B701344994200D12263D4E903236169207A71
S214003B80134499424FF0000508BF62616576FDF761
S214003B9029FA204629F035FA6369834232D194F82F
S214003BA02D302576E568656103B12563636A204696
S214003BB09847224B03930023029323690193012322
S214003BC0009321686368207A04942A4628F01EFD34
S214003BD0207AFDF727FA304628F07DFD5046C9F8D2
S214003BE0007028F078FDD9F80030002B0CBF1B20A1
S214003BF0002008B0BDE8F08708F8013BA9E72F468B
S214003C000022AFE701232376207A0DF11E01FDF78F
S214003C1071FA9DF81E30002BDAD00DF11F01207AC4
S214003C20FDF740FA9DF81F100029D1D1207A2246D0
S214003C30FFF71AFFCCE71746D0E700BF693A000047
S214003C40002808DB0123420900F01F0003FA00F0F9
S214003C50014B43F82200704700E100E0002809DB32
S214003C604309012200F01F0002FA00F06033024A06
S214003C7042F82300704700BF00E100E070B504463C
S214003C800568FFF791FE844202D10020FFF780FE10
S214003C9095F93600FFF7E2FF95F93630002B0DDB7D
S214003CA05A09012103F01F0301FA03F320321849D1
S214003CB041F82230BFF34F8FBFF36F8F95F937006F
S214003CC0FFF7CCFF95F93730002B0DDB5A090121A1
S214003CD003F01F0301FA03F320320D4941F82230A6
S214003CE0BFF34F8FBFF36F8F287AFDF7BBF9287AA3
S214003CF0FDF71CF9FDF7F8F80023C4E90033C4E922
S214003D000433A3602846AB6ABDE87040184700BF7E
S214003D1000E100E02DE9F0410C461546064686B067
S214003D204022002120461F462BF06DFC002395E81C
S214003D3003002A692376EB68E360C4E904232A7D3E
S214003D4084F82C20AA7D2363012384F8343084F879
S214003D5035300C9B236284E803000D9B63620E9B48
S214003D6084F82D20E761A3622B7A84F836306B7ACC
S214003D7084F837302D4B73602D4BB3602D4B336179
S214003D802D4B346073612D4BF360FDF7F5F838B1B9
S214003D902B4B984204D01024204606B0BDE8F08194
S214003DA0002104F10800FDF76FF807460028F2D15D
S214003DB0244B33624FF00108234B84F83C80B361F8
S214003DC0224BF3619DF8403084F83B309DF83C3040
S214003DD084F83A3084F83900697D84F838802046C3
S214003DE029F020F995F90900FFF738FF95F9090041
S214003DF0FFF726FF164B0494CDE902732369CDE93D
S214003E0000836368E2682168207A28F0FFFB044696
S214003E100028C0D195F90800FFF720FF95F90800A3
S214003E20FFF70EFF3046FFF7B3FDB5E775D002008B
S214003E30CD3A0000F1CF0200F7CF02007D3C000033
S214003E40038000F0C7CF020025D00200FDCF02009D
S214003E50693A00002DE9F04186B01C46524B0C9D95
S214003E600293524B01930126514B0093CDE9036612
S214003E70504B90460A462946FFF74CFF0746002857
S214003E8056D123682B6463686B64637A85F849307F
S214003E90237A85F84830E37A85F84B30A37A85F89C
S214003EA04A30637B85F84D30237B85F84C30E37BC6
S214003EB085F84F30A37B85F84E303F483146FDF7F6
S214003EC05DFA3E483146FDF759FA617A207A334664
S214003ED00422FEF71BFB33460222E17AA07AFEF7A5
S214003EE015FB60683146FDF749FA88F800704146D0
S214003EF0206828F021FD2268536F43F003035367C0
S214003F00936FA17C23F4F85323F01F030B43617CCB
S214003F1043EA012303219367516785F8507098F8A8
S214003F201930202B2CD007D803B3102B09D0232709
S214003F30384606B0BDE8F081302BF8D185F8501031
S214003F4002E085F850603E4600230222617B207B1B
S214003F50FEF7DCFA2368E27CDA675A6E42F0040267
S214003F605A665A6F42F010025A6766B92A6C206881
S214003F70D36C43F00403D364052128F0D6FCD7E7BE
S214003F80022385F85030E17BA07B00230422FEF755
S214003F90BDFA2368217DDA6F42EA0122DA675A6F9A
S214003FA042F020025A67E1E79FD1020093D1020057
S214003FB02BD202001FD202004041050000350A0045
S214003FC010B51C46044B18682BF070F900282060CA
S214003FD00CBF1B20002010BDEC10002013B5064CB3
S214003FE023780093112328F0ADFF10B9237801330E
S214003FF0237002B010BD00BFFC64002010B5FFF7B0
S2140040001DFD0F4C20602BF05FF920220D490E4855
S214004010012305F00BF90D4B18600D4B636020462D
S2140040200C4BA360FFF7B4FC28F040FB01210446CC
S214004030084601F043FC204628F03CFB002010BD5B
S214004040CC2E0020DC640020D8540300EC100020A6
S214004050DD3F0000C13F000000F0FD03112B05D03E
S214004060182B03D0A0F17D03012B07D8044B0122A7
S2140040701A70044B80F0200018707D20704700BF37
S2140040800465002005650020F8B5214B0E46144651
S21400409000B3204A2049107000221A701F4B22706D
S2140040A00A704FF6FF721A801B4D2B78EBB91B4F28
S2140040B03046398829F078F9164A38801378013B5B
S2140040C0DBB213706BB901232B703046BDE8F840A5
S2140040D0FFF7C2BF1A78002AE6D01870104B18787F
S2140040E0F8BD237801332370EFE7012B05D10223B7
S2140040F02B700A4B1888000AE8E7022B04D103232A
S2140041002B70064B1878E1E7FF2323707E20E7E745
S2140041100465002003650020066500203C59002049
S214004120056500202DE9F047394E33788846174656
S2140041305BB9384A1370384A1370384A1370384AD5
S2140041401370384B4FF6FF721A807D2850D02DD84A
S214004150182851D01A2853D0314B2E4D1C78DFF832
S214004160BC9000221A702B78DF2B9CBF01332B707B
S2140041702B78022B84EA000412D9DFF8A8A099F85D
S2140041800000BAF8001029F00FF92B78AAF8000002
S214004190DF2B9FBF99F8002088F80020023B3B7079
S2140041A01D4B1A7889F800201C7006E07E28D3D1B3
S2140041B0184B1B781BB91A4A1370202011E0FF2BEE
S2140041C020D0184A1188154A1078134A127802EB44
S2140041D00022914218D1022B18D9DF2B8CBF7A20EF
S2140041E00020A0F12002534253413370BDE8F0870F
S2140041F00B4B20201870F4E7064BFF221A70DCE702
S2140042007420EEE77720ECE77620EAE77920E8E707
S214004210FD64002002650020FF6400200065002089
S214004220016500203A59002008B529F069F8044BCA
S21400423008B1188008BD4FF6FF721A80FAE700BF73
S2140042403859002010B5074C208850B129F058F88E
S2140042502388C01A044B1B8800B29842B4BF0020C3
S214004260012010BD38590020365900204FF07E62DC
S2140042702DE9F041B2F84C70B2F84A60164DDFF8FE
S2140042805C802C884FF6FF739F4208BF4FF4486748
S2140042909E4208BF4FF4C87650B164002C802B882D
S2140042A0BB4215D92F800023A8F80030BDE8F08166
S2140042B0B8F80030002BF2D029F022F8B8F8003019
S2140042C0C01AC4EBC40480B204EB8004E408E5E73B
S2140042D0B34238BF2E80E6E7365900203859002012
S2140042E008B529F00DF84FF07E634FF6FF72B3F86D
S2140042F05A30934208BF4FF47A73184410F47F6F15
S214004300034BC0F3071208BFFF221A7008BD00BF98
S214004310FE64002010B5084C237843B128F0F0FF67
S2140043202378C3EB101003065CBF002323702078AD
S214004330B0FA80F0400910BDFE64002007B501F019
S21400434003FF6A4601F066FF18B10448522100F0E8
S2140043508DF9DDE9000103B05DF804FBEE540300BF
S21400436008B501F02DFE18B102487A2100F07EF95A
S214004370002008BDEE54030008B500F0D3F80E4A3E
S214004380536A43F4E0235362EFF308830B4A043B7B
S2140043904FF0CD3193420BD2094B01221A6100F047
S2140043A0FBFAFFF7DDFFBDE808400648FEF7FEBB58
S2140043B043F80419EEE700BF00ED00E0000000201F
S2140043C000300E40A85D030007B504220DEB020185
S2140043D000202BF0E7FD042804D0054840F26711C2
S2140043E000F044F9019800F085FA03B05DF804FB8C
S2140043F0EE540300102870B522D00DD8032801D93A
S214004400002070BD013802281AD8DFE800F0021735
S2140044102F000023022215E02038C3B2032BEFD86A
S2140044200328EDD801A353F820F000BF1344000082
S2140044303D4400006D440000694400000123E9E7A4
S214004440002303220B490C4D0C680021C8B284429D
S214004450D6D955F8200028B1067A964202D1467A77
S2140044609E42CED00131F1E70323D3E702231A465A
S214004470E8E700BFDC5C03000C11002010B5FFF776
S214004480B9FF044630B1037A022B03D103680BB19F
S2140044901B6823B9074840F2332100F0E7F8236889
S2140044A01B681B6C186900F44830A0F5005358428E
S2140044B0584110BDEE54030008B5074BD3F8283812
S2140044C09B69DB0205D5012803D840F2022000F0E4
S2140044D0AFF8012008BD00BF0000E10F064BD3F87F
S2140044E028389868C0F30343C0F303621B0243EA0C
S2140044F00233C0B2184370470000E10F10B54840C1
S2140045000A0A0749C0B2082300F00104400804B1B3
S2140045104840013B13F0FF03F6D1504010BD00BFEA
S2140045202083B8ED10B5FEF7F1F90446FEF7E8F97A
S2140045300022012101FA02F3234018D0204B214922
S21400454033F81230062B18D040F20722934211D1CE
S2140045504FF000524FF20F00548884420AD1108860
S214004560984207D14CF23C335380088010BD01328C
S214004570112ADFD1134A138012E04FF000534FF296
S2140045800F025888904218D11B88B3F5406F28BF99
S2140045904FF4C0630B804FF000534CF23C325A800D
S2140045A0084B1A8840F201739A4201BF064A074B2D
S2140045B0D2E90001C3E90001D8E74FF4C063E9E798
S2140045C0445503003E59002090100020D82E0020AD
S2140045D0164B1B881A0A13F0FF03104604D1012A53
S2140045E022D140F080007047072AFAD801A353F87A
S2140045F022F000BF2B460000E345000015460000F1
S21400460019460000194600001D460000214600001D
S2140046102546000009207047022070470320704797
S2140046200B20704706207047184670473E590020FA
S21400463010B5044628F041F84FF000534FF20F0231
S2140046401C805A80BFF35F8FBFF34F8F0549064B20
S214004650CA6802F4E0621343CB60BFF34F8F00BF1B
S214004660FDE700BF00ED00E00400FA0538B504469B
S2140046700D462DF0DBFD00F0CDF928F01EF80649BA
S2140046802B462246002028F049FC29462046BDE855
S214004690384028F097BE00BF315503006A4A6B4B7E
S2140046A02DE9F04155685D65516A99656849694C20
S2140046B0D1F80002D865D1F804121966916A5966D5
S2140046C0D16A9966116BD966516B1967D26B586BB4
S2140046D05A67D3E90E2110F0040F08BF11465E4A50
S2140046E01A6500209142D8645DD301F12000A042F3
S2140046F059D888691864C5F30805CE695E64062D26
S21400470055D1564DA84252D3554DA8424FD2058892
S2140047104DF6426085424AD11868C3F89000586842
S214004720C3F8940040F20170A242154605D22E68E6
S214004730B6F1CD3F02F10402F6D00022C3E91E22F4
S214004740C3E92022C3E92222641B424EDFF80CC1D3
S214004750DFF80CE19C648E422CD8D3E91EC7D3E95F
S2140047602065D3E922414FF0000E013AD2B2FF2A6B
S2140047703CD1BEF1000F05D0C3E91EC7C3E92065D2
S214004780C3E92241B3F85430C3F30803DA1E0F2AF4
S21400479050D8DFE802F0563542454F4F4F4F4F4C4A
S2140047A04F4F4F4F4F390021C3E910112A494FF49C
S2140047B02060B9E756F8044D6445CCD37445CAD298
S2140047C0E507C8D5274F062557F8048BA045C2D065
S2140047D0013D15F0FF05F7D10AB9052201E0013ABF
S2140047E0D2B202F11E0543F82540B4E7E0464FF08A
S2140047F0010EBC4637462E4625460C464146B4E7D3
S21400480040F60220BDE8F081174BDB6913F0020F7B
S21400481040F2025318BF1846F4E740F60320F1E7CB
S21400482040F60423B0F5206F08BF1846EAE740F6C6
S2140048300520E7E7013B40F60722412B98BF1046CC
S214004840E0E740F60120DDE700ED00E00010002084
S21400485000E100E000100020000000200C01000035
S21400486062530300781000200020054000F00CB8CA
S21400487000F00AB800F008B800F006B800F004B877
S21400488000F002B800F000B872B61EF0080F09D0AB
S2140048901EF0040F0DD0DFF850E0AEE8FF1F6FF0FB
S2140048A002000CE0DFF840E0AEE8FF1F6FF00E00FD
S2140048B005E0DFF834E0AEE8FF1F6FF0060069465B
S2140048C0EFF309828EE8070086460848084C8545BF
S2140048D001D3A54501D384F30888FFF7DFFE84F3F0
S2140048E00888FFF7A5FE000000100020400000200A
S2140048F00010002082B2074B42B11A80000C064B13
S2140049000ABF4FF6CE2218801A8070474BF6EF6229
S214004910F3E700BF16160020181600200B4BB3F95D
S21400492000201888002AB8BF80F0620042001A8073
S214004930074AB2F9001013880029BCBF83F48053DD
S21400494083F00B035900118058407047161600205C
S2140049501816002008B501F053FE60B10A4B034458
S214004960072B0DD8072B0BD8DFE803F004060A0840
S2140049700A0A0A0CC22008BDC320FCE7C420FAE7D6
S214004980C520F8E7C120F6E7FF1FFF0F014BDA69E5
S2140049905A627047002005407FB51A480121FCF78F
S2140049A0EDFC012211461046FCF7B6FF0421072055
S2140049B0FDF796FF144B6A4603F10806154618687D
S2140049C05968144603C40833B3422246F7D1186820
S2140049D01B79206023710D4C0D238DF80930294674
S2140049E0032320468DF80A3027F0F5FF084B0422F3
S2140049F00221C3F8802161621A60A36A0B43A36296
S214004A0004B070BD30253E006C5503000020054004
S214004A1000E100E0014827F0D2BF00BF00200540BB
S214004A2010B5094A137813F002040CD10749084858
S214004A3009780078884206D006480480064863F065
S214004A407D030170137010BD0A6500200765002005
S214004A500F650020385900200C650020054B064ADB
S214004A6019881288914202BF044A0121117000225F
S214004A701A807047425900204459002013650020D0
S214004A8007B503460091022203493D202CF0B8F9F1
S214004A9003B05DF804FB00BF8055030007B5064B66
S214004AA006491B780093022281233D202CF0A8F9AA
S214004AB003B05DF804FB00BF1165002080550300BD
S214004AC038B50C4D0C4C2A7823789A4200D138BD64
S214004AD00A4800212EF006F8094B1B88834202BFC5
S214004AE0084B01221A702378013303F00703237062
S214004AF0E9E700BF076500200D650020405900204B
S214004B004459002013650020074B93F90030002B12
S214004B1008DB064A137803F04101402904BF43F03E
S214004B2005031370704700BF116500200A6500205A
S214004B3007B5064A06492823CDE900323D207023F2
S214004B4002222CF05DF903B05DF804FB3E00E00F96
S214004B5079550300702807B504D103B05DF804EB5F
S214004B60FFF7E6BF074B08491B780193074B1B78F6
S214004B700093022203463D202CF042F903B05DF874
S214004B8004FB00BF146500207F550300116500205C
S214004B9008B50A4816F054FF094816F051FF0948B0
S214004BA016F04EFF084816F04BFF084816F048FF70
S214004BB0BDE80840064816F043BF00BF4259002033
S214004BC0485900204A5900204059002044590020E6
S214004BD04659002008B5DC22002104482DF0E3FEEB
S214004BE0034B1880034B01221A7008BD166500207F
S214004BF0445900201365002030B585B0FFF7EAFF62
S214004C00FFF708FF4FF07E63244DB3F85230244C74
S214004C104FF6FF72934208BF4FF47A732B8000233F
S214004C202380FFF701FBFFF70DFB0028FBD04FF0BA
S214004C307E634FF6FF72B3F84830934208BF4FF4D6
S214004C40C8632B8000232380FFF7C2FC431E154D4C
S214004C50154C2870DBB20A2B19D8012202FA03F38E
S214004C6040F20352134212D00222C123CDE9003291
S214004C7002900E4984233D202CF0C2F8FF232B70AF
S214004C80D023237005B0BDE83040FFF751BFFFF7D3
S214004C904FFFA023237005B030BD00BF365900205B
S214004CA038590020096500200A6500207E5503005B
S214004CB037B504460D4617F0B5F8022825D81C4827
S214004CC040F21711FFF7D2FC1A4B197801F1400396
S214004CD0DBB2022B1FD901F0A003A02B04D00B06D9
S214004CE019D57E20FFF7CCFE4FF07E63B3F8463032
S214004CF013B1204628F080FBB5B10F4800222146AC
S214004D0003B0BDE830402DF086BE204617F08AF886
S214004D10DC28D4D8D8E7CDE900148423074902223A
S214004D203D202CF06DF8DFE705482A462146E7E7E8
S214004D3084550300F265002048590020C255030040
S214004D404A5900202DE9F74FFFF77CFAAB4C48B3E1
S214004D502378580626D599074CBFA94BA94BAA4AD3
S214004D601B7812789A4232D00120FFF77FFA732020
S214004D70FFF7F0FEA54A13780133DBB213704FF04D
S214004D807E624FF6FF71B2F84E208A4208BF0322B9
S214004D90934219DD9E4B512272201A70FFF7DAFEFD
S214004DA0202323709B4D9C4E94F900202378002AE4
S214004DB018DA13F030030ED01A2028F03CFB2378C4
S214004DC003F07F032370EFE7FFF72AFEEAE7934B33
S214004DD000221A80E6E72A78022AF0D18F4A2B7042
S214004DE01380E9E72A78012A00F0F8800DD9931E8F
S214004DF0012BD9D83178FF2900F02481002940F012
S214004E00F580874B19783246EEE09A0719D57C492B
S214004E107D4A7C4892F800C007780A78ACEB02001E
S214004E20BA1A02F0070200F00700904298BF81F815
S214004E3000C00A78BA4204D123F002032370FFF7B9
S214004E403FFE237813F0300F1FD013F0200F744F5F
S214004E5015D0C2233B706E4B1B78BB7002237B7051
S214004E60237823F03C03237001232B7003206C4B24
S214004E7019783246FFF708F928F0DDFA94E7C123DF
S214004E803B70FFF7A5FBB870E8E713F00C011FD0E6
S214004E90644F13F0040F3978614B0FD06039C9B2F4
S214004EA019708020FFF7ECFD237823F00C032370A5
S214004EB05D4B3A781A7001202870D8E781F080019F
S214004EC019707E20FFF7DCFD237823F00803EEE759
S214004ED09B0737D5DFF82881544A98F800301278B7
S214004EE001919B1A03F0070A27F0EFFB0199DFF800
S214004EF040B181464E482DF088FD0746BAF1000FB6
S214004F0016D1484627F0E7FB4A4B38461F8016F076
S214004F1089FF444B98F800201B7843EA0213404A66
S214004F2043F0080301301370C0B203232B709EE7D2
S214004F30394658462DF0BBFD0AF1FF3307465FFAA7
S214004F4083FADBE7304B2F4F19783A78DFF8D480B6
S214004F504FF07E634FF6FF70B3F84430834208BFCD
S214004F6005230B44013B521A5B1A02F0070203F0BA
S214004F7007039A4228DC30482DF042FDE0B92E485F
S214004F802DF03EFD2C4A2D4B002808BF13462C4A18
S214004F900021184613602DF038FD264B188016F0B9
S214004FA041FF3A7898F8003043EA02131C4A013071
S214004FB01370C0B20223B9E720482DF021FD18B9BE
S214004FC0FFF7A8F90028DAD1174B1A7898F80030BE
S214004FD09A425DD0237843F00803F3E63378FF2B3C
S214004FE04CD00F49C95C3246002043E7114B0139CB
S214004FF0C9B2188817F014F9014604E70A650020BC
S2140050000C6500200F650020076500200B6500205A
S214005010096500201565002010650020385900201D
S214005020F26500200E650020086500200D65002052
S2140050304059002046590020485900204A5900206F
S214005040E02E0020022A1CD1134A1378013303F005
S21400505007031370114B002118682DF043FD104B09
S2140050601048198800222DF0D6FC0F4B1B880BB970
S214005070FFF7DAF80D4B1A780D4B1A7000232B70D9
S21400508092E60C4A1378013303F007031370ECE73B
S21400509003B0BDE8F08F00BF0F650020E02E0020B3
S2140050A04659002040590020385900200E6500203F
S2140050B0086500200C6500202DE9F04FDFF8FC9213
S2140050C085B082460023DFF8F882AAF8003098F808
S2140050D000301BB989F80030FFF7C0FCA94DAA4E76
S2140050E00DF10E0028F0ABF92728044616D09DF8DF
S2140050F00E0099F800B04A460DF10F01FFF712F8BE
S21400510010F0DF0704461BD0FFF7A8FC7A2827D844
S214005110732807D82028DAD0272821D1204605B0C2
S214005120BDE8F08FA0F17404062C19D8DFE804F06F
S2140051300418444A184C4E007420FFF70BFDC6E7CF
S21400514099F800309B4506D0022B0FD88F4B9DF860
S2140051500F2003F80B20202CC2D0002C00F0FD807E
S2140051608B4840F25511FFF781FAB0E7032B10D1B8
S214005170884B1A786AB12A881F700121304632801F
S2140051802DF05EFD01230093318883483A4617F0E0
S21400519001F82B8830889842DDD116F043FEC7B25E
S2140051A0791CC9B228462DF04BFD9DF80F202888A3
S2140051B0394617F049F8CEE77620FFF7CBFCFFF725
S2140051C0A3FC84E77720F8E77920F6E77A20F4E76F
S2140051D00A060DD4032B2BD933785B0604D56F4B08
S2140051E01B78B3EB111F01D0FFF738FC012519E03F
S2140051F001F0E002802A06D1012B19D17D20FFF7AD
S2140052003FFC02250CE0A02A06D1012B10D17F20FE
S214005210FFF736FC032503E07B20FFF79BFC002509
S214005220FFF71CFC3078430604D42023337049E78C
S2140052307C20F2E76B1E022B16D85949DFF884B1A2
S21400524098F800700A789BF8003007F00707A7EB7D
S214005250020C9B1A0CF0070C03F007039C4515D9AB
S2140052607820FFF777FC0025AB1E012B2ED898F888
S214005270003013F0080326D0FFF732F8032D69D06C
S214005280002D7FF41FAFFFF73FFC1BE79742EBD0E4
S214005290444A0F70002310F00200137008D0424AF0
S2140052A01380424B1B78BB42DED0FEF7BDFFDBE728
S2140052B0FEF7DCFF9BF80030BB4201D0FEF7B4FFE0
S2140052C0FFF7FEFBD0E73A4A1370D7E7012DD5D19A
S2140052D0324998F800200B78C2F3021098422DD17C
S2140052E0294D288830B92620FFF70EFC2624FFF724
S2140052F031FC13E7170742BF327842F008023270DB
S2140053003278013303F007030B7022F005024FF0EA
S2140053107E633270B3F846300BB128F06DF82B88F8
S214005320019398F8003000932249852302223D20FD
S2140053302BF066FD2B88AAF80030EFE611073378CD
S21400534002D543F0080371E7DA079CD47520FFF70F
S21400535001FC98E7FFF764FBB4E6DFF8308099F8C5
S214005360003098F80010144EC0297FF431AF012B9E
S2140053707FF45EAFFFF792FB0425FFF78FFB27F065
S214005380D4FF4DE744590020425900201165002003
S2140053908455030013650020126500200E6500206A
S2140053A0076500200B650020385900200C6500209A
S2140053B0FE640020C25503000A6500201465002024
S2140053C0FD6400200F65002008B5114B1B781BB14B
S2140053D0002000F0010008BD0E4B1A780E4B1B781B
S2140053E09A42F5D111F08AFD0028F1D10B482DF034
S2140053F007FB0028ECD00A482DF002FB0028E7D077
S214005400084B1B78002BE3D10120FFF737F8E0E7C5
S214005410FD640020086500200E6500204A59002023
S2140054204859002015650020F0B519B3002820DA89
S2140054302D23B0F1004F137000D04042012119E037
S214005440801B8642ECB205F10105F9D914B9BCF10E
S214005450000F05D04D1C303454544FF0010CE9B207
S214005460013B13F0FF0309D130305054481CC0B242
S214005470F0BD0021034F09234FF0000C57F8046BD2
S2140054800025DEE7C85503002DE9F04F002495B04F
S21400549021468046164603A8442202949B462AF0DC
S2140054A0B2F8A146274602AC25460DF1480A3178E7
S2140054B059B9641BE4B2224629460020C04700289A
S2140054C040F0AF803C44E0B2ACE025291AD0B9F1F8
S2140054D0000F1BD1204600F8011B04465445C0F0BF
S2140054E0F580641BE4B2294622460020C0470146E8
S2140054F0002840F09680274448222846FFB22AF02B
S21400550082F8E2E0B9F1000F00D101363278782A4D
S21400551006D8612A07D8252A5DD039D8002AC8D0EF
S2140055204FF00009DAE7A2F162011629F8D801A3C4
S21400553053F821F0E355000075560000D1560000E0
S214005540215500002155000021550000215500007E
S214005550215500002155000021550000D1560000BD
S21400556021550000215500002155000087560000F7
S21400557021550000215500008756000021550000E7
S214005580D15600002155000021550000C7550000E7
S214005590392A16D82F2AC3D9717801F0DF01582985
S2140055A040F0C380322A06F1010940F0AB805BF878
S2140055B0041B2046042289B227F051FF04464E46BB
S2140055C0AEE7582AACD15BF8041B0222C9B22046CB
S2140055D027F045FF55E0214601F8022B62700C4685
S2140055E09EE7DBF800300193DBF8043000934FF0C1
S2140055F00009009B994502D10BF1080B90E7019B2F
S214005600204613F80910022227F029FF50450446C9
S21400561012D3441BE4B2294622460020C047014666
S21400562018B1002015B0BDE8F08F4822284629F0B2
S214005630EAFF2744FFB22C46009B5A1E4A4581BF0C
S2140056402046202200F8012B044654450FD3641B45
S214005650E4B2294622460020C04701460028E0D191
S2140056604822284629F0CFFF2744FFB22C4609F1EE
S2140056700109BEE75B46204653F8042B00F8012BD1
S2140056809B4604464CE7621BD2B2294600205BF8D4
S214005690049B0092C04704460028C2D1009A0146E7
S2140056A0174428464822FFB229F0ADFFE2B2013483
S2140056B019F802000028F9D149460092C047002890
S2140056C0AFD1009A1744FFB281462C460136EEE66B
S2140056D06C2ADBF800000BF104090ED17378752BE9
S2140056E014BF0121002101D0642B00D101362246CF
S2140056F0FFF79AFECB46044412E7752A0CBF00213A
S2140057000121F4E7342A10D15E46042256F804BB81
S21400571020464FEA1B4127F0A2FE1FFA8BF1042217
S21400572027F09DFEB346044649E74FF00109D5E64B
S214005730054B1A782AB95B78002B14BF0220032089
S21400574070470120704700BFFD6500200329F8B5AB
S21400575098BF134B054698BF5C5C0E4688BF002476
S214005760032805D8DFE800F002080B0E44F0020418
S2140057700C4B1F684FB9F8BD44F00804F8E744F036
S2140057802004F5E744F08004F2E77B681A681442C8
S21400579003D05B683146284698473F68EAE700BF73
S2140057A0EC550300082F002038B5104D2B78ABB110
S2140057B00F4C23781BB127F074FE002323700020C3
S2140057C027F070FE0B4C50B100F0C6FA002320788C
S2140057D02B700121FFF7BAFF0123237038BD064B5B
S2140057E001221A70054B22781A70F7E7FC65002034
S2140057F0F7650020F5650020FB65002001660020A7
S21400580010B526F053FF064B1B7804461BB1BDE8C7
S214005810104026F04FBFFFF7C7FF2046F7E700BF50
S214005820F6650020094A0028137814BF0121FF21DD
S2140058300B44137008D0064B1B78012B04D9054B7C
S2140058401B780BB9FFF7B0BF704700BFFD6500209F
S214005850F5650020FB65002070B5134E26F026FF88
S214005860337805469BB900F0ABFB044620B12846CA
S21400587026F020FF204670BD0C4826F0ADFE00F056
S2140058807FFE0B4B1C6000F079FC0A4B186000F0A2
S214005890D9F927F009FE084B186001232846337013
S2140058A0002426F007FFE5E7F8650020082F002013
S2140058B0102F00200C2F0020042F00202DE9F3418C
