:1000000080410020E9C802006D780000717800008E
:10001000A70A02020002000004180FAC1069D60003
:1000200000000000000000000000000000000000D0
:1000300000000000E0450300000000000000000098
:100040000000000000000000FFFFFFFFFFFFFFFFB8
:10005000FFFFFFFFFFFFFFFFFFFFFFFFFFFFFFFFB0
:1000600000700F000000000000000000FFFFFFFF15
:10007000FFFFFFFF01000000000000000000000083
:100080000000000000000000AB5E0020AB5E00201E
:100090008041002094760300C044030020380020F3
:0C00A000F13700200000100000000000FC
:1002000080410020E9C802006D780000717800008C
:1002100009810000757800007D780000E5C80200C3
:10022000E5C80200E5C80200E5C80200E5C8020012
:1002300081780000E5C80200E5C80200E5C80200B8
:10024000A11C0000C1070300D97B00000C7A00004C
:1002500051FF020019080300CD070300E507030062
:10026000C5070300E1110000B512000019340000B9
:10027000359400000C7A00000C7A0000390400006C
:100280000C7A00000C7A0000D91200000C7A0000F1
:100290000C7A00000C7A00000C7A00000C7A000046
:1002A0000C7A00000C7A00000C7A00000C7A000036
:1002B0001D080300C9070300611A00005508030068
:1002C0000C7A000081F002000C7A00000C7A000029
:1002D0000C7A00000C7A00000C7A00000C7A000006
:1002E0000C7A00000C7A00000C7A00000C7A0000F6
:1002F0000C7A00000C7A00000C7A00000C7A0000E6
:0C0300000C7A00000C7A0000E5C8020036
:10030C00F8B500BFF8BC08BC9E467047F8B500BFF6
:10031C00F8BC08BC9E46704710B5054C237833B921
:10032C00044B13B10448AFF300800123237010BDBC
:10033C000048002000000000C070030008B5034B0B
:10034C001BB103490348AFF3008008BD0000000057
:10035C0004480020C0700300154B002B08BF134B42
:10036C009D46A3F5803A00218B460F461348144A4C
:10037C00121A34F070F80F4B002B00D098470E4B2C
:10038C00002B00D098470020002104000D000D48E0
:10039C00002802D00C48AFF3008034F005F82000A0
:1003AC00290009F0E1FA33F0EBFF00BF0000080070
:1003BC008041002000000000000000004C4700209D
:1003CC00AB5E0020000000000000000070B5134C74
:1003DC008A00A31822449B781D09062D98BF104E45
:1003EC0003F00F0394BF755DFF25062B05719ABFB3
:1003FC000C4DEB5CFF234371FF3B18BF0123837152
:10040C00D37014F82130084C437053788370014634
:10041C00204603F071F80123A36070BD9A540020AC
:10042C00C7440300C0440300002000407FB52249AC
:10043C0022480022FF23CDE901228DF809300378F0
:10044C004C6C8D6B03922C40E407DBB228D5022B4D
:10045C0026D88C6C1A4901EB8301A5B2CE781949C8
:10046C0006B326041ED521F813201749012202FADF
:10047C0003F30A781343154A0B701378CBB100239E
:10048C001478DC40E407D9B20FD501701078012440
:10049C0004FA03F34340DBB201A81370FFF796FF95
:1004AC0004B070BD21F81350DFE70133032BE7D103
:1004BC00F6E703230370F3E700200040A654002066
:1004CC009A540020AC4F0020A8540020A7540020C0
:1004DC0000207047002814BF022000207047012024
:1004EC00704701207047012814BF0220002070477C
:1004FC00012070472DE9F74FDFF87C8007460D4649
:10050C001446994603F10C0A4FF0010B15B903B0D0
:10051C00BDE8F08F102D2E46164A28BF1026F3B2D8
:10052C00494651F8040B42F8040B5145F9D101939B
:10053C009AF800101170104888F80F40002288F8C3
:10054C000E2088F800B001341CF06EFE0B48019BA5
:10055C00E4B23A4612F8011B10F801CF81EA0C0103
:10056C0002F8011CD11BC9B29942F3D3AD1BADB239
:10057C001746CBE7F6540020F5540020F454002025
:10058C002DE9F04F85B016460293BDF838900F9BBD
:10059C00354A01930D468046034600F10C0153F891
:1005AC00040B42F8040B8B42F9D1304C1B781370BE
:1005BC004923237020464FEA1923A37384F80F9024
:1005CC001CF032FE237883EA1623237063784FF0F5
:1005DC00020A734063705246A34600271FE0C2F123
:1005EC001001F31B89B29BB28B42A2EB050028BF12
:1005FC000B46039029460398A1EB050C1FFA8CFCC3
:10060C0008189C45C0B21AD31A44D2B21F44102AFF
:10061C001D44BFB203D120461CF006FE0022B74297
:10062C00DDD312B158461CF0FFFDBAF1010F4FF0AB
:10063C000002029D4E460BD04FF0010ACDE711F897
:10064C0001CB1BF800E08CEA0E0C0BF800C0D2E7D3
:10065C00064B01991B6801980B604346042105B0B9
:10066C00BDE8F04FFFF746BFF6540020F5540020CC
:10067C00F7B5099FBDF82040CDE9004706461D4659
:10068C00FFF77EFF2CB13346012221462846FFF7A7
:10069C0031FF002003B0F0BD2DE9F743BDF8287001
:1006AC000F4C1E4605468846914603463946304651
:1006BC000122FFF71FFF33464A4641462846CDE943
:1006CC000074FFF75DFF042221460B9833F090FE77
:1006DC00002814BF7E20002003B0BDE8F08300BFCB
:1006EC00B754002073B51C46044D8B181E592E6050
:1006FC00CDE90045FFF7D0FF02B070BD9355002047
:10070C00002070470120704701207047002070477F
:10071C00012070470020704700207047012070476F
:10072C00002070470120704770477047002814BFA5
:10073C0002200020704700207047000010B5104CBC
:10074C001049A161032321660F491022C4E9043327
:10075C000E4BE361C4E9191200230D49A362E01D9D
:10076C006362E3622367E3666367226233F085FEAC
:10077C000849204633F081FE2023A37110BD00BF31
:10078C0000580020CE4403007854002088540020E8
:10079C00D7440300DB4403002DE9F84F1F4B1646EA
:1007AC001A7881468A4698460AB9FFF7C7FF182778
:1007BC0007FB09873D6FD7F86CB05D452BD9BC6E34
:1007CC00796E641BB44228BF3446294450462246F5
:1007DC0033F01DFEBB6E2544A244361BAB4208BF52
:1007EC000025ABEB050B5E4528BF5E4656B11823C2
:1007FC0003FB09833246596E5046294433F007FEF9
:10080C003444354424B1182303FB0988C8F87050CC
:10081C002046BDE8F88F0024E3E700BF0058002015
:10082C00F8B504460E46174603F073FB3A460546E8
:10083C0031462046FFF7B0FF0446284603F06FFB15
:10084C002046F8BD2DE9F843124D1E462B78814603
:10085C00884617460BB9FFF771FF03F05AFB69691D
:10086C0000244FF0180C0CFB04535A6E2AB10134BF
:10087C00A142F8DC4FF0FF3407E0A142FADDC3E9F6
:10088C0018989F661A67DA665E6703F048FB204685
:10089C00BDE8F88300580020FFF750BF012270B567
:1008AC001146042003F070F91A4B1B4D1A681B48B3
:1008BC0042F001021A60DA684FF0604442F0807234
:1008CC00DA60174BC4F8B03F00260223C4F8006E60
:1008DC00C4F8806EC5F8F03003F052F800F5D5205E
:1008EC00104B114A00F2FC40B0FBF3F00F4B0138F7
:1008FC002861C4F8406E1A600D4BC4F8803E4FF46A
:10090C008073C5F80433D4F8003E43F48073C4F804
:10091C00003E70BDF0ED00E0000004E006000E00AB
:10092C0055CEACC5F8590D00FF030040001000E097
:10093C000D00010010B50121114802F0D5FE114B3C
:10094C0001241C60002003F0C1FF23460422022175
:10095C00052004F00DF820460DF0C6FDFFF79EFFB4
:10096C000DF0F8FD084B1C70FFF796FF2346402254
:10097C0006490748FFF766FF064B1860C00F10BD0D
:10098C0000350A0010881442D45400204E55002023
:10099C00E2440300B4450020024B1868003018BF35
:1009AC0001207047F0ED00E0054A4170D12303703F
:1009BC001378C370090A8170591C11700420704798
:1009CC009B5500202DE9F74F0E78042E83460F46D9
:1009DC0061D92CF0B1F8DFF8C480751DEDB28246F8
:1009EC004FF6FF710024C146D8F800305BB1A54228
:1009FC0009D901912CF0A0F8A0EB0A0080B2B0F557
:100A0C00FA7F019907D9281B18BF012004233B70DA
:100A1C0003B0BDE8F08FB4B3012C37D0EA1E631CD1
:100A2C009442DBB21CD1CCB24FF06042D2F8800EB3
:100A3C00C00713D51046D9F80CC04CF0807CC9F80F
:100A4C000CC0D0F800CE4CF4807CC0F800CED0F8AE
:100A5C0020C0BCF1000FEED082F820401C46C3E74A
:100A6C00AA1E944202D1C1F30724DDE76A1E944208
:100A7C000FD05C44019314F8024C204606F086FE1D
:100A8C00019B0146D0E75B240123CDE734460223CA
:100A9C00CAE75D24C8E70020B8E700BFF0ED00E02E
:100AAC0000B5084B91B0402269461868FFF7B8FEB4
:100ABC0020B1C2B26946122026F066F911B05DF879
:100ACC0004FB00BFB445002070B5164685180AB962
:100ADC00304470BD01F00F030A2B34BF302437248F
:100AEC002344013A090905F8013DD2B2EFE70000B1
:100AFC00F0B5F9B100281CDA2D23B0F1004F1370BA
:100B0C0000D04042012115E0801B8642ECB205F179
:100B1C000105F9D904B927B14D1C303454540127BF
:100B2C00E9B20133092B09D1303050540131C8B22C
:100B3C00F0BD00210023DFF80CC01F465CF82360D9
:100B4C000025E2E7F44403002DE9F04F95B04FF097
:100B5C00000B02AC81468A4617461D465E46A046EF
:100B6C003B7863B902ABE41AE4B22246194650460C
:100B7C00C847002840F093803444E0B290E0252B25
:100B8C0013D0BBF1000F14D12370013412AB9C4273
:100B9C006DD3A4EB0804E4B2224641465046C84744
:100BAC0000287CD12644F6B260E0BBF1000F00D1E6
:100BBC0001373B78632B00F092801BD8392B09D876
:100BCC00302B80F09E80002BCCD0252B51D04FF0B9
:100BDC00000BDBE7582B00F08B80622BF7D12B68D6
:100BEC0001936B6800934FF0000B009B9B4543D126
:100BFC000835ECE7702B1ED017D8642B01D06C2B6A
:100C0C00E5D16C2B05F1040B28686CD17B78752B26
:100C1C0014BF0121002101D0642B00D101372246E1
:100C2C00FFF766FF04445D46D1E7752BE9D0782BBE
:100C3C005ED0732BCBD1A4EB0804E4B2224602A9FC
:100C4C00504605F1040B2D68C84740BB2644F6B24C
:100C5C00C4B201302B5D002BFAD1224629465046F6
:100C6C00C847E0B926445D46F6B283464446013790
:100C7C0076E723700134AAE7019B204613F80B108A
:100C8C000222FFF721FF12AB984204460ED3A0EBD1
:100C9C000804E4B2224641465046C84718B1002029
:100CAC0015B0BDE8F08F2644F6B24446009B013BDC
:100CBC005B4582BF20232370013412AB9C420BD3C3
:100CCC00A4EB0804E4B2224641465046C84700282B
:100CDC00E5D12644F6B244460BF1010B85E72B68AF
:100CEC0023700435C6E7752B0CBF0021012196E754
:100CFC00204602222978FFF7E7FE05F1040B044693
:100D0C0091E77A7802F0DF02582A19D1322B07F1D9
:100D1C00010B09D129882F1D04222046FFF7D4FE90
:100D2C003D4604465F4652E7342B09D12F1D2D68F2
:100D3C000422290C2046FFF7C7FE0422A9B2EDE7D6
:100D4C004FF0010B22E700002DE9F04F9B46584B6A
:100D5C0085B01B78109F9DF844A0DDF850800646A6
:100D6C0089461546002B00F09280072A00F29180EC
:100D7C000E9B002B00F08D800F9B002B00F08980C8
:100D8C00129BB3F5006F00F38480012801D1002F72
:100D9C007FD0484B03EB05131B7B002B7BD0464CC1
:100DAC0010220021684633F056FB04EB4514102248
:100DBC00B9F1000F5CD14946204633F04CFBA378C7
:100DCC0043F01003A370E37843F03003E370BAF1FF
:100DDC00000F03D1DBB243F00303E3703649129BDF
:100DEC00CDF800B06A01013B885A01EB020C63F3A9
:100DFC000E1088520E9BCCF808300F9BCCF80430A8
:100E0C009DF84C109CF80330012E61F383038CF891
:100E1C00033042D11323CCF80C309CE80F000CF1BA
:100E2C00100E8EE80F00DCF81C20CCF814706FF05C
:100E3C00030161F39F02B9F1010FCCF81C2004D11E
:100E4C000F9BCCF81830CCF804701A492A018B1877
:100E5C0041F802800027159A5A6028469F605E73FD
:100E6C002246694603F010FE384605B0BDE8F08F07
:100E7C000021204633F0EFFA1023A3700323E37014
:100E8C00BAF1000FAAD1DBB243F03003A5E70B484F
:100E9C00EBE70B48E9E70B48E7E7B8F1000FD4D1D3
:100EAC009CF8023068F304138CF80230CDE700BFD5
:100EBC0015550020784900209C4A0020028000F043
:100ECC00018000F0078000F038B5104B1B78054608
:100EDC00BBB1C0B103F01DF80D49002301EB0312A7
:100EEC00147B3CB92B6001231373146003F017F8C7
:100EFC00204638BD0133082BF0D103F010F805481B
:100F0C00F7E70548F5E70548F3E700BF155500205E
:100F1C0078490020048000F0028000F0018000F08D
:100F2C0038B502F0F6FF0B4A05460023D1180C7BAE
:100F3C005CB91033802BF9D103F05CFD064B2846CD
:100F4C001C7002F0ECFF204638BD284602F0E7FF8B
:100F5C000248F9E77849002015550020058000F07B
:100F6C000D4B1B7810B5044693B1072812D802F02C
:100F7C00D0FF0A4B03EB04131A7B2AB100241C7319
:100F8C0002F0CDFF204610BD02F0C9FF0448FAE77D
:100F9C000448F8E70448F6E7155500207849002086
:100FAC00068000F0028000F0018000F013B5164BB3
:100FBC001868019000238DF8043002F0AAFF134B3F
:100FCC001C7824B102F0ABFF114802B010BD012215
:100FDC001A7002F0A4FF0F4B1C731C7783F82C4083
:100FEC0083F83C4083F84C4083F85C4083F86C40B9
:100FFC0083F87C4004230DEB03008DF8073003F0DD
:10100C0019FD2046E1E700BF1845030015550020E7
:10101C00038000F07849002010B588B00E9C07942E
:10102C000D9C06949DF8304005940B9C04949DF8FF
:10103C00284003940024CDE9013400920B4602466B
:10104C0021462046FFF780FE08B010BD10B588B0D1
:10105C000E9C07940D9C06949DF8304005940B9CB7
:10106C0004949DF8284003940024CDE901340092A7
:10107C000B46024601212046FFF766FE08B010BD64
:10108C0008B50A4B1B785BB107280BD8084B03EB50
:10109C0000131B7B43B1002103F0C2FC002008BDF0
:1010AC000448FCE70448FAE70448F8E71555002023
:1010BC0078490020028000F0018000F0078000F0E9
:1010CC0008B50A4B1B785BB107280BD8084B03EB10
:1010DC0000131B7B43B1012103F0A2FC002008BDCF
:1010EC000448FCE70448FAE70448F8E715550020E3
:1010FC0078490020028000F0018000F0078000F0A9
:10110C0008B50A4B1B7853B107280AD8084B03EBD8
:10111C0000131B7B3BB103F009FD002008BD054803
:10112C00FCE70548FAE70548F8E700BF155500202D
:10113C0078490020028000F0018000F0078000F068
:10114C000D4B1B7893B1072812D889B10B4B03EBCD
:10115C0000131B7B73B10A4B1A6A012303FA00F0CC
:10116C0010401ABF00200B7008707047054870477C
:10117C0005487047054870471555002078490020F0
:10118C0000200E40028000F0018000F0078000F08B
:10119C000B4B1B7810B50C4663B107280CD859B112
:1011AC00084B03EB00131B7B43B103F0D5FC206011
:1011BC00002010BD0448FCE70448FAE70448F8E7AF
:1011CC001555002078490020028000F0018000F0C5
:1011DC00078000F02DE9F843174E326EF36E12EAD9
:1011EC00030800D5FEE7154CDFF8549001270025C5
:1011FC0018EA070F16D02368B7669BB1A16862681E
:10120C000131A16028469847637B012B0AD148B96C
:10121C0009EB4513197B1A7F60F3410160F341021E
:10122C0019731A770135082D4FEA470704F110049A
:10123C00DED1BDE8F88300BF00200E4078490020C5
:10124C009C4A002070B5094E0446012504B970BDB6
:10125C0094FAA4F0B0FA80F005FA00F324EA03043F
:10126C0056F82030002BF1D09847EFE7D84B0020F0
:10127C00054B4FF48022C3F880211A604FF4806232
:10128C00C3F880211A60704700E100E038B50446CD
:10129C000D4602F03EFE034B43F82450BDE83840A7
:1012AC0002F03DBED84B0020074BD3F82804D3F8EE
:1012BC001C24104020F42A5020F02A004004400C3A
:1012CC00C3F82404FFF7BEBF00A00040074BD3F8BF
:1012DC002804D3F81C24104020F4AA4020F0550018
:1012EC000004000CC3F82404FFF7ACBF00A00040BE
:1012FC00104A4161136830B51546ABB91060836074
:10130C0011E0091B9C6841611A467CB123465C695B
:10131C008C42F6D9002CF4D052B19060836013B19A
:10132C005A69511A596130BD0022F0E72346F4E79F
:10133C002860F3E72C4F002010B500F027FB094B79
:10134C00094A196831B11368C41A4B69A34203D313
:10135C001B1B4B61106003E0C01A002310604B6133
:10136C0010BD00BF2C4F00204C4C002038B50F4D49
:10137C002B685C690E4B1B6802201C4400F034FB8C
:10138C00204600F009FB0B492A6800230B70D0881B
:10139C00800702D501230B7038BD9268002AFBD060
:1013AC0050690344012BF2D9F6E700BF2C4F002003
:1013BC004C4C00203955002070B59DF81450057127
:1013CC00002516468560049ABDF81850C580044661
:1013DC000260C0E903360D4629B961610BB11146B3
:1013EC00984796B1354602F094FD0646FFF7A4FFE8
:1013FC0029462046FFF77CFF054B1B68A34201D111
:10140C00FFF7B4FF304602F08AFD002070BD00BF2C
:10141C002C4F00200C4A136800217BB183420AD167
:10142C00836879B18B6083681BB15A6941690A443E
:10143C005A610020704719469B68EEE70028EFD0F0
:10144C00022070471360EEE72C4F002070B5154E4C
:10145C0002F05FFD34780546FCB9134B1C60134B4E
:10146C001C60134B1C8000F04FFA012000F0BCFAFA
:10147C0000F008FB0F4B0246186020B9284602F01A
:10148C004EFD232070BD23460B4840F2E73132F06D
:10149C00F7FD0A4B186001233370284602F03FFD1C
:1014AC000020EFE71B5500202C4F00204C4C002057
:1014BC0016520020284F002018FCFFFF544C00202F
:1014CC002DE9F0410546F8B102F023FD0F4F064619
:1014DC00FFF732FF2846D7F80080FFF79BFF044642
:1014EC0028B1304602F01BFD2046BDE8F081A8452E
:1014FC003B6803D123B1FFF739FFF2E7002BF0D1A2
:10150C00022000F07FFAECE72224EDE72C4F0020BC
:10151C00F0B50D4685B016461F46044680B1FFF760
:10152C00CFFFBDF82C3002939DF828300022CDE976
:10153C000073294633462046FFF73EFF05B0F0BD49
:10154C002220FBE738B50C46054698B191B1002333
:10155C000B7002F0DEFC084B1B6801210BB12278EA
:10156C001AB102F0DCFC002038BD9D420CBF21708A
:10157C009B68F3E72220F7E72C4F0020F0B587B0EB
:10158C001F4600230D4616468DF817300446A0B1B1
:10159C000DF11701FFF7D6FF9DF817207AB9BDF8AA
:1015AC00343002939DF830302946CDE90073204643
:1015BC003346FFF701FF07B0F0BD2220FBE7032005
:1015CC00F9E70000F8B50C460646C8B1C1B102F007
:1015DC00A0FC0546FFF7B0FE73692360134B1B6834
:1015EC00B3420FD023B9284602F099FC03201CE02B
:1015FC00596922689B680A442260F1E700230FE0D6
:10160C00222012E00A4E276800F0C0F93368C01A95
:10161C008742F3D900F0BAF93368C01A23681B1A51
:10162C002846236002F07BFC0020F8BD2C4F0020E4
:10163C004C4C0020F8B507460E4602F06AFC124BE3
:10164C001B680546002423B9284602F068FC1B20C1
:10165C0015E05A691444DA88BA4213D10B4F00F0E2
:10166C0095F93B68C01AA0420AD200F08FF93B688A
:10167C00C01A201A3060284602F051FC0020F8BD38
:10168C000020F7E79B68DEE72C4F00204C4C002035
:10169C00014B1878704700BF3955002038B502F05F
:1016AC0038FC054600F072F90446284602F037FC77
:1016BC00204638BD70B502F02CFC064600F066F9E9
:1016CC00094B1C8805460120A4B200F0B3F918B1EF
:1016DC0000F05CF901340546304602F020FC002293
:1016EC0042EA0500214670BD16520020014B1868D5
:1016FC00704700BF284F00200A4B1B68834210B56F
:10170C000C460CD3084B19684FF47A720023A0FBDB
:10171C00010132F0B5FC01302060002010BD212009
:10172C00FCE700BF544C0020284F0020104B1A68D7
:10173C004FF47A7310B5A0FB0301A2B1531E1342F0
:10174C0011D1B2FA82F2C2F11F02C2F12004A2F14D
:10175C00200301FA04F420FA02F2224321FA03F3E3
:10176C0042EA030010BD002332F08AFCFAE700BF06
:10177C00284F0020F8B516461BA3D3E900238B4253
:10178C0008BF82422AD3174B1A684FF47A73A0FB16
:10179C00034503FB0155C2B1531E13EA020014D1D9
:1017AC00B2FA82F2C2F11F02C2F12007A2F12001AB
:1017BC0024FA02F305FA07F73B4325FA01F10B4330
:1017CC0025FA02F2C6E90032F8BD0023204629466C
:1017DC0032F056FCC6E900010020F5E72120F3E7C2
:1017EC00AFF30080284F0020EFA7C64B378941008C
:1017FC00C2072DE9F84F04460BD53F4A1388013335
:10180C009BB21380FFF798FD3C4B1B680BB1FFF7A5
:10181C00ADFDA3076DD53A4F00F0B8F83D68804692
:10182C00451B02F076FB002683463246B246334B0C
:10183C001C6814B16369AB4214D9012E314B51D1E0
:10184C00D288022A4ED11E70002C4ED06369C7F884
:10185C0000805D1B6561FFF789FD5846BDE8F84FB8
:10186C0002F05DBBC7F8008023462A4659699142B5
:10187C0009D8187994F804C0844588BF1C469B6825
:10188C00521A002BF2D1584602F049FBD4F814B08E
:10189C00C4F814A002F03DFB81462046FFF7BAFDC8
:1018AC00484602F03CFB23694BB102F032FB216944
:1018BC0081462046FFF71CFD484602F030FBE368EA
:1018CC0013B121682046984700F060F8D844A5EB86
:1018DC0008058146054402F01CFB0136834622466E
:1018EC00C846A4E700221A70AEE7022000F08AF87E
:1018FC00B3E7BDE8F88F00BF165200202C4F002034
:10190C004C4C0020A455002010B51C4B86B05968D7
:10191C00186803AA03C2197A53F8090F11700190C1
:10192C009A8817489B79ADF8082001218DF80A3068
:10193C00002401F0D9FE03A88DF80C408DF810405E
:10194C0003F0C4FA01A901208DF8044003F09EFABB
:10195C000C4A536A23F4FF6323F00703536240F2EB
:10196C00FF7313620120946003F0AAFA064B4FF048
:10197C008042C3F880211A6006B010BD1C450300DC
:10198C00A00914000020044000E100E0014B98681D
:10199C00704700BF00200440114A9368516D926952
:1019AC00520704D4CA1A022A01D899420DD1C21A7C
:1019BC00012A98BF981C0A4BB0F1FF3F28BF013099
:1019CC0058655A6A42F004025A62064A137833B1D7
:1019DC0003490B6D43F002030B6500231370704732
:1019EC0000200440F04600208207054A00F0010365
:1019FC00516A48BF43F004030B435362704700BF66
:101A0C0000200440830700F0010209D5074B012197
:101A1C00197007490B6D23F0030342F004020B65A8
:101A2C0003494B6A23EA02034B627047F0460020DD
:101A3C0000200440064B01289B6904D0022805D1E4
:101A4C00C3F38000704703F001007047002070471B
:101A5C000020044010B502F05CFA094A9369044670
:101A6C00590703F0010003F0070348BF40F00200E0
:101A7C001362FFF7BDFE2046BDE8104002F04FBADE
:101A8C0000200440014801F07BBF00BFA0091400F6
:101A9C00044B4FF04042DA621A6B22F040421A6358
:101AAC00704700BF00300E402C48F0B50022036890
:101ABC002B4D114654592CB11E68AC18002E36D142
:101ACC00234601210832282AF4D101B103602549AB
:101ADC00254E0B680022144695592DB11F68B51878
:101AEC00002F2BD12B4601240832282AF4D104B123
:101AFC000B6000681D4B026842B3DA69007922F072
:101B0C00FF020243DA611A6B42F0804209681A63E1
:101B1C000A68164BF2B1DA69097922F47F4242EA7B
:101B2C000122DA611A6B42F000421A63F0BD1E7991
:101B3C002779B74284BF23460121C3E71F7995F863
:101B4C0004C0BC453CBF2B460124CDE71A6B22F0E8
:101B5C008042DBE71A6B22F00042E6E7284C0020BB
:101B6C00D44E0020504C0020FC4E002000300E4083
:101B7C0008B51B4B1B4801221A700021282232F099
:101B8C006AFC28220021184832F065FC174A184BD1
:101B9C0013601849184A13600A684B6DC2F3074268
:101BAC00FF2A02D0DBB2FF2B01D19023192213485C
:101BBC0002EB820103EBD1010160DB000521B3FBD9
:101BCC00F1F313440E4A1360FFF762FF0D4B012231
:101BDC00C3F880211A60FFF767FF002008BD00BF23
:101BEC0077540020D44E0020FC4E0020284C0020BE
:101BFC00804C0020B081E00F504C00207049002038
:101C0C007449002000E100E008490B6A0A6ADBB263
:101C1C00D2B29342F9D1064A0520DB00B3FBF0F3B4
:101C2C001068C31A03F3070040B2704700300E402F
:101C3C007449002070B5144C226B616A0A4011D5AE
:101C4C00124B1B681E6836B100251D605D60FFF7E6
:101C5C00DBFF2946B0474FF00043E362BDE870401C
:101C6C00FFF722BF5300F9D5094B1B681C6834B130
:101C7C0000221A605A60FFF7C7FF0121A047024BF0
:101C8C004FF08042DA62E9E700300E40504C002001
:101C9C00284C0020FFF7CEBF38B141B1013AB2F564
:101CAC00006F044838BF0020704703487047014854
:101CBC00704700BF037000F0027000F038B50446A6
:101CCC000D4602F026F9A28892B222B92A6002F0DF
:101CDC0026F9064838BD6388142202FB03430833F7
:101CEC002B6002F01CF90020F4E700BF0B7000F031
:101CFC0038B504460D4602F00CF9A3889BB223B903
:101D0C002B6002F00CF90C4838BD6388E188142272
:101D1C0002FB034308332B6063885A1C92FBF1F3DC
:101D2C0001FB13239BB26380A388013B9BB2A3806E
:101D3C0002F0F5F80020E7E70B7000F0F8B5044668
:101D4C0017460D4602F0E5F8A388E2889A4206464B
:101D5C0005D800233B6002F0E2F81648F8BD238852
:101D6C00142202FB0343083305F1100C2A4603CA64
:101D7C00624518605960154603F10803F6D11068E6
:101D8C0018602388E188142202FB034308333B606C
:101D9C0023885A1C92FBF1F301FB13239BB2238083
:101DAC00A38801339BB23046A38002F0B8F8002020
:101DBC00D4E700BF0A7000F0034610B593F8323038
:101DCC000068012B0AD102F0FDFE0446FFF78EFCE1
:101DDC0024235843B0FBF4F0013010BD03F0AEF9EE
:101DEC00F3E70000427E30235343044A1A44437FF6
:101DFC0003EBC2039B001868C0B270471CA01042D2
:101E0C0013B51D4A002352F82340617F81420ED046
:101E1C000133042BF7D102B010BD0028FBD19DF883
:101E2C000730002BF7D06068FFF72AF9F3E794F836
:101E3C003130022BEFD12046FFF7D4FF637D2075A4
:101E4C00022BE8D194F82E3003F0FF02002BE2D1E4
:101E5C0002A9606801F8012DFFF772F9237D1BB10F
:101E6C0094F82F30002BD8D0002384F82F306068E2
:101E7C00FFF726F9CFE700BF384F002090F832303B
:101E8C0053B903680422DA601A699007FCD55A6FBB
:101E9C0042F002025A677047012B0CD103685A6C4E
:101EAC009107FCD404225A609A689207FCD55A6DAB
:101EBC0042F002025A65704790F8323053B9036809
:101ECC000122DA601A69D007FCD55A6F42F0010280
:101EDC005A677047012B0CD103685A6C9107FCD4DC
:101EEC0001225A609A68D207FCD55A6D42F0010261
:101EFC005A65704790F832303BB903685A6F22F03C
:101F0C0001025A670222DA607047012B09D103687B
:101F1C005A6C9207FCD45A6D22F001025A650222C7
:101F2C005A6070470F49104B0A782AB9C3E900224E
:101F3C00C3E9022201220A70002253F822108142C6
:101F4C0008D00132042AF8D1002153F821201AB903
:101F5C0043F821000020704701310429F5D10348D2
:101F6C00704700BF9C560020384F0020027000F0D4
:101F7C0010B50446FFF71AF80021201DFEF7A4FF48
:101F8C00014608B1044810BD04F10800FEF79CFF9F
:101F9C000028F8D0F6E700BF0E7000F038B5044604
:101FAC0001F0B7FF616B01390546616319B9044A49
:101FBC00012006F047F92846BDE8384001F0AFBFD4
:101FCC005845030037B591F832200B68012A0BBF36
:101FDC009C681C69C4F3C004C4F340140D46084645
:101FEC0034B1FFF7DBFF022385F8383003B030BD86
:101FFC00FFF7E2FECDE9004401462B46024A0348B6
:10200C00FFF7BCFAF2E700BFD11F0000A858002070
:10201C0038B5044601F07DFF636B054623B90121F9
:10202C00054A084606F00EF9636B013363632846D4
:10203C00BDE8384001F073BF584503007FB501235C
:10204C0080F82C3090F8323093B90C4A0368039224
:10205C000022049002924A680192012200920A68BE
:10206C00016980681C33FEF7F1FF07B05DF804FBD3
:10207C00012BEAD0002380F82C30F6E7DD27000096
:10208C00F0B5012380F82D3090F8323089B0044639
:10209C000F465BBB0568343501F03BFF0DF11F01AA
:1020AC0006461948FFF74EFA40B99DF81F302BB180
:1020BC001548FFF705FA2046FFF770FF304601265A
:1020CC0001F02DFF204684F83860FFF7A1FF0F4B7D
:1020DC0003930023049402937B68E1686068CDE964
:1020EC0000632A463B68FEF797FF0BE0012B06D1F5
:1020FC0005682B6843F4005345F8283BCCE70023D4
:10210C0080F82D3009B0F0BDA85800201D2100002A
:10211C00F0B585B003A9906A1446FFF7CFFD0646CB
:10212C002046FFF749FE002523460146CDE9005520
:10213C001A4A1B48FFF722FA1A4B9E421FD0039BE8
:10214C001D619D6001F0E5FE039AD768064627B134
:10215C00D2E9002329462046B84703A9A06AFFF715
:10216C00C7FDA06A83889BB263B103A9FFF7A6FDE4
:10217C0003992046FFF784FF304601F0D0FE012082
:10218C0005B0F0BD84F82D3094F83230012B01BF2E
:10219C002268136823F400531360EDE7D11F00008D
:1021AC00A85800200B7000F073B504460D46C07D96
:1021BC00E67E002934D001230422314602F0D8FBFC
:1021CC0001230222217F207E02F0D2FB94F83130D1
:1021DC00022B16D100230122617F607E02F0C8FB26
:1021EC0000230422A07EA17F02F0C2FB0123627FA8
:1021FC00607E01930093114602F074FB002002B044
:10220C0070BD032BFAD100230122617F607E02F0A6
:10221C00AFFB00230422A17FA07E02F0A9FBEDE717
:10222C000B460A46314602F0A3FB2B462A46217F79
:10223C00207E02F09DFB94F83130022B10D12B46FE
:10224C002A46617F607E02F093FB2B462A46A07ED5
:10225C00A17F02F08DFB627F607E01950123C9E7AF
:10226C00032BCBD12B462A46617F607E02F080FB8C
:10227C002B462A46CFE790F8323013B90368186919
:10228C007047012B1CD103689B6803F00200DA072E
:10229C0048BF40F00100590748BF40F008001A073A
:1022AC0048BF40F02000D90648BF40F040009A06D5
:1022BC0048BF40F080005B0603D540F400507047E7
:1022CC00002070472DE9F3410D460446002879D0D3
:1022DC0001F01FFE012D06463BD1A36A9B889BB2E1
:1022EC00002B3DD06068FEF70BFF0023A06A84F83A
:1022FC002D3083889BB273B101A9FFF7DFFC0199E4
:10230C006068364F0831FEF743FF019B1F61A06ADE
:10231C0083889BB253BB2046FFF7ADFF8304FAD5ED
:10232C00023D012D10D8A068FEF7EAFE0023606A7A
:10233C0084F82C3083889BB23BBB94F83130032B50
:10234C0002D02046FFF7D6FD304601F0E8FD002014
:10235C0009E0022D38D1636A9B889BB2002BDFD138
:10236C0001F0DDFD1E4802B0BDE8F08101A9FFF7C8
:10237C00BFFC019BD3F80C80B8F1000FC7D09B6851
:10238C00002239462046C047C1E76946FFF796FC54
:10239C000099A068114F0831FEF7FAFE009B1F61EF
:1023AC00606A83889BB2002BC7D06946FFF7A0FCFC
:1023BC00009BDD68002DF3D09B6800223946204637
:1023CC00A847EDE70748CEE7032DA9D1A36A9B8860
:1023DC009BB2002B86D1636A80E700BF097000F0C6
:1023EC00087000F0027000F0436A9888C0B2704721
:1023FC002DE9F3410546406A84889846A4B200232F
:10240C000E461746CDE900333CB16946FFF756FC42
:10241C0001A90446A868FEF7BBFE009971B16CB91E
:10242C004868019BC01A3860C8F800300B683360EC
:10243C002846FFF720FF02B0BDE8F0810021C8F864
:10244C00001039603160F3E7836A9888C0B2704736
:10245C002DE9F3410546806A84889846A4B200238E
:10246C000E461746CDE900333CB16946FFF726FC12
:10247C0001A904466868FEF78BFE009971B16CB92E
:10248C004868019BC01A3860C8F800300B6833608C
:10249C002846FFF7F0FE02B0BDE8F0810021C8F835
:1024AC00001039603160F3E7007D70472DE9F04191
:1024BC0004460E461746FFF7EFFB804670BB09201B
:1024CC0001F04CFD0546A26A93889BB213B194F8B7
:1024DC002E3033B394F8323043BB23681D6905F0BA
:1024EC0002051DB92046FFF7C9FC0025012384F81D
:1024FC00303094F832301BBB3744BE4220681AD1BE
:10250C0003699E06FCD54DB994F832303BBB236869
:10251C005A6F22F002025A670822DA604046BDE880
:10252C00F081002DD0D0FEF755FECCE7012BD9D190
:10253C0023689D68D3E716F8011B02F089FEDCE7DF
:10254C00012BEBD13744B742206803D183681907BC
:10255C00FCD5D8E716F8011B02F068FBF3E7012B5A
:10256C00DCD123685A6C9207FCD45A6D22F002021B
:10257C005A6508225A60D1E710B50446B0B190F8FC
:10258C002E3033B990F83130022B0AD06068FEF748
:10259C0077FD94F82E300133DBB284F82E30002016
:1025AC0010BDFFF71FFC0028F3D1EFE70048F7E759
:1025BC00027000F010B50446D0B190F82E30CBB1BB
:1025CC0090F82E30012B06D190F83130022B0AD026
:1025DC006068FEF775FD94F82E30013BDBB284F891
:1025EC002E30002010BDFFF7FDFB0028F3D1EFE7E4
:1025FC000148F7E70148F5E7027000F0057000F0BC
:10260C0037B590F83150022D044618D1A37F407D88
:10261C0001229A40A37E30215943134B0B4410B92D
:10262C0003F1806303E0012805D103F1C0631A6054
:10263C00002003B030BD217D0029F6D1F0E7012D3B
:10264C00F6D1037D73B911238DF80730FFF794FF92
:10265C002A460DF107012046FFF728FF2046FFF719
:10266C00A9FFE5E71323EFE70CA0004090F8313009
:10267C00032B05D00229417518BF0175FFF7C0BFA8
:10268C0000487047057000F037B50446002868D044
:10269C00354B1B7843B1354A002352F823108C423A
:1026AC004FD1002142F8231003212046FFF70AFEE8
:1026BC0000212046FFF7DAFF00212046FFF774FDCA
:1026CC0094F83230002B40D123680A22DA600021C2
:1026DC00206A01F009F894F83130022B03D1002163
:1026EC00607FFEF7D3FD6068FEF73AFCA068FEF74A
:1026FC0037FCFEF715FC626A00231380538093802D
:10270C00A26A13805380938001F003FC0DF1070142
:10271C0005461748FEF716FF28B99DF8073013B188
:10272C001348FEF7CDFE284601F0F9FB636B002B36
:10273C0004DD012363632046FFF730FC002003B067
:10274C0030BD0133042BA8D1AEE7012BBFD12068DB
:10275C0002F058FA23685A6C9207FCD40A225A6089
:10276C00B5E70448EBE700BF9C560020384F00202B
:10277C00A8580020027000F0F0B587B00446164649
:10278C00FFF78AFA0546F0B9CDE9011604936A46BB
:10279C000E4B606A039601A90593FFF7CFFA054625
:1027AC0088B994F82C3073B92046FFF785FB009953
:1027BC002046FFF743FC94F83130032B03D02575EA
:1027CC002046FFF71DFF284607B0F0BD017000F052
:1027DC0073B5506A01A91446FFF770FA334B98424F
:1027EC002FD094F83200019B002836D12268116C4E
:1027FC0011F4007128D02E49196198604FF40073C0
:10280C00936401F086FB0199CD68064635B14A68A0
:10281C008B682046D31A0A680969A84701A9606A1F
:10282C00FFF766FA606A8588ADB2002D2FD001A93A
:10283C00FFF744FA01992046FFF700FC304601F0FF
:10284C006EFB012002B070BD106CC5051BD519487C
:10285C00186199604FF48073D2E7012813D1226874
:10286C00D16A11F0800106D01149196100219960DB
:10287C0080235363C5E7D06A400604D50D48186120
:10288C0099604023F5E700221A619A60B9E70123A9
:10289C0023752046FFF7B4FE94F8313084F82C50A1
:1028AC00032BCBD02046FFF725FBC7E70B7000F0BE
:1028BC000D7000F00C7000F02DE9F041094F04464A
:1028CC000D460FCF88B001AE0FC697E8070086E81B
:1028DC000700002C00F0C68445B9034E304608B002
:1028EC00BDE8F0813C450300037000F03C22002160
:1028FC00204631F0B0FD2046FFF714FB06460028B9
:10290C00ECD12B7C84F8313001222B6884F83820F0
:10291C00CC4A2360934284F8320040F07F81CA4B4A
:10292C002362CA4BE3604FF440232361D5E90623AD
:10293C000026626216805680968084F82C60A36212
:10294C001E805E809E806B6803936B89ADF814309B
:10295C00AB89ADF81230AB7B8DF810300121EB7BDD
:10296C00BB4884F82D6084F82F6005278DF816304D
:10297C008DF8117000F0B8FE0121B64800F0B4FEDD
:10298C000121206A00F0B0FE01A928688DF80460CE
:10299C0002F020FCD5F800C06A7ADCF878002B7ABB
:1029AC0020F4F85020F01F00104340EA03200321CC
:1029BC00CCF87800CCF874102068DFF888C2604539
:1029CC0040F06181BB4240F27981981F042840F2AB
:1029DC007781A3F10B00B84240F27481A3F111008E
:1029EC00062808D9A3F11801062940F26D811F2B86
:1029FC0014BFFF213946042AE17540F26781511F4B
:102A0C00042940F26581A2F10A01052940F2628194
:102A1C00A2F11001062940F25F81A2F117010729EA
:102A2C0040F25C811F2A14BFFF2100212176002B6C
:102A3C0058D0012B56D0022B54D0032B52D0042B40
:102A4C0050D0052B4ED0062B00F05281072B00F0F6
:102A5C005181082B00F05081092B00F04F810A2B7B
:102A6C0000F04E810B2B00F059810C2B00F03881BB
:102A7C000D2B00F037810E2B00F036810F2B00F060
:102A8C003581102B00F03481112B00F02D81122B8D
:102A9C0000F02C81132B00F02B81142B00F02A81D9
:102AAC00152B00F02981162B00F02881172B00F034
:102ABC002781182B00F02681192B00F025811A2B69
:102ACC0000F024811B2B00F023811C2B00F02281B1
:102ADC001D2B00F021811E2B00F020811F2B0CBF21
:102AEC000723FF23E376002A00F0A883012A00F0D5
:102AFC00A783022A00F09083032A00F08F83042A14
:102B0C0000F08E83052A00F08D83062A00F08C835A
:102B1C00072A00F08B83082A00F08A83092A00F028
:102B2C0089830A2A00F06E830B2A00F06D830C2A2D
:102B3C0000F06C830D2A00F06B830E2A00F06A8380
:102B4C000F2A00F06F83102A00F06283112A00F024
:102B5C006183122A00F06683132A00F06583142A1D
:102B6C0000F06483152A00F06383162A00F0628358
:102B7C00172A00F06183182A00F06083192A00F0EC
:102B8C005F831A2A00F048831B2A00F047831C2A13
:102B9C0000F046831D2A00F035831E2A00F0348392
:102BAC001F2A14BFFF23002323776B7C6376AB7C37
:102BBC006377EB7CA3762B7DA37701212046FFF76F
:102BCC00F3FA064600287FF489AE01F0A2F92F7CB7
:102BDC00032F804640F036832B682A8CDA675A6EB6
:102BEC0042F004025A665A6F42F030025A67286863
:102BFC004FF0FF3383642B7C032B0CBF0521042186
:102C0C0002F0AEFA2B684FF44062DA602046FFF710
:102C1C00AFF90646404601F082F95FE60E4A934250
:102C2C0006D10E4B23620E4BE3604FF450237CE62F
:102C3C000C4A93421CD10C4B23620C4BE3604FF4B7
:102C4C00602372E6000001400042040001000C0009
:102C5C004041050000350A00000401400052040008
:102C6C0001000D00000801400062040001000E008C
:102C7C00C54A93427FF431AEC44B2362C44BE3602C
:102C8C004FF4702351E6DFF80CC3604548D1052B97
:102C9C0014D9981F042813D9A3F10B00052811D9B6
:102CAC00A3F1110006287FF6A6AEA3F118010629A0
:102CBC000AD91F2B14BFFF2105219CE631469AE649
:102CCC00012198E6022196E6394694E60021ADE60C
:102CDC000121ABE60221A9E60321A7E60521A5E621
:102CEC000723FFE60823FDE60923FBE60A23F9E6A2
:102CFC000B23F7E60C23F5E60D23F3E60E23F1E6A2
:102D0C000F23EFE60023EDE60123EBE60223E9E6D1
:102D1C000323E7E60423E5E60523E3E60623E1E6E1
:102D2C00DFF874C2604540F03981042B40F2F88022
:102D3C00591F032940F2F680A3F10901042940F23E
:102D4C00F380A3F10E010E2940F2F080A3F11D01D6
:102D5C00012940F2ED801F2B14BFFF210A21032A09
:102D6C00E17540F2E780111F032940F2E580A2F1E2
:102D7C000801042940F2E280A2F10D010E2940F273
:102D8C00DF80A2F11C01022940F2DC801F2A14BF53
:102D9C00FF2100212176002B00F0DC80012B00F0BC
:102DAC00DB80022B00F0DA80032B00F0D980042B9F
:102DBC0000F0D880052B00F0E380062B00F0E280B9
:102DCC00072B00F0C180082B00F0C080092B00F00D
:102DDC00C3800A2B00F0C2800B2B00F0C1800C2B9F
:102DEC0000F0C0800D2B00F0BF800E2B00F0C880CF
:102DFC000F2B00F0C780102B00F0A880112B00F0D7
:102E0C00A780122B00F0A680132B00F0A580142BAA
:102E1C0000F0A480152B00F0A380162B00F0A280EC
:102E2C00172B00F0A180182B00F0A080192B00F0BC
:102E3C009F801A2B00F09E801B2B00F09D801C2B7A
:102E4C0000F09C801D2B00F09B801E2B00F09A80C4
:102E5C001F2B0CBF0223FF23E376002A00F0D28144
:102E6C00012A00F0D181022A00F0D081032A00F05F
:102E7C00CF81042A00F0E081052A00F0DF81062AC8
:102E8C0000F0DE81072A00F0C781082A00F0BA8121
:102E9C00092A00F0B9810A2A00F0B8810B2A00F047
:102EAC00B7810C2A00F0B6810D2A00F0C5810E2ADC
:102EBC0000F0C4810F2A00F0AF81102A00F0AE811F
:102ECC00112A00F0AD81122A00F09C81132A00F027
:102EDC009B81142A00F09A81152A00F09981162AF8
:102EEC0000F09881172A00F09D81182A00F09C812F
:102EFC00192A00F09B811A2A00F09A811B2A00F0F3
:102F0C0099811C2A00F098811D2A00F097811E2AB5
:102F1C0000F096811F2A08BF052318BFFF2343E644
:102F2C0031461CE708211AE7012118E7394616E754
:102F3C000A2114E700212DE708212BE7012129E7BD
:102F4C00052127E70A2125E7022385E7032383E7E9
:102F5C00042381E705237FE706237DE707237BE72F
:102F6C00082379E7092377E70A2375E70B2373E72F
:102F7C000C2371E70D236FE70E236DE70F236BE72F
:102F8C00002369E7012367E7000C0140007204008D
:102F9C0001000F000004014000080140B34EB04294
:102FAC007FF49BAC072B21D9A3F10801012940F236
:102FBC00EF80A3F10A01052940F2EC80A3F1100186
:102FCC00012940F2E980A3F11201052940F2E680C3
:102FDC00A3F11801042940F2E380A3F11D0101299A
:102FEC0040F2E0801F2B14BFFF210A21062AE17555
:102FFC0040F2DA80D11F012940F2D880A2F10901F8
:10300C00052940F2D580A2F10F01012940F2D280AE
:10301C00A2F11101052940F2CF80A2F11701042978
:10302C0040F2CC80A2F11C01022940F2C9801F2A77
:10303C0014BFFF2103212176002B00F0C780012B48
:10304C0000F0C680022B00F0C580032B00F0CC8072
:10305C00042B00F0CB80052B00F0CA80062B00F06F
:10306C00C980072B00F0C880082B00F0B580092B15
:10307C0000F0B4800A2B00F0A5800B2B00F0A4808C
:10308C000C2B00F0A3800D2B00F0A2800E2B00F077
:10309C00A1800F2B00F0A880102B00F0AB80112B1F
:1030AC0000F0AA80122B00F0A980132B00F0A8804E
:1030BC00142B00F09180152B00F09080162B00F053
:1030CC008F80172B00F08E80182B00F08D80192B21
:1030DC0000F08C801A2B00F08B801B2B00F08A8068
:1030EC001C2B00F089801D2B00F088801E2B00F01B
:1030FC0087801F2B0CBF0223FF23E376002A00F0EE
:10310C008780012A00F08680022A00F08B80032A37
:10311C0000F08A80042A00F08980052A00F088805B
:10312C00062A00F08780072A00F08A80082A73D0CC
:10313C00092A67D00A2A67D00B2A67D00C2A67D0D5
:10314C000D2A67D00E2A6DD00F2A71D0102A71D09B
:10315C00112A71D0122A71D0132A71D0142A5BD083
:10316C00152A5BD0162A5BD0172A5BD0182A5BD0A5
:10317C00192A5BD01A2A5BD01B2A5BD01C2A5BD085
:10318C001D2A5BD01E2A5BD01F2A08BF0823C4E669
:10319C0008212BE7012129E7092127E7022125E74F
:1031AC00052123E70A2121E7032144E7082142E70F
:1031BC00012140E709213EE702213CE705213AE7DE
:1031CC000A2138E7062398E7072396E7082394E7B4
:1031DC00092392E70A2390E702238EE703238CE767
:1031EC0004238AE7052388E70B2386E70C2384E76F
:1031FC000D2382E70E2380E70F237EE700237CE775
:10320C0001237AE70623CFE40723CDE40823CBE49C
:10321C000923C9E40A23C7E40323C5E40423C3E454
:10322C000523C1E40B23BFE40C23BDE40D23BBE455
:10323C000E23B9E40F23B7E40023B5E40123B3E470
:10324C000223B1E4022F7FF4D2AC607F0849FEF771
:10325C001DF8FEF70DF8A675267567752046FFF765
:10326C00CFF9C4E4034EFFF739BB00BF000C01409B
:10327C000D1E0000027000F090F83120012A10B5EC
:10328C00034610D102290ED0827D8A4201D1002042
:10329C0010BD997511B9FFF78DF9F8E70129F6D131
:1032AC00FFF76AF9F3E70148F2E700BF057000F099
:1032BC00F0B587B004461646FEF7EEFC054658BB43
:1032CC000493194B059394F832300396CDE901160B
:1032DC002BBB23681B6903F0020313B92046FEF7CE
:1032EC00CDFD6A4601A9A06AFEF728FD054698B9EE
:1032FC0094F82D3083B900F00CFEA36A9B889BB226
:10330C00064633B100992046FEF7BAFE012384F835
:10331C003030304600F003FE284607B0F0BD012BDC
:10332C00DCD123689B68D6E7017000F070B588B0DB
:10333C000D220021294C2A4E04A831F08CF80025CE
:10334C000223012127488DF81010CDE90155039572
:10335C008DF80A3000F0C8F9294601AA204601F080
:10336C0056FE4FF6FF73E3618DF81250354604A9F3
:10337C00204601F0F9FD1C4800F002FB9DF81230CC
:10338C00D8400133DBB20A2B30608DF8123002D8F2
:10339C00164B9842EBD81648164C00F0F1FA164929
:1033AC00B1FBF0F12868154A0025E1FB004500232C
:1033BC002046294630F064FE114B084A1860114B28
:1033CC0000201870936923F0100393610E4B4FF497
:1033DC000062C3F880211A6008B070BD0080014003
:1033EC00D44B0020000204004041050080841E00E4
:1033FC007000020020A1070000B0710B40420F00CA
:10340C00584C00209256002000E100E0044BDA6892
:10341C00D20604D510225A61024B01221A70704751
:10342C0000800140925600202D4B002A70B52D4D86
:10343C00446B08BF1D462C4B14BF10260026984227
:10344C003AD102293FD004D8B9B1012921D00023A7
:10345C002DE0062931D0812935D00329F7D1234B12
:10346C001A6819681B68120C1B0C03F0F00302F4A9
:10347C00FE421A43C1F3034318E01D490B680A6866
:10348C0003F4FE4302F00F021A430B6803F0F0033F
:10349C000CE0174A1368116812681B0C120C02F02E
:1034AC00F00203F4FE431343C1F303421343B3404E
:1034BC002C400D4A2343536370BD0E4B1A681B6896
:1034CC0002F00F02E2E7094A13681168126803F46C
:1034DC00FE4301F00F010B4302F0F002E6E700BFE0
:1034EC000080FFFFFFFF0080002000401482E00FEF
:1034FC001082E00F1882E00F38B50C46022383606F
:10350C00002289780546FFF78FFF20796178627970
:10351C00030243EA016343EA0243E27843EAC2034B
:10352C00E2790AB143F00053227A0AB143F0040362
:10353C00A2790AB143F00203627A0AB143F00103A3
:10354C00F328A27806D12AB903299CBF23F0706313
:10355C0043F0806351B20029ACBF43EA421343F0FD
:10356C00E0032B616B69002923F4F21323F00703AA
:10357C00BCBF22F080021343227843EA4243E27A32
:10358C000AB143F480436B616B0103F18443A27A6B
:10359C009A60EB6FD5F88030EB6838BD0C4B9842D5
:1035AC0010D90C4B984210D9022201230A490B6006
:1035BC000A49D1F8003123F0807343EA0263C1F861
:1035CC000031704700221346F0E70122FBE700BFF1
:1035DC000048E8010090D0034000C84300400E4072
:1035EC000E4B30B50E4C5B68C9B2002304EBC30222
:1035FC0015798D4203D154F8335085420BD20133E7
:10360C00052BF3D1032205494B6823F0407343EAA1
:10361C0002634B6030BD5279F5E700BF00000E40ED
:10362C007045030038B5074C41F67133256C2364A3
:10363C0001F084FE0021FFF7D3FF0DB100232364BA
:10364C0038BD00BF00000E40044B1B685B0603D462
:10365C00034A1368002BFCD1704700BF3C300E406E
:10366C00C800C64308B5FFF7EFFF024B5868C0F31C
:10367C00014008BD00300E40044BD3F84421D20762
:10368C0003D4D3F840211042FBD1704700400E40C8
:10369C000C4AD2F89030516A0B4B21F0300141F0BA
:1036AC00100110B55162146BC0F3C31103310F2913
:1036BC0003EA040328BF0F21034343EA0173136396
:1036CC0010BD00BF00400E4000F8FF0F38B5054C90
:1036DC0041F67133256C2364FFF782FF0DB1002393
:1036EC00236438BD00000E40C0F30322013A38B504
:1036FC000546092A13D8DFE802F023131212051627
:10370C0019121C20104C0020C5F3043508B1FFF72A
:10371C00B3FF04F1047405EBC404A400216038BDAC
:10372C0000200A4CF0E70120094CEDE71020094C71
:10373C00EAE74FF48030084CE6E70020074CE3E75B
:10374C000020074CE0E700BFB0400E40C0400E40E8
:10375C00E0400E40E8400E40F0400E4050410E401C
:10376C0000400E40C0F30313013B092B2AD8DFE8BD
:10377C0003F0050B0F1929291F23374B274BD3F8BF
:10378C000001C0F304207047244BD3F81401F8E770
:10379C00224BD3F80001C0F30060431C0120984079
:1037AC00013870471D4BD3F80C01C0F3082070474B
:1037BC001A4BD3F80801F8E7194B984204D0194B6F
:1037CC00984207D000207047144BD3F8203103F0F7
:1037DC000F03E3E7114BD3F82031C3F30113DDE7FB
:1037EC00114B98420CD003F5B01303F5805398425B
:1037FC00E8D10A4BD3F82801C0F30120031DCDE713
:10380C00064BD3F82831E8E7084B9842DAD1034B42
:10381C00D3F8300100F00300704700BF00400E40A9
:10382C008006160080162E0090171A00A0091400AE
:10383C0008B5FFF797FF013008BD000000F00F003E
:10384C000138072848D8DFE800F0040F1947232D6A
:10385C004735244BD3F8943003F00703023B052B78
:10386C003CD8214AD05C70471E4BD3F8803003F013
:10387C000703013B032B33D81C4AF3E7194BD3F84E
:10388C00843003F00703013B032B29D8184AE9E7DE
:10389C00144BD3F8883003F00703013B032B1FD8DC
:1038AC00144ADFE70F4B1B6F13F0010F14BF0920F5
:1038BC00072070470B4BD3F85C3103F03003202BFF
:1038CC0006D0302B06D0102B0CBF072001207047E0
:1038DC00042070470820704700207047052070476F
:1038EC000120704700400E40604503006645030010
:1038FC006A4503006645030008B50146FFF79EFFC5
:10390C001B4B994211D01B4B994212D01A4B994226
:10391C0004D11A4BD3F8800000F0070001380328BB
:10392C0024D8DFE800F00A0E1612144BD3F88400EA
:10393C00F2E7124BD3F88800EEE7BDE8084001F03F
:10394C0061BDBDE8084001F063BDBDE8084001F071
:10395C005CBD01F0F7FC094BD3F80031C3F30063F5
:10396C005A1C01239340B0FBF3F008BD0020FCE788
:10397C00030020000500240002001E0000400E4041
:10398C0000F47813B3F5B01F10B504467DD029D8D8
:10399C00B3F5202F07D00AD8B3F5003F62D0B3F5AA
:1039AC00802F54D05BB9BDE8104001F0CBBCB3F50F
:1039BC00602F00F0838004D8B3F5402F58D000203E
:1039CC0010BDB3F5801F00F09080B3F5A01FF6D1A9
:1039DC004C48FFF791FF4C4BD3F8303103F0030305
:1039EC00D840EDE7B3F5101F66D011D8B3F5F01F32
:1039FC0046D0B3F5001F53D0B3F5D01FDFD14348E9
:103A0C00FFF77AFF404BD3F82821C2F3011244E0B0
:103A1C00B3F5401F46D00BD8B3F5381FCFD13C4877
:103A2C00FFF76AFF384BD3F82031C3F30113D7E704
:103A3C00B3F5481F4BD0B3F5781FC0D101F082FC11
:103A4C0001462046FFF7F4FEB1FBF0F0B8E701F0B9
:103A5C0079FC2D4BD3F80C31C3F308230133B0FBA5
:103A6C00F3F0ADE701F06EFC274BD3F80831F3E728
:103A7C0001F068FC244BD3F81431C3F30423EDE7B5
:103A8C002348BDE81040FFF737BF2148FFF734FF4C
:103A9C001D4BD3F8202102F00F0201239340DEE7E7
:103AAC001A48EEE71948FFF727FF174BD3F82831D0
:103ABC00C3F301231A1DF0E71248E2E71548FFF79C
:103ACC00BDFE072811D009287FF479AF6BE71248A7
:103ADC00FFF7B4FE072808D0082809D004287FF483
:103AEC006EAFBDE8104001F069BC0C4B186867E77D
:103AFC0001F028FC044BD3F80031C3F3042303FB7F
:103B0C0000005DE70500240000400E40030020008B
:103B1C0002001E0006000E00B80032001842002001
:103B2C000E4B5A6A12F0300F04D0202913D03029D2
:103B3C0000D011B94FF4400200E0094AD3F89010BC
:103B4C0032EA0101FAD1520246BFD3F8A000C0F309
:103B5C008020012070474FF40002EFE700400E4038
:103B6C00FF33E10702280AD129B1064B4FF48060DC
:103B7C00C3F8A800596612B10220FFF7D1BF01208B
:103B8C00704700BF00400E40F8B5042850D8DFE85D
:103B9C0000F00A03116F74008026402406230725C9
:103BAC00002951D048E04FF400764FF4807408237C
:103BBC000925F5E7002944D0324C636A13F0300F25
:103BCC0037D1314BDB6B636ADB0705D5636A23F0B6
:103BDC00300343F010036362042402230325294EAF
:103BEC0034662A4E33449B001F68002FFCD0FAB178
:103BFC003544AD002B68002BFCD0022818D1B9B18C
:103C0C00204E716A11F0010118D001222021FFF71A
:103C1C00A9FFD6F89C70012200210220FFF7B4FF07
:103C2C00C7F30A00FFF734FD34662B68002BFCD079
:103C3C00F8BD0424022303250021D0E7FFF770FF11
:103C4C00E7E70826022303250E4901200E6600FA39
:103C5C0003F3D1F890001842FBD1002AE8D00123DD
:103C6C00084A03FA05F5D2F890302B42FBD1DFE776
:103C7C00012402260023254692E720261024042343
:103C8C0005258DE700400E4000300E408004F210F8
:103C9C00112870B506460C4626D1042912D101F024
:103CAC008DFB0546A8B10021284600F09BFB06F0D1
:103CBC000F06013E072E6FD8DFE806F023186A6E58
:103CCC0068886E93052904D1614B1D68614B9D4238
:103CDC00E9D8023C0A2C5FD8DFE804F01E4E4047BE
:103CEC005E5E5E5E5E52B5000025E0E75A4D013C1B
:103CFC00092C51D8DFE804F068515850505F5050EF
:103D0C00504E023C0A2C47D8DFE804F00737293024
:103D1C0046464646463B3E00002500200424012230
:103D2C001146FFF731FFFFF77DFC0DB1FFF78CFC5F
:103D3C004A4B5C6701F030FB044601F003FBFFF7D4
:103D4C002DFCFFF78FFC01462046FFF7BFFC1DBB87
:103D5C0028460121BDE8704000F044BB00254048D6
:103D6C00FFF71CFC02200446D9E700253C48FFF76E
:103D7C0015FC01240320D2E7002501200324CEE703
:103D8C00002503200524CAE70724CCE7354DAEE710
:103D9C00354DACE704232B6070BD01221146002089
:103DAC00FFF7F2FE0223F6E7012211461046FFF759
:103DBC00EBFE0123EFE701F0C5FAFFF7EFFB2B4B0E
:103DCC0001221A600323E6E70023E4E7072C04D062
:103DDC00092CE1D1214B012201E0204B00221A6772
:103DEC00DAE7013C072CD7D801A353F824F000BF25
:103DFC004F3E0000A53D0000A53D0000413E0000E7
:103E0C00A53D0000A53D0000333E00001D3E000016
:103E1C0003221249D1F85C3123F0300343EA021338
:103E2C00C1F85C31B8E7012211460420FFF7ACFE63
:103E3C000122EEE7012211460220FFF7A5FE022225
:103E4C00E7E70022E5E7FFF7EDFB002507246FE726
:103E5C0010420020002D310180400E4000400E40E9
:103E6C000148E80188400E4084400E400816C843C3
:103E7C0010B504461120FFF7E1FC012200210220BD
:103E8C00FFF782FE174A217C536A23F001030229B3
:103E9C0008BF43F001035362134B21781960637A16
:103EAC00A18843EAC123D362136BA07A217A03F071
:103EBC007F630343E08843EAC02343EAC113033121
:103ECC000F2928BF0F2143EA01731363A37B617B86
:103EDC001B0143EA0133E17B0B43217B43EA0143A2
:103EEC00536310BD00400E40A004C84372B6704727
:103EFC0062B67047EFF3108072B6704700B962B6C5
:103F0C007047602383F311887047002383F3118873
:103F1C007047EFF31180602383F31188704780F3AF
:103F2C0011887047EFF31083DB0706D4EFF3118091
:103F3C005F2894BF002001207047012070470000CB
:103F4C004109054A00F01F0352F82100D840C04334
:103F5C0000F00100704700BF00E100E010B504461E
:103F6C00EFF31083DB0733D4FFF7EAFF00282ED1E1
:103F7C00002CA7BF04F1604404F5614404F00F0465
:103F8C00144BACBF94F800231A5D5209EFF3118364
:103F9C0013B1B2EB531F1BD20F4C6368C3F308036E
:103FAC00ABB1103BDBB259B20029B5BF03F00F0324
:103FBC0001F16043043B03F56143B6BF1B1993F851
:103FCC000003187E4009824234BF0020012010BD3E
:103FDC000120FCE714ED00E000ED00E0034B186855
:103FEC0080F04000C0F38010704700BF3C300E40A2
:103FFC0042EA032340F2011293422BD0B3F5817FA6
:10400C0008D2012B1DD030D3B3F5807F31D00022E4
:10401C0013461CE040F20122934222D006D8B3F59D
:10402C00007FF4D1174BD3F870310DE0B3F5407F1E
:10403C0023D040F201329342E9D1124BD3F87831BC
:10404C000BE0104BD3F87431C3F30722DBB20360DF
:10405C000A6070470B4BD3F874311A0EC3F3074345
:10406C00F5E7084BD3F87831EEE7064BD3F86C3113
:10407C00EAE7044BD3F86C31EFE7024BD3F870311D
:10408C00EBE700BFB081E00F08B5FFF7A7FF18B151
:10409C00024A1368002BFCD108BD00BFC800C64300
:1040AC0008B5FFF79BFF80B1FFF7EEFF074B1968D0
:1040BC005A68C1F30121C2F3014291421A688CBFC4
:1040CC0042F0100222F010021A6008BD00300E40BF
:1040DC00064B1B68DB0608D5054B1B69C3F3044371
:1040EC00082B02BF034B044A1A60704700300E4085
:1040FC0000400E4010420020C0EA2101154B02285E
:10410C00D3F8803113D0032814D0012814BFDBB2AC
:10411C00C3F307231B0323F47042B1B9BAB90E4998
:10412C00CA6E22F470421343CB6601207047C3F36E
:10413C000743EFE71B0EEDE70749D1F8EC2022F41B
:10414C0070421343C1F8EC30EFE7002AF4D00020A2
:10415C00704700BFB081E00F00300E4070B5FFF724
:10416C003DFF38B1234B1B78C3F10202102393405F
:10417C00214A13612149224CD1F8805145F60E0396
:10418C00C1F88031236823F0AA03DB05DB0D0B6635
:10419C00FFF77AFF184B1B68D80605F0010515D5FB
:1041AC00D1F84031DA01FBD4164B1B680B61164B6E
:1041BC00197805290ED1154B1E68FFF765FF0E4BBC
:1041CC0059683046C1F30141FFF780FA0E4B19785C
:1041DC00052902D01120FFF75BFD2368DB075EBFCA
:1041EC00064B02221A661DB1044B0022C3F8802133
:1041FC0070BD00BFA256002000300E4000400E40A3
:10420C00204A0020204C0020125500201042002093
:10421C0010B50B4C0B4BD4F890201A601120FFF703
:10422C000DFB094B1870FFF72FFF084B084A5B6812
:10423C00C3F301431370074B22691A6010BD00BF12
:10424C0000400E40204A00201255002000300E4045
:10425C00A2560020204C00207047000010B50446E8
:10426C0008B1FFF7D5FFFFF71BFF134A136943F0A3
:10427C0004031361FFF7F0FF104B1B68DB0614D52A
:10428C00FFF738FE30F012F9FFF738FE04F082F930
:10429C006CB1FFF763FF0A4A136823F00043136005
:1042AC0044B9BDE8104001F077B830BFEEE7FFF736
:1042BC000FFFF0E710BD00BF00ED00E000300E4036
:1042CC004C310E4010B5044608B1FFF7A1FFFFF7C3
:1042DC00E7FE1B4BD3F8802145F60E01D207C3F83D
:1042EC00801148BF00224FF42071196648BFC3F8F3
:1042FC008021144A136943F004031361FFF7ACFFE8
:10430C00114B1B68DB0614D5FFF7F4FD30F0CEF82B
:10431C00FFF7F4FD04F03EF96CB1FFF71FFF0B4AF9
:10432C00136823F00043136044B9BDE8104001F05A
:10433C0033B830BFEEE7FFF7CBFEF0E710BD00BFA0
:10434C0000400E4000ED00E000300E404C310E40BD
:10435C00FFF75EBFFFF702BF0A4B9A69996922F417
:10436C00403242F4003241F440314AF6E850986051
:10437C009A6199619A6199619A6199619A6199615D
:10438C009A61704700300E4070B504460E46FFF738
:10439C0025FE10B3FFF778FE104B5B68C3F30143A7
:1043AC009C421AD00E4BD3F8003100F0CBFF022CFC
:1043BC00054602D12146FFF789F9C4F10202102308
:1043CC009340064A13610EB1FFF75EFE2CB92146ED
:1043DC002846BDE87040FFF779B970BD00300E403B
:1043EC0000400E4038B502460D46FFF7F7FDB8B158
:1043FC0042B90C4BD3F8004100F0A4FFC4F30422E3
:10440C0002FB0002084B1B7829463BB1074B9A4232
:10441C0004D80220BDE83840FFF7B6BF0020F9E70A
:10442C0038BD00BF00400E40A1560020002D3101C8
:10443C00034B02781A7001210020FFF7D3BF00BF95
:10444C00A1560020064942780B6823F4407343EAD6
:10445C000223022A0B6004BF024B5B6A704700BF49
:10446C0000300E4000400E400378134A002B437876
:10447C0070B514BF04260026002B8378946914BFF2
:10448C0002250025002B037924F03F0443EA0403A2
:10449C00C47814BF08210021012C08BF43F001038C
:1044AC0033432B430B4393611368417923F440331B
:1044BC0043EA0143136070BD00300E40224B4AF6B4
:1044CC00E85210B5596B5A639A6FD407FCD41B6C25
:1044DC0013F003031EBF1D4A01241460834203D151
:1044EC0008B91A4B186010BD032B17D0B3B1164A7C
:1044FC001446936FDB07FCD4136C23F003030343C4
:10450C001364A36F13F00103FBD100300F4A18BFE3
:10451C0001200129106008BF6363E4E7431E012BEF
:10452C00E5D8094B4FF40022DA629A6FD207FCD41B
:10453C001A6C22F0030242F001021A64024A536A16
:10454C001C03FCD5D3E700BF00300E40B40AC643B1
:10455C002DE9F04F002389B0CDE90233CDE90433C6
:10456C00CDE90633A0F5E163B3F5966F05460191ED
:10457C00934603D9002009B0BDE8F08F4D4BB0F540
:10458C00E16F8CBF4FF0010A4FF0000AD3F868318D
:10459C0000F083801A0EC3F30743079204934FF481
:1045AC0096694FF4E164DFF81081D8F84C70C7F3CA
:1045BC0001773B46524605A902A8FFF719FDD8F82A
:1045CC00EC60C6F301263346524606A903A8FFF752
:1045DC000FFD0798049A2C1B811A6143B1FBF9F368
:1045EC00D1182CBF012300238842C3D3002BC1D187
:1045FC00069A0398131A6343B3FBF9F310EB030AFF
:10460C002CBF012300235245B4D3002BB2D1059B00
:10461C00029A981A4443B4FBF9F912EB09092CBF1E
:10462C00012000204B45A5D30028A3D1BBF1000FDE
:10463C000ED0D8F85C3023F4FE4323F00203B5F51A
:10464C00E16F43EA012318BF02200343C8F85C3032
:10465C00019B63B300213846FFF750FD002889D039
:10466C0001213046FFF74AFD002883D0124A536ED1
:10467C00D14538BFD14623F4FF73B9F1E70F23F0CE
:10468C00010328BF4FF0E709B5F5E16F18BF43F000
:10469C00010343EA490353666DE7C3F30722DBB218
:1046AC00079204934FF416794FF496647BE701203C
:1046BC0061E700BFB081E00F00300E40304B1A6F45
:1046CC00D96CC90702F0070242D5012A40D9132838
:1046DC0051D9143813288CBF102308232849013BC7
:1046EC00CA6C180322F47F4240EA03231343CB64C1
:1046FC00244BCA6C1B88C2F303222833013202EB11
:10470C00820003EB5303B3FBF0F3C86C013B072BA4
:10471C0020F0EE6028BF072340F4801040EA0363CA
:10472C00CB64194BB3F90030002B10DB2833500845
:10473C0000EB420203EB5303B3FBF2F30A6D072BBE
:10474C0028BF072322F0700242EA03130B6570475F
:10475C00DB6CD90706D4012A04D809280BD90A38EE
:10476C000928B8E7064BDB6C13F00103B6D0012A1D
:10477C0003D82728AFE70423B0E70023AEE700BF38
:10478C0000300E40C0510020C2510020054A064B9B
:10479C001B68136F23F007031843044B106718882A
:1047AC00FFF78CBF00300E408009C643BE5100207D
:1047BC00364B022270B59A639B6B03F00F03934246
:1047CC00044602D00025284670BDC1888588B0F902
:1047DC000C604A294ED9B1F5FA7F4DD340F6C3137C
:1047EC00994294BF4FF000514FF040512748C36C91
:1047FC0023F0405323F00103002EA8BF43F0010324
:10480C000B43C364D0F8EC3043F44073C0F8EC3085
:10481C001F4B1D80C36E43F08073C3661D4B18681D
:10482C0000B10420FFF7B2FF1B4B218919801B4BF1
:10483C00B4F90C20A0881A80FFF740FFA37BF3B1DA
:10484C00012B20D0012211466088FFF781FE05461E
:10485C000028B7D00D4A6078D36B43F48063D363E0
:10486C00FFF72CFEA37AA3F12002534253410C4ACA
:10487C001360A8E70021B9E74FF08051B6E7034B6E
:10488C00084A9A65DEE7014B074AFAE700300E400A
:10489C00BE5100208009C643C0510020C2510020E7
:1048AC009407C64377402057372110B770B505469B
:1048BC000E461446FFF71EFB2A68544004EA060114
:1048CC0051402960BDE87040FFF718BB044AD2F88C
:1048DC00443423F003031843C2F84404704700BF68
:1048EC0000A00040072AF8B501F0030615461F4644
:1048FC004FF00F0120D8940000FA04F2A1401648A2
:10490C00FFF7D4FF0321154806FA04F2A140FFF784
:10491C00CDFF134B9DF818202B449B001F60C3F850
:10492C008020012202FA05F50E4AC2F824549DF8A3
:10493C001C20C3F80023F8BDA2F10804A40000FA5F
:10494C0004F2A1400848FFF7B1FF032106FA04F274
:10495C00A1400648DBE700BF00A4004008A40040CB
:10496C008020851000A0004004A400400CA400404E
:10497C00F0B54AB130261E4C012546438D403444D7
:10498C000BB304F1C06425603024444304F180442B
:10499C00072904F5204419D865688E000F27B74005
:1049AC0025EA070502FA06F63543656052B901227D
:1049BC0002FA01F1302250430D4A0244A3B102F134
:1049CC00C0621160F0BD04F18064DCE701F1804548
:1049DC00083DA668AD000F27AF4026EA070602FA8D
:1049EC0005F53543A560E1E702F18062E9E700BF18
:1049FC000CA00040084B4FF40072C3F88020BFF3AA
:104A0C004F8FBFF36F8F054B0021D9664FF4AA402F
:104A1C001962FEF769BE00BF00E100E000200E4005
:104A2C00034B03449B0081F001011960704700BFE8
:104A3C00A001F11010B5044601214FF4AA40FEF775
:104A4C0053FEB4F8013022785BBA9BB243EA02639E
:104A5C000B4A136000231362D36253634FF000437D
:104A6C00D3664FF0FF339366064A4FF40071C2F8D9
:104A7C008011E3785B01DBB282F80933116010BD61
:104A8C0000200E4000E100E02DE9F041254D91F8A9
:104A9C000BE091F80AC00F7B0C464FF03008C3B204
:104AAC00012608FB00509E402368497BC0F88030EB
:104ABC004FEA0E5343EA0C4343EA475322F00302F6
:104ACC00C0F88810C0F88430C0F89820AE66FFF7A4
:104ADC0020FAEB6E3343EB66237A13B16B6B3343E3
:104AEC006B63637A13B1EB6A3343EB6222792B6805
:104AFC0022B1D243120262F47F42134062790AB1AE
:104B0C0043EA0223A2790AB123EA0203E27902B151
:104B1C001343044A1360044B1E60D663BDE8F04196
:104B2C00FFF7FDB900200E4028200E4410B5C0B28E
:104B3C0001248440FFF7EDF9054AD36E23EA040300
:104B4C00D366044B1C60BDE81040FFF7E8B900BF0A
:104B5C0000200E4020200E44F8B5C3B201259D4024
:104B6C000446FFF7D6F90A4B30221E6E9F6A02FBF1
:104B7C000434D4F88C40FFF7D2F93D4206D1C4F38B
:104B8C000A1008B9354200D10130F8BD0020FCE70D
:104B9C0000200E40036CDB0702D4436C0B42FCD1AB
:104BAC0070470000064B0B4003F58073B0FBF3F22B
:104BBC0003FB12000002B0FBF3F000EB0220704785
:104BCC00F8FF0100074B984210B5044607D1064880
:104BDC00FEF7D6FEE168BDE81040FFF7E3BF00200A
:104BEC0010BD00BF00A0044090171A00CB435B001F
:104BFC0003F00A0310B541EA03020221FFF7CAFFD2
:104C0C00426010BD436C002BFCD101220264EA22ED
:104C1C00426040F2F9720360C360036143618363D5
:104C2C004263C363436583650364704710B50246F2
:104C3C000C469368DB06FCD540211046FFF7AAFF13
:104C4C00946210BD054B5A685B68054B41F6713296
:104C5C001A649A6822F001029A60704700300E4084
:104C6C0000000E40034B9A6822F001029A60002269
:104C7C001A64704700000E40094A0A4BD969C907EB
:104C8C0005D512B96FF002007047013AF6E7002A19
:104C9C00F8D001221861DA60D86940F380007047BF
:104CAC008096980000000E4070B509B9002070BDC8
:104CBC000E4A0023082550F8234094610C4CD56013
:104CCC000133D669F60705D514B96FF00200EEE78B
:104CDC00013CF6E7002CF8D0D469A40702D4994221
:104CEC00E9D1E3E76FF00100E1E700BF00000E40FF
:104CFC00809698002DE9F8431C4B884641F671319B
:104D0C001D6C19641A49074648684968996841F04E
:104D1C000101ADB2996096084FF00009B14501D37D
:104D2C00002005E007EB89042046FFF7A5FF48B1FA
:104D3C000E4B9A6822F001029A600DB100221A649F
:104D4C00BDE8F883C4F30A04C4F50064A408A6EB18
:104D5C0009039C4228BF1C4621464046FFF7A4FF8E
:104D6C000028E5D1A14408EB8408D7E700000E40E9
:104D7C0000300E40204B41F671311A6C10B519649D
:104D8C001E494C684968996841F0010199600121FC
:104D9C001861D960D9694C0792B209D5996821F08C
:104DAC00010199600AB100221A644FF0FF301FE034
:104DBC000221134CD9601946D869C00700D56CB9CB
:104DCC00C8698B6810F0020023F001038B6007D0D8
:104DDC000AB100230B646FF0010009E0013CEBE722
:104DEC0024B902B10C646FF0020001E00AB108644E
:104DFC0010BD1046FCE700BF00000E4000300E4016
:104E0C0080969800FFF776BF10B590FAA0F2054C8B
:104E1C002368B2FA82F223EA000091400143216038
:104E2C0010BD00BF00500E40014B01229A6070472C
:104E3C0000500E40124BF0B55C68124D124E002320
:104E4C0018463768EA187F0751685A5908D4B2F5E2
:104E5C00806F03D00DD8B2F5007F01D141F4807181
:104E6C00144202D0214208BF10430833482BE8D12A
:104E7C00F0BDB2F5006FF1D0B2F5803FEDE700BFA9
:104E8C0000500E4098450300E841E00F8B784A78BB
:104E9C009B0143EA82030A781343CA7843EA02135C
:104EAC000A7943EAC2234A7943EA02338A79043005
:104EBC0043EA42430001014A13507047002004406A
:104ECC00014B1860704700BF0000844242780179A2
:104EDC000378002A827870B514BF04260026002AB5
:104EEC00C27814BF10250025002A42794FEA0232FD
:104EFC0042EA012242EA0302837914BF20240024EF
:104F0C00002BC37942EA034343EA0603027A43EADD
:104F1C00050314BF4FF4004100212343002A14BFA2
:104F2C004FF4003200220B431343014A136070BD4F
:104F3C00002004400B4A536911699B0003F03C03A9
:104F4C00C1F381110B438370136903F03F0343706A
:104F5C009369D26903F0F003C2F303121343037095
:104F6C00704700BFD0FF0FE02DE9F04F0C780CB963
:104F7C0002234360002343624B78CA7891F802B055
:104F8C008D7A91F808A091F8069091F80780002B83
:104F9C004B7A4FEA024214BF4FF0400E4FF0000E16
:104FAC0042EA0B62002B14BF8023002342EA0A0260
:104FBC00002DCD7A42EA892214BF4FF0200C4FF01D
:104FCC00000C42EA0822002D0D7B42EA0E0214BFAF
:104FDC00102700271343002D0D79497943EA0C0360
:104FEC0014BF082600263B43002D14BF4FF4005578
:104FFC0000253343002914BF4FF0805100212B436F
:10500C000B4303600CB101234360BDE8F08FF0B596
:10501C00537814781B0643EA846394792343947879
:10502C0043EA0443D47843EA0433147943EA8423EF
:10503C00547943EA0423D479002C147A14BF4FF02A
:10504C0080470027002C547A14BF4FF000560026DE
:10505C00002C947AD27A43EA027343EA070314BF12
:10506C00102500253343002C01F1060114BF042444
:10507C0000242B43090123434350F0BD70B5054672
:10508C0016461C4619B91448FEF77AFC0146202C2A
:10509C0008D001D8ECB170BD402C18D0602CFAD1DE
:1050AC00042200E0082206FB02F35A0802EB41122C
:1050BC00B2FBF3F2094B203A03EAC2022B6823F04D
:1050CC0060032B602B681C432C606A61E3E70622AB
:1050DC00E9E71022E7E700BF40410500F8FF7F0039
:1050EC00F8B5154F14460F401ABB202B07D0402B98
:1050FC0007D0002B0CBF10254025012603E01D46D0
:10510C00FBE78025032607F580777E430023324694
:10511C0019462EF0B5FF544300FB05F705FB03447D
:10512C00A2FB05012144324600232EF0A9FF38448E
:10513C00F8BD80250024E0E7F8FF7F0070B5044639
:10514C0005680648FEF71CFC2368616905F001023E
:10515C0003F06003BDE87040FFF7C2BF404105009B
:10516C00CB435B0003F00A03C360C16070470000CF
:10517C0040F6AA63C36041F205020023036042605B
:10518C00104A83604361C364826403664367836728
:10519C00C3670D4B0D4A984209D0904207D003F5D6
:1051AC000063984203D003F58063984201D1002339
:1051BC00036500239042836502D0054A904200D1DA
:1051CC00C3657047F9FF0100000001400004014075
:1051DC00000C014038B505460C46FFF7C9FF8B7C27
:1051EC001BB1036843F080430360E37C1BB1237D58
:1051FC0043F08003AB65228A637B1343E28913433C
:10520C006B60D4E90112237B2846FFF737FF637DDF
:10521C001BB12B6843F480332B60A37DE27D1B070D
:10522C00120502F4E00203F0E04313432B666B6FAC
:10523C0023F030036B676A6F237E13436B6723780D
:10524C00EB6038BD03691B06FCD5C069C0B2704762
:10525C0003695B06FCD5416370470368DB060FD41A
:10526C0047F231538268D20701D5013BFAD103686A
:10527C0003F001038B421EBF00F10470400101607A
:10528C0070470368D90707D583689A0704D48368E5
:10529C00DB07FCD40123436070474B78CA78002BA2
:1052AC008B782DE9F04114BF4FF0020E4FF0000E39
:1052BC00002B14BF04230023002A0A7991F80780DD
:1052CC000C7814BF4FF0080C4FF0000C002A4A79F0
:1052DC0014BF20270027002A8A7914BF40260026F5
:1052EC00002A0A7A4FEA022242EA083291F809802F
:1052FC0042EA0402CC7A897A42EA084242EA016222
:10530C0042EA0E0243EA020343EA0C0343EA0703B0
:10531C0014BF102500253343002C14BF4FF000445C
:10532C0000242B43234347F231528168C90701D52E
:10533C00013AFAD10360BDE8F081000000487047E3
:10534C0000F04902104AD2F8943003F00703023BF4
:10535C00032B13D8DFE803F00C14020E0B4B1B6865
:10536C00D2F80001C0F304200130B3FBF0F0704719
:10537C00074BF4E7074B1B685B08F1E7054BEEE7BF
:10538C004FF40043ECE700BF00400E4014420020F5
:10539C000C4200201042002008B5FFF7D3FF054B4C
:1053AC00D3F80831C3F308230133B0FBF3F0024BFD
:1053BC00186008BD00400E4008420020014B1868E0
:1053CC00704700BF0C420020054B1860054BD3F80A
:1053DC00943003F00703022B01D1FFF7DDBF7047B8
:1053EC000C42002000400E40044B054A9A60D3F852
:1053FC00882042F47002C3F88820704700ED00E06A
:10540C00000200004FF4004070474FF47A70704770
:10541C00014B1868704700BF1442002008B5064BBA
:10542C001B689B69DB0205D5012803D840F20220DA
:10543C0027F03AFB012008BD2808E10F064B1B683A
:10544C009868C0F30343C0F303621B0243EA0233C0
:10545C00C0B21843704700BF2808E10F70B504387C
:10546C00C6B0FB2801F25D87DFE810F02C025B0F61
:10547C005B0F5B0F35025B0F5B0F5B0F5B0F5B0F03
:10548C005B0F5B0FDD03CB035B0F5B0F9D0A3B04D4
:10549C0046049403A3035B0F87045B0F5B0F9F040D
:1054AC004401F1021B031C01AE035B0F5B0F570899
:1054BC005B0F5B0FFF013E02F20C620D110DFE0C37
:1054CC00DF0C3E0D8F0D5B0F5B0F4F050A07A6011E
:1054DC00F30588053906D20666060703FC00B301FE
:1054EC00E8015B0F1A0423065B055B0F5B0F5B0F78
:1054FC005B0F5B0F5B0F5B0F530197017E015B0F23
:10550C005B0F5B0FD407B4065B0F5B0F5B0F5B0F7E
:10551C005B0F5B0F5B0F5B0FC107AA0439075307C7
:10552C00BC04D10439051F055B0F080590075B0F00
:10553C004909B30ACD0AC409DA098F09150B440AC3
:10554C005B0F280B990C0A0AF20A690B5D0BAA096E
:10555C0094094C0B5B0FBC0189038E025B0F5B0F34
:10556C007207F2045B0F5B0FC105010E9E0D200E3E
:10557C00380E140E2C0EC20DD80DAA0DEB0DB60D57
:10558C005B0F5B0F5B0F5B0F5B0F5B0F5B0F5B0FBF
:10559C009E065B0F5B0F630451045B0F00015B0FF6
:1055AC005B0F440E5B0F7E0E400FBA0EF00E120F07
:1055BC00A40E5B0F7A0B9C0B5B0F5B0F5B0F5B0FEF
:1055CC00A7076809D50E83097508CC0830090009AE
:1055DC005B0F5B0F5B0F29045C085B0F6808C3084B
:1055EC001D08EF08160CC402DB02E6025B0F5B0F12
:1055FC00C80B5B0FFF0B260C5B0F5B0F5B0F5B0F7E
:10560C006F0A12097504B9025B0F3001F4083508F2
:10561C0029088F08B2080508110841084C08820CAB
:10562C009E0CBA0CAE0C720C6D0C5B0F5B0F5B0F0F
:10563C005B0F5B0F060F5B0F610E5B0F230F340FBD
:10564C00910E62075B0F5B0F5B0FE3048507D10CB8
:10565C00BE08C003540377033F0326035B0F5E02AF
:10566C00F20753020124204646B070BD12AB0193E1
:10567C000AAB00930CAA24ABBB49012005F07AFEBF
:10568C00BDF848309DF828202499BDF8300017F05B
:10569C007BFA46AAB54902F8EC0D002005F06AFE2B
:1056AC000124E0E724AB0CAAB149012005F062FE0D
:1056BC0024999DF8300026F045FA46AAAB4902F829
:1056CC00D00D002005F056FE0124CCE70CAB24AA2B
:1056DC00A849012005F04EFE9DF8301024980DF0DD
:1056EC0017F946AAA14902F8D00D002005F042FE98
:1056FC000124B8E724A805F013FC24A80FF008FE39
:10570C0046AA9A4902F8D00D002005F033FE012478
:10571C00A9E70CAA9549012005F02CFE24A99DF8B7
:10572C00300026F00DFA46AA904902F8D00D002060
:10573C0005F020FE24A9082005F0DCFB9DF898005C
:10574C0005F0A0FBBDF89A0005F0ACFB9DF89C00A1
:10575C0005F098FB9DF89D0005F094FB9DF89E00CC
:10576C0005F090FB01247EE786230BAA7F498DF878
:10577C004830012005F0FEFD24A99DF82C0026F0F0
:10578C00E8F946AA12AB02F8E80D7B490093002019
:10579C0024AB05F0EFFD012465E724A817F086FE85
:1057AC0046AA724902F8D00D002005F0E3FD24A8AA
:1057BC0005F0A9FD012456E724A817F073FE46AAAC
:1057CC0024AB02F8D00D6D49002005F0D3FD012467
:1057DC0049E746AA012402F8884D6449002005F0E7
:1057EC00C9FD40E70CAA6149012005F0C3FD24A9BD
:1057FC009DF8300019F0B2FA46AA5C4902F8D00DB7
:10580C00002005F0B7FDBDF8900005F04BFB9DF8AE
:10581C00920005F037FB9DF8930005F033FB9DF8E3
:10582C00940005F02FFB9DF8950005F02BFB0DF176
:10583C009601082005F05EFB012414E746AB082214
:10584C0003F8EC2D4E4924AA012005F093FD12A972
:10585C0024A819F01DFF46AA12AB02F8E80D444922
:10586C00002005F087FD0124FDE624A912A826F0EE
:10587C002FF946AA12AB02F8E80D4049002005F0BA
:10588C0079FD24A9082005F035FBBDF8980005F03A
:10589C0009FB9DF89A0005F0F5FA9DF89B0005F0C0
:1058AC00F1FA9DF89C0005F0EDFABDF89E0005F0AC
:1058BC00F9FA9DF8A00005F0E5FA299805F006FB29
:1058CC000124D0E646AA012402F8884D274900207D
:1058DC0005F050FDC7E646AA002002F8880D2349C2
:1058EC0005F048FD0124BEE612AC0823214624A88D
:1058FC008DF8303026F013F946AA0CAB02F8EC0DFB
:10590C00204901940093002024AB05F033FD0124C1
:10591C00A9E60DF0AAF946AA144902F8880D002050
:10592C0005F028FD01249EE60CAA1049012005F083
:10593C0021FD24A99DF830000DF01AF946AA0B4957
:10594C0002F8D00D002005F015FD9DF8900005F033
:10595C0099FA9DF8910005F095FA9DF8920005F0E2
:10596C0091FA01247FE600BF204603007046030035
:10597C00254603003F460300B14F03005F4603007A
:10598C006B540300284603000CAABE49012005F005
:10599C00F1FC24A99DF8300018F052F846AAB94938
:1059AC0002F8D00D002005F0E5FCBDF8900005F0E4
:1059BC0079FABDF8920005F075FA9DF8940005F09F
:1059CC0061FA9DF8950005F05DFA9DF8960005F0DA
:1059DC0059FA9DF8970005F055FA012443E626F094
:1059EC0019F846AAA74902F8880D002005F0C2FC58
:1059FC00012438E612AC0BAAA249012005F0BAFC2E
:105A0C00224624A99DF82C0026F006F846AA24ABC1
:105A1C0002F8E80D9C490094002005F0ABFC012431
:105A2C0021E625F0FDFF46AA964902F8880D0020D4
:105A3C0005F0A0FC012416E625F0F0FF46AA9149DA
:105A4C0002F8880D002005F095FC01240BE60CAA49
:105A5C008C49012005F08EFC24A805F061FA24A9DC
:105A6C009DF830000FF022FD46AA864902F8D00DB1
:105A7C00002005F07FFC0124F5E50BAA81490120EB
:105A8C0005F078FC0CAA12AB8049012005F072FCE1
:105A9C0046AA012402F8884D7A49002005F06AFCD8
:105AAC00E1E511F0FBF946AA764902F8880D0020D1
:105ABC0005F060FC0124D6E512AB00930BAA0CABED
:105ACC007349012005F056FC9DF848209DF83010D4
:105ADC009DF82C001CF0E2F946AA6A4902F8880DE0
:105AEC00002005F047FC0124BDE512AB0CAA694966
:105AFC00012005F03FFC9DF948109DF830001CF08A
:105B0C00CBF946AA5F4902F8880D002005F032FC5B
:105B1C000124A8E512AB02930CAB01930BAB0093E1
:105B2C000DF126020AAB5C49012005F023FC9DF81F
:105B3C0048409DF930309DF82C209DF82810009499
:105B4C009DF826001CF0A4F946AA4E4902F8880DCF
:105B5C00002005F00FFC012485E512AA494901201B
:105B6C0005F008FC9DF848001CF094F946AA45493C
:105B7C0002F8880D002005F0FDFB012473E519F0F7
:105B8C00D9F846AA3F4902F8880D002005F0F2FB2F
:105B9C00012468E524A805F043FA24A80FF0EEFCD4
:105BAC0046AA384902F8D00D002005F0E3FB012489
:105BBC0059E50CF083FF46AA324902F8880D002003
:105BCC0005F0D8FB01244EE512AA2E49012005F060
:105BDC00D1FB9DF848000EF0C5FE46AA294902F8F3
:105BEC00880D002005F0C6FB01243CE524F050F89C
:105BFC0046AA244902F8880D002005F0BBFB0124BD
:105C0C0031E512AA1F49012005F0B4FB9DF84800AC
:105C1C0026F0C8FB46AA1B4902F8880D002005F0A7
