:10000000003C0120A9C2000039FB021039FB02109C
:1000100039FB021039FB021039FB021039FB0210C8
:1000200039FB021039FB021039FB021039FB0210B8
:0C00300039FB021039FB021011FB02101A
:04003C00C863002075
:100040002DE9F04FADF5077DD0F8009006469B46B0
:100050001546869148460EF0ADFD4FF0000A09EBBB
:1000600000084FF0FF310027CDF814A2C14580F001
:10007000C88009F101048DF810A28391CDE981AA0D
:10008000204610F8011D002900F0BB80252908D06A
:1000900001302946306014F8010CD847013401378B
:1000A000EEE73460859781AC3146204600F0AEF82B
:1000B0002046314686AA00F0C5F8306802787A2AD0
:1000C0000ED0682A10D06A2A17D06C2A19D0742A48
:1000D00022D04C2A40F08280819941F080011EE0BC
:1000E000819941F480511AE00146819A11F8013F4B
:1000F000682B75D142F400710BE0819941F40061E5
:100100000DE00146819A11F8013F6C2B6BD142F44E
:1001100080718191811C04E0819941F400518191A9
:10012000411C0A7801F10109732A8DF81022C6F8E2
:1001300000901FD06E2A2AD1819843F66071084042
:10014000202854D0402834D0B0F5005F31D0B0F52D
:10015000007F50D0B0F5006F05D0B0F5805F28D09B
:10016000B0F5807F25D18698FA1750F8041BC1E9B5
:10017000007222E09DF80402400620D4CDF800B0C1
:1001800081A886AA294685AB00F023F91FE00DF16E
:10019000060481A986AA204600F06EF9909B0246CB
:1001A000204629469847411C18BF38448590074689
:1001B0000EE0869850F8041B0F60869007E0CDF89B
:1001C00000B081A886AA294685AB00F09BF8859FE0
:1001D0004FF0FF31781C7FF449AF10E00146A1E7F2
:1001E00042F0200001E042F04000819099E78698BB
:1001F00002C80F80E1E7869802C80F70DDE74FF074
:10020000FF3738460DF5077DBDE8F08F0A68137893
:10021000202B0AD0232B0AD0302B0AD02D2B0AD02A
:100220002B2B18BF7047022306E0042304E00823A9
:1002300002E0102300E0012301320A6002681A4341
:100240000260E3E7FEB50446086816460D460278EC
:100250002A2A11D13068011D31600068B0F1FF3FDA
:10026000606005DC40426060206840F00100206072
:100270002868471C2F6018E001300DF10201303A68
:10028000092A07D8286010F8013C0278013001F8EB
:10029000013BF4E70022471E0A709DF8020020B1DE
:1002A0000DF102000AF00AFB606038782E2828D190
:1002B000781C28607A782A2A08D13068011D3160BC
:1002C0000068A060286801302860FEBDB91C0DF1EF
:1002D0000200303A092A08D829604B1C11F8012C79
:1002E00000F8012B0A781946F3E7002101709DF808
:1002F000020028B10DF102000AF0E0FAA060FEBD94
:10030000A160FEBD2DE9FE4F054610680C46011D9B
:10031000116007680C9AE7B3AE6898469146002EC4
:1003200004D438460EF08EFB864203D338460EF0D6
:1003300089FB0646D5F804B0B2460195B345C8BF5F
:10034000DA46D8F80000CDF808805044C8F800001C
:10035000B3450FDD01980078C0070BD1AAEB060565
:100360004FF00008A84505DA20202146C84708F1CB
:100370000108F7E7DDF808800025B5420FDA57F8E5
:100380002500B0F5807F1AD2C0B22146C84701359A
:10039000F3E70020214603B0BDE8F04F1047B34516
:1003A00015DD01980078C00711D0AAEB06050026DC
:1003B000AE420CDA20202146C8470136F8E74FF05C
:1003C000FF30C8F800000EF02CFF58210160BDE896
:1003D000FE8F2DE9F84F054610680C46011D11608F
:1003E00006680A9ACEB3AF689A469046002F04D4A6
:1003F00030460EF0DFFB874203D330460EF0DAFBC7
:100400000746D5F804B0B9460095BB45C8BFD946E4
:10041000DAF800004844CAF80000BB450DDD00983A
:100420000078C00709D1A9EB070A0025554504DA71
:1004300020202146C0470135F8E70025BD4204DAF7
:10044000705D2146C0470135F8E7BB4503DD0098E4
:100450000078C00706D1BDE8F88F00202146BDE82E
:10046000F84F1047A9EB07050026AE42F3DA20202B
:100470002146C0470136F8E72DE9F04F85B0164612
:1004800000278B46D1F8048040F2FD11202204465B
:1004900003970EF051F904F5FE7084F8FD71049095
:1004A0009BF80C00A0F16101172929D80122C04B4B
:1004B0008A401A4209D003A904AA5846334600F0DC
:1004C0007BF900274FF0000937E112F0710F25D1B9
:1004D000022915D130680027011D3160006884F8B9
:1004E000FC01C0B2DBF80010B0FA80F04FEA5019FE
:1004F00021F00201CBF8001004F2FB1104911CE181
:10050000A0F14501032909D3252800F08180412865
:1005100004D05828CFD04FF0000984E03068A54DB2
:10052000073020F0070000F1080131609BF80C3023
:10053000A3F161021E461A2A38BF203E90ED000B3F
:1005400051EC100BCF432F4219D10F466FF31F57B9
:10055000074314D061204FF000099E4208BF41209C
:1005600084F8FB014FF06E0008BF4E2084F8FC01B8
:1005700084F8FA01022704F2F9100490DDE021F07A
:1005800000477D40054320D16E229FED870B9E42A0
:1005900008BF4E2284F8FB214FF0660208BF4622B6
:1005A00084F8FC2169229E4208BF492284F8FA217E
:1005B00004F5FC72049253EC102B08F035FE58B38E
:1005C0002D204FF0000904272AE08DED000BB1F13A
:1005D000FF3F4FF000099DF8075085F080058DF82A
:1005E0000750009DC8BF05460198C8BF084640ECAB
:1005F000105BCF0FA3F14100062840F29880062A35
:1006000000F29B80DFE802F09C999999ADB2B700A7
:1006100025202080012087E02B204FF000090327B0
:1006200084F8F90189E0A0F16F014FF0000A09296F
:100630004DD8012202FA01F140F24322114246D084
:100640009BF8000004EB08072646C007049809D170
:1006500004F2FD11DBF804202646091A9142DCBFA2
:10066000791A4E1C411C304600224FF4FF730025BE
:100670000DF0F6F8B9F1000F04901CBF00F8015B13
:100680000490B84207D8391A0138202201310EF0FF
:1006900053F8002038709BF80000C00605D4311BC9
:1006A000204620220EF048F83AE0A64238D0311B0E
:1006B0002046302230270EF03FF8039850EA0A0017
:1006C00012D19BF8000040070ED4204612E05828B3
:1006D000B6D0002F39D0012F5CD101200390DBF878
:1006E000000000F0020A36E03178204600F8011BD5
:1006F00006F8017B9BF80C1041290DD0582905D034
:10070000612909D0782901D0702909D19BF80020EE
:10071000120701D4612903D17178417030207070C3
:1007200020460EF047FA484405B0BDE8F08FDFE8F8
:1007300000F007040404181D22009BF80C0072E767
:1007400004A9584600F0B4FBBCE6DBF800000399AE
:1007500000F0020AA1B104982D2100F801190490BB
:100760006EE704A9584602F0C7FAABE604A958465A
:1007700009F0B0FBA6E604A9584601F0E1F8A1E6AD
:10078000BAF1000F09D1400704D50498202100F8E0
:10079000011904904FF0000A52E704982B214FF002
:1007A000010ADAE700BF00BF0000000000000000FF
:1007B00008C190000000F07FF8B505468068144637
:1007C0000F46B0F1FF3F04DD286820F010002860DC
:1007D00001E00120A860287B1026582807D078283F
:1007E00005D0702803D06F2814BF0A260826284693
:1007F000194600F053F8AA684AB950EA010206D136
:100800002878000749D52B7B0020002112E02B7BA4
:10081000642B04D16423B1F1FF3F0BDC04E0692BAE
:1008200008D1002906D5692301223A6000224042FE
:1008300062EB01013246009400F0AAF83021AA6868
:10084000904205DA22680130531E23601170F6E7EA
:10085000287B582818BF782810D1297809070FD588
:1008600021684A1E2260702808BF7820087020681E
:10087000411E216030210170287B01E07028ECD0FE
:100880006F280AD12878000707D5206841783029D9
:1008900003D0411E216030210170F8BD027B702A17
:1008A0003FD0006843F660731840B0F5005F18BF92
:1008B000402812D1A2F16400142830D8012303FA91
:1008C00000F0324B18422CD110F0210F27D00868CD
:1008D000021D0A600068C1177047B0F5807F26D0FE
:1008E000B0F5007F3CD0B0F5006F20D0B0F5805F50
:1008F000E0D02028DED1A2F16400142808D801231A
:1009000003FA00F0214B184204D110F0210FDED180
:10091000582A39D10868021D0A60008805E0582A63
:1009200032D10868021D0A60006800217047A2F1F8
:100930006400142808D8012303FA00F0134B18426E
:1009400004D110F0210F01D1582A1DD108680730B9
:1009500020F0070000F108020A60D0E900017047AA
:10096000A2F16400142808D8012303FA00F0074B11
:10097000184204D110F0210FA9D1582A04D10868D7
:10098000021D0A600078D0E70020CEE700081200C0
:10099000F8B505461148124E582B069F144608BF5D
:1009A000064655EA010011D13868421E3A603022ED
:1009B00002700BE02846224600F014F83A68531EF5
:1009C0003B6000FB14530546F35C137055EA0100CD
:1009D000F0D138680EF0EEF80138F8BDC50401001A
:1009E000B4040100102A06D0082A09D1C00840EA40
:1009F0004170C9087047000940EA01700909704751
:100A000019B9B0FBF2F00021704780B500230DF05A
:100A10009DFE80BD2DE9F84305460C46480414D4DC
:100A2000A00023D4A0075DD4600500F180802005DC
:100A300000F10781200700F13C81600040F1F78060
:100A400008F026FA24F08044F1E00EF0AEFBDFF867
:100A500024140F6D3FB1D7E90A1202F0E04201F011
:100A60000A01891848D00EF0A6FB5DE0BC48DFF80B
:100A70000874016841F080010160B878012804D150
:100A800004200BF05DF80020B8700EF08EFB0646D7
:100A9000B448406D016804208847DFF8E4130A6811
:100AA000904219D12A7EBAB1FA68AAB1DFF8C4031C
:100AB000806C002800F09880C16840F60302098825
:100AC000914206D0C06840F604010088884240F098
:100AD0008B8005F1140089E040F6C4120860C5E976
:100AE000042285E002F076FCDFF88803006C002821
:100AF00008BF24F002049AE0D7E90A65D7E90A1290
:100B0000AA43B143C7E90A120EF055FB56EA0501A4
:100B1000B86818BF002807D0D7F808C03869B7F9F7
:100B2000301032462B46E04724F480447FE00EF03C
:100B30003CFB05460CF030FA002800F0B780CD48A9
:100B4000876B002F00F0B280DFF82C830420CD49A2
:100B5000002288F81800C7480CF0F6FA0EF0B3FA35
:100B6000C9480EF01EFBC5480068006B8047C8F8F6
:100B700010000125042088F802500BF015FA38699E
:100B800090F82810C8F80400490703D5436A0421E7
:100B900000229847012008F0C3FED8F804004576EB
:100BA00005F05AFED8F8040081680B461A465B68C7
:100BB0004BB11E88A6F60306072EF7D805FA06F6EF
:100BC00016F0830FF2D0537B03F0F003013353731D
:100BD0000023FD6853602D88A5F60305012D00F262
:100BE0008A80C8F810309FE005F110000AF0DEF8A6
:100BF00030460EF0E0FA0BF0EFF978B12E6A284695
:100C00006FF4807100224FF00073B0479948806BF9
:100C100010B108F03DF901E044F00204EE69284605
:100C2000002100224FF08063B04724F0005434B11B
:100C3000984821462830BDE8F8430EF0D6BABDE802
:100C4000F8838D4EB078012804D104200AF078FF93
:100C50000020B0700BF0C0F938B170686FF480718B
:100C600000224FF00073056AA847306950B18348ED
:100C70000068006B804732697168801A000BC86099
:100C8000002030617B4D8249002228460CF05CFA3E
:100C900002203076286C20B17E48022128300EF0E8
:100CA000A4FA08F0F5F824F40064C0E70EF00BFA9B
:100CB00041E00EF07AFA05460CF06EF9A0B1DFF8CB
:100CC000B88198F8000000070ED498F900000028B9
:100CD0000AD4684605F0BCFF08B1009820B1DFF8DF
:100CE000B89199F8610048B30EF0EDF908F0D0F82A
:100CF00024F008049BE7034633F8385FA5B190F869
:100D0000445090F8456005F0F00580F8445006F036
:100D1000F005013580F8455000255360C5634587CF
:100D2000507B00F0F000507358480022C26101600F
:100D300001200CF023FB24F4806478E700260127CF
:100D4000602E11D009EB0600817A31B18772407AAA
:100D500007FA00F0C0B20AF027FF2036F0E700BF24
:100D6000CC2108408C010010032088F81800464868
:100D70000EF017FA0EF0A7F9444F3E4D00227869A5
:100D800000207861F968F860284644490CF0DCF9E5
:100D90003A480068006B8047D8F80C10D8F820203B
:100DA000411A02EB1130B0EB113F38BF4FF0FF306A
:100DB00098F82410C8F8200021B1D8F80810B0EB3A
:100DC000C12F20D90CF0EAFAB8B140F6090041462B
:100DD00021F83C0F002048804A7B02F0F0020132EB
:100DE0004A730A7B02F0F0020A734860F8613960C6
:100DF000B8F83E0010F4406FFAD00020C8F8200088
:100E0000012088F8240009F081FC254800210160B8
:100E1000022000210CF0B2FA02200AF091FE10200C
:100E200005F0B2FA98F8010020B9D8F80400503063
:100E30000EF0D3F91B48807810B90D2005F0A4FA04
:100E400098F8250028B1002088F8250005200AF030
:100E500077FE002088F818001348C8F81C0002200C
:100E6000B5F85610B5F85420914208BF072007F096
:100E700067FD3BE710060020E40400208C01001011
:100E8000980A002075CF0000406100200010044047
:100E9000D54A00004C050020405F0020F58E000080
:100EA0000000046060060100C54400000CF0BABEFA
:100EB0002DE9F84F2DED048BA6B09FEDA18B0746D1
:100EC000002054EC105B8A46B0EE409A0B90284606
:100ED0002146F0EE609A53EC182B08F0B9F9A8B946
:100EE0009FED998B2846214653EC182B08F0A6F964
:100EF00060B99FED970B2846214653EC102B08F064
:100F000089F9B0EE498AF0EE698A48B9B0EE480A2C
:100F10000BA8F0EE680A07F087FE0B9801380B90DB
:100F20008DED088B9FED8A0B8E4A8D4958EC184B3E
:100F30009DF8270056EC105B80F0800033468DF85A
:100F4000270030208DF83000387B412808BF0A4642
:100F50000792204641462A4608F066F9089A00287A
:100F6000334608BF22460999104608BF414641EC66
:100F7000182B2A460695059608F04CF90DF1300B12
:100F8000BD6804970BF1010698B9B0EE480A25A890
:100F9000F0EE680A07F048FE2598B0EE480AF0EE39
:100FA000680AC0F1010003F083F9B0EE408AF0EE68
:100FB000608A58EC189B4846414609F057FD314677
:100FC000044608F00CFE074620460BF011FA0246D4
:100FD0000B464846414601F0CDF841EC100B013577
:100FE000CDE902762AD39FED5C1B06EB070BCDF80B
:100FF00004A058EC114B59EC10ABDDE9053250461A
:10100000494608F007F9D0BB5046494622464346B8
:1010100003F05CFE05460E4609F028FD07460BF07E
:10102000E7F902460B462846314601F0A3F841ECA9
:10103000100B0798C05D0BF8010BDCE79FED461B1A
:10104000BB4459EC118BF5B151EC100B42464B46A9
:1010500003F03CFE06460F4609F008FD04460BF07F
:10106000C7F902460B463046394601F083F841EC99
:10107000100B0798013D005D0BF8010FE3E7049E9C
:10108000DDE901A81CE05C46079D14F8011928461B
:101090000DF0A5FB401B049EDDF8088008280FDB3F
:1010A000079F0025217838460DF099FBC01B0E28BC
:1010B00002DD04F80159F5E70799084440782070EB
:1010C0000020702152468BF80000307B412808BF79
:1010D00050210B9809F0E2F8B268039C501C04D12F
:1010E00020460DF067FD421EB26020464146534641
:1010F0000AF02AFEB06808B1012202E03068C0F3AD
:10110000C00220464146534607F050FCDAF8000082
:101110007822411ECAF80010317B412908BF5822AD
:101120000270DAF80000411ECAF800103021017088
:1011300026B0BDEC048B01B0BDE8F08F00BF00BF4E
:10114000000000000000F07F000000000000F0FF41
:10115000000000000000000000000000000030401F
:10116000C5040100B40401002DE9F04F85B0BAB107
:10117000D0E9008A0DF11009002B14460D460746F0
:1011800018BF99460EF011F8064698F8070050B1BE
:1011900098F82C0160B10DF08AFF6FF008041DE192
:1011A0006FF009041AE10DF082FF6FF00E0415E1F3
:1011B000012088F82C010020C8E94C54C8F83841B7
:1011C00088F80B00C8F84001C8F83C0088F80D000A
:1011D00050460DF0A7FD0DF06AFF0DF08BF998F861
:1011E000052008B9002A77D00E99CDE90197481E4D
:1011F00010F1030F08D83AB908F5CA7420460DF06B
:10120000CCFF20460DF0CBFF08F58A7408F5A276D6
:101210000DF0CBFF07460DF10C0BD8F83801002874
:1012200000F0BE8098F80B00002840F08D8098F800
:101230000D00002840F08F8030460021B1460DF0AF
:1012400077F90DF03DFF204659460BF0A2F807460E
:101250000DF0ABFF0646D8F83801D8F840118742A8
:1012600088BF0746039829443A460EF041F82046C5
:1012700039460AF073FAD8F83801D8F84011C01B83
:10128000C8F83801C819C8F840010DF010FF012F47
:1012900003DBD8F838010028D5D10DF086FF0746CA
:1012A000D8F8400128B150460DF03CFD029805F0F9
:1012B0001FFD98F80500012851D0022866D0D8F803
:1012C00038114E4600296AD00DF0FAFE0DF046FEA8
:1012D0000DF06BFF0746A0E798F84400C00615D54F
:1012E000D8F84060D8F84830384610210022B0477E
:1012F0000CE0D8F8400121462A1850460AF088FC34
:10130000D8F84011241A0144C8F84011002CF0D13B
:1013100050460DF007FB0028FAD050460DF0F6FCC1
:1013200098F84400800607D5D8F84040D8F84830EF
:10133000384620210022A047002488F82C41D8F804
:101340004001C9F8000049E00020019E6FF00D0443
:1013500088F80B0032E0019E6FF00C042EE0D8F804
:1013600038010024019EA0BB384688F82C410DF0BE
:1013700022FF98F81100DDF808904FF0010A88F874
:1013800012A078B300240DF010FF16E0D8F8400149
:101390000024002808BF6FF00F04019E12E010B176
:1013A000019E00240AE00DF08BFE0DF0D7FD0DF03C
:1013B000D5FD00240DF0F9FE019E074698F80500C2
:1013C000012806D0002088F82C0108F5CA700DF01D
:1013D000E8FED8F8400130600DF072FE204605B0FE
:1013E000BDE8F08F002401200028CBD0D8F8483089
:1013F000D8F84021D8F8D87148462946A8F811A055
:101400000094B84798F8120088F81140ECE770474C
:101410002DE9F04F8DB0044600209A4616460F463F
:10142000CDE90B00CDE9090087488568804605F0C5
:10143000BFFA262803D005F0BBFA25281BD1308837
:1014400040F60201884218BFB0F5C15F03D1F07BBE
:10145000022810D93EE043F6070188420BD196F8E6
:101460002400032807D33069784940F0806020F0D9
:10147000604088422ED100206FB366B3387825FAD9
:1014800000F0C00726D0304600210DF098FE7048CD
:10149000C4E90176006880B109A800900CA90BAAE4
:1014A0000AAB304602F0E0FC0B980B214FF6FF72BE
:1014B00050230BF0F3FEFF280CD00DF076FE654FA5
:1014C00006467878012802D840B1012070E0304605
:1014D0000DF071FE00200DB0BDE8F08F02F038FC79
:1014E0005D480DF10409016841F0020101605B48AB
:1014F000C8F8000048460DF0FDF9DFF864B15A491C
:101500004A469BF801009BF800500390554828304C
:1015100009F044F9554856494A4609F03FF948460A
:101520000DF088F9DFF84C81534A19214B4602959A
:10153000404609F07DF8514A08F11C001A214B463B
:1015400009F076F84E484F490DF051FD4E484F498D
:101550000DF04DFD4E48006810F4402F06D04D4A66
:1015600007F12800042100230BF0E0FC9BF80200A7
:1015700010B10D2004F0BCFF08F140000CF0CBFED0
:1015800008F138000CF0C7FE4349002007223876E6
:10159000B8843862386181F860200521C7E90210FB
:1015A0003E49F9613870042000210BF0E7FE78789D
:1015B0002C4941F820400130787030460DF0FBFD99
:1015C000BAF1000F06D10DF1040A35492022504628
:1015D0000DF08EFEDAE90012BAF81000DAE90635ED
:1015E000002AB2FA82F608BF40F6C4126261216096
:1015F00060832563760926764FF4FA76C4E90362A0
:1016000001226276274AC4E90722C4E90923DAF8ED
:101610000C0000B12062DAF8140000B16062DAF860
:10162000080000B1E06104F13800C8210DF08AF82B
:1016300004F1500000210BF027FB1B4904F1B80016
:101640000DF0D5FC204646E7CC2108400F000005F0
:10165000080A0020E404002000200940110000E0F6
:10166000600601004C050020A1D90000086200209E
:101670002D5F000010060020F58E00009D82000006
:101680008461002051CF0000406100204DD900004E
:10169000B44F0050C1A00000405F0020C5440000CE
:1016A000180501002B230000CDF000002DE9F04FBC
:1016B00085B0D0E900498046D9F80000D0F840A0B4
:1016C0001AF4F06FC0F844A039D0216CB9B30022ED
:1016D0005FEA4A512260A27317D5D4E91401411A76
:1016E00040460AF0F5FED9F800008169C90605D424
:1016F00001688DF80B109DF80B10F6E721684A1C65
:10170000A17B226009B90121A173616C40684FF08F
:10171000004600F00F0505EA0100B0FA80F126FA54
:1017200001F1014004D0276C17B1A36C4046B847C3
:10173000B5FA85F026FA00F028404042A063D4F8BC
:10174000E001D9F83C100AF0400B40680068D0F87E
:101750000425114051EA0B0165D0404608F0BEFA5D
:1017600059464046BBF1000F18BF012105F076F93C
:10177000207901284AD1206F002847D0CDF8049065
:10178000D8F8009004AE09F14C05284631460BF01C
:101790000EFDD9F870100746D9F86800D9F87820FE
:1017A0008F4288BF0F46049910443A460DF0A0FDC1
:1017B000284639460AF0D6FDD9F87000D9F87810D5
:1017C000C01B3944C9F87000C9F878100FB100285F
:1017D000DBD1404608F082FA4046002105F03EF990
:1017E000DDF80490BBF1000F02D0A079012801D0F0
:1017F000206F58B90020A36CA16EA26FD4F81051CD
:10180000206784F8640000904046A847BBF1000FB1
:101810001CBF0120E07404F17C000DF0DEFCD4F864
:10182000E0014068006800F204500068D9F8381000
:10183000084255D0D4F83C01002851D0404607F06A
:101840007BFD404605F054FA607901283BD1D4F87D
:101850003801C0B304F58A7503A928460AF099FD3A
:101860000646D4F83801D4F83011D4F84021864225
:1018700088BF06460398114432460DF039FD2846CC
:10188000314609F06BFFD4F83801D4F84011801BC1
:101890003144C4F838014046C4F8401105F028FA34
:1018A000D4F8380178B994F82C0160B1002084F89C
:1018B0002C01A36CD4F83011D4F84021D4F8D851BD
:1018C00000904046A847D4F83C0128B9D9F8000058
:1018D000816B41F40061816304F5A2700DF07DFC21
:1018E0005FEA0A5026D5D9F8000081690907FCD4BF
:1018F000016B21F480710163217A89B1002020728B
:1019000094F84400800606D5256C25B1A36C4046AA
:1019100020210022A84702200AF012F9D9F800007D
:10192000816B21F400618163607918B904F5A270BC
:101930000DF053FC05B0BDE8F08F012208F060BC4B
:101940002DE9F84F2DED028BA2B08046806820B1C2
:10195000B0F1FF3F04DC062000E00120C8F80800D9
:10196000029004918DED060B9FED7B1B55EC104B07
:101970009DF81F00294653EC112B80F080008DF854
:101980001F003020019205938DF82400204607F0B7
:101990004BFC9FED730B069900284FF0000A08BF1F
:1019A0002146079856EC109B9FED710B08BF284607
:1019B00040EC181B54EC10BB55EC187B4A463346E0
:1019C0003846294607F04EFC50B1384629465A465B
:1019D000234601F09DFD41EC180B0AF1010AEBE7EB
:1019E0009FED610B019F2546CDF80C8056EC104B06
:1019F00058EC189B059B3A464846414607F00AFCBE
:101A000088B9484641462246334607F00DFC50B19E
:101A1000484641465A462B4603F058F941EC180B0C
:101A2000AAF1010AE4E74846414609F01FF80DF122
:101A3000240808F10106314608F0D1F802998842DD
:101A400005DD013118F8012008EB010426E0C94347
:101A500008EB0004A946059001EB000857EC185B61
:101A60002846394609F002F80AF0C2FC02460B4645
:101A70002846394600F07EFB5A464B4603F026F9CD
:101A800041EC180B08F0F2FF00F1300218F10108E8
:101A900004F8012FE2D305980DF1240800EB0A05A4
:101AA000D0B2039F35280CD3601E3021027801325A
:101AB0000270D2B23A2A02D300F80119F6E7404583
:101AC00002D00020207004E00020013504F8010C51
:101AD00009AE049C15F1030F02DBB868854207DDEF
:101AE000397B681E22460239C9B208F0D7FB0125AE
:101AF00030460DF05FF8013800220121A8421ADBC0
:101B0000002801D4325C00E03022B2F1300318BF6B
:101B1000012363EA0101C90705D13978090702D415
:101B20000022012105E021684B1E23600A7001227A
:101B300000210138E2E738682946234600F0080012
:101B40000243304618BF012206F030FF22B0BDEC40
:101B5000028B01B0BDE8F08F000000000000000023
:101B60000000C0FFFFFFDF41000000000000F03F69
:101B700000000000000024402DE9F04F85B004ACC7
:101B8000002B814616460D4618BF1C46D0F800B003
:101B9000002020600DF009FB9BF8071039B19BF87D
:101BA000641049B10DF007FB6FF00804CBE00DF0B5
:101BB00002FB6FF00E04C6E0002102940E9C01228D
:101BC000CBE91A56CBF87060CBF878108BF813106D
:101BD0008BF80C108BF80A108BF86420CBF83810B7
:101BE0000DF0E9FA484609F008FF601E10F1030FF6
:101BF0000BD89BF8040040B90BF1CC0621463046C7
:101C00000DF0CBFA30460DF0CAFA0BF14C070BF190
:101C10007C080DF0CAFA06460DF10C0ADBF87000DC
:101C200000287ED09BF80A00002862D19BF80C00A7
:101C3000002864D1484608F06BFA404600210CF0B9
:101C400077FC0DF034FA384651460BF0B0FA0646F0
:101C50000DF0ABFADBF870100446DBF878008E422A
:101C600088BF0E460399284432460DF041FB3846A2
:101C700031460AF077FBDBF87000DBF87810801B48
:101C8000CBF870008819CBF8780020460DF093FA55
:101C9000012E03DBDBF870000028D4D10DF085FAAB
:101CA0009BF804100646DBF8780002292AD088B198
:101CB0004846002104F0D2FE9BF804109BF8060071
:101CC00001292AD018B19BF8130000286BD1DBF84A
:101CD000700030B30DF0EBF99BF80400012817D029
:101CE00040464FF0FF310CF023FC0DF05EFA064643
:101CF00094E700206FF00D048BF80A0012E06FF0FB
:101D00000C040FE00024002808BF6FF00F0409E066
:101D100000240DF04AFA064604E0C0B9DBF8700072
:101D2000A8B10024029F9BF80400012806D00020DF
:101D30008BF864000BF1CC000DF033FADBF878007F
:101D400038600DF0B4F9204605B0BDE8F08F0024EE
:101D5000012530468BF86440CBF870408BF810506A
:101D60000DF029FA9BF80F00029FB8B912E00DF0B0
:101D70001CFAABF80F500DF01EFADBF84830DBF818
:101D80006810DBF87820DBF8106148460094B04713
:101D90008BF80F409BF810000028E8D100240DF0CC
:101DA00004FA0646BFE700248BF81340BAE77047F1
:101DB0002DE9FE4F1D4614460F4681460DF0F5F9FC
:101DC000DFF8BCA183464FF6FD78DAE900104945FB
:101DD00018BF084660B1B8300CF04BFE40B19AF81D
:101DE0002400CAF8209040F004008AF824009DE006
:101DF0000BF0B4FA002866D006466248CDF808B069
:101E0000DDE90CB80DF0CDF95F4908F0200EB1F80E
:101E1000540001306FF31F30A1F85400B5605B48E7
:101E20000025C6E903792268D4F80C8086F8325080
:101E3000C6E908550BEA000C207C72632279C6E9DA
:101E400006CEC6F8408086F8440086F83820B1F8FF
:101E5000541086F83350D4E905533186A168C6E999
:101E60001253F163A18BA6F8501028B9B8F1000FF6
:101E70001CBF012086F844004AB9387B00F00F00EF
:101E8000022804D1012086F83800B8687063DDF8B4
:101E900008B00822FF2353FA82F23C46D0B29042A7
:101EA00002D06768002FF6D1208800F47C40B0F59E
:101EB000305F0BD196F833000022082340F0100069
:101EC00086F8330004E008F101082FE00022022325
:101ED0004CEA03004EEA02012B4DC6E90601DAF88E
:101EE0002000484507D19AF82400C1071CBF00F024
:101EF000FE008AF824002648046854B1A96CEA6CF4
:101F000005F1400005F1380300903046A04703304A
:101F100013D1FD209AF82410CAF820904FFA80F8C7
:101F200041F004018AF824100CF09CFC58460DF096
:101F300042F90FFA88F0BDE8FE8FB6F83080B5F8A8
:101F40005410414501D00CF08DFCC0B2012801D8DD
:101F5000FE20DFE7002089F8FC0096F8330040F00F
:101F6000800086F83300A86BB04205D0F068007B93
:101F700000F00F000228D9D106F08AFFD6E700BF93
:101F80004C0500204061002010060020FFEFFF9F5D
:101F9000180A00202DE9FF41DFF8C08100200390DE
:101FA0000290D8F83840B4B3D8F84C0010B9D8F83B
:101FB000480070B3D8F8480060B12069D8F84810DC
:101FC0000969814206D194F83300C00602D5D8F8D9
:101FD0004C0090B1002702A887F0010103AA05F088
:101FE000F3FA0546FFB9F5B10299002900F09F8088
:101FF0005B480BF075FF002714E0D8F84800C06874
:1020000040880028F9D0D8F84800C06840880128E6
:10201000F3D00127DFE75348022128300DF0E5F81F
:1020200000270025002434B34F4846681EB30298A9
:1020300085F00101002818BF012008431BD1D8F802
:102040004800D8F84C10039A87F00103CDE900321C
:1020500008F1380208F14003B047012869D002288E
:1020600009D1D8F84800012201230069D8F84810A6
:10207000B1F9301066E0B4FA84F187F00100490943
:10208000084352D1394821694068814203D035481C
:102090004FF4806146E0029985F00100B1FA81F1C8
:1020A0004909084306D1D8F8480018B9D8F84C00B7
:1020B00000284DD008200BF065FC94F833004C2527
:1020C000C00658BF482508F138000BF04EF848F814
:1020D0000500274BD4E90601C2439A60DA68104331
:1020E000D860C843186058680843214658600820E3
:1020F000E5680BF043F928460BF0C0F8288843F652
:102100000601411A022906D3B0F5C15F03D040F69B
:102110000201884203D1012029460BF02FF9114812
:102120004FF0804128300DF060F8BDE8FF810027B6
:1021300079E70398002818BF0446B4F930102069E5
:10214000012200230092002201F070FDBDE8FF8112
:10215000082009F029FDBDE8FF8100BF100600201E
:10216000846100204C050020180A0020E4040020AF
:10217000081004402DE9FC4F83F0004301E02DE9F5
:10218000FC4F1F03FF0847EAD2574FEA42284FEAA5
:1021900043095FEA595906D147EA080A1CBF0021E2
:1021A0000020BDE8FC8F57F000575FF4E06E1EF191
:1021B000FF0EF14505D14FF00000190D0905BDE8EE
:1021C000FC8F002B05D55FF0000AD8F100086AEB00
:1021D00007070C03E40844EAD0544FEA40254FEACD
:1021E0004106760D08D144EA050A19BF00210020F6
:1021F00019461046BDE8FC8F44F00054764504D1E2
:102200000020090D0905BDE8FC8F002904D55FF009
:10221000000A6D426AEB0404B6EB090E08D5A2462B
:102220003C465746AA464546D046CEF1000E4E469D
:10223000BEF1360F5CBF4FF0000B23E0BEF1000F84
:1022400004BF4FF0000B1AE0CEF1390ABAF12009B1
:102250002EBF08FA09FB07FA0AFB4BEA080BDEF16E
:10226000200A07FA0AFA38BFBA4647FA0EF72DBF16
:1022700028FA0EF8AEF1200E4AFA0EF8D04415EB0B
:1022800008057C4154EA050A02BF00210020BDE890
:10229000FC8F002C58BF4FF0000A06D55FF0010AF2
:1022A0005FF0000E6D426EEB0404A6F101066D00B6
:1022B0006441FAD515F4806E11D005F480794BEAAB
:1022C000090B15F5806554F1000428BF761C0BD26C
:1022D00005F400795BEA090B08BF25F4006525F4D5
:1022E000E0656D0044EB0404B61CDEBF0021002055
:1022F000BDE8FC8F5FF4E06E1EF1FF0E76450AD359
:102300004FF0000013F00043FF21C900C91D09056B
:102310001943BDE8FC8F270547EA1530210B41EA38
:10232000065141EACA71BDE8FC8F7047F0B587B02D
:10233000044663480078A04213D908780D46012866
:1023400001D1686868B16878012801D1A86840B1F6
:102350005C4F57F834600CF028FFF17929B10CF08C
:102360002AFF0024204607B0F0BD07EBC40401217A
:102370006768F1710CF01FFF002005F1040CF07488
:102380007074F081B0602988B180297DB1719CE8BA
:102390000C102969C6F8D831BCF1000FC6F810211D
:1023A000C6E910C1A9693163697F86F83510297FB4
:1023B00086F83410A97F86F83610296AC6E91A0013
:1023C000C6E91C00C6E94C00C6E94E0086F8640068
:1023D000C6E90E00B16486F82C01C6F8E00102D10E
:1023E0003949C6E9101097F8400004F081F8D7E9A0
:1023F000031206F14C000CF075FAD7E9051206F548
:102400008A700CF06FFA314938680968C9688847E2
:10241000796C97F824000BF061FAB96C97F82000FA
:102420000BF05CFAF869012809D1F96C97F82800DB
:102430000BF054FA396D97F82C000BF04FFA06F0B8
:102440008BFDC6F8E001204602F042F9204A06F56D
:10245000F270042123460AF069FD04AD28460CF011
:10246000E9F9387A1B4A2B460494059006F11400CA
:10247000796808F0DDF806F17C0000210AF004FC20
:1024800006F5A2700021002209F09CFA01AD284651
:102490000CF050FD104906F1CC0000222B460394AD
:1024A00008F008FB0D4906F5CA7000222B4608F01B
:1024B00001FB3868D7E90C121060486052E700BF92
:1024C000A1010100A806010047360000D00100105C
:1024D00045E50000AD16000001ED0000D1D100007F
:1024E0002DE9F84F2DED0A4B1446D2F800900A68FA
:1024F0001D460646134613F8010B24280B6024D111
:10250000507802320A6053281FD1288B0128D9F84D
:102510000000E86109F1040020602B8BA968EA69DA
:102520003068009323460DF025F8316829B1AA6878
:102530009042A8BF501E014431600021D4F80090A1
:10254000E9602968091A29608CE0662809D1288B7E
:1025500001280AD159F8040B09F018FA41EC180BBC
:102560000BE0E969087001207AE009F1070020F02A
:10257000070090ED008B00F108099FED3F0B58EC30
:1025800018BB584641465AEC106B3246534606F08B
:102590004BFE059660B12869013828618DED068BE8
:1025A0009DF81F0080F080008DF81F009DED068BC8
:1025B0009FED330B56EC187B3846314653EC102B0D
:1025C00006F050FE20B10720E8603148E86148E09D
:1025D0003846314608F060FD0BF060F802460B46C5
:1025E00038463146FFF7C6FD9FED270B53EC102B05
:1025F00002F06CFB08F050FD0146686904220A23D2
:1026000006F0C0F8411ECDF810A0CDF80C80CDF832
:1026100008B0E9612E2100F8011C3146D5E904A07B
:10262000D5F81C80A0EB080B3846C5F80CB008F0B4
:102630001DFA0146AAEB0B0240460A2306F0A2F857
:10264000E861059A02AB06460BCB06F0EDFD28B11A
:10265000701EE8612D2006F8010CEE696869801B88
:10266000E8600020C4F80090BDEC0A4B01B0BDE862
:10267000F08F00BF00BF00BF00000000000000009E
:102680000000C0FFFFFFDF41000000000088C340E2
:102690002003010082B02DE9F04F8BB00D460746B4
:1026A000CDE914230CF062FF81460CF05BFFDFF8EC
:1026B00080810446D8F8000030B95E4E00213046D3
:1026C0000CF04CFFC8F8006020460CF043FF14A843
:1026D00015F400760A9002D14FF0000A09E00A983A
:1026E000DFF854A100F1080140680A91002818BFE2
:1026F00082461FB338460CF064FA83463EB1DAF8DE
:10270000040001281ADBDAF80800002816DD02A808
:102710000BF0DEFDB9F1020F04D1D8F800000CF087
:1027200015FF019038460AF0FDF9044616B10CB1C8
:10273000280524D43EB934B9022463E00CF071FDBD
:102740001621016069E0394802AB082100220068C7
:1027500000900CF0F7FE002853D006468CB1E069DB
:102760000130E0610199B9F1020F03D1D8F80000FE
:102770000CF0E4FE05F48040C6E900404FE011246F
:1027800040E002AB0098242100220CF0DBFE98B35D
:10279000044601200BF1010B0022E061DAE901019E
:1027A000C4E9040102AB009859460CF0CBFE20624C
:1027B000E8B117F8011B00F8011B0029F9D1DAE98B
:1027C000011002AB002200270CF0B4FEA06040B163
:1027D0006760D8F8040000B144602060C8F8044085
:1027E000C0E7216A19B100985A460CF09FFE009884
:1027F000214624220CF09AFE0098314608220CF063
:1028000095FE0C240CF00DFDB9F1020F046004D10B
:10281000D8F8000001990CF091FE4FF0FF363046D9
:102820000BB0BDE8F04F02B0704700BF580B01007D
:10283000100A002044620020400601000BF000BA9C
:102840002DE9F84F2DED0A4B81463020CDE90212DB
:102850009FED5B1B55EC104B89F800008DED060BCE
:1028600029469DF81F0053EC112B80F080008DF855
:102870001F002046CDE9043206F0D6FC06999FEDF4
:10288000520B00284FF0000A08BF2146079808BFE6
:10289000284656EC105B9FED500B40EC181B5BEC90
:1028A000108B54EC187B2A4633463846214606F0F6
:1028B000D9FC50B13846214642465B4600F028FE1E
:1028C00041EC180B0AF1010AEBE79FED410BCDF843
:1028D000049009F1010759EC104B56EC185BDDE947
:1028E00004322846314606F095FC88B92846314620
:1028F00022464B4606F098FC50B1284631464246E7
:102900005B4602F0E3F941EC180BAAF1010AE4E797
:102910002846314608F0AAF8394607F060F900EB7E
:102920000A013E180298039AB94650441160471CA8
:10293000012F1DDBDDF804A055EC184B204629467D
:1029400008F094F809F054FD02460B46204629464B
:10295000FFF710FC42465B4602F0B8F941EC180B59
:1029600008F084F8303006F8010B013FE4D101E0B3
:10297000DDF804A016F8010C35280CD3B31E302165
:102980001A7801321A70D2B23A2A02D303F8011926
:10299000F6E7534503D0002106F8011C07E00020AC
:1029A0000399D14606F8010C0868013008604846D2
:1029B000BDEC0A4B01B0BDE8F08F00BF00BF00BF07
:1029C00000000000000000000000C0FFFFFFDF412A
:1029D000000000000000F03F000000000000244064
:1029E000B0B560480021604C016094F83A010328BA
:1029F00012D002282ED0012840F0AF8094F8400178
:102A000005F022FB002084F840015948817B022018
:102A1000002908BF06209EE054480168B1F5C06057
:102A2000C4F82C01B8BFC1F5C060D4F8101100295A
:102A300000D5494288422ADDD4F814010AF02EFA62
:102A4000D4F818010AF03CFAD4F828010AF05CFA2C
:102A500001201DE0454805680BF024FFC4F814016F
:102A60000BF028FFC4F818010BF02CFFB5F5C0617E
:102A7000C4F82801C4F8101109D094F830215AB1D3
:102A8000D4F81401D4F82021D4F82C110AE0002045
:102A900084F8300106205EE0C4F82401D4E9450240
:102AA000C4F82C110223C4F81C01002948BF6FF0A0
:102AB000010301EB41011944042391FBF3F111449B
:102AC0000029C4F820110FDD1F2931D3D4F82421A7
:102AD0002AB33E28A8BF3E200130292928BF29213A
:102AE000C4F81C010B3909E0D4F82421032A09D1C8
:102AF00011F1140FD8BF6FF013011531C4F8201174
:102B0000002113E00128D8BF0120013811F10A0F7C
:102B1000D8BF6FF00901C4F81C010B3103E0332961
:102B200028BF33211539C4F820110321C4F824111A
:102B30000AF0B4F901200AF0D5F9D4F820010AF01E
:102B4000BFF9D4F824010AF0DFF9A5F2FF510420FF
:102B5000032938BF0620C4F83C01BDE8B04001F0AD
:102B600021BB00BF3C500C401001002008400C402D
:102B7000E40501002DE9F047D0E900648246914662
:102B8000884696F823003769B58A50B1B168534832
:102B90000BF0CEFC10B16FF001074EE0012086F87B
:102BA000260000204F495246F0614D48C6F800808B
:102BB00086F821900AF0C8FA217827200CF0FDFA57
:102BC00038462946062200F03FFD48B196F8260017
:102BD00078B342480CF001FB002086F8260028E07C
:102BE000414D424CD5F8800320F00200C5F8800327
:102BF00096F82000042804D154F84C0C4169272091
:102C000088470220C5F8FC022068416806208847F2
:102C1000B0B1402028608020286096F8260028B1B6
:102C20002E480CF0DAFA002086F826000020C5F8BD
:102C3000FC024FF0FF30F061F7693846BDE8F087DD
:102C4000022009F0B1F90027B9F1020F0AD0B9F159
:102C5000040F4FF0000006D0B9F1060018BF0120A4
:102C6000800000E00020C5F84C010123D8F80C10CA
:102C7000D8E90102C5F85011C5F8547186F824301E
:102C8000264623681C690B46A047DAF8005095F8E1
:102C9000200002281AD00428CFD130688169154855
:102CA0008847B0F1FF3FDCBF4FF0FF30E861002004
:102CB000EF6985F8240095F821100339022928BF0F
:102CC00085F82500504608F011FDB6E708484FF09A
:102CD000FF310BF02DFCEF69AFE700BF0060002073
:102CE0006C630020D588000004440240FC01001001
:102CF00050600020010000802DE9F84F2DED048B7D
:102D00009CB0B0EE408A9FED529B8668894607468C
:102D1000F0EE608A54EC185B53EC192BB6F1FF3FD0
:102D2000DCBF0626BE602846214606F091FAB0B9FF
:102D30009FED499B2846214653EC192B06F07EFA5D
:102D400068B99FED470B2846214653EC102B06F03F
:102D500061FA002876D1B0EE489AF0EE689A9FEDBD
:102D6000420BCDE900694FF0000A5BEC106B9FED60
:102D7000400B55EC104B58EC199B32465B464846CD
:102D8000414606F051FA50B14846414622462B468C
:102D900001F09CFF41EC190BAAF1010AEBE7B846E0
:102DA00056EC197B22462B463846314606F050FA3F
:102DB00050B13846314622462B4600F0A9FB41EC83
:102DC000190B0AF1010AEBE7B0EE498ADDF804902D
:102DD000009E4746F0EE698AB0EE480A03A802AAB0
:102DE0003146F0EE680AFFF72BFD029D0446022DE6
:102DF00009D120460BF0DEFE204400210AF1010A31
:102E0000012500F8011C397B50464A4607F046FA76
:102E1000BA68204629464B4608F096FF20460BF03C
:102E2000C9FE854206BF3868C0F3C00201222946A8
:102E30004B46204605F0BAFD1CB0BDEC048B01B03A
:102E4000BDE8F08F4FF0000AC6E700BF00BF00BF2B
:102E5000000000000000F07F000000000000F0FF14
:102E60000000000000000000000000000000F03F33
:102E70000000000000002440F8B54B4C9021201DBC
:102E80000BF060FC494D9021281D0BF05BFC484E77
:102E90009021301D0BF056FC464F9021381D0BF051
:102EA00051FC8C2004212E60376025603C6020227C
:102EB000F0807171404EE88069710025E080F880F3
:102EC00061713F4879713F49C6E900453B4C206438
:102ED00004F11C00A4F844500CF00AFA94F82800FD
:102EE0003A49402240F0800084F82800364C2046C1
:102EF0000CF0FEF92661364E364906F114002031F9
:102F000060610A20E0776162A07733480221206285
:102F10000B20A073A6202077207B40F08000207338
:102F2000607B00F0F00001306073E07B40F0010056
:102F3000E073E07B40F02000E073E07B40F01000A5
:102F4000E073E07B40F04000E073E07B40F0800005
:102F5000E073208B40F001002083208B40F00200C2
:102F60002083208B40F004002083208B40F400401D
:102F70002083E07E40F00100E076E07E40F0020039
:102F8000E076E07E40F00400E076E07E40F0100065
:102F9000E076E07E00F09F002030E076B01C09F083
:102FA000F7FB3570F8BD00BF585A0020EC5A0020DE
:102FB000805B0020145C0020200A0020B005002067
:102FC000BC5E0020F8040100C8610020700301000D
:102FD0007C04002068060020A85F00202DE9F0474F
:102FE000012816D1DFF834A1DAF83401012813D111
:102FF0000220CAF834010AF08DFC0120012409F0F6
:10300000DBF860B1CAF834410AF088F94FF0FF34B8
:1030100081E06FF001047EE06FF004047BE09AF839
:103020005A419AF859119AF85801002C18BF0124F6
:10303000002918BF0234002818BF043401200BF007
:103040003BFE013818BF01209AF83811B1FA81F11E
:10305000490910EA010902D1002002F015FBDAF853
:1030600008002F4D10F0010807D12E4F286A816803
:10307000384688470428F9D0064640460BF07DFFC5
:10308000B8F1000F08D1012E04D1286A012142684D
:10309000244890470BF0FEFB28684169204688478A
:1030A0009AF8540120B12868C16A4FF480608847BB
:1030B0009AF8530120B12868C16A4FF481608847AB
:1030C00019480121016003200021CAF83401174882
:1030D0000160204607F0E2FD0128FAD1144E306865
:1030E000042009F069F8044612480125B9F1000FDF
:1030F0000560306802D1012002F0C6FA0BF0BEFD77
:10310000082009F059F80443CAF8345118BF4FF0A9
:10311000FF340AF003F92046BDE8F08710010020D3
:10312000B801001000400340282008600C2008402F
:103130002C2009400C4009402DE9F84FDFF834A15C
:10314000804605269AF80000022840F090804A4800
:1031500004240022494F8AF8004002602022DAF855
:103160000800D1F8009091F804B045490090384625
:103170000CF0BEF8BAF802000321F8810AF1500001
:1031800078603975397B41F080013973797B01F0C2
:10319000F001023179733E747C74B97C01F0E00176
:1031A0000131B974B97C01F0DF01B974B97C01F067
:1031B0003F01B974F97D01F0F0010131F975314930
:1031C00091E8FC00FCC0ABF102008AF85F009AF8BD
:1031D0005C0040F080008AF85C009AF85D0000F026
:1031E000F00001308AF85D004046CAF860900BF0AC
:1031F0009AFFA0BB99F80000800630D59AF85D00D0
:10320000214900F0F00002308AF85D000AF1240044
:10321000CAF8540091E87C007CC099F802008AF852
:1032200032004FF45860CAF834009AF8300040F089
:1032300080008AF830009AF8310000F0F000013088
:103240008AF831009AF8330000F0F00004308AF870
:1032500033009AF8330040F080008AF833000020F1
:103260008AF80100009807F0F5FE80B2C60B3046E0
:10327000BDE8F88F7C040020AC0A0020680600201E
:10328000D80401008C050100F80501002DE9F04784
:10329000DFF83CC189468246034613F8017B0CEBFC
:1032A00007004078C006F8D42B2F06D02D2F0AD166
:1032B0004FF000404FF0000803E06FF000404FF087
:1032C00001081F7804E0013B6FF000404FF0010857
:1032D000242AC8BF0022102A13D082BB302F21D14C
:1032E000194611F8017F47F02002782A21D11946AA
:1032F00011F8027F0CEB07025278920716D40A22CB
:103300001CE0302F10D1597841F02001782907D1E5
:10331000194611F8027F0CEB07025278920705D488
:1033200010220BE00A220AE0102208E010220B46CD
:1033300005E0302F01D3382F48D308223027B0FBC7
:10334000F2F4002604FB120E0020A7F13001092937
:1033500098BF91420ED30CEB07014D78690603D557
:10336000A7F13701914205D3A90620D5A7F157014E
:1033700091421CD2A04208D801D1714505D800FB6A
:103380000210991901364F78DFE70BF04AFF22212E
:103390000160B9F1000F4FF0004018BFC9F800A05C
:1033A000B8F1000F18BF6FF00040BDE8F087B9F129
:1033B000000F05D0002E18BF03EB060AC9F800A0C5
:1033C000B8F1000F08BF4042BDE8F0870822AEE721
:1033D000A00001002DE9F047DFF82491D9F840A0C2
:1033E000BAF1000F00F081800AF10C0108200206FA
:1033F0000FD0096869B10A88A2F60302012A02D92E
:1034000001380431F3E7DAF8100091E8FC003830B5
:10341000FCC0DAF808200025DAE90A10CAE90A55E2
:10342000B2B110F0E2440CD021F00F0220F0E243E0
:103430004FF0000852EA030005D00BF036FBB0470E
:1034400001E0884604460BF030FB42462346B04775
:103450000BF0ABFE0446B9F8560001306FF31F3095
:10346000A9F856004FF6FD70AAF8300009F14000A7
:103470008AF8335009F079FE20460BF09CFEB9F82B
:103480005600B9F8541088422FD11E48406890F871
:10349000FC10072000291C4908BF0520D1E9005471
:1034A00005F04EFA55B195F8FC00002100284FF0C8
:1034B000000008BF286885F8FC1000E0002044B137
:1034C00094F8FC200021002502B9256884F8FC103E
:1034D00000E00025A84288BF0546681C05D035B924
:1034E0000020BDE8F0470AF031BABDE8F0870BF0E4
:1034F000ADFBB5FBF0F10548BDE8F0470AF0F0BCC4
:1035000010060020E40400204C050020406100204B
:103510002DE9FC4191EA03084CBF4FF000484FF001
:1035200000084FEA03354FEA153556006D414FEA62
:1035300043075FEA575711BF45F4001500210020EB
:10354000BDE8FC8140F2007E1EF1FF0E77456FD092
:103550004FEA01334FEA133342005B414FEA410423
:10356000640D11BF43F4001300210020BDE8FC816D
:1035700074455DD0E41B002100205FF0360EAB42A5
:1035800000D1B24205D340414941921B63EB050390
:1035900001E040414941BEF1010E05D053EA020766
:1035A00002D052005B41EAE7BEF1200F09D2BEF122
:1035B000160F0CD3CEF1200720FA07F100FA0EF017
:1035C0000FE0AEF1200E00FA0EF1002009E001FA42
:1035D0000EF1CEF1200720FA07F741EA070100FAC1
:1035E0000EF011F4001F02D140004941641E401C3E
:1035F00051F1000111F4800F1ABF641C21F4800105
:1036000021F4001140F20037FF37E419DEBF00213A
:103610000020BDE8FC8107F58067BC4208D249085C
:103620004FEA300041EA045141EA0801BDE8FC815B
:103630000020FF214FEAC101C91D4FEA015141EAB3
:103640000801BDE8FC8170472DE9F04F89B00E46B6
:10365000834601A8202114460BF074F8202E08D0D0
:10366000182E04D0102E0CBF0127002702E00227DD
:1036700000E0032744F2040A4FF00108C4F2020AF2
:1036800040F2B01908FA04F5C1F200090094CAF832
:103690000054D9F8000044F2007441692720C4F2B4
:1036A000020488470320C4F88080C4F88400C4F86A
:1036B0000080C4F888004FF60850CFF6FF702158FC
:1036C0008F4218BF2750182ECAF8FC5315D101A8F5
:1036D000594618220BF00CFE0320C4F8880000BFE6
:1036E000D4F890008007FBD10020C4F248200121CB
:1036F000016020260DF1040B11E0BBF1000F18BF93
:10370000002E10D00320C4F8880000BFD4F8900029
:103710008007FBD10020C4F2482001210160CAF8D3
:1037200000B0CAF808600325CCF2000501200BF0B8
:1037300056FCD4F890002842F8D0D4F89000054008
:10374000C4F88850D9F80000016A27208847D9F8C2
:1037500000000169272088470020B0EB957F07D142
:10376000DAF800040099C043C84000F0010000E00E
:10377000012009B0BDE8F08F2DE9F84F0E46DDE9D4
:103780000A1805469246002012B1120A0130FBE7E2
:10379000C2B2022A98BF0220C4B2B8F10D0F28BFEE
:1037A0004FF00D0888F00F02A24288BF10466FF05C
:1037B00007020093A0F101092C4602EB8303324675
:1037C000002EC0B218BF0122C0F10F0043EA8212DE
:1037D00042EA090204F8582F4045B8BF80465FFA14
:1037E00088F704F1010B3A4658460BF081FD67203B
:1037F0005146A0F15802BA4203D929540138090AA6
:10380000F7E72846214622460BF001FD4EB1300A6B
:103810000A99FE2808D8207880EA16202070022411
:1038200022E00A99002424E095F8580095F85940C0
:1038300095F85A2095F85B3005F15D0BC04385F88B
:10384000580084F0FE00062485F8590082EA1660CC
:1038500085F85A0083EA164085F85B0095F85C000D
:1038600080EA162085F85C009BF8000070408BF819
:10387000000005F8689F3A46681C0BF039FD78197E
:10388000C7F10F0101300AF05DFF00982C862E620F
:1038900085F8348085F83500102068860020C5E959
:1038A000090AE862BDE8F88F2DE9F041414F04466E
:1038B0007878C8B1DFF80081B8F85400B8F856102D
:1038C00088421ED008F13801204609F05FFC80B91B
:1038D000D8F8480010B10069A04207D008F14001B3
:1038E000204609F053FC03E0BDE8F081D8F8480019
:1038F00038B1B0F9301020460A224FF0E04303F00F
:1039000001F80BF052FC2D4D0646284602C8A14294
:1039100008BF2846002101607878013878700006D9
:1039200036D17C60387E02280ED1082008F03CF9A0
:1039300030460BF040FC04F150004FF0FF310AF02C
:10394000F7FD0BF032FC064605F128000BF047FCB2
:1039500040460BF028FC1A480BF041FC08F11C0013
:103960000BF021FC174805F05DF9174805F05AF9EE
:103970001648416811B107F15000884707F1280047
:1039800009F0DCFC1248807810B10D2002F0FCFC3C
:103990007868A04204BF0020786030460BF00BFC32
:1039A00004F150000BF017FC04F1B800BDE8F04141
:1039B00005F038B9E4040020100600204C05002072
:1039C000086200208461002040610020080A002075
:1039D000600601002DE9F0410546880058BFBDE8AA
:1039E000F0810020002405F09BFF3E493E483F4FF8
:1039F000CC61086040F60A008846B887FC8797F8D3
:103A0000480000F0F00087F848003C6497F849004F
:103A100000F0F000013087F84900284602F01CFF52
:103A2000AC68012021460E46496849B10A88A2F6D1
:103A30000302072AF7D800FA02F212F0830FF2D03D
:103A4000707B00F0F000707307F13C007060284854
:103A5000806B28B1C0680088A0F6030002281AD342
:103A6000284630F8381FB1B10021E963698738640E
:103A700095F8440095F8451000F0F00085F84400F2
:103A800001F0F000013085F8450097F8490000F09A
:103A9000F00087F849000AF037FD1648F86197F8FA
:103AA000250030B107F01CF90028FBD006F052FECB
:103AB0000DE011480068016801208847012806D000
:103AC000707B00F0F000013070730C48F86100204A
:103AD0002146C8F81C00C8F800400120BDE8F041AC
:103AE00009F04CBC0010044001010E04E404002065
:103AF00010060020150A0000E0010010359C0000AF
:103B00002DE9FE430BF051FBDFF80C91804699F84C
:103B10000100B8B14148032201688260C80711D092
:103B20003F4C206841680220884701902068416826
:103B30000120884702903B4801A91C3006F024F878
:103B400008F0B0FCD9F80450EDB13649686A01AF0D
:103B500001F11C06A96A884219D23046394606F09E
:103B600037FC013011D0D5E90912E869541A08442C
:103B70003946082C28BF082422460BF0B9FB686A96
:103B800020446862E6E700240CE0D5E9090100243E
:103B9000884207D309F10400294608F0FBFE85F8A6
:103BA0003240012499F8010088B9D9F8040018B10D
:103BB00080680AF0BBFB0AE01A481C300AF07CFF60
:103BC00028B9194A4FF0FF30012105F0C3FD4046E6
:103BD0000BF0F1FAF4B1A86800220168CA628A69A0
:103BE0000AB10223137091F83030012B07D0022B59
:103BF00010D101F134000BF0F0FABDE8FE8322B1E0
:103C0000CB6800219847BDE8FE830C69CA698B6ABE
:103C10000021A047BDE8FE83C007002008800240C5
:103C2000CC0100105007002080A903002DE9F84FB7
:103C30004FF00056002A984617460C46824618BF99
:103C40004FF080464D1C0BF0B0FA814635B150461E
:103C50002146002207F088F804460FE03748816CBF
:103C600011B10969514506D0C16C11B109695145BD
:103C700003D0846B02E0846C00E0C46C34B194F92E
:103C80003300B0F1FF3F03DD042451E003244FE093
:103C9000DFF8A8B00A9DDBF84800844218D0DBF8B2
:103CA0004C00844214D05046214642462B4603F035
:103CB000CFFC0028E8D02248017E012937D0007EC1
:103CC000042834D01F48204928300BF08EFA2EE00B
:103CD000DBF848000022334608F070FEDBF84C00A9
:103CE0000022334608F06AFE1848002F18BF00F57E
:103CF000803009F0C3FA85B1DBF848000BF038F9E1
:103D0000DBF84C000BF034F920690E49086291F899
:103D1000240040F0010081F82400B8F1000F06D023
:103D2000DBF83810504601222B4603F091FC832427
:103D300048460BF040FA2046BDE8F88F10060020F8
:103D4000E40400204C0500200200004001000104B2
:103D50002DE9FF413B4E96F84201002866D1012033
:103D600086F842010AF0AEFF374F384D7968C6E950
:103D70005B10387B86F84101A86810F4402F13D1FE
:103D8000386988B128686421C0F3066000FB01F43B
:103D90000AF05CFFB4FBF0F22D4906F19400002319
:103DA00006F088FE0AF06EFD01AC20460BF0C2F86A
:103DB0002849A846002506F10C0000220AF060FE02
:103DC00020460BF0B7F8244906F1500008220AF00B
:103DD00057FE224A06F1D8003221002306F028FCC3
:103DE0001F4C204A06F1F4002C2100232560454693
:103DF00006F01EFCD8F80800797BC0F3815021B191
:103E0000032804BF012186F83911032818BF0028B0
:103E100010D1206840F040002060022008F0C4F873
:103E20006868400702D4002008F0BEF8002004B003
:103E3000BDE8F081012802D00228EAD0F0E707F0BF
:103E400071FCEDE710010020E4050100AC4F0050CB
:103E5000D1EB00001392000061B1000005A9000041
:103E600090220840E12900002DE9F8431D46434B0C
:103E7000DDF8208043F606061C68038814F0007401
:103E800011D0B34227D0B3F5C15F33D040F602065C
:103E9000B3423ED100F112030B60416911608169A8
:103EA0002960C1692EE0B3420AD0B3F5C15F03D0E7
:103EB00040F60206B34203D100F11203143002E0CF
:103EC00000F11A031C300B600068106000202860AD
:103ED000C8F800004BE000F11A034FF000090B6036
:103EE000C1691160016A2960416AC8F8001000F1D7
:103EF00018011CE000F112030B6041691160416A76
:103F00002960816AC8F8001000F1100190F80F9044
:103F10000DE000F11A030B60C1691160816A29602C
:103F2000C16AC8F8001000F1180190F824902868C0
:103F300068B10E880AF0ABFD042808D8074606F0E1
:103F40000701484605F0A8FB296841F82700D8F882
:103F5000000060B10AF09BFD042808D805464846D9
:103F6000FF2105F099FBD8F8001041F82500002C3E
:103F700018BF01242046BDE8F88300BF941200500A
:103F80002DE9F04F8BB0DFF8FC8092468B4698F815
:103F9000000001280BD002286BD103203A4988F891
:103FA0000000D8F80800B1F904100BF0E9F803207C
:103FB00088F80000D8F8089003A809F079FF324883
:103FC000DFF8C8C008F138010A46B0F80100ADF8C2
:103FD00028009CE8F900F9C2A62088F846B0002421
:103FE0002B4B88F8480098F8440040F0800088F88F
:103FF000440098F8450000F0F000013088F84500D2
:1040000098F8470040F001000AF0A3FF40F00200DA
:104010000AF09FFF40F004000AF09BFF40F0080008
:104020000AF097FF00F0EF000AF093FF40F0600005
:1040300088F8470098F84B0000F0F000043088F84A
:104040004B0098F84B0040F0800088F84B004FF48C
:104050007A600AFB00F0C8F84C000220CDE90004A9
:10406000484603AAFDF7A4FEB0F1FF3F05DC01249A
:1040700000E00524012088F8000020460BB0BDE8D0
:10408000F08F00BF7C040020900A0020740501001E
:104090007BF100002DE9FE4304465C301D4690464E
:1040A00089460AF047FC012725B10B2D25D00E2D9E
:1040B00018BF002799F81A00400706D599F806207E
:1040C00004F11800394601F060F82046494606F030
:1040D0005AFD77B9207810F00C0F0AD130484069AA
:1040E00038B9A07899F81810884202D20130A0702F
:1040F00051E00026A67035B914E02046494606F086
:1041000042FD0020A070207840070AD424480026F1
:10411000406938B999F81900E178814238BF012621
:1041200000E00026E07804F11807494642462B4695
:10413000CDE90006384603F056FBF6B1E0780130D1
:10414000E0700E2D99F81A0040F0020089F81A006C
:1041500021D1607806281CBF0620607094F85910A1
:10416000204606F03FFB94F859000521052838BF8A
:10417000411C84F85910BDE8FE83607849464246E8
:104180002B4602281CBF02206070384603B0BDE8F1
:10419000F0430AF009BE2046BDE8FE4303F0A8BD87
:1041A000A85C00202DE9F84F3C4C3D4E3D4D42F6B9
:1041B0002A294FF0010A4FF0030B00274FF00508A2
:1041C000D4F83C01062833D8DFE800F00433183B6C
:1041D000203D4B000F20F060C6F8109007F07AF9F0
:1041E00045F804AC55F8040C8007FBD5C6F81CA0B4
:1041F00094F8390190B10120EF6210E02F60C4F80B
:104200003CB128688007FCD40320DBE72F60C4F8AA
:104210003C8128688007FCD40520D3E70320C6F83A
:1042200000B0C4F83C012F6029688907FCD4C9E7B5
:10423000FEE70126022084F83A6106F0B1FF2E6005
:1042400009E0022000E0032084F83A01002006F093
:10425000A7FF0120286004F15000BDE8F84F0AF0E4
:104260009EBF002045F8040C286055F8040C800718
:10427000FBD428688007FCD40B4800250121056089
:104280000A4801600D2002F07FF8022007F058FC78
:10429000C4F83C5184F83B51BDE8F88F1001002070
:1042A00000400C4058600C403C500C4004800C40D6
:1042B00010B52DED028B044651EC100B40F2FF734C
:1042C000C1F30A529A4216D0B0EE408AF0EE608AEC
:1042D000D2B921F00042024353D09FED2D0B53EC95
:1042E000102B00F0F3FC344A41EC180B944207DC2D
:1042F0009FED290B3FE002460B46FDF740FF3EE0F5
:10430000C1F30A50A0F13602101940F2FF72904238
:104310000FDB0AF086FF222101609FED250B53EC95
:10432000182B51EC100BDA0F62F3DF7141EC100B1C
:104330002BE0012808DB6FF31E5141EA005052ECDC
:10434000181B40EC181B1CE010F1360F0ADC0AF0B9
:1043500068FF222101604CF251308442DDDA9FED8A
:10436000120BDCE736306FF31E519FED0D0B41EA67
:10437000005152EC180B53EC102B00F0A7FC41EC51
:10438000180BB0EE480AF0EE680ABDEC028B10BDC7
:10439000000000000000504359F3F8C21F6EA50151
:1043A000000000000000903C000000000000000041
:1043B000000000000000F07FAF3CFFFF2DE9FE4F42
:1043C00005460F465818AE687168884202D96FF0EA
:1043D000030564E0DFF8E8800C9C4FF0FF3199465C
:1043E0009246D8F800000AF0A3F8E00711D1A00720
:1043F0001ED5306851464A463844CAB111F8013BCF
:1044000010F8014B013A1C40A342F6D06FF00605AC
:1044100041E0D8E90101CB4301EA090213EA090F9F
:1044200018BF02442846394003F0E4FA054690BB21
:10443000306802970196074406F032FFCB46554696
:104440000090BBF1000F16D05E46BBF1080F28BFED
:1044500008260AF0AAFE804628463946324609F068
:104460002DF9044640460AF0A6FE2CB937443544DF
:10447000ABEB060BE5E70024009808F02FFEDFF811
:104480004080DDE901210C9814B14FF0FF3502E0C6
:10449000400707D40025D8F800000AF09EFE284601
:1044A000BDE8FE8F10680844B9F1000FF2D010F893
:1044B000011B1AF8012BA9F101098A42F4D0E4E7A3
:1044C000D4090020B0B50C46880722D4600758BF35
:1044D000B0BD354D0120A870042007F065FD3348BC
:1044E0000068006B8047E8602D48806BF0B1696818
:1044F000046961B1A1420AD094F82800400704D5AC
:10450000636A2046042100229847012060766C608F
:104510000DE0FEF75FFF2248006CE0B3214844F055
:1045200002012830BDE8B0400AF05FBE6C686068E8
:104530001F4900780860022007F036FD102001F0C6
:10454000D7FF012028761B48807810B90D2001F094
:10455000CFFF6868416818488A680AB9C96821B1FC
:1045600000218160154940F8141C154907220A6092
:10457000016800210160426841601249124AE96104
:104580000168114301601A200AF011FE1920BDE8EC
:10459000B0400AF00CBEBDE8B04004F079BC00BFEA
:1045A000100600204C050020E40400208C010010BF
:1045B000D021084060060100141004405100070695
:1045C00000000460D5390000024000402DE9F047AA
:1045D000A4B00AF0EAFD34490A78012A04D124B0D3
:1045E000BDE8F0470AF0E7BD4FF0010981F80090FF
:1045F0000AF0E1FDFFF7ACFB082001F079FF21ACE8
:1046000020460AF017F94FF0FF30294A10212346BF
:104610002290264806F00CF82648284D00260DF179
:10462000040A0478244890F800804746A74212D82C
:10463000286850F8271021F0FF004AF82700880763
:1046400007D4F8B201F001010AF0ECF809FA07F01A
:1046500006430137EAE71A4806601A48C16801F4C0
:104660004001B1F5800F09D10068000E18BF01208C
:104670005AF8201041F007014AF820101248A4EB24
:10468000080204230AEB880103EB820240EA880057
:104690000AF02EFE0D482022016862F30D21016010
:1046A00024B0BDE8F08700BFC10A002034630020B9
:1046B00015AC00008AFF000089FF000030060100F1
:1046C000D0200240A84F00500010084000300940A0
:1046D000FEB5D0E9005401A80AF05BFD95F834005E
:1046E0003649374A384E085C95F83510515C354AE2
:1046F000084395F83610515C2A6B40EA0103316893
:1047000020684F680299B847206840F2F272E16968
:104710002E4B2F4F426494F854209A5C94F85530F5
:10472000FB5C1A430129426311D10146D4E90A23F3
:1047300051F8307FFF2A27F4004718BF07F50047DC
:10474000FF2B0F6009D00A6842F4804208E001465E
:1047500051F8302F22F400420A600A6822F48042A5
:104760000A60C16A41F01001C162016B41F00101B0
:104770000163E16B09B3A16BF9B1012109F090FD6F
:10478000D5F8E001E16B40680068C162C0F804152B
:1047900091FAA1F17268B1FA81F153680222984747
:1047A0007068A16B02224368D5F8E00191FAA1F18B
:1047B000B1FA81F1406800689847FEBDF806010033
:1047C000CEF90000E2060100D0010010EC06010065
:1047D000E70601002DE9F0439FB00446033810F1CD
:1047E000030F03D80AF01DFD16215FE005AD9046CA
:1047F0000E46284609F06CFD34484FF000093C2174
:1048000000222B46C8F8009000680AF09BFE0028A2
:1048100049D00DAF054600212422082338460AF06E
:1048200081FE2B49284600223B4613950AF076FE6E
:10483000F0682F466862B06847F82C9FC7F804906C
:10484000FC6047F8040C30680328B86039D116AC16
:1048500000212422082320460AF05CFE0120214684
:1048600000228DF8700000200AF050FE2863B8B1D5
:1048700034691CB96C46204609F0F0F92046012144
:104880000AF040FB134A384621462B4600F024F834
:1048900006466846844202D168460AF0FEFC5EB1D4
:1048A000284607F0E9FC0AF0BCFC0C2101604FF03F
:1048B000FF301FB0BDE8F083E86A696AC0690AF09A
:1048C00002FD0020C8F80050F3E700BF580B0100BC
:1048D00025EA000025E700002DE9F043A1B001AF73
:1048E0008046994615460C46384609F0F1FC09A861
:1048F00000213C22082300260AF004FE32486421ED
:1049000000223B46C8F8006000680AF01BFE002841
:1049100056D007462D482E49002C0068886008BFF5
:104920000C46D4E900210023A068109100294FF023
:10493000000108BFE168FB64C7E91153FB637B65B5
:10494000C7E9053208442269002A18BF01223A64E7
:1049500011903846CDF84C90CDE90D574FF0FF320D
:104960000F920AF0CBFD07F1080000210AF0C2FD0A
:1049700007F1580000210AF0BDFD18AE00212422E5
:10498000082330460AF0C6FD0120002132468DF88A
:10499000780007F120000AF0A9FD0E4809A901AA34
:1049A0000AF0A0FDF86140B18562C8F80070216886
:1049B000F86901F0D5FB002003E0384607F0DEF986
:1049C0000C2021B0BDE8F083580B0100240A01003F
:1049D0006C0900204BE400002DE9FF47012910DBA2
:1049E00017680C4635490646DDF83080994615466D
:1049F000384609F083FE30B13149384609F07EFE71
:104A000030B3072737E0DFF8BCA09AF8000088B37E
:104A10009AF8020070BB9AF8010058BB022C2ED302
:104A2000686803A909F044F9074620BB032C28D382
:104A3000A86802A909F03CF90746E0B9042C22D382
:104A4000E86801A909F034F90746A0B901981CE00B
:104A50001C48017871B1817801290BD1002787703A
:104A6000304608F087F81848184A41460097C3892D
:104A7000484620E00D27384604B0BDE8F0871E20E8
:104A80000390642002900020019001210E4C002729
:104A90008AF802100399E781A0816181029921615E
:104AA00007F060FE22690146304604F035FD084AF1
:104AB00048464146002306F0ABFADCE780F50000EB
:104AC000B3F5000079040020580900207FF60000AB
:104AD0004FF600002DE9FE4F4FF4804009F0B2FE82
:104AE000A0B1354C35496068D1F8132009786FF3CF
:104AF0009F5201F00401806842EA417101AA00F06E
:104B00005FFF60688168012008F038FC2E482C4F58
:104B10002C4D44F2020B00244FF0000A00F1400932
:104B2000BAF1020F3CD055F82A80D8F80000A0B3A3
:104B3000D8F80000806909F085FE0646D8F8000024
:104B40000023324607F03AFF16F00A0F1ED0D8F8BD
:104B500000008069B9686BEA00000840B860D8F8C6
:104B60000000C069396821EA000038601020D8F8D8
:104B7000001008F003FCD8F80010484608F07BF954
:104B8000002044F00204C8F8000006E02EB1D8F876
:104B900000000D4944F4804408650AF1010ABFE7AA
:104BA00024B10A48214628300AF01FFB02F014FB0A
:104BB000BDE8FE4FFDF7EEB9E404002085030021B7
:104BC0000C10044090060100100600204C05002047
:104BD0002DE9FF4704469068002808D4384FB842B2
:104BE00005D890691546002801D4B84208D90AF0C2
:104BF00018FB162101604FF0FF3004B0BDE8F087CC
:104C00000E461BB12046194604F05CFED5E904802F
:104C100050EA080001D1A869E0B3700721D4D5F8A3
:104C20001890284AA9684FF47A7A2868264D1768A0
:104C300091FBFAF17E1E314400FB0510B0FBF7F149
:104C400020460AF03AFB08FB056099FBFAF108449C
:104C5000B0FBF7F120460AF041FC20460AF03AFC8E
:104C60001BE0A06B694600F0A7FCD5E90402DDE972
:104C70000013461A72EB030608DB80EA01065A406D
:104C800032430CD1AA69029B93420ADBD4E9091092
:104C9000884702E020460AF019FC0020ADE7AA6927
:104CA000029BA2EB0309A0EB0108B9F1FF3FB8DCBE
:104CB00007EB0900A8F1010800F10109B1E700BF05
:104CC000FFC99A3B540B010040420F002DE9FC4103
:104CD00091EA03084CBF4FF000484FF000084FEA3C
:104CE000C32545EA52554FEAC2264FEA43077F0DD6
:104CF00011BF45F0004500210020BDE8FC815FF4B4
:104D0000E06E1EF1FF0E774555D04FEAC12343EA0E
:104D100050534FEAC0224FEA4104640D11BF43F0E3
:104D2000004300210020BDE8FC81744543D0E41914
:104D3000A3FB0501A3FB06E7A2FB06631EEB030E24
:104D400057F1000751F10001A2FB05631EEB060EAF
:104D500057F1000751F10001FF1851F10001C0198E
:104D600051F100014CBF40F2004E40F2002E10EB1A
:104D70000E0051F1000148BF641C01D440004941BC
:104D80005FF44077FF37E41BDEBF00210020BDE861
:104D9000FC8117F58067BC420DD24FEAD02040EA73
:104DA00041504FEA41014FEA113141EA045141EAD1
:104DB0000801BDE8FC810020FF21C900C91D0905CB
:104DC00051EA0801BDE8FC812DE9F041056804467F
:104DD0004FF0FF30E8620AF0E8F9804695F83000BD
:104DE000042809D13349497831B1334903228A6013
:104DF0004A6822F003024A602E4F6B692F4E002151
:104E00007A68B34204D01AB97978002918BF012111
:104E10000023042804D11AB17B78002B18BF01238A
:104E200041EA0300012808BF07F03CFB95F8320077
:104E300030B140460AF0BFF94FF0FF30BDE8F081D5
:104E400095F83000042804D1381D294607F009FFE1
:104E500003E0381D294608F00EF8012085F83200DD
:104E600040460AF0A8F90020FEF74AFE246894F8AC
:104E70003000012812D0022813D00428DCD10E4DB6
:104E8000D4E90901884211D201200AF0A8F8286863
:104E90008007F9D00020FEF733FEF1E70020BDE8DF
:104EA000F081216A04F1340009F042FBE06ABDE8B8
:104EB000F08100BFC00700200880024080A90300E5
:104EC00070B516460D4600F1500431B12EB9AA88CE
:104ED0002968204608F032FB03E02046002108F054
:104EE000A1FC00285ED10DB1697D00E000212046C3
:104EF0000AF00DF9002855D1204680210AF007F963
:104F000000284FD125B1E87D302101EA001100E0F1
:104F10000021204608F086FC002843D1204605F0F9
:104F200055FE00283ED10DB1A97900E000212046B0
:104F30000AF0EDF8B0BB0DB1A97D00E000212046DC
:104F40000AF0E5F870BB15B1D5E9022301E00022B3
:104F50000023204604F064F820BB204605F0D0FF73
:104F600000BB204605F032FEE0B92046314608F08D
:104F700068FCB8B9204605F0C3FF98B9204605F093
:104F800025FE78B90DB1297D00E0002120460AF008
:104F9000BEF838B90DB1296900E00021204606F0BD
:104FA0007DFD08B1012070BD204605F0A9FF002855
:104FB00018BF012070BD70472DE9F04742F22C095F
:104FC00040F2100A42F20C0640F2B81715460C46A1
:104FD0008046C4F20909C4F2090AC4F20806C1F203
:104FE000000702F0C7FC44F20C00C4F209000021E3
:104FF0000160D9F800003868816927208847306B44
:105000004FF6FF71CFF6FE6108403063B06F20F4B9
:105010008070B0673868016B4FF4806088473868EB
:10502000016B4FF4816088473868016B4FF4C060B2
:10503000884742F22800C6F2080001210160C6F844
:1050400080413160DAF80000800705D4681C08BF91
:105050004FF04045CAF80C50D9F80000F0698007BD
:10506000FCD500BF072005F0F7FD0228FAD1B8F102
:10507000000F16D144F20004C4F20304386A8168B8
:10508000204688470428F9D0012804D1386A032132
:10509000426820469047D6F8180220F00300C6F870
:1050A00018023868806BBDE8F04700472DE9FF41E2
:1050B00000F180050C4603A90DF10A02284607F00D
:1050C000F9FA074600285CD1BDF80A207F2A57D894
:1050D00020680399A2800AF00BF9A11D284608F068
:1050E00015FD074600284CD10027264646F8147FB8
:1050F000B0793146B04648F8047D00F0E80004304D
:10510000B07140F6047021F8040F284608F0FEFC48
:10511000B8BB711D284608F0F9FC78BB0DF10901F8
:1051200009F0C8FF50BB0DF1070109F0C3FF28BB10
:1051300002A909F0BFFF08BB0DF1060109F0BAFF93
:10514000E0B92846414608F0C5FCB8B928463146C2
:1051500008F0C0FC90B9A07E9DF8091000F0E800AE
:1051600040EA81009DF8071008439DF8081040EAC6
:1051700041009DF8061040EA0110A076002700E0EB
:105180000627384604B0BDE8F08170472DE9F84F96
:10519000DDF828809A46D9B10F46814610682A4921
:1051A000934609F0D9F920B9013F380610D00BF128
:1051B000040B0024254E8AF80040DBF800503C2CFC
:1051C00015D03159284609F0C7F9C8B10C34F6E7B3
:1051D00009F06EFE2049214B214A0028504618BF95
:1051E0000B46414605F014FF0020BDE8F88F184833
:1051F000F9B25A465346CDF8008000F053FF14E050
:105200003019D0E9015109EB6100C90701D00168EB
:105210004D59F9B20022CDF800805346012988BFCC
:105220000BF10402791EC9B2A847F9B2022909D3C9
:10523000232807D1DBF80030064A5046414605F0E6
:10524000E7FE2320BDE8F88F36FF0000B003010021
:10525000A85C002064FF000053FF00005BFF00001B
:105260003AFF00002DE9F84F044600F15808783065
:105270001E4693460D46002704F1680A0090B74287
:1052800046D0B4F89A00102815D1772094F89C10D5
:10529000A0F168028A4206DD215C01312154CAB2C4
:1052A00001388A42F2D1009A2046514609F0AFFFF8
:1052B0000020A4F89A000A9959B1421C1BF8071063
:1052C0002044A4F89A2090F8780048402946814666
:1052D0000AE0411C15F807902044A4F89A1059469A
:1052E00090F8780080EA0900C855B4F898001028B2
:1052F00002D109F038FE0020411C20440137A4F8F7
:10530000981090F8581081EA090180F85810B6E713
:10531000D4E9240131448142C4F894100CD3B4F888
:10532000980008B109F01FFE94F89C100819C1F10B
:105330000F01693009F006FABDE8F88F2DE9FC4746
:10534000074690F81609C8B10D4640F080010020CC
:105350001C46164622B132681278C2F3001901E0E9
:105360004FF0000907F1500895F81AA087F81609C0
:1053700006220023404607F04DFF08B1BDE8FC8738
:10538000204607F03FFE0146404608F05AFA002842
:10539000F4D14046494609F0BDFE0028EED10AF09E
:1053A00001094046494609F0B5FE0028E6D164B13E
:1053B000B9F1000F1EBF2868007810F008000CD16A
:1053C000404608F0CBF8BDE8FC873846314600225D
:1053D000FFF776FD0028D1D1EAE70DF10701284655
:1053E00006F0F4F90028C9D16946284607F0F7FC11
:1053F0000028C3D19DF80710404609F088FE002818
:10540000BCD10099404606F049FB0028B6D1D7E749
:10541000F8B5051D0160044600F1D1014FF40062AA
:10542000284608F06BF8002704F154002221256576
:10543000C4E91E7709F086F904F1800009F020FD27
:105440004FF6FF702249264684F89870A4F8A80009
:10545000C820C4F8A4001F48C4E92771182146F8E1
:10546000AC0F04F1B00009F06DF91B481121C4F82C
:105470001079C4F83079C4F8347984F8D378A4F872
:10548000D17884F8D070C4F813790068C4F8CC00DF
:10549000042084F8C800FF20A4F8170904F61C10A3
:1054A00009F050F90D480E4922460460284609F0DB
:1054B00025FE04F6D4003C2109F044F904F1B800BB
:1054C000772109F09CFD304609F0AAF82046F8BD86
:1054D00000F8FF07D9ED0000F40601009C0A002047
:1054E000FFF100002DE9F0478EB0304F04464FF039
:1054F00000097E7887F8019026B9386E002600787A
:1055000080061ED4002502203870C7F8609009F08C
:10551000CFFC38B12648324600F14001204609F060
:1055200029FE07E022482A46334600F14001204682
:1055300009F0C6F815B1684609F042FD0EB0BDE8A5
:10554000F0871B48E84608F10805006C90F802A0B7
:1055500018480C96CDE9004100680B9010B3017912
:10556000032911D1387804280CD1404600F0C2F943
:1055700040B90298017801F00701022902D1807830
:1055800050450CD0DDE90B0616B906460C9001E03B
:10559000B04202D000680B90E0E70020FBE70DB1BD
:1055A0000026B0E700250E26ADE700BF7C040020F2
:1055B000B0050020200A0020FEB50C46C11E11F1E6
:1055C000030F06D809F02DFE162101604FF0FF30C1
:1055D000FEBD012809D1684609F067FE9DE8070075
:1055E000A260C4E900100020FEBD224F2020EFF38E
:1055F000118680F31188387888B91F4D1F494FF004
:10560000FF320023284609F05DFF28464FF0FF31A6
:1056100009F053FE284609F051FF0120387008F0C8
:10562000C9FA174A174BD7F804C086F311884FF010
:10563000FF361268B3FBF2F3B0FBF3F5B6FBF3F6FB
:1056400006FB0C5706FB0CF607FB13070020B7FB05
:10565000F3F16D1801FB137140F1000EAD194EF11D
:10566000000651434FF47A725143C4E90056A160D9
:10567000FEBD00BFE00900209462002061E400004C
:10568000540B010040420F0070B5F8B1012858D109
:10569000012009F011FB012853D02D4C94F838015A
:1056A00000284ED12848294E0569306810F4402F53
:1056B00030D17DB307F022FE502009F090FC01208C
:1056C000A84704F1940009F06AFD25E009F079FD8E
:1056D0001E48006810F4402F0AD11B4804693CB1F1
:1056E0001B48943009F05DFD07F0F8FD0020A0474D
:1056F000174C94F8380120B31648016821F0800156
:10570000016080218160032006F01AFA002084F8ED
:10571000380116E009F059FD012084F8380130689D
:1057200010F4402F00D14DB9207A800606D40948E4
:1057300080218160016841F080010160032006F052
:1057400033FC002070BD00BFE4050100B44F0050E1
:1057500010010020902208402DE9F041B0B004462D
:1057600000200D462F9002A808F07AFC20680078EF
:10577000000752D50DF1BB01204607F01FFF00289E
:105780004BD12FA9204607F02AFB002845D10DF167
:10579000AE089DF8BB202F992846434608F08CF9A7
:1057A000A16802AD284608F04FFC204608F0F4F945
:1057B0000746204609F0F6F80646204608F02EFB7C
:1057C00002460D203146CDE90080B81EC3B22846FE
:1057D000FDF7D2FF2668204609F0E4F80246284685
:1057E000314603F069FE204608F024FF06462046B5
:1057F00008F014FB0346002031463246009028464C
:10580000FFF730FD204609F0D5F80146284606F09E
:1058100043FCA07E40F01000A07602A809F01EFB19
:1058200030B0BDE8F0812DE9F84F834600F63C1515
:10583000061D00F58B574FF000084FF001094FF09F
:10584000020A304608F0F7FA397810B102292BD055
:1058500041E029B1022927D00129F2D1797835E038
:10586000584608F06EFD08B106F0C1FD584608F034
:1058700094FD80BB284609F07AF960BB304606F0FB
:10588000F2F887F80090304608F0B3FDC8B19BF8F5
:105890009840304601F034FD24B19BF8980008B9D7
:1058A00087F80C9287F800A0284605F0E5FA90B931
:1058B00097F80C0287F800800028C2D087F80C8285
:1058C000BFE7304606F00EFB01467870284603F02D
:1058D00093FD0028D7D0DBF858190BF65E10091A93
:1058E0000A0408BFBDE8F88FDBF8382989B2BDE8A3
:1058F000F84F10472DE9F843C66A044616F8088F9A
:1059000008EB060757F8039C04F0BEF90546284843
:105910000068006B80470246731C2046120B40F85B
:10592000083FA5EB090342EA0152090BB2EB9302CF
:1059300061F10001C0E90221A8F1050181801D4942
:10594000897B817117F8061D4175797801F03F0157
:105950008175B978FF2901D1002114E0164B174D4C
:10596000C1F3421201F01F0103EB820305EB820237
:10597000B57804326D0658BF03F12402126822FA8A
:1059800001F101F00101E27F02F0FE021144E17732
:1059900097F90110002905D4B8F1860F3CBF00200B
:1059A000BDE8F883202108F0CDFE1120BDE8F88382
:1059B0008C010010C861002068060020A85F00204C
:1059C000F0B585B00D4600211446CDE90311CDE9AF
:1059D000011101A9009104A903AA02ABFEF744FA40
:1059E000029F3946002F18BF0121019E0140002E61
:1059F000324618BF01221140002D10D411B3049873
:105A000040F22B2105806FF39F5538462A4607F058
:105A1000D5FA0398314602F0FFFF676010E0C9B184
:105A200004984FF0FF316FF39F552A4601803046AE
:105A30002B2107F0C3FA0398314603F05DF9666045
:105A400015201EE0C8B104984FF6FF7201889142FC
:105A500014D110E078B16FF39F5503982B212A469B
:105A600007F0ACFAFF2806D004984FF0FF31018010
:105A70001420656005E0032005E00498058065803A
:105A800010202080832005B0F0BD2DE9F04111F0F9
:105A90000F080DD090F8D25890F8D348661B0F2EFF
:105AA0000DDBB8300E2109F0AAFA0320BDE8F08121
:105AB000022A4CD1B830194609F0A1FA47E090F813
:105AC000D168B04522D04FF00E0C4FF00F0EEEB261
:105AD000A6421BD2C5FA5CF60E36F7B2B7FBFEF74C
