:20000000003A0120693B020039FB021039FB021039FB021039FB021039FB021039FB02103B
:1C00200039FB021039FB021039FB021039FB021039FB021039FB021011FB021002
:200040002DE9F04FBB4CBC4E05460120ADF1540DAF7894F83EC031780E902878452835DCB9
:20006000452800F09E86092816DC092801F01B83002801F09383801E01F07D83401E01F00F
:20008000E983401E01F0E283C01E01F06983401E01F0128301F092BBDFF8A0C2DFF8A08231
:2000A000DFF8A0E210381C283AD92A3800F0D686401E01F0BB83401E01F0B483401F00F038
:2000C000A286801E00F08E8601F078BBE42816DCE42801F07583A038212840D92D3801F0AF
:2000E0007983401E00F0BE83093800F02982401E00F0F280093801F0678301F05FBBE63894
:2001000000F0CE80401F00F0A080AB4A0E3800F08280401E4CD0401E45D0401E01F04EBBC0
:20012000DFE810F0B70A7C0A610A4C0B8F0B490A3A0A4C0B180AF8094C0BC2098F094C0B33
:200140008B0B880BC6089B08C3074C0BAB0799079007850775074C0B65075F07FC06DFE801
:2001600010F05D0B590B550B1A06510B4D0B490B1606430BFA05BC058D0563055105440568
:2001800037052D0525051D053E0B1205F604CE04950470046304ED03E103D6032D0B2D0BE8
:2001A0002D0BA9038B036868002800F02D8546E06868002800F028851146097831F001017D
:2001C0003DD10488466802208DF820003146ADF8224009A82BF06BF908A817F047F8012843
:2001E00015D14FF6FE70A0420BD0304629F093FF28B9002120460A4627F0EAFB08E00020CC
:2002000006E0002130460A4622F0DAFD00E00E980F95139059E16968A1B11046007830F010
:2002200001000CD1084600218DF820100990022108A88DF821101FF071F801F0D2B9122074
:2002400000F0FEBE0F9500F0DFBC6868007878B9002029F027FA28F01DFB0E980DA98DF8DF
:200260003400522026F0E2FD29F016FE01F0F6BA4FF6FF7029F016FA30784FF4807123F049
:2002800097FB30784FF4807122F0CEF800200DF135018DF83500522026F0C8FD01F0DEBA34
:2002A0006868002801F0DA82A44C01886180807A60B92BF06AFA40F28A21B0FBF1F220780A
:2002C0000821521D2BF0CBFA01F0C8BA708F0E992AF09EFA01F0C2BA68680F95002800F0E2
:2002E000938400681090807E29F0C6FA061C00F0B4821098C76900252C464FF00309387856
:20030000A04200F303810F2410FB04F0401CC0B240191DF08FFF5FEA000800F09C8225F01C
:2003200053FE002840F0F0800025139588F8005053E0C04678550020D04F0020945300209B
:20034000B45A00208C5B00201099032315FB03F6BA1991F81AA0B1F80C9052880F2015FB1C
:2003600000845046494626F0E3FFBA195288834608AB504624F0AAFF641CBBF1FF0F1DD039
:20038000E0B1A6489DF827300168D80838BF8C2015D39DF826001623207103FB0B10C18837
:2003A00000F10E02A4F805100189C4F80B201398A4F8071003E0C0464954002086202070E0
:2003C000B8194078BB1960705888608098F800006D1CEDB2401C88F800003878A842B3DC73
:2003E0001098817E474600F10E064FF00F0985893A78109190F80AA01196139912950C468E
:200400008A4264DC20462BF0CDFA061C58D0139D02463EE015FB09F0391838184078491C61
:2004200002F8010B487802F8010B887802F8010B4888001202F8010B0B7843BB4B78F3B912
:20044000087902F8010B487902F8010BB1F80500001202F8010BC87902F8010BB1F8070091
:20046000001202F8010B087983462AF046FA70B1D1F80B10584618F083FD024607E0487AA4
:2004800002F8010BB1F80900001202F8010B6D1CEDB23878A842BDDC139900910E980190BD
:2004A00002900391CDF810A00594129A0696109807911199092310F0D5FD30462BF0B0F99E
:2004C000384625F0D3FF2AF055F81398C6E111FB09F3F818FB185E78241DA4B2401C86B9CB
:2004E000467866B9007983462AF007FA641DA4B238B158461EF087F8001984B201E0A41CE7
:20050000A4B2491CC9B27BE74046A2E114FB0972109930785288898908AB24F0D7FE50B1D6
:200520009DF8260001462AF0E8F920B108461EF06AF82D18EDB2641CE4B2E0E614590020E2
:2005400068680F95002800F05F8300681090807E29F092F9002800F080811098D0F81C805E
:2005600098F80000002800F078818000401C1DF061FE0028119000F06E812AF011FF25F0AB
:2005800023FD002840F0648100261396129698F80000B04200F3E4801398012840F08C809E
:2005A000C34DA878EA68162111FB00F081B256202BF0A8F805F10C0640B9A8783268162130
:2005C00011FB00F081B256202BF0A2F86078802123F0EEF92F78B8001DF02CFEB8465FEA71
:2005E000000B69D02E78B8F1000F0CD005F11800594642784A70428810F8144B4A807F1EC4
:2006000001F8044BF5D1002E3CD037464FF000094FF0140AA6B305F1180411E0A4620020EE
:20062000002808BF4E4607D041680668216125F01DFF207B401E2073304625F017FF2E78C3
:2006400020690028ECD1761EF6B216FB0AF2A0184188618041786170C188E1808188A18023
:2006600001890C30218109C804F10C0181E80900105D2070A318C3F8109083F80C902E7005
:200680007F1EC7D110F01EFCB8F1000F11D018355C4647466078618827F0B4F9FF2804D076
:2006A0002678810001EB00116E547F1E04F10404F0D1584625F0DAFE12981199087018B9D9
:2006C000002048700E9F0F70109890F81AA00C4600F10E098689857A2078042110FB01F00B
:2006E00080462BF05FF9071C1ED0014600202278824222DC012A03D164780CB9DDF83880C0
:20070000002000900E9901910291039004953246CDF814800723069749460790504610F0DD
:20072000A1FC38462BF07CF8119825F09FFE29F021FF27F0FDFD002090E08200A3185B78CA
:200740000B70A3189B784B70A318DB78A2188B70B2F80320401CC0B21212CA70091DC6E706
:20076000109B9F890E2016FB00856D1C93F81AA0B5F80190394650464A4626F0D9FD83467C
:2007800008AB504624F0A2FDBBF1FF0F48D0002846D02F78002F58D19DF82600E978884268
:2007A0003CD19DF82700C00836D3B7480168A8884FF6FF72824201D1EF88B7B1162202FBA7
:2007C0000B17F880E8883881E8782AF096F800B30E370021042238461FF050FCE8781DF0C9
:2007E00012FFD5F80A10024610E0162000FB0B156889E880A889042205F10E0700212881F3
:2008000038461FF03BFC042205F1120138462AF0D5F80E98139018E08C2002E08D2000E024
:200820008720129BDDF844C099000CEB0102507028780CEB01075B1CB8700CEB0102DFB26F
:200840001297B5F80110A2F80310761CF6B29EE6119825F00BFE102000E002200F9D2C46AF
:2008600000F0F6BC6868002800F0CE816868006827F0E2F800F0B5BE6868002800F0C481E6
:20088000002069686870097851B984F84200607F401E60770E98014627F062FD00F0DEBF42
:2008A0002AF0FAFE0E98014608F084FF00F0D6BF986200206868002800F0A68106784768E3
:2008C0000021082208A81FF0D9FBE7B1CC4800210170AEB1761E0ED0761E0AD0761E03D056
:2008E000761E10D10E990170384608A91AF064FB0AE00E990170384608A925F097FE03E015
:2009000024F0DEF800E002202C4606467DE06868002800F07981686800F1120125F086FE81
:2009200000F05FBE6868002800F06E816A6810785188928818F0D6FC00F053BE2C46606871
:20094000002800F0618190F8009045888188B0F806B0B0F808A00A301090C74807790F91F8
:20096000002F5ED0C3490F68002F57D080467868007881454FD129F007FF00284BD0037C5C
:20098000002B48D04669002E45D000200C22834244DD10FB02F1715A8D4239D10E201DF011
:2009A00049FC071C3DD0002607F10A0004235B1E00F8016BFBD1BE80FF2038704FF6FF730E
:2009C0007B803E81FE8087F800900F9A7D801099BA8007F10A00A7F806B00422A7F808A083
:2009E00029F0ECFF08201DF025FCD8F8141018B9384625F03BFD14E007604160C8F814003D
:200A000098F81000401C88F81000304600F020BC401CC0B2BBE73F68002FA8D1022000F037
:200A200017BC0E9800F014BC6868002800F0EC8000206870686820F0A9FCA968088000F023
:200A40000DBFA868002800F0DF8000216970AD68267860786F1C002E08BF29700ED0402166
:200A600025F0E4FC4FF47A710F2300F2E730B0FBF1F116FB03100F3828702678002F00F0CB
:200A8000ED86304687E0C046A4620020AF68208F94F83B1094F83A2094F83C30666B94F802
:200AA0003DE094F83F8094F8409094F841A094F842B0002F00F0A88000276F70AF6838816A
:200AC000A868C172A8688272A8680373A86880F80EC0A8684660A86880F80DE0206BA9682C
:200AE0000860A86880F80F80A86880F81090A86880F811A0A86880F812B000F0AFBE6F6898
:200B0000002F00F08180002068706868077D17B1C07C84F841006868877D17B1417D84F8D2
:200B20004210077C17B1C08920876868077B17B1806860636868877C1FB1407C84F83D004B
:200B4000686807790FB10068206300F087BE0021BCF1000F69700ED094F83B0080090AD2A5
:200B600008A808221FF08AFA2AF047FB08A81DF005FD00F073BE2AF040FB4FF4FA7029F0B1
:200B80007BF900F06BBEA86800283DD0002068702AF0DCFDAF68387000F060BEAE48A968C4
:200BA0000078002930D000216970F3E7686858B36868007824F00EFA00F013BD686818B326
:200BC000002068706868007806F0CEFE00F046BEA868C8B10020687024F0BAFD002808BFE4
:200BE0000E9800F02D820078D4E7686860B10020687069680888897823F0BEFB00F02EBE9A
:200C0000F0530020686808B9022019E2C24C6968082204F10C0029F0D1FE68680189618096
:200C2000807A207000200BE26868002800F090800188ADF830104088ADF832000CA95320F0
:200C400026F0F4F850200DF1320126F0EFF8E1200DF1360128F04CFB68689DF8361000793B
:200C6000884273D08DF836000DF13601E12026F0DDF86BE0C05A00209862002068680028F4
:200C800066D0007826F0EEFD686896F83C104078884213D086F83C000DF13701E12028F08D
:200CA00027FB68689DF837104078884206D08DF837000DF13701E12026F0B8F868680E9FD8
:200CC000407807FA00F0F06429F0F2FB0024A6F89440384622F0F8FF3BE06F68C7B37C8884
:200CE0007487387886F84A007B6886F83C303989F187F3647889A6F84800387B86F85C00AF
:200D0000787B86F82900B87B86F827003A697265786996F89640B065387EA04201D026F00E
:200D2000A1FD696806F15D0019312AF0B9FD96F84A0006F12404082808D121207421224698
:200D40002AF0E6FC0020022126F0EAFC002400E002242046A7E169680029F9D0088849881C
:200D600026F088FF70B9696808880E9A498825F0D5F969680888498826F07CFF002808BF3E
:200D8000C824E6D069680979417000208BE168680028DDD003E06868002800F0838112207B
:200DA00081E16868002800F07D810A300778002F0CBF00220E9A47780FB142F002028778BA
:200DC0000FB142F00402C7780FB142F00802007908B142F04002696808880023891C26F0FB
:200DE00053FAFEE36868002800F05C8102206F688DF828003988ADF82010FA78B97808A871
:200E000022F086FEEDE36868002800F04B8102218DF8281001884FF6FF70884205D0821E5C
:200E20008A4202D0C01E88420BD12AF0BDFBADF820006868C27A837A811C08A825F080F816
:200E4000687068680188ADF82010C27A837A811C08A825F075F8C4E3545800206C68002C11
:200E600000F0208102208DF828002188ADF8201063462279B4F80680267AD4F80CB0277C53
:200E8000D4F814A061880F921A1D14680346F21912FB03F00F305FFA80F9B9F14E0F00F336
:200EA0009E802AF081FB884233D121700812607029F048FDA41C014620462AF0F1FC044619
:200EC0000F98207084F801804FEA2823A370E670241D66B15846A41E017804F8021F30F87B
:200EE000021B761E4FEA21216170F5D1A41C27705FB1641E5046017804F8021F30F8021BD5
:200F00007F1E4FEA21216170F5D1C64820224B4661E01846C7E0C046E85400206C68002C99
:200F200000F0C08002218DF828102088E146ADF820006288A388A679D4F80880277BD4F817
:200F400010E0D9F80400F41914FB01F1891D5FFA81FCBCF14E0F42DC9DF828100F2918BF3E
:200F6000022908D1BDF820404FF6FF71A14204BF891EADF820104FF6FF71914208BF8A1E8A
:200F800000F8012B111200F8011B00F8013B1C1200F8014B00F8016B66B14146801E0A782E
:200FA00000F8022F31F8022B761E4FEA22224270F5D1801C07705FB1401E71460A7800F877
:200FC000022F31F8022B7F1E4FEA22224270F5D148460622634608A922F03EFA63E010202B
:200FE00061E0686800285DD00220052214E06868002857D002206F688DF828003988ADF823
:2010000020103A79798808A828F066FF18E06868002847D0022002468DF828006868018848
:20102000ADF82010418808A829F06CFAD9E26868002837D06A6810889178D27826F0C8FC92
:20104000044686E6686800282CD06868017A427A21F0B6FEC5E2686820B341788DF8201062
:2010600081788DF82110007829F068FAD0B10C3008A9022229F0A2FC87E6696891B1A868F5
:2010800080B1087808A928F091FD6868A968007808709DF82000A96848709DF82100A96832
:2010A000887072E602202C46D5E02C466368002B00F0D080187D29F095FA002800F0CA8050
:2010C0009D691C331F78002F0CBF002002205F780FB140F010009F780FB140F00800DF78AB
:2010E0000FB140F020001F790FB140F040005F790FB140F0800083466068007D2AF048F967
:201100005FEA000800F0A6806168887A8DF829008889ADF82A00087802288DF828000CD0DC
:2011200001280AD00F2808D0032809D1891C08A8082229F043FC616802E04888ADF8200081
:201140008F7B002F76D078001DF074F8061C08BF102000F0808000216068877B8F4263DC1B
:20116000C18A838CCDF83C80826A13950C2F109190F822901193BDF8208012924CDA4046A1
:2011800022F0E0F80C2816D14FF6FE7022F0DAF80C2810D1DFF808C30E999CF82C31002044
:2011A0000CF59A7C1CF8082B9342C4BF131C081C491C0C29F6DBBB4D4FF6FE7305EBC00548
:2011C00068686B8018B125F051F90020686077B14FEA470A50461DF02DF86860002808BF13
:2011E00010201AD068683146524629F0E7FBA5F80280C7486F70129B0078139F28700F99D7
:201200000093109A019708A8CDF808B0119BCDF80C900EF04FF900E002206070304625F01C
:2012200025F91BE39453002000694A00105A491CB05291E7886A00900195CDF808B091F871
:2012400022000390CA8A8B8C08A841460EF032F9254628E702202546C3E16868002800F07B
:20126000AB82007829F0BEF9071C00F0A582387B23F064FE0028687040F0F08240464568C2
:20128000002D00F0EB822E46002116B9B74202D0E4E2B74209D1BD4219BF3868086039687C
:2012A000416038462AF0B4FAD8E231463668ECE7686800283FF4F6AE007829F093F9002891
:2012C00040F0BD8029F02EFC052880F2C281002638466E7029F078F9041C01D0207B68B1CB
:2012E0001C201CF0A7FF041C00F0B88231461C221EF0C4FEDDF83890277100E0B146686855
:20130000007820736868007A47462076B81C206114201CF08FFF0028606141D0314614228B
:201320001EF0ACFE6968626949689079897900F0F00001F00F010143917168684068616934
:20134000808888806868406861690078087068684068616940884880686840686169C079FE
:20136000C871686840686169007B08736069C07940001CF05FFF616988606769B86818B1E5
:201380003046F979814250DC387B40001CF052FF386161690F691FB130460A7B82423ADCA6
:2013A00004F10C00804618F0F5FC0746022F18BFB82F06D1207B23F0C1FD404618F0EAFC7A
:2013C00007463FB9B9F1010F20D1204625F0CCFFC8B11BE0B9F1010F15D0606968B18368F7
:2013E0001BB1184625F042F8606903691BB1184625F03CF8606925F039F84046314610228E
:201400001EF03CFE02E020462AF002FA022F16D0B82F14D022E26B685B6842001B69096972
:20142000D35A53526169401CB7E76A68526841009268BB688A5ACA526769401CA1E7D02088
:2014400031E66868002800F0B781A868002800F0B381002108221EF011FE6968087849886F
:2014600027F04CFB071C19D00020A968687038880880A968B8788870AC68A078002800F034
:20148000ED811CF0D7FE6060AA685068002800F0E5819278F91C29F091FADFE1B120A0E021
:2014A000201B00204C1C00206F68002F2ED0AF6867B30024764668686C703768017820460A
:2014C0003FB13A79914204BF401CC0B23F68002FF7D1A9680870A868007840001CF0AAFE62
:2014E000A968376848606868A96800784968002F00F0B4813A79904204D1FA88661C21F8BF
:201500001420F4B23F68002FF4D1A7E154E1C046625400206F68E7B16868002774466F70BE
:201520000678206890B101798E420BD1002F04BF0568256002D001683960056824F096FF70
:20154000284601E0074600680028ECD11EF0E2FB84E131E102206F686870002F00F07E8151
:20156000744639787A882068002800F0778100270379994202D1C3889A4204D00746006865
:201580000028F5D16AE107B977460168396024F06DFF1EF0BFFB8DE06868002800F00C8169
:2015A000807800280CBF00220E9A68680E99008820F032FB15E06968002900F0FD808878DE
:2015C00028B1C87800280CBF0E99032100E000216A68107908B141F040011088527914F046
:2015E000DDFA68703AE16868002800F0E580696808A80822091D29F0E1F9032029F062FA78
:201600006868C07B26F0CAF96868817B009102788389418808A817F039F9E2E76868002890
:2016200000F0CA80384628F0CFFF041C13D11C201CF000FE041C00F0118100211C221EF0B3
:201640001DFD2771204625F08FFE20B9204624F00DFFD120C5E7E088824940F00800E08009
:2016600040F00400E080022029F0FEFF7E49032029F0FAFF68680168089100798DF82400AE
:201680000E9F8DF825708DF8267008A821F0D8FAA7E76868002800F08F80686800880021D7
:2016A00003F016FCDAE06868002800F08580686800787070002094E76C486F680478002F85
:2016C0007AD0686800212A2269701EF0D7FC708F696808806868B6F84870847269688F8164
:2016E000F08F6968C8826868082206F1240707F139010E3029F062F929F024F90146686803
:201700000822801C29F05AF96868082207F11C01183029F053F996F83C10686880F8231086
:201720000E986968524C81F8210021784A0824BF6A6882F824008A0824BF6A6882F82500D6
:20174000CA0824BF6A6882F826000A0924BF6A6882F82700C90924BF696881F828007DE075
:20176000686848B390F90000044628F0D9FEA86800B104709EE76868F0B100200E9F68700C
:2017800069680F7069684F7068680226867068680624C470696803230B715FE0686858B1C2
:2017A000407818B1FF20032125F0BAFF29F008FF0E9830490860FEE7022012E7122010E7C7
:2017C00029461EF075FE48E000202B496870EF780F7043E0002068701DF064FF3EE00020D6
:2017E000687027F0A1F939E008464FF4807121F01FFD5FE7294620F0E9FC2EE0294614F06D
:201800009DFC2AE029461AF0AFF826E0294629F0DFFD22E0294623F0A1F91EE0294622F0FE
:201820007DFE1AE029461FF0FFFE16E029461BF019F812E029F06AF9D3E6294621F020FF71
:201840000BE03846294607F0CBF906E0294607F043FB02E0294607F035FE0E900E9815B0E7
:20186000BDE8F08FA561020019B10200B4510020B26800207C052043504E00202DE9F04722
:2018800004464FF6FE70ADF1600D217AADF85400606808AA15F0D4FA002800F042849DF8EC
:2018A00022000228B4BF012700279DF824000228A8BF0027BDF82A1000254FF6FE70801F43
:2018C00088420ED04FF6FE70401F884209D04FF6FE70001F884204D04FF6FE70C01E8842E0
:2018E00000D12F4629F05AFE9DF82310884240F01884002F00F01584208D9DF82660678E5E
:20190000ADF84C00ADF82E7056B161689DF821209DF83C30012029F0A5F8002840F0018438
:201920009DF82570DFF8F8A2DFF8F8821695002F4CD19DF83D002F4658BBBDF82A00034642
:2019400024F034FD3E46022808BF0126002E9DF8226018BF012751460988994208BF47F061
:20196000020727B1002E14BF402120210F43184624F01CFD012808BF47F00107002E3ED09B
:201980001298007829F0FAFB012818BF27F0010735E09DF8411041B1FF2906D09DF8400038
:2019A000119A25F0E1FF50B129E0B8F83A00BDF82A10884206D098F84A0004281FD10120ED
:2019C00016901CE09DF82660222721E0BDF82A10FF2027F093F8002804BF3E1C082708D004
:2019E0009DF8250047F001062C2740F001008DF8250006F00306012E08BF47F01107169BCC
:201A00009DF8266007F00200184308BF47F0800796B998F82F0078B107F0220022280BD05D
:201A200007F04200422840F07C8312980078062818BF072840F07583B8111690F80954D3BF
:201A400098F832001299BDF82A2080080AD20878C01E01282AD9001F28D0C01E26D0801EA3
:201A600024D003E00878401E0A281FD9F5B9B8F83A00904240F055830D780520BDF82C404A
:201A80008DF8110004A828F027F9002800F049830269032313271370511C0F704C702212BE
:201AA0008A70CD7044800AF08DFD3AE3169840081BD30878032802D148780D2815D09DF8B9
:201AC000280038B1BDF82C000E990FF065FC012800F023839DF8270038B1BDF82A000D9924
:201AE0000FF05AFC012800F01583B8F84800B4F84410884208D10095208DB4F8421094F879
:201B000046202B4615F022FA9DF82600002847D0208DB4F8421026F0ADF89DF85190061CD5
:201B200027D1B9F1000F13D198F89000012839D112980078062802D11698400832D2BDF8EB
:201B40002E104FF6FE70401C884240F0A580E8E2042028F009F8011C00F0E38264200870A4
:201B600001274F70208D488098F8000023F0DCF8D7E29DF82130606819184A7BF1788A4200
:201B800002D0F27075606068C0180421401C28F0D1FA7168814200F2C482401C706001E057
:201BA0009DF8519098F832008008C0F0BA82B9F1000F0BD0BDF82C0028F0B8FE002800F01E
:201BC000B0826168487800F0DF0048709DF8320038B161688879401E8871C0B28DF83200C9
:201BE00008B907F07F07380928D39DF82500F9084FF4805518D279091ED3811011F0070F93
:201C000001F0070604D0072E1CBF761EF6B20EB907F07F0700F0E30040EA8600C0B209E084
:201C20000A500020D04F002020F01C00C11021F0030108438DF825006168087298F84A00C7
:201C4000042800F0F381092800F0F08117F0610F40F0E9809DF82200012811D1129800786E
:201C6000052800F0D98003280AD1BDF82A0028F05DFE28B1218D08A815AA002300F0A2FEED
:201C80009DF8320068B99DF82200012804D112980078032800F0458208A8214622F040F842
:201CA0003FE228F0BFFA002840F03B829DF83D00002870D1FA109DF82400BDF82A10169288
:201CC0000028ADF854102ED13A0931D29DF82220012A28D0084600211EF070FE002620B1B2
:201CE0004079012816D0022814D0BDF85400B4F8441025F0BFFF28B1807827F068FF08B12A
:201D0000082807DBBDF82C0028F010FE18B104208DF824000126BDF82A10002E08BF0222E5
:201D200074D09DF82400169A520838BF002300D340230DF13D021EF07BFE30B1616808785E
:201D400045F0200500F03F0008709DF83D0040B1BDF82A1010A824F009FB45F04005ADF8E1
:201D600054009DF82200012806D0BDF82A00BDF82C1000221BF0C0F9169840082CBF402260
:201D80000022BDF82C10BDF82A0017F067FE08B145F0200533E09DF840009DF84110119A59
:201DA00025F0E2FD00282ED09DF8410038B9BDF82A00ADF8540029F013FD00BB1DE01199DF
:201DC0009DF8286001EB400030F8020C002EADF854000CBF082010209DF827600EB1083027
:201DE000C0B29DF82560002106B1012140186168401CC2B2505C401E505445F0400527F02D
:201E000099FC169098E0BDF82A100B22BDF82C0000231EF0C5FB84E1218D08A815AA00237C
:201E200000F0D0FD7DE10020169078085FD3B4F828909DF833C0BC4E09211698F2799445FD
:201E400006D1BDF82C303288934201D1B3782BB9491E06F1080600F10100EFD1092825D0E6
:201E600096F806A0BAF1000F1DD0B8F84810484626F062FF10B1AAF10100B071AB483321B5
:201E80000279FF2A02D00288914504D0491E00F12400F5D102E0B079401EB071B079522829
:201EA000A4BF1698B07127F0600720E027F042FC16909DF8320020B9208DBDF82C1088426F
:201EC00015D0218D169A08A813F060FA58B1380932BFBDF82A004FF6FE70401C45F004054B
:201EE000ADF8540003E0002027F020071690B8094FEAA71610D394F8473094F846008DF80E
:201F00001130E26B94F948308DF8100004A908A88DF8123004F052FA70080DD3218D169B7E
:201F200008A815AA00F04EFD169028B112980078012808BF45F01005BDF854104FF6FE7050
:201F4000884204BF0021169179491B310978012927D1628E411C914223D0228D914220D0F6
:201F6000BDF82A10401F88421BDDBDF82C00904217D029F035FCA0B10179012918BF022976
:201F80000FD101218DF810104088ADF81C0004A822F0EEFA28B105A822F09EF808B127F06D
:201FA0006BF937F07F0000F0BC801698002800F0B88020891CF03EF9071C00F0B2806168F3
:201FC000228928F0FBFC002605969DF822008DF8100016990091B146019504ABCDF8089061
:201FE000BDF854100393228D237A384618F0FCFCC0B998F80100002800F09380BDF82A0054
:20200000ADF81A004D468DF81E508DF81D50BDF82C70ADF81870169E8DF81C6006A828F090
:202020001DFE7EE0384624F021FA7AE05146BDF82A000988814209D024F0B8F9022805D0B9
:202040009DF8250000F0030001286AD19DF8220000284DD012980178042903D19DF83C106E
:20206000022940D00178072905D19DF83C2098F80000042A06D0032953D108A8002116F0FA
:20208000E5FC4EE04FF4806121F092FC092088F84A0027484178022904BF0021817728F034
:2020A00051FC01460D9828F045FB012839D1102027F05AFD07460E991298401C8FB302225E
:2020C0003A704378027802EB03227A80807878704A2024F0ABFE9DF8260010B91549052007
:2020E0000870394640E5002008A90EF02FF818E094F8460094F8477094F948608DF81000F7
:20210000E26B8DF8117004A98DF8126008A804F055F906E0BDF82A0001E0BDF82C0022F03D
:202120002FFC18B0BDE8F087B41B00201423002048540020B4510020694A2DE9F04FADF1C3
:202140004C0D10780F91090C80F00D840F999346890B80F0DE830F99890980F013830F991A
:20216000490980F095820F98DFF88091C00980F01E820F98000A06D323F016F90F9880F05B
:20218000800000F00FBC0F98DFF858A1DFF85881400A80F0AD800F98000B80F08B800F9921
:2021A0009BF80300490B7BD254460F99606AC90B60D20F99207889082ED20F98E188800A6B
:2021C0000DD20F98C00A08D3BBF84800012123F095FE0F9880F48060E4E30020E2E3BBF8B7
:2021E0004850ABF848105020A11D24F01FFEE6881E2744466089854205D0864204D0204629
:2022000028F061FB00E066817F1E04F11C04F1D10F9880F40070C5E340B301A829F0E4FA49
:2022200029F0B0F949460546032091F8228091F823608DF80D0003A827F04EFD071C15D001
:2022400038690B2100F8011B00F8018B06700126BE7728F077FB78627D807E7701A83862AE
:202260000023BE76384623700AF0ACF90F9880F0020097E380B149461431097801290BD138
:202280008047A06A00B180479BF800004FF480414FF47A7229F0E0FA0F9880F4804081E3FD
:2022A00020B100208BF8030023F0C2FD0F9880F4805077E323F0BCFD4946087A01280BD1AE
:2022C000497A49B19BF800004FF47A7212FB01F24FF4006129F0C0FA0F9880F4006061E349
:2022E000D04F002068500020CC1F00204854002029F05AF94FF6FE71814200F054819BF8C5
:2023000032008008C0F04F8100252C46284626F027FF071C19D03879012816D0022814D068
:20232000F879411CF9719BF88B1081420DDABC727C72388825F06CFF388801A927F040F977
:2023400001A821F0C9FE26F097FF6D1C332DDDDBA8F11C061E274FF6FE75119436F81C0FF9
:2023600085420CD0307B9BF88B40411C8442317305DA1198B0747074308825F049FF7F1EA8
:20238000ECD15446032104F1380010F8047F0FB17F1E0770491EF8D1BC4C332605F10109A5
:2023A00034F8240F81451FD001208DF804006788ADF8107001A822F0DBF8A8B1A8F11C05AA
:2023C0001E2735F81C0F2188814208D0BDF80610814204D002A8A91C28F0ACF910B128465F
:2023E00028F071FA7F1EECD1761ED9D1119D2C46284626F0B5FE48B1017931F0040105D1FC
:20240000807A27F0E4FB08B1641CE4B26D1C332DEEDB27F0F7FA119E5FEA00080ED03546EA
:20242000284626F09FFC28B1807C27F0D0FB08B1761CF6B26D1CEDB2A845F1DCA019C7B2BF
:20244000002F41D0B8001BF0F5FE1090002808BF119F3BD0BA00FF211DF010FE119E35461D
:20246000B44218DD284626F07BFE031C10D0187930F004000CD1987A27F0A9FB011C07D022
:20248000009718885A7A109B1CF0EDFB761CF6B26D1C332DE4DBB8F1000F17D0119C2046FE
:2024A00026F060FC061C0AD0B07C27F090FB011C05D00097109B3088727C1CF0D4FB641CAB
:2024C000E4B2A045EBDC01E0119810909BF83000002808BF4FF0620805D028F0B7FAC0F1E6
:2024E00054005FFA80F80320B8F1600F98FBF0FAA8BF4FF01F0ADDF840904FF6FE7BABF131
:20250000020BB8F1000F0EBF119D2025DDF84480BA45A6BF3C1C45F040055446032014FB9B
:2025200000F0801C8DF8050001A827F0D5FB4E46031C26D01869082104F01F02017045EAED
:2025400002014170801CA4B12246C01E361F16F8041F00F8031F318809124170B17801F051
:20256000070CF178521E01F0070141EA0C118170EDD1A3F802B00120987618460AF022F891
:2025800000E00120E90906D2641EE4B20CB109EB84093F1BFFB205F040052843B1D0109841
:2025A00008B123F063FF0F9880F48070FAE1B44C0925002106264FF00408A778002F3FD0E4
:2025C0007F1EFBB26079A37028F08AF8071C36D05BB9787B022808BF7E7330D07E73386888
:2025E000407BF02123F0D4F929E0A3791BB9787B032812D023E023790BB3E078401EC3B2AE
:20260000E370E3B99BF82500E0702079401EC3B22371787B032812D123B92046394623F0EE
:2026200065FF0CE087F80D8029F0AFF800F00F00401C38819BF80000202120F0F9FD01216E
:202640006D1E04F10804B8D19BF8000001290FD0402121F0ADF9494691F82900012811D165
:20266000002081F829001AF00DF826F005FE09E0402123F0DBFE28B99BF8000040216422DF
:2026800029F0EAF80F9880F040008BE1F0220020102123F0CBFE30B99BF8000010214FF44D
:2026A0007A7229F0D9F8C148DFF80483417808F5C674491ECFB217BB01214170002005211A
:2026C00027F0BAFC071C1BD006253846052127F0B3FC0646388978B1401E80B2388158B9FA
:2026E0007889C00802D3387B25F07AFD7D733868407BF02123F04CF9371CE6D100E04770A8
:2027000064274FF6FE7600252079A0B1FF2812D0401E2071C0B270B96079032805D1608811
:20272000218802221FF0E4FE6079012803D0268066806571A5717F1E04F10804E4D108F142
:20274000DC040827207A401E2072C0B230B99948214625F095FE90B9668025707F1E04F13F
:202760000A04EFD1944A0C2112F8080F08B1401E1070491EF8D10F9880F0100012E122F06C
:2027800033FDE4E7202123F051FE28B9DBF81000002808BF012616D029F02CFA044628F03A
:2027A000E5FE4FF47A716043B0FBF1F1DBF81000002808BF002004D088428CBF4FF0FF308F
:2027C000081A460867D00020042127F035FC071C61D0FF254FF0FF3A06244FF001093846E4
:2027E000042127F029FC10903889864204D8801B83B23B8113B14BE000203881BB7B012BBD
:2028000002D17889C0083DD3002B36D08DF804508DF805508DF806A03968086AC97F02AAF6
:2028200014F00EFB4FF00008012808BFC8465FEA08001DD0788A40F08000ADF83600B87B48
:202840008DF838007889000908D3BDF8360040F48070ADF83600387B8DF83A007B6913B1D2
:20286000187BADF8180001A9002202A803F0A6FD7C73387B1CF0D6FF0AE087F80D9007E08C
:20288000B41B00207C733868407BB72123F080F8109F002FA3D110F01BFA9BF80030002052
:2028A000012127F0C9FB18B11846202120F0C0FC0020042127F0C0FBB3B278B15A46078912
:2028C000147827F0B9FBF8B9BB42AEBF0027FF1ABFB2204627B9202120F0AAFC00200DE08B
:2028E0007A00202128F0BBFF29F084F9044628F03DFE4FF47A716043B0FBF1F0CBF81000E8
:202900000F9880F020004DE00289BA42D8BF171CD7E728F0E1FF294C0546201D006807469A
:2029200098B157F80C1C9BF8000021B94FF400511FF07AFD03E04FF4005120F079FC2046EE
:2029400039460022001D25F063FA284629F04EF92FB13846FEF792FF384627F0FDF90F9863
:2029600080F400501EE020F035FC071C17D0144920310A78FF2A0FD03C780B460020944217
:2029800007D0401CC0B2C200D1189A5CFF2AF6D102E0496838468847384627F0DDF90F980F
:2029A00080F4004013B0BDE8F08FC046BC5F0020201B0020855B0200441C0020CC5A002038
:2029C000B8D102002DE9F04F064693460020ADF13C0DABF80000B06A099303460078884603
:2029E00028F0CCFB48B17089044623F0DFFC022804BFABF80040B36A01D0002009901878C7
:202A0000C84DDFF82493401E0A2800F20B84DFE810F02F03B3020C049F028D0151010904B6
:202A2000BE00880066000B00BD4C207D012840F0F9835B1CB06913F8015B1F7828F000FFBF
:202A4000002800F0F7830379002B00F0F383032B80F2F0830E2D1CDCDFB9D04907752DB97E
:202A600001EB85010A6BC261096B0AE001EB85010B6B9A01A2EB8302C2610A6B9101A1EBA3
:202A800082018161012180F8201026F0F5FB002500E001250320B689A47F8DF8190006A805
:202AA00027F01AF9071C00F0C58338690C2100F8011B00F8015B04700124BC7727F042FF37
:202AC000786204A9304626F07BFD10B17C7704A838627E80BC76384609F074FDAAE35C1C54
:202AE000207820F01F0700F01F00012840F09A83641C04A8214628F0D3FE284604A95D305F
:202B000027F018FE002800F08D83002F40F08A830834A2786178207801EB022124F020FDED
:202B200088E3688F7189884240F07C835C1C14F8016B04A8214628F0B3FE284604A95D30CC
:202B400027F0F8FD06F01F0726F01F06002800F07183002E40F06E8378001BF06BFB011CB1
:202B600000F0688367B184460834384663782278401E04F1020402EB03222CF8022BF5D1E7
:202B800000910BF0CEFB084623F070FC52E35C789A1C34F07F0704F01F0E40F04B83377FD5
:202BA00003201EFB00F0801CC1B2B94240F04283002714F01F0F04BF4FF6FE7C614618D080
:202BC000D9789B7870464D4603EB012C5378117812F802EF01EB03213EF0770340F02A8349
:202BE0002B888B4208BF0EF00707521C401EEDD1BFB960464FF6FE72824212D004F0600229
:202C0000602A0ED04D462A88A30907D2E30902D2904203DD0EE3904203DD0BE39142C0F2FA
:202C20000983B08928F0DCFD002836D1B0894FF6FF7126F081F8041C14D125F001F8041CFF
:202C400000F0F88200211C221DF018FAB0894D460E35208028886081AA23A37402222274AE
:202C600001216174207C032805DB0220072F2074BCBF7F1CFFB2677400202073A01C27F0A2
:202C80004AFA002840F0D682307A002800F0D282B169A01C28F004FECCE20021C171017ABE
:202CA000032905DB0221072F0172BCBF7F1CFFB24772BFE2484671890088884240F0B282DD
:202CC000307F022840F0AE82AA4C201D00884FF6FE71814240F0AE82162026F045FF071C76
:202CE00000F0A88201213970B07900280CBF081C02207870B06A4078B872000902D2B08993
:202D000024F048F9B169B81C28F0CAFD0020F8742878394622F008F8B089A0808AE2C04609
:202D200048540020D04F00200A500020708923F03DFB002840F076825F78B94987B10C2F3E
:202D400003F1020380F276828C463D465A7818786D1E03F1020300EB02202CF8020BF5D1D1
:202D6000484675890488DFF8D892AC4200F0B180B37C002B00F05E823B1C0A974FF0000882
:202D800011D0A74A38464146921E32F8023F9C4206D0401E01F10101F7D104E070D5020048
:202DA0000A914FF00108284600211DF007FE00280B907DD0407901287AD10B98807910F0B6
:202DC000180F75D00B984188384627F097FC10B9B8F1010F6CD109F2AC404FF6FE754FF056
:202DE00000080C97B6F80CB008904FF0010A0D95C14611E0B8F1010F08BF4FF0010908D0A1
:202E000028F0C3FCC0B290FBF8F101FB08F1A0EB01094FF00008C246089D1E271C3D35F8AC
:202E20001C4F4FF6FE70A04213D0A34511D00C98214627F063FC60B96B7C53B1072B08DA4D
:202E400008F10100BAF1000F5FFA80F801D1C14521DD7F1EE3D1B44D332735F8244F0D9826
:202E6000A0421AD0A34518D00C98214627F046FC98B96B7A8BB1072B0FDA287901280CD01F
:202E800002280AD008F10100BAF1000F5FFA80F803D1C14501DC0D9407E07F1EDDD1B8F176
:202EA000000F02D0B9F1000FA4D00D980B994880B37C5B4C581EB074F77C00970A9D01953C
:202EC000029401220392B189B269708919F038FBB0E1B4890C2F80F2AD818846ADF81040AE
:202EE000BD488DF812700168CDF8148009B104A88847204620F026FA0C2803D14FF6FE707E
:202F000020F020FA0C2880F2958109EBC00505F59675686808B123F0A9FA2FB178001BF06B
:202F200089F9686010B985E1002068606C80C3486F70007828706878002800F07B81686886
:202F4000002800F077817A00414627F037FD71E1307F022840F06681099828B94D467189C4
:202F60002888884240F06681099831460DF0EEF85FE1C04668500020B5F84810404624F008
:202F800079FEA846074608202FB17D781DB90221397007257D70B16A0A79CC788B794D781C
:202FA00091F802A0CF7904EB02244A7902EB03296A0928BF1020AA0924BF0830C0B235F0BE
:202FC000700340F03781327F904240F0338105F07005680938BF002006D306A8083128F065
:202FE0005FFC25F010050820A90907D3B16A091804A8083128F054FC25F0200520465146D8
:2030000025F0A0FC08280DDA8D4B410001EBC001C9188879B84240F30D818F71002002E083
:203020003E1B00200420B8F83A10A14219D048B9B189484601222B4611F0DAFF28B1F9E044
:20304000201B0020042840F0F58006A804AE009049463A46534601962046029515F0D8F942
:20306000E8E0B189484601222B4611F0C1FFE1E0B5F84810404624F0FDFD4FF00609041CA3
:2030800003D06078002800F0CD80B06A817847780891C378017900F1050A03EB0120099058
:2030A000404621F08DFE9AF8001009185FFA81FAB80928BF4FF00E0937F0780040F0B28058
:2030C00007F01800182800F0AD80307F814540F0A9804FF00009CDF800900899B0895246A7
:2030E00043461DF0DFFC032800F09C80002807F078074DD117F0180F18D195F8310028B1BE
:20310000B089414601223B4611F072FF09984FF6FE714A463B4611F06BFF002838D14FF692
:20312000FF70ABF8000039E0F022002047F00107780928BF47F00207B08939461DF03EFC4C
:2031400090B1817911F0180F0ED0417901290BD154B14088B5F8481024F08CFD20B1437873
:2031600013B1607898425DDCB089414601223B4611F03EFF60B94FF6FF70347AABF80000E0
:20318000002C0CBF4946B169B089524627F0ACF9BBF800104FF6FF70884243D101200090FC
:2031A0000899B089524643461DF07CFC0998394623F0C4FD698F81422ED1099828F010FB1D
:2031C00060B10079012818BF022807D1099804A926F0F6F908E0C046F451002027F0B2FBF9
:2031E000014604A828F05CFB307A012803D1B16906A828F055FB06A8009004AF0197B06AF3
:20320000407840F0300002900999089BB0894A4615F0FEF848460CE0B06A80F805A026F034
:2032200089FA06E04FF00009F4E70999304615F00DFC099009980FB0BDE8F08F62540020E9
:20324000FC1B00202DE9F04F934C04F128000768ADF14C0D17B1002087F84500DFF8548326
:203260004FF0000A17F148060BD0BF6DD04DAE612FB940460068D0F84C058047AE697068D7
:20328000A86028F029FB1190082017F025FD1EF045F8454610B1AFA028F0A4FC20F00CFC42
:2032A0000CA828F05DF804200CA98DF83000504628F05EF8E06327F00DFE04A827F0B0FF84
:2032C000042004A98DF81000504627F0B1FF606327F00AFE08A827F0B3FF042008A98DF876
:2032E0002000504627F0B4FF616BA06319B9A1A028F078FCA06B10B9A3A028F073FCE06BF7
:2033000010B9A6A028F06EFC2868D0F8E00380472868D0F8180280472868D0F8F0028047D0
:203320004046006856460725A0300168775827B13846804740460068A0306D1E06F1040668
:20334000F3D1D0F8B8028047EB2028F033F9A06A574670B16846FF2108221CF08FFEA06AAE
:203360006946082226F0E8FC04F12805012818BF2F68914805C8E846391C88E805001ED134
:2033800008201AF057FF061C54D0B51E032728F0FCF905F8020F7F1E4FEA20206870F6D192
:2033A0002020F82705F8020F3146082204F14400F77127F003FB304623F058F804E004F197
:2033C0004400082227F0FAFA012008216A4628F099F904F14405002818BF092826D126F055
:2033E0003BF980081DD26846FF2108221CF046FE02AEFF21082230461CF040FE0120514668
:203400000822334627F04CFE80B930466946082226F092FC28B928463146082227F0CEFAAD
:2034200004E0012008212A4628F072F9E220294623F0FCFC26F010F9400834BF55460125D4
:20344000CD4E5520012106F13E0228F05BF918B915B1504625F07EFBC84EE22006F1440108
:2034600025F046FF284621F02FF86846514610221CF004FE3046407830F0010011D1C04E88
:2034800069461022304626F057FC38B968463146102227F093FA04E0402A0020684624F050
:2034A00017FF622010216A4628F02CF928B925B1622010216A4628F02BF968465146102289
:2034C0001CF0DCFD284616F0B9F8284623F072FC284616F093FB1DB15046012124F020F93E
:2034E00024201AF0A7FE0028206400F0AB81E06A216B221D1EF096FC2E490968D1F84C134C
:203500008847216C201D0860E06A216B04F108021EF088FC11F0D2FF216C04F1080048603F
:20352000E06A216B04F10C021EF07CFC04F1300804F12C07D64E256C3070D8F80010D7F8D3
:2035400000C0D448534605F1080E554600F1100938E0C04652616E646F6D5F736565644185
:2035600075746F6D617469632829206661696C656400C04641455343434D206F70656E206B
:203580006661696C656400C0414553454342206F70656E206661696C656400C054524E4711
:2035A000206F70656E206661696C656400C046C0D852002014010020D4D8020049F823500D
:2035C0005B1CDBB2002BF9D04561CEF80020604604F110021EF026FCCE4E684AB070D08D3F
:2035E000B080CA4886F800A011463C3128F058F904F11002216C6148604BCA6090F825007F
:20360000D8F80010707003F14C00F060386804F114021EF007FC04F1180BBF49C04B0870FB
:20362000BE4A7362206CB26004F11403BD4AD8F8001003613868B2625A461EF0F3FBDFF891
:20364000E89289F80700022289F824204FF6FE70A9F81C0027F076F9AC49B4480560AC483F
:2036600028F01EF9B248FF2138221CF007FDB148B24B8360B24AC260AF49416080F800A0EF
:20368000B04B0361B04A4261B2493161AF4B8361AF4AC261B04B7361B04AB261B248B04BD6
:2036A000B04AF361B2491061B04ED16009F13000966016F06FFB964809262C30761E40F85C
:2036C000045BFBD14E46F07948F2010121F08CFFF0794FF4004121F087FFF079212121F0AA
:2036E00083FFF079222121F07FFF206CD8F80010C0F814B0386804F11C021EF093FB9D4EEB
:2037000048F21501307021F06FFF3078382121F06BFF9A4B9A4AF36097483261216C7061D2
:2037200002234FF6FE72386886F8283004F11C038B61D8F80010328404F120021EF072FB11
:20374000904AA2F806A0D56082F802A05561012682F810A0814682F800A00748167148F206
:20376000020180F80190484621F03EFF48F20101484621F039FF05E07855002048540020C0
:2037800080D50200484648F2040121F02DFFDFF8F8917E483E497E4BC9F810007D4A4B600F
:2037A000084604F120038260D8F80010226C3868D36104F124021EF035FB774B2070774914
:2037C0009870504627F050FF7549304627F04CFF7449042027F048FF7349062027F044FFD4
:2037E0007249072027F040FF7149082027F03CFF98784FF6FE71491C21F0F6FE6D487C49B5
:203800006E4D6D4F48626E4B7D606E4ABB6008460D466D4F82622B466C4A85F842606C48E3
:20382000C9F808206B4EDF626B4D0660184F6B4BFD603A463846256C136104F124072F6259
:20384000674E466116F0AFFF12F008FD119828F0CDF926F00DFF25F0EBFD66480068D0F8CD
:20386000D40090F843001AF065F862480068D0F8582451460120904725F0B2FD59485D4F4C
:2038800080F800A07868C068007860B904E0C04614590020504E002038460068D0F8582418
:2038A0005046014690471BF013F94F484F4A0721534625F0A5FC1AF031FC23F099FA102089
:2038C0000DF142018DF842005A2023F0AFFA4FF4FA7010A9ADF84000552023F0A7FA032013
:2038E0000DF143018DF84300592023F09FFA052026F016FE40484078022804D14FF4004088
:20390000012118F079FD13B0BDE8F08F30560020C8510020FC5500207C5A00201157010071
:2039200069C1010061B20200B4510020F05400207C1B0020745800206DB20000799F0200E2
:20394000C51F0200DF7D020011970200FD770200599C020089A10100ED8C0100C996020006
:203960001DCA00009C590020697F010099F201007D7401003856002051720200218A0200C4
:20398000A1920200986200207459002065B0020037A80000B9500200B45A002069B10200A0
:2039A0002DB1020041B1020055B10200F5AD02000DAE0200F94B020054580020AD620200A7
:2039C000C14502005D6B0200115C02002B620200DC4F0020215A020011970100BD300200B7
:2039E000F95A0200E9690020B057002069B902007855002014010020485400202DE9F04F82
:203A0000CC4CCD4DDFF840A3DFF840B3DFF840930F46380CADF11C0D80F05E82DFF81C8320
:203A2000780880F00482DFF81CA3B80880F0C581B80980F0AD81DFF80893F80B80F04E81F1
:203A4000BB480668780980F02981380928BF87F0080080F05583780A80F0BA80F80880F0CF
:203A6000AD802069F90980F09080380A63D2B80A5CD2C64C380B2BD2F80A27D314201AF01B
:203A8000D9FB061C1FD00025A846207A012813D10096042029464246142323F099FA58B9E8
:203AA0002068306060682946142233467060042024F0FAF884F808806D1C0C34032DE4DB52
:203AC000304622F0D3FC87F4806019E3002017E318201AF0AFFB061C25D000252434A846B0
:203AE000207A012813D10096062029464246182323F06EFA58B9206830616068294618221B
:203B000033467061062024F0CFF884F808806D1C0C34032DE4DB3046414618221CF0AEFAB3
:203B2000304622F0A3FC87F40060E9E21BF028FA87F40070E4E21EF0DDF92078052818D148
:203B4000E07904211FF034FFE07904211EF06CFC062026F0B7FF287800F00700022801D02D
:203B600027F0BEFB25F088FB1BF00AFA24F042FF01E025F081FB012024F0ECFF03200121A2
:203B800005F018FE87F08000BAE2A0B119F03EFE20690668206922F069FC26615EB1F288EA
:203BA00002E0F088801AF0803668002EF9D1E079402127F054FE87F04000A1E2FF2003216B
:203BC00023F0AEFD27F0FCFCC54901200860FEE7424692F84A00082818BF04285BD124328B
:203BE0002120742127F094FDBE4E70683188002435461AE0A30003EBC403C25C32F07F0CEE
:203C000011D012F07F02C254034405D101A8FF210C221CF033FA01AB012021460C2224F067
:203C200043F870682988641CA4B2A142E2DCBC4C4FF0FF084D460026E06995F82110802992
:203C40001FD169798DF809102A798DF808206B88ADF806302888ADF8040085F82180297DB9
:203C60008DF80C10EA798DF80B20AB798DF80A30A86904903146102201AB032024F014F870
:203C8000E069761C2435332ED7DB00B180470020022123F045FD87F4807031E24EB1716877
:203CA000087818B1486800781DF0CCF83668002EF5D127F079FC1C34208026F043FE5846BF
:203CC00008300078012806D1444620784FF40061642227F0C4FD87F0100011E20120022152
:203CE00025F02AFAC4B2002C34D0E0001AF0A2FA5FEA000830D083464FF0010A4D4633260F
:203D00002879012818BF02280DD18DF804A06888ADF8100001A820F02BFC20B102A9584632
:203D200027F0BEFD8346761E05F12405E8D113E0C05A0020B4510020B0680020D04F0020B3
:203D4000142300205C540020AC68002048540020785500204FF00008B8F1000F12D074B159
:203D60000F204FF6FC768DF80C001F25ADF8046001A922464346AF48009517F0E5FB4046EB
:203D800022F074FB87F48040BAE1C04600540020207A58B92078062802D1072026F092FE41
:203DA00050460078012801D126F076F8E07910211FF03EFA87F02000A2E1207A10BB21788D
:203DC000E07908291CD126F05BFA092026F07AFE4E461C363078052806D0072809D1072089
:203DE000012105F0E7FC04E0012025F0BDFA1EF081F850460078012816D126F04DF813E005
:203E000010210FE027F0C4FBEF2803DB002025F0ABFA09E027F0BCFB1030C0B227F0CAFB98
:203E2000E07901211FF004FA87F0020068E1012026F048FE55466678287900F00701122077
:203E4000012918BF02293DD1E6B1032E1AD0012E38D1012936D10A2026F034FE4446207879
:203E60004FF480611FF0A4FD502005A925F040FABDF81400A4F84800BDF81400002122F058
:203E80003DF826E027F0F4F9002818BF032E15D1022026F017FE9C49E068097820F0E0FBE7
:203EA000A97909090ED270B9984A5178491CC9B20429517004BF9649E16003E027F065FC0E
:203EC00014F054FD28B1E07901214FF47A7227F0C6FC87F0010013E14FF0000B07E1C0468D
:203EE0007C052043C45A002041468D4823780E784278701E00F0D880401E13D0183800F012
:203F0000F080B93800F0E9802A3840F0E28081480168002900F0E88040468847E4E0C04621
:203F200074580020012A18BF022A40F0DD8099F81C004E46072818BF082805D1227A1AB91E
:203F4000012105F037FC2378032B75D00A2B11D0042B14D00D2B12D00E2B10D00C2B0ED098
:203F6000002B00F0C18024F045FDE07910211FF05FF9B9E0287800F0070001285CD0237A7C
:203F8000607833BB84F80BB05846307121F094FFB8B1062026F096FD9AF806000AF104066C
:203FA000000904D34FF40040012118F025FA307800F00700022801D027F092F924F01AFDEE
:203FC00092E0052026F07EFD42F2107025F054FF8AE0012819D1E07A401CC0B20428E0727A
:203FE00004DB4D48007801280DD00EE04B4800884FF6FF71814206D0032060700126667187
:204000000423A37201E084F801B024F051FA23F00FFC0AF106000078000903D34048007D7C
:20402000012861D1607803285ED10820012118F0E3F959E094530020237A002B32D1E07961
:2040400010211FF0F5F821F037FF20B320780A2808D1297801F00701022903D02F4908223C
:20406000891C0A7003280BD124F0C4FC307F022806D1012024F06EFD0220012105F09AFB28
:20408000062026F01FFD287800F0070002282BD027F026F928E0052026F014FD012022F04F
:2040A000E5FA21E05846FAE7022B1DD1012A18BF022A19D127F0EAFA10B117F059FD98B10C
:2040C00027F01AFB00280CBF5846012022F0CCFE0AE040461DF05CFC06E0404617F0F0FFEF
:2040E00002E0404612F0D6F9404625F035FEE0791FF070F85FEA00087FF4F6AE87F40040C6
:2041000007B0BDE8F08FC046B5550020E854002000F8FF0744560020FD5500201850002086
:20412000485400202DE9F04FC14CDFF808C3277F88465FEAD800ADF1140D80F08A825FEAA6
:20414000184006D3DFF8F8B24FF6FF7AAAF1010A51E1604600785FEA5831A0F1020080F024
:204160003081B64DA91D09885FEA182280F0E9805FEA980180F0D0805FEA183028BF88F442
:20418000006080F045835FEAD81080F0A180A7685FEA98305CD260695FEAD83138BF002045
:2041A000C0F03683A44928C96A4628C209881180276938B9384626F061FE6061C0B997B9FE
:2041C0000B2011E0017BFF2906D031F07F000FD101F07C0104290BDBA06940B9384626F0B2
:2041E0004DFE606120B9002027F0E2F82DE0606160784FF4804141F2883227F030FB217F50
:204200006069082919D00188ADF80010017A8DF80810017B491CC9B231F07F07017306D117
:204220000188427A684625F057FE606909E0008800210A4623F0CCFBF7E7017B41F04001D0
:204240000173406926F01AFEA06188F48040DFE2DFF8B4B200264FF0030AB14687B9607857
:20426000012E04D04FF400511FF0A2FB05E04FF400514FF47A7227F0F2FA88F40050C7E2DB
:204280007D68287810B3F02820DC51464A466B4621F01CF8D0B1029803889BB984F83A9085
:2042A0008DF80DA08DF80C9003AB0A204946524621F0ACFEDBF8001084F83A9031B1287846
:2042C000884703E001880126491E01803F68C5E721F03EFA07462078BFB1401EC0B2207043
:2042E000A0B160784FF4804122F0A0F830B9206926F0C4FD10B938781EF092FD607840214F
:2043000043F6982227F0ABFA207810B90B2027F04FF888F040007BE2B0F1FF3F18BF002811
:204320000CD16846002108221BF0A8FE68461AF025F918B1607802211EF07AFF88F002005B
:2043400066E20846002121F0BBF928460678FF24C6B14FF6FF75001D00212B4610F8142FA8
:2043600052080BD3C7884FB1BB4207D055B10289BF1ABAB29542C4BF0C1C151C761E01F1D3
:204380000101EBD1FF2C19D02C49A00000EB0410401818300189C088401A80B250B92748C1
:2043A0004470FF200AF0BEFBFF2120460A4621F04FFE00202149C88025F0BEFD88F08000A9
:2043C00026E2B0F1FF3F18BF002811D13846401E0AD0801E0CD1A07F022809D10120A07789
:2043E000002022F043F903E0617F002023F0B8FF88F480500CE260781EF0ECFE051C08BFB0
:2044000088F4004000F004822F78D32F00F00981207FB84216D00A2F40F0178194F83B0000
:204420002871616A002900F01081A81C88470CE178550020495400200CD00200986200204C
:20444000D04F0020B64840787F1E00F09480BF1E40F0FB80012818BF022840F0F680AF7847
:2044600077B37F1E40F0F1806F7860781FB327F09BF84FF6FE720021824218BF0121081CE2
:2044800004D15846408F1146814209D010465F46ADF8100004A9A7F83AA0532022F0C6FCCA
:2044A00024F006F823F0C4F95946002081F84A001BF0F8F8C9E0022140F6B832A177A5E014
:2044C0006878002853D127F017F900210E4603460BF1080023621F460160002F43D1002B0E
:2044E00037D0002E1F4634D0B146C54825F080FB01280BD08A48008E4FF6FF7181420BD0D3
:204500003988884208D01AE058580020BC4807F10C0126F00FF990B1BBF83E003989884289
:2045200001D1824501D1FB784BB19BF836007979884209D17A48B979807B884204D0384637
:2045400023F07AFA761EF6B2BF69B9F10109CCD1236AE26A002AABD0184631469047E06AAB
:20456000002872D1A4E7BF69761CF6B2B5E7002022F07AFC69E0012818BF022865D16F780F
:2045800094F841003FB194F84010491CC9B2884284F8401042DB607F401E04D0401E3AD076
:2045A000401E1ED051E026F063FE98B994F8420020B1A06A002848D0804746E0002102209D
:2045C0000F468DF808000246ADF80070684625F099FF13E0012027F05FF8014605F0EAF8A1
:2045E00033E0AB2000216A4620F0E0FACDF808D004208DF80C0002A813F020FE60784FF4EA
:2046000080511FF0D5F9607841F288324FF4805127F025F919E023F029FA16E00120002177
:20462000DCE7E88948F20101401A0BD0401E05D0801E0AD128461AF069FD06E0284617F0F0
:2046400089FE02E0284619F003FC284625F084FBD1E660784FB17F1E00F0D480FF1E00F0FC
:20466000C780BF1E00F0BB80D0E094F83B00C10880F09B80810878D20009C0F0C780062027
:20468000207727F003F800286BD021F061F8E568071C66D068684078800837D33878032110
:2046A00000226B4620F012FE28B968684078410830D20E201BE002980188B52912DAB42168
:2046C000018060784FF47A724FF4005127F0C7F85148416829B10078FF2814BF3878FF208B
:2046E0008847E56868684078400803D2092026F05FFE0AE0092003228DF80C0003AB0021C5
:204700008DF80D200A2021F081FCE5686868407841087BD341490E6826B9800821D375E013
:204720004854002038781EF07BFB002600B101260325301C02D00E2026F03AFE0C2020700D
:204740006078402143F6982227F089F80A208DF80D5003AB00212A468DF80C0021F056FC56
:2047600054E00E2026F024FE50E0042294F83C00227740084AD394F83E70002F38D160466B
:204780000078012818BF022840D1012504F11C000021E5701BF072FC03202077284620F008
:2047A000B3FF284626F05BF830E004F11C00052594F83C10057089080ED394F83E1059B97A
:2047C0000121E170042200211BF058FC2577002020F09AFF0220E5E7284600210CE00021D1
:2047E00084F83A1021773222042127F038F80DE025F0B2FE0420012104F0DCFF06E0C046E8
:20480000C85100200120014623F0AAFD88F0040005B0BDE8F08FC046545800207858002026
:204820002DE9F04FDFF8BCB2DBF80000D0F8D41091F883A0B8300168DFF8AC820F78ADF138
:20484000240D2FB941460F7817B1D0F89404804723F0DCF981274646A4493770BAF1020FD6
:20486000086002D1A249FF200870A24C0020A249A08106460891BAF1010F079127780E700C
:204880002069A7701AD0007ADBF80060801E85B2D6F80001C089A842C0F20183216A083110
:2048A000096804F118000422016004F11901A67EE37E607E06914978A2812DE0467A007ABF
:2048C00006F0070100EB01218DB2710938BF281F04D306F0070100EB0120801E36F07F06AC
:2048E00085B240F0DC82DBF80000D0F80001C089A842C0F2D482216A04F1180008310A68D9
:20490000097902600522017104F11901A281237F0691E67EA07E897800EB06206081C1F386
:2049200001182371DBF8001001F1B80CDCF800100978ED1EADB2002908BFB8F1020F00F0C8
:20494000AE82B8F1020F00F3AA8219B110F0070F00F0A582667800F007039B1E022B08BFD2
:20496000002E00F09C82DFF8A49231B149460978862902D1002B40F09282001300F0020006
:2049800002284BDA334341D1DCF81C0090F88300022838D0216A89180831097805A8521C12
:2049A000017097B2A78126F097FF054649460878862825D1DBF80000403001680A6832B962
:2049C000D0F80C058047DBF80000006C02689DF9140026F0C5FF5077DBF80000016C096892
:2049E00000228A77006C9DF914100068C177284627F0FCF8608900F010001FF011FD02E06D
:204A0000284627F0F3F825F087FE4AE249460878862803D122F034FDA77866788FB186B910
:204A2000012F00F03C826089022F03D110F0070F40F03582032F05D100F00701032901D0B0
:204A40002DE26089010980F02A82011301F00201022902DA810A80F02282BAF1010F19BFF7
:204A60000699497806998978C1F381098E11B9F1010F00F01482012E00F01182B8F1020FAD
:204A800013DA00F00701012918BF03290DD1B9F1000F0AD1002E00F0028259460968AC3103
:204AA00009680F78002F00F0FA81B149B8F1020F09D08A5D11F809108918CFB216B3C10919
:204AC00020D3BF1E0BE072184944127909798918CFB2C10912D259EA060313D0BF1CFFB26C
:204AE00010E0C04614010020E8690020CC6900209D430020F8660020EA69002059EA060388
:204B000008BF0227C0F30020391A60718D42C0F2C681DBF80030ED1B29182181D3F85012CB
:204B20002D187435A8B2884700286578606100F0B681002174221BF0A1FA0020E0706189BA
:204B40004FF0FF081DB9079A01F020001070079805784FF0000C002D40D06579002D3DD14A
:204B600001F00700032809D0012837D1DBF80000D0F8D40090F88250002D2FD0BAF1010F58
:204B800018D0DBF80400406905781DB126F0CAF9FE280CD0DBF80000D0F84C028047C8B956
:204BA000DBF80000D0F84402804778B112E00420E07012E0DBF80000D0F84C02804748B91B
:204BC000DBF80000D0F84402804718B9618994F803C003E00420E07061898446656923899E
:204BE00005F1740205F17400AA65BAF1010F6860B24A2B812089A9811378A5F85C0007D077
:204C0000069A5078C0F30111107806E0ED690020069A9078C0F30111507800F0780008439B
:204C20004CEA00002874002B85F80E800CBF2079002085F8306085F83A9085F84900A089A5
:204C4000002FA0EB030086B2A68100F02581DBF80000E780D0F8D400216A90F883903A4626
:204C600089190831684618F05DF9BF19B8B2B9F1010FA08107BF0698807806984078C0F3CB
:204C800001182846077CB9F1010F07F0400A07BF06998978069949786D46C1F38106002E2D
:204CA00042D0B8F1020F4FF0000302D1BAF1000F0BD19DF801209DF8001001EB0221A0F87B
:204CC00044100DF10205A0F842107D4FB0F84410B7F85A208A4203D04FF6FF728A4220D18E
:204CE000032E11D06A78297801EB022189B24186B7F85820AD1C01208A4211D04FF6FF729A
:204D00008A4218BF181C0BE060692946323026F0C7FD60694F373946323025F00BFD0835D3
:204D20000346002B00F0B580B9F1010F07BF0698807806984078871121D06169B8F1020F61
:204D400003D0087CC00903D309E05AEA060306D16A782878AD1C00EB0220A1F84200032FEB
:204D600008D068782A7802EB00220A8507E0C046C8DD020060692946283026F091FD5946D4
:204D80000968AC310A686089177887B1B8F1020F0DDA00F00702012A18BF032A0BD1626933
:204DA0002EB9484BB2F842201B88934271D100F00702032A05D0012A14D1886A90F88200AC
:204DC00080B1D1F89C116069884758B90020069FE070B97866697878C1F3011100F0780050
:204DE00008433074B9F1010F56D1DBF80020B8321068007810B1B8F1020F4DDA089800785C
:204E0000002849D06079002846D1D1692079E778DFF8B490DFF8B48091F88310012912D0B9
:204E2000494600250223CD708A1C137017B143F01003137003219070404680F87310426754
:204E40001EF016FF28E0D2F8702305460DF11501E92090479DF81560052336B949460722B2
:204E600001F10C000270082204E0494601F10C00037018224A73022100228170C27017B18D
:204E800041F010018170A8F80431C8F810010571D6E71DF033F904E003F024FD01E025F0DF
:204EA000F5FE26F019FD216A0A68002313710968216226F09BFE09B0BDE8F08FFD6600202C
:204EC000D8520020325300208859002098480020964A2DE9F04FADF13C0D00240A918E2356
:204EE00009900121101D01708046D47240215171502593712046D0730021D171DFF838B2E4
:204F00001172A02191729089917340F430509081204611681074874C85485572084084F8DA
:204F200032304CF21011014300200C909BF80000116058B90C981FF0C7FA94F83200000960
:204F400010D30C9808A98DF8200008E094F83200000907D301200DF121018DF82100522092
:204F600021F064FF15F01FFC25F0B8FDDFF818A30B90002840F0C78010F05CFC00280B90EC
:204F800040F0B6800C9804F1240674210D903246212026F0B7FB002857D10D992120742268
:204FA000334626F07DF800284FD1608F4FF6FE7181424AD001200D9094F84A00082806D08B
:204FC000042804D013F04AF80C980D903DE0DDF8349042200DF122018DF8229021F026FFA5
:204FE00006F12F01432021F021FF06F12C01472021F01CFF06F11C014A2021F017FF06F1A3
:205000001A014B2021F012FF06F12401284621F00DFF06F11601532021F008FF06F12D0183
:20502000542021F003FF06F11801E12021F0FEFE94F83200000938BFDDF8309052200DF108
:2050400022018DF8229021F0F1FE0C9D18E00B9151E00C9AA80000EBC50029460C23814625
:2050600009EB07000090012021F0B2FF30B917F80900FF2804BF002007F809006D1CADB2C7
:20508000BAF80000DAF80470A842E2DC12F002FC9748001D006800B180471FF075FF0D986C
:2050A000F0B126F081FAABF81C0028B998F8000000F0F80088F800008E48401C0078022852
:2050C00018BF012003D1002184F84A1003208BF8010039360BF11400314626F0E1FB01E09D
:2050E00009200B900B9F81480021002F4180AED001277E480B9794F83C10814601208840D2
:20510000CBF80C0097E010F095FB12F0A7FF04F124022120742126F0FBFA02A8FF210C221D
:205120001AF0ACFF0C9D564610E0C046AC6800200000FFFFD04F0020B45100202946012059
:205140000C2202AB22F0B0FD6D1CADB23088A842F4DC02A8FF2110221AF090FF0C9D0320FA
:205160002946102202AB22F09FFD6D1C332DF6DB5F48006800B180470020ADF808004FF4E2
:20518000A17019F057F8071C12D0FF214FF4A1721AF074FF384602A9022225F00FFC4220DF
:2051A0004FF4A1713A4626F0B3FA384621F05EF900200C99ADF81000062202A81AF05EFFBE
:2051C000142019F037F8061C1BD0AF480C300768A7B103270225A8B202A90622801925F030
:2051E000EDFBAD1D7F1EF6D104A93046022225F0E5FB4C201421324626F08AFA304621F023
:2052000035F9182019F016F8071C10D00C9D182229461AF033FF0620294618223B4622F01E
:2052200043FD6D1C032DF6DB384621F01FF920F0FFF92E4881460B98934D012868D12D4E58
:20524000737804F124070BB3012B08D0022B0ED198F8000000F0F80040F0020005E098F856
:20526000000000F0F80040F0010088F80000874824F0BEFC002808BF00200ED004210320C3
:205280008BF80A1009E0C046C45A002098F8001001F0F80188F8001002208BF8010026F06E
:2052A00074FA0999B36B00F07F000818CBF80C306430022180B20C90FF2022F031FA012030
:2052C0001CF09CF84FF6FE706087461CE0870020A4F8486022F0C6FA0A9801280CD002A844
:2052E000002108221AF0CAFE02A806E0B05900208858002048540020002021F077F921203A
:2053000074213A4626F004FA0020022122F008FAE8680B9C80B9122018F08CFF0646002E9E
:20532000EE606DD04FF6FE70B61F0327411C26F8060F7F1E7180FAD1002C61D106AB4C20CC
:205340000021022225F0ACFE002852D1BDF8180000284ED004284CDA182018F06BFF0327C5
:205360004FF0020800244FF6FE7A0646EB681FFA88F14C2006221B1925F092FE78BBE868E2
:20538000015B8A452BD056B300962018418800221823062021F01CFE3069EA6800F2E933A0
:2053A00033611019418805F13402880000EBC100E9681350081973694188880000EBC10059
:2053C0008018E96843600819418818223346062022F06AFC3046002118221AF04FFE7F1E41
:2053E00004F1060408F10608C0D116B1304621F03DF82B4B7120002108224C3325F050FE5F
:2054000025F036FF18B10120A8700027EF702048C9F80C001F48C9F8100023F051FE1F4884
:205420001D490860DBF8100050B10BF110040768206821F01BF838460028CBF81000F6D14F
:2054400009984FF6FF71814217D0012000278BF800000BF1090201468BF80970852026F07C
:2054600051F90BF1090428B9852039460122234625F016FE0C9825F00DF824F06DF90B9844
:205480000FB0BDE8F08FC046F053002030560020092A010041B30200FC57002039B3010090
:2054A000485400202DE9F04F0746C44C97F824000026ADF1840D0128ADF83C6006D197F8A6
:2054C00028102078012902D148B9B2E2207830B9387D022800F0AD82032800F0AA826078CC
:2054E000CB4D01280ED1C94821790078884209D097F83800E32840F09C8225F0D7FA012897
:2055000000F08D824FF4FA60F860E86926F000F840B9E869F96826F073F905F1980026F067
:20552000FDF902E0F9680818F86097F8250002288DF8300003D008B9F86A0D9005E00DA8FA
:2055400007F11801082225F049FC0CA80DF13E010FAA1BF08BFF58B913A807F13401042258
:2055600025F03CFCBDF83C000DF13E011FF080FA2078012800F0BB80002840F05A82397D51
:2055800031F0010018BF042940F0538268463146242226F009FA384669460CF053F997F858
:2055A0001780BDF8000010F0070F06D000F0070002280CBF14270B2700E00F279DF8190096
:2055C000C01987B2384626F0EDF95FEA000900F0308204466946022225F000FCBDF8000068
:2055E000A41C10F0070F18D000F00700022823D102200DF1080A8DF82400082251460AA88A
:2056000025F0ECFB20460822514625F0E7FB9DF81000083404F8010B0EE00DF1040A8DF808
:2056200024600AA80422514625F0D8FB20460422514625F0D3FB241D05A92046042225F0F9
:20564000CDFB9DF81800241D04F8010B9DF8190004F8010B9DF8190068B10799002900F056
:20566000E8810246204625F0B9FB9DF819002418079826F0D5F808A92046022225F0AEFBE5
:205680009DF8220004F8020FB14CE068FFB248B90C2026F087F9E06000B186604770C0F847
:2056A000049015E0E4680834206820B100F1080420680028FAD10C2026F074F9206038B1F0
:2056C00083680BB1866020684770C0F804902068011C00F0AE8181F8008009A809F016FC39
:2056E000A869322126F08CF805F174009FE197F83800E32805D1206918B18047002800F0E9
:20570000988197F83800E2280DD0E3280BD0E02809D0E12807D097F82800012803D0387DB3
:20572000032840F08681BDF83C0000280CBFB0460DF13E0831462822684626F035F90AA884
:205740003146032226F030F997F838C0DFF8E8B2BCF1E30F23D097F8250010F0070F16D034
:2057600000F0070002281AD102A807F11801082225F034FB97F830009DF8283097F838C0C1
:205780008DF8100003F0F80040F0020005E0F86A9DF82830019003F0F8008DF82800BCF14D
:2057A000E30F0DD097F829109DF82800C90000F0F70001F00801014306E0C04674590020CE
:2057C0009DF8281041F008018DF8281097F826309DF829209DF82800190102F0EF0200F098
:2057E000CF0001F03001022B42F0200241EA00018DF829209DF82A208DF8281002F0F800B7
:205800008DF82A0006DA8BB116E0C0460C500020504E002097F8273043B1012B0CD19DF80F
:20582000290000F0FC0040F0040003E09DF8290000F0F8008DF82900387D032807D1FB6BCA
:205840009DF82900099340F008008DF829009DF829009DF8282097F84030800100F4006198
:2058600000F4F860084302F030019DF82820014302F008009DF82820084302F007017A6B4C
:205880008DF818C0084305923043ADF8000023B18DF8193007F141000790BBF83A00ADF8AD
:2058A000200097F91500082805DC10F16D0FB8BF6FF06C0000E00820BB7D6E3040B2002B58
:2058C0004FEA60000CBF311C022197F8179040EA81108DF82200BDF8000010F0070F06D0BB
:2058E00000F0070102290CBF14270B2700E00F27800A06D29DF81800E22808BF8DF8196059
:2059000001E03F1DBFB29DF819003F18BFB2384626F048F85FEA000A00F08B800646694646
:20592000022225F05BFABDF80000B61C10F0070F10D000F00700022812D102A9304608220D
:2059400025F04CFA9DF81000083606F8010B07E0005A002001A93046042225F03FFA361DB7
:2059600005A93046042225F039FA9DF81800361D06F8010B9DF8190006F8010B9DF8190025
:2059800060B10799002954D00246304625F026FA9DF819003618079825F042FF08A93046FE
:2059A000022225F01BFA9DF8220006F8020FBDF80000800A04D3701C09A9042225F00EFA3C
:2059C00085F85B70F220BBF84870E378C5F85CA0A9F10C0685F85500E188A5F85670002B79
:2059E00085F85A6006BF0F204FF6FD71022085F85400B8F1000FA5F84C100AD098F80100BA
:205A0000800906D305F1580008F10B0124F0F8FD66E60CA81BF068F9A5F8580060E625F00C
:205A20001DFE286AC82125F0EBFE05F1BC0025F075FF21B0BDE8F08FD04F00202DE9F04F0E
:205A4000C548C74A0178C5481170C64D4170C6495C306861ADF12C0D086004F0EDFEC749CB
:205A6000C248C44EDFF810B3091D0A91C04982468946E7E0480AC0F09980C1489BF8004051
:205A80000078012868D025F013FE011C00F08A808A7B96F8248086F82420778F8A7B08697B
:205AA0008BF800208A898B7B72870122009200220192012202920022039204934278059271
:205AC000406800232122069001200790F2200BF0C9FA8BF80040C04986F824801E200870F6
:205AE000DAF80800778750B3A4490C681434276857B102693969914205D007F11404276837
:205B0000002FF7D100E097B9DAF80C707FB1786825F086FE0021DAF80C000A9F416038687E
:205B200025F07EFE0020CAF80C00DAF8080025F077FE0020CAF808002068CAF80800D9F875
:205B4000181025F0B5FD68B30846322125F058FEC14825F0E3FE25E0B9F85810778F718714
:205B6000C04999F85A008BF8000096F8248086F824000123009300220192029303920490B0
:205B800099F85B000590D9F85C0004232122069001200790F2200BF065FA8BF8004086F8F2
:205BA00024807787296921F480712961D9F80C008A0A3AD3071C34D0C468F968A1421FD815
:205BC00039468F6800B3D0F80880814210D00246434601E01A469368B3B1AAB19942F9D138
:205BE00098689060184625F01BFED9F80C000BE0AC48006825F014FE4046C9F80C0003E0A8
:205C0000F968091BF960BF68002FD5D14CB1D9F81C1030B10846214625F0F2FDBA4825F0FF
:205C20007DFE296921F400712961C80A05D31FF01DFA296921F480612961080924BF21F060
:205C400008012961E8684FF0FF3125F0C7FF0028F8D028781DF0BEFA041C00F02F81217869
:205C60002878923900F08E8038396BD0491E65D0173904D0491E5DD0891E56D085E094F8FD
:205C80004000443080B225F08DFE071C7DD004F10408381D0C22414625F0A0F82069386134
:205CA000207D387594F915007875A07DB875E07D0A2208F11401F87507F1180025F08EF812
:205CC000608C788494F8240087F8250094F8250087F8260094F8260087F8270094F8270027
:205CE00087F8280094F8280087F82900E06AF86294F8300087F83000606B786394F8380028
:205D000087F83800E06BF86394F8402004F1410107F1410087F8402025F060F83846FFF70A
:205D2000C1FB384625F07CFD2FE0A188A01D14F097F82AE0201D21F001FF26E0CD210022A5
:205D4000032305E0002108AA08238DF82010C1211CF0FAFC19E0C046402A0020343700208D
:205D6000F0690020D850002038530020005A0020504E0020D04F0020FC550020085A00204D
:205D800074590020201D16F089FB20784FF00108712823DC71284FD065280FDC652866D0E4
:205DA000801F75D042387FD018386ED0401E69D0401E012878D9801E5CD06FE0663853D05F
:205DC000801E4BD0801E03286ED9001F40D0401E3AD0401E34D061E0F858002091280FDCAC
:205DE000912861D0723802285ED9C01E20D0401E1AD0401E58D0C01E56D0801E54D04DE01F
:205E000092380DD0C01E01284ED9303806284BD91B3849D0801E012846D9093844D03DE02F
:205E2000E76A002F40D035E0A768002F3CD031E06769002F38D02DE0E768002F34D029E0C3
:205E4000E768002F30D025E0E768002F2CD021E0E768002F28D01DE0C44E0020E768002F21
:205E600022D017E09C4E0020E768EFB112E0E768D7B10FE02746786908B120F0F7FAFF6918
:205E800097B107E067697FB104E0676967B101E0A7684FB1384620F0E9FA05E04FF000087A
:205EA00005E0C0465C4E0020204623F055FFB8F1010F03D014B1204623F04EFF2969880827
:205EC000FFF4D8AD08A8002108221AF0D7F808A818F054FB25F04AFB4FF4FA674FF47A7143
:205EE000B1FBF0F081B207FB01F025F073FEFF20032121F015FC25F063FB024901200860BE
:205F0000FEE7C0467C052043E84E00202DE9FC47D44C0F460546F80B80F006826078DFF899
:205F20005883B90F80F0AA81B90880F09D81F90A80F00281390B80F0CC80380907D2F80FBD
:205F4000C0F0288227F080471BF0ECFC22E225F0C3FC814623F050FF002800F0B4800820A1
:205F600025F070FB002840F0AE80802025F06AFB002840F0A880684617F0F0F9012803D1E6
:205F80000098002800F09F8094F83102002840F09A8000250126E8B225F01EF848B1837AFA
:205FA0003BB1867290F9090006FA00F0C0B221F033F96D1C032DEED3032084F8200004F59A
:205FC000C47025F081FC484625F010FED34800252A460168056050F8081CD14940F8085CAA
:205FE00004F15C0023F058FE40460068006B8047A168401A010BA06AC1F1FF3282422CBFBC
:2060000008444FF0FF30A06294F82C0020B12069A16AB1EBC02F25D923F0FEFE294600B1EF
:206020003146081C1BD0BF4840F6090101804580417B06F00F0221F00F010A434273017BEB
:2060400005F00F0321F00F0143EA010202732946416025F05DF9418811F4406FFBD084F834
:206060002C60A5621FF0C4F9CE4829460560022023F0CCFB022022F083F8112014F054FCA7
:20608000207818B96068483025F03CFCC648007810B90E2014F048FC94F82D0020B184F83F
:2060A0002D50052022F06CF8C048606284F82050B4F9B000B4F9B210884214BF0220072060
:2060C00018F0DAFE02E0484625F090FD27F008073AE720B1042022F053F800206070656878
:2060E00021F07EF838B12846ED696FF4807100224FF00073A847E06858B140460068006BAB
:206100008047E2686168801AC860000BC8600026E660A74904F15C00002223F0BDFD0221F1
:20612000D4F89C0084F8201018B104F1DC0025F0F1FB27F4006707E725F0CEFB064623F003
:206140005BFED4F894100028894600F08480002900F081809749042504F15C00002284F879
:20616000205023F099FD304625F040FD04F5C47025F0AAFB40460068006B8047E0604FF0B8
:20618000010884F80180284622F012F8D9F810006060D9F81000416AC90803D3036A2946BF
:2061A0000022984740461CF0ABFD606880F81580606814F077FC6568D5F808A040F60A020C
:2061C000D01F564600F1010C00E01E46736833B119888A4203D0884218BF8C45F5D100219A
:2061E0007160727B08F00F0322F00F0213437373D9F80C201288904224D06046904221D0B2
:206200002B8E03B3696305F13002518095F83C0001F00F0320F00F00034385F83C3095F8A3
:206220003D0008F00F0320F00F00034385F83D307260707B01F00F0520F00F0045EA0001B7
:20624000717300E0E160504625F062F85146404623F0DCFA02E0304625F0C8FC27F48067FB
:2062600098E0C046A04300200DF00EFCD4F89C0008B927F002078DE08C0100104E4A116832
:2062800041F08001116020B1042021F079FF0020607025F021FB8246D8F8540001680420C3
:2062A0008847D0B1287DC0B1A068B0B18146D8F800002E69006B8047A0EB09002861000B87
:2062C0002861B04202D280194008286140F6C41181422CBFB0F5967F2961504625F086FCDB
:2062E00020F07EFF80B1EE6928466FF4807100224FF00073B047D4F89400002808BF47F076
:20630000020701D01BF00EFB2846AD6900214FF080630A46A84727F000573BE01410044098
:20632000E9320200C068002025F0D6FAD4F8AC6066B306F1280106C90A234FF0E0450B4057
:20634000154008BF002B21D106F1280191E8000306F1280595E8060006F1280322EA090288
:2063600021EA080183E8060025F040FCB16879B1B9F1000F08BFB8F1000F09D03069B6F9AB
:206380003010B5684B464246A84701E025F02EFC27F4804727B104F1DC00394625F0BAFAA5
:2063A000BDE8FC870000046066DD02004D81010091770100D99D0200CC2108402DE9F04F32
:2063C000ADF1840D1B91CB491C923CC9064610A83CC00EC980E80E0000248DF84240317FF3
:2063E0008DF84340B28D8DF84D40D6F828C0ADF844400F46ADF85A20F2898DF85470604687
:20640000ADF84A20027802F00303022B8DF8402000F3C38123461D93401C1F9353083CD222
:2064200002F00C0EBEF10C0F0CD053093CBF10F8013B8DF84230BEF1080F04BF01238DF8E6
:206440004C3001D08DF84C40BEF10C0F0AD0737903F00303012B0CD142F00C0273898DF88B
:20646000402004E045780378801C03EB0523ADF84430530911D245780378801C03EB0523AC
:20648000ADF8463003784578801C03EB0523ADF8483010F8013B8DF8433010F8013B32F038
:2064A0007F058DF855301ED0037833F003058DF8413040F06E8103F0030EBEF1030F00F0F0
:2064C000688113F0030F00F101000ED010F8013B02F00305022D8DF8573004BF10F8013B6E
:2064E0008DF8583001E08DF841401490A0EB0C003F1AFFB2B942C0F24C81C91B8DF85470BC
:20650000C8B28DF84D00074300F04781D00907D370891FF04BFF002840F03F819DF840201B
:2065200002F00C002146001F08BF01211E91910933D301211F9180B3B28925F035F890424B
:2065400002D1F08D000A0ED225F02EF8904222D0F08D01460B0A38BF101C07D39DF8402037
:2065600002F0030C2EE07089ADF85A20804625F01BF8BDF85A10884205D040461DF0D7FCE2
:20658000002800F00A818648026810A940469047002840F002819DF84020F08D02F0030CBC
:2065A00001460B0A0ED2D3090CD39DF8413013F0030F07D102F00C030C2B03D0082B1CBFD8
:2065C00001231D93DFF8E081BCF1020F00F0C280BCF1010F00F0908012F0030F40F0DD8061
:2065E000704A92F82F20012A03D1B779002F00F0D4809DF8542002231A92040A9DF8425057
:20660000BDF846B0BDF848A09DF855E09DF857C0DDF850908DF86430B2899DF84370ADF8C6
:206620005C2034D21E9F40461A30046897B91D9F1FB1104610A917F05AFA1F9800901C9F97
:206640000197B07C1B9A0290F37C17A910A814F01BFEA2E0307C002C8DF8560000F09D80E9
:2066600024F0A2FFBDF85C20904240F0968030791F9F00901C9D01971B9A02951D9B03913C
:2066800096F8300010A9049017A8A04785E0ADF830008DF820308DF8227034798DF833407E
:2066A0007189ADF818108DF835E08DF82350ADF826B0ADF828A0CDF82C90307C8DF836C0F1
:2066C000B27C8DF8320096F830308DF83420354C8DF83730B4F8481096F83270ADF8241094
:2066E0001A998DF8387006A8ADF82A1008F01EF853E0C04624DB02001D9FB58937B1000AF9
:2067000004D2284610A917F0F2F9B5899DF85400B6791030C0B223F027FA071C3DD07D8120
:20672000022038703E737C709DF854203A7207F110057D609DF84000800928BF01247C72FB
:206740001499786824F03AF94046007839461EF0EBFA22E09DF8417040462230B189036830
:2067600017F0030F10D110A807901048ADF8181006A921F085FE80B1062141730068407B39
:2067800021461FF005F908E03BB110A82246984703E08DF84D408DF8544021B0BDE8F08FAF
:2067A000F8570020D04F0020FE5500200F4B02002DE9F04FD24CDFF84C93DFF84C83080C79
:2067C000ADF1140D019180F0D4810846400838BF0020C0F0D881676825F00CFA054624F0A4
:2067E000C5FE4FF47A764FF6FF726843B0FBF6F081B267B13B887888CB1A9BB2984210DDAA
:20680000C01A8242C8BF82B2FF68002FF2D14FF6FF70904200F095802078012125F01FF855
:206820008FE0B87902287FD025F0E4F9054624F09DFE97F838204946684301F10A03B0FB88
:20684000F6F038801878904266DD97F83600FF2808D197F83800401C87F8380097F8370090
:2068600087F8360097F8356097F839300020012101E0401CC0B283420FDD97F8365001FA95
:2068800000F285F0FF052A42F3D03618814097F83600F6B2014387F8361097F83400B98FCE
:2068A00010FB06F2891A89B28842C7BFFF2087F83600011C97F8360099F82420FF2818BF1E
:2068C00097F83A0006D140460078642510FB02F212FB05F0788046B9388D3E7A40F02000CC
:2068E0003885386C87F82E600BE03A8D4FF6DF70104038853D6C87F82E6097F8342012FB31
:2069000006507862F879CEB287F82D0007F110007E8407F00BFF10E0B87E97F82A10FA8B2B
:20692000E92320F0CDFC05E0387CFF2802D0B86923F012FA384621F033FB207801211CF01D
